{"contracts/StatToken.sol":{"StatToken":{"abi":[{"inputs":[{"internalType":"address","name":"initialOwner","type":"address"}],"stateMutability":"nonpayable","type":"constructor"},{"inputs":[{"internalType":"address","name":"spender","type":"address"},{"internalType":"uint256","name":"allowance","type":"uint256"},{"internalType":"uint256","name":"needed","type":"uint256"}],"name":"ERC20InsufficientAllowance","type":"error"},{"inputs":[{"internalType":"address","name":"sender","type":"address"},{"internalType":"uint256","name":"balance","type":"uint256"},{"internalType":"uint256","name":"needed","type":"uint256"}],"name":"ERC20InsufficientBalance","type":"error"},{"inputs":[{"internalType":"address","name":"approver","type":"address"}],"name":"ERC20InvalidApprover","type":"error"},{"inputs":[{"internalType":"address","name":"receiver","type":"address"}],"name":"ERC20InvalidReceiver","type":"error"},{"inputs":[{"internalType":"address","name":"sender","type":"address"}],"name":"ERC20InvalidSender","type":"error"},{"inputs":[{"internalType":"address","name":"spender","type":"address"}],"name":"ERC20InvalidSpender","type":"error"},{"inputs":[{"internalType":"address","name":"owner","type":"address"}],"name":"OwnableInvalidOwner","type":"error"},{"inputs":[{"internalType":"address","name":"account","type":"address"}],"name":"OwnableUnauthorizedAccount","type":"error"},{"anonymous":false,"inputs":[{"indexed":true,"internalType":"address","name":"owner","type":"address"},{"indexed":true,"internalType":"address","name":"spender","type":"address"},{"indexed":false,"internalType":"uint256","name":"value","type":"uint256"}],"name":"Approval","type":"event"},{"anonymous":false,"inputs":[{"indexed":true,"internalType":"address","name":"previousOwner","type":"address"},{"indexed":true,"internalType":"address","name":"newOwner","type":"address"}],"name":"OwnershipTransferred","type":"event"},{"anonymous":false,"inputs":[{"indexed":true,"internalType":"address","name":"user","type":"address"},{"indexed":false,"internalType":"uint256","name":"amount","type":"uint256"},{"indexed":false,"internalType":"string","name":"reason","type":"string"}],"name":"StatBurned","type":"event"},{"anonymous":false,"inputs":[{"indexed":true,"internalType":"address","name":"user","type":"address"},{"indexed":false,"internalType":"uint256","name":"amount","type":"uint256"}],"name":"StatDecayed","type":"event"},{"anonymous":false,"inputs":[{"indexed":true,"internalType":"address","name":"user","type":"address"},{"indexed":false,"internalType":"uint256","name":"amount","type":"uint256"},{"indexed":false,"internalType":"string","name":"reason","type":"string"}],"name":"StatMinted","type":"event"},{"anonymous":false,"inputs":[{"indexed":true,"internalType":"address","name":"from","type":"address"},{"indexed":true,"internalType":"address","name":"to","type":"address"},{"indexed":false,"internalType":"uint256","name":"value","type":"uint256"}],"name":"Transfer","type":"event"},{"inputs":[],"name":"DECAY_PERIOD","outputs":[{"internalType":"uint256","name":"","type":"uint256"}],"stateMutability":"view","type":"function"},{"inputs":[],"name":"DECAY_RATE","outputs":[{"internalType":"uint256","name":"","type":"uint256"}],"stateMutability":"view","type":"function"},{"inputs":[{"internalType":"address","name":"owner","type":"address"},{"internalType":"address","name":"spender","type":"address"}],"name":"allowance","outputs":[{"internalType":"uint256","name":"","type":"uint256"}],"stateMutability":"view","type":"function"},{"inputs":[{"internalType":"address","name":"user","type":"address"}],"name":"applyDecay","outputs":[],"stateMutability":"nonpayable","type":"function"},{"inputs":[{"internalType":"address","name":"spender","type":"address"},{"internalType":"uint256","name":"amount","type":"uint256"}],"name":"approve","outputs":[{"internalType":"bool","name":"","type":"bool"}],"stateMutability":"pure","type":"function"},{"inputs":[{"internalType":"address","name":"account","type":"address"}],"name":"balanceOf","outputs":[{"internalType":"uint256","name":"","type":"uint256"}],"stateMutability":"view","type":"function"},{"inputs":[{"internalType":"address","name":"from","type":"address"},{"internalType":"uint256","name":"amount","type":"uint256"},{"internalType":"string","name":"reason","type":"string"}],"name":"burn","outputs":[],"stateMutability":"nonpayable","type":"function"},{"inputs":[],"name":"decimals","outputs":[{"internalType":"uint8","name":"","type":"uint8"}],"stateMutability":"view","type":"function"},{"inputs":[{"internalType":"address","name":"user","type":"address"}],"name":"getUserStats","outputs":[{"components":[{"internalType":"uint256","name":"lastActivityTimestamp","type":"uint256"},{"internalType":"uint256","name":"totalContributions","type":"uint256"},{"internalType":"uint256","name":"proposalsCreated","type":"uint256"},{"internalType":"uint256","name":"votesParticipated","type":"uint256"},{"internalType":"string","name":"role","type":"string"}],"internalType":"struct StatToken.UserStats","name":"","type":"tuple"}],"stateMutability":"view","type":"function"},{"inputs":[{"internalType":"address","name":"user","type":"address"},{"internalType":"string","name":"role","type":"string"}],"name":"initializeUser","outputs":[],"stateMutability":"nonpayable","type":"function"},{"inputs":[{"internalType":"address","name":"to","type":"address"},{"internalType":"uint256","name":"amount","type":"uint256"},{"internalType":"string","name":"reason","type":"string"}],"name":"mint","outputs":[],"stateMutability":"nonpayable","type":"function"},{"inputs":[],"name":"name","outputs":[{"internalType":"string","name":"","type":"string"}],"stateMutability":"view","type":"function"},{"inputs":[{"internalType":"address","name":"user","type":"address"}],"name":"needsDecay","outputs":[{"internalType":"bool","name":"","type":"bool"}],"stateMutability":"view","type":"function"},{"inputs":[],"name":"owner","outputs":[{"internalType":"address","name":"","type":"address"}],"stateMutability":"view","type":"function"},{"inputs":[],"name":"renounceOwnership","outputs":[],"stateMutability":"nonpayable","type":"function"},{"inputs":[{"internalType":"string","name":"","type":"string"}],"name":"roleInitialStats","outputs":[{"internalType":"uint256","name":"","type":"uint256"}],"stateMutability":"view","type":"function"},{"inputs":[],"name":"symbol","outputs":[{"internalType":"string","name":"","type":"string"}],"stateMutability":"view","type":"function"},{"inputs":[],"name":"totalSupply","outputs":[{"internalType":"uint256","name":"","type":"uint256"}],"stateMutability":"view","type":"function"},{"inputs":[{"internalType":"address","name":"to","type":"address"},{"internalType":"uint256","name":"value","type":"uint256"}],"name":"transfer","outputs":[{"internalType":"bool","name":"","type":"bool"}],"stateMutability":"nonpayable","type":"function"},{"inputs":[{"internalType":"address","name":"from","type":"address"},{"internalType":"address","name":"to","type":"address"},{"internalType":"uint256","name":"amount","type":"uint256"}],"name":"transferFrom","outputs":[{"internalType":"bool","name":"","type":"bool"}],"stateMutability":"pure","type":"function"},{"inputs":[{"internalType":"address","name":"newOwner","type":"address"}],"name":"transferOwnership","outputs":[],"stateMutability":"nonpayable","type":"function"},{"inputs":[{"internalType":"address","name":"user","type":"address"},{"internalType":"string","name":"activityType","type":"string"}],"name":"updateActivity","outputs":[],"stateMutability":"nonpayable","type":"function"},{"inputs":[{"internalType":"address","name":"","type":"address"}],"name":"userStats","outputs":[{"internalType":"uint256","name":"lastActivityTimestamp","type":"uint256"},{"internalType":"uint256","name":"totalContributions","type":"uint256"},{"internalType":"uint256","name":"proposalsCreated","type":"uint256"},{"internalType":"uint256","name":"votesParticipated","type":"uint256"},{"internalType":"string","name":"role","type":"string"}],"stateMutability":"view","type":"function"}],"evm":{"bytecode":{"linkReferences":{},"object":"6080346200043357601f620016fd38819003828101601f19908116850194936001600160401b03939092848711868810176200043857808692604098895283396020958691810103126200043357516001600160a01b0394858216949185900362000433576200006e6200044e565b601481527f4754552044414f2053746174757320546f6b656e00000000000000000000000082820152620000a16200044e565b946004958681526314d5105560e21b8482015282519385851162000339576003948554946001958681811c9116801562000428575b848210146200041357908186849311620003bd575b5083908683116001146200035a576000926200034e575b505060001982881b1c191690851b1785555b8151958611620003395787548481811c911680156200032e575b828210146200031957838111620002ce575b50809286116001146200026257508495509084929160009562000256575b50501b92600019911b1c19161781555b81156200023f5750600580546001600160a01b03198116831790915583516103e8936029939192167f8be0079c531659141344cd1fd0a4f28419497f9722a3daafe3b4186f6b6457e0600080a36814149154d25111539560ba1b8152600760098201522055610320602e82516d159250d157d4149154d25111539560921b81526007600e82015220556102586029825168434f52455f5445414d60b81b81526007600982015220556064602682516526a2a6a122a960d11b81526007600682015220555161128e90816200046f8239f35b6024906000855191631e4fbdf760e01b8352820152fd5b0151935038806200015e565b939295859081168860005285600020956000905b89838310620002b3575050501062000298575b50505050811b0181556200016e565b01519060f884600019921b161c191690553880808062000289565b85870151895590970196948501948893509081019062000276565b88600052816000208480890160051c820192848a106200030f575b0160051c019085905b8281106200030257505062000140565b60008155018590620002f2565b92508192620002e9565b602289634e487b7160e01b6000525260246000fd5b90607f16906200012e565b604188634e487b7160e01b6000525260246000fd5b01519050388062000102565b908a8894169189600052856000209260005b87828210620003a657505084116200038d575b505050811b01855562000114565b0151600019838a1b60f8161c191690553880806200037f565b8385015186558b979095019493840193016200036c565b90915087600052836000208680850160051c82019286861062000409575b918991869594930160051c01915b828110620003f9575050620000eb565b60008155859450899101620003e9565b92508192620003db565b60228b634e487b7160e01b6000525260246000fd5b90607f1690620000d6565b600080fd5b634e487b7160e01b600052604160045260246000fd5b60408051919082016001600160401b03811183821017620004385760405256fe6080604081815260048036101561001557600080fd5b600092833560e01c90816306fdde0314610d6257508063095ea7b314610cf057806315f570dc14610c8857806318160ddd14610c695780631de40e4914610c4d5780631e9d490414610c2f57806323b872dd14610bbd578063313ce56714610ba15780634177731f14610b435780634e43603a14610a7557806354ae273814610a1857806370a08231146109e1578063715018a6146109845780638a65d8741461090d5780638da5cb5b146108e45780639582fa341461064257806395d89b4114610553578063a9059cbb146104a2578063ab5a7d5a1461039a578063d3fc98641461030e578063dd62ed3e146102c1578063edfcc437146101b25763f2fde38b1461012057600080fd5b346101ae5760203660031901126101ae57610139610e82565b90610142611111565b6001600160a01b03918216928315610198575050600554826bffffffffffffffffffffffff60a01b821617600555167f8be0079c531659141344cd1fd0a4f28419497f9722a3daafe3b4186f6b6457e08380a380f35b51631e4fbdf760e01b8152908101849052602490fd5b8280fd5b5090346101ae5760203660031901126101ae576101cd610e82565b6001600160a01b03811680855260066020528285205490939062278d0081019081106102ae5742106102745783855284602052828520549060058202918083046005149015171561026157506064900480610226578480f35b7f79f983b8fb121392d55d6b815393bf7dd2134065df6b6c2a14fbff6caf21bc06926102548260209461113d565b51908152a2388080808480f35b634e487b7160e01b865260119052602485fd5b606490602084519162461bcd60e51b8352820152601460248201527355736572206973207374696c6c2061637469766560601b6044820152fd5b634e487b7160e01b865260118252602486fd5b50503461030a578060031936011261030a57806020926102df610e82565b6102e7610e9d565b6001600160a01b0391821683526001865283832091168252845220549051908152f35b5080fd5b50503461030a577f79c5d66e2599a2f835d79ae78578da14935990e01f26baf55a4639c8220559c46103949161034336610f7a565b94909161034e611111565b61035883826111e1565b60018060a01b031694858752600660205260018488204281550161037d8482546110df565b905583519384938452806020850152830190610e5d565b0390a280f35b5090346101ae576103aa3661109f565b92906103b4611111565b60018060a01b0316908185526020936006855242848720558051907fb6d2dc83590271a7c0a5ab5fbf6a2dad418bbfd533c253e3d69a6772712809c7868201928320671c1c9bdc1bdcd85b60c21b88885161040e81610ee5565b60088152015203610437575050506002926006918552528220016104328154611102565b905580f35b51902083517f0932bdf85fc8aa10ac3c22f02317f8f53d4b4f52235ed1eabb3a4cbbe08b5c419263766f746560e01b91879161047282610ee5565b8152015214610482575b50505080f35b6003926006918552528220016104988154611102565b905538808061047c565b5082346105505782600319360112610550576104bc610e82565b331561053b576001600160a01b03161561052757506020608492519162461bcd60e51b8352820152602b60248201527f5354415420697320736f756c626f756e6420616e642063616e6e6f742062652060448201526a1d1c985b9cd9995c9c995960aa1b6064820152fd5b602492519163ec442f0560e01b8352820152fd5b506024925191634b637e8f60e11b8352820152fd5b80fd5b5090346101ae57826003193601126101ae57805183819490845461057681610fc0565b91828552602096600192886001821691826000146106185750506001146105bd575b85886105b9896105aa848a0385610f01565b51928284938452830190610e5d565b0390f35b815286935091907f8a35acfbc15ff81a39ae7d344fd709f28e8600b4aa8c65c6b64bfe7fe36bd19b5b82841061060057505050820101816105aa6105b938610598565b8054848a0186015288955087949093019281016105e6565b60ff19168882015294151560051b870190940194508593506105aa92506105b99150389050610598565b5091903461030a576106533661109f565b9161065c611111565b8051928051602094858181850193610675818387610e3a565b81016007815203019020549384156108b25785969761069486836111e1565b845161069f81610eb3565b42815281888201918883528b88820181815289606084019280845260808501988b8a52600160a01b60019003169e8f8252600690522092518355600194518584015551600283015551600382015501925180519267ffffffffffffffff841161089f575061070d8454610fc0565b601f8111610859575b5088908b601f85116001146107c4579484806107a6966026966103949b967f79c5d66e2599a2f835d79ae78578da14935990e01f26baf55a4639c8220559c49f9e9d9a966107969c97946107b9575b50501b916000199060031b1c19161790555b84519586926502937b6329d160d51b8b85015251809285850190610e3a565b8101036006810185520183610f01565b8080519586958652850152830190610e5d565b015192503880610765565b50848c52898c209293929190601f1984168d5b81811061084457509484610394999461079699947f79c5d66e2599a2f835d79ae78578da14935990e01f26baf55a4639c8220559c49e9d9c99946026986107a69a1061082b575b505050811b019055610777565b015160001960f88460031b161c1916905538808061081e565b82840151855593860193928c01928c016107d7565b848c52898c20601f850160051c8101918b8610610895575b601f0160051c019083905b82811061088a575050610716565b8d815501839061087c565b9091508190610871565b634e487b7160e01b8c526041905260248bfd5b835162461bcd60e51b8152808901879052600c60248201526b496e76616c696420726f6c6560a01b6044820152606490fd5b50503461030a578160031936011261030a5760055490516001600160a01b039091168152602090f35b509134610550576020366003190112610550576105b99082906001600160a01b03610936610e82565b1681526006602052209182549260018101549461095e60028301549160038401549301610ffa565b92805196879687526020870152850152606084015260a0608084015260a0830190610e5d565b833461055057806003193601126105505761099d611111565b600580546001600160a01b0319811690915581906001600160a01b03167f8be0079c531659141344cd1fd0a4f28419497f9722a3daafe3b4186f6b6457e08280a380f35b50503461030a57602036600319011261030a5760209181906001600160a01b03610a09610e82565b16815280845220549051908152f35b5091346105505760203660031901126105505782359067ffffffffffffffff821161055057506020610a518194610a6393369101610f23565b81845193828580945193849201610e3a565b81016007815203019020549051908152f35b5090346101ae57602092836003193601126105505790806105b992610a98610e82565b606060808451610aa781610eb3565b84815289810185905285810185905282810185905201526001600160a01b031681526006865220815193610ada85610eb3565b81548552600182015492868601938452610b0c6002840154928288019384526003850154946060890195865201610ffa565b93608087019485528151978897818952519088015251908601525160608501525160808401525160a08084015260c0830190610e5d565b5091903461030a57602036600319011261030a576001600160a01b03610b67610e82565b1682526006602052808220549162278d008301809311610b8e576020838351904210158152f35b634e487b7160e01b815260118452602490fd5b50503461030a578160031936011261030a576020905160128152f35b50823461055057606036600319011261055057506020608492610bde610e82565b50610be7610e9d565b505162461bcd60e51b815291820152602160248201527f5354415420746f6b656e732063616e6e6f74206265207472616e7366657272656044820152601960fa1b6064820152fd5b50503461030a578160031936011261030a576020905162278d008152f35b50503461030a578160031936011261030a576020905160058152f35b50503461030a578160031936011261030a576020906002549051908152f35b50503461030a577fb6eba437dea61002485068cbdc3eb1297d900efae5943c4ecb01b815e8dcad3c610394610cbc36610f7a565b610cc893919293611111565b610cd2838561113d565b8551938493845286602085015260018060a01b031695830190610e5d565b508234610550578260031936011261055057506020608492610d10610e82565b505162461bcd60e51b815291820152602b60248201527f5354415420746f6b656e732063616e6e6f7420626520617070726f766564206660448201526a37b9103a3930b739b332b960a91b6064820152fd5b84843461030a578160031936011261030a578282600354610d8281610fc0565b9081845260209560019187600182169182600014610e13575050600114610db7575b5050506105b992916105aa910385610f01565b9190869350600383527fc2575a0e9e593c00f959f8c92f12db2869c3395a3b0502d05e2516446f71f85b5b828410610dfb57505050820101816105aa6105b9610da4565b8054848a018601528895508794909301928101610de2565b60ff19168782015293151560051b860190930193508492506105aa91506105b99050610da4565b60005b838110610e4d5750506000910152565b8181015183820152602001610e3d565b90602091610e7681518092818552858086019101610e3a565b601f01601f1916010190565b600435906001600160a01b0382168203610e9857565b600080fd5b602435906001600160a01b0382168203610e9857565b60a0810190811067ffffffffffffffff821117610ecf57604052565b634e487b7160e01b600052604160045260246000fd5b6040810190811067ffffffffffffffff821117610ecf57604052565b90601f8019910116810190811067ffffffffffffffff821117610ecf57604052565b81601f82011215610e985780359067ffffffffffffffff8211610ecf5760405192610f58601f8401601f191660200185610f01565b82845260208383010111610e9857816000926020809301838601378301015290565b6060600319820112610e98576004356001600160a01b0381168103610e985791602435916044359067ffffffffffffffff8211610e9857610fbd91600401610f23565b90565b90600182811c92168015610ff0575b6020831014610fda57565b634e487b7160e01b600052602260045260246000fd5b91607f1691610fcf565b9060405191826000825461100d81610fc0565b9081845260209460019160018116908160001461107d575060011461103e575b50505061103c92500383610f01565b565b600090815285812095935091905b81831061106557505061103c935082010138808061102d565b8554888401850152948501948794509183019161104c565b9250505061103c94925060ff191682840152151560051b82010138808061102d565b906040600319830112610e98576004356001600160a01b0381168103610e9857916024359067ffffffffffffffff8211610e9857610fbd91600401610f23565b919082018092116110ec57565b634e487b7160e01b600052601160045260246000fd5b60001981146110ec5760010190565b6005546001600160a01b0316330361112557565b60405163118cdaa760e01b8152336004820152602490fd5b6001600160a01b031680156111c8576000918183528260205260408320548181106111a557817fddf252ad1be2c89b69c2b068fc378daa952ba7f163c4a11628f55a4df523b3ef926020928587528684520360408620558060025403600255604051908152a3565b606493506040519263391434e360e21b8452600484015260248301526044820152fd5b604051634b637e8f60e11b815260006004820152602490fd5b6001600160a01b031690811561123f577fddf252ad1be2c89b69c2b068fc378daa952ba7f163c4a11628f55a4df523b3ef6020826112236000946002546110df565b60025584845283825260408420818154019055604051908152a3565b60405163ec442f0560e01b815260006004820152602490fdfea264697066735822122040670eeeaaba79274760c5b1facfd687f2939c420fdac84ef23a2c6404a0720364736f6c63430008180033","opcodes":"PUSH1 0x80 CALLVALUE PUSH3 0x433 JUMPI PUSH1 0x1F PUSH3 0x16FD CODESIZE DUP2 SWAP1 SUB DUP3 DUP2 ADD PUSH1 0x1F NOT SWAP1 DUP2 AND DUP6 ADD SWAP5 SWAP4 PUSH1 0x1 PUSH1 0x1 PUSH1 0x40 SHL SUB SWAP4 SWAP1 SWAP3 DUP5 DUP8 GT DUP7 DUP9 LT OR PUSH3 0x438 JUMPI DUP1 DUP7 SWAP3 PUSH1 0x40 SWAP9 DUP10 MSTORE DUP4 CODECOPY PUSH1 0x20 SWAP6 DUP7 SWAP2 DUP2 ADD SUB SLT PUSH3 0x433 JUMPI MLOAD PUSH1 0x1 PUSH1 0x1 PUSH1 0xA0 SHL SUB SWAP5 DUP6 DUP3 AND SWAP5 SWAP2 DUP6 SWAP1 SUB PUSH3 0x433 JUMPI PUSH3 0x6E PUSH3 0x44E JUMP JUMPDEST PUSH1 0x14 DUP2 MSTORE PUSH32 0x4754552044414F2053746174757320546F6B656E000000000000000000000000 DUP3 DUP3 ADD MSTORE PUSH3 0xA1 PUSH3 0x44E JUMP JUMPDEST SWAP5 PUSH1 0x4 SWAP6 DUP7 DUP2 MSTORE PUSH4 0x14D51055 PUSH1 0xE2 SHL DUP5 DUP3 ADD MSTORE DUP3 MLOAD SWAP4 DUP6 DUP6 GT PUSH3 0x339 JUMPI PUSH1 0x3 SWAP5 DUP6 SLOAD SWAP5 PUSH1 0x1 SWAP6 DUP7 DUP2 DUP2 SHR SWAP2 AND DUP1 ISZERO PUSH3 0x428 JUMPI JUMPDEST DUP5 DUP3 LT EQ PUSH3 0x413 JUMPI SWAP1 DUP2 DUP7 DUP5 SWAP4 GT PUSH3 0x3BD JUMPI JUMPDEST POP DUP4 SWAP1 DUP7 DUP4 GT PUSH1 0x1 EQ PUSH3 0x35A JUMPI PUSH1 0x0 SWAP3 PUSH3 0x34E JUMPI JUMPDEST POP POP PUSH1 0x0 NOT DUP3 DUP9 SHL SHR NOT AND SWAP1 DUP6 SHL OR DUP6 SSTORE JUMPDEST DUP2 MLOAD SWAP6 DUP7 GT PUSH3 0x339 JUMPI DUP8 SLOAD DUP5 DUP2 DUP2 SHR SWAP2 AND DUP1 ISZERO PUSH3 0x32E JUMPI JUMPDEST DUP3 DUP3 LT EQ PUSH3 0x319 JUMPI DUP4 DUP2 GT PUSH3 0x2CE JUMPI JUMPDEST POP DUP1 SWAP3 DUP7 GT PUSH1 0x1 EQ PUSH3 0x262 JUMPI POP DUP5 SWAP6 POP SWAP1 DUP5 SWAP3 SWAP2 PUSH1 0x0 SWAP6 PUSH3 0x256 JUMPI JUMPDEST POP POP SHL SWAP3 PUSH1 0x0 NOT SWAP2 SHL SHR NOT AND OR DUP2 SSTORE JUMPDEST DUP2 ISZERO PUSH3 0x23F JUMPI POP PUSH1 0x5 DUP1 SLOAD PUSH1 0x1 PUSH1 0x1 PUSH1 0xA0 SHL SUB NOT DUP2 AND DUP4 OR SWAP1 SWAP2 SSTORE DUP4 MLOAD PUSH2 0x3E8 SWAP4 PUSH1 0x29 SWAP4 SWAP2 SWAP3 AND PUSH32 0x8BE0079C531659141344CD1FD0A4F28419497F9722A3DAAFE3B4186F6B6457E0 PUSH1 0x0 DUP1 LOG3 PUSH9 0x14149154D251115395 PUSH1 0xBA SHL DUP2 MSTORE PUSH1 0x7 PUSH1 0x9 DUP3 ADD MSTORE KECCAK256 SSTORE PUSH2 0x320 PUSH1 0x2E DUP3 MLOAD PUSH14 0x159250D157D4149154D251115395 PUSH1 0x92 SHL DUP2 MSTORE PUSH1 0x7 PUSH1 0xE DUP3 ADD MSTORE KECCAK256 SSTORE PUSH2 0x258 PUSH1 0x29 DUP3 MLOAD PUSH9 0x434F52455F5445414D PUSH1 0xB8 SHL DUP2 MSTORE PUSH1 0x7 PUSH1 0x9 DUP3 ADD MSTORE KECCAK256 SSTORE PUSH1 0x64 PUSH1 0x26 DUP3 MLOAD PUSH6 0x26A2A6A122A9 PUSH1 0xD1 SHL DUP2 MSTORE PUSH1 0x7 PUSH1 0x6 DUP3 ADD MSTORE KECCAK256 SSTORE MLOAD PUSH2 0x128E SWAP1 DUP2 PUSH3 0x46F DUP3 CODECOPY RETURN JUMPDEST PUSH1 0x24 SWAP1 PUSH1 0x0 DUP6 MLOAD SWAP2 PUSH4 0x1E4FBDF7 PUSH1 0xE0 SHL DUP4 MSTORE DUP3 ADD MSTORE REVERT JUMPDEST ADD MLOAD SWAP4 POP CODESIZE DUP1 PUSH3 0x15E JUMP JUMPDEST SWAP4 SWAP3 SWAP6 DUP6 SWAP1 DUP2 AND DUP9 PUSH1 0x0 MSTORE DUP6 PUSH1 0x0 KECCAK256 SWAP6 PUSH1 0x0 SWAP1 JUMPDEST DUP10 DUP4 DUP4 LT PUSH3 0x2B3 JUMPI POP POP POP LT PUSH3 0x298 JUMPI JUMPDEST POP POP POP POP DUP2 SHL ADD DUP2 SSTORE PUSH3 0x16E JUMP JUMPDEST ADD MLOAD SWAP1 PUSH1 0xF8 DUP5 PUSH1 0x0 NOT SWAP3 SHL AND SHR NOT AND SWAP1 SSTORE CODESIZE DUP1 DUP1 DUP1 PUSH3 0x289 JUMP JUMPDEST DUP6 DUP8 ADD MLOAD DUP10 SSTORE SWAP1 SWAP8 ADD SWAP7 SWAP5 DUP6 ADD SWAP5 DUP9 SWAP4 POP SWAP1 DUP2 ADD SWAP1 PUSH3 0x276 JUMP JUMPDEST DUP9 PUSH1 0x0 MSTORE DUP2 PUSH1 0x0 KECCAK256 DUP5 DUP1 DUP10 ADD PUSH1 0x5 SHR DUP3 ADD SWAP3 DUP5 DUP11 LT PUSH3 0x30F JUMPI JUMPDEST ADD PUSH1 0x5 SHR ADD SWAP1 DUP6 SWAP1 JUMPDEST DUP3 DUP2 LT PUSH3 0x302 JUMPI POP POP PUSH3 0x140 JUMP JUMPDEST PUSH1 0x0 DUP2 SSTORE ADD DUP6 SWAP1 PUSH3 0x2F2 JUMP JUMPDEST SWAP3 POP DUP2 SWAP3 PUSH3 0x2E9 JUMP JUMPDEST PUSH1 0x22 DUP10 PUSH4 0x4E487B71 PUSH1 0xE0 SHL PUSH1 0x0 MSTORE MSTORE PUSH1 0x24 PUSH1 0x0 REVERT JUMPDEST SWAP1 PUSH1 0x7F AND SWAP1 PUSH3 0x12E JUMP JUMPDEST PUSH1 0x41 DUP9 PUSH4 0x4E487B71 PUSH1 0xE0 SHL PUSH1 0x0 MSTORE MSTORE PUSH1 0x24 PUSH1 0x0 REVERT JUMPDEST ADD MLOAD SWAP1 POP CODESIZE DUP1 PUSH3 0x102 JUMP JUMPDEST SWAP1 DUP11 DUP9 SWAP5 AND SWAP2 DUP10 PUSH1 0x0 MSTORE DUP6 PUSH1 0x0 KECCAK256 SWAP3 PUSH1 0x0 JUMPDEST DUP8 DUP3 DUP3 LT PUSH3 0x3A6 JUMPI POP POP DUP5 GT PUSH3 0x38D JUMPI JUMPDEST POP POP POP DUP2 SHL ADD DUP6 SSTORE PUSH3 0x114 JUMP JUMPDEST ADD MLOAD PUSH1 0x0 NOT DUP4 DUP11 SHL PUSH1 0xF8 AND SHR NOT AND SWAP1 SSTORE CODESIZE DUP1 DUP1 PUSH3 0x37F JUMP JUMPDEST DUP4 DUP6 ADD MLOAD DUP7 SSTORE DUP12 SWAP8 SWAP1 SWAP6 ADD SWAP5 SWAP4 DUP5 ADD SWAP4 ADD PUSH3 0x36C JUMP JUMPDEST SWAP1 SWAP2 POP DUP8 PUSH1 0x0 MSTORE DUP4 PUSH1 0x0 KECCAK256 DUP7 DUP1 DUP6 ADD PUSH1 0x5 SHR DUP3 ADD SWAP3 DUP7 DUP7 LT PUSH3 0x409 JUMPI JUMPDEST SWAP2 DUP10 SWAP2 DUP7 SWAP6 SWAP5 SWAP4 ADD PUSH1 0x5 SHR ADD SWAP2 JUMPDEST DUP3 DUP2 LT PUSH3 0x3F9 JUMPI POP POP PUSH3 0xEB JUMP JUMPDEST PUSH1 0x0 DUP2 SSTORE DUP6 SWAP5 POP DUP10 SWAP2 ADD PUSH3 0x3E9 JUMP JUMPDEST SWAP3 POP DUP2 SWAP3 PUSH3 0x3DB JUMP JUMPDEST PUSH1 0x22 DUP12 PUSH4 0x4E487B71 PUSH1 0xE0 SHL PUSH1 0x0 MSTORE MSTORE PUSH1 0x24 PUSH1 0x0 REVERT JUMPDEST SWAP1 PUSH1 0x7F AND SWAP1 PUSH3 0xD6 JUMP JUMPDEST PUSH1 0x0 DUP1 REVERT JUMPDEST PUSH4 0x4E487B71 PUSH1 0xE0 SHL PUSH1 0x0 MSTORE PUSH1 0x41 PUSH1 0x4 MSTORE PUSH1 0x24 PUSH1 0x0 REVERT JUMPDEST PUSH1 0x40 DUP1 MLOAD SWAP2 SWAP1 DUP3 ADD PUSH1 0x1 PUSH1 0x1 PUSH1 0x40 SHL SUB DUP2 GT DUP4 DUP3 LT OR PUSH3 0x438 JUMPI PUSH1 0x40 MSTORE JUMP INVALID PUSH1 0x80 PUSH1 0x40 DUP2 DUP2 MSTORE PUSH1 0x4 DUP1 CALLDATASIZE LT ISZERO PUSH2 0x15 JUMPI PUSH1 0x0 DUP1 REVERT JUMPDEST PUSH1 0x0 SWAP3 DUP4 CALLDATALOAD PUSH1 0xE0 SHR SWAP1 DUP2 PUSH4 0x6FDDE03 EQ PUSH2 0xD62 JUMPI POP DUP1 PUSH4 0x95EA7B3 EQ PUSH2 0xCF0 JUMPI DUP1 PUSH4 0x15F570DC EQ PUSH2 0xC88 JUMPI DUP1 PUSH4 0x18160DDD EQ PUSH2 0xC69 JUMPI DUP1 PUSH4 0x1DE40E49 EQ PUSH2 0xC4D JUMPI DUP1 PUSH4 0x1E9D4904 EQ PUSH2 0xC2F JUMPI DUP1 PUSH4 0x23B872DD EQ PUSH2 0xBBD JUMPI DUP1 PUSH4 0x313CE567 EQ PUSH2 0xBA1 JUMPI DUP1 PUSH4 0x4177731F EQ PUSH2 0xB43 JUMPI DUP1 PUSH4 0x4E43603A EQ PUSH2 0xA75 JUMPI DUP1 PUSH4 0x54AE2738 EQ PUSH2 0xA18 JUMPI DUP1 PUSH4 0x70A08231 EQ PUSH2 0x9E1 JUMPI DUP1 PUSH4 0x715018A6 EQ PUSH2 0x984 JUMPI DUP1 PUSH4 0x8A65D874 EQ PUSH2 0x90D JUMPI DUP1 PUSH4 0x8DA5CB5B EQ PUSH2 0x8E4 JUMPI DUP1 PUSH4 0x9582FA34 EQ PUSH2 0x642 JUMPI DUP1 PUSH4 0x95D89B41 EQ PUSH2 0x553 JUMPI DUP1 PUSH4 0xA9059CBB EQ PUSH2 0x4A2 JUMPI DUP1 PUSH4 0xAB5A7D5A EQ PUSH2 0x39A JUMPI DUP1 PUSH4 0xD3FC9864 EQ PUSH2 0x30E JUMPI DUP1 PUSH4 0xDD62ED3E EQ PUSH2 0x2C1 JUMPI DUP1 PUSH4 0xEDFCC437 EQ PUSH2 0x1B2 JUMPI PUSH4 0xF2FDE38B EQ PUSH2 0x120 JUMPI PUSH1 0x0 DUP1 REVERT JUMPDEST CALLVALUE PUSH2 0x1AE JUMPI PUSH1 0x20 CALLDATASIZE PUSH1 0x3 NOT ADD SLT PUSH2 0x1AE JUMPI PUSH2 0x139 PUSH2 0xE82 JUMP JUMPDEST SWAP1 PUSH2 0x142 PUSH2 0x1111 JUMP JUMPDEST PUSH1 0x1 PUSH1 0x1 PUSH1 0xA0 SHL SUB SWAP2 DUP3 AND SWAP3 DUP4 ISZERO PUSH2 0x198 JUMPI POP POP PUSH1 0x5 SLOAD DUP3 PUSH12 0xFFFFFFFFFFFFFFFFFFFFFFFF PUSH1 0xA0 SHL DUP3 AND OR PUSH1 0x5 SSTORE AND PUSH32 0x8BE0079C531659141344CD1FD0A4F28419497F9722A3DAAFE3B4186F6B6457E0 DUP4 DUP1 LOG3 DUP1 RETURN JUMPDEST MLOAD PUSH4 0x1E4FBDF7 PUSH1 0xE0 SHL DUP2 MSTORE SWAP1 DUP2 ADD DUP5 SWAP1 MSTORE PUSH1 0x24 SWAP1 REVERT JUMPDEST DUP3 DUP1 REVERT JUMPDEST POP SWAP1 CALLVALUE PUSH2 0x1AE JUMPI PUSH1 0x20 CALLDATASIZE PUSH1 0x3 NOT ADD SLT PUSH2 0x1AE JUMPI PUSH2 0x1CD PUSH2 0xE82 JUMP JUMPDEST PUSH1 0x1 PUSH1 0x1 PUSH1 0xA0 SHL SUB DUP2 AND DUP1 DUP6 MSTORE PUSH1 0x6 PUSH1 0x20 MSTORE DUP3 DUP6 KECCAK256 SLOAD SWAP1 SWAP4 SWAP1 PUSH3 0x278D00 DUP2 ADD SWAP1 DUP2 LT PUSH2 0x2AE JUMPI TIMESTAMP LT PUSH2 0x274 JUMPI DUP4 DUP6 MSTORE DUP5 PUSH1 0x20 MSTORE DUP3 DUP6 KECCAK256 SLOAD SWAP1 PUSH1 0x5 DUP3 MUL SWAP2 DUP1 DUP4 DIV PUSH1 0x5 EQ SWAP1 ISZERO OR ISZERO PUSH2 0x261 JUMPI POP PUSH1 0x64 SWAP1 DIV DUP1 PUSH2 0x226 JUMPI DUP5 DUP1 RETURN JUMPDEST PUSH32 0x79F983B8FB121392D55D6B815393BF7DD2134065DF6B6C2A14FBFF6CAF21BC06 SWAP3 PUSH2 0x254 DUP3 PUSH1 0x20 SWAP5 PUSH2 0x113D JUMP JUMPDEST MLOAD SWAP1 DUP2 MSTORE LOG2 CODESIZE DUP1 DUP1 DUP1 DUP5 DUP1 RETURN JUMPDEST PUSH4 0x4E487B71 PUSH1 0xE0 SHL DUP7 MSTORE PUSH1 0x11 SWAP1 MSTORE PUSH1 0x24 DUP6 REVERT JUMPDEST PUSH1 0x64 SWAP1 PUSH1 0x20 DUP5 MLOAD SWAP2 PUSH3 0x461BCD PUSH1 0xE5 SHL DUP4 MSTORE DUP3 ADD MSTORE PUSH1 0x14 PUSH1 0x24 DUP3 ADD MSTORE PUSH20 0x55736572206973207374696C6C20616374697665 PUSH1 0x60 SHL PUSH1 0x44 DUP3 ADD MSTORE REVERT JUMPDEST PUSH4 0x4E487B71 PUSH1 0xE0 SHL DUP7 MSTORE PUSH1 0x11 DUP3 MSTORE PUSH1 0x24 DUP7 REVERT JUMPDEST POP POP CALLVALUE PUSH2 0x30A JUMPI DUP1 PUSH1 0x3 NOT CALLDATASIZE ADD SLT PUSH2 0x30A JUMPI DUP1 PUSH1 0x20 SWAP3 PUSH2 0x2DF PUSH2 0xE82 JUMP JUMPDEST PUSH2 0x2E7 PUSH2 0xE9D JUMP JUMPDEST PUSH1 0x1 PUSH1 0x1 PUSH1 0xA0 SHL SUB SWAP2 DUP3 AND DUP4 MSTORE PUSH1 0x1 DUP7 MSTORE DUP4 DUP4 KECCAK256 SWAP2 AND DUP3 MSTORE DUP5 MSTORE KECCAK256 SLOAD SWAP1 MLOAD SWAP1 DUP2 MSTORE RETURN JUMPDEST POP DUP1 REVERT JUMPDEST POP POP CALLVALUE PUSH2 0x30A JUMPI PUSH32 0x79C5D66E2599A2F835D79AE78578DA14935990E01F26BAF55A4639C8220559C4 PUSH2 0x394 SWAP2 PUSH2 0x343 CALLDATASIZE PUSH2 0xF7A JUMP JUMPDEST SWAP5 SWAP1 SWAP2 PUSH2 0x34E PUSH2 0x1111 JUMP JUMPDEST PUSH2 0x358 DUP4 DUP3 PUSH2 0x11E1 JUMP JUMPDEST PUSH1 0x1 DUP1 PUSH1 0xA0 SHL SUB AND SWAP5 DUP6 DUP8 MSTORE PUSH1 0x6 PUSH1 0x20 MSTORE PUSH1 0x1 DUP5 DUP9 KECCAK256 TIMESTAMP DUP2 SSTORE ADD PUSH2 0x37D DUP5 DUP3 SLOAD PUSH2 0x10DF JUMP JUMPDEST SWAP1 SSTORE DUP4 MLOAD SWAP4 DUP5 SWAP4 DUP5 MSTORE DUP1 PUSH1 0x20 DUP6 ADD MSTORE DUP4 ADD SWAP1 PUSH2 0xE5D JUMP JUMPDEST SUB SWAP1 LOG2 DUP1 RETURN JUMPDEST POP SWAP1 CALLVALUE PUSH2 0x1AE JUMPI PUSH2 0x3AA CALLDATASIZE PUSH2 0x109F JUMP JUMPDEST SWAP3 SWAP1 PUSH2 0x3B4 PUSH2 0x1111 JUMP JUMPDEST PUSH1 0x1 DUP1 PUSH1 0xA0 SHL SUB AND SWAP1 DUP2 DUP6 MSTORE PUSH1 0x20 SWAP4 PUSH1 0x6 DUP6 MSTORE TIMESTAMP DUP5 DUP8 KECCAK256 SSTORE DUP1 MLOAD SWAP1 PUSH32 0xB6D2DC83590271A7C0A5AB5FBF6A2DAD418BBFD533C253E3D69A6772712809C7 DUP7 DUP3 ADD SWAP3 DUP4 KECCAK256 PUSH8 0x1C1C9BDC1BDCD85B PUSH1 0xC2 SHL DUP9 DUP9 MLOAD PUSH2 0x40E DUP2 PUSH2 0xEE5 JUMP JUMPDEST PUSH1 0x8 DUP2 MSTORE ADD MSTORE SUB PUSH2 0x437 JUMPI POP POP POP PUSH1 0x2 SWAP3 PUSH1 0x6 SWAP2 DUP6 MSTORE MSTORE DUP3 KECCAK256 ADD PUSH2 0x432 DUP2 SLOAD PUSH2 0x1102 JUMP JUMPDEST SWAP1 SSTORE DUP1 RETURN JUMPDEST MLOAD SWAP1 KECCAK256 DUP4 MLOAD PUSH32 0x932BDF85FC8AA10AC3C22F02317F8F53D4B4F52235ED1EABB3A4CBBE08B5C41 SWAP3 PUSH4 0x766F7465 PUSH1 0xE0 SHL SWAP2 DUP8 SWAP2 PUSH2 0x472 DUP3 PUSH2 0xEE5 JUMP JUMPDEST DUP2 MSTORE ADD MSTORE EQ PUSH2 0x482 JUMPI JUMPDEST POP POP POP DUP1 RETURN JUMPDEST PUSH1 0x3 SWAP3 PUSH1 0x6 SWAP2 DUP6 MSTORE MSTORE DUP3 KECCAK256 ADD PUSH2 0x498 DUP2 SLOAD PUSH2 0x1102 JUMP JUMPDEST SWAP1 SSTORE CODESIZE DUP1 DUP1 PUSH2 0x47C JUMP JUMPDEST POP DUP3 CALLVALUE PUSH2 0x550 JUMPI DUP3 PUSH1 0x3 NOT CALLDATASIZE ADD SLT PUSH2 0x550 JUMPI PUSH2 0x4BC PUSH2 0xE82 JUMP JUMPDEST CALLER ISZERO PUSH2 0x53B JUMPI PUSH1 0x1 PUSH1 0x1 PUSH1 0xA0 SHL SUB AND ISZERO PUSH2 0x527 JUMPI POP PUSH1 0x20 PUSH1 0x84 SWAP3 MLOAD SWAP2 PUSH3 0x461BCD PUSH1 0xE5 SHL DUP4 MSTORE DUP3 ADD MSTORE PUSH1 0x2B PUSH1 0x24 DUP3 ADD MSTORE PUSH32 0x5354415420697320736F756C626F756E6420616E642063616E6E6F7420626520 PUSH1 0x44 DUP3 ADD MSTORE PUSH11 0x1D1C985B9CD9995C9C9959 PUSH1 0xAA SHL PUSH1 0x64 DUP3 ADD MSTORE REVERT JUMPDEST PUSH1 0x24 SWAP3 MLOAD SWAP2 PUSH4 0xEC442F05 PUSH1 0xE0 SHL DUP4 MSTORE DUP3 ADD MSTORE REVERT JUMPDEST POP PUSH1 0x24 SWAP3 MLOAD SWAP2 PUSH4 0x4B637E8F PUSH1 0xE1 SHL DUP4 MSTORE DUP3 ADD MSTORE REVERT JUMPDEST DUP1 REVERT JUMPDEST POP SWAP1 CALLVALUE PUSH2 0x1AE JUMPI DUP3 PUSH1 0x3 NOT CALLDATASIZE ADD SLT PUSH2 0x1AE JUMPI DUP1 MLOAD DUP4 DUP2 SWAP5 SWAP1 DUP5 SLOAD PUSH2 0x576 DUP2 PUSH2 0xFC0 JUMP JUMPDEST SWAP2 DUP3 DUP6 MSTORE PUSH1 0x20 SWAP7 PUSH1 0x1 SWAP3 DUP9 PUSH1 0x1 DUP3 AND SWAP2 DUP3 PUSH1 0x0 EQ PUSH2 0x618 JUMPI POP POP PUSH1 0x1 EQ PUSH2 0x5BD JUMPI JUMPDEST DUP6 DUP9 PUSH2 0x5B9 DUP10 PUSH2 0x5AA DUP5 DUP11 SUB DUP6 PUSH2 0xF01 JUMP JUMPDEST MLOAD SWAP3 DUP3 DUP5 SWAP4 DUP5 MSTORE DUP4 ADD SWAP1 PUSH2 0xE5D JUMP JUMPDEST SUB SWAP1 RETURN JUMPDEST DUP2 MSTORE DUP7 SWAP4 POP SWAP2 SWAP1 PUSH32 0x8A35ACFBC15FF81A39AE7D344FD709F28E8600B4AA8C65C6B64BFE7FE36BD19B JUMPDEST DUP3 DUP5 LT PUSH2 0x600 JUMPI POP POP POP DUP3 ADD ADD DUP2 PUSH2 0x5AA PUSH2 0x5B9 CODESIZE PUSH2 0x598 JUMP JUMPDEST DUP1 SLOAD DUP5 DUP11 ADD DUP7 ADD MSTORE DUP9 SWAP6 POP DUP8 SWAP5 SWAP1 SWAP4 ADD SWAP3 DUP2 ADD PUSH2 0x5E6 JUMP JUMPDEST PUSH1 0xFF NOT AND DUP9 DUP3 ADD MSTORE SWAP5 ISZERO ISZERO PUSH1 0x5 SHL DUP8 ADD SWAP1 SWAP5 ADD SWAP5 POP DUP6 SWAP4 POP PUSH2 0x5AA SWAP3 POP PUSH2 0x5B9 SWAP2 POP CODESIZE SWAP1 POP PUSH2 0x598 JUMP JUMPDEST POP SWAP2 SWAP1 CALLVALUE PUSH2 0x30A JUMPI PUSH2 0x653 CALLDATASIZE PUSH2 0x109F JUMP JUMPDEST SWAP2 PUSH2 0x65C PUSH2 0x1111 JUMP JUMPDEST DUP1 MLOAD SWAP3 DUP1 MLOAD PUSH1 0x20 SWAP5 DUP6 DUP2 DUP2 DUP6 ADD SWAP4 PUSH2 0x675 DUP2 DUP4 DUP8 PUSH2 0xE3A JUMP JUMPDEST DUP2 ADD PUSH1 0x7 DUP2 MSTORE SUB ADD SWAP1 KECCAK256 SLOAD SWAP4 DUP5 ISZERO PUSH2 0x8B2 JUMPI DUP6 SWAP7 SWAP8 PUSH2 0x694 DUP7 DUP4 PUSH2 0x11E1 JUMP JUMPDEST DUP5 MLOAD PUSH2 0x69F DUP2 PUSH2 0xEB3 JUMP JUMPDEST TIMESTAMP DUP2 MSTORE DUP2 DUP9 DUP3 ADD SWAP2 DUP9 DUP4 MSTORE DUP12 DUP9 DUP3 ADD DUP2 DUP2 MSTORE DUP10 PUSH1 0x60 DUP5 ADD SWAP3 DUP1 DUP5 MSTORE PUSH1 0x80 DUP6 ADD SWAP9 DUP12 DUP11 MSTORE PUSH1 0x1 PUSH1 0xA0 SHL PUSH1 0x1 SWAP1 SUB AND SWAP15 DUP16 DUP3 MSTORE PUSH1 0x6 SWAP1 MSTORE KECCAK256 SWAP3 MLOAD DUP4 SSTORE PUSH1 0x1 SWAP5 MLOAD DUP6 DUP5 ADD SSTORE MLOAD PUSH1 0x2 DUP4 ADD SSTORE MLOAD PUSH1 0x3 DUP3 ADD SSTORE ADD SWAP3 MLOAD DUP1 MLOAD SWAP3 PUSH8 0xFFFFFFFFFFFFFFFF DUP5 GT PUSH2 0x89F JUMPI POP PUSH2 0x70D DUP5 SLOAD PUSH2 0xFC0 JUMP JUMPDEST PUSH1 0x1F DUP2 GT PUSH2 0x859 JUMPI JUMPDEST POP DUP9 SWAP1 DUP12 PUSH1 0x1F DUP6 GT PUSH1 0x1 EQ PUSH2 0x7C4 JUMPI SWAP5 DUP5 DUP1 PUSH2 0x7A6 SWAP7 PUSH1 0x26 SWAP7 PUSH2 0x394 SWAP12 SWAP7 PUSH32 0x79C5D66E2599A2F835D79AE78578DA14935990E01F26BAF55A4639C8220559C4 SWAP16 SWAP15 SWAP14 SWAP11 SWAP7 PUSH2 0x796 SWAP13 SWAP8 SWAP5 PUSH2 0x7B9 JUMPI JUMPDEST POP POP SHL SWAP2 PUSH1 0x0 NOT SWAP1 PUSH1 0x3 SHL SHR NOT AND OR SWAP1 SSTORE JUMPDEST DUP5 MLOAD SWAP6 DUP7 SWAP3 PUSH6 0x2937B6329D1 PUSH1 0xD5 SHL DUP12 DUP6 ADD MSTORE MLOAD DUP1 SWAP3 DUP6 DUP6 ADD SWAP1 PUSH2 0xE3A JUMP JUMPDEST DUP2 ADD SUB PUSH1 0x6 DUP2 ADD DUP6 MSTORE ADD DUP4 PUSH2 0xF01 JUMP JUMPDEST DUP1 DUP1 MLOAD SWAP6 DUP7 SWAP6 DUP7 MSTORE DUP6 ADD MSTORE DUP4 ADD SWAP1 PUSH2 0xE5D JUMP JUMPDEST ADD MLOAD SWAP3 POP CODESIZE DUP1 PUSH2 0x765 JUMP JUMPDEST POP DUP5 DUP13 MSTORE DUP10 DUP13 KECCAK256 SWAP3 SWAP4 SWAP3 SWAP2 SWAP1 PUSH1 0x1F NOT DUP5 AND DUP14 JUMPDEST DUP2 DUP2 LT PUSH2 0x844 JUMPI POP SWAP5 DUP5 PUSH2 0x394 SWAP10 SWAP5 PUSH2 0x796 SWAP10 SWAP5 PUSH32 0x79C5D66E2599A2F835D79AE78578DA14935990E01F26BAF55A4639C8220559C4 SWAP15 SWAP14 SWAP13 SWAP10 SWAP5 PUSH1 0x26 SWAP9 PUSH2 0x7A6 SWAP11 LT PUSH2 0x82B JUMPI JUMPDEST POP POP POP DUP2 SHL ADD SWAP1 SSTORE PUSH2 0x777 JUMP JUMPDEST ADD MLOAD PUSH1 0x0 NOT PUSH1 0xF8 DUP5 PUSH1 0x3 SHL AND SHR NOT AND SWAP1 SSTORE CODESIZE DUP1 DUP1 PUSH2 0x81E JUMP JUMPDEST DUP3 DUP5 ADD MLOAD DUP6 SSTORE SWAP4 DUP7 ADD SWAP4 SWAP3 DUP13 ADD SWAP3 DUP13 ADD PUSH2 0x7D7 JUMP JUMPDEST DUP5 DUP13 MSTORE DUP10 DUP13 KECCAK256 PUSH1 0x1F DUP6 ADD PUSH1 0x5 SHR DUP2 ADD SWAP2 DUP12 DUP7 LT PUSH2 0x895 JUMPI JUMPDEST PUSH1 0x1F ADD PUSH1 0x5 SHR ADD SWAP1 DUP4 SWAP1 JUMPDEST DUP3 DUP2 LT PUSH2 0x88A JUMPI POP POP PUSH2 0x716 JUMP JUMPDEST DUP14 DUP2 SSTORE ADD DUP4 SWAP1 PUSH2 0x87C JUMP JUMPDEST SWAP1 SWAP2 POP DUP2 SWAP1 PUSH2 0x871 JUMP JUMPDEST PUSH4 0x4E487B71 PUSH1 0xE0 SHL DUP13 MSTORE PUSH1 0x41 SWAP1 MSTORE PUSH1 0x24 DUP12 REVERT JUMPDEST DUP4 MLOAD PUSH3 0x461BCD PUSH1 0xE5 SHL DUP2 MSTORE DUP1 DUP10 ADD DUP8 SWAP1 MSTORE PUSH1 0xC PUSH1 0x24 DUP3 ADD MSTORE PUSH12 0x496E76616C696420726F6C65 PUSH1 0xA0 SHL PUSH1 0x44 DUP3 ADD MSTORE PUSH1 0x64 SWAP1 REVERT JUMPDEST POP POP CALLVALUE PUSH2 0x30A JUMPI DUP2 PUSH1 0x3 NOT CALLDATASIZE ADD SLT PUSH2 0x30A JUMPI PUSH1 0x5 SLOAD SWAP1 MLOAD PUSH1 0x1 PUSH1 0x1 PUSH1 0xA0 SHL SUB SWAP1 SWAP2 AND DUP2 MSTORE PUSH1 0x20 SWAP1 RETURN JUMPDEST POP SWAP2 CALLVALUE PUSH2 0x550 JUMPI PUSH1 0x20 CALLDATASIZE PUSH1 0x3 NOT ADD SLT PUSH2 0x550 JUMPI PUSH2 0x5B9 SWAP1 DUP3 SWAP1 PUSH1 0x1 PUSH1 0x1 PUSH1 0xA0 SHL SUB PUSH2 0x936 PUSH2 0xE82 JUMP JUMPDEST AND DUP2 MSTORE PUSH1 0x6 PUSH1 0x20 MSTORE KECCAK256 SWAP2 DUP3 SLOAD SWAP3 PUSH1 0x1 DUP2 ADD SLOAD SWAP5 PUSH2 0x95E PUSH1 0x2 DUP4 ADD SLOAD SWAP2 PUSH1 0x3 DUP5 ADD SLOAD SWAP4 ADD PUSH2 0xFFA JUMP JUMPDEST SWAP3 DUP1 MLOAD SWAP7 DUP8 SWAP7 DUP8 MSTORE PUSH1 0x20 DUP8 ADD MSTORE DUP6 ADD MSTORE PUSH1 0x60 DUP5 ADD MSTORE PUSH1 0xA0 PUSH1 0x80 DUP5 ADD MSTORE PUSH1 0xA0 DUP4 ADD SWAP1 PUSH2 0xE5D JUMP JUMPDEST DUP4 CALLVALUE PUSH2 0x550 JUMPI DUP1 PUSH1 0x3 NOT CALLDATASIZE ADD SLT PUSH2 0x550 JUMPI PUSH2 0x99D PUSH2 0x1111 JUMP JUMPDEST PUSH1 0x5 DUP1 SLOAD PUSH1 0x1 PUSH1 0x1 PUSH1 0xA0 SHL SUB NOT DUP2 AND SWAP1 SWAP2 SSTORE DUP2 SWAP1 PUSH1 0x1 PUSH1 0x1 PUSH1 0xA0 SHL SUB AND PUSH32 0x8BE0079C531659141344CD1FD0A4F28419497F9722A3DAAFE3B4186F6B6457E0 DUP3 DUP1 LOG3 DUP1 RETURN JUMPDEST POP POP CALLVALUE PUSH2 0x30A JUMPI PUSH1 0x20 CALLDATASIZE PUSH1 0x3 NOT ADD SLT PUSH2 0x30A JUMPI PUSH1 0x20 SWAP2 DUP2 SWAP1 PUSH1 0x1 PUSH1 0x1 PUSH1 0xA0 SHL SUB PUSH2 0xA09 PUSH2 0xE82 JUMP JUMPDEST AND DUP2 MSTORE DUP1 DUP5 MSTORE KECCAK256 SLOAD SWAP1 MLOAD SWAP1 DUP2 MSTORE RETURN JUMPDEST POP SWAP2 CALLVALUE PUSH2 0x550 JUMPI PUSH1 0x20 CALLDATASIZE PUSH1 0x3 NOT ADD SLT PUSH2 0x550 JUMPI DUP3 CALLDATALOAD SWAP1 PUSH8 0xFFFFFFFFFFFFFFFF DUP3 GT PUSH2 0x550 JUMPI POP PUSH1 0x20 PUSH2 0xA51 DUP2 SWAP5 PUSH2 0xA63 SWAP4 CALLDATASIZE SWAP2 ADD PUSH2 0xF23 JUMP JUMPDEST DUP2 DUP5 MLOAD SWAP4 DUP3 DUP6 DUP1 SWAP5 MLOAD SWAP4 DUP5 SWAP3 ADD PUSH2 0xE3A JUMP JUMPDEST DUP2 ADD PUSH1 0x7 DUP2 MSTORE SUB ADD SWAP1 KECCAK256 SLOAD SWAP1 MLOAD SWAP1 DUP2 MSTORE RETURN JUMPDEST POP SWAP1 CALLVALUE PUSH2 0x1AE JUMPI PUSH1 0x20 SWAP3 DUP4 PUSH1 0x3 NOT CALLDATASIZE ADD SLT PUSH2 0x550 JUMPI SWAP1 DUP1 PUSH2 0x5B9 SWAP3 PUSH2 0xA98 PUSH2 0xE82 JUMP JUMPDEST PUSH1 0x60 PUSH1 0x80 DUP5 MLOAD PUSH2 0xAA7 DUP2 PUSH2 0xEB3 JUMP JUMPDEST DUP5 DUP2 MSTORE DUP10 DUP2 ADD DUP6 SWAP1 MSTORE DUP6 DUP2 ADD DUP6 SWAP1 MSTORE DUP3 DUP2 ADD DUP6 SWAP1 MSTORE ADD MSTORE PUSH1 0x1 PUSH1 0x1 PUSH1 0xA0 SHL SUB AND DUP2 MSTORE PUSH1 0x6 DUP7 MSTORE KECCAK256 DUP2 MLOAD SWAP4 PUSH2 0xADA DUP6 PUSH2 0xEB3 JUMP JUMPDEST DUP2 SLOAD DUP6 MSTORE PUSH1 0x1 DUP3 ADD SLOAD SWAP3 DUP7 DUP7 ADD SWAP4 DUP5 MSTORE PUSH2 0xB0C PUSH1 0x2 DUP5 ADD SLOAD SWAP3 DUP3 DUP9 ADD SWAP4 DUP5 MSTORE PUSH1 0x3 DUP6 ADD SLOAD SWAP5 PUSH1 0x60 DUP10 ADD SWAP6 DUP7 MSTORE ADD PUSH2 0xFFA JUMP JUMPDEST SWAP4 PUSH1 0x80 DUP8 ADD SWAP5 DUP6 MSTORE DUP2 MLOAD SWAP8 DUP9 SWAP8 DUP2 DUP10 MSTORE MLOAD SWAP1 DUP9 ADD MSTORE MLOAD SWAP1 DUP7 ADD MSTORE MLOAD PUSH1 0x60 DUP6 ADD MSTORE MLOAD PUSH1 0x80 DUP5 ADD MSTORE MLOAD PUSH1 0xA0 DUP1 DUP5 ADD MSTORE PUSH1 0xC0 DUP4 ADD SWAP1 PUSH2 0xE5D JUMP JUMPDEST POP SWAP2 SWAP1 CALLVALUE PUSH2 0x30A JUMPI PUSH1 0x20 CALLDATASIZE PUSH1 0x3 NOT ADD SLT PUSH2 0x30A JUMPI PUSH1 0x1 PUSH1 0x1 PUSH1 0xA0 SHL SUB PUSH2 0xB67 PUSH2 0xE82 JUMP JUMPDEST AND DUP3 MSTORE PUSH1 0x6 PUSH1 0x20 MSTORE DUP1 DUP3 KECCAK256 SLOAD SWAP2 PUSH3 0x278D00 DUP4 ADD DUP1 SWAP4 GT PUSH2 0xB8E JUMPI PUSH1 0x20 DUP4 DUP4 MLOAD SWAP1 TIMESTAMP LT ISZERO DUP2 MSTORE RETURN JUMPDEST PUSH4 0x4E487B71 PUSH1 0xE0 SHL DUP2 MSTORE PUSH1 0x11 DUP5 MSTORE PUSH1 0x24 SWAP1 REVERT JUMPDEST POP POP CALLVALUE PUSH2 0x30A JUMPI DUP2 PUSH1 0x3 NOT CALLDATASIZE ADD SLT PUSH2 0x30A JUMPI PUSH1 0x20 SWAP1 MLOAD PUSH1 0x12 DUP2 MSTORE RETURN JUMPDEST POP DUP3 CALLVALUE PUSH2 0x550 JUMPI PUSH1 0x60 CALLDATASIZE PUSH1 0x3 NOT ADD SLT PUSH2 0x550 JUMPI POP PUSH1 0x20 PUSH1 0x84 SWAP3 PUSH2 0xBDE PUSH2 0xE82 JUMP JUMPDEST POP PUSH2 0xBE7 PUSH2 0xE9D JUMP JUMPDEST POP MLOAD PUSH3 0x461BCD PUSH1 0xE5 SHL DUP2 MSTORE SWAP2 DUP3 ADD MSTORE PUSH1 0x21 PUSH1 0x24 DUP3 ADD MSTORE PUSH32 0x5354415420746F6B656E732063616E6E6F74206265207472616E736665727265 PUSH1 0x44 DUP3 ADD MSTORE PUSH1 0x19 PUSH1 0xFA SHL PUSH1 0x64 DUP3 ADD MSTORE REVERT JUMPDEST POP POP CALLVALUE PUSH2 0x30A JUMPI DUP2 PUSH1 0x3 NOT CALLDATASIZE ADD SLT PUSH2 0x30A JUMPI PUSH1 0x20 SWAP1 MLOAD PUSH3 0x278D00 DUP2 MSTORE RETURN JUMPDEST POP POP CALLVALUE PUSH2 0x30A JUMPI DUP2 PUSH1 0x3 NOT CALLDATASIZE ADD SLT PUSH2 0x30A JUMPI PUSH1 0x20 SWAP1 MLOAD PUSH1 0x5 DUP2 MSTORE RETURN JUMPDEST POP POP CALLVALUE PUSH2 0x30A JUMPI DUP2 PUSH1 0x3 NOT CALLDATASIZE ADD SLT PUSH2 0x30A JUMPI PUSH1 0x20 SWAP1 PUSH1 0x2 SLOAD SWAP1 MLOAD SWAP1 DUP2 MSTORE RETURN JUMPDEST POP POP CALLVALUE PUSH2 0x30A JUMPI PUSH32 0xB6EBA437DEA61002485068CBDC3EB1297D900EFAE5943C4ECB01B815E8DCAD3C PUSH2 0x394 PUSH2 0xCBC CALLDATASIZE PUSH2 0xF7A JUMP JUMPDEST PUSH2 0xCC8 SWAP4 SWAP2 SWAP3 SWAP4 PUSH2 0x1111 JUMP JUMPDEST PUSH2 0xCD2 DUP4 DUP6 PUSH2 0x113D JUMP JUMPDEST DUP6 MLOAD SWAP4 DUP5 SWAP4 DUP5 MSTORE DUP7 PUSH1 0x20 DUP6 ADD MSTORE PUSH1 0x1 DUP1 PUSH1 0xA0 SHL SUB AND SWAP6 DUP4 ADD SWAP1 PUSH2 0xE5D JUMP JUMPDEST POP DUP3 CALLVALUE PUSH2 0x550 JUMPI DUP3 PUSH1 0x3 NOT CALLDATASIZE ADD SLT PUSH2 0x550 JUMPI POP PUSH1 0x20 PUSH1 0x84 SWAP3 PUSH2 0xD10 PUSH2 0xE82 JUMP JUMPDEST POP MLOAD PUSH3 0x461BCD PUSH1 0xE5 SHL DUP2 MSTORE SWAP2 DUP3 ADD MSTORE PUSH1 0x2B PUSH1 0x24 DUP3 ADD MSTORE PUSH32 0x5354415420746F6B656E732063616E6E6F7420626520617070726F7665642066 PUSH1 0x44 DUP3 ADD MSTORE PUSH11 0x37B9103A3930B739B332B9 PUSH1 0xA9 SHL PUSH1 0x64 DUP3 ADD MSTORE REVERT JUMPDEST DUP5 DUP5 CALLVALUE PUSH2 0x30A JUMPI DUP2 PUSH1 0x3 NOT CALLDATASIZE ADD SLT PUSH2 0x30A JUMPI DUP3 DUP3 PUSH1 0x3 SLOAD PUSH2 0xD82 DUP2 PUSH2 0xFC0 JUMP JUMPDEST SWAP1 DUP2 DUP5 MSTORE PUSH1 0x20 SWAP6 PUSH1 0x1 SWAP2 DUP8 PUSH1 0x1 DUP3 AND SWAP2 DUP3 PUSH1 0x0 EQ PUSH2 0xE13 JUMPI POP POP PUSH1 0x1 EQ PUSH2 0xDB7 JUMPI JUMPDEST POP POP POP PUSH2 0x5B9 SWAP3 SWAP2 PUSH2 0x5AA SWAP2 SUB DUP6 PUSH2 0xF01 JUMP JUMPDEST SWAP2 SWAP1 DUP7 SWAP4 POP PUSH1 0x3 DUP4 MSTORE PUSH32 0xC2575A0E9E593C00F959F8C92F12DB2869C3395A3B0502D05E2516446F71F85B JUMPDEST DUP3 DUP5 LT PUSH2 0xDFB JUMPI POP POP POP DUP3 ADD ADD DUP2 PUSH2 0x5AA PUSH2 0x5B9 PUSH2 0xDA4 JUMP JUMPDEST DUP1 SLOAD DUP5 DUP11 ADD DUP7 ADD MSTORE DUP9 SWAP6 POP DUP8 SWAP5 SWAP1 SWAP4 ADD SWAP3 DUP2 ADD PUSH2 0xDE2 JUMP JUMPDEST PUSH1 0xFF NOT AND DUP8 DUP3 ADD MSTORE SWAP4 ISZERO ISZERO PUSH1 0x5 SHL DUP7 ADD SWAP1 SWAP4 ADD SWAP4 POP DUP5 SWAP3 POP PUSH2 0x5AA SWAP2 POP PUSH2 0x5B9 SWAP1 POP PUSH2 0xDA4 JUMP JUMPDEST PUSH1 0x0 JUMPDEST DUP4 DUP2 LT PUSH2 0xE4D JUMPI POP POP PUSH1 0x0 SWAP2 ADD MSTORE JUMP JUMPDEST DUP2 DUP2 ADD MLOAD DUP4 DUP3 ADD MSTORE PUSH1 0x20 ADD PUSH2 0xE3D JUMP JUMPDEST SWAP1 PUSH1 0x20 SWAP2 PUSH2 0xE76 DUP2 MLOAD DUP1 SWAP3 DUP2 DUP6 MSTORE DUP6 DUP1 DUP7 ADD SWAP2 ADD PUSH2 0xE3A JUMP JUMPDEST PUSH1 0x1F ADD PUSH1 0x1F NOT AND ADD ADD SWAP1 JUMP JUMPDEST PUSH1 0x4 CALLDATALOAD SWAP1 PUSH1 0x1 PUSH1 0x1 PUSH1 0xA0 SHL SUB DUP3 AND DUP3 SUB PUSH2 0xE98 JUMPI JUMP JUMPDEST PUSH1 0x0 DUP1 REVERT JUMPDEST PUSH1 0x24 CALLDATALOAD SWAP1 PUSH1 0x1 PUSH1 0x1 PUSH1 0xA0 SHL SUB DUP3 AND DUP3 SUB PUSH2 0xE98 JUMPI JUMP JUMPDEST PUSH1 0xA0 DUP2 ADD SWAP1 DUP2 LT PUSH8 0xFFFFFFFFFFFFFFFF DUP3 GT OR PUSH2 0xECF JUMPI PUSH1 0x40 MSTORE JUMP JUMPDEST PUSH4 0x4E487B71 PUSH1 0xE0 SHL PUSH1 0x0 MSTORE PUSH1 0x41 PUSH1 0x4 MSTORE PUSH1 0x24 PUSH1 0x0 REVERT JUMPDEST PUSH1 0x40 DUP2 ADD SWAP1 DUP2 LT PUSH8 0xFFFFFFFFFFFFFFFF DUP3 GT OR PUSH2 0xECF JUMPI PUSH1 0x40 MSTORE JUMP JUMPDEST SWAP1 PUSH1 0x1F DUP1 NOT SWAP2 ADD AND DUP2 ADD SWAP1 DUP2 LT PUSH8 0xFFFFFFFFFFFFFFFF DUP3 GT OR PUSH2 0xECF JUMPI PUSH1 0x40 MSTORE JUMP JUMPDEST DUP2 PUSH1 0x1F DUP3 ADD SLT ISZERO PUSH2 0xE98 JUMPI DUP1 CALLDATALOAD SWAP1 PUSH8 0xFFFFFFFFFFFFFFFF DUP3 GT PUSH2 0xECF JUMPI PUSH1 0x40 MLOAD SWAP3 PUSH2 0xF58 PUSH1 0x1F DUP5 ADD PUSH1 0x1F NOT AND PUSH1 0x20 ADD DUP6 PUSH2 0xF01 JUMP JUMPDEST DUP3 DUP5 MSTORE PUSH1 0x20 DUP4 DUP4 ADD ADD GT PUSH2 0xE98 JUMPI DUP2 PUSH1 0x0 SWAP3 PUSH1 0x20 DUP1 SWAP4 ADD DUP4 DUP7 ADD CALLDATACOPY DUP4 ADD ADD MSTORE SWAP1 JUMP JUMPDEST PUSH1 0x60 PUSH1 0x3 NOT DUP3 ADD SLT PUSH2 0xE98 JUMPI PUSH1 0x4 CALLDATALOAD PUSH1 0x1 PUSH1 0x1 PUSH1 0xA0 SHL SUB DUP2 AND DUP2 SUB PUSH2 0xE98 JUMPI SWAP2 PUSH1 0x24 CALLDATALOAD SWAP2 PUSH1 0x44 CALLDATALOAD SWAP1 PUSH8 0xFFFFFFFFFFFFFFFF DUP3 GT PUSH2 0xE98 JUMPI PUSH2 0xFBD SWAP2 PUSH1 0x4 ADD PUSH2 0xF23 JUMP JUMPDEST SWAP1 JUMP JUMPDEST SWAP1 PUSH1 0x1 DUP3 DUP2 SHR SWAP3 AND DUP1 ISZERO PUSH2 0xFF0 JUMPI JUMPDEST PUSH1 0x20 DUP4 LT EQ PUSH2 0xFDA JUMPI JUMP JUMPDEST PUSH4 0x4E487B71 PUSH1 0xE0 SHL PUSH1 0x0 MSTORE PUSH1 0x22 PUSH1 0x4 MSTORE PUSH1 0x24 PUSH1 0x0 REVERT JUMPDEST SWAP2 PUSH1 0x7F AND SWAP2 PUSH2 0xFCF JUMP JUMPDEST SWAP1 PUSH1 0x40 MLOAD SWAP2 DUP3 PUSH1 0x0 DUP3 SLOAD PUSH2 0x100D DUP2 PUSH2 0xFC0 JUMP JUMPDEST SWAP1 DUP2 DUP5 MSTORE PUSH1 0x20 SWAP5 PUSH1 0x1 SWAP2 PUSH1 0x1 DUP2 AND SWAP1 DUP2 PUSH1 0x0 EQ PUSH2 0x107D JUMPI POP PUSH1 0x1 EQ PUSH2 0x103E JUMPI JUMPDEST POP POP POP PUSH2 0x103C SWAP3 POP SUB DUP4 PUSH2 0xF01 JUMP JUMPDEST JUMP JUMPDEST PUSH1 0x0 SWAP1 DUP2 MSTORE DUP6 DUP2 KECCAK256 SWAP6 SWAP4 POP SWAP2 SWAP1 JUMPDEST DUP2 DUP4 LT PUSH2 0x1065 JUMPI POP POP PUSH2 0x103C SWAP4 POP DUP3 ADD ADD CODESIZE DUP1 DUP1 PUSH2 0x102D JUMP JUMPDEST DUP6 SLOAD DUP9 DUP5 ADD DUP6 ADD MSTORE SWAP5 DUP6 ADD SWAP5 DUP8 SWAP5 POP SWAP2 DUP4 ADD SWAP2 PUSH2 0x104C JUMP JUMPDEST SWAP3 POP POP POP PUSH2 0x103C SWAP5 SWAP3 POP PUSH1 0xFF NOT AND DUP3 DUP5 ADD MSTORE ISZERO ISZERO PUSH1 0x5 SHL DUP3 ADD ADD CODESIZE DUP1 DUP1 PUSH2 0x102D JUMP JUMPDEST SWAP1 PUSH1 0x40 PUSH1 0x3 NOT DUP4 ADD SLT PUSH2 0xE98 JUMPI PUSH1 0x4 CALLDATALOAD PUSH1 0x1 PUSH1 0x1 PUSH1 0xA0 SHL SUB DUP2 AND DUP2 SUB PUSH2 0xE98 JUMPI SWAP2 PUSH1 0x24 CALLDATALOAD SWAP1 PUSH8 0xFFFFFFFFFFFFFFFF DUP3 GT PUSH2 0xE98 JUMPI PUSH2 0xFBD SWAP2 PUSH1 0x4 ADD PUSH2 0xF23 JUMP JUMPDEST SWAP2 SWAP1 DUP3 ADD DUP1 SWAP3 GT PUSH2 0x10EC JUMPI JUMP JUMPDEST PUSH4 0x4E487B71 PUSH1 0xE0 SHL PUSH1 0x0 MSTORE PUSH1 0x11 PUSH1 0x4 MSTORE PUSH1 0x24 PUSH1 0x0 REVERT JUMPDEST PUSH1 0x0 NOT DUP2 EQ PUSH2 0x10EC JUMPI PUSH1 0x1 ADD SWAP1 JUMP JUMPDEST PUSH1 0x5 SLOAD PUSH1 0x1 PUSH1 0x1 PUSH1 0xA0 SHL SUB AND CALLER SUB PUSH2 0x1125 JUMPI JUMP JUMPDEST PUSH1 0x40 MLOAD PUSH4 0x118CDAA7 PUSH1 0xE0 SHL DUP2 MSTORE CALLER PUSH1 0x4 DUP3 ADD MSTORE PUSH1 0x24 SWAP1 REVERT JUMPDEST PUSH1 0x1 PUSH1 0x1 PUSH1 0xA0 SHL SUB AND DUP1 ISZERO PUSH2 0x11C8 JUMPI PUSH1 0x0 SWAP2 DUP2 DUP4 MSTORE DUP3 PUSH1 0x20 MSTORE PUSH1 0x40 DUP4 KECCAK256 SLOAD DUP2 DUP2 LT PUSH2 0x11A5 JUMPI DUP2 PUSH32 0xDDF252AD1BE2C89B69C2B068FC378DAA952BA7F163C4A11628F55A4DF523B3EF SWAP3 PUSH1 0x20 SWAP3 DUP6 DUP8 MSTORE DUP7 DUP5 MSTORE SUB PUSH1 0x40 DUP7 KECCAK256 SSTORE DUP1 PUSH1 0x2 SLOAD SUB PUSH1 0x2 SSTORE PUSH1 0x40 MLOAD SWAP1 DUP2 MSTORE LOG3 JUMP JUMPDEST PUSH1 0x64 SWAP4 POP PUSH1 0x40 MLOAD SWAP3 PUSH4 0x391434E3 PUSH1 0xE2 SHL DUP5 MSTORE PUSH1 0x4 DUP5 ADD MSTORE PUSH1 0x24 DUP4 ADD MSTORE PUSH1 0x44 DUP3 ADD MSTORE REVERT JUMPDEST PUSH1 0x40 MLOAD PUSH4 0x4B637E8F PUSH1 0xE1 SHL DUP2 MSTORE PUSH1 0x0 PUSH1 0x4 DUP3 ADD MSTORE PUSH1 0x24 SWAP1 REVERT JUMPDEST PUSH1 0x1 PUSH1 0x1 PUSH1 0xA0 SHL SUB AND SWAP1 DUP2 ISZERO PUSH2 0x123F JUMPI PUSH32 0xDDF252AD1BE2C89B69C2B068FC378DAA952BA7F163C4A11628F55A4DF523B3EF PUSH1 0x20 DUP3 PUSH2 0x1223 PUSH1 0x0 SWAP5 PUSH1 0x2 SLOAD PUSH2 0x10DF JUMP JUMPDEST PUSH1 0x2 SSTORE DUP5 DUP5 MSTORE DUP4 DUP3 MSTORE PUSH1 0x40 DUP5 KECCAK256 DUP2 DUP2 SLOAD ADD SWAP1 SSTORE PUSH1 0x40 MLOAD SWAP1 DUP2 MSTORE LOG3 JUMP JUMPDEST PUSH1 0x40 MLOAD PUSH4 0xEC442F05 PUSH1 0xE0 SHL DUP2 MSTORE PUSH1 0x0 PUSH1 0x4 DUP3 ADD MSTORE PUSH1 0x24 SWAP1 REVERT INVALID LOG2 PUSH5 0x6970667358 0x22 SLT KECCAK256 BLOCKHASH PUSH8 0xEEEAABA79274760 0xC5 0xB1 STATICCALL 0xCF 0xD6 DUP8 CALLCODE SWAP4 SWAP13 TIMESTAMP 0xF 0xDA 0xC8 0x4E CALLCODE GASPRICE 0x2C PUSH5 0x4A0720364 PUSH20 0x6F6C634300081800330000000000000000000000 "},"methodIdentifiers":{"DECAY_PERIOD()":"1e9d4904","DECAY_RATE()":"1de40e49","allowance(address,address)":"dd62ed3e","applyDecay(address)":"edfcc437","approve(address,uint256)":"095ea7b3","balanceOf(address)":"70a08231","burn(address,uint256,string)":"15f570dc","decimals()":"313ce567","getUserStats(address)":"4e43603a","initializeUser(address,string)":"9582fa34","mint(address,uint256,string)":"d3fc9864","name()":"06fdde03","needsDecay(address)":"4177731f","owner()":"8da5cb5b","renounceOwnership()":"715018a6","roleInitialStats(string)":"54ae2738","symbol()":"95d89b41","totalSupply()":"18160ddd","transfer(address,uint256)":"a9059cbb","transferFrom(address,address,uint256)":"23b872dd","transferOwnership(address)":"f2fde38b","updateActivity(address,string)":"ab5a7d5a","userStats(address)":"8a65d874"}}}}}