{"contracts/GTUDAOGovernance.sol":{"GTUDAOGovernance":{"abi":[{"inputs":[],"stateMutability":"nonpayable","type":"constructor"},{"anonymous":false,"inputs":[{"indexed":true,"internalType":"address","name":"memberAddress","type":"address"},{"indexed":false,"internalType":"string","name":"name","type":"string"},{"indexed":false,"internalType":"enum GTUDAOGovernance.MemberRole","name":"role","type":"uint8"},{"indexed":false,"internalType":"uint256","name":"timestamp","type":"uint256"}],"name":"MemberAdded","type":"event"},{"anonymous":false,"inputs":[{"indexed":true,"internalType":"address","name":"memberAddress","type":"address"},{"indexed":false,"internalType":"string","name":"verificationType","type":"string"},{"indexed":false,"internalType":"uint256","name":"timestamp","type":"uint256"}],"name":"MemberVerified","type":"event"},{"anonymous":false,"inputs":[{"indexed":true,"internalType":"uint256","name":"proposalId","type":"uint256"},{"indexed":true,"internalType":"address","name":"proposer","type":"address"},{"indexed":false,"internalType":"bool","name":"worldIDVerified","type":"bool"},{"indexed":false,"internalType":"bool","name":"zkProofVerified","type":"bool"},{"indexed":false,"internalType":"uint256","name":"timestamp","type":"uint256"}],"name":"ProposalCreatedWithVerification","type":"event"},{"anonymous":false,"inputs":[{"indexed":true,"internalType":"uint256","name":"proposalId","type":"uint256"},{"indexed":false,"internalType":"bool","name":"isAnonymous","type":"bool"},{"indexed":false,"internalType":"bytes32","name":"zkProofId","type":"bytes32"},{"indexed":false,"internalType":"uint256","name":"timestamp","type":"uint256"}],"name":"VoteCastWithPrivacy","type":"event"},{"inputs":[],"name":"MIN_STAT_FOR_PROPOSAL","outputs":[{"internalType":"uint256","name":"","type":"uint256"}],"stateMutability":"view","type":"function"},{"inputs":[],"name":"MIN_STAT_FOR_VOTING","outputs":[{"internalType":"uint256","name":"","type":"uint256"}],"stateMutability":"view","type":"function"},{"inputs":[],"name":"PROPOSAL_DURATION","outputs":[{"internalType":"uint256","name":"","type":"uint256"}],"stateMutability":"view","type":"function"},{"inputs":[{"internalType":"address","name":"memberAddress","type":"address"},{"internalType":"string","name":"name","type":"string"},{"internalType":"string","name":"email","type":"string"},{"internalType":"enum GTUDAOGovernance.MemberRole","name":"role","type":"uint8"},{"internalType":"string","name":"studentId","type":"string"},{"internalType":"string","name":"department","type":"string"}],"name":"addMember","outputs":[],"stateMutability":"nonpayable","type":"function"},{"inputs":[],"name":"admin","outputs":[{"internalType":"address","name":"","type":"address"}],"stateMutability":"view","type":"function"},{"inputs":[],"name":"blockscoutRegistry","outputs":[{"internalType":"contract BlockscoutRegistry","name":"","type":"address"}],"stateMutability":"view","type":"function"},{"inputs":[{"internalType":"string","name":"title","type":"string"},{"internalType":"string","name":"description","type":"string"},{"internalType":"string","name":"category","type":"string"},{"internalType":"enum VotingWithWeight.ProposalType","name":"proposalType","type":"uint8"}],"name":"createProposal","outputs":[{"internalType":"uint256","name":"proposalId","type":"uint256"}],"stateMutability":"nonpayable","type":"function"},{"inputs":[],"name":"getAllMembers","outputs":[{"internalType":"address[]","name":"","type":"address[]"}],"stateMutability":"view","type":"function"},{"inputs":[],"name":"getDAOStats","outputs":[{"internalType":"uint256","name":"totalMembers","type":"uint256"},{"internalType":"uint256","name":"worldIDVerified","type":"uint256"},{"internalType":"uint256","name":"zkProofVerified","type":"uint256"},{"internalType":"uint256","name":"totalProposals","type":"uint256"},{"internalType":"uint256","name":"totalVotes","type":"uint256"},{"internalType":"uint256","name":"totalSTATSupply","type":"uint256"}],"stateMutability":"view","type":"function"},{"inputs":[{"internalType":"address","name":"memberAddress","type":"address"}],"name":"getMember","outputs":[{"components":[{"internalType":"address","name":"wallet","type":"address"},{"internalType":"string","name":"name","type":"string"},{"internalType":"string","name":"email","type":"string"},{"internalType":"enum GTUDAOGovernance.MemberRole","name":"role","type":"uint8"},{"internalType":"uint256","name":"joinDate","type":"uint256"},{"internalType":"bool","name":"isVerifiedWithWorldID","type":"bool"},{"internalType":"bool","name":"hasZKProof","type":"bool"},{"internalType":"bool","name":"isActive","type":"bool"},{"internalType":"string","name":"studentId","type":"string"},{"internalType":"string","name":"department","type":"string"}],"internalType":"struct GTUDAOGovernance.Member","name":"","type":"tuple"}],"stateMutability":"view","type":"function"},{"inputs":[{"internalType":"address","name":"","type":"address"}],"name":"isMember","outputs":[{"internalType":"bool","name":"","type":"bool"}],"stateMutability":"view","type":"function"},{"inputs":[{"internalType":"uint256","name":"","type":"uint256"}],"name":"memberAddresses","outputs":[{"internalType":"address","name":"","type":"address"}],"stateMutability":"view","type":"function"},{"inputs":[{"internalType":"address","name":"","type":"address"}],"name":"members","outputs":[{"internalType":"address","name":"wallet","type":"address"},{"internalType":"string","name":"name","type":"string"},{"internalType":"string","name":"email","type":"string"},{"internalType":"enum GTUDAOGovernance.MemberRole","name":"role","type":"uint8"},{"internalType":"uint256","name":"joinDate","type":"uint256"},{"internalType":"bool","name":"isVerifiedWithWorldID","type":"bool"},{"internalType":"bool","name":"hasZKProof","type":"bool"},{"internalType":"bool","name":"isActive","type":"bool"},{"internalType":"string","name":"studentId","type":"string"},{"internalType":"string","name":"department","type":"string"}],"stateMutability":"view","type":"function"},{"inputs":[],"name":"pauseAll","outputs":[],"stateMutability":"nonpayable","type":"function"},{"inputs":[],"name":"statToken","outputs":[{"internalType":"contract StatToken","name":"","type":"address"}],"stateMutability":"view","type":"function"},{"inputs":[{"internalType":"uint256[8]","name":"proof","type":"uint256[8]"},{"internalType":"uint256[]","name":"publicSignals","type":"uint256[]"},{"internalType":"string","name":"proofType","type":"string"}],"name":"submitZKProof","outputs":[{"internalType":"bytes32","name":"proofId","type":"bytes32"}],"stateMutability":"nonpayable","type":"function"},{"inputs":[{"internalType":"address","name":"_statToken","type":"address"},{"internalType":"address","name":"_voting","type":"address"},{"internalType":"address","name":"_worldVerifier","type":"address"},{"internalType":"address","name":"_vlayerVerifier","type":"address"},{"internalType":"address","name":"_blockscoutRegistry","type":"address"}],"name":"updateContracts","outputs":[],"stateMutability":"nonpayable","type":"function"},{"inputs":[{"internalType":"uint256","name":"merkleRoot","type":"uint256"},{"internalType":"uint256","name":"nullifierHash","type":"uint256"},{"internalType":"uint256[8]","name":"proof","type":"uint256[8]"},{"internalType":"string","name":"verificationLevel","type":"string"}],"name":"verifyWithWorldID","outputs":[],"stateMutability":"nonpayable","type":"function"},{"inputs":[],"name":"vlayerVerifier","outputs":[{"internalType":"contract VlayerZKVerifier","name":"","type":"address"}],"stateMutability":"view","type":"function"},{"inputs":[{"internalType":"uint256","name":"proposalId","type":"uint256"},{"internalType":"bool","name":"support","type":"bool"},{"internalType":"string","name":"comment","type":"string"},{"internalType":"bool","name":"useAnonymousVoting","type":"bool"}],"name":"voteOnProposal","outputs":[],"stateMutability":"nonpayable","type":"function"},{"inputs":[],"name":"voting","outputs":[{"internalType":"contract VotingWithWeight","name":"","type":"address"}],"stateMutability":"view","type":"function"},{"inputs":[],"name":"worldVerifier","outputs":[{"internalType":"contract WorldIDVerifier","name":"","type":"address"}],"stateMutability":"view","type":"function"}],"evm":{"bytecode":{"linkReferences":{},"object":"6080806040523462000f1e57600580546001600160a01b031916331790556000906116fd808201906001600160401b0382118383101762000b9857602091839162006887833930815203019082f0801562000f115781546001600160a01b0319166001600160a01b0391909116908117825560405190611bb780830191906001600160401b0383118484101762000c96579183916020936200a6be8439815203019082f0801562000f1157600180546001600160a01b0319166001600160a01b039290921691909117905560405161147a808201906001600160401b0382118383101762000b985760c09183916200c275833960408152600b60408201526a06774755f64616f5f6170760ac1b606082015260806020820152601360808201527f6d656d6265725f766572696669636174696f6e0000000000000000000000000060a082015203019082f0801562000f1157600280546001600160a01b0319166001600160a01b039290921691909117905560405161273a808201906001600160401b0382118383101762000b9857602091839162007f84833984815203019082f0801562000f1157600380546001600160a01b0319166001600160a01b0392909216919091179055604051613038808201906001600160401b0382118383101762000b985760209183916200384f833930815203019082f0801562000f1157600480546001600160a01b0319166001600160a01b03831617905560405190620002298262000f37565b60028252825b6040811062000eff5750604051620002478162000f53565b600a815269676f7665726e616e636560b01b6020820152620002698362000f6f565b52620002758262000f6f565b50604051620002848162000f53565b600381526264616f60e81b60208201526200029f8362000f93565b52620002ab8262000f93565b506001600160a01b0381163b1562000a8657908290604051928391633879523b60e11b835230600484015260a06024840152601260a4840152714754552044414f20476f7665726e616e636560701b60c484015260e06044840152602460e48401527f4d61696e20676f7665726e616e636520636f6e747261637420666f7220475455610104840152632044414f60e01b61012484015261014060648401526005610144840152640312e302e360dc1b6101648401526101848301610180608485015281518091526101a4906020828601928260051b87010193019186905b82821062000ec857505050908390039183915084906001600160a01b03165af1801562000a7b5762000eb6575b506005549060405190620003cb8262000f53565b600582526420b236b4b760d91b6020830152604051620003eb8162000f53565b601081526f30b236b4b72033ba3a9732b23a973a3960811b6020820152604051620004168162000f53565b600881526741444d494e30303160c01b6020820152604051906200043a8262000f53565b601482527f436f6d707574657220456e67696e656572696e67000000000000000000000000602083015260018060a01b0386168452600760205260ff60408520541662000e7e57604051926001600160401b0361014085019081119085111762000a4d57610140840160409081526001600160a01b0388811680875260208088018a8152848901959095526003606089015242608089015260a0880189905260c08801899052600160e08901526101008801959095526101208701959095529386526006909252908420835181546001600160a01b0319169316929092178255518051919291906001600160401b03821162000c96576001840154600181811c9116801562000e73575b602082101462000c77579081601f84931162000e1e575b50602090601f831160011462000daa57869262000d9e575b50508160011b916000199060031b1c19161760018301555b60408101518051906001600160401b03821162000c96576002840154600181811c9116801562000d93575b602082101462000c77579081601f84931162000d3e575b50602090601f831160011462000cca57869262000cbe575b50508160011b916000199060031b1c19161760028301555b6060810151600481101562000caa5760ff80196003850154169116176003830155608081015160048301556005820160a08201511515815461ff0060c0850151151560081b169060ff62ff000060e0870151151560101b1693169062ffffff1916171717905561010081015180519060018060401b03821162000c96576006840154600181811c9116801562000c8b575b602082101462000c7757601f811162000c2e575b50602090601f831160011462000bb85761012093929186918362000bac575b50508160011b916000199060031b1c19161760068401555b01518051906001600160401b03821162000b98576007830154600181811c9116801562000b8d575b602082101462000b7957601f811162000b30575b50602090601f831160011462000abe576007929185918362000ab2575b50508160011b916000199060031b1c1916179101555b6001600160a01b0383168152600760205260408120805460ff191660011790556008546801000000000000000081101562000a9e57600181018060085581101562000a8a57600882527ff3f7a9fe364faab93b216da50a3214154f22a0a2b415b23a84c8169e8b636ee30180546001600160a01b0319166001600160a01b03858116919091179091558154604051911690620007e48162000f53565b600981526814149154d25111539560ba1b6020820152813b1562000a86576200083d83928392604051948580948193632560be8d60e21b835260018060a01b038c16600484015260406024840152604483019062000fc9565b03925af1801562000a7b5790829162000a63575b505060018060a01b0360045416604051602081019060018060601b03198660601b168252426034820152603481526200088a8162000f37565b51902060018060a01b036005541691604051926d020b23232b21036b2b6b132b91d160951b6020850152838651620008ca81602e840160208b0162000fa4565b810103600e8101855292601f19604d85011685018086116001600160401b039091111762000a4d57604d8401601f19168501604052823b1562000a4957630d40766360e41b604d8501601f19168601908152600481019190915260248101919091526001600160a01b03871660448201526064810185905260e0608482015260e4810185905261010060a4820152600f6101048201526e36b2b6b132b916b0b23234ba34b7b760891b61012482015261014060c48201528491816200099461014482018762000fc9565b039083601f19604d8701168701915af1801562000a3e5762000a19575b847fc3f6cd842afc7162589b0ff2afb036e61a88d71b6ce813c0d273e7735ae4a383620009ed8660405191829160608352606083019062000fc9565b600360208301524260408301526001600160a01b03909416930390a260405161285e908162000ff18239f35b829162000a2e91604d01601f19160162000f23565b62000a3b578080620009b1565b80fd5b6040513d85823e3d90fd5b8580fd5b634e487b7160e01b600052604160045260246000fd5b62000a6e9062000f23565b62000a3b57803862000851565b6040513d84823e3d90fd5b8280fd5b634e487b7160e01b82526032600452602482fd5b634e487b7160e01b82526041600452602482fd5b01519050388062000732565b906007840185526020852091855b601f198516811062000b175750918391600193600795601f1981161062000afd575b505050811b0191015562000748565b015160001960f88460031b161c1916905538808062000aee565b9192602060018192868501518155019401920162000acc565b60078401855260208520601f840160051c81016020851062000b71575b601f830160051c8201811062000b6557505062000715565b86815560010162000b4d565b508062000b4d565b634e487b7160e01b85526022600452602485fd5b90607f169062000701565b634e487b7160e01b84526041600452602484fd5b015190503880620006c1565b906006850186526020862091865b601f198516811062000c1557509183916001936101209695601f1981161062000bfb575b505050811b016006840155620006d9565b015160001960f88460031b161c1916905538808062000bea565b9192602060018192868501518155019401920162000bc6565b60068501865260208620601f840160051c81016020851062000c6f575b601f830160051c8201811062000c63575050620006a2565b87815560010162000c4b565b508062000c4b565b634e487b7160e01b86526022600452602486fd5b90607f16906200068e565b634e487b7160e01b85526041600452602485fd5b634e487b7160e01b84526021600452602484fd5b015190503880620005e5565b9250600285018652602086209086935b601f198416851062000d22576001945083601f1981161062000d08575b505050811b016002830155620005fd565b015160001960f88460031b161c1916905538808062000cf7565b8181015183556020948501946001909301929091019062000cda565b90915060028501865260208620601f840160051c81016020851062000d8b575b90849392915b601f830160051c8201811062000d7c575050620005cd565b88815585945060010162000d64565b508062000d5e565b90607f1690620005b6565b01519050388062000573565b9250600185018652602086209086935b601f198416851062000e02576001945083601f1981161062000de8575b505050811b0160018301556200058b565b015160001960f88460031b161c1916905538808062000dd7565b8181015183556020948501946001909301929091019062000dba565b90915060018501865260208620601f840160051c81016020851062000e6b575b90849392915b601f830160051c8201811062000e5c5750506200055b565b88815585945060010162000e44565b508062000e3e565b90607f169062000544565b60405162461bcd60e51b815260206004820152601060248201526f20b63932b0b23c90309036b2b6b132b960811b6044820152606490fd5b62000ec19062000f23565b38620003b7565b92955092600191949650602062000eec81926101a3198b8203018652885162000fc9565b960192019201928795938795936200038a565b8060606020809386010152016200022f565b50604051903d90823e3d90fd5b600080fd5b6001600160401b03811162000a4d57604052565b606081019081106001600160401b0382111762000a4d57604052565b604081019081106001600160401b0382111762000a4d57604052565b80511562000f7d5760200190565b634e487b7160e01b600052603260045260246000fd5b80516001101562000f7d5760400190565b60005b83811062000fb85750506000910152565b818101518382015260200162000fa7565b9060209162000fe48151809281855285808601910162000fa4565b601f01601f191601019056fe608080604052600436101561001357600080fd5b600090813560e01c90816307a57b11146122a95750806308ae4b0c146121a65780631caa449c1461217d5780632a017fdc146121615780632ada259614611f6d5780634e9e55bb14611be9578063595c6a6714611bc05780635fb6658a14611abb57806366ce2cf8146115a357806370c3b4241461157c5780637be700ba146112775780637c0f6b35146111b15780637f09701014611193578063923fa33414610838578063a230c524146107f9578063cc4e6299146107b5578063efe540a314610350578063f851a44014610327578063f9feed501461030b578063fce1ccca146102e2578063ff5989bd146102b95763ffc4bfde1461011357600080fd5b346102b657806003193601126102b65780806008906008549260018060a01b03906001958260015416604051958691631a5007dd60e01b835282600460209485935afa9485156102ab57869561027b575b600497508281885416604051998a80926318160ddd60e01b82525afa97881561027057879861023c575b50865b8981106101be5750505060c0975060405196875286015260408501526060840152608083015260a0820152f35b80826101ca8d93612541565b919054600392831b1c168a526040600680885260ff92838d600594859120015416610229575b86906101fb86612541565b9054911b1c168c52875260408b200154851c16610219575b01610191565b956102239061274b565b95610213565b98610234879161274b565b9990506101f0565b9097508281813d8311610269575b61025481836123ba565b810103126102645751963861018e565b600080fd5b503d61024a565b6040513d89823e3d90fd5b94508187813d83116102a4575b61029281836123ba565b81010312610264576004965194610164565b503d610288565b6040513d88823e3d90fd5b80fd5b50346102b657806003193601126102b6576002546040516001600160a01b039091168152602090f35b50346102b657806003193601126102b6576001546040516001600160a01b039091168152602090f35b50346102b657806003193601126102b657602060405160648152f35b50346102b657806003193601126102b6576005546040516001600160a01b039091168152602090f35b50346102b6576101403660031901126102b65736602312156102645760405161037881612383565b803661010411610264576004905b61010482106107a5575050610104356001600160401b039182821161073257366023830112156107325781600401359183831161078f578260051b604051936103d260208301866123ba565b8452602460208501918301019136831161078b579060248794939201905b82821061077857505050610124359384116106fc5760206104186104b89536906004016124eb565b9384923385526007835261043260ff6040872054166126f3565b6104a485604051858101903360601b82526104736054828961045f60348d819e5193849286019101612480565b8101428c820152038a8101845201826123ba565b5190209260018060a01b0360035416936104cb6040519b8c9788968795634370a39b60e01b87526004870190612697565b6101606101048601526101648501906126bf565b838103600319016101248501528b6124a3565b9061014483015203925af193841561076d578294610736575b50338252600660205260408220600501805461ff00191661010090811790915582549091906001600160a01b0316803b156107325783809160a4604051809481936334ff261960e21b8352336004840152601e60248401526060604484015260136064840152722d2590283937b7b31029bab136b4b9b9b4b7b760691b60848401525af190811561072757849161070f575b505060018060a01b03600454169060405160208101903360601b8252663d35b83937b7b360c91b8382015242603b820152603b81526105b48161234d565b51902061060b60018060a01b03600354169260405180987302d2590383937b7b31039bab136b4ba3a32b21d160651b60208301526105fb8151809260208686019101612480565b81010360148101895201876123ba565b823b1561070b57849061068460405197889687958694630d40766360e41b86526004860152336024860152604485015284606485015260e060848501528460e485015260a4840152610672610104840160409060038152626b796360e81b60208201520190565b8381036003190160c4850152906124a3565b03925af18015610700576106e8575b6020826040516040815260086040820152672d2590283937b7b360c11b606082015242838201527f64cd12011fa3ea9d6004c30f53dee41172f5af5bad7e741bbd40259705cf96ea60803392a2604051908152f35b6106f2839161233a565b6106fc5781610693565b5080fd5b6040513d85823e3d90fd5b8480fd5b6107189061233a565b610723578238610576565b8280fd5b6040513d86823e3d90fd5b8380fd5b915092506020813d602011610765575b81610753602093836123ba565b810103126102645783905192386104e4565b3d9150610746565b6040513d84823e3d90fd5b81358152879450602091820191016103f0565b8680fd5b634e487b7160e01b600052604160045260246000fd5b8135815260209182019101610386565b50346102b65760203660031901126102b657600435906008548210156102b65760206107e083612541565b905460405160039290921b1c6001600160a01b03168152f35b50346102b65760203660031901126102b65760209060ff906040906001600160a01b036108246122ce565b168152600784522054166040519015158152f35b50346102b65760c03660031901126102b6576108526122ce565b6024356001600160401b038111610723576108719036906004016124eb565b6044356001600160401b038111610732576108909036906004016124eb565b60046064351015610732576084356001600160401b03811161070b576108ba9036906004016124eb565b60a4356001600160401b03811161118f576108d99036906004016124eb565b906108ef60018060a01b03600554163314612641565b6001600160a01b03851686526007602052604086205460ff1661115757604051926109198461231e565b6001600160a01b0386168452602084018590526040840152610940606435606085016125b3565b42608084015260a0830186905260c08301869052600160e08401526101008301526101208201526001600160a01b0383811685526006602090815260408620835181546001600160a01b03191693169290921782558201518051919291906001600160401b038211610f9b5781906109bb60018601546122e4565b601f8111611107575b50602090601f831160011461109857889261108d575b50508160011b916000199060031b1c19161760018301555b60408101518051906001600160401b038211610f9b578190610a1760028601546122e4565b601f811161103d575b50602090601f8311600114610fce578892610fc3575b50508160011b916000199060031b1c19161760028301555b6003820160608201516004811015610faf5760ff80198354169116179055608081015160048301556005820160a08201511515815461ff0060c085015115159160ff62ff000060e0880151151560101b1694169062ffffff1916179160081b16171790556101008101518051906001600160401b038211610f9b57610ad660068501546122e4565b601f8111610f57575b50602090601f8311600114610ee657610120939291889183610edb575b50508160011b916000199060031b1c19161760068401555b01518051906001600160401b038211610ec757610b3460078401546122e4565b601f8111610e83575b50602090601f8311600114610e165760079291879183610e0b575b50508160011b916000199060031b1c1916179101555b6001600160a01b0382168352600760205260408320805460ff1916600117905560085468010000000000000000811015610df757806001610bb29201600855612541565b81546001600160a01b0360039290921b82811b1990911685831690911b179091558354849116610be3606435612770565b90803b156107235760408051632560be8d60e21b81526001600160a01b038716600482015260248101919091529183918391829084908290610c299060448301906124a3565b03925af1801561076d57610de3575b506004546040516bffffffffffffffffffffffff19606086901b16602082019081524260348301526001600160a01b039092169190610c8481605481015b03601f1981018352826123ba565b51902060018060a01b036005541691604051906d020b23232b21036b2b6b132b91d160951b6020830152610cd6602e838851610cc68184840160208d01612480565b810103600e8101855201836123ba565b803b1561070b57610d5f9385809460405196879586948593630d40766360e41b85526004850152602484015260018060a01b038c16604484015283606484015260e060848401528360e484015261010060a4840152600f6101048401526e36b2b6b132b916b0b23234ba34b7b760891b61012484015261014060c48401526101448301906124a3565b03925af1801561076d57610dcf575b5050610da97fc3f6cd842afc7162589b0ff2afb036e61a88d71b6ce813c0d273e7735ae4a383916040519182916060835260608301906124a3565b93610db9602083016064356124c8565b4260408301526001600160a01b0316930390a280f35b610dd89061233a565b610723578238610d6e565b610dec9061233a565b610723578238610c38565b634e487b7160e01b84526041600452602484fd5b015190503880610b58565b906007840187526020872091875b601f1985168110610e6b5750918391600193600795601f19811610610e52575b505050811b01910155610b6e565b015160001960f88460031b161c19169055388080610e44565b91926020600181928685015181550194019201610e24565b60078401875260208720601f840160051c810160208510610ec0575b601f830160051c82018110610eb5575050610b3d565b888155600101610e9f565b5080610e9f565b634e487b7160e01b86526041600452602486fd5b015190503880610afc565b906006850188526020882091885b601f1985168110610f3f57509183916001936101209695601f19811610610f26575b505050811b016006840155610b14565b015160001960f88460031b161c19169055388080610f16565b91926020600181928685015181550194019201610ef4565b60068501885260208820601f840160051c810160208510610f94575b601f830160051c82018110610f89575050610adf565b898155600101610f73565b5080610f73565b634e487b7160e01b87526041600452602487fd5b634e487b7160e01b87526021600452602487fd5b015190503880610a36565b9250600285018852602088209088935b601f1984168510611022576001945083601f19811610611009575b505050811b016002830155610a4e565b015160001960f88460031b161c19169055388080610ff9565b81810151835560209485019460019093019290910190610fde565b90915060028501885260208820601f840160051c810160208510611086575b90849392915b601f830160051c82018110611078575050610a20565b8a8155859450600101611062565b508061105c565b0151905038806109da565b9250600185018852602088209088935b601f19841685106110ec576001945083601f198116106110d3575b505050811b0160018301556109f2565b015160001960f88460031b161c191690553880806110c3565b818101518355602094850194600190930192909101906110a8565b90915060018501885260208820601f840160051c810160208510611150575b90849392915b601f830160051c820181106111425750506109c4565b8a815585945060010161112c565b5080611126565b60405162461bcd60e51b815260206004820152601060248201526f20b63932b0b23c90309036b2b6b132b960811b6044820152606490fd5b8580fd5b50346102b657806003193601126102b657602060405162093a808152f35b50346102b657806003193601126102b65760405180916008549081835260208093018092600883527ff3f7a9fe364faab93b216da50a3214154f22a0a2b415b23a84c8169e8b636ee390835b81811061125a57505050846112139103856123ba565b60405193838594850191818652518092526040850193925b82811061123a57505050500390f35b83516001600160a01b03168552869550938101939281019260010161122b565b82546001600160a01b0316845292860192600192830192016111fd565b50346102b6576101609060031982813601126106fc573660631215610264576040516112a281612383565b8093610144368111610264576044955b81871061156c575084955080356001600160401b03811161118f576112db9036906004016124eb565b9033865260076020526112f460ff6040882054166126f3565b6002546001600160a01b039490851690813b15611568578761134391611351829660405198899788968795633df3805d60e11b8752600435600488015260243560248801526044870190612697565b8401526101648301906124a3565b03925af1908115610727578491611554575b5050338352600660205260408320600501805460ff1916600117905582548116803b1561154f5783809160a4604051809481936334ff261960e21b8352336004840152603260248401526060604484015260156064840152742bb7b936321024a2102b32b934b334b1b0ba34b7b760591b60848401525af1908115610727578491611537575b5050806004541660405160208101903360601b8252661ddbdc9b191a5960ca1b603482015242603b820152603b81526114218161234d565b519020916002541690803b1561070b57849283604080519687958694630d40766360e41b86526004860152336024860152604485015282606485015260e060848501528260e485015261010060a48501527f576f726c6420494420766572696669636174696f6e20636f6d706c657465640060206114b4610104870160409060038152626b796360e81b60208201520190565b86810393840160c4880152601f8152015201925af1801561076d57611523575b5060405160408152600860408201526715dbdc9b1908125160c21b60608201524260208201527f64cd12011fa3ea9d6004c30f53dee41172f5af5bad7e741bbd40259705cf96ea60803392a280f35b61152c9061233a565b6102b65780386114d4565b6115409061233a565b61154b5782386113e9565b5050fd5b505050fd5b61155d9061233a565b61154b578238611363565b8780fd5b86358152602096870196016112b2565b50346102b657806003193601126102b657546040516001600160a01b039091168152602090f35b50346102b65760803660031901126102b657602435151560243503610264576044356001600160401b0381116106fc576115e19036906004016124eb565b60643515156064350361026457338252600760205261160660ff604084205416612578565b338252600660205261162b600560408420015460ff8116908115611aad575b506125bf565b81546040516370a0823160e01b815233600482015290602090829060249082906001600160a01b03165afa908115610700578391611a7a575b50600a611672911015612601565b818091606435611879575b6001546001600160a01b0316803b15610723576116ce839291839260405194858094819363d3c0715b60e01b83526004356004840152602435151560248401526060604484015260648301906124a3565b03925af1801561076d57611865575b5060018060a01b0360045416604051602081013360601b815263766f746560e01b9182603482015260043560388201526038815261171a8161234d565b5190206001546001600160a01b03169290919060643515611836576040516117418161239f565b6013815272105b9bdb9e5b5bdd5cc81d9bdd194818d85cdd606a1b6020820152935b813b1561118f578580946117d060405197889687958694630d40766360e41b86526004860152336024860152604485015284606485015260e060848501528460e485015261010060a4850152600461010485015261012484015261014060c48401526101448301906124a3565b03925af1801561076d57611822575b5050604051906064351515825260208201524260408201527f88c0da05d983e77dc370bf3a898018a5da86757d9c362eb3746f05a298723dd9606060043592a280f35b61182b9061233a565b6106fc5781386117df565b6040516118428161239f565b601081526f141d589b1a58c81d9bdd194818d85cdd60821b602082015293611763565b61186e9061233a565b6106fc5781386116dd565b91505060405161188881612368565b60038152606036602083013760243515611a745760015b815115611a5e5760ff166020820152805160011015611a5e576004356040828101829052513360601b6bffffffffffffffffffffffff19166020820190815260348201929092526118f38160548101610c76565b519020815160021015611a5e57908391606082015260405161191481612383565b6101003682373360601b835b60088110611a1f575060209161198c91604051848101918252600435603482015263766f746560e01b60548201526038815261195b8161234d565b5190209085604060018060a01b0360035416936119a082519889978896634370a39b60e01b88526004880190612697565b6101606101048701526101648601906126bf565b906f616e6f6e796d6f75732d766f74696e6760801b8886840393600319850161012489015260108152015261014485015201925af190811561076d5782916119ea575b509161167d565b9150506020813d602011611a17575b81611a06602093836123ba565b8101031261026457829051386119e3565b3d91506119f9565b600191929394506040516020810190848252826034820152605442818301528152611a4981612368565b5190208160051b850152019085939291611920565b634e487b7160e01b600052603260045260246000fd5b8261189f565b90506020813d602011611aa5575b81611a95602093836123ba565b810103126102645751600a611664565b3d9150611a88565b60ff915060081c1638611625565b50346102b65760a03660031901126102b657611ad56122ce565b6001600160a01b036024358181169081900361026457604435908282168092036102645760643592808416809403610264576084359481861680960361026457611b2482600554163314612641565b1680611bab575b5080611b92575b5080611b79575b5080611b60575b5080611b4a575080f35b6001600160601b0360a01b600454161760045580f35b6001600160601b0360a01b600354161760035538611b40565b6001600160601b0360a01b600254161760025538611b39565b6001600160601b0360a01b600154161760015538611b32565b85546001600160a01b03191617855538611b2b565b50346102b657806003193601126102b657611be660018060a01b03600554163314612641565b80f35b50346102b657600319906080368301126102b6576001600160401b039160043583811161072357611c1e9036906004016124eb565b916024358481116106fc57611c379036906004016124eb565b936044359081116106fc57611c509036906004016124eb565b936064359460038610156107235733835260209560078752611c7860ff604086205416612578565b33845260068752611c9b600560408620015460ff8116908115611aad57506125bf565b83546040516370a0823160e01b81523360048201526001600160a01b0396918990829060249082908b165afa9081156102ab578691611f3f575b506064611ce3911015612601565b856001541692833b1561118f578588611d369694611d45839795611d26956040519a8b998a988997635b16d25d60e01b895260a060048a015260a48901906124a3565b90848883030160248901526124a3565b918583030160448601526124a3565b90606483015262093a80608483015203925af1801561076d57611f30575b50600154604051631a5007dd60e01b8152939083168585600481845afa948515610700578395611f01575b503383526006865260056040842001549360045416604051918783013360601b8152671c1c9bdc1bdcd85b60c21b9384603482015288603c820152603c8152611dd68161234d565b519020611e2060326040518097710283937b837b9b0b61031b932b0ba32b21d160751b8d830152611e108d82519283918686019101612480565b81010360128101885201866123ba565b823b1561118f57908580949392611e9060405197889687958694630d40766360e41b86526004860152336024860152604485015284606485015260e060848501528460e485015261010060a4850152600861010485015261012484015261014060c48401526101448301906124a3565b03925af1801561076d57611eed575b505060ff604051918181161515835260081c16151583820152426040820152817f936ec8de65a4134b88a7b455a2aa4c6b4409eb9cde1c5bb2d395d4c60a91655b60603393a3604051908152f35b611ef7829161233a565b6102b65780611e9f565b9094508581813d8311611f29575b611f1981836123ba565b8101031261026457519338611d8e565b503d611f0f565b611f399061233a565b38611d63565b90508881813d8311611f66575b611f5681836123ba565b8101031261118f57516064611cd5565b503d611f4c565b50346102b65760203660031901126102b657604061215d91611f8d6122ce565b60606101208451611f9d8161231e565b848152826020820152828682015284838201528460808201528460a08201528460c08201528460e082015282610100820152015260018060a01b03168082526007602052611ff060ff8484205416612578565b815260066020522061209860076040519261200a8461231e565b80546001600160a01b03168452612023600182016123db565b6020850152612034600282016123db565b604085015261204d60ff600383015416606086016125b3565b6004810154608085015260ff6005820154818116151560a0870152818160081c16151560c087015260101c16151560e085015261208c600682016123db565b610100850152016123db565b6101208201526040519182916020835260018060a01b03815116602084015260208101516120d4610140918260408701526101608601906124a3565b9061012061214c6120f7604086015194601f1995868a83030160608b01526124a3565b612109606087015160808a01906124c8565b608086015160a089015260a0860151151560c089015260c0860151151560e089015260e086015115156101008901526101008601518589830301848a01526124a3565b9301519185840301908501526124a3565b0390f35b50346102b657806003193601126102b6576020604051600a8152f35b50346102b657806003193601126102b6576003546040516001600160a01b039091168152602090f35b50346102b65760203660031901126102b6576001600160a01b0390604090826121cd6122ce565b1681526006602052209081541661215d6121e9600184016123db565b9261229a6121f9600283016123db565b9160ff6003820154169060ff600482015460058301549061226561225a61222e6007612227600689016123db565b97016123db565b9861224c6040519d8e9d8e61014091815281602082015201906124a3565b8c810360408e0152906124a3565b9560608b01906124c8565b6080890152818116151560a0890152818160081c16151560c089015260101c16151560e08701528582036101008701526124a3565b908382036101208501526124a3565b9050346106fc57816003193601126106fc576004546001600160a01b03168152602090f35b600435906001600160a01b038216820361026457565b90600182811c92168015612314575b60208310146122fe57565b634e487b7160e01b600052602260045260246000fd5b91607f16916122f3565b61014081019081106001600160401b0382111761078f57604052565b6001600160401b03811161078f57604052565b606081019081106001600160401b0382111761078f57604052565b608081019081106001600160401b0382111761078f57604052565b61010081019081106001600160401b0382111761078f57604052565b604081019081106001600160401b0382111761078f57604052565b90601f801991011681019081106001600160401b0382111761078f57604052565b906040519182600082546123ee816122e4565b9081845260209460019160018116908160001461245e575060011461241f575b50505061241d925003836123ba565b565b600090815285812095935091905b81831061244657505061241d935082010138808061240e565b8554888401850152948501948794509183019161242d565b9250505061241d94925060ff191682840152151560051b82010138808061240e565b60005b8381106124935750506000910152565b8181015183820152602001612483565b906020916124bc81518092818552858086019101612480565b601f01601f1916010190565b9060048210156124d55752565b634e487b7160e01b600052602160045260246000fd5b81601f82011215610264578035906001600160401b03821161078f576040519261251f601f8401601f1916602001856123ba565b8284526020838301011161026457816000926020809301838601378301015290565b600854811015611a5e5760086000527ff3f7a9fe364faab93b216da50a3214154f22a0a2b415b23a84c8169e8b636ee30190600090565b1561257f57565b60405162461bcd60e51b815260206004820152600c60248201526b2737ba10309036b2b6b132b960a11b6044820152606490fd5b60048210156124d55752565b156125c657565b60405162461bcd60e51b815260206004820152601360248201527213595b58995c881b9bdd081d995c9a599a5959606a1b6044820152606490fd5b1561260857565b60405162461bcd60e51b8152602060048201526011602482015270125b9cdd59999a58da595b9d0814d51055607a1b6044820152606490fd5b1561264857565b60405162461bcd60e51b815260206004820152602160248201527f4f6e6c792061646d696e2063616e2063616c6c20746869732066756e6374696f6044820152603760f91b6064820152608490fd5b6000915b600883106126a857505050565b60019082518152602080910192019201919061269b565b90815180825260208080930193019160005b8281106126df575050505090565b8351855293810193928101926001016126d1565b156126fa57565b60405162461bcd60e51b815260206004820152602360248201527f4f6e6c79206d656d626572732063616e2063616c6c20746869732066756e637460448201526234b7b760e91b6064820152608490fd5b600019811461275a5760010190565b634e487b7160e01b600052601160045260246000fd5b60048110156124d5576003811461280257600281146127d7576001146127b25760405161279c8161239f565b600681526526a2a6a122a960d11b602082015290565b6040516127be8161239f565b6009815268434f52455f5445414d60b81b602082015290565b506040516127e48161239f565b600e81526d159250d157d4149154d25111539560921b602082015290565b5060405161280f8161239f565b600981526814149154d25111539560ba1b60208201529056fea26469706673582212204dbbe5ddf129c46cf344aa9676703747a9c78b10df042062235297a0b7733c9564736f6c634300081800336080346200090c57601f6200303838819003918201601f19168301916001600160401b0383118484101762000578578084926020946040528339810103126200090c57516001600160a01b038116908190036200090c57600580546001600160a01b031990811633179091556006805490911691909117905560006007556200008762000911565b600081526200009562000931565b6012815271426c6f636b73636f7574526567697374727960701b6020820152604051909190606081016001600160401b038111828210176200057857604052602181527f5472616e73706172656e637920726567697374727920666f72204754552044416020820152604f60f81b60408201526200011262000931565b9160058352640312e302e360dc1b6020840152306000526001602052600460406000200154620008c757604051916001600160401b036101008401908111908411176200057857610100830160405284835260208301528260408301523060608301524360808301526200018562000911565b6000815260a0830152600060c083015260e08201523060005260016020526040600020815180519060018060401b0382116200057857620001c7835462000951565b601f811162000891575b50602090601f8311600114620008205762000206929160009183620004b5575b50508160011b916000199060031b1c19161790565b81555b60208201518051906001600160401b03821162000578576200022f600184015462000951565b601f8111620007e7575b50602090601f831160011462000770576200026d929160009183620004b55750508160011b916000199060031b1c19161790565b60018201555b60408201518051906001600160401b038211620005785762000299600284015462000951565b601f811162000737575b50602090601f8311600114620006c057620002d7929160009183620004b55750508160011b916000199060031b1c19161790565b60028201555b60608201516003820180546001600160a01b0319166001600160a01b03929092169190911790556080820151600482015560a08201518051906001600160401b038211620005785762000334600584015462000951565b601f811162000687575b50602090601f83116001146200060d578260079360e095936200037893600092620004b55750508160011b916000199060031b1c19161790565b60058201555b6006810160c0850151151560ff8019835416911617905501910151805190680100000000000000008211620005785782548284558083106200058e575b50602001916000526020600020916000905b8282106200043f57857f579ef2edbcab574dd08e96ae9c9ab7f9c3f82c08b575c573470d9ae7ec3512d162000422876200041360405194606086526060860190620009a7565b908482036020860152620009a7565b914360408201528030930390a260405161264e9081620009ea8239f35b80518051906001600160401b03821162000578576200045f865462000951565b601f811162000536575b50602090601f8311600114620004c15792620004a583600195946020948796600092620004b55750508160011b916000199060031b1c19161790565b87555b01940191019092620003cd565b015190503880620001f1565b908660005260206000209160005b601f19851681106200051d575083602093600196938796938794601f1981161062000503575b505050811b018755620004a8565b015160001960f88460031b161c19169055388080620004f5565b91926020600181928685015181550194019201620004cf565b6200056690876000526020600020601f850160051c810191602086106200056d575b601f0160051c01906200098e565b3862000469565b909150819062000558565b634e487b7160e01b600052604160045260246000fd5b8360005282602060002091820191015b818110620005ad5750620003bb565b80620005bc6001925462000951565b80620005cb575b50016200059e565b601f81118314620005e35750600081555b38620005c3565b60009082825262000603601f60208420920160051c82018583016200098e565b81835555620005dc565b906005840160005260206000209160005b601f19851681106200066e57509260e0949260019260079583601f1981161062000654575b505050811b0160058201556200037e565b015160001960f88460031b161c1916905538808062000643565b919260206001819286850151815501940192016200061e565b620006b990600585016000526020600020601f850160051c810191602086106200056d57601f0160051c01906200098e565b386200033e565b9190600284016000526020600020906000935b601f19841685106200071b576001945083601f1981161062000701575b505050811b016002820155620002dd565b015160001960f88460031b161c19169055388080620006f0565b81810151835560209485019460019093019290910190620006d3565b6200076990600285016000526020600020601f850160051c810191602086106200056d57601f0160051c01906200098e565b38620002a3565b9190600184016000526020600020906000935b601f1984168510620007cb576001945083601f19811610620007b1575b505050811b01600182015562000273565b015160001960f88460031b161c19169055388080620007a0565b8181015183556020948501946001909301929091019062000783565b6200081990600185016000526020600020601f850160051c810191602086106200056d57601f0160051c01906200098e565b3862000239565b9190836000526020600020906000935b601f198416851062000875576001945083601f198116106200085b575b505050811b01815562000209565b015160001960f88460031b161c191690553880806200084d565b8181015183556020948501946001909301929091019062000830565b620008c090846000526020600020601f850160051c810191602086106200056d57601f0160051c01906200098e565b38620001d1565b60405162461bcd60e51b815260206004820152601b60248201527f436f6e747261637420616c7265616479207265676973746572656400000000006044820152606490fd5b600080fd5b60405190602082016001600160401b038111838210176200057857604052565b60408051919082016001600160401b038111838210176200057857604052565b90600182811c9216801562000983575b60208310146200096d57565b634e487b7160e01b600052602260045260246000fd5b91607f169162000961565b8181106200099a575050565b600081556001016200098e565b919082519283825260005b848110620009d4575050826000602080949584010152601f8019910116010190565b602081830181015184830182015201620009b256fe608080604052600436101561001357600080fd5b60003560e01c9081630ccb2ec814611ea957508063125f897414611e8b578063130b561714611e625780633f4ba83a146110a4578063470b564614611d5c5780634aae13ca14611b755780634e1dc73014611b2957806355e78f33146119125780636035eb4b1461187757806370f2a476146110cc5780638456cb59146110a4578063985cc0611461102e578063b842ec4414610fd6578063d4076630146109f4578063d8b4f88814610850578063e0f3aa1114610777578063e6397652146106fd578063ed111b06146105f2578063ef92539914610567578063f7b2a8fd146102ff578063f851a440146102d65763f898da7d1461011157600080fd5b346102d15760403660031901126102d1576001600160401b036004356024358281116102d1576101459036906004016120e1565b60055461016790336001600160a01b03918216149081156102c3575b5061221a565b8160005260206000815261018460066040600020015415156121d6565b8260005260008152600860406000200182519485116102ad576101b1856101ab8354611ed2565b83612296565b81601f861160011461022857857fe36c73fd13989812054eaa73a813bdd65752bda9044a9bdac079e4143c6ab7bd95966102019260009161021d575b508160011b916000199060031b1c19161790565b90555b610218604051928284938452830190612054565b0390a2005b9050850151386101ed565b601f1986169082600052836000209160005b81811061029657509187917fe36c73fd13989812054eaa73a813bdd65752bda9044a9bdac079e4143c6ab7bd97986001941061027d575b5050811b019055610204565b86015160001960f88460031b161c191690553880610271565b91928560018192868a01518155019401920161023a565b634e487b7160e01b600052604160045260246000fd5b905060065416331438610161565b600080fd5b346102d15760003660031901126102d1576005546040516001600160a01b039091168152602090f35b346102d15760203660031901126102d157610318612079565b606060e060405161032881611fbe565b828152826020820152826040820152600083820152600060808201528260a0820152600060c0820152015260018060a01b03166000526001602052604060002060076040519161037783611fbe565b60405161038f816103888185611f0c565b0382612010565b83526040516103a5816103888160018601611f0c565b60208401526040516103be816103888160028601611f0c565b60408481019190915260038201546001600160a01b0316606085015260048201546080850152516103f6816103888160058601611f0c565b60a084015260ff600682015416151560c08401520180546104168161213b565b916104246040519384612010565b818352602083019060005260206000206000915b83831061054257858560e082015260405180916020825261046781516101006020850152610120840190612054565b60e06104cf61049f61048b602086015194601f1995868983030160408a0152612054565b604086015185888303016060890152612054565b60018060a01b036060860151166080870152608085015160a087015260a0850151848783030160c0880152612054565b9260c08101511515828601520151918184820301610100850152825190818152602081016020808460051b8401019501936000925b8484106105115787870388f35b9193958193959750602061053082600194868495030188528a51612054565b98019401940191879695939491610504565b600160208192604051610559816103888189611f0c565b815201920192019190610438565b346102d1576020806003193601126102d1576001600160a01b03610589612079565b1660005260046020526040600020906040519081602084549182815201936000526020600020916000905b8282106105db576105d7856105cb81890382612010565b604051918291826120ff565b0390f35b8354865294850194600193840193909101906105b4565b346102d15760203660031901126102d1576106bd6001600160a01b0380610617612079565b16600052600160205260406000206106f1604051926106418461063a8186611f0c565b0385612010565b604051926106568461063a8160018501611f0c565b604051916106728361066b8160028601611f0c565b0384612010565b600382015416916106d96004830154916106cb60ff6006604051966106a58861069e8160058501611f0c565b0389612010565b015416976040519a8b9a60e08c5260e08c0190612054565b908a820360208c0152612054565b9088820360408a0152612054565b926060870152608086015284820360a0860152612054565b90151560c08301520390f35b346102d15760403660031901126102d1576004356001600160401b0381116102d15761072d9036906004016120e1565b6107496020602435928160405193828580945193849201612031565b8101600381520301902080548210156102d15760209161076891612152565b90549060031b1c604051908152f35b346102d15760203660031901126102d157610790612079565b600060a06040516107a081611fda565b828152826020820152826040820152826060820152826080820152015260018060a01b0316600052600260205260c060406000206040516107e081611fda565b8154918282526001810154602083019081526002820154604084019081526003830154916060850192835260a060ff6005600487015496608089019788520154169501941515855260405195865251602086015251604085015251606084015251608083015251151560a0820152f35b346102d15760403660031901126102d157610869612079565b6001600160401b03906024358281116102d15761088a9036906004016120e1565b60055490916001600160a01b03916108a59083163314612180565b169081600052600191602091838352600460406000200154156109af578160005283835260056040600020019080519586116102ad576108ef866108e98454611ed2565b84612296565b8390601f871160011461094a57958061092192879860009261093f575b50508160011b916000199060031b1c19161790565b90555b6000525260066040600020019060ff19825416179055600080f35b01519050888061090c565b90601f1987169183600052856000209260005b81811061099a575091879892918389959310610981575b505050811b019055610924565b015160001960f88460031b161c19169055878080610974565b8284015185559388019392870192870161095d565b60405162461bcd60e51b815260048101849052601760248201527f436f6e7472616374206e6f7420726567697374657265640000000000000000006044820152606490fd5b346102d15760e03660031901126102d1576024356001600160a01b03811690036102d1576044356001600160a01b03811690036102d1576084356001600160401b0381116102d157366023820112156102d157610a5b9036906024816004013591016120aa565b60a4356001600160401b0381116102d157610a7a9036906004016120e1565b9060c4356001600160401b0381116102d157610a9a9036906004016120e1565b6005546001600160a01b031633148015610fc2575b610ab89061221a565b6004356000526000602052600660406000200154610f7d5760405191610add83611fa2565b600435835260018060a01b0360243516602084015260018060a01b03604435166040840152606435606084015260808301524360a08301524260c08301528260e083015261010082015260016101208201526004356000526000602052604060002091815183556001830160018060a01b03602084015116906001600160601b0360a01b9182825416179055600284019060018060a01b03604085015116908254161790556060820151600384015560808201519283516001600160401b0381116102ad57610bbc81610bb36004850154611ed2565b60048501612296565b6020601f8211600114610f0e578190610bee93949596600092610e945750508160011b916000199060031b1c19161790565b60048201555b60a0830151600582015560c0830151600682015560e08301519283516001600160401b0381116102ad57610c3881610c2f6007860154611ed2565b60078601612296565b6020601f8211600114610e9f578190610c6a93949596600092610e945750508160011b916000199060031b1c19161790565b60078301555b600882016101008201518051906001600160401b0382116102ad57610c9f82610c998554611ed2565b85612296565b602090601f8311600114610e215792610cdb8361012094610cf5989794600997600092610e165750508160011b916000199060031b1c19161790565b90555b0151151591019060ff801983541691151516179055565b610d01816024356123fc565b6024356001600160a01b03908116604435909116141580610e05575b610d4a6040518351610d33818360208801612031565b8101906003825260208160043593030190206122dd565b60018060a01b03602435166000526004602052610d6d60043560406000206122dd565b610ddd575b610d7d600754612312565b600755610d9560405191604083526040830190612054565b4260208301526001600160a01b0360443581169260243590911691600435917f3f4a6bb4c4a707355184826d48e737bf3d6a2883e63ef54da2ada4d314c472b59181900390a4005b60018060a01b03604435166000526004602052610e0060043560406000206122dd565b610d72565b610e11826044356123fc565b610d1d565b015190508a8061090c565b90601f198316918460005260206000209260005b818110610e7c575093610cf597969360099693600193836101209810610e63575b505050811b019055610cde565b015160001960f88460031b161c19169055898080610e56565b92936020600181928786015181550195019301610e35565b01519050868061090c565b6007840160005260206000209060005b601f1984168110610ef6575060019394959683601f19811610610edd575b505050811b016007830155610c70565b015160001960f88460031b161c19169055858080610ecd565b9091602060018192858b015181550193019101610eaf565b6004830160005260206000209060005b601f1984168110610f65575060019394959683601f19811610610f4c575b505050811b016004820155610bf4565b015160001960f88460031b161c19169055858080610f3c565b9091602060018192858b015181550193019101610f1e565b60405162461bcd60e51b815260206004820152601e60248201527f5472616e73616374696f6e20616c7265616479207265676973746572656400006044820152606490fd5b506006546001600160a01b03163314610aaf565b346102d15760403660031901126102d157610fef612079565b6001600160a01b03166000908152600460205260409020805460243591908210156102d15760209161102091612152565b90546040519160031b1c8152f35b346102d15760203660031901126102d1576001600160a01b0361104f612079565b16600052600260205260c06040600020805490600181015490600281015460038201549060ff6005600485015494015416936040519586526020860152604085015260608401526080830152151560a0820152f35b346102d15760003660031901126102d1576110ca60018060a01b03600554163314612180565b005b346102d15760a03660031901126102d1576110e5612079565b6024356001600160401b0381116102d1576111049036906004016120e1565b6044356001600160401b0381116102d1576111239036906004016120e1565b6064356001600160401b0381116102d1576111429036906004016120e1565b906084356001600160401b0381116102d157366023820112156102d157806004013561116d8161213b565b9161117b6040519384612010565b8183526024602084019260051b820101903682116102d15760248101925b82841061184857505050506111b960018060a01b03600554163314612180565b6001600160a01b03851660009081526001602052604090206004015461180357604051916111e683611fbe565b848352602083015282604083015260018060a01b03851660608301524360808301526040518060208101106001600160401b036020830111176102ad57602081016040526000815260a0830152600060c083015260e082015260018060a01b038416600052600160205260406000209080518051906001600160401b0382116102ad5761127d826112778654611ed2565b86612296565b602090601f8311600114611797576112ad92916000918361093f5750508160011b916000199060031b1c19161790565b82555b60208101518051906001600160401b0382116102ad576112e0826112d76001870154611ed2565b60018701612296565b602090601f83116001146117255761131092916000918361093f5750508160011b916000199060031b1c19161790565b60018301555b60408101518051906001600160401b0382116102ad576113468261133d6002870154611ed2565b60028701612296565b602090601f83116001146116b35761137692916000918361093f5750508160011b916000199060031b1c19161790565b60028301555b6003820160018060a01b036060830151166001600160601b0360a01b8254161790556080810151600483015560a08101518051906001600160401b0382116102ad576113d8826113cf6005870154611ed2565b60058701612296565b602090601f831160011461164057918061140c9260e095946000926116355750508160011b916000199060031b1c19161790565b60058401555b61143160c08201511515600685019060ff801983541691151516179055565b0151805190600160401b82116102ad5760078301548260078501558083106115bd575b5060206007910192016000526020600020916000905b8282106114d457867f579ef2edbcab574dd08e96ae9c9ab7f9c3f82c08b575c573470d9ae7ec3512d16114af886114bd89604051938493606085526060850190612054565b908382036020850152612054565b4360408301526001600160a01b03909416930390a2005b80518051906001600160401b0382116102ad576114fb826114f58854611ed2565b88612296565b602090601f831160011461154d5792611533836001959460209487966000926115425750508160011b916000199060031b1c19161790565b87555b0194019101909261146a565b015190508d8061090c565b908660005260206000209160005b601f19851681106115a5575083602093600196938796938794601f1981161061158c575b505050811b018755611536565b015160001960f88460031b161c191690558c808061157f565b9192602060018192868501518155019401920161155b565b600784016000526020600020908382015b81830181106115de575050611454565b806115eb60019254611ed2565b806115f8575b50016115ce565b601f8111831461160e5750600081555b8a6115f1565b60009082825261162c601f60208420920160051c820185830161227f565b81835555611608565b01519050898061090c565b906005850160005260206000209160005b601f198516811061169b575091839160019360e09695601f19811610611682575b505050811b016005840155611412565b015160001960f88460031b161c19169055888080611672565b91926020600181928685015181550194019201611651565b9190600285016000526020600020906000935b601f198416851061170a576001945083601f198116106116f1575b505050811b01600283015561137c565b015160001960f88460031b161c191690558780806116e1565b818101518355602094850194600190930192909101906116c6565b9190600185016000526020600020906000935b601f198416851061177c576001945083601f19811610611763575b505050811b016001830155611316565b015160001960f88460031b161c19169055878080611753565b81810151835560209485019460019093019290910190611738565b9190846000526020600020906000935b601f19841685106117e8576001945083601f198116106117cf575b505050811b0182556112b0565b015160001960f88460031b161c191690558780806117c2565b818101518355602094850194600190930192909101906117a7565b60405162461bcd60e51b815260206004820152601b60248201527f436f6e747261637420616c7265616479207265676973746572656400000000006044820152606490fd5b83356001600160401b0381116102d15760209161186c8392602436918701016120e1565b815201930192611199565b346102d1576020806003193601126102d1576004356001600160401b0381116102d157816118ac6118bf9236906004016120e1565b8160405193828580945193849201612031565b8101600381520301902090604051908181845491828152019360005281600020916000905b8282106118fb576105d7856105cb81890382612010565b8354865294850194600193840193909101906118e4565b346102d1576020806003193601126102d15760043560005260008152604060002090611af260596040519361194685611fa2565b8054855260018060a01b038060018301541685870152600282015416604086015260038101546060860152604051611985816103888160048601611f0c565b6080860152600581015460a086015260068101549460c08101958652611a036040516119b8816103888160078801611f0c565b60e0830190815261012060ff6009604051966119db8861069e8160088501611f0c565b6101008701978852015416930192151583526119f9885115156121d6565b5192519651612337565b905115611b0657604051611a1681611ff5565b60048152637472756560e01b86820152905b6040519687936c3d9131b0ba32b3b7b93c911d1160991b88860152611a56815180928a602d89019101612031565b8401701116113232b9b1b934b83a34b7b7111d1160791b602d820152611a85825180938a603e85019101612031565b016d1116113a34b6b2b9ba30b6b8111d60911b603e820152611ab08251809389604c85019101612031565b016b16113b32b934b334b2b2111d60a11b604c820152611ad98251809388605885019101612031565b01607d60f81b6058820152036039810185520183612010565b6105d7604051928284938452830190612054565b604051611b1281611ff5565b600581526466616c736560d81b8682015290611a28565b346102d15760203660031901126102d157611b42612079565b6005546001600160a01b039190611b5c9083163314612180565b166001600160601b0360a01b6006541617600655600080f35b346102d15760203660031901126102d1576004356000610120604051611b9a81611fa2565b828152826020820152826040820152826060820152606060808201528260a08201528260c0820152606060e082015260606101008201520152806000526000602052611bef60066040600020015415156121d6565b6000526000602052604060002060ff600960405192611c0d84611fa2565b8054845260018101546001600160a01b0390811660208601526002820154166040808601919091526003820154606086015251611c51816103888160048601611f0c565b6080850152600581015460a0850152600681015460c0850152604051611c7e816103888160078601611f0c565b60e0850152604051611c97816103888160088601611f0c565b61010085015201541615156101208201526040518091602082528051602083015260018060a01b03602082015116604083015260018060a01b036040820151166060830152606081015160808301526080810151610120611d4f611d09610140938460a0880152610160870190612054565b60a085015160c087015260c085015160e0870152611d3a60e086015191601f199283898303016101008a0152612054565b90610100860151908783030184880152612054565b9201511515908301520390f35b346102d15760203660031901126102d1576004356000526000602052604060002060208154611e5560018060a01b0393611e46856001830154169560028301541693600383015460405191611db88361066b8160048901611f0c565b611e2e60058601549360068701549260405194611de386611ddc8160078d01611f0c565b0387612010565b60ff60096040519a611e038c611dfc8160088501611f0c565b038d612010565b0154169a6040519d8e9d8e610140958152015260408d015260608c01528060808c01528a0190612054565b9260a089015260c088015286820360e0880152612054565b90848203610100860152612054565b9015156101208301520390f35b346102d15760003660031901126102d1576006546040516001600160a01b039091168152602090f35b346102d15760003660031901126102d1576020600754604051908152f35b346102d15760003660031901126102d15760609060075481526000602082015260006040820152f35b90600182811c92168015611f02575b6020831014611eec57565b634e487b7160e01b600052602260045260246000fd5b91607f1691611ee1565b805460009392611f1b82611ed2565b91828252602093600191600181169081600014611f835750600114611f42575b5050505050565b90939495506000929192528360002092846000945b838610611f6f57505050500101903880808080611f3b565b805485870183015294019385908201611f57565b60ff19168685015250505090151560051b010191503880808080611f3b565b61014081019081106001600160401b038211176102ad57604052565b61010081019081106001600160401b038211176102ad57604052565b60c081019081106001600160401b038211176102ad57604052565b604081019081106001600160401b038211176102ad57604052565b90601f801991011681019081106001600160401b038211176102ad57604052565b60005b8381106120445750506000910152565b8181015183820152602001612034565b9060209161206d81518092818552858086019101612031565b601f01601f1916010190565b600435906001600160a01b03821682036102d157565b6001600160401b0381116102ad57601f01601f191660200190565b9291926120b68261208f565b916120c46040519384612010565b8294818452818301116102d1578281602093846000960137010152565b9080601f830112156102d1578160206120fc933591016120aa565b90565b602090602060408183019282815285518094520193019160005b828110612127575050505090565b835185529381019392810192600101612119565b6001600160401b0381116102ad5760051b60200190565b805482101561216a5760005260206000200190600090565b634e487b7160e01b600052603260045260246000fd5b1561218757565b60405162461bcd60e51b815260206004820152602160248201527f4f6e6c792061646d696e2063616e2063616c6c20746869732066756e6374696f6044820152603760f91b6064820152608490fd5b156121dd57565b60405162461bcd60e51b8152602060048201526015602482015274151c985b9cd858dd1a5bdb881b9bdd08199bdd5b99605a1b6044820152606490fd5b1561222157565b60405162461bcd60e51b815260206004820152603060248201527f4f6e6c7920617574686f72697a6564206164647265737365732063616e20636160448201526f3636103a3434b990333ab731ba34b7b760811b6064820152608490fd5b81811061228a575050565b6000815560010161227f565b9190601f81116122a557505050565b6122d1926000526020600020906020601f840160051c830193106122d3575b601f0160051c019061227f565b565b90915081906122c4565b8054600160401b8110156102ad576122fa91600182018155612152565b819291549060031b91821b91600019901b1916179055565b60001981146123215760010190565b634e487b7160e01b600052601160045260246000fd5b80156123de57600081805b6123ca57506123508161208f565b9061235e6040519283612010565b808252601f1961236d8261208f565b013660208401375b809280156123c3576000198201918211612321578193600a926030908484068201809211612321578551111561216a5760f81b6001600160f81b03191660001a908401601f01530491612375565b5050905090565b906123d6600a91612312565b910480612342565b506040516123eb81611ff5565b60018152600360fc1b602082015290565b91909160018060a01b031660009281845260209060028252604091828620916124258354612312565b835543600384015560058301600160ff1982541617905580517fb6d2dc83590271a7c0a5ab5fbf6a2dad418bbfd533c253e3d69a6772712809c7838301918220671c1c9bdc1bdcd85b60c21b85885161247d81611ff5565b600881520152036124fa575050600182016124988154612312565b905560048201805490600a82018092116124e6577f1de1b315819996fa3806de26b2de57c02f9b5bf13e6f68af7d759d1bf058a1a295969750555b60048254920154908351928352820152a2565b634e487b7160e01b88526011600452602488fd5b7f0932bdf85fc8aa10ac3c22f02317f8f53d4b4f52235ed1eabb3a4cbbe08b5c418251822063766f746560e01b85885161253381611ff5565b6004815201520361258d5750506002820161254e8154612312565b905560048201805490600582018092116124e6577f1de1b315819996fa3806de26b2de57c02f9b5bf13e6f68af7d759d1bf058a1a295969750556124d3565b7fa29cad97d4110e8822dedef32879f84a8e8889bf965ff9c57998689e2fdafbc491519020626b796360e81b8386516125c581611ff5565b600381520152146125fb575b7f1de1b315819996fa3806de26b2de57c02f9b5bf13e6f68af7d759d1bf058a1a2939495506124d3565b60048201805490601482018092116124e6575593945084936125d156fea264697066735822122043e1be53af57ae1ea06eae7b6a5707edca42fc2035caeba7572c4f20e7c4e9f164736f6c634300081800336080346200043357601f620016fd38819003828101601f19908116850194936001600160401b03939092848711868810176200043857808692604098895283396020958691810103126200043357516001600160a01b0394858216949185900362000433576200006e6200044e565b601481527f4754552044414f2053746174757320546f6b656e00000000000000000000000082820152620000a16200044e565b946004958681526314d5105560e21b8482015282519385851162000339576003948554946001958681811c9116801562000428575b848210146200041357908186849311620003bd575b5083908683116001146200035a576000926200034e575b505060001982881b1c191690851b1785555b8151958611620003395787548481811c911680156200032e575b828210146200031957838111620002ce575b50809286116001146200026257508495509084929160009562000256575b50501b92600019911b1c19161781555b81156200023f5750600580546001600160a01b03198116831790915583516103e8936029939192167f8be0079c531659141344cd1fd0a4f28419497f9722a3daafe3b4186f6b6457e0600080a36814149154d25111539560ba1b8152600760098201522055610320602e82516d159250d157d4149154d25111539560921b81526007600e82015220556102586029825168434f52455f5445414d60b81b81526007600982015220556064602682516526a2a6a122a960d11b81526007600682015220555161128e90816200046f8239f35b6024906000855191631e4fbdf760e01b8352820152fd5b0151935038806200015e565b939295859081168860005285600020956000905b89838310620002b3575050501062000298575b50505050811b0181556200016e565b01519060f884600019921b161c191690553880808062000289565b85870151895590970196948501948893509081019062000276565b88600052816000208480890160051c820192848a106200030f575b0160051c019085905b8281106200030257505062000140565b60008155018590620002f2565b92508192620002e9565b602289634e487b7160e01b6000525260246000fd5b90607f16906200012e565b604188634e487b7160e01b6000525260246000fd5b01519050388062000102565b908a8894169189600052856000209260005b87828210620003a657505084116200038d575b505050811b01855562000114565b0151600019838a1b60f8161c191690553880806200037f565b8385015186558b979095019493840193016200036c565b90915087600052836000208680850160051c82019286861062000409575b918991869594930160051c01915b828110620003f9575050620000eb565b60008155859450899101620003e9565b92508192620003db565b60228b634e487b7160e01b6000525260246000fd5b90607f1690620000d6565b600080fd5b634e487b7160e01b600052604160045260246000fd5b60408051919082016001600160401b03811183821017620004385760405256fe6080604081815260048036101561001557600080fd5b600092833560e01c90816306fdde0314610d6257508063095ea7b314610cf057806315f570dc14610c8857806318160ddd14610c695780631de40e4914610c4d5780631e9d490414610c2f57806323b872dd14610bbd578063313ce56714610ba15780634177731f14610b435780634e43603a14610a7557806354ae273814610a1857806370a08231146109e1578063715018a6146109845780638a65d8741461090d5780638da5cb5b146108e45780639582fa341461064257806395d89b4114610553578063a9059cbb146104a2578063ab5a7d5a1461039a578063d3fc98641461030e578063dd62ed3e146102c1578063edfcc437146101b25763f2fde38b1461012057600080fd5b346101ae5760203660031901126101ae57610139610e82565b90610142611111565b6001600160a01b03918216928315610198575050600554826bffffffffffffffffffffffff60a01b821617600555167f8be0079c531659141344cd1fd0a4f28419497f9722a3daafe3b4186f6b6457e08380a380f35b51631e4fbdf760e01b8152908101849052602490fd5b8280fd5b5090346101ae5760203660031901126101ae576101cd610e82565b6001600160a01b03811680855260066020528285205490939062278d0081019081106102ae5742106102745783855284602052828520549060058202918083046005149015171561026157506064900480610226578480f35b7f79f983b8fb121392d55d6b815393bf7dd2134065df6b6c2a14fbff6caf21bc06926102548260209461113d565b51908152a2388080808480f35b634e487b7160e01b865260119052602485fd5b606490602084519162461bcd60e51b8352820152601460248201527355736572206973207374696c6c2061637469766560601b6044820152fd5b634e487b7160e01b865260118252602486fd5b50503461030a578060031936011261030a57806020926102df610e82565b6102e7610e9d565b6001600160a01b0391821683526001865283832091168252845220549051908152f35b5080fd5b50503461030a577f79c5d66e2599a2f835d79ae78578da14935990e01f26baf55a4639c8220559c46103949161034336610f7a565b94909161034e611111565b61035883826111e1565b60018060a01b031694858752600660205260018488204281550161037d8482546110df565b905583519384938452806020850152830190610e5d565b0390a280f35b5090346101ae576103aa3661109f565b92906103b4611111565b60018060a01b0316908185526020936006855242848720558051907fb6d2dc83590271a7c0a5ab5fbf6a2dad418bbfd533c253e3d69a6772712809c7868201928320671c1c9bdc1bdcd85b60c21b88885161040e81610ee5565b60088152015203610437575050506002926006918552528220016104328154611102565b905580f35b51902083517f0932bdf85fc8aa10ac3c22f02317f8f53d4b4f52235ed1eabb3a4cbbe08b5c419263766f746560e01b91879161047282610ee5565b8152015214610482575b50505080f35b6003926006918552528220016104988154611102565b905538808061047c565b5082346105505782600319360112610550576104bc610e82565b331561053b576001600160a01b03161561052757506020608492519162461bcd60e51b8352820152602b60248201527f5354415420697320736f756c626f756e6420616e642063616e6e6f742062652060448201526a1d1c985b9cd9995c9c995960aa1b6064820152fd5b602492519163ec442f0560e01b8352820152fd5b506024925191634b637e8f60e11b8352820152fd5b80fd5b5090346101ae57826003193601126101ae57805183819490845461057681610fc0565b91828552602096600192886001821691826000146106185750506001146105bd575b85886105b9896105aa848a0385610f01565b51928284938452830190610e5d565b0390f35b815286935091907f8a35acfbc15ff81a39ae7d344fd709f28e8600b4aa8c65c6b64bfe7fe36bd19b5b82841061060057505050820101816105aa6105b938610598565b8054848a0186015288955087949093019281016105e6565b60ff19168882015294151560051b870190940194508593506105aa92506105b99150389050610598565b5091903461030a576106533661109f565b9161065c611111565b8051928051602094858181850193610675818387610e3a565b81016007815203019020549384156108b25785969761069486836111e1565b845161069f81610eb3565b42815281888201918883528b88820181815289606084019280845260808501988b8a52600160a01b60019003169e8f8252600690522092518355600194518584015551600283015551600382015501925180519267ffffffffffffffff841161089f575061070d8454610fc0565b601f8111610859575b5088908b601f85116001146107c4579484806107a6966026966103949b967f79c5d66e2599a2f835d79ae78578da14935990e01f26baf55a4639c8220559c49f9e9d9a966107969c97946107b9575b50501b916000199060031b1c19161790555b84519586926502937b6329d160d51b8b85015251809285850190610e3a565b8101036006810185520183610f01565b8080519586958652850152830190610e5d565b015192503880610765565b50848c52898c209293929190601f1984168d5b81811061084457509484610394999461079699947f79c5d66e2599a2f835d79ae78578da14935990e01f26baf55a4639c8220559c49e9d9c99946026986107a69a1061082b575b505050811b019055610777565b015160001960f88460031b161c1916905538808061081e565b82840151855593860193928c01928c016107d7565b848c52898c20601f850160051c8101918b8610610895575b601f0160051c019083905b82811061088a575050610716565b8d815501839061087c565b9091508190610871565b634e487b7160e01b8c526041905260248bfd5b835162461bcd60e51b8152808901879052600c60248201526b496e76616c696420726f6c6560a01b6044820152606490fd5b50503461030a578160031936011261030a5760055490516001600160a01b039091168152602090f35b509134610550576020366003190112610550576105b99082906001600160a01b03610936610e82565b1681526006602052209182549260018101549461095e60028301549160038401549301610ffa565b92805196879687526020870152850152606084015260a0608084015260a0830190610e5d565b833461055057806003193601126105505761099d611111565b600580546001600160a01b0319811690915581906001600160a01b03167f8be0079c531659141344cd1fd0a4f28419497f9722a3daafe3b4186f6b6457e08280a380f35b50503461030a57602036600319011261030a5760209181906001600160a01b03610a09610e82565b16815280845220549051908152f35b5091346105505760203660031901126105505782359067ffffffffffffffff821161055057506020610a518194610a6393369101610f23565b81845193828580945193849201610e3a565b81016007815203019020549051908152f35b5090346101ae57602092836003193601126105505790806105b992610a98610e82565b606060808451610aa781610eb3565b84815289810185905285810185905282810185905201526001600160a01b031681526006865220815193610ada85610eb3565b81548552600182015492868601938452610b0c6002840154928288019384526003850154946060890195865201610ffa565b93608087019485528151978897818952519088015251908601525160608501525160808401525160a08084015260c0830190610e5d565b5091903461030a57602036600319011261030a576001600160a01b03610b67610e82565b1682526006602052808220549162278d008301809311610b8e576020838351904210158152f35b634e487b7160e01b815260118452602490fd5b50503461030a578160031936011261030a576020905160128152f35b50823461055057606036600319011261055057506020608492610bde610e82565b50610be7610e9d565b505162461bcd60e51b815291820152602160248201527f5354415420746f6b656e732063616e6e6f74206265207472616e7366657272656044820152601960fa1b6064820152fd5b50503461030a578160031936011261030a576020905162278d008152f35b50503461030a578160031936011261030a576020905160058152f35b50503461030a578160031936011261030a576020906002549051908152f35b50503461030a577fb6eba437dea61002485068cbdc3eb1297d900efae5943c4ecb01b815e8dcad3c610394610cbc36610f7a565b610cc893919293611111565b610cd2838561113d565b8551938493845286602085015260018060a01b031695830190610e5d565b508234610550578260031936011261055057506020608492610d10610e82565b505162461bcd60e51b815291820152602b60248201527f5354415420746f6b656e732063616e6e6f7420626520617070726f766564206660448201526a37b9103a3930b739b332b960a91b6064820152fd5b84843461030a578160031936011261030a578282600354610d8281610fc0565b9081845260209560019187600182169182600014610e13575050600114610db7575b5050506105b992916105aa910385610f01565b9190869350600383527fc2575a0e9e593c00f959f8c92f12db2869c3395a3b0502d05e2516446f71f85b5b828410610dfb57505050820101816105aa6105b9610da4565b8054848a018601528895508794909301928101610de2565b60ff19168782015293151560051b860190930193508492506105aa91506105b99050610da4565b60005b838110610e4d5750506000910152565b8181015183820152602001610e3d565b90602091610e7681518092818552858086019101610e3a565b601f01601f1916010190565b600435906001600160a01b0382168203610e9857565b600080fd5b602435906001600160a01b0382168203610e9857565b60a0810190811067ffffffffffffffff821117610ecf57604052565b634e487b7160e01b600052604160045260246000fd5b6040810190811067ffffffffffffffff821117610ecf57604052565b90601f8019910116810190811067ffffffffffffffff821117610ecf57604052565b81601f82011215610e985780359067ffffffffffffffff8211610ecf5760405192610f58601f8401601f191660200185610f01565b82845260208383010111610e9857816000926020809301838601378301015290565b6060600319820112610e98576004356001600160a01b0381168103610e985791602435916044359067ffffffffffffffff8211610e9857610fbd91600401610f23565b90565b90600182811c92168015610ff0575b6020831014610fda57565b634e487b7160e01b600052602260045260246000fd5b91607f1691610fcf565b9060405191826000825461100d81610fc0565b9081845260209460019160018116908160001461107d575060011461103e575b50505061103c92500383610f01565b565b600090815285812095935091905b81831061106557505061103c935082010138808061102d565b8554888401850152948501948794509183019161104c565b9250505061103c94925060ff191682840152151560051b82010138808061102d565b906040600319830112610e98576004356001600160a01b0381168103610e9857916024359067ffffffffffffffff8211610e9857610fbd91600401610f23565b919082018092116110ec57565b634e487b7160e01b600052601160045260246000fd5b60001981146110ec5760010190565b6005546001600160a01b0316330361112557565b60405163118cdaa760e01b8152336004820152602490fd5b6001600160a01b031680156111c8576000918183528260205260408320548181106111a557817fddf252ad1be2c89b69c2b068fc378daa952ba7f163c4a11628f55a4df523b3ef926020928587528684520360408620558060025403600255604051908152a3565b606493506040519263391434e360e21b8452600484015260248301526044820152fd5b604051634b637e8f60e11b815260006004820152602490fd5b6001600160a01b031690811561123f577fddf252ad1be2c89b69c2b068fc378daa952ba7f163c4a11628f55a4df523b3ef6020826112236000946002546110df565b60025584845283825260408420818154019055604051908152a3565b60405163ec442f0560e01b815260006004820152602490fdfea264697066735822122040670eeeaaba79274760c5b1facfd687f2939c420fdac84ef23a2c6404a0720364736f6c6343000818003360803462000f3357601f6200273a38819003918201601f19168301916001600160401b03831184841017620009365780849260209460405283398101031262000f3357516001600160a01b0381169081900362000f335760018060a01b031933816004541617600455600554161760055560006006556200007f62000f58565b60108152602081016f35bcb196bb32b934b334b1b0ba34b7b760811b8152620000a762000f78565b90602a82527f4b594320766572696669636174696f6e207769746820576f726c642049442069602083015269373a32b3b930ba34b7b760b11b6040830152620000ef62000f38565b8381526200011f602080830193858552600160408501526004606085015260405180938192895192839162000f98565b8101600181520301902091815180519060018060401b0382116200093657845490600182811c9216801562000f28575b6020831014620009155781601f84931162000ed3575b50602090601f831160011462000e625760009262000e56575b50508160011b916000199060031b1c19161783555b518051906001600160401b03821162000936576001840154600181811c9116801562000e4b575b60208210146200091557601f811162000dff575b50602090601f831160011462000d855760606200026194846200025298956000805160206200271a8339815191529a989560039560009262000827575b505060001982861b1c1916600191821b17908501555b600284016040820151151560ff80198354169116179055015191015560405193849360408552604085019062000fbd565b90838203602085015262000fbd565b0390a16200026e62000f58565b601281526020810171766f74696e672d656c69676962696c69747960701b81526200029862000f78565b90603482527f56657269667920766f74696e6720656c69676962696c69747920776974686f7560208301527f742072657665616c696e67206964656e746974790000000000000000000000006040830152620003226020620002f962000f38565b928584528482850152600160408501526005606085015260405180938192885192839162000f98565b8101600181520301902090805180519060018060401b0382116200093657835490600182811c9216801562000d7a575b6020831014620009155781601f84931162000d25575b50602090601f831160011462000cb45760009262000ca8575b50508160011b916000199060031b1c19161782555b60208101518051906001600160401b03821162000936576001840154600181811c9116801562000c9d575b60208210146200091557601f811162000c51575b50602090601f831160011462000bd75760606200045794846200025298956000805160206200271a8339815191529a98956003956000926200082757505060001982861b1c1916600191821b1790850155600284016040820151151560ff80198354169116179055015191015560405193849360408552604085019062000fbd565b0390a16200046462000f58565b60108152602081016f616e6f6e796d6f75732d766f74696e6760801b81526200048c62000f58565b90601f82527f416e6f6e796d6f757320766f74696e672077697468206e756c6c6966696572006020830152620004f06020620004c762000f38565b928584528482850152600160408501526006606085015260405180938192885192839162000f98565b8101600181520301902090805180519060018060401b0382116200093657835490600182811c9216801562000bcc575b6020831014620009155781601f84931162000b77575b50602090601f831160011462000b065760009262000afa575b50508160011b916000199060031b1c19161782555b60208101518051906001600160401b03821162000936576001840154600181811c9116801562000aef575b60208210146200091557601f811162000aa3575b50602090601f831160011462000a295760606200062594846200025298956000805160206200271a8339815191529a98956003956000926200082757505060001982861b1c1916600191821b1790850155600284016040820151151560ff80198354169116179055015191015560405193849360408552604085019062000fbd565b0390a16200063262000f58565b601781527f6d656d626572736869702d766572696669636174696f6e00000000000000000060208201526200066662000f78565b602e81527f50726f76652044414f206d656d6265727368697020776974686f75742072657660208201526d65616c696e672064657461696c7360901b6040820152620006b162000f38565b82815281602082015260016040820152600460608201526040516020818551620006df8183858a0162000f98565b8101600181520301902090805180519060018060401b0382116200093657835490600182811c9216801562000a1e575b6020831014620009155781601f849311620009c9575b50602090601f831160011462000958576000926200094c575b50508160011b916000199060031b1c19161782555b60208101518051906001600160401b03821162000936576001840154600181811c911680156200092b575b60208210146200091557601f8111620008c5575b50602090601f8311600114620008335760606200081494846200025298956000805160206200271a8339815191529a98956003956000926200082757505060001982861b1c1916600191821b1790850155600284016040820151151560ff80198354169116179055015191015560405193849360408552604085019062000fbd565b0390a1604051611735908162000fe58239f35b0151905038806200020b565b90601f198316916001860160005260206000209260005b818110620008ac5750946001856000805160206200271a8339815191529a9895600395606095620002529c99620008149b1062000893575b505050811b01600185015562000221565b015160001983881b60f8161c1916905538808062000882565b929360206001819287860151815501950193016200084a565b600185016000526020600020601f840160051c810191602085106200090a575b601f0160051c01905b818110620008fd575062000792565b60008155600101620008ee565b9091508190620008e5565b634e487b7160e01b600052602260045260246000fd5b90607f16906200077e565b634e487b7160e01b600052604160045260246000fd5b0151905038806200073e565b9250846000526020600020906000935b601f1984168510620009ad576001945083601f1981161062000993575b505050811b01825562000753565b015160001960f88460031b161c1916905538808062000985565b8181015183556020948501946001909301929091019062000968565b909150846000526020600020601f840160051c81016020851062000a16575b90849392915b601f830160051c8201811062000a0657505062000725565b60008155859450600101620009ee565b5080620009e8565b91607f16916200070f565b906001850160005260206000209160005b601f198516811062000a8a575062000625946001856000805160206200271a8339815191529a9895600395606095620002529c99601f198116106200089357505050811b01600185015562000221565b9192602060018192868501518155019401920162000a3a565b600185016000526020600020601f840160051c81016020851062000ae7575b601f830160051c8201811062000ada575050620005a3565b6000815560010162000ac2565b508062000ac2565b90607f16906200058f565b0151905038806200054f565b9250846000526020600020906000935b601f198416851062000b5b576001945083601f1981161062000b41575b505050811b01825562000564565b015160001960f88460031b161c1916905538808062000b33565b8181015183556020948501946001909301929091019062000b16565b909150846000526020600020601f840160051c81016020851062000bc4575b90849392915b601f830160051c8201811062000bb457505062000536565b6000815585945060010162000b9c565b508062000b96565b91607f169162000520565b906001850160005260206000209160005b601f198516811062000c38575062000457946001856000805160206200271a8339815191529a9895600395606095620002529c99601f198116106200089357505050811b01600185015562000221565b9192602060018192868501518155019401920162000be8565b600185016000526020600020601f840160051c81016020851062000c95575b601f830160051c8201811062000c88575050620003d5565b6000815560010162000c70565b508062000c70565b90607f1690620003c1565b01519050388062000381565b9250846000526020600020906000935b601f198416851062000d09576001945083601f1981161062000cef575b505050811b01825562000396565b015160001960f88460031b161c1916905538808062000ce1565b8181015183556020948501946001909301929091019062000cc4565b909150846000526020600020601f840160051c81016020851062000d72575b90849392915b601f830160051c8201811062000d6257505062000368565b6000815585945060010162000d4a565b508062000d44565b91607f169162000352565b906001850160005260206000209160005b601f198516811062000de6575062000261946001856000805160206200271a8339815191529a9895600395606095620002529c99601f198116106200089357505050811b01600185015562000221565b9192602060018192868501518155019401920162000d96565b600185016000526020600020601f840160051c81016020851062000e43575b601f830160051c8201811062000e36575050620001ce565b6000815560010162000e1e565b508062000e1e565b90607f1690620001ba565b0151905038806200017e565b9250856000526020600020906000935b601f198416851062000eb7576001945083601f1981161062000e9d575b505050811b01835562000193565b015160001960f88460031b161c1916905538808062000e8f565b8181015183556020948501946001909301929091019062000e72565b909150856000526020600020601f840160051c81016020851062000f20575b90849392915b601f830160051c8201811062000f1057505062000165565b6000815585945060010162000ef8565b508062000ef2565b91607f16916200014f565b600080fd5b60405190608082016001600160401b038111838210176200093657604052565b60408051919082016001600160401b038111838210176200093657604052565b60405190606082016001600160401b038111838210176200093657604052565b60005b83811062000fac5750506000910152565b818101518382015260200162000f9b565b9060209162000fd88151809281855285808601910162000f98565b601f01601f191601019056fe608080604052600436101561001357600080fd5b60003560e01c90816317cc915c146111ac575080631b80bb3a146110175780631caa449c14610fee5780631f09a2e214610cbe57806322dc7b4c14610c8d578063275d419114610b4f578063373b58e614610af75780633f4ba83a1461038d5780634370a39b146104e0578063444d95b01461046957806346bdfb80146103b55780636d9f43701461036f5780638456cb591461038d5780639b1bc0c91461036f5780639ea2cd38146102c0578063b142b4ec14610270578063e4baeda31461016f578063f6eb0c0c1461011e5763f851a440146100f057600080fd5b34610119576000366003190112610119576004546040516001600160a01b039091168152602090f35b600080fd5b3461011957602036600319011261011957610137611305565b6004546001600160a01b03919061015190831633146114ef565b166bffffffffffffffffffffffff60a01b6005541617600555600080f35b346101195760208060031936011261011957600435906001600160401b038211610119576101da816101a760809436906004016112af565b600060606040516101b78161123c565b8181528185820152826040820152015281604051938285809451938492016111d9565b81016001815203019020604051916101f18361123c565b6101fa82611383565b835261025d61020b60018401611383565b82850190815261024a600360ff6002870154169560408801961515875201549360608701948552604051978897828952519188015260a08701906111fc565b9051858203601f190160408701526111fc565b9151151560608401525160808301520390f35b34610119576020366003190112610119576004358060005260006020526102a0600a604060002001541515611428565b6000526000602052602060ff600b60406000200154166040519015158152f35b34610119576020366003190112610119576004356001600160401b0381116101195761030b60206102f86103509336906004016112af565b81604051938285809451938492016111d9565b8101600181520301902061031e81611383565b9061032b60018201611383565b61035e600360ff600285015416930154916040519586956080875260808701906111fc565b9085820360208701526111fc565b911515604084015260608301520390f35b34610119576000366003190112610119576020600654604051908152f35b34610119576000366003190112610119576103b360018060a01b036004541633146114ef565b005b3461011957602080600319360112610119576001600160a01b036103d7611305565b1660005260028152604060002060405190818382549182815201908192600052846000209060005b868282106104555786866104158288038361128e565b604051928392818401908285525180915260408401929160005b82811061043e57505050500390f35b83518552869550938101939281019260010161042f565b8354855290930192600192830192016103ff565b346101195760203660031901126101195760043560005260006020526104b8604060002061049960098201611383565b90600b600a8201549101546040519384936080855260808501906111fc565b602084019290925260ff81161515604084015260081c6001600160a01b031660608301520390f35b34610119576101603660031901126101195736602312156101195760405161050781611257565b61010481368211610119576004905b828210610ae7575050356001600160401b0381116101195736602382011215610119578060040135906001600160401b0382116108b2578160051b60405192610562602083018561128e565b8352602460208401918301019136831161011957602401905b828210610ad757505050610124356001600160401b038111610119576105a59036906004016112af565b916101443560405160ff6002865192602081818a01956105c68183896111d9565b8101600181520301902001541615610a9d578351600360405160208189516105ef8183896111d9565b81016001815203019020015410610a58578451902061060c611545565b60208151910120146109e6575b5060065460001981146109d0576001018060065560405160208101913360601b83526034820152426054820152605481526106538161123c565b519020916040519161066483611221565b82526020820152826040820152426060820152600060808201523360a08201528160005260006020526040600020815160005b600881106109bc57505060208201518051906001600160401b0382116108b257600160401b82116108b257602090600884015483600886015580841061099c575b500160088301600052602060002060005b838110610988575050505060408201518051906001600160401b0382116108b2576107176009840154611349565b601f8111610948575b50602090601f83116001146108d357918060a09492600b946000926108c8575b50508160011b916000199060031b1c19161760098201555b6060840151600a820155019161078060808201511515849060ff801983541691151516179055565b01518154610100600160a81b03191660089190911b610100600160a81b031617905533600090815260026020526040902080549290600160401b8410156108b257836107d391600160209601815561131b565b81549060031b9084821b91600019901b1916179055817fdb677e795581b981fcc03f2063af7a50f2f1934a4721d6f23d5f1e694b0997bb61081f604051936040855260408501906111fc565b9242868201528033940390a38060005260008252807f0c0afd2d440ecce8f50a3a8fb8c422b4bb32611b01094a5041d71f88dd21c6a96040600b61089d8260002061088a61086c8261146b565b6108786008840161149e565b61088460098501611383565b91611588565b9201805460ff191660ff84151516179055565b815190151581524286820152a2604051908152f35b634e487b7160e01b600052604160045260246000fd5b015190508880610740565b906009840160005260206000209160005b601f198516811061093057509260a09492600192600b9583601f19811610610917575b505050811b016009820155610758565b015160001960f88460031b161c19169055888080610907565b919260206001819286850151815501940192016108e4565b61097890600985016000526020600020601f850160051c8101916020861061097e575b601f0160051c0190611571565b86610720565b909150819061096b565b6001906020845194019381840155016106e9565b6109b6906008860160005284846000209182019101611571565b876106d8565b600190602083519301928185015501610697565b634e487b7160e01b600052601160045260246000fd5b80600052600360205260ff60406000205416610a1a5760005260036020526040600020600160ff1982541617905583610619565b60405162461bcd60e51b8152602060048201526016602482015275139d5b1b1a599a595c88185b1c9958591e481d5cd95960521b6044820152606490fd5b60405162461bcd60e51b815260206004820152601760248201527f546f6f206d616e79207075626c6963207369676e616c730000000000000000006044820152606490fd5b60405162461bcd60e51b815260206004820152601260248201527143697263756974206e6f742061637469766560701b6044820152606490fd5b813581526020918201910161057b565b8135815260209182019101610516565b3461011957604036600319011261011957610b10611305565b6001600160a01b031660009081526002602052604090208054602435919082101561011957602091610b419161131b565b90546040519160031b1c8152f35b34610119576040366003190112610119576004356001600160401b03811161011957610b7f9036906004016112af565b6024358015159182820361011957610ba260018060a01b036004541633146114ef565b60405192610bce82519460208181860197610bbe81838b6111d9565b8101600181520301902054611349565b15610c4f57610c30610c44936002610c1460207f60c372d33f420baaee2db69302e63d22fe0f81ad9352d18e31c7b856a311abb398604051809381928a519283916111d9565b81016001815203019020019060ff801983541691151516179055565b6040519283926040845260408401906111fc565b9060208301520390a1005b60405162461bcd60e51b815260206004820152601660248201527510da5c98dd5a5d08191bd95cc81b9bdd08195e1a5cdd60521b6044820152606490fd5b34610119576020366003190112610119576004356000526003602052602060ff604060002054166040519015158152f35b34610119576060366003190112610119576001600160401b0360043581811161011957610cef9036906004016112af565b60243582811161011957610d079036906004016112af565b610d1c60018060a01b036004541633146114ef565b60405190610d298261123c565b8282526020918281018281526040820160019182825260608401926044358452604051878181610d5f8c838151938492016111d9565b810184815203019020945180518a81116108b25780610d7e8854611349565b92601f938b858211610fbf575b50508a90848311600114610f5c57600092610f51575b5050600019600383901b1c191690831b1786555b818601925180519a8b116108b257610dcd8454611349565b8b838211610f18575b505088918b11600114610e8257936003938b807f0ffa02a982d35d608cd43813952adac44f611d562fbe92ca6085aeb0dc0831d49d610e729b9996610e4d96610e659f9e9c9a600094610e77575b50501b9160001990881b1c19161790555b511515600285019060ff801983541691151516179055565b519101556040519485946040865260408601906111fc565b91848303908501526111fc565b0390a1005b015192503880610e24565b9990601f1982169a84600052896000209b60005b818110610f03575093837f0ffa02a982d35d608cd43813952adac44f611d562fbe92ca6085aeb0dc0831d49d610e659d9c9a989460039894610e4d97610e729e9c9910610eeb575b505050811b019055610e35565b0151600019838a1b60f8161c191690558e8080610ede565b838301518e559c85019c928b01928b01610e96565b610f419186600052848c600020918d82850160051c84019410610f48575b0160051c0190611571565b8b8b610dd6565b92508192610f36565b015190508c80610da1565b60008a81528c8120879550929190601f198516908e5b828210610fa85750508411610f8f575b505050811b018655610db5565b015160001960f88460031b161c191690558c8080610f82565b83850151865589979095019493840193018e610f72565b610fe7918b60005286826000209181870160051c8301938710610f48570160051c0190611571565b8d8b610d8b565b34610119576000366003190112610119576005546040516001600160a01b039091168152602090f35b346101195760208060031936011261011957600435600060a060405161103c81611221565b60405161104881611257565b61010036823781526060858201526060604082015282606082015282608082015201528060005260008252611086600a604060002001541515611428565b6000526000815260406000206040519061109f82611221565b6110a88161146b565b82526008916110b96008830161149e565b8482019081526110cb60098401611383565b60408301908152600b600a8501549460608501958652015490608084019060ff83161515825260018060a01b03938460a087019460081c168452604051978989018a8a526101c08a0197516000915b838310611196575050505051976101a095866101208a01528951809152816101e08a019a019160005b828110611182575050505086976111679151601f19898303016101408a01526111fc565b94516101608701525115156101808601525116908301520390f35b83518c529a81019a92810192600101611143565b8151815260019290920191908c01908c0161111a565b34610119576020366003190112610119576020906004356000526003825260ff6040600020541615158152f35b60005b8381106111ec5750506000910152565b81810151838201526020016111dc565b90602091611215815180928185528580860191016111d9565b601f01601f1916010190565b60c081019081106001600160401b038211176108b257604052565b608081019081106001600160401b038211176108b257604052565b61010081019081106001600160401b038211176108b257604052565b604081019081106001600160401b038211176108b257604052565b90601f801991011681019081106001600160401b038211176108b257604052565b81601f82011215610119578035906001600160401b0382116108b257604051926112e3601f8401601f19166020018561128e565b8284526020838301011161011957816000926020809301838601378301015290565b600435906001600160a01b038216820361011957565b80548210156113335760005260206000200190600090565b634e487b7160e01b600052603260045260246000fd5b90600182811c92168015611379575b602083101461136357565b634e487b7160e01b600052602260045260246000fd5b91607f1691611358565b9060405191826000825461139681611349565b9081845260209460019160018116908160001461140657506001146113c7575b5050506113c59250038361128e565b565b600090815285812095935091905b8183106113ee5750506113c593508201013880806113b6565b855488840185015294850194879450918301916113d5565b925050506113c594925060ff191682840152151560051b8201013880806113b6565b1561142f57565b60405162461bcd60e51b8152602060048201526014602482015273141c9bdbd988191bd95cc81b9bdd08195e1a5cdd60621b6044820152606490fd5b60405191906000835b60088210611488575050506113c582611257565b6001602081928554815201930191019091611474565b90604051918281549182825260209260208301916000526020600020936000905b8282106114d5575050506113c59250038361128e565b8554845260019586019588955093810193909101906114bf565b156114f657565b60405162461bcd60e51b815260206004820152602160248201527f4f6e6c792061646d696e2063616e2063616c6c20746869732066756e6374696f6044820152603760f91b6064820152608490fd5b6040519061155282611273565b601082526f616e6f6e796d6f75732d766f74696e6760801b6020830152565b81811061157c575050565b60008155600101611571565b919091511580156116f6575b6116ef578051907f955d37fc839cad7a92b3ac87986e1b665589c694070b87f2ca77c5661427fc9f602082019283206f35bcb196bb32b934b334b1b0ba34b7b760811b60206040516115e581611273565b601081520152036115fb57505060039051101590565b7f5c14477785f304953b925dfe8ba8932ffb039937c5277f6ef9249f2cba2b730b8151832071766f74696e672d656c69676962696c69747960701b602060405161164481611273565b6012815201520361165a57505060049051101590565b80518220611666611545565b602081519101201460001461168057505060039051101590565b907f8264c34c5b601e0429c899c166c2e703af24af96dfaa5b74570101330e047a47915190207f6d656d626572736869702d766572696669636174696f6e00000000000000000060206040516116d581611273565b601781520152146116e65750600190565b60039051101590565b5050600090565b5081511561159456fea26469706673582212209350f5451dd52f171dcd08424eda2b57c4c44a4034b19280c68ddcb1eb9ac44e64736f6c634300081800330ffa02a982d35d608cd43813952adac44f611d562fbe92ca6085aeb0dc0831d460803461008157601f611bb738819003918201601f19168301916001600160401b038311848410176100865780849260209460405283398101031261008157516001600160a01b038116908190036100815760018060a01b031990816000541617600055339060015416176001556000600255604051611b1a908161009d8239f35b600080fd5b634e487b7160e01b600052604160045260246000fdfe6080604052600436101561001257600080fd5b6000803560e01c8063013cf08b146113a857806303c7881a146113445780630c0512e9146110a15780630d61b519146110db5780630d95255b146110bf5780631a5007dd146110a15780631b31527f146110595780631c0d850e146110255780635b16d25d146108a957806370c3b4241461088257806378ef11381461080c5780638b3511f7146107b6578063950c78221461073057806398712b5614610714578063b7d3438e146106f8578063bb4d443614610661578063c7f758a8146105bf578063d3c0715b146101f9578063e2f273bd146101245763f851a440146100f957600080fd5b346101215780600319360112610121576001546040516001600160a01b039091168152602090f35b80fd5b50346101215760203660031901126101215761013e611690565b600154906001600160a01b039081831633036101aa571690811561016d576001600160a01b0319161760015580f35b60405162461bcd60e51b8152602060048201526015602482015274496e76616c69642061646d696e206164647265737360581b6044820152606490fd5b60405162461bcd60e51b815260206004820152602160248201527f4f6e6c792061646d696e2063616e2063616c6c20746869732066756e6374696f6044820152603760f91b6064820152608490fd5b5034610121576060366003190112610121576024600435813580151580820361049857604493843567ffffffffffffffff81116105bb5761023e9036906004016116f0565b948487526020936003855260408820600254871115806105b2575b61026290611773565b60ff600482015460081c16600481101561059f5761028090156117b5565b600881015442101561056657600b8101913360005282875260ff604060002054166105335789546040516370a0823160e01b815233600482015295936001600160a01b03939291899088908790829088165afa968715610528578c976104f4575b5086156104b157908b9594939291336000528952604060002060ff1990600182825416179055600c83018a5260406000209081541660ff8a161790556007820161032c8882546119d8565b90551561049c576005016103418682546119d8565b90555b3384526005875261035888604086206119e5565b80845416803b156104985784809160a4604051809481936334ff261960e21b8352336004840152600a8984015260608a84015260126064840152712b37ba32902830b93a34b1b4b830ba34b7b760711b60848401525af190811561048d578591610479575b50541690813b156104755760846040918580946004855197889687956355ad3ead60e11b8752338488015286015284015263766f746560e01b60648401525af1801561046a57610452575b50507f63453ebf8e1aa432b8d77257d489f75c1a106cdbd568c0e0c63547d20fc91fa892604051928352820152606060408201528061044c339560608301906115ae565b0390a380f35b61045b9061147e565b610466578538610408565b8580fd5b6040513d84823e3d90fd5b8380fd5b6104829061147e565b6104755783386103bd565b6040513d87823e3d90fd5b8480fd5b6006016104aa8682546119d8565b9055610344565b60405162461bcd60e51b8152600481018a9052601b818701527f4e6f205354415420746f6b656e732c2063616e6e6f7420766f7465000000000081880152606490fd5b9096508881813d8311610521575b61050c81836114c4565b8101031261051c575195386102e1565b600080fd5b503d610502565b6040513d8e823e3d90fd5b60405162461bcd60e51b815260048101889052600d818701526c105b1c9958591e481d9bdd1959609a1b81860152606490fd5b60405162461bcd60e51b81526004810187905260138186015272159bdd1a5b99c81c195c9a5bd908195b991959606a1b81850152606490fd5b634e487b7160e01b8a526021600452848afd5b50861515610259565b8680fd5b503461012157602036600319011261012157604090600435815260036020522080549061065d60048201549260058301546006840154600785015460088601549160098701549360ff600a890154169561061b60018a016114e6565b99610634600361062d60028d016114e6565b9b016114e6565b6040519b8c9b6001600160a01b03601085901c169460ff600886901c811695169392908e6115f6565b0390f35b503461012157602090816003193601126101215761067d611690565b81546040516370a0823160e01b81526001600160a01b03928316600482015291849183916024918391165afa9182156106ec57916106bf575b50604051908152f35b90508181813d83116106e5575b6106d681836114c4565b8101031261051c5751386106b6565b503d6106cc565b604051903d90823e3d90fd5b5034610121578060031936011261012157602060405160648152f35b5034610121578060031936011261012157602060405160328152f35b5034610121576020806003193601126107b2576001600160a01b03610753611690565b1682526005602052604082209160405180926020855492838152019483526020832092905b82821061079b5761065d8561078f818903826114c4565b60405191829182611737565b835486529485019460019384019390910190610778565b5080fd5b5034610121576040366003190112610121576107d0611690565b6001600160a01b03168152600560205260408120805460243592908310156101215760206107fe84846116a6565b90546040519160031b1c8152f35b5034610121576020806003193601126107b2576001600160a01b0361082f611690565b1682526004602052604082209160405180926020855492838152019483526020832092905b82821061086b5761065d8561078f818903826114c4565b835486529485019460019384019390910190610854565b5034610121578060031936011261012157546040516001600160a01b039091168152602090f35b50346101215760a03660031901126101215760043567ffffffffffffffff81116107b2576108db9036906004016116f0565b60243567ffffffffffffffff8111610c55576108fb9036906004016116f0565b9060443567ffffffffffffffff81116104755761091c9036906004016116f0565b6003606435101561047557815115610fe857825115610fa35760843515610f5e5783546040516370a0823160e01b815233600482015290602090829060249082906001600160a01b03165afa801561048d578590610f2b575b6032915010610eda576109896002546119b3565b908160025561099a608435426119d8565b93828652600360205260408620928355835167ffffffffffffffff8111610e0c576109c86001850154611444565b601f8111610e95575b50806020601f8211600114610e2b578891610e20575b508160011b916000199060031b1c19161760018401555b80519067ffffffffffffffff8211610e0c578190610a1f6002860154611444565b601f8111610dbb575b50602090601f8311600114610d4c578892610d41575b50508160011b916000199060031b1c19161760028301555b80519067ffffffffffffffff8211610d2d57610a756003840154611444565b601f8111610ce8575b50602090601f8311600114610c7857600a939291879183610c6d575b50508160011b916000199060031b1c19161760038201555b60048101805462010000600160b01b033360101b169060ff606435169069ffffffffffffffffffff60b01b16171790558460058201558460068201558460078201558360088201554260098201550160ff1981541690553383526004602052610b2160408420600254906119e5565b825483906001600160a01b0316803b156107b25781809160a4604051809481936334ff261960e21b83523360048401526032602484015260606044840152601060648401526f141c9bdc1bdcd85b0810dc99585d195960821b60848401525af1801561046a57610c59575b5080546001600160a01b0316803b156107b2578180916084604051809481936355ad3ead60e11b83523360048401526040602484015260086044840152671c1c9bdc1bdcd85b60c21b60648401525af1801561046a57610c41575b50507fd8244157bfcd2b10051db9a0c53e954e429355cb86128797a0468e0892b92bf960025491610c23604051916060835260608301906115ae565b93610c33602083016064356115d3565b60408201528033940390a380f35b610c4a9061147e565b610c55578238610be7565b8280fd5b610c629061147e565b610c55578238610b8c565b015190503880610a9a565b906003840187526020872091875b601f1985168110610cd05750918391600193600a9695601f19811610610cb7575b505050811b016003820155610ab2565b015160001960f88460031b161c19169055388080610ca7565b91926020600181928685015181550194019201610c86565b60038401875260208720601f840160051c810160208510610d26575b601f830160051c82018110610d1a575050610a7e565b60008155600101610d04565b5080610d04565b634e487b7160e01b86526041600452602486fd5b015190503880610a3e565b9250600285018852602088209088935b601f1984168510610da0576001945083601f19811610610d87575b505050811b016002830155610a56565b015160001960f88460031b161c19169055388080610d77565b81810151835560209485019460019093019290910190610d5c565b90915060028501885260208820601f840160051c810160208510610e05575b90849392915b601f830160051c82018110610df6575050610a28565b60008155859450600101610de0565b5080610dda565b634e487b7160e01b87526041600452602487fd5b9050850151386109e7565b91506001850188526020882088925b601f1983168410610e7d576001935082601f19811610610e64575b5050811b0160018401556109fe565b87015160001960f88460031b161c191690553880610e55565b87810151825560209384019360019092019101610e3a565b60018501885260208820601f830160051c810160208410610ed3575b601f830160051c82018110610ec75750506109d1565b60008155600101610eb1565b5080610eb1565b60405162461bcd60e51b8152602060048201526024808201527f496e73756666696369656e74205354415420746f206372656174652070726f706044820152631bdcd85b60e21b6064820152608490fd5b506020813d602011610f56575b81610f45602093836114c4565b8101031261051c5760329051610975565b3d9150610f38565b60405162461bcd60e51b815260206004820152601960248201527f4475726174696f6e206d75737420626520706f736974697665000000000000006044820152606490fd5b60405162461bcd60e51b815260206004820152601b60248201527f4465736372697074696f6e2063616e6e6f7420626520656d70747900000000006044820152606490fd5b60405162461bcd60e51b81526020600482015260156024820152745469746c652063616e6e6f7420626520656d70747960581b6044820152606490fd5b50346101215760203660031901126101215761065d611045600435611817565b6040519182916020835260208301906115ae565b503461012157604036600319011261012157611073611690565b6001600160a01b03168152600460205260408120805460243592908310156101215760206107fe84846116a6565b50346101215780600319360112610121576020600254604051908152f35b50346101215780600319360112610121576020604051600a8152f35b5034610121576020366003190112610121576004358082526003602052604082206002548211158061133b575b61111190611773565b6004810180549160ff8360081c1660048110156113275761113290156117b5565b600881015442106112e257600a8101805460ff811661129d5760ff19166001179055600581015460069190910154109182156112685750805461ff001916610100179081905583546001600160a01b0390811691859190833b15610c555760a4908360405195869485936334ff261960e21b855260101c1660048401526064602484015260606044840152601960648401527f5375636365737366756c2050726f706f73616c20426f6e75730000000000000060848401525af1801561125d57611227575b5060207f948f4a9cd986f1118c3fbd459f7a22b23c0693e1ca3ef06a6a8be5aa7d39cc03915b604051908152a280f35b7f948f4a9cd986f1118c3fbd459f7a22b23c0693e1ca3ef06a6a8be5aa7d39cc03919361125560209261147e565b9391506111f7565b6040513d86823e3d90fd5b61ff0019166102001790557f948f4a9cd986f1118c3fbd459f7a22b23c0693e1ca3ef06a6a8be5aa7d39cc039060209061121d565b60405162461bcd60e51b815260206004820152601960248201527f50726f706f73616c20616c7265616479206578656375746564000000000000006044820152606490fd5b60405162461bcd60e51b815260206004820152601760248201527f566f74696e6720706572696f64206e6f7420656e6465640000000000000000006044820152606490fd5b634e487b7160e01b86526021600452602486fd5b50811515611108565b5034610121576040366003190112610121576024356001600160a01b038116908190036107b25760ff6040809360043581526003602052818120938152600b8401602052600c83838320541694016020522054168251911515825215156020820152f35b503461012157602036600319011261012157604090600435815260036020522080549061065d6113da600183016114e6565b6113e6600284016114e6565b926113f3600382016114e6565b94600482015490600583015460068401549060078501549260088601549460ff600a600989015498015416976040519b8c9b8c9260018060a01b038560101c169560ff808760081c169616946115f6565b90600182811c92168015611474575b602083101461145e57565b634e487b7160e01b600052602260045260246000fd5b91607f1691611453565b67ffffffffffffffff811161149257604052565b634e487b7160e01b600052604160045260246000fd5b6040810190811067ffffffffffffffff82111761149257604052565b90601f8019910116810190811067ffffffffffffffff82111761149257604052565b906040519182600082546114f981611444565b90818452602094600191600181169081600014611569575060011461152a575b505050611528925003836114c4565b565b600090815285812095935091905b8183106115515750506115289350820101388080611519565b85548884018501529485019487945091830191611538565b9250505061152894925060ff191682840152151560051b820101388080611519565b60005b83811061159e5750506000910152565b818101518382015260200161158e565b906020916115c78151809281855285808601910161158b565b601f01601f1916010190565b9060038210156115e05752565b634e487b7160e01b600052602160045260246000fd5b9b98959a97949d9c999693908c61164d9461162661164295611634946101a09085528060208601528401906115ae565b9160408184039101526115ae565b8c810360608e0152906115ae565b9b60808b01906115d3565b60048810156115e0576101809760a08a015260018060a01b031660c089015260e08801526101008701526101208601526101408501526101608401521515910152565b600435906001600160a01b038216820361051c57565b80548210156116be5760005260206000200190600090565b634e487b7160e01b600052603260045260246000fd5b67ffffffffffffffff811161149257601f01601f191660200190565b81601f8201121561051c57803590611707826116d4565b9261171560405194856114c4565b8284526020838301011161051c57816000926020809301838601378301015290565b602090602060408183019282815285518094520193019160005b82811061175f575050505090565b835185529381019392810192600101611751565b1561177a57565b60405162461bcd60e51b8152602060048201526013602482015272125b9d985b1a59081c1c9bdc1bdcd85b081251606a1b6044820152606490fd5b156117bc57565b60405162461bcd60e51b815260206004820152601360248201527250726f706f73616c206e6f742061637469766560681b6044820152606490fd5b8115611801570490565b634e487b7160e01b600052601260045260246000fd5b60009081526020906003825260408120906007820154801561198857600583015490606482028281046064148315171561197457611857826006926117f7565b94015492606484029084820460641485151715611960575090611879916117f7565b91808211156118df57505050602e6118bd926118976118dc93611a1f565b6040519482670a082a6a68a8840560c31b8794850152825192839160288601910161158b565b81016525205945532960d01b602882015203600e8101845201826114c4565b90565b919250101561194057602f611922926118fa6118dc93611a1f565b6040519482690a48a948a86a88a8840560b31b87948501528251928391602a8601910161158b565b81016425204e4f2960d81b602a82015203600f8101845201826114c4565b50631512515160e21b60405191611956836114a8565b6004835282015290565b634e487b7160e01b81526011600452602490fd5b634e487b7160e01b84526011600452602484fd5b5050506c139bc81d9bdd195cc818d85cdd609a1b604051916119a9836114a8565b600d835282015290565b60001981146119c25760010190565b634e487b7160e01b600052601160045260246000fd5b919082018092116119c257565b80546801000000000000000081101561149257611a07916001820181556116a6565b819291549060031b91821b91600019901b1916179055565b8015611ac657600081805b611ab25750611a38816116d4565b90611a4660405192836114c4565b808252601f19611a55826116d4565b013660208401375b80928015611aab5760001982019182116119c2578193600a9260309084840682018092116119c257855111156116be5760f81b6001600160f81b03191660001a908401601f01530491611a5d565b5050905090565b90611abe600a916119b3565b910480611a2a565b50604051611ad3816114a8565b60018152600360fc1b60208201529056fea264697066735822122058ed5b251ba9951690eafc713a2b24f50b15ffdaf2bf908ed9100d14e13e1a7a64736f6c6343000818003360806040523462000345576200147a803803806200001d816200034a565b928339810190604081830312620003455780516001600160401b03908181116200034557836200004f91840162000370565b916020938482015183811162000345576200006b920162000370565b600380546001600160a01b03191633178155835190918382116200032f576004958654926001968785811c9516801562000324575b838610146200030f578190601f95868111620002b9575b508390868311600114620002525760009262000246575b505060001982871b1c191690871b1787555b815194851162000231576005968754908782811c9216801562000226575b83831014620002115750838111620001c8575b50809285116001146200015a57509383949184926000956200014e575b50501b92600019911b1c19161790555b6040516110979081620003e38239f35b0151935038806200012e565b92919084601f1981168860005285600020956000905b89838310620001ad575050501062000192575b50505050811b0190556200013e565b01519060f884600019921b161c191690553880808062000183565b85870151895590970196948501948893509081019062000170565b8760005281600020848088018a1c82019284891062000207575b01891c019087905b828110620001fa57505062000111565b60008155018790620001ea565b92508192620001e2565b602290634e487b7160e01b6000525260246000fd5b91607f1691620000fe565b604187634e487b7160e01b6000525260246000fd5b015190503880620000ce565b90899350601f198316918b600052856000209260005b87828210620002a2575050841162000289575b505050811b018755620000e0565b015160001983891b60f8161c191690553880806200027b565b8385015186558d9790950194938401930162000268565b90915089600052836000208680850160051c82019286861062000305575b918b91869594930160051c01915b828110620002f5575050620000b7565b600081558594508b9101620002e5565b92508192620002d7565b602289634e487b7160e01b6000525260246000fd5b94607f1694620000a0565b634e487b7160e01b600052604160045260246000fd5b600080fd5b6040519190601f01601f191682016001600160401b038111838210176200032f57604052565b919080601f84011215620003455782516001600160401b0381116200032f57602090620003a6601f8201601f191683016200034a565b92818452828287010111620003455760005b818110620003ce57508260009394955001015290565b8581018301518482018401528201620003b856fe6040608081526004908136101561001557600080fd5b600091823560e01c8063080c98da14610d1657806336b6e82b14610c3b57806351858e2714610c1257806369839b6614610bf75780637ae922be146109175780637be700ba146104805780637fc9592d1461030c57806380afdea81461021d578063aad24061146101f1578063b9209e33146101b3578063e35fe366146101b3578063f851a440146101865763f883e478146100b057600080fd5b346101825781600319360112610182576100c8610d96565b906024359167ffffffffffffffff831161017e5761010d610178927f3b56c041a4c2e60799edf637b19f958011d99c582ce76af1d7de3b1c73436f8594369101610f5d565b60035490916001600160a01b03916101289083163314610fb4565b1693848652600260205261014160ff8288205416611021565b84865285602052600c8187200160ff1990818154169055600260205281872090815416905551918291602083526020830190610f1d565b0390a280f35b8480fd5b8280fd5b5050346101af57816003193601126101af5760035490516001600160a01b039091168152602090f35b5080fd5b5050346101af5760203660031901126101af5760209160ff9082906001600160a01b036101de610d96565b1681526002855220541690519015158152f35b5034610182576020366003190112610182578160209360ff923581526001855220541690519015158152f35b509034610182578260031936011261018257805183819490845461024081610db1565b91828552602096600192886001821691826000146102e2575050600114610287575b858861028389610274848a0385610e56565b51928284938452830190610f1d565b0390f35b815286935091907f8a35acfbc15ff81a39ae7d344fd709f28e8600b4aa8c65c6b64bfe7fe36bd19b5b8284106102ca575050508201018161027461028338610262565b8054848a0186015288955087949093019281016102b0565b60ff19168882015294151560051b8701909401945085935061027492506102839150389050610262565b5050346101af5760208060031936011261018257610328610d96565b8360a0845161033681610deb565b8281528285820152855161034981610e1d565b610100368237818701526060808201526080810183905201526001600160a01b031680845260028252828420546103829060ff16611021565b83528281528183209082519261039784610deb565b825484526001946001840154928086019384528251808860028801918486915b6008831061046c5750505050506103cd81610e1d565b8387019081526103df600a8701610e78565b936060880194855260ff600c600b8901549860808b01998a520154169560a089019615158752815198848a5251848a0152519088015251606087019092905b6008821061045957878088888851906104466101a092836101608701526101c0860190610f1d565b9251610180850152511515908301520390f35b835181529282019290880190820161041e565b8454815293830193918301918691016103b7565b5034610182576101603660031901126101825780356024918235923660631215610913578451926104b084610e1d565b610144843682116108ff576044905b828210610903575050359167ffffffffffffffff928381116108ff576104e89036908601610f5d565b9486895260019360209585875260ff8a8c2054166108c457338b526002875260ff8a8c20541661088a5787517fb60dfd2d76b37248d06a548f402532200b7a08f600ece90f63c05723c91cf2a88b6227a92160e91b8a808d01948520925161054f81610e3a565b60038152015214908115610840575b50156107fe57841515806107f5575b806107eb575b156107b0579087918695948c878a968d8f80519a6105908c610deb565b8b52898b01918252808b0192835260608b019889528460808c019a428c5260a08d019e8f5233825252842099518a5551828a015551915b6008811061079b57505050600a8601935191825193841161078a5750508b6105ef8454610db1565b89601f8211610751575b50505087908c601f84116001146106c2579383600c946106a89b98947fe7f244aac8dd2c9c62eb282436e5fa591bb07f0e6219a03436eb819b75de86fa9e9d9b989460609b98926106b7575b5050600019600383901b1c191690861b1790555b51600b82015501915115159160ff199260ff848354169116179055868a52808352888a208183825416179055338a5260028352888a209182541617905586519485528401526060830190610f1d565b9242908201528033930390a280f35b015190503880610645565b9190601f1984168584528a8420935b81811061073c575097846106a89b98947fe7f244aac8dd2c9c62eb282436e5fa591bb07f0e6219a03436eb819b75de86fa9e9d9b9894839894600c9860609d10610723575b505050811b019055610659565b015160001960f88460031b161c19169055388080610716565b82840151855593890193928b01928b016106d1565b8286610778945220601f850160051c8101918b8610610780575b601f0160051c019061100a565b8b38896105f9565b909150819061076b565b634e487b7160e01b8e52604190528cfd5b8b83519301926002828b0101550188906105c7565b895162461bcd60e51b81529081018790526016818501527524b73b30b634b2102bb7b936321024a210383937b7b360511b6044820152606490fd5b5082511515610573565b5088151561056d565b895162461bcd60e51b8152908101879052601a818501527f496e76616c696420766572696669636174696f6e206c6576656c0000000000006044820152606490fd5b7fdcfa7035a5c1da005e9057dfe74f35f457df142ad11b8584f13e433660d15ce59150895190206544455649434560d01b898d5161087d81610e3a565b600681520152143861055e565b895162461bcd60e51b815290810187905260158185015274155cd95c88185b1c9958591e481d995c9a599a5959605a1b6044820152606490fd5b895162461bcd60e51b815290810187905260168185015275139d5b1b1a599a595c88185b1c9958591e481d5cd95960521b6044820152606490fd5b8880fd5b81358152602091820191016104bf565b8580fd5b509190346101af57366003190112610bf45767ffffffffffffffff8235818111610182576109489036908501610f5d565b90602435818111610bf0576109609036908601610f5d565b9361097660018060a01b03600354163314610fb4565b8251828111610bdd578061098a8354610db1565b94601f95868111610b88575b50602090868311600114610b07578792610afc575b50508160011b916000199060031b1c19161781555b8451918211610ae957506005916109d78354610db1565b818111610a96575b506020908211600114610a1957839482939492610a0e575b50508160011b916000199060031b1c191617905580f35b0151905038806109f7565b8284527f036b6384b5eca791c62761152d0c79bb0604c104a5fb6f4eb0703f3154bb3db090601f198316855b818110610a7e57509583600195969710610a65575b505050811b01905580f35b015160001960f88460031b161c19169055388080610a5a565b9192602060018192868b015181550194019201610a45565b610ada908486527f036b6384b5eca791c62761152d0c79bb0604c104a5fb6f4eb0703f3154bb3db083808601871c82019260208710610ae0575b01861c019061100a565b386109df565b92508192610ad0565b634e487b7160e01b845260419052602483fd5b0151905038806109ab565b8488527f8a35acfbc15ff81a39ae7d344fd709f28e8600b4aa8c65c6b64bfe7fe36bd19b9250601f198416885b818110610b705750908460019594939210610b57575b505050811b0181556109c0565b015160001960f88460031b161c19169055388080610b4a565b92936020600181928786015181550195019301610b34565b610bce908589527f8a35acfbc15ff81a39ae7d344fd709f28e8600b4aa8c65c6b64bfe7fe36bd19b8880860160051c82019260208710610bd4575b0160051c019061100a565b38610996565b92508192610bc3565b634e487b7160e01b855260418252602485fd5b8380fd5b80fd5b5050346101af57816003193601126101af5751908152602090f35b8334610bf45780600319360112610bf457610c3860018060a01b03600354163314610fb4565b80f35b828434610bf45780600319360112610bf4578151918282600554610c5e81610db1565b9081845260209560019187600182169182600014610cef575050600114610c93575b5050506102839291610274910385610e56565b9190869350600583527f036b6384b5eca791c62761152d0c79bb0604c104a5fb6f4eb0703f3154bb3db05b828410610cd75750505082010181610274610283610c80565b8054848a018601528895508794909301928101610cbe565b60ff19168782015293151560051b8601909301935084925061027491506102839050610c80565b5050346101af5760203660031901126101af579081906001600160a01b03610d3c610d96565b1681528060205220805490600181015492610d85610d5c600a8401610e78565b60a060ff600c600b870154960154169380519788978852602088015286015260a0850190610f1d565b916060840152151560808301520390f35b600435906001600160a01b0382168203610dac57565b600080fd5b90600182811c92168015610de1575b6020831014610dcb57565b634e487b7160e01b600052602260045260246000fd5b91607f1691610dc0565b60c0810190811067ffffffffffffffff821117610e0757604052565b634e487b7160e01b600052604160045260246000fd5b610100810190811067ffffffffffffffff821117610e0757604052565b6040810190811067ffffffffffffffff821117610e0757604052565b90601f8019910116810190811067ffffffffffffffff821117610e0757604052565b90604051918260008254610e8b81610db1565b90818452602094600191600181169081600014610efb5750600114610ebc575b505050610eba92500383610e56565b565b600090815285812095935091905b818310610ee3575050610eba9350820101388080610eab565b85548884018501529485019487945091830191610eca565b92505050610eba94925060ff191682840152151560051b820101388080610eab565b919082519283825260005b848110610f49575050826000602080949584010152601f8019910116010190565b602081830181015184830182015201610f28565b81601f82011215610dac5780359067ffffffffffffffff8211610e075760405192610f92601f8401601f191660200185610e56565b82845260208383010111610dac57816000926020809301838601378301015290565b15610fbb57565b60405162461bcd60e51b815260206004820152602160248201527f4f6e6c792061646d696e2063616e2063616c6c20746869732066756e6374696f6044820152603760f91b6064820152608490fd5b818110611015575050565b6000815560010161100a565b1561102857565b60405162461bcd60e51b8152602060048201526011602482015270155cd95c881b9bdd081d995c9a599a5959607a1b6044820152606490fdfea2646970667358221220f6f4cca7436ab3069ab9a32960afc8e340e4683945ab75910f21ea41b2e1496c64736f6c63430008180033","opcodes":"PUSH1 0x80 DUP1 PUSH1 0x40 MSTORE CALLVALUE PUSH3 0xF1E JUMPI PUSH1 0x5 DUP1 SLOAD PUSH1 0x1 PUSH1 0x1 PUSH1 0xA0 SHL SUB NOT AND CALLER OR SWAP1 SSTORE PUSH1 0x0 SWAP1 PUSH2 0x16FD DUP1 DUP3 ADD SWAP1 PUSH1 0x1 PUSH1 0x1 PUSH1 0x40 SHL SUB DUP3 GT DUP4 DUP4 LT OR PUSH3 0xB98 JUMPI PUSH1 0x20 SWAP2 DUP4 SWAP2 PUSH3 0x6887 DUP4 CODECOPY ADDRESS DUP2 MSTORE SUB ADD SWAP1 DUP3 CREATE DUP1 ISZERO PUSH3 0xF11 JUMPI DUP2 SLOAD PUSH1 0x1 PUSH1 0x1 PUSH1 0xA0 SHL SUB NOT AND PUSH1 0x1 PUSH1 0x1 PUSH1 0xA0 SHL SUB SWAP2 SWAP1 SWAP2 AND SWAP1 DUP2 OR DUP3 SSTORE PUSH1 0x40 MLOAD SWAP1 PUSH2 0x1BB7 DUP1 DUP4 ADD SWAP2 SWAP1 PUSH1 0x1 PUSH1 0x1 PUSH1 0x40 SHL SUB DUP4 GT DUP5 DUP5 LT OR PUSH3 0xC96 JUMPI SWAP2 DUP4 SWAP2 PUSH1 0x20 SWAP4 PUSH3 0xA6BE DUP5 CODECOPY DUP2 MSTORE SUB ADD SWAP1 DUP3 CREATE DUP1 ISZERO PUSH3 0xF11 JUMPI PUSH1 0x1 DUP1 SLOAD PUSH1 0x1 PUSH1 0x1 PUSH1 0xA0 SHL SUB NOT AND PUSH1 0x1 PUSH1 0x1 PUSH1 0xA0 SHL SUB SWAP3 SWAP1 SWAP3 AND SWAP2 SWAP1 SWAP2 OR SWAP1 SSTORE PUSH1 0x40 MLOAD PUSH2 0x147A DUP1 DUP3 ADD SWAP1 PUSH1 0x1 PUSH1 0x1 PUSH1 0x40 SHL SUB DUP3 GT DUP4 DUP4 LT OR PUSH3 0xB98 JUMPI PUSH1 0xC0 SWAP2 DUP4 SWAP2 PUSH3 0xC275 DUP4 CODECOPY PUSH1 0x40 DUP2 MSTORE PUSH1 0xB PUSH1 0x40 DUP3 ADD MSTORE PUSH11 0x6774755F64616F5F61707 PUSH1 0xAC SHL PUSH1 0x60 DUP3 ADD MSTORE PUSH1 0x80 PUSH1 0x20 DUP3 ADD MSTORE PUSH1 0x13 PUSH1 0x80 DUP3 ADD MSTORE PUSH32 0x6D656D6265725F766572696669636174696F6E00000000000000000000000000 PUSH1 0xA0 DUP3 ADD MSTORE SUB ADD SWAP1 DUP3 CREATE DUP1 ISZERO PUSH3 0xF11 JUMPI PUSH1 0x2 DUP1 SLOAD PUSH1 0x1 PUSH1 0x1 PUSH1 0xA0 SHL SUB NOT AND PUSH1 0x1 PUSH1 0x1 PUSH1 0xA0 SHL SUB SWAP3 SWAP1 SWAP3 AND SWAP2 SWAP1 SWAP2 OR SWAP1 SSTORE PUSH1 0x40 MLOAD PUSH2 0x273A DUP1 DUP3 ADD SWAP1 PUSH1 0x1 PUSH1 0x1 PUSH1 0x40 SHL SUB DUP3 GT DUP4 DUP4 LT OR PUSH3 0xB98 JUMPI PUSH1 0x20 SWAP2 DUP4 SWAP2 PUSH3 0x7F84 DUP4 CODECOPY DUP5 DUP2 MSTORE SUB ADD SWAP1 DUP3 CREATE DUP1 ISZERO PUSH3 0xF11 JUMPI PUSH1 0x3 DUP1 SLOAD PUSH1 0x1 PUSH1 0x1 PUSH1 0xA0 SHL SUB NOT AND PUSH1 0x1 PUSH1 0x1 PUSH1 0xA0 SHL SUB SWAP3 SWAP1 SWAP3 AND SWAP2 SWAP1 SWAP2 OR SWAP1 SSTORE PUSH1 0x40 MLOAD PUSH2 0x3038 DUP1 DUP3 ADD SWAP1 PUSH1 0x1 PUSH1 0x1 PUSH1 0x40 SHL SUB DUP3 GT DUP4 DUP4 LT OR PUSH3 0xB98 JUMPI PUSH1 0x20 SWAP2 DUP4 SWAP2 PUSH3 0x384F DUP4 CODECOPY ADDRESS DUP2 MSTORE SUB ADD SWAP1 DUP3 CREATE DUP1 ISZERO PUSH3 0xF11 JUMPI PUSH1 0x4 DUP1 SLOAD PUSH1 0x1 PUSH1 0x1 PUSH1 0xA0 SHL SUB NOT AND PUSH1 0x1 PUSH1 0x1 PUSH1 0xA0 SHL SUB DUP4 AND OR SWAP1 SSTORE PUSH1 0x40 MLOAD SWAP1 PUSH3 0x229 DUP3 PUSH3 0xF37 JUMP JUMPDEST PUSH1 0x2 DUP3 MSTORE DUP3 JUMPDEST PUSH1 0x40 DUP2 LT PUSH3 0xEFF JUMPI POP PUSH1 0x40 MLOAD PUSH3 0x247 DUP2 PUSH3 0xF53 JUMP JUMPDEST PUSH1 0xA DUP2 MSTORE PUSH10 0x676F7665726E616E6365 PUSH1 0xB0 SHL PUSH1 0x20 DUP3 ADD MSTORE PUSH3 0x269 DUP4 PUSH3 0xF6F JUMP JUMPDEST MSTORE PUSH3 0x275 DUP3 PUSH3 0xF6F JUMP JUMPDEST POP PUSH1 0x40 MLOAD PUSH3 0x284 DUP2 PUSH3 0xF53 JUMP JUMPDEST PUSH1 0x3 DUP2 MSTORE PUSH3 0x64616F PUSH1 0xE8 SHL PUSH1 0x20 DUP3 ADD MSTORE PUSH3 0x29F DUP4 PUSH3 0xF93 JUMP JUMPDEST MSTORE PUSH3 0x2AB DUP3 PUSH3 0xF93 JUMP JUMPDEST POP PUSH1 0x1 PUSH1 0x1 PUSH1 0xA0 SHL SUB DUP2 AND EXTCODESIZE ISZERO PUSH3 0xA86 JUMPI SWAP1 DUP3 SWAP1 PUSH1 0x40 MLOAD SWAP3 DUP4 SWAP2 PUSH4 0x3879523B PUSH1 0xE1 SHL DUP4 MSTORE ADDRESS PUSH1 0x4 DUP5 ADD MSTORE PUSH1 0xA0 PUSH1 0x24 DUP5 ADD MSTORE PUSH1 0x12 PUSH1 0xA4 DUP5 ADD MSTORE PUSH18 0x4754552044414F20476F7665726E616E6365 PUSH1 0x70 SHL PUSH1 0xC4 DUP5 ADD MSTORE PUSH1 0xE0 PUSH1 0x44 DUP5 ADD MSTORE PUSH1 0x24 PUSH1 0xE4 DUP5 ADD MSTORE PUSH32 0x4D61696E20676F7665726E616E636520636F6E747261637420666F7220475455 PUSH2 0x104 DUP5 ADD MSTORE PUSH4 0x2044414F PUSH1 0xE0 SHL PUSH2 0x124 DUP5 ADD MSTORE PUSH2 0x140 PUSH1 0x64 DUP5 ADD MSTORE PUSH1 0x5 PUSH2 0x144 DUP5 ADD MSTORE PUSH5 0x312E302E3 PUSH1 0xDC SHL PUSH2 0x164 DUP5 ADD MSTORE PUSH2 0x184 DUP4 ADD PUSH2 0x180 PUSH1 0x84 DUP6 ADD MSTORE DUP2 MLOAD DUP1 SWAP2 MSTORE PUSH2 0x1A4 SWAP1 PUSH1 0x20 DUP3 DUP7 ADD SWAP3 DUP3 PUSH1 0x5 SHL DUP8 ADD ADD SWAP4 ADD SWAP2 DUP7 SWAP1 JUMPDEST DUP3 DUP3 LT PUSH3 0xEC8 JUMPI POP POP POP SWAP1 DUP4 SWAP1 SUB SWAP2 DUP4 SWAP2 POP DUP5 SWAP1 PUSH1 0x1 PUSH1 0x1 PUSH1 0xA0 SHL SUB AND GAS CALL DUP1 ISZERO PUSH3 0xA7B JUMPI PUSH3 0xEB6 JUMPI JUMPDEST POP PUSH1 0x5 SLOAD SWAP1 PUSH1 0x40 MLOAD SWAP1 PUSH3 0x3CB DUP3 PUSH3 0xF53 JUMP JUMPDEST PUSH1 0x5 DUP3 MSTORE PUSH5 0x20B236B4B7 PUSH1 0xD9 SHL PUSH1 0x20 DUP4 ADD MSTORE PUSH1 0x40 MLOAD PUSH3 0x3EB DUP2 PUSH3 0xF53 JUMP JUMPDEST PUSH1 0x10 DUP2 MSTORE PUSH16 0x30B236B4B72033BA3A9732B23A973A39 PUSH1 0x81 SHL PUSH1 0x20 DUP3 ADD MSTORE PUSH1 0x40 MLOAD PUSH3 0x416 DUP2 PUSH3 0xF53 JUMP JUMPDEST PUSH1 0x8 DUP2 MSTORE PUSH8 0x41444D494E303031 PUSH1 0xC0 SHL PUSH1 0x20 DUP3 ADD MSTORE PUSH1 0x40 MLOAD SWAP1 PUSH3 0x43A DUP3 PUSH3 0xF53 JUMP JUMPDEST PUSH1 0x14 DUP3 MSTORE PUSH32 0x436F6D707574657220456E67696E656572696E67000000000000000000000000 PUSH1 0x20 DUP4 ADD MSTORE PUSH1 0x1 DUP1 PUSH1 0xA0 SHL SUB DUP7 AND DUP5 MSTORE PUSH1 0x7 PUSH1 0x20 MSTORE PUSH1 0xFF PUSH1 0x40 DUP6 KECCAK256 SLOAD AND PUSH3 0xE7E JUMPI PUSH1 0x40 MLOAD SWAP3 PUSH1 0x1 PUSH1 0x1 PUSH1 0x40 SHL SUB PUSH2 0x140 DUP6 ADD SWAP1 DUP2 GT SWAP1 DUP6 GT OR PUSH3 0xA4D JUMPI PUSH2 0x140 DUP5 ADD PUSH1 0x40 SWAP1 DUP2 MSTORE PUSH1 0x1 PUSH1 0x1 PUSH1 0xA0 SHL SUB DUP9 DUP2 AND DUP1 DUP8 MSTORE PUSH1 0x20 DUP1 DUP9 ADD DUP11 DUP2 MSTORE DUP5 DUP10 ADD SWAP6 SWAP1 SWAP6 MSTORE PUSH1 0x3 PUSH1 0x60 DUP10 ADD MSTORE TIMESTAMP PUSH1 0x80 DUP10 ADD MSTORE PUSH1 0xA0 DUP9 ADD DUP10 SWAP1 MSTORE PUSH1 0xC0 DUP9 ADD DUP10 SWAP1 MSTORE PUSH1 0x1 PUSH1 0xE0 DUP10 ADD MSTORE PUSH2 0x100 DUP9 ADD SWAP6 SWAP1 SWAP6 MSTORE PUSH2 0x120 DUP8 ADD SWAP6 SWAP1 SWAP6 MSTORE SWAP4 DUP7 MSTORE PUSH1 0x6 SWAP1 SWAP3 MSTORE SWAP1 DUP5 KECCAK256 DUP4 MLOAD DUP2 SLOAD PUSH1 0x1 PUSH1 0x1 PUSH1 0xA0 SHL SUB NOT AND SWAP4 AND SWAP3 SWAP1 SWAP3 OR DUP3 SSTORE MLOAD DUP1 MLOAD SWAP2 SWAP3 SWAP2 SWAP1 PUSH1 0x1 PUSH1 0x1 PUSH1 0x40 SHL SUB DUP3 GT PUSH3 0xC96 JUMPI PUSH1 0x1 DUP5 ADD SLOAD PUSH1 0x1 DUP2 DUP2 SHR SWAP2 AND DUP1 ISZERO PUSH3 0xE73 JUMPI JUMPDEST PUSH1 0x20 DUP3 LT EQ PUSH3 0xC77 JUMPI SWAP1 DUP2 PUSH1 0x1F DUP5 SWAP4 GT PUSH3 0xE1E JUMPI JUMPDEST POP PUSH1 0x20 SWAP1 PUSH1 0x1F DUP4 GT PUSH1 0x1 EQ PUSH3 0xDAA JUMPI DUP7 SWAP3 PUSH3 0xD9E JUMPI JUMPDEST POP POP DUP2 PUSH1 0x1 SHL SWAP2 PUSH1 0x0 NOT SWAP1 PUSH1 0x3 SHL SHR NOT AND OR PUSH1 0x1 DUP4 ADD SSTORE JUMPDEST PUSH1 0x40 DUP2 ADD MLOAD DUP1 MLOAD SWAP1 PUSH1 0x1 PUSH1 0x1 PUSH1 0x40 SHL SUB DUP3 GT PUSH3 0xC96 JUMPI PUSH1 0x2 DUP5 ADD SLOAD PUSH1 0x1 DUP2 DUP2 SHR SWAP2 AND DUP1 ISZERO PUSH3 0xD93 JUMPI JUMPDEST PUSH1 0x20 DUP3 LT EQ PUSH3 0xC77 JUMPI SWAP1 DUP2 PUSH1 0x1F DUP5 SWAP4 GT PUSH3 0xD3E JUMPI JUMPDEST POP PUSH1 0x20 SWAP1 PUSH1 0x1F DUP4 GT PUSH1 0x1 EQ PUSH3 0xCCA JUMPI DUP7 SWAP3 PUSH3 0xCBE JUMPI JUMPDEST POP POP DUP2 PUSH1 0x1 SHL SWAP2 PUSH1 0x0 NOT SWAP1 PUSH1 0x3 SHL SHR NOT AND OR PUSH1 0x2 DUP4 ADD SSTORE JUMPDEST PUSH1 0x60 DUP2 ADD MLOAD PUSH1 0x4 DUP2 LT ISZERO PUSH3 0xCAA JUMPI PUSH1 0xFF DUP1 NOT PUSH1 0x3 DUP6 ADD SLOAD AND SWAP2 AND OR PUSH1 0x3 DUP4 ADD SSTORE PUSH1 0x80 DUP2 ADD MLOAD PUSH1 0x4 DUP4 ADD SSTORE PUSH1 0x5 DUP3 ADD PUSH1 0xA0 DUP3 ADD MLOAD ISZERO ISZERO DUP2 SLOAD PUSH2 0xFF00 PUSH1 0xC0 DUP6 ADD MLOAD ISZERO ISZERO PUSH1 0x8 SHL AND SWAP1 PUSH1 0xFF PUSH3 0xFF0000 PUSH1 0xE0 DUP8 ADD MLOAD ISZERO ISZERO PUSH1 0x10 SHL AND SWAP4 AND SWAP1 PUSH3 0xFFFFFF NOT AND OR OR OR SWAP1 SSTORE PUSH2 0x100 DUP2 ADD MLOAD DUP1 MLOAD SWAP1 PUSH1 0x1 DUP1 PUSH1 0x40 SHL SUB DUP3 GT PUSH3 0xC96 JUMPI PUSH1 0x6 DUP5 ADD SLOAD PUSH1 0x1 DUP2 DUP2 SHR SWAP2 AND DUP1 ISZERO PUSH3 0xC8B JUMPI JUMPDEST PUSH1 0x20 DUP3 LT EQ PUSH3 0xC77 JUMPI PUSH1 0x1F DUP2 GT PUSH3 0xC2E JUMPI JUMPDEST POP PUSH1 0x20 SWAP1 PUSH1 0x1F DUP4 GT PUSH1 0x1 EQ PUSH3 0xBB8 JUMPI PUSH2 0x120 SWAP4 SWAP3 SWAP2 DUP7 SWAP2 DUP4 PUSH3 0xBAC JUMPI JUMPDEST POP POP DUP2 PUSH1 0x1 SHL SWAP2 PUSH1 0x0 NOT SWAP1 PUSH1 0x3 SHL SHR NOT AND OR PUSH1 0x6 DUP5 ADD SSTORE JUMPDEST ADD MLOAD DUP1 MLOAD SWAP1 PUSH1 0x1 PUSH1 0x1 PUSH1 0x40 SHL SUB DUP3 GT PUSH3 0xB98 JUMPI PUSH1 0x7 DUP4 ADD SLOAD PUSH1 0x1 DUP2 DUP2 SHR SWAP2 AND DUP1 ISZERO PUSH3 0xB8D JUMPI JUMPDEST PUSH1 0x20 DUP3 LT EQ PUSH3 0xB79 JUMPI PUSH1 0x1F DUP2 GT PUSH3 0xB30 JUMPI JUMPDEST POP PUSH1 0x20 SWAP1 PUSH1 0x1F DUP4 GT PUSH1 0x1 EQ PUSH3 0xABE JUMPI PUSH1 0x7 SWAP3 SWAP2 DUP6 SWAP2 DUP4 PUSH3 0xAB2 JUMPI JUMPDEST POP POP DUP2 PUSH1 0x1 SHL SWAP2 PUSH1 0x0 NOT SWAP1 PUSH1 0x3 SHL SHR NOT AND OR SWAP2 ADD SSTORE JUMPDEST PUSH1 0x1 PUSH1 0x1 PUSH1 0xA0 SHL SUB DUP4 AND DUP2 MSTORE PUSH1 0x7 PUSH1 0x20 MSTORE PUSH1 0x40 DUP2 KECCAK256 DUP1 SLOAD PUSH1 0xFF NOT AND PUSH1 0x1 OR SWAP1 SSTORE PUSH1 0x8 SLOAD PUSH9 0x10000000000000000 DUP2 LT ISZERO PUSH3 0xA9E JUMPI PUSH1 0x1 DUP2 ADD DUP1 PUSH1 0x8 SSTORE DUP2 LT ISZERO PUSH3 0xA8A JUMPI PUSH1 0x8 DUP3 MSTORE PUSH32 0xF3F7A9FE364FAAB93B216DA50A3214154F22A0A2B415B23A84C8169E8B636EE3 ADD DUP1 SLOAD PUSH1 0x1 PUSH1 0x1 PUSH1 0xA0 SHL SUB NOT AND PUSH1 0x1 PUSH1 0x1 PUSH1 0xA0 SHL SUB DUP6 DUP2 AND SWAP2 SWAP1 SWAP2 OR SWAP1 SWAP2 SSTORE DUP2 SLOAD PUSH1 0x40 MLOAD SWAP2 AND SWAP1 PUSH3 0x7E4 DUP2 PUSH3 0xF53 JUMP JUMPDEST PUSH1 0x9 DUP2 MSTORE PUSH9 0x14149154D251115395 PUSH1 0xBA SHL PUSH1 0x20 DUP3 ADD MSTORE DUP2 EXTCODESIZE ISZERO PUSH3 0xA86 JUMPI PUSH3 0x83D DUP4 SWAP3 DUP4 SWAP3 PUSH1 0x40 MLOAD SWAP5 DUP6 DUP1 SWAP5 DUP2 SWAP4 PUSH4 0x2560BE8D PUSH1 0xE2 SHL DUP4 MSTORE PUSH1 0x1 DUP1 PUSH1 0xA0 SHL SUB DUP13 AND PUSH1 0x4 DUP5 ADD MSTORE PUSH1 0x40 PUSH1 0x24 DUP5 ADD MSTORE PUSH1 0x44 DUP4 ADD SWAP1 PUSH3 0xFC9 JUMP JUMPDEST SUB SWAP3 GAS CALL DUP1 ISZERO PUSH3 0xA7B JUMPI SWAP1 DUP3 SWAP2 PUSH3 0xA63 JUMPI JUMPDEST POP POP PUSH1 0x1 DUP1 PUSH1 0xA0 SHL SUB PUSH1 0x4 SLOAD AND PUSH1 0x40 MLOAD PUSH1 0x20 DUP2 ADD SWAP1 PUSH1 0x1 DUP1 PUSH1 0x60 SHL SUB NOT DUP7 PUSH1 0x60 SHL AND DUP3 MSTORE TIMESTAMP PUSH1 0x34 DUP3 ADD MSTORE PUSH1 0x34 DUP2 MSTORE PUSH3 0x88A DUP2 PUSH3 0xF37 JUMP JUMPDEST MLOAD SWAP1 KECCAK256 PUSH1 0x1 DUP1 PUSH1 0xA0 SHL SUB PUSH1 0x5 SLOAD AND SWAP2 PUSH1 0x40 MLOAD SWAP3 PUSH14 0x20B23232B21036B2B6B132B91D1 PUSH1 0x95 SHL PUSH1 0x20 DUP6 ADD MSTORE DUP4 DUP7 MLOAD PUSH3 0x8CA DUP2 PUSH1 0x2E DUP5 ADD PUSH1 0x20 DUP12 ADD PUSH3 0xFA4 JUMP JUMPDEST DUP2 ADD SUB PUSH1 0xE DUP2 ADD DUP6 MSTORE SWAP3 PUSH1 0x1F NOT PUSH1 0x4D DUP6 ADD AND DUP6 ADD DUP1 DUP7 GT PUSH1 0x1 PUSH1 0x1 PUSH1 0x40 SHL SUB SWAP1 SWAP2 GT OR PUSH3 0xA4D JUMPI PUSH1 0x4D DUP5 ADD PUSH1 0x1F NOT AND DUP6 ADD PUSH1 0x40 MSTORE DUP3 EXTCODESIZE ISZERO PUSH3 0xA49 JUMPI PUSH4 0xD407663 PUSH1 0xE4 SHL PUSH1 0x4D DUP6 ADD PUSH1 0x1F NOT AND DUP7 ADD SWAP1 DUP2 MSTORE PUSH1 0x4 DUP2 ADD SWAP2 SWAP1 SWAP2 MSTORE PUSH1 0x24 DUP2 ADD SWAP2 SWAP1 SWAP2 MSTORE PUSH1 0x1 PUSH1 0x1 PUSH1 0xA0 SHL SUB DUP8 AND PUSH1 0x44 DUP3 ADD MSTORE PUSH1 0x64 DUP2 ADD DUP6 SWAP1 MSTORE PUSH1 0xE0 PUSH1 0x84 DUP3 ADD MSTORE PUSH1 0xE4 DUP2 ADD DUP6 SWAP1 MSTORE PUSH2 0x100 PUSH1 0xA4 DUP3 ADD MSTORE PUSH1 0xF PUSH2 0x104 DUP3 ADD MSTORE PUSH15 0x36B2B6B132B916B0B23234BA34B7B7 PUSH1 0x89 SHL PUSH2 0x124 DUP3 ADD MSTORE PUSH2 0x140 PUSH1 0xC4 DUP3 ADD MSTORE DUP5 SWAP2 DUP2 PUSH3 0x994 PUSH2 0x144 DUP3 ADD DUP8 PUSH3 0xFC9 JUMP JUMPDEST SUB SWAP1 DUP4 PUSH1 0x1F NOT PUSH1 0x4D DUP8 ADD AND DUP8 ADD SWAP2 GAS CALL DUP1 ISZERO PUSH3 0xA3E JUMPI PUSH3 0xA19 JUMPI JUMPDEST DUP5 PUSH32 0xC3F6CD842AFC7162589B0FF2AFB036E61A88D71B6CE813C0D273E7735AE4A383 PUSH3 0x9ED DUP7 PUSH1 0x40 MLOAD SWAP2 DUP3 SWAP2 PUSH1 0x60 DUP4 MSTORE PUSH1 0x60 DUP4 ADD SWAP1 PUSH3 0xFC9 JUMP JUMPDEST PUSH1 0x3 PUSH1 0x20 DUP4 ADD MSTORE TIMESTAMP PUSH1 0x40 DUP4 ADD MSTORE PUSH1 0x1 PUSH1 0x1 PUSH1 0xA0 SHL SUB SWAP1 SWAP5 AND SWAP4 SUB SWAP1 LOG2 PUSH1 0x40 MLOAD PUSH2 0x285E SWAP1 DUP2 PUSH3 0xFF1 DUP3 CODECOPY RETURN JUMPDEST DUP3 SWAP2 PUSH3 0xA2E SWAP2 PUSH1 0x4D ADD PUSH1 0x1F NOT AND ADD PUSH3 0xF23 JUMP JUMPDEST PUSH3 0xA3B JUMPI DUP1 DUP1 PUSH3 0x9B1 JUMP JUMPDEST DUP1 REVERT JUMPDEST PUSH1 0x40 MLOAD RETURNDATASIZE DUP6 DUP3 RETURNDATACOPY RETURNDATASIZE SWAP1 REVERT JUMPDEST DUP6 DUP1 REVERT JUMPDEST PUSH4 0x4E487B71 PUSH1 0xE0 SHL PUSH1 0x0 MSTORE PUSH1 0x41 PUSH1 0x4 MSTORE PUSH1 0x24 PUSH1 0x0 REVERT JUMPDEST PUSH3 0xA6E SWAP1 PUSH3 0xF23 JUMP JUMPDEST PUSH3 0xA3B JUMPI DUP1 CODESIZE PUSH3 0x851 JUMP JUMPDEST PUSH1 0x40 MLOAD RETURNDATASIZE DUP5 DUP3 RETURNDATACOPY RETURNDATASIZE SWAP1 REVERT JUMPDEST DUP3 DUP1 REVERT JUMPDEST PUSH4 0x4E487B71 PUSH1 0xE0 SHL DUP3 MSTORE PUSH1 0x32 PUSH1 0x4 MSTORE PUSH1 0x24 DUP3 REVERT JUMPDEST PUSH4 0x4E487B71 PUSH1 0xE0 SHL DUP3 MSTORE PUSH1 0x41 PUSH1 0x4 MSTORE PUSH1 0x24 DUP3 REVERT JUMPDEST ADD MLOAD SWAP1 POP CODESIZE DUP1 PUSH3 0x732 JUMP JUMPDEST SWAP1 PUSH1 0x7 DUP5 ADD DUP6 MSTORE PUSH1 0x20 DUP6 KECCAK256 SWAP2 DUP6 JUMPDEST PUSH1 0x1F NOT DUP6 AND DUP2 LT PUSH3 0xB17 JUMPI POP SWAP2 DUP4 SWAP2 PUSH1 0x1 SWAP4 PUSH1 0x7 SWAP6 PUSH1 0x1F NOT DUP2 AND LT PUSH3 0xAFD JUMPI JUMPDEST POP POP POP DUP2 SHL ADD SWAP2 ADD SSTORE PUSH3 0x748 JUMP JUMPDEST ADD MLOAD PUSH1 0x0 NOT PUSH1 0xF8 DUP5 PUSH1 0x3 SHL AND SHR NOT AND SWAP1 SSTORE CODESIZE DUP1 DUP1 PUSH3 0xAEE JUMP JUMPDEST SWAP2 SWAP3 PUSH1 0x20 PUSH1 0x1 DUP2 SWAP3 DUP7 DUP6 ADD MLOAD DUP2 SSTORE ADD SWAP5 ADD SWAP3 ADD PUSH3 0xACC JUMP JUMPDEST PUSH1 0x7 DUP5 ADD DUP6 MSTORE PUSH1 0x20 DUP6 KECCAK256 PUSH1 0x1F DUP5 ADD PUSH1 0x5 SHR DUP2 ADD PUSH1 0x20 DUP6 LT PUSH3 0xB71 JUMPI JUMPDEST PUSH1 0x1F DUP4 ADD PUSH1 0x5 SHR DUP3 ADD DUP2 LT PUSH3 0xB65 JUMPI POP POP PUSH3 0x715 JUMP JUMPDEST DUP7 DUP2 SSTORE PUSH1 0x1 ADD PUSH3 0xB4D JUMP JUMPDEST POP DUP1 PUSH3 0xB4D JUMP JUMPDEST PUSH4 0x4E487B71 PUSH1 0xE0 SHL DUP6 MSTORE PUSH1 0x22 PUSH1 0x4 MSTORE PUSH1 0x24 DUP6 REVERT JUMPDEST SWAP1 PUSH1 0x7F AND SWAP1 PUSH3 0x701 JUMP JUMPDEST PUSH4 0x4E487B71 PUSH1 0xE0 SHL DUP5 MSTORE PUSH1 0x41 PUSH1 0x4 MSTORE PUSH1 0x24 DUP5 REVERT JUMPDEST ADD MLOAD SWAP1 POP CODESIZE DUP1 PUSH3 0x6C1 JUMP JUMPDEST SWAP1 PUSH1 0x6 DUP6 ADD DUP7 MSTORE PUSH1 0x20 DUP7 KECCAK256 SWAP2 DUP7 JUMPDEST PUSH1 0x1F NOT DUP6 AND DUP2 LT PUSH3 0xC15 JUMPI POP SWAP2 DUP4 SWAP2 PUSH1 0x1 SWAP4 PUSH2 0x120 SWAP7 SWAP6 PUSH1 0x1F NOT DUP2 AND LT PUSH3 0xBFB JUMPI JUMPDEST POP POP POP DUP2 SHL ADD PUSH1 0x6 DUP5 ADD SSTORE PUSH3 0x6D9 JUMP JUMPDEST ADD MLOAD PUSH1 0x0 NOT PUSH1 0xF8 DUP5 PUSH1 0x3 SHL AND SHR NOT AND SWAP1 SSTORE CODESIZE DUP1 DUP1 PUSH3 0xBEA JUMP JUMPDEST SWAP2 SWAP3 PUSH1 0x20 PUSH1 0x1 DUP2 SWAP3 DUP7 DUP6 ADD MLOAD DUP2 SSTORE ADD SWAP5 ADD SWAP3 ADD PUSH3 0xBC6 JUMP JUMPDEST PUSH1 0x6 DUP6 ADD DUP7 MSTORE PUSH1 0x20 DUP7 KECCAK256 PUSH1 0x1F DUP5 ADD PUSH1 0x5 SHR DUP2 ADD PUSH1 0x20 DUP6 LT PUSH3 0xC6F JUMPI JUMPDEST PUSH1 0x1F DUP4 ADD PUSH1 0x5 SHR DUP3 ADD DUP2 LT PUSH3 0xC63 JUMPI POP POP PUSH3 0x6A2 JUMP JUMPDEST DUP8 DUP2 SSTORE PUSH1 0x1 ADD PUSH3 0xC4B JUMP JUMPDEST POP DUP1 PUSH3 0xC4B JUMP JUMPDEST PUSH4 0x4E487B71 PUSH1 0xE0 SHL DUP7 MSTORE PUSH1 0x22 PUSH1 0x4 MSTORE PUSH1 0x24 DUP7 REVERT JUMPDEST SWAP1 PUSH1 0x7F AND SWAP1 PUSH3 0x68E JUMP JUMPDEST PUSH4 0x4E487B71 PUSH1 0xE0 SHL DUP6 MSTORE PUSH1 0x41 PUSH1 0x4 MSTORE PUSH1 0x24 DUP6 REVERT JUMPDEST PUSH4 0x4E487B71 PUSH1 0xE0 SHL DUP5 MSTORE PUSH1 0x21 PUSH1 0x4 MSTORE PUSH1 0x24 DUP5 REVERT JUMPDEST ADD MLOAD SWAP1 POP CODESIZE DUP1 PUSH3 0x5E5 JUMP JUMPDEST SWAP3 POP PUSH1 0x2 DUP6 ADD DUP7 MSTORE PUSH1 0x20 DUP7 KECCAK256 SWAP1 DUP7 SWAP4 JUMPDEST PUSH1 0x1F NOT DUP5 AND DUP6 LT PUSH3 0xD22 JUMPI PUSH1 0x1 SWAP5 POP DUP4 PUSH1 0x1F NOT DUP2 AND LT PUSH3 0xD08 JUMPI JUMPDEST POP POP POP DUP2 SHL ADD PUSH1 0x2 DUP4 ADD SSTORE PUSH3 0x5FD JUMP JUMPDEST ADD MLOAD PUSH1 0x0 NOT PUSH1 0xF8 DUP5 PUSH1 0x3 SHL AND SHR NOT AND SWAP1 SSTORE CODESIZE DUP1 DUP1 PUSH3 0xCF7 JUMP JUMPDEST DUP2 DUP2 ADD MLOAD DUP4 SSTORE PUSH1 0x20 SWAP5 DUP6 ADD SWAP5 PUSH1 0x1 SWAP1 SWAP4 ADD SWAP3 SWAP1 SWAP2 ADD SWAP1 PUSH3 0xCDA JUMP JUMPDEST SWAP1 SWAP2 POP PUSH1 0x2 DUP6 ADD DUP7 MSTORE PUSH1 0x20 DUP7 KECCAK256 PUSH1 0x1F DUP5 ADD PUSH1 0x5 SHR DUP2 ADD PUSH1 0x20 DUP6 LT PUSH3 0xD8B JUMPI JUMPDEST SWAP1 DUP5 SWAP4 SWAP3 SWAP2 JUMPDEST PUSH1 0x1F DUP4 ADD PUSH1 0x5 SHR DUP3 ADD DUP2 LT PUSH3 0xD7C JUMPI POP POP PUSH3 0x5CD JUMP JUMPDEST DUP9 DUP2 SSTORE DUP6 SWAP5 POP PUSH1 0x1 ADD PUSH3 0xD64 JUMP JUMPDEST POP DUP1 PUSH3 0xD5E JUMP JUMPDEST SWAP1 PUSH1 0x7F AND SWAP1 PUSH3 0x5B6 JUMP JUMPDEST ADD MLOAD SWAP1 POP CODESIZE DUP1 PUSH3 0x573 JUMP JUMPDEST SWAP3 POP PUSH1 0x1 DUP6 ADD DUP7 MSTORE PUSH1 0x20 DUP7 KECCAK256 SWAP1 DUP7 SWAP4 JUMPDEST PUSH1 0x1F NOT DUP5 AND DUP6 LT PUSH3 0xE02 JUMPI PUSH1 0x1 SWAP5 POP DUP4 PUSH1 0x1F NOT DUP2 AND LT PUSH3 0xDE8 JUMPI JUMPDEST POP POP POP DUP2 SHL ADD PUSH1 0x1 DUP4 ADD SSTORE PUSH3 0x58B JUMP JUMPDEST ADD MLOAD PUSH1 0x0 NOT PUSH1 0xF8 DUP5 PUSH1 0x3 SHL AND SHR NOT AND SWAP1 SSTORE CODESIZE DUP1 DUP1 PUSH3 0xDD7 JUMP JUMPDEST DUP2 DUP2 ADD MLOAD DUP4 SSTORE PUSH1 0x20 SWAP5 DUP6 ADD SWAP5 PUSH1 0x1 SWAP1 SWAP4 ADD SWAP3 SWAP1 SWAP2 ADD SWAP1 PUSH3 0xDBA JUMP JUMPDEST SWAP1 SWAP2 POP PUSH1 0x1 DUP6 ADD DUP7 MSTORE PUSH1 0x20 DUP7 KECCAK256 PUSH1 0x1F DUP5 ADD PUSH1 0x5 SHR DUP2 ADD PUSH1 0x20 DUP6 LT PUSH3 0xE6B JUMPI JUMPDEST SWAP1 DUP5 SWAP4 SWAP3 SWAP2 JUMPDEST PUSH1 0x1F DUP4 ADD PUSH1 0x5 SHR DUP3 ADD DUP2 LT PUSH3 0xE5C JUMPI POP POP PUSH3 0x55B JUMP JUMPDEST DUP9 DUP2 SSTORE DUP6 SWAP5 POP PUSH1 0x1 ADD PUSH3 0xE44 JUMP JUMPDEST POP DUP1 PUSH3 0xE3E JUMP JUMPDEST SWAP1 PUSH1 0x7F AND SWAP1 PUSH3 0x544 JUMP JUMPDEST PUSH1 0x40 MLOAD PUSH3 0x461BCD PUSH1 0xE5 SHL DUP2 MSTORE PUSH1 0x20 PUSH1 0x4 DUP3 ADD MSTORE PUSH1 0x10 PUSH1 0x24 DUP3 ADD MSTORE PUSH16 0x20B63932B0B23C90309036B2B6B132B9 PUSH1 0x81 SHL PUSH1 0x44 DUP3 ADD MSTORE PUSH1 0x64 SWAP1 REVERT JUMPDEST PUSH3 0xEC1 SWAP1 PUSH3 0xF23 JUMP JUMPDEST CODESIZE PUSH3 0x3B7 JUMP JUMPDEST SWAP3 SWAP6 POP SWAP3 PUSH1 0x1 SWAP2 SWAP5 SWAP7 POP PUSH1 0x20 PUSH3 0xEEC DUP2 SWAP3 PUSH2 0x1A3 NOT DUP12 DUP3 SUB ADD DUP7 MSTORE DUP9 MLOAD PUSH3 0xFC9 JUMP JUMPDEST SWAP7 ADD SWAP3 ADD SWAP3 ADD SWAP3 DUP8 SWAP6 SWAP4 DUP8 SWAP6 SWAP4 PUSH3 0x38A JUMP JUMPDEST DUP1 PUSH1 0x60 PUSH1 0x20 DUP1 SWAP4 DUP7 ADD ADD MSTORE ADD PUSH3 0x22F JUMP JUMPDEST POP PUSH1 0x40 MLOAD SWAP1 RETURNDATASIZE SWAP1 DUP3 RETURNDATACOPY RETURNDATASIZE SWAP1 REVERT JUMPDEST PUSH1 0x0 DUP1 REVERT JUMPDEST PUSH1 0x1 PUSH1 0x1 PUSH1 0x40 SHL SUB DUP2 GT PUSH3 0xA4D JUMPI PUSH1 0x40 MSTORE JUMP JUMPDEST PUSH1 0x60 DUP2 ADD SWAP1 DUP2 LT PUSH1 0x1 PUSH1 0x1 PUSH1 0x40 SHL SUB DUP3 GT OR PUSH3 0xA4D JUMPI PUSH1 0x40 MSTORE JUMP JUMPDEST PUSH1 0x40 DUP2 ADD SWAP1 DUP2 LT PUSH1 0x1 PUSH1 0x1 PUSH1 0x40 SHL SUB DUP3 GT OR PUSH3 0xA4D JUMPI PUSH1 0x40 MSTORE JUMP JUMPDEST DUP1 MLOAD ISZERO PUSH3 0xF7D JUMPI PUSH1 0x20 ADD SWAP1 JUMP JUMPDEST PUSH4 0x4E487B71 PUSH1 0xE0 SHL PUSH1 0x0 MSTORE PUSH1 0x32 PUSH1 0x4 MSTORE PUSH1 0x24 PUSH1 0x0 REVERT JUMPDEST DUP1 MLOAD PUSH1 0x1 LT ISZERO PUSH3 0xF7D JUMPI PUSH1 0x40 ADD SWAP1 JUMP JUMPDEST PUSH1 0x0 JUMPDEST DUP4 DUP2 LT PUSH3 0xFB8 JUMPI POP POP PUSH1 0x0 SWAP2 ADD MSTORE JUMP JUMPDEST DUP2 DUP2 ADD MLOAD DUP4 DUP3 ADD MSTORE PUSH1 0x20 ADD PUSH3 0xFA7 JUMP JUMPDEST SWAP1 PUSH1 0x20 SWAP2 PUSH3 0xFE4 DUP2 MLOAD DUP1 SWAP3 DUP2 DUP6 MSTORE DUP6 DUP1 DUP7 ADD SWAP2 ADD PUSH3 0xFA4 JUMP JUMPDEST PUSH1 0x1F ADD PUSH1 0x1F NOT AND ADD ADD SWAP1 JUMP INVALID PUSH1 0x80 DUP1 PUSH1 0x40 MSTORE PUSH1 0x4 CALLDATASIZE LT ISZERO PUSH2 0x13 JUMPI PUSH1 0x0 DUP1 REVERT JUMPDEST PUSH1 0x0 SWAP1 DUP2 CALLDATALOAD PUSH1 0xE0 SHR SWAP1 DUP2 PUSH4 0x7A57B11 EQ PUSH2 0x22A9 JUMPI POP DUP1 PUSH4 0x8AE4B0C EQ PUSH2 0x21A6 JUMPI DUP1 PUSH4 0x1CAA449C EQ PUSH2 0x217D JUMPI DUP1 PUSH4 0x2A017FDC EQ PUSH2 0x2161 JUMPI DUP1 PUSH4 0x2ADA2596 EQ PUSH2 0x1F6D JUMPI DUP1 PUSH4 0x4E9E55BB EQ PUSH2 0x1BE9 JUMPI DUP1 PUSH4 0x595C6A67 EQ PUSH2 0x1BC0 JUMPI DUP1 PUSH4 0x5FB6658A EQ PUSH2 0x1ABB JUMPI DUP1 PUSH4 0x66CE2CF8 EQ PUSH2 0x15A3 JUMPI DUP1 PUSH4 0x70C3B424 EQ PUSH2 0x157C JUMPI DUP1 PUSH4 0x7BE700BA EQ PUSH2 0x1277 JUMPI DUP1 PUSH4 0x7C0F6B35 EQ PUSH2 0x11B1 JUMPI DUP1 PUSH4 0x7F097010 EQ PUSH2 0x1193 JUMPI DUP1 PUSH4 0x923FA334 EQ PUSH2 0x838 JUMPI DUP1 PUSH4 0xA230C524 EQ PUSH2 0x7F9 JUMPI DUP1 PUSH4 0xCC4E6299 EQ PUSH2 0x7B5 JUMPI DUP1 PUSH4 0xEFE540A3 EQ PUSH2 0x350 JUMPI DUP1 PUSH4 0xF851A440 EQ PUSH2 0x327 JUMPI DUP1 PUSH4 0xF9FEED50 EQ PUSH2 0x30B JUMPI DUP1 PUSH4 0xFCE1CCCA EQ PUSH2 0x2E2 JUMPI DUP1 PUSH4 0xFF5989BD EQ PUSH2 0x2B9 JUMPI PUSH4 0xFFC4BFDE EQ PUSH2 0x113 JUMPI PUSH1 0x0 DUP1 REVERT JUMPDEST CALLVALUE PUSH2 0x2B6 JUMPI DUP1 PUSH1 0x3 NOT CALLDATASIZE ADD SLT PUSH2 0x2B6 JUMPI DUP1 DUP1 PUSH1 0x8 SWAP1 PUSH1 0x8 SLOAD SWAP3 PUSH1 0x1 DUP1 PUSH1 0xA0 SHL SUB SWAP1 PUSH1 0x1 SWAP6 DUP3 PUSH1 0x1 SLOAD AND PUSH1 0x40 MLOAD SWAP6 DUP7 SWAP2 PUSH4 0x1A5007DD PUSH1 0xE0 SHL DUP4 MSTORE DUP3 PUSH1 0x4 PUSH1 0x20 SWAP5 DUP6 SWAP4 GAS STATICCALL SWAP5 DUP6 ISZERO PUSH2 0x2AB JUMPI DUP7 SWAP6 PUSH2 0x27B JUMPI JUMPDEST PUSH1 0x4 SWAP8 POP DUP3 DUP2 DUP9 SLOAD AND PUSH1 0x40 MLOAD SWAP10 DUP11 DUP1 SWAP3 PUSH4 0x18160DDD PUSH1 0xE0 SHL DUP3 MSTORE GAS STATICCALL SWAP8 DUP9 ISZERO PUSH2 0x270 JUMPI DUP8 SWAP9 PUSH2 0x23C JUMPI JUMPDEST POP DUP7 JUMPDEST DUP10 DUP2 LT PUSH2 0x1BE JUMPI POP POP POP PUSH1 0xC0 SWAP8 POP PUSH1 0x40 MLOAD SWAP7 DUP8 MSTORE DUP7 ADD MSTORE PUSH1 0x40 DUP6 ADD MSTORE PUSH1 0x60 DUP5 ADD MSTORE PUSH1 0x80 DUP4 ADD MSTORE PUSH1 0xA0 DUP3 ADD MSTORE RETURN JUMPDEST DUP1 DUP3 PUSH2 0x1CA DUP14 SWAP4 PUSH2 0x2541 JUMP JUMPDEST SWAP2 SWAP1 SLOAD PUSH1 0x3 SWAP3 DUP4 SHL SHR AND DUP11 MSTORE PUSH1 0x40 PUSH1 0x6 DUP1 DUP9 MSTORE PUSH1 0xFF SWAP3 DUP4 DUP14 PUSH1 0x5 SWAP5 DUP6 SWAP2 KECCAK256 ADD SLOAD AND PUSH2 0x229 JUMPI JUMPDEST DUP7 SWAP1 PUSH2 0x1FB DUP7 PUSH2 0x2541 JUMP JUMPDEST SWAP1 SLOAD SWAP2 SHL SHR AND DUP13 MSTORE DUP8 MSTORE PUSH1 0x40 DUP12 KECCAK256 ADD SLOAD DUP6 SHR AND PUSH2 0x219 JUMPI JUMPDEST ADD PUSH2 0x191 JUMP JUMPDEST SWAP6 PUSH2 0x223 SWAP1 PUSH2 0x274B JUMP JUMPDEST SWAP6 PUSH2 0x213 JUMP JUMPDEST SWAP9 PUSH2 0x234 DUP8 SWAP2 PUSH2 0x274B JUMP JUMPDEST SWAP10 SWAP1 POP PUSH2 0x1F0 JUMP JUMPDEST SWAP1 SWAP8 POP DUP3 DUP2 DUP2 RETURNDATASIZE DUP4 GT PUSH2 0x269 JUMPI JUMPDEST PUSH2 0x254 DUP2 DUP4 PUSH2 0x23BA JUMP JUMPDEST DUP2 ADD SUB SLT PUSH2 0x264 JUMPI MLOAD SWAP7 CODESIZE PUSH2 0x18E JUMP JUMPDEST PUSH1 0x0 DUP1 REVERT JUMPDEST POP RETURNDATASIZE PUSH2 0x24A JUMP JUMPDEST PUSH1 0x40 MLOAD RETURNDATASIZE DUP10 DUP3 RETURNDATACOPY RETURNDATASIZE SWAP1 REVERT JUMPDEST SWAP5 POP DUP2 DUP8 DUP2 RETURNDATASIZE DUP4 GT PUSH2 0x2A4 JUMPI JUMPDEST PUSH2 0x292 DUP2 DUP4 PUSH2 0x23BA JUMP JUMPDEST DUP2 ADD SUB SLT PUSH2 0x264 JUMPI PUSH1 0x4 SWAP7 MLOAD SWAP5 PUSH2 0x164 JUMP JUMPDEST POP RETURNDATASIZE PUSH2 0x288 JUMP JUMPDEST PUSH1 0x40 MLOAD RETURNDATASIZE DUP9 DUP3 RETURNDATACOPY RETURNDATASIZE SWAP1 REVERT JUMPDEST DUP1 REVERT JUMPDEST POP CALLVALUE PUSH2 0x2B6 JUMPI DUP1 PUSH1 0x3 NOT CALLDATASIZE ADD SLT PUSH2 0x2B6 JUMPI PUSH1 0x2 SLOAD PUSH1 0x40 MLOAD PUSH1 0x1 PUSH1 0x1 PUSH1 0xA0 SHL SUB SWAP1 SWAP2 AND DUP2 MSTORE PUSH1 0x20 SWAP1 RETURN JUMPDEST POP CALLVALUE PUSH2 0x2B6 JUMPI DUP1 PUSH1 0x3 NOT CALLDATASIZE ADD SLT PUSH2 0x2B6 JUMPI PUSH1 0x1 SLOAD PUSH1 0x40 MLOAD PUSH1 0x1 PUSH1 0x1 PUSH1 0xA0 SHL SUB SWAP1 SWAP2 AND DUP2 MSTORE PUSH1 0x20 SWAP1 RETURN JUMPDEST POP CALLVALUE PUSH2 0x2B6 JUMPI DUP1 PUSH1 0x3 NOT CALLDATASIZE ADD SLT PUSH2 0x2B6 JUMPI PUSH1 0x20 PUSH1 0x40 MLOAD PUSH1 0x64 DUP2 MSTORE RETURN JUMPDEST POP CALLVALUE PUSH2 0x2B6 JUMPI DUP1 PUSH1 0x3 NOT CALLDATASIZE ADD SLT PUSH2 0x2B6 JUMPI PUSH1 0x5 SLOAD PUSH1 0x40 MLOAD PUSH1 0x1 PUSH1 0x1 PUSH1 0xA0 SHL SUB SWAP1 SWAP2 AND DUP2 MSTORE PUSH1 0x20 SWAP1 RETURN JUMPDEST POP CALLVALUE PUSH2 0x2B6 JUMPI PUSH2 0x140 CALLDATASIZE PUSH1 0x3 NOT ADD SLT PUSH2 0x2B6 JUMPI CALLDATASIZE PUSH1 0x23 SLT ISZERO PUSH2 0x264 JUMPI PUSH1 0x40 MLOAD PUSH2 0x378 DUP2 PUSH2 0x2383 JUMP JUMPDEST DUP1 CALLDATASIZE PUSH2 0x104 GT PUSH2 0x264 JUMPI PUSH1 0x4 SWAP1 JUMPDEST PUSH2 0x104 DUP3 LT PUSH2 0x7A5 JUMPI POP POP PUSH2 0x104 CALLDATALOAD PUSH1 0x1 PUSH1 0x1 PUSH1 0x40 SHL SUB SWAP2 DUP3 DUP3 GT PUSH2 0x732 JUMPI CALLDATASIZE PUSH1 0x23 DUP4 ADD SLT ISZERO PUSH2 0x732 JUMPI DUP2 PUSH1 0x4 ADD CALLDATALOAD SWAP2 DUP4 DUP4 GT PUSH2 0x78F JUMPI DUP3 PUSH1 0x5 SHL PUSH1 0x40 MLOAD SWAP4 PUSH2 0x3D2 PUSH1 0x20 DUP4 ADD DUP7 PUSH2 0x23BA JUMP JUMPDEST DUP5 MSTORE PUSH1 0x24 PUSH1 0x20 DUP6 ADD SWAP2 DUP4 ADD ADD SWAP2 CALLDATASIZE DUP4 GT PUSH2 0x78B JUMPI SWAP1 PUSH1 0x24 DUP8 SWAP5 SWAP4 SWAP3 ADD SWAP1 JUMPDEST DUP3 DUP3 LT PUSH2 0x778 JUMPI POP POP POP PUSH2 0x124 CALLDATALOAD SWAP4 DUP5 GT PUSH2 0x6FC JUMPI PUSH1 0x20 PUSH2 0x418 PUSH2 0x4B8 SWAP6 CALLDATASIZE SWAP1 PUSH1 0x4 ADD PUSH2 0x24EB JUMP JUMPDEST SWAP4 DUP5 SWAP3 CALLER DUP6 MSTORE PUSH1 0x7 DUP4 MSTORE PUSH2 0x432 PUSH1 0xFF PUSH1 0x40 DUP8 KECCAK256 SLOAD AND PUSH2 0x26F3 JUMP JUMPDEST PUSH2 0x4A4 DUP6 PUSH1 0x40 MLOAD DUP6 DUP2 ADD SWAP1 CALLER PUSH1 0x60 SHL DUP3 MSTORE PUSH2 0x473 PUSH1 0x54 DUP3 DUP10 PUSH2 0x45F PUSH1 0x34 DUP14 DUP2 SWAP15 MLOAD SWAP4 DUP5 SWAP3 DUP7 ADD SWAP2 ADD PUSH2 0x2480 JUMP JUMPDEST DUP2 ADD TIMESTAMP DUP13 DUP3 ADD MSTORE SUB DUP11 DUP2 ADD DUP5 MSTORE ADD DUP3 PUSH2 0x23BA JUMP JUMPDEST MLOAD SWAP1 KECCAK256 SWAP3 PUSH1 0x1 DUP1 PUSH1 0xA0 SHL SUB PUSH1 0x3 SLOAD AND SWAP4 PUSH2 0x4CB PUSH1 0x40 MLOAD SWAP12 DUP13 SWAP8 DUP9 SWAP7 DUP8 SWAP6 PUSH4 0x4370A39B PUSH1 0xE0 SHL DUP8 MSTORE PUSH1 0x4 DUP8 ADD SWAP1 PUSH2 0x2697 JUMP JUMPDEST PUSH2 0x160 PUSH2 0x104 DUP7 ADD MSTORE PUSH2 0x164 DUP6 ADD SWAP1 PUSH2 0x26BF JUMP JUMPDEST DUP4 DUP2 SUB PUSH1 0x3 NOT ADD PUSH2 0x124 DUP6 ADD MSTORE DUP12 PUSH2 0x24A3 JUMP JUMPDEST SWAP1 PUSH2 0x144 DUP4 ADD MSTORE SUB SWAP3 GAS CALL SWAP4 DUP5 ISZERO PUSH2 0x76D JUMPI DUP3 SWAP5 PUSH2 0x736 JUMPI JUMPDEST POP CALLER DUP3 MSTORE PUSH1 0x6 PUSH1 0x20 MSTORE PUSH1 0x40 DUP3 KECCAK256 PUSH1 0x5 ADD DUP1 SLOAD PUSH2 0xFF00 NOT AND PUSH2 0x100 SWAP1 DUP2 OR SWAP1 SWAP2 SSTORE DUP3 SLOAD SWAP1 SWAP2 SWAP1 PUSH1 0x1 PUSH1 0x1 PUSH1 0xA0 SHL SUB AND DUP1 EXTCODESIZE ISZERO PUSH2 0x732 JUMPI DUP4 DUP1 SWAP2 PUSH1 0xA4 PUSH1 0x40 MLOAD DUP1 SWAP5 DUP2 SWAP4 PUSH4 0x34FF2619 PUSH1 0xE2 SHL DUP4 MSTORE CALLER PUSH1 0x4 DUP5 ADD MSTORE PUSH1 0x1E PUSH1 0x24 DUP5 ADD MSTORE PUSH1 0x60 PUSH1 0x44 DUP5 ADD MSTORE PUSH1 0x13 PUSH1 0x64 DUP5 ADD MSTORE PUSH19 0x2D2590283937B7B31029BAB136B4B9B9B4B7B7 PUSH1 0x69 SHL PUSH1 0x84 DUP5 ADD MSTORE GAS CALL SWAP1 DUP2 ISZERO PUSH2 0x727 JUMPI DUP5 SWAP2 PUSH2 0x70F JUMPI JUMPDEST POP POP PUSH1 0x1 DUP1 PUSH1 0xA0 SHL SUB PUSH1 0x4 SLOAD AND SWAP1 PUSH1 0x40 MLOAD PUSH1 0x20 DUP2 ADD SWAP1 CALLER PUSH1 0x60 SHL DUP3 MSTORE PUSH7 0x3D35B83937B7B3 PUSH1 0xC9 SHL DUP4 DUP3 ADD MSTORE TIMESTAMP PUSH1 0x3B DUP3 ADD MSTORE PUSH1 0x3B DUP2 MSTORE PUSH2 0x5B4 DUP2 PUSH2 0x234D JUMP JUMPDEST MLOAD SWAP1 KECCAK256 PUSH2 0x60B PUSH1 0x1 DUP1 PUSH1 0xA0 SHL SUB PUSH1 0x3 SLOAD AND SWAP3 PUSH1 0x40 MLOAD DUP1 SWAP9 PUSH20 0x2D2590383937B7B31039BAB136B4BA3A32B21D1 PUSH1 0x65 SHL PUSH1 0x20 DUP4 ADD MSTORE PUSH2 0x5FB DUP2 MLOAD DUP1 SWAP3 PUSH1 0x20 DUP7 DUP7 ADD SWAP2 ADD PUSH2 0x2480 JUMP JUMPDEST DUP2 ADD SUB PUSH1 0x14 DUP2 ADD DUP10 MSTORE ADD DUP8 PUSH2 0x23BA JUMP JUMPDEST DUP3 EXTCODESIZE ISZERO PUSH2 0x70B JUMPI DUP5 SWAP1 PUSH2 0x684 PUSH1 0x40 MLOAD SWAP8 DUP9 SWAP7 DUP8 SWAP6 DUP7 SWAP5 PUSH4 0xD407663 PUSH1 0xE4 SHL DUP7 MSTORE PUSH1 0x4 DUP7 ADD MSTORE CALLER PUSH1 0x24 DUP7 ADD MSTORE PUSH1 0x44 DUP6 ADD MSTORE DUP5 PUSH1 0x64 DUP6 ADD MSTORE PUSH1 0xE0 PUSH1 0x84 DUP6 ADD MSTORE DUP5 PUSH1 0xE4 DUP6 ADD MSTORE PUSH1 0xA4 DUP5 ADD MSTORE PUSH2 0x672 PUSH2 0x104 DUP5 ADD PUSH1 0x40 SWAP1 PUSH1 0x3 DUP2 MSTORE PUSH3 0x6B7963 PUSH1 0xE8 SHL PUSH1 0x20 DUP3 ADD MSTORE ADD SWAP1 JUMP JUMPDEST DUP4 DUP2 SUB PUSH1 0x3 NOT ADD PUSH1 0xC4 DUP6 ADD MSTORE SWAP1 PUSH2 0x24A3 JUMP JUMPDEST SUB SWAP3 GAS CALL DUP1 ISZERO PUSH2 0x700 JUMPI PUSH2 0x6E8 JUMPI JUMPDEST PUSH1 0x20 DUP3 PUSH1 0x40 MLOAD PUSH1 0x40 DUP2 MSTORE PUSH1 0x8 PUSH1 0x40 DUP3 ADD MSTORE PUSH8 0x2D2590283937B7B3 PUSH1 0xC1 SHL PUSH1 0x60 DUP3 ADD MSTORE TIMESTAMP DUP4 DUP3 ADD MSTORE PUSH32 0x64CD12011FA3EA9D6004C30F53DEE41172F5AF5BAD7E741BBD40259705CF96EA PUSH1 0x80 CALLER SWAP3 LOG2 PUSH1 0x40 MLOAD SWAP1 DUP2 MSTORE RETURN JUMPDEST PUSH2 0x6F2 DUP4 SWAP2 PUSH2 0x233A JUMP JUMPDEST PUSH2 0x6FC JUMPI DUP2 PUSH2 0x693 JUMP JUMPDEST POP DUP1 REVERT JUMPDEST PUSH1 0x40 MLOAD RETURNDATASIZE DUP6 DUP3 RETURNDATACOPY RETURNDATASIZE SWAP1 REVERT JUMPDEST DUP5 DUP1 REVERT JUMPDEST PUSH2 0x718 SWAP1 PUSH2 0x233A JUMP JUMPDEST PUSH2 0x723 JUMPI DUP3 CODESIZE PUSH2 0x576 JUMP JUMPDEST DUP3 DUP1 REVERT JUMPDEST PUSH1 0x40 MLOAD RETURNDATASIZE DUP7 DUP3 RETURNDATACOPY RETURNDATASIZE SWAP1 REVERT JUMPDEST DUP4 DUP1 REVERT JUMPDEST SWAP2 POP SWAP3 POP PUSH1 0x20 DUP2 RETURNDATASIZE PUSH1 0x20 GT PUSH2 0x765 JUMPI JUMPDEST DUP2 PUSH2 0x753 PUSH1 0x20 SWAP4 DUP4 PUSH2 0x23BA JUMP JUMPDEST DUP2 ADD SUB SLT PUSH2 0x264 JUMPI DUP4 SWAP1 MLOAD SWAP3 CODESIZE PUSH2 0x4E4 JUMP JUMPDEST RETURNDATASIZE SWAP2 POP PUSH2 0x746 JUMP JUMPDEST PUSH1 0x40 MLOAD RETURNDATASIZE DUP5 DUP3 RETURNDATACOPY RETURNDATASIZE SWAP1 REVERT JUMPDEST DUP2 CALLDATALOAD DUP2 MSTORE DUP8 SWAP5 POP PUSH1 0x20 SWAP2 DUP3 ADD SWAP2 ADD PUSH2 0x3F0 JUMP JUMPDEST DUP7 DUP1 REVERT JUMPDEST PUSH4 0x4E487B71 PUSH1 0xE0 SHL PUSH1 0x0 MSTORE PUSH1 0x41 PUSH1 0x4 MSTORE PUSH1 0x24 PUSH1 0x0 REVERT JUMPDEST DUP2 CALLDATALOAD DUP2 MSTORE PUSH1 0x20 SWAP2 DUP3 ADD SWAP2 ADD PUSH2 0x386 JUMP JUMPDEST POP CALLVALUE PUSH2 0x2B6 JUMPI PUSH1 0x20 CALLDATASIZE PUSH1 0x3 NOT ADD SLT PUSH2 0x2B6 JUMPI PUSH1 0x4 CALLDATALOAD SWAP1 PUSH1 0x8 SLOAD DUP3 LT ISZERO PUSH2 0x2B6 JUMPI PUSH1 0x20 PUSH2 0x7E0 DUP4 PUSH2 0x2541 JUMP JUMPDEST SWAP1 SLOAD PUSH1 0x40 MLOAD PUSH1 0x3 SWAP3 SWAP1 SWAP3 SHL SHR PUSH1 0x1 PUSH1 0x1 PUSH1 0xA0 SHL SUB AND DUP2 MSTORE RETURN JUMPDEST POP CALLVALUE PUSH2 0x2B6 JUMPI PUSH1 0x20 CALLDATASIZE PUSH1 0x3 NOT ADD SLT PUSH2 0x2B6 JUMPI PUSH1 0x20 SWAP1 PUSH1 0xFF SWAP1 PUSH1 0x40 SWAP1 PUSH1 0x1 PUSH1 0x1 PUSH1 0xA0 SHL SUB PUSH2 0x824 PUSH2 0x22CE JUMP JUMPDEST AND DUP2 MSTORE PUSH1 0x7 DUP5 MSTORE KECCAK256 SLOAD AND PUSH1 0x40 MLOAD SWAP1 ISZERO ISZERO DUP2 MSTORE RETURN JUMPDEST POP CALLVALUE PUSH2 0x2B6 JUMPI PUSH1 0xC0 CALLDATASIZE PUSH1 0x3 NOT ADD SLT PUSH2 0x2B6 JUMPI PUSH2 0x852 PUSH2 0x22CE JUMP JUMPDEST PUSH1 0x24 CALLDATALOAD PUSH1 0x1 PUSH1 0x1 PUSH1 0x40 SHL SUB DUP2 GT PUSH2 0x723 JUMPI PUSH2 0x871 SWAP1 CALLDATASIZE SWAP1 PUSH1 0x4 ADD PUSH2 0x24EB JUMP JUMPDEST PUSH1 0x44 CALLDATALOAD PUSH1 0x1 PUSH1 0x1 PUSH1 0x40 SHL SUB DUP2 GT PUSH2 0x732 JUMPI PUSH2 0x890 SWAP1 CALLDATASIZE SWAP1 PUSH1 0x4 ADD PUSH2 0x24EB JUMP JUMPDEST PUSH1 0x4 PUSH1 0x64 CALLDATALOAD LT ISZERO PUSH2 0x732 JUMPI PUSH1 0x84 CALLDATALOAD PUSH1 0x1 PUSH1 0x1 PUSH1 0x40 SHL SUB DUP2 GT PUSH2 0x70B JUMPI PUSH2 0x8BA SWAP1 CALLDATASIZE SWAP1 PUSH1 0x4 ADD PUSH2 0x24EB JUMP JUMPDEST PUSH1 0xA4 CALLDATALOAD PUSH1 0x1 PUSH1 0x1 PUSH1 0x40 SHL SUB DUP2 GT PUSH2 0x118F JUMPI PUSH2 0x8D9 SWAP1 CALLDATASIZE SWAP1 PUSH1 0x4 ADD PUSH2 0x24EB JUMP JUMPDEST SWAP1 PUSH2 0x8EF PUSH1 0x1 DUP1 PUSH1 0xA0 SHL SUB PUSH1 0x5 SLOAD AND CALLER EQ PUSH2 0x2641 JUMP JUMPDEST PUSH1 0x1 PUSH1 0x1 PUSH1 0xA0 SHL SUB DUP6 AND DUP7 MSTORE PUSH1 0x7 PUSH1 0x20 MSTORE PUSH1 0x40 DUP7 KECCAK256 SLOAD PUSH1 0xFF AND PUSH2 0x1157 JUMPI PUSH1 0x40 MLOAD SWAP3 PUSH2 0x919 DUP5 PUSH2 0x231E JUMP JUMPDEST PUSH1 0x1 PUSH1 0x1 PUSH1 0xA0 SHL SUB DUP7 AND DUP5 MSTORE PUSH1 0x20 DUP5 ADD DUP6 SWAP1 MSTORE PUSH1 0x40 DUP5 ADD MSTORE PUSH2 0x940 PUSH1 0x64 CALLDATALOAD PUSH1 0x60 DUP6 ADD PUSH2 0x25B3 JUMP JUMPDEST TIMESTAMP PUSH1 0x80 DUP5 ADD MSTORE PUSH1 0xA0 DUP4 ADD DUP7 SWAP1 MSTORE PUSH1 0xC0 DUP4 ADD DUP7 SWAP1 MSTORE PUSH1 0x1 PUSH1 0xE0 DUP5 ADD MSTORE PUSH2 0x100 DUP4 ADD MSTORE PUSH2 0x120 DUP3 ADD MSTORE PUSH1 0x1 PUSH1 0x1 PUSH1 0xA0 SHL SUB DUP4 DUP2 AND DUP6 MSTORE PUSH1 0x6 PUSH1 0x20 SWAP1 DUP2 MSTORE PUSH1 0x40 DUP7 KECCAK256 DUP4 MLOAD DUP2 SLOAD PUSH1 0x1 PUSH1 0x1 PUSH1 0xA0 SHL SUB NOT AND SWAP4 AND SWAP3 SWAP1 SWAP3 OR DUP3 SSTORE DUP3 ADD MLOAD DUP1 MLOAD SWAP2 SWAP3 SWAP2 SWAP1 PUSH1 0x1 PUSH1 0x1 PUSH1 0x40 SHL SUB DUP3 GT PUSH2 0xF9B JUMPI DUP2 SWAP1 PUSH2 0x9BB PUSH1 0x1 DUP7 ADD SLOAD PUSH2 0x22E4 JUMP JUMPDEST PUSH1 0x1F DUP2 GT PUSH2 0x1107 JUMPI JUMPDEST POP PUSH1 0x20 SWAP1 PUSH1 0x1F DUP4 GT PUSH1 0x1 EQ PUSH2 0x1098 JUMPI DUP9 SWAP3 PUSH2 0x108D JUMPI JUMPDEST POP POP DUP2 PUSH1 0x1 SHL SWAP2 PUSH1 0x0 NOT SWAP1 PUSH1 0x3 SHL SHR NOT AND OR PUSH1 0x1 DUP4 ADD SSTORE JUMPDEST PUSH1 0x40 DUP2 ADD MLOAD DUP1 MLOAD SWAP1 PUSH1 0x1 PUSH1 0x1 PUSH1 0x40 SHL SUB DUP3 GT PUSH2 0xF9B JUMPI DUP2 SWAP1 PUSH2 0xA17 PUSH1 0x2 DUP7 ADD SLOAD PUSH2 0x22E4 JUMP JUMPDEST PUSH1 0x1F DUP2 GT PUSH2 0x103D JUMPI JUMPDEST POP PUSH1 0x20 SWAP1 PUSH1 0x1F DUP4 GT PUSH1 0x1 EQ PUSH2 0xFCE JUMPI DUP9 SWAP3 PUSH2 0xFC3 JUMPI JUMPDEST POP POP DUP2 PUSH1 0x1 SHL SWAP2 PUSH1 0x0 NOT SWAP1 PUSH1 0x3 SHL SHR NOT AND OR PUSH1 0x2 DUP4 ADD SSTORE JUMPDEST PUSH1 0x3 DUP3 ADD PUSH1 0x60 DUP3 ADD MLOAD PUSH1 0x4 DUP2 LT ISZERO PUSH2 0xFAF JUMPI PUSH1 0xFF DUP1 NOT DUP4 SLOAD AND SWAP2 AND OR SWAP1 SSTORE PUSH1 0x80 DUP2 ADD MLOAD PUSH1 0x4 DUP4 ADD SSTORE PUSH1 0x5 DUP3 ADD PUSH1 0xA0 DUP3 ADD MLOAD ISZERO ISZERO DUP2 SLOAD PUSH2 0xFF00 PUSH1 0xC0 DUP6 ADD MLOAD ISZERO ISZERO SWAP2 PUSH1 0xFF PUSH3 0xFF0000 PUSH1 0xE0 DUP9 ADD MLOAD ISZERO ISZERO PUSH1 0x10 SHL AND SWAP5 AND SWAP1 PUSH3 0xFFFFFF NOT AND OR SWAP2 PUSH1 0x8 SHL AND OR OR SWAP1 SSTORE PUSH2 0x100 DUP2 ADD MLOAD DUP1 MLOAD SWAP1 PUSH1 0x1 PUSH1 0x1 PUSH1 0x40 SHL SUB DUP3 GT PUSH2 0xF9B JUMPI PUSH2 0xAD6 PUSH1 0x6 DUP6 ADD SLOAD PUSH2 0x22E4 JUMP JUMPDEST PUSH1 0x1F DUP2 GT PUSH2 0xF57 JUMPI JUMPDEST POP PUSH1 0x20 SWAP1 PUSH1 0x1F DUP4 GT PUSH1 0x1 EQ PUSH2 0xEE6 JUMPI PUSH2 0x120 SWAP4 SWAP3 SWAP2 DUP9 SWAP2 DUP4 PUSH2 0xEDB JUMPI JUMPDEST POP POP DUP2 PUSH1 0x1 SHL SWAP2 PUSH1 0x0 NOT SWAP1 PUSH1 0x3 SHL SHR NOT AND OR PUSH1 0x6 DUP5 ADD SSTORE JUMPDEST ADD MLOAD DUP1 MLOAD SWAP1 PUSH1 0x1 PUSH1 0x1 PUSH1 0x40 SHL SUB DUP3 GT PUSH2 0xEC7 JUMPI PUSH2 0xB34 PUSH1 0x7 DUP5 ADD SLOAD PUSH2 0x22E4 JUMP JUMPDEST PUSH1 0x1F DUP2 GT PUSH2 0xE83 JUMPI JUMPDEST POP PUSH1 0x20 SWAP1 PUSH1 0x1F DUP4 GT PUSH1 0x1 EQ PUSH2 0xE16 JUMPI PUSH1 0x7 SWAP3 SWAP2 DUP8 SWAP2 DUP4 PUSH2 0xE0B JUMPI JUMPDEST POP POP DUP2 PUSH1 0x1 SHL SWAP2 PUSH1 0x0 NOT SWAP1 PUSH1 0x3 SHL SHR NOT AND OR SWAP2 ADD SSTORE JUMPDEST PUSH1 0x1 PUSH1 0x1 PUSH1 0xA0 SHL SUB DUP3 AND DUP4 MSTORE PUSH1 0x7 PUSH1 0x20 MSTORE PUSH1 0x40 DUP4 KECCAK256 DUP1 SLOAD PUSH1 0xFF NOT AND PUSH1 0x1 OR SWAP1 SSTORE PUSH1 0x8 SLOAD PUSH9 0x10000000000000000 DUP2 LT ISZERO PUSH2 0xDF7 JUMPI DUP1 PUSH1 0x1 PUSH2 0xBB2 SWAP3 ADD PUSH1 0x8 SSTORE PUSH2 0x2541 JUMP JUMPDEST DUP2 SLOAD PUSH1 0x1 PUSH1 0x1 PUSH1 0xA0 SHL SUB PUSH1 0x3 SWAP3 SWAP1 SWAP3 SHL DUP3 DUP2 SHL NOT SWAP1 SWAP2 AND DUP6 DUP4 AND SWAP1 SWAP2 SHL OR SWAP1 SWAP2 SSTORE DUP4 SLOAD DUP5 SWAP2 AND PUSH2 0xBE3 PUSH1 0x64 CALLDATALOAD PUSH2 0x2770 JUMP JUMPDEST SWAP1 DUP1 EXTCODESIZE ISZERO PUSH2 0x723 JUMPI PUSH1 0x40 DUP1 MLOAD PUSH4 0x2560BE8D PUSH1 0xE2 SHL DUP2 MSTORE PUSH1 0x1 PUSH1 0x1 PUSH1 0xA0 SHL SUB DUP8 AND PUSH1 0x4 DUP3 ADD MSTORE PUSH1 0x24 DUP2 ADD SWAP2 SWAP1 SWAP2 MSTORE SWAP2 DUP4 SWAP2 DUP4 SWAP2 DUP3 SWAP1 DUP5 SWAP1 DUP3 SWAP1 PUSH2 0xC29 SWAP1 PUSH1 0x44 DUP4 ADD SWAP1 PUSH2 0x24A3 JUMP JUMPDEST SUB SWAP3 GAS CALL DUP1 ISZERO PUSH2 0x76D JUMPI PUSH2 0xDE3 JUMPI JUMPDEST POP PUSH1 0x4 SLOAD PUSH1 0x40 MLOAD PUSH12 0xFFFFFFFFFFFFFFFFFFFFFFFF NOT PUSH1 0x60 DUP7 SWAP1 SHL AND PUSH1 0x20 DUP3 ADD SWAP1 DUP2 MSTORE TIMESTAMP PUSH1 0x34 DUP4 ADD MSTORE PUSH1 0x1 PUSH1 0x1 PUSH1 0xA0 SHL SUB SWAP1 SWAP3 AND SWAP2 SWAP1 PUSH2 0xC84 DUP2 PUSH1 0x54 DUP2 ADD JUMPDEST SUB PUSH1 0x1F NOT DUP2 ADD DUP4 MSTORE DUP3 PUSH2 0x23BA JUMP JUMPDEST MLOAD SWAP1 KECCAK256 PUSH1 0x1 DUP1 PUSH1 0xA0 SHL SUB PUSH1 0x5 SLOAD AND SWAP2 PUSH1 0x40 MLOAD SWAP1 PUSH14 0x20B23232B21036B2B6B132B91D1 PUSH1 0x95 SHL PUSH1 0x20 DUP4 ADD MSTORE PUSH2 0xCD6 PUSH1 0x2E DUP4 DUP9 MLOAD PUSH2 0xCC6 DUP2 DUP5 DUP5 ADD PUSH1 0x20 DUP14 ADD PUSH2 0x2480 JUMP JUMPDEST DUP2 ADD SUB PUSH1 0xE DUP2 ADD DUP6 MSTORE ADD DUP4 PUSH2 0x23BA JUMP JUMPDEST DUP1 EXTCODESIZE ISZERO PUSH2 0x70B JUMPI PUSH2 0xD5F SWAP4 DUP6 DUP1 SWAP5 PUSH1 0x40 MLOAD SWAP7 DUP8 SWAP6 DUP7 SWAP5 DUP6 SWAP4 PUSH4 0xD407663 PUSH1 0xE4 SHL DUP6 MSTORE PUSH1 0x4 DUP6 ADD MSTORE PUSH1 0x24 DUP5 ADD MSTORE PUSH1 0x1 DUP1 PUSH1 0xA0 SHL SUB DUP13 AND PUSH1 0x44 DUP5 ADD MSTORE DUP4 PUSH1 0x64 DUP5 ADD MSTORE PUSH1 0xE0 PUSH1 0x84 DUP5 ADD MSTORE DUP4 PUSH1 0xE4 DUP5 ADD MSTORE PUSH2 0x100 PUSH1 0xA4 DUP5 ADD MSTORE PUSH1 0xF PUSH2 0x104 DUP5 ADD MSTORE PUSH15 0x36B2B6B132B916B0B23234BA34B7B7 PUSH1 0x89 SHL PUSH2 0x124 DUP5 ADD MSTORE PUSH2 0x140 PUSH1 0xC4 DUP5 ADD MSTORE PUSH2 0x144 DUP4 ADD SWAP1 PUSH2 0x24A3 JUMP JUMPDEST SUB SWAP3 GAS CALL DUP1 ISZERO PUSH2 0x76D JUMPI PUSH2 0xDCF JUMPI JUMPDEST POP POP PUSH2 0xDA9 PUSH32 0xC3F6CD842AFC7162589B0FF2AFB036E61A88D71B6CE813C0D273E7735AE4A383 SWAP2 PUSH1 0x40 MLOAD SWAP2 DUP3 SWAP2 PUSH1 0x60 DUP4 MSTORE PUSH1 0x60 DUP4 ADD SWAP1 PUSH2 0x24A3 JUMP JUMPDEST SWAP4 PUSH2 0xDB9 PUSH1 0x20 DUP4 ADD PUSH1 0x64 CALLDATALOAD PUSH2 0x24C8 JUMP JUMPDEST TIMESTAMP PUSH1 0x40 DUP4 ADD MSTORE PUSH1 0x1 PUSH1 0x1 PUSH1 0xA0 SHL SUB AND SWAP4 SUB SWAP1 LOG2 DUP1 RETURN JUMPDEST PUSH2 0xDD8 SWAP1 PUSH2 0x233A JUMP JUMPDEST PUSH2 0x723 JUMPI DUP3 CODESIZE PUSH2 0xD6E JUMP JUMPDEST PUSH2 0xDEC SWAP1 PUSH2 0x233A JUMP JUMPDEST PUSH2 0x723 JUMPI DUP3 CODESIZE PUSH2 0xC38 JUMP JUMPDEST PUSH4 0x4E487B71 PUSH1 0xE0 SHL DUP5 MSTORE PUSH1 0x41 PUSH1 0x4 MSTORE PUSH1 0x24 DUP5 REVERT JUMPDEST ADD MLOAD SWAP1 POP CODESIZE DUP1 PUSH2 0xB58 JUMP JUMPDEST SWAP1 PUSH1 0x7 DUP5 ADD DUP8 MSTORE PUSH1 0x20 DUP8 KECCAK256 SWAP2 DUP8 JUMPDEST PUSH1 0x1F NOT DUP6 AND DUP2 LT PUSH2 0xE6B JUMPI POP SWAP2 DUP4 SWAP2 PUSH1 0x1 SWAP4 PUSH1 0x7 SWAP6 PUSH1 0x1F NOT DUP2 AND LT PUSH2 0xE52 JUMPI JUMPDEST POP POP POP DUP2 SHL ADD SWAP2 ADD SSTORE PUSH2 0xB6E JUMP JUMPDEST ADD MLOAD PUSH1 0x0 NOT PUSH1 0xF8 DUP5 PUSH1 0x3 SHL AND SHR NOT AND SWAP1 SSTORE CODESIZE DUP1 DUP1 PUSH2 0xE44 JUMP JUMPDEST SWAP2 SWAP3 PUSH1 0x20 PUSH1 0x1 DUP2 SWAP3 DUP7 DUP6 ADD MLOAD DUP2 SSTORE ADD SWAP5 ADD SWAP3 ADD PUSH2 0xE24 JUMP JUMPDEST PUSH1 0x7 DUP5 ADD DUP8 MSTORE PUSH1 0x20 DUP8 KECCAK256 PUSH1 0x1F DUP5 ADD PUSH1 0x5 SHR DUP2 ADD PUSH1 0x20 DUP6 LT PUSH2 0xEC0 JUMPI JUMPDEST PUSH1 0x1F DUP4 ADD PUSH1 0x5 SHR DUP3 ADD DUP2 LT PUSH2 0xEB5 JUMPI POP POP PUSH2 0xB3D JUMP JUMPDEST DUP9 DUP2 SSTORE PUSH1 0x1 ADD PUSH2 0xE9F JUMP JUMPDEST POP DUP1 PUSH2 0xE9F JUMP JUMPDEST PUSH4 0x4E487B71 PUSH1 0xE0 SHL DUP7 MSTORE PUSH1 0x41 PUSH1 0x4 MSTORE PUSH1 0x24 DUP7 REVERT JUMPDEST ADD MLOAD SWAP1 POP CODESIZE DUP1 PUSH2 0xAFC JUMP JUMPDEST SWAP1 PUSH1 0x6 DUP6 ADD DUP9 MSTORE PUSH1 0x20 DUP9 KECCAK256 SWAP2 DUP9 JUMPDEST PUSH1 0x1F NOT DUP6 AND DUP2 LT PUSH2 0xF3F JUMPI POP SWAP2 DUP4 SWAP2 PUSH1 0x1 SWAP4 PUSH2 0x120 SWAP7 SWAP6 PUSH1 0x1F NOT DUP2 AND LT PUSH2 0xF26 JUMPI JUMPDEST POP POP POP DUP2 SHL ADD PUSH1 0x6 DUP5 ADD SSTORE PUSH2 0xB14 JUMP JUMPDEST ADD MLOAD PUSH1 0x0 NOT PUSH1 0xF8 DUP5 PUSH1 0x3 SHL AND SHR NOT AND SWAP1 SSTORE CODESIZE DUP1 DUP1 PUSH2 0xF16 JUMP JUMPDEST SWAP2 SWAP3 PUSH1 0x20 PUSH1 0x1 DUP2 SWAP3 DUP7 DUP6 ADD MLOAD DUP2 SSTORE ADD SWAP5 ADD SWAP3 ADD PUSH2 0xEF4 JUMP JUMPDEST PUSH1 0x6 DUP6 ADD DUP9 MSTORE PUSH1 0x20 DUP9 KECCAK256 PUSH1 0x1F DUP5 ADD PUSH1 0x5 SHR DUP2 ADD PUSH1 0x20 DUP6 LT PUSH2 0xF94 JUMPI JUMPDEST PUSH1 0x1F DUP4 ADD PUSH1 0x5 SHR DUP3 ADD DUP2 LT PUSH2 0xF89 JUMPI POP POP PUSH2 0xADF JUMP JUMPDEST DUP10 DUP2 SSTORE PUSH1 0x1 ADD PUSH2 0xF73 JUMP JUMPDEST POP DUP1 PUSH2 0xF73 JUMP JUMPDEST PUSH4 0x4E487B71 PUSH1 0xE0 SHL DUP8 MSTORE PUSH1 0x41 PUSH1 0x4 MSTORE PUSH1 0x24 DUP8 REVERT JUMPDEST PUSH4 0x4E487B71 PUSH1 0xE0 SHL DUP8 MSTORE PUSH1 0x21 PUSH1 0x4 MSTORE PUSH1 0x24 DUP8 REVERT JUMPDEST ADD MLOAD SWAP1 POP CODESIZE DUP1 PUSH2 0xA36 JUMP JUMPDEST SWAP3 POP PUSH1 0x2 DUP6 ADD DUP9 MSTORE PUSH1 0x20 DUP9 KECCAK256 SWAP1 DUP9 SWAP4 JUMPDEST PUSH1 0x1F NOT DUP5 AND DUP6 LT PUSH2 0x1022 JUMPI PUSH1 0x1 SWAP5 POP DUP4 PUSH1 0x1F NOT DUP2 AND LT PUSH2 0x1009 JUMPI JUMPDEST POP POP POP DUP2 SHL ADD PUSH1 0x2 DUP4 ADD SSTORE PUSH2 0xA4E JUMP JUMPDEST ADD MLOAD PUSH1 0x0 NOT PUSH1 0xF8 DUP5 PUSH1 0x3 SHL AND SHR NOT AND SWAP1 SSTORE CODESIZE DUP1 DUP1 PUSH2 0xFF9 JUMP JUMPDEST DUP2 DUP2 ADD MLOAD DUP4 SSTORE PUSH1 0x20 SWAP5 DUP6 ADD SWAP5 PUSH1 0x1 SWAP1 SWAP4 ADD SWAP3 SWAP1 SWAP2 ADD SWAP1 PUSH2 0xFDE JUMP JUMPDEST SWAP1 SWAP2 POP PUSH1 0x2 DUP6 ADD DUP9 MSTORE PUSH1 0x20 DUP9 KECCAK256 PUSH1 0x1F DUP5 ADD PUSH1 0x5 SHR DUP2 ADD PUSH1 0x20 DUP6 LT PUSH2 0x1086 JUMPI JUMPDEST SWAP1 DUP5 SWAP4 SWAP3 SWAP2 JUMPDEST PUSH1 0x1F DUP4 ADD PUSH1 0x5 SHR DUP3 ADD DUP2 LT PUSH2 0x1078 JUMPI POP POP PUSH2 0xA20 JUMP JUMPDEST DUP11 DUP2 SSTORE DUP6 SWAP5 POP PUSH1 0x1 ADD PUSH2 0x1062 JUMP JUMPDEST POP DUP1 PUSH2 0x105C JUMP JUMPDEST ADD MLOAD SWAP1 POP CODESIZE DUP1 PUSH2 0x9DA JUMP JUMPDEST SWAP3 POP PUSH1 0x1 DUP6 ADD DUP9 MSTORE PUSH1 0x20 DUP9 KECCAK256 SWAP1 DUP9 SWAP4 JUMPDEST PUSH1 0x1F NOT DUP5 AND DUP6 LT PUSH2 0x10EC JUMPI PUSH1 0x1 SWAP5 POP DUP4 PUSH1 0x1F NOT DUP2 AND LT PUSH2 0x10D3 JUMPI JUMPDEST POP POP POP DUP2 SHL ADD PUSH1 0x1 DUP4 ADD SSTORE PUSH2 0x9F2 JUMP JUMPDEST ADD MLOAD PUSH1 0x0 NOT PUSH1 0xF8 DUP5 PUSH1 0x3 SHL AND SHR NOT AND SWAP1 SSTORE CODESIZE DUP1 DUP1 PUSH2 0x10C3 JUMP JUMPDEST DUP2 DUP2 ADD MLOAD DUP4 SSTORE PUSH1 0x20 SWAP5 DUP6 ADD SWAP5 PUSH1 0x1 SWAP1 SWAP4 ADD SWAP3 SWAP1 SWAP2 ADD SWAP1 PUSH2 0x10A8 JUMP JUMPDEST SWAP1 SWAP2 POP PUSH1 0x1 DUP6 ADD DUP9 MSTORE PUSH1 0x20 DUP9 KECCAK256 PUSH1 0x1F DUP5 ADD PUSH1 0x5 SHR DUP2 ADD PUSH1 0x20 DUP6 LT PUSH2 0x1150 JUMPI JUMPDEST SWAP1 DUP5 SWAP4 SWAP3 SWAP2 JUMPDEST PUSH1 0x1F DUP4 ADD PUSH1 0x5 SHR DUP3 ADD DUP2 LT PUSH2 0x1142 JUMPI POP POP PUSH2 0x9C4 JUMP JUMPDEST DUP11 DUP2 SSTORE DUP6 SWAP5 POP PUSH1 0x1 ADD PUSH2 0x112C JUMP JUMPDEST POP DUP1 PUSH2 0x1126 JUMP JUMPDEST PUSH1 0x40 MLOAD PUSH3 0x461BCD PUSH1 0xE5 SHL DUP2 MSTORE PUSH1 0x20 PUSH1 0x4 DUP3 ADD MSTORE PUSH1 0x10 PUSH1 0x24 DUP3 ADD MSTORE PUSH16 0x20B63932B0B23C90309036B2B6B132B9 PUSH1 0x81 SHL PUSH1 0x44 DUP3 ADD MSTORE PUSH1 0x64 SWAP1 REVERT JUMPDEST DUP6 DUP1 REVERT JUMPDEST POP CALLVALUE PUSH2 0x2B6 JUMPI DUP1 PUSH1 0x3 NOT CALLDATASIZE ADD SLT PUSH2 0x2B6 JUMPI PUSH1 0x20 PUSH1 0x40 MLOAD PUSH3 0x93A80 DUP2 MSTORE RETURN JUMPDEST POP CALLVALUE PUSH2 0x2B6 JUMPI DUP1 PUSH1 0x3 NOT CALLDATASIZE ADD SLT PUSH2 0x2B6 JUMPI PUSH1 0x40 MLOAD DUP1 SWAP2 PUSH1 0x8 SLOAD SWAP1 DUP2 DUP4 MSTORE PUSH1 0x20 DUP1 SWAP4 ADD DUP1 SWAP3 PUSH1 0x8 DUP4 MSTORE PUSH32 0xF3F7A9FE364FAAB93B216DA50A3214154F22A0A2B415B23A84C8169E8B636EE3 SWAP1 DUP4 JUMPDEST DUP2 DUP2 LT PUSH2 0x125A JUMPI POP POP POP DUP5 PUSH2 0x1213 SWAP2 SUB DUP6 PUSH2 0x23BA JUMP JUMPDEST PUSH1 0x40 MLOAD SWAP4 DUP4 DUP6 SWAP5 DUP6 ADD SWAP2 DUP2 DUP7 MSTORE MLOAD DUP1 SWAP3 MSTORE PUSH1 0x40 DUP6 ADD SWAP4 SWAP3 JUMPDEST DUP3 DUP2 LT PUSH2 0x123A JUMPI POP POP POP POP SUB SWAP1 RETURN JUMPDEST DUP4 MLOAD PUSH1 0x1 PUSH1 0x1 PUSH1 0xA0 SHL SUB AND DUP6 MSTORE DUP7 SWAP6 POP SWAP4 DUP2 ADD SWAP4 SWAP3 DUP2 ADD SWAP3 PUSH1 0x1 ADD PUSH2 0x122B JUMP JUMPDEST DUP3 SLOAD PUSH1 0x1 PUSH1 0x1 PUSH1 0xA0 SHL SUB AND DUP5 MSTORE SWAP3 DUP7 ADD SWAP3 PUSH1 0x1 SWAP3 DUP4 ADD SWAP3 ADD PUSH2 0x11FD JUMP JUMPDEST POP CALLVALUE PUSH2 0x2B6 JUMPI PUSH2 0x160 SWAP1 PUSH1 0x3 NOT DUP3 DUP2 CALLDATASIZE ADD SLT PUSH2 0x6FC JUMPI CALLDATASIZE PUSH1 0x63 SLT ISZERO PUSH2 0x264 JUMPI PUSH1 0x40 MLOAD PUSH2 0x12A2 DUP2 PUSH2 0x2383 JUMP JUMPDEST DUP1 SWAP4 PUSH2 0x144 CALLDATASIZE DUP2 GT PUSH2 0x264 JUMPI PUSH1 0x44 SWAP6 JUMPDEST DUP2 DUP8 LT PUSH2 0x156C JUMPI POP DUP5 SWAP6 POP DUP1 CALLDATALOAD PUSH1 0x1 PUSH1 0x1 PUSH1 0x40 SHL SUB DUP2 GT PUSH2 0x118F JUMPI PUSH2 0x12DB SWAP1 CALLDATASIZE SWAP1 PUSH1 0x4 ADD PUSH2 0x24EB JUMP JUMPDEST SWAP1 CALLER DUP7 MSTORE PUSH1 0x7 PUSH1 0x20 MSTORE PUSH2 0x12F4 PUSH1 0xFF PUSH1 0x40 DUP9 KECCAK256 SLOAD AND PUSH2 0x26F3 JUMP JUMPDEST PUSH1 0x2 SLOAD PUSH1 0x1 PUSH1 0x1 PUSH1 0xA0 SHL SUB SWAP5 SWAP1 DUP6 AND SWAP1 DUP2 EXTCODESIZE ISZERO PUSH2 0x1568 JUMPI DUP8 PUSH2 0x1343 SWAP2 PUSH2 0x1351 DUP3 SWAP7 PUSH1 0x40 MLOAD SWAP9 DUP10 SWAP8 DUP9 SWAP7 DUP8 SWAP6 PUSH4 0x3DF3805D PUSH1 0xE1 SHL DUP8 MSTORE PUSH1 0x4 CALLDATALOAD PUSH1 0x4 DUP9 ADD MSTORE PUSH1 0x24 CALLDATALOAD PUSH1 0x24 DUP9 ADD MSTORE PUSH1 0x44 DUP8 ADD SWAP1 PUSH2 0x2697 JUMP JUMPDEST DUP5 ADD MSTORE PUSH2 0x164 DUP4 ADD SWAP1 PUSH2 0x24A3 JUMP JUMPDEST SUB SWAP3 GAS CALL SWAP1 DUP2 ISZERO PUSH2 0x727 JUMPI DUP5 SWAP2 PUSH2 0x1554 JUMPI JUMPDEST POP POP CALLER DUP4 MSTORE PUSH1 0x6 PUSH1 0x20 MSTORE PUSH1 0x40 DUP4 KECCAK256 PUSH1 0x5 ADD DUP1 SLOAD PUSH1 0xFF NOT AND PUSH1 0x1 OR SWAP1 SSTORE DUP3 SLOAD DUP2 AND DUP1 EXTCODESIZE ISZERO PUSH2 0x154F JUMPI DUP4 DUP1 SWAP2 PUSH1 0xA4 PUSH1 0x40 MLOAD DUP1 SWAP5 DUP2 SWAP4 PUSH4 0x34FF2619 PUSH1 0xE2 SHL DUP4 MSTORE CALLER PUSH1 0x4 DUP5 ADD MSTORE PUSH1 0x32 PUSH1 0x24 DUP5 ADD MSTORE PUSH1 0x60 PUSH1 0x44 DUP5 ADD MSTORE PUSH1 0x15 PUSH1 0x64 DUP5 ADD MSTORE PUSH21 0x2BB7B936321024A2102B32B934B334B1B0BA34B7B7 PUSH1 0x59 SHL PUSH1 0x84 DUP5 ADD MSTORE GAS CALL SWAP1 DUP2 ISZERO PUSH2 0x727 JUMPI DUP5 SWAP2 PUSH2 0x1537 JUMPI JUMPDEST POP POP DUP1 PUSH1 0x4 SLOAD AND PUSH1 0x40 MLOAD PUSH1 0x20 DUP2 ADD SWAP1 CALLER PUSH1 0x60 SHL DUP3 MSTORE PUSH7 0x1DDBDC9B191A59 PUSH1 0xCA SHL PUSH1 0x34 DUP3 ADD MSTORE TIMESTAMP PUSH1 0x3B DUP3 ADD MSTORE PUSH1 0x3B DUP2 MSTORE PUSH2 0x1421 DUP2 PUSH2 0x234D JUMP JUMPDEST MLOAD SWAP1 KECCAK256 SWAP2 PUSH1 0x2 SLOAD AND SWAP1 DUP1 EXTCODESIZE ISZERO PUSH2 0x70B JUMPI DUP5 SWAP3 DUP4 PUSH1 0x40 DUP1 MLOAD SWAP7 DUP8 SWAP6 DUP7 SWAP5 PUSH4 0xD407663 PUSH1 0xE4 SHL DUP7 MSTORE PUSH1 0x4 DUP7 ADD MSTORE CALLER PUSH1 0x24 DUP7 ADD MSTORE PUSH1 0x44 DUP6 ADD MSTORE DUP3 PUSH1 0x64 DUP6 ADD MSTORE PUSH1 0xE0 PUSH1 0x84 DUP6 ADD MSTORE DUP3 PUSH1 0xE4 DUP6 ADD MSTORE PUSH2 0x100 PUSH1 0xA4 DUP6 ADD MSTORE PUSH32 0x576F726C6420494420766572696669636174696F6E20636F6D706C6574656400 PUSH1 0x20 PUSH2 0x14B4 PUSH2 0x104 DUP8 ADD PUSH1 0x40 SWAP1 PUSH1 0x3 DUP2 MSTORE PUSH3 0x6B7963 PUSH1 0xE8 SHL PUSH1 0x20 DUP3 ADD MSTORE ADD SWAP1 JUMP JUMPDEST DUP7 DUP2 SUB SWAP4 DUP5 ADD PUSH1 0xC4 DUP9 ADD MSTORE PUSH1 0x1F DUP2 MSTORE ADD MSTORE ADD SWAP3 GAS CALL DUP1 ISZERO PUSH2 0x76D JUMPI PUSH2 0x1523 JUMPI JUMPDEST POP PUSH1 0x40 MLOAD PUSH1 0x40 DUP2 MSTORE PUSH1 0x8 PUSH1 0x40 DUP3 ADD MSTORE PUSH8 0x15DBDC9B19081251 PUSH1 0xC2 SHL PUSH1 0x60 DUP3 ADD MSTORE TIMESTAMP PUSH1 0x20 DUP3 ADD MSTORE PUSH32 0x64CD12011FA3EA9D6004C30F53DEE41172F5AF5BAD7E741BBD40259705CF96EA PUSH1 0x80 CALLER SWAP3 LOG2 DUP1 RETURN JUMPDEST PUSH2 0x152C SWAP1 PUSH2 0x233A JUMP JUMPDEST PUSH2 0x2B6 JUMPI DUP1 CODESIZE PUSH2 0x14D4 JUMP JUMPDEST PUSH2 0x1540 SWAP1 PUSH2 0x233A JUMP JUMPDEST PUSH2 0x154B JUMPI DUP3 CODESIZE PUSH2 0x13E9 JUMP JUMPDEST POP POP REVERT JUMPDEST POP POP POP REVERT JUMPDEST PUSH2 0x155D SWAP1 PUSH2 0x233A JUMP JUMPDEST PUSH2 0x154B JUMPI DUP3 CODESIZE PUSH2 0x1363 JUMP JUMPDEST DUP8 DUP1 REVERT JUMPDEST DUP7 CALLDATALOAD DUP2 MSTORE PUSH1 0x20 SWAP7 DUP8 ADD SWAP7 ADD PUSH2 0x12B2 JUMP JUMPDEST POP CALLVALUE PUSH2 0x2B6 JUMPI DUP1 PUSH1 0x3 NOT CALLDATASIZE ADD SLT PUSH2 0x2B6 JUMPI SLOAD PUSH1 0x40 MLOAD PUSH1 0x1 PUSH1 0x1 PUSH1 0xA0 SHL SUB SWAP1 SWAP2 AND DUP2 MSTORE PUSH1 0x20 SWAP1 RETURN JUMPDEST POP CALLVALUE PUSH2 0x2B6 JUMPI PUSH1 0x80 CALLDATASIZE PUSH1 0x3 NOT ADD SLT PUSH2 0x2B6 JUMPI PUSH1 0x24 CALLDATALOAD ISZERO ISZERO PUSH1 0x24 CALLDATALOAD SUB PUSH2 0x264 JUMPI PUSH1 0x44 CALLDATALOAD PUSH1 0x1 PUSH1 0x1 PUSH1 0x40 SHL SUB DUP2 GT PUSH2 0x6FC JUMPI PUSH2 0x15E1 SWAP1 CALLDATASIZE SWAP1 PUSH1 0x4 ADD PUSH2 0x24EB JUMP JUMPDEST PUSH1 0x64 CALLDATALOAD ISZERO ISZERO PUSH1 0x64 CALLDATALOAD SUB PUSH2 0x264 JUMPI CALLER DUP3 MSTORE PUSH1 0x7 PUSH1 0x20 MSTORE PUSH2 0x1606 PUSH1 0xFF PUSH1 0x40 DUP5 KECCAK256 SLOAD AND PUSH2 0x2578 JUMP JUMPDEST CALLER DUP3 MSTORE PUSH1 0x6 PUSH1 0x20 MSTORE PUSH2 0x162B PUSH1 0x5 PUSH1 0x40 DUP5 KECCAK256 ADD SLOAD PUSH1 0xFF DUP2 AND SWAP1 DUP2 ISZERO PUSH2 0x1AAD JUMPI JUMPDEST POP PUSH2 0x25BF JUMP JUMPDEST DUP2 SLOAD PUSH1 0x40 MLOAD PUSH4 0x70A08231 PUSH1 0xE0 SHL DUP2 MSTORE CALLER PUSH1 0x4 DUP3 ADD MSTORE SWAP1 PUSH1 0x20 SWAP1 DUP3 SWAP1 PUSH1 0x24 SWAP1 DUP3 SWAP1 PUSH1 0x1 PUSH1 0x1 PUSH1 0xA0 SHL SUB AND GAS STATICCALL SWAP1 DUP2 ISZERO PUSH2 0x700 JUMPI DUP4 SWAP2 PUSH2 0x1A7A JUMPI JUMPDEST POP PUSH1 0xA PUSH2 0x1672 SWAP2 LT ISZERO PUSH2 0x2601 JUMP JUMPDEST DUP2 DUP1 SWAP2 PUSH1 0x64 CALLDATALOAD PUSH2 0x1879 JUMPI JUMPDEST PUSH1 0x1 SLOAD PUSH1 0x1 PUSH1 0x1 PUSH1 0xA0 SHL SUB AND DUP1 EXTCODESIZE ISZERO PUSH2 0x723 JUMPI PUSH2 0x16CE DUP4 SWAP3 SWAP2 DUP4 SWAP3 PUSH1 0x40 MLOAD SWAP5 DUP6 DUP1 SWAP5 DUP2 SWAP4 PUSH4 0xD3C0715B PUSH1 0xE0 SHL DUP4 MSTORE PUSH1 0x4 CALLDATALOAD PUSH1 0x4 DUP5 ADD MSTORE PUSH1 0x24 CALLDATALOAD ISZERO ISZERO PUSH1 0x24 DUP5 ADD MSTORE PUSH1 0x60 PUSH1 0x44 DUP5 ADD MSTORE PUSH1 0x64 DUP4 ADD SWAP1 PUSH2 0x24A3 JUMP JUMPDEST SUB SWAP3 GAS CALL DUP1 ISZERO PUSH2 0x76D JUMPI PUSH2 0x1865 JUMPI JUMPDEST POP PUSH1 0x1 DUP1 PUSH1 0xA0 SHL SUB PUSH1 0x4 SLOAD AND PUSH1 0x40 MLOAD PUSH1 0x20 DUP2 ADD CALLER PUSH1 0x60 SHL DUP2 MSTORE PUSH4 0x766F7465 PUSH1 0xE0 SHL SWAP2 DUP3 PUSH1 0x34 DUP3 ADD MSTORE PUSH1 0x4 CALLDATALOAD PUSH1 0x38 DUP3 ADD MSTORE PUSH1 0x38 DUP2 MSTORE PUSH2 0x171A DUP2 PUSH2 0x234D JUMP JUMPDEST MLOAD SWAP1 KECCAK256 PUSH1 0x1 SLOAD PUSH1 0x1 PUSH1 0x1 PUSH1 0xA0 SHL SUB AND SWAP3 SWAP1 SWAP2 SWAP1 PUSH1 0x64 CALLDATALOAD ISZERO PUSH2 0x1836 JUMPI PUSH1 0x40 MLOAD PUSH2 0x1741 DUP2 PUSH2 0x239F JUMP JUMPDEST PUSH1 0x13 DUP2 MSTORE PUSH19 0x105B9BDB9E5B5BDD5CC81D9BDD194818D85CDD PUSH1 0x6A SHL PUSH1 0x20 DUP3 ADD MSTORE SWAP4 JUMPDEST DUP2 EXTCODESIZE ISZERO PUSH2 0x118F JUMPI DUP6 DUP1 SWAP5 PUSH2 0x17D0 PUSH1 0x40 MLOAD SWAP8 DUP9 SWAP7 DUP8 SWAP6 DUP7 SWAP5 PUSH4 0xD407663 PUSH1 0xE4 SHL DUP7 MSTORE PUSH1 0x4 DUP7 ADD MSTORE CALLER PUSH1 0x24 DUP7 ADD MSTORE PUSH1 0x44 DUP6 ADD MSTORE DUP5 PUSH1 0x64 DUP6 ADD MSTORE PUSH1 0xE0 PUSH1 0x84 DUP6 ADD MSTORE DUP5 PUSH1 0xE4 DUP6 ADD MSTORE PUSH2 0x100 PUSH1 0xA4 DUP6 ADD MSTORE PUSH1 0x4 PUSH2 0x104 DUP6 ADD MSTORE PUSH2 0x124 DUP5 ADD MSTORE PUSH2 0x140 PUSH1 0xC4 DUP5 ADD MSTORE PUSH2 0x144 DUP4 ADD SWAP1 PUSH2 0x24A3 JUMP JUMPDEST SUB SWAP3 GAS CALL DUP1 ISZERO PUSH2 0x76D JUMPI PUSH2 0x1822 JUMPI JUMPDEST POP POP PUSH1 0x40 MLOAD SWAP1 PUSH1 0x64 CALLDATALOAD ISZERO ISZERO DUP3 MSTORE PUSH1 0x20 DUP3 ADD MSTORE TIMESTAMP PUSH1 0x40 DUP3 ADD MSTORE PUSH32 0x88C0DA05D983E77DC370BF3A898018A5DA86757D9C362EB3746F05A298723DD9 PUSH1 0x60 PUSH1 0x4 CALLDATALOAD SWAP3 LOG2 DUP1 RETURN JUMPDEST PUSH2 0x182B SWAP1 PUSH2 0x233A JUMP JUMPDEST PUSH2 0x6FC JUMPI DUP2 CODESIZE PUSH2 0x17DF JUMP JUMPDEST PUSH1 0x40 MLOAD PUSH2 0x1842 DUP2 PUSH2 0x239F JUMP JUMPDEST PUSH1 0x10 DUP2 MSTORE PUSH16 0x141D589B1A58C81D9BDD194818D85CDD PUSH1 0x82 SHL PUSH1 0x20 DUP3 ADD MSTORE SWAP4 PUSH2 0x1763 JUMP JUMPDEST PUSH2 0x186E SWAP1 PUSH2 0x233A JUMP JUMPDEST PUSH2 0x6FC JUMPI DUP2 CODESIZE PUSH2 0x16DD JUMP JUMPDEST SWAP2 POP POP PUSH1 0x40 MLOAD PUSH2 0x1888 DUP2 PUSH2 0x2368 JUMP JUMPDEST PUSH1 0x3 DUP2 MSTORE PUSH1 0x60 CALLDATASIZE PUSH1 0x20 DUP4 ADD CALLDATACOPY PUSH1 0x24 CALLDATALOAD ISZERO PUSH2 0x1A74 JUMPI PUSH1 0x1 JUMPDEST DUP2 MLOAD ISZERO PUSH2 0x1A5E JUMPI PUSH1 0xFF AND PUSH1 0x20 DUP3 ADD MSTORE DUP1 MLOAD PUSH1 0x1 LT ISZERO PUSH2 0x1A5E JUMPI PUSH1 0x4 CALLDATALOAD PUSH1 0x40 DUP3 DUP2 ADD DUP3 SWAP1 MSTORE MLOAD CALLER PUSH1 0x60 SHL PUSH12 0xFFFFFFFFFFFFFFFFFFFFFFFF NOT AND PUSH1 0x20 DUP3 ADD SWAP1 DUP2 MSTORE PUSH1 0x34 DUP3 ADD SWAP3 SWAP1 SWAP3 MSTORE PUSH2 0x18F3 DUP2 PUSH1 0x54 DUP2 ADD PUSH2 0xC76 JUMP JUMPDEST MLOAD SWAP1 KECCAK256 DUP2 MLOAD PUSH1 0x2 LT ISZERO PUSH2 0x1A5E JUMPI SWAP1 DUP4 SWAP2 PUSH1 0x60 DUP3 ADD MSTORE PUSH1 0x40 MLOAD PUSH2 0x1914 DUP2 PUSH2 0x2383 JUMP JUMPDEST PUSH2 0x100 CALLDATASIZE DUP3 CALLDATACOPY CALLER PUSH1 0x60 SHL DUP4 JUMPDEST PUSH1 0x8 DUP2 LT PUSH2 0x1A1F JUMPI POP PUSH1 0x20 SWAP2 PUSH2 0x198C SWAP2 PUSH1 0x40 MLOAD DUP5 DUP2 ADD SWAP2 DUP3 MSTORE PUSH1 0x4 CALLDATALOAD PUSH1 0x34 DUP3 ADD MSTORE PUSH4 0x766F7465 PUSH1 0xE0 SHL PUSH1 0x54 DUP3 ADD MSTORE PUSH1 0x38 DUP2 MSTORE PUSH2 0x195B DUP2 PUSH2 0x234D JUMP JUMPDEST MLOAD SWAP1 KECCAK256 SWAP1 DUP6 PUSH1 0x40 PUSH1 0x1 DUP1 PUSH1 0xA0 SHL SUB PUSH1 0x3 SLOAD AND SWAP4 PUSH2 0x19A0 DUP3 MLOAD SWAP9 DUP10 SWAP8 DUP9 SWAP7 PUSH4 0x4370A39B PUSH1 0xE0 SHL DUP9 MSTORE PUSH1 0x4 DUP9 ADD SWAP1 PUSH2 0x2697 JUMP JUMPDEST PUSH2 0x160 PUSH2 0x104 DUP8 ADD MSTORE PUSH2 0x164 DUP7 ADD SWAP1 PUSH2 0x26BF JUMP JUMPDEST SWAP1 PUSH16 0x616E6F6E796D6F75732D766F74696E67 PUSH1 0x80 SHL DUP9 DUP7 DUP5 SUB SWAP4 PUSH1 0x3 NOT DUP6 ADD PUSH2 0x124 DUP10 ADD MSTORE PUSH1 0x10 DUP2 MSTORE ADD MSTORE PUSH2 0x144 DUP6 ADD MSTORE ADD SWAP3 GAS CALL SWAP1 DUP2 ISZERO PUSH2 0x76D JUMPI DUP3 SWAP2 PUSH2 0x19EA JUMPI JUMPDEST POP SWAP2 PUSH2 0x167D JUMP JUMPDEST SWAP2 POP POP PUSH1 0x20 DUP2 RETURNDATASIZE PUSH1 0x20 GT PUSH2 0x1A17 JUMPI JUMPDEST DUP2 PUSH2 0x1A06 PUSH1 0x20 SWAP4 DUP4 PUSH2 0x23BA JUMP JUMPDEST DUP2 ADD SUB SLT PUSH2 0x264 JUMPI DUP3 SWAP1 MLOAD CODESIZE PUSH2 0x19E3 JUMP JUMPDEST RETURNDATASIZE SWAP2 POP PUSH2 0x19F9 JUMP JUMPDEST PUSH1 0x1 SWAP2 SWAP3 SWAP4 SWAP5 POP PUSH1 0x40 MLOAD PUSH1 0x20 DUP2 ADD SWAP1 DUP5 DUP3 MSTORE DUP3 PUSH1 0x34 DUP3 ADD MSTORE PUSH1 0x54 TIMESTAMP DUP2 DUP4 ADD MSTORE DUP2 MSTORE PUSH2 0x1A49 DUP2 PUSH2 0x2368 JUMP JUMPDEST MLOAD SWAP1 KECCAK256 DUP2 PUSH1 0x5 SHL DUP6 ADD MSTORE ADD SWAP1 DUP6 SWAP4 SWAP3 SWAP2 PUSH2 0x1920 JUMP JUMPDEST PUSH4 0x4E487B71 PUSH1 0xE0 SHL PUSH1 0x0 MSTORE PUSH1 0x32 PUSH1 0x4 MSTORE PUSH1 0x24 PUSH1 0x0 REVERT JUMPDEST DUP3 PUSH2 0x189F JUMP JUMPDEST SWAP1 POP PUSH1 0x20 DUP2 RETURNDATASIZE PUSH1 0x20 GT PUSH2 0x1AA5 JUMPI JUMPDEST DUP2 PUSH2 0x1A95 PUSH1 0x20 SWAP4 DUP4 PUSH2 0x23BA JUMP JUMPDEST DUP2 ADD SUB SLT PUSH2 0x264 JUMPI MLOAD PUSH1 0xA PUSH2 0x1664 JUMP JUMPDEST RETURNDATASIZE SWAP2 POP PUSH2 0x1A88 JUMP JUMPDEST PUSH1 0xFF SWAP2 POP PUSH1 0x8 SHR AND CODESIZE PUSH2 0x1625 JUMP JUMPDEST POP CALLVALUE PUSH2 0x2B6 JUMPI PUSH1 0xA0 CALLDATASIZE PUSH1 0x3 NOT ADD SLT PUSH2 0x2B6 JUMPI PUSH2 0x1AD5 PUSH2 0x22CE JUMP JUMPDEST PUSH1 0x1 PUSH1 0x1 PUSH1 0xA0 SHL SUB PUSH1 0x24 CALLDATALOAD DUP2 DUP2 AND SWAP1 DUP2 SWAP1 SUB PUSH2 0x264 JUMPI PUSH1 0x44 CALLDATALOAD SWAP1 DUP3 DUP3 AND DUP1 SWAP3 SUB PUSH2 0x264 JUMPI PUSH1 0x64 CALLDATALOAD SWAP3 DUP1 DUP5 AND DUP1 SWAP5 SUB PUSH2 0x264 JUMPI PUSH1 0x84 CALLDATALOAD SWAP5 DUP2 DUP7 AND DUP1 SWAP7 SUB PUSH2 0x264 JUMPI PUSH2 0x1B24 DUP3 PUSH1 0x5 SLOAD AND CALLER EQ PUSH2 0x2641 JUMP JUMPDEST AND DUP1 PUSH2 0x1BAB JUMPI JUMPDEST POP DUP1 PUSH2 0x1B92 JUMPI JUMPDEST POP DUP1 PUSH2 0x1B79 JUMPI JUMPDEST POP DUP1 PUSH2 0x1B60 JUMPI JUMPDEST POP DUP1 PUSH2 0x1B4A JUMPI POP DUP1 RETURN JUMPDEST PUSH1 0x1 PUSH1 0x1 PUSH1 0x60 SHL SUB PUSH1 0xA0 SHL PUSH1 0x4 SLOAD AND OR PUSH1 0x4 SSTORE DUP1 RETURN JUMPDEST PUSH1 0x1 PUSH1 0x1 PUSH1 0x60 SHL SUB PUSH1 0xA0 SHL PUSH1 0x3 SLOAD AND OR PUSH1 0x3 SSTORE CODESIZE PUSH2 0x1B40 JUMP JUMPDEST PUSH1 0x1 PUSH1 0x1 PUSH1 0x60 SHL SUB PUSH1 0xA0 SHL PUSH1 0x2 SLOAD AND OR PUSH1 0x2 SSTORE CODESIZE PUSH2 0x1B39 JUMP JUMPDEST PUSH1 0x1 PUSH1 0x1 PUSH1 0x60 SHL SUB PUSH1 0xA0 SHL PUSH1 0x1 SLOAD AND OR PUSH1 0x1 SSTORE CODESIZE PUSH2 0x1B32 JUMP JUMPDEST DUP6 SLOAD PUSH1 0x1 PUSH1 0x1 PUSH1 0xA0 SHL SUB NOT AND OR DUP6 SSTORE CODESIZE PUSH2 0x1B2B JUMP JUMPDEST POP CALLVALUE PUSH2 0x2B6 JUMPI DUP1 PUSH1 0x3 NOT CALLDATASIZE ADD SLT PUSH2 0x2B6 JUMPI PUSH2 0x1BE6 PUSH1 0x1 DUP1 PUSH1 0xA0 SHL SUB PUSH1 0x5 SLOAD AND CALLER EQ PUSH2 0x2641 JUMP JUMPDEST DUP1 RETURN JUMPDEST POP CALLVALUE PUSH2 0x2B6 JUMPI PUSH1 0x3 NOT SWAP1 PUSH1 0x80 CALLDATASIZE DUP4 ADD SLT PUSH2 0x2B6 JUMPI PUSH1 0x1 PUSH1 0x1 PUSH1 0x40 SHL SUB SWAP2 PUSH1 0x4 CALLDATALOAD DUP4 DUP2 GT PUSH2 0x723 JUMPI PUSH2 0x1C1E SWAP1 CALLDATASIZE SWAP1 PUSH1 0x4 ADD PUSH2 0x24EB JUMP JUMPDEST SWAP2 PUSH1 0x24 CALLDATALOAD DUP5 DUP2 GT PUSH2 0x6FC JUMPI PUSH2 0x1C37 SWAP1 CALLDATASIZE SWAP1 PUSH1 0x4 ADD PUSH2 0x24EB JUMP JUMPDEST SWAP4 PUSH1 0x44 CALLDATALOAD SWAP1 DUP2 GT PUSH2 0x6FC JUMPI PUSH2 0x1C50 SWAP1 CALLDATASIZE SWAP1 PUSH1 0x4 ADD PUSH2 0x24EB JUMP JUMPDEST SWAP4 PUSH1 0x64 CALLDATALOAD SWAP5 PUSH1 0x3 DUP7 LT ISZERO PUSH2 0x723 JUMPI CALLER DUP4 MSTORE PUSH1 0x20 SWAP6 PUSH1 0x7 DUP8 MSTORE PUSH2 0x1C78 PUSH1 0xFF PUSH1 0x40 DUP7 KECCAK256 SLOAD AND PUSH2 0x2578 JUMP JUMPDEST CALLER DUP5 MSTORE PUSH1 0x6 DUP8 MSTORE PUSH2 0x1C9B PUSH1 0x5 PUSH1 0x40 DUP7 KECCAK256 ADD SLOAD PUSH1 0xFF DUP2 AND SWAP1 DUP2 ISZERO PUSH2 0x1AAD JUMPI POP PUSH2 0x25BF JUMP JUMPDEST DUP4 SLOAD PUSH1 0x40 MLOAD PUSH4 0x70A08231 PUSH1 0xE0 SHL DUP2 MSTORE CALLER PUSH1 0x4 DUP3 ADD MSTORE PUSH1 0x1 PUSH1 0x1 PUSH1 0xA0 SHL SUB SWAP7 SWAP2 DUP10 SWAP1 DUP3 SWAP1 PUSH1 0x24 SWAP1 DUP3 SWAP1 DUP12 AND GAS STATICCALL SWAP1 DUP2 ISZERO PUSH2 0x2AB JUMPI DUP7 SWAP2 PUSH2 0x1F3F JUMPI JUMPDEST POP PUSH1 0x64 PUSH2 0x1CE3 SWAP2 LT ISZERO PUSH2 0x2601 JUMP JUMPDEST DUP6 PUSH1 0x1 SLOAD AND SWAP3 DUP4 EXTCODESIZE ISZERO PUSH2 0x118F JUMPI DUP6 DUP9 PUSH2 0x1D36 SWAP7 SWAP5 PUSH2 0x1D45 DUP4 SWAP8 SWAP6 PUSH2 0x1D26 SWAP6 PUSH1 0x40 MLOAD SWAP11 DUP12 SWAP10 DUP11 SWAP9 DUP10 SWAP8 PUSH4 0x5B16D25D PUSH1 0xE0 SHL DUP10 MSTORE PUSH1 0xA0 PUSH1 0x4 DUP11 ADD MSTORE PUSH1 0xA4 DUP10 ADD SWAP1 PUSH2 0x24A3 JUMP JUMPDEST SWAP1 DUP5 DUP9 DUP4 SUB ADD PUSH1 0x24 DUP10 ADD MSTORE PUSH2 0x24A3 JUMP JUMPDEST SWAP2 DUP6 DUP4 SUB ADD PUSH1 0x44 DUP7 ADD MSTORE PUSH2 0x24A3 JUMP JUMPDEST SWAP1 PUSH1 0x64 DUP4 ADD MSTORE PUSH3 0x93A80 PUSH1 0x84 DUP4 ADD MSTORE SUB SWAP3 GAS CALL DUP1 ISZERO PUSH2 0x76D JUMPI PUSH2 0x1F30 JUMPI JUMPDEST POP PUSH1 0x1 SLOAD PUSH1 0x40 MLOAD PUSH4 0x1A5007DD PUSH1 0xE0 SHL DUP2 MSTORE SWAP4 SWAP1 DUP4 AND DUP6 DUP6 PUSH1 0x4 DUP2 DUP5 GAS STATICCALL SWAP5 DUP6 ISZERO PUSH2 0x700 JUMPI DUP4 SWAP6 PUSH2 0x1F01 JUMPI JUMPDEST POP CALLER DUP4 MSTORE PUSH1 0x6 DUP7 MSTORE PUSH1 0x5 PUSH1 0x40 DUP5 KECCAK256 ADD SLOAD SWAP4 PUSH1 0x4 SLOAD AND PUSH1 0x40 MLOAD SWAP2 DUP8 DUP4 ADD CALLER PUSH1 0x60 SHL DUP2 MSTORE PUSH8 0x1C1C9BDC1BDCD85B PUSH1 0xC2 SHL SWAP4 DUP5 PUSH1 0x34 DUP3 ADD MSTORE DUP9 PUSH1 0x3C DUP3 ADD MSTORE PUSH1 0x3C DUP2 MSTORE PUSH2 0x1DD6 DUP2 PUSH2 0x234D JUMP JUMPDEST MLOAD SWAP1 KECCAK256 PUSH2 0x1E20 PUSH1 0x32 PUSH1 0x40 MLOAD DUP1 SWAP8 PUSH18 0x283937B837B9B0B61031B932B0BA32B21D1 PUSH1 0x75 SHL DUP14 DUP4 ADD MSTORE PUSH2 0x1E10 DUP14 DUP3 MLOAD SWAP3 DUP4 SWAP2 DUP7 DUP7 ADD SWAP2 ADD PUSH2 0x2480 JUMP JUMPDEST DUP2 ADD SUB PUSH1 0x12 DUP2 ADD DUP9 MSTORE ADD DUP7 PUSH2 0x23BA JUMP JUMPDEST DUP3 EXTCODESIZE ISZERO PUSH2 0x118F JUMPI SWAP1 DUP6 DUP1 SWAP5 SWAP4 SWAP3 PUSH2 0x1E90 PUSH1 0x40 MLOAD SWAP8 DUP9 SWAP7 DUP8 SWAP6 DUP7 SWAP5 PUSH4 0xD407663 PUSH1 0xE4 SHL DUP7 MSTORE PUSH1 0x4 DUP7 ADD MSTORE CALLER PUSH1 0x24 DUP7 ADD MSTORE PUSH1 0x44 DUP6 ADD MSTORE DUP5 PUSH1 0x64 DUP6 ADD MSTORE PUSH1 0xE0 PUSH1 0x84 DUP6 ADD MSTORE DUP5 PUSH1 0xE4 DUP6 ADD MSTORE PUSH2 0x100 PUSH1 0xA4 DUP6 ADD MSTORE PUSH1 0x8 PUSH2 0x104 DUP6 ADD MSTORE PUSH2 0x124 DUP5 ADD MSTORE PUSH2 0x140 PUSH1 0xC4 DUP5 ADD MSTORE PUSH2 0x144 DUP4 ADD SWAP1 PUSH2 0x24A3 JUMP JUMPDEST SUB SWAP3 GAS CALL DUP1 ISZERO PUSH2 0x76D JUMPI PUSH2 0x1EED JUMPI JUMPDEST POP POP PUSH1 0xFF PUSH1 0x40 MLOAD SWAP2 DUP2 DUP2 AND ISZERO ISZERO DUP4 MSTORE PUSH1 0x8 SHR AND ISZERO ISZERO DUP4 DUP3 ADD MSTORE TIMESTAMP PUSH1 0x40 DUP3 ADD MSTORE DUP2 PUSH32 0x936EC8DE65A4134B88A7B455A2AA4C6B4409EB9CDE1C5BB2D395D4C60A91655B PUSH1 0x60 CALLER SWAP4 LOG3 PUSH1 0x40 MLOAD SWAP1 DUP2 MSTORE RETURN JUMPDEST PUSH2 0x1EF7 DUP3 SWAP2 PUSH2 0x233A JUMP JUMPDEST PUSH2 0x2B6 JUMPI DUP1 PUSH2 0x1E9F JUMP JUMPDEST SWAP1 SWAP5 POP DUP6 DUP2 DUP2 RETURNDATASIZE DUP4 GT PUSH2 0x1F29 JUMPI JUMPDEST PUSH2 0x1F19 DUP2 DUP4 PUSH2 0x23BA JUMP JUMPDEST DUP2 ADD SUB SLT PUSH2 0x264 JUMPI MLOAD SWAP4 CODESIZE PUSH2 0x1D8E JUMP JUMPDEST POP RETURNDATASIZE PUSH2 0x1F0F JUMP JUMPDEST PUSH2 0x1F39 SWAP1 PUSH2 0x233A JUMP JUMPDEST CODESIZE PUSH2 0x1D63 JUMP JUMPDEST SWAP1 POP DUP9 DUP2 DUP2 RETURNDATASIZE DUP4 GT PUSH2 0x1F66 JUMPI JUMPDEST PUSH2 0x1F56 DUP2 DUP4 PUSH2 0x23BA JUMP JUMPDEST DUP2 ADD SUB SLT PUSH2 0x118F JUMPI MLOAD PUSH1 0x64 PUSH2 0x1CD5 JUMP JUMPDEST POP RETURNDATASIZE PUSH2 0x1F4C JUMP JUMPDEST POP CALLVALUE PUSH2 0x2B6 JUMPI PUSH1 0x20 CALLDATASIZE PUSH1 0x3 NOT ADD SLT PUSH2 0x2B6 JUMPI PUSH1 0x40 PUSH2 0x215D SWAP2 PUSH2 0x1F8D PUSH2 0x22CE JUMP JUMPDEST PUSH1 0x60 PUSH2 0x120 DUP5 MLOAD PUSH2 0x1F9D DUP2 PUSH2 0x231E JUMP JUMPDEST DUP5 DUP2 MSTORE DUP3 PUSH1 0x20 DUP3 ADD MSTORE DUP3 DUP7 DUP3 ADD MSTORE DUP5 DUP4 DUP3 ADD MSTORE DUP5 PUSH1 0x80 DUP3 ADD MSTORE DUP5 PUSH1 0xA0 DUP3 ADD MSTORE DUP5 PUSH1 0xC0 DUP3 ADD MSTORE DUP5 PUSH1 0xE0 DUP3 ADD MSTORE DUP3 PUSH2 0x100 DUP3 ADD MSTORE ADD MSTORE PUSH1 0x1 DUP1 PUSH1 0xA0 SHL SUB AND DUP1 DUP3 MSTORE PUSH1 0x7 PUSH1 0x20 MSTORE PUSH2 0x1FF0 PUSH1 0xFF DUP5 DUP5 KECCAK256 SLOAD AND PUSH2 0x2578 JUMP JUMPDEST DUP2 MSTORE PUSH1 0x6 PUSH1 0x20 MSTORE KECCAK256 PUSH2 0x2098 PUSH1 0x7 PUSH1 0x40 MLOAD SWAP3 PUSH2 0x200A DUP5 PUSH2 0x231E JUMP JUMPDEST DUP1 SLOAD PUSH1 0x1 PUSH1 0x1 PUSH1 0xA0 SHL SUB AND DUP5 MSTORE PUSH2 0x2023 PUSH1 0x1 DUP3 ADD PUSH2 0x23DB JUMP JUMPDEST PUSH1 0x20 DUP6 ADD MSTORE PUSH2 0x2034 PUSH1 0x2 DUP3 ADD PUSH2 0x23DB JUMP JUMPDEST PUSH1 0x40 DUP6 ADD MSTORE PUSH2 0x204D PUSH1 0xFF PUSH1 0x3 DUP4 ADD SLOAD AND PUSH1 0x60 DUP7 ADD PUSH2 0x25B3 JUMP JUMPDEST PUSH1 0x4 DUP2 ADD SLOAD PUSH1 0x80 DUP6 ADD MSTORE PUSH1 0xFF PUSH1 0x5 DUP3 ADD SLOAD DUP2 DUP2 AND ISZERO ISZERO PUSH1 0xA0 DUP8 ADD MSTORE DUP2 DUP2 PUSH1 0x8 SHR AND ISZERO ISZERO PUSH1 0xC0 DUP8 ADD MSTORE PUSH1 0x10 SHR AND ISZERO ISZERO PUSH1 0xE0 DUP6 ADD MSTORE PUSH2 0x208C PUSH1 0x6 DUP3 ADD PUSH2 0x23DB JUMP JUMPDEST PUSH2 0x100 DUP6 ADD MSTORE ADD PUSH2 0x23DB JUMP JUMPDEST PUSH2 0x120 DUP3 ADD MSTORE PUSH1 0x40 MLOAD SWAP2 DUP3 SWAP2 PUSH1 0x20 DUP4 MSTORE PUSH1 0x1 DUP1 PUSH1 0xA0 SHL SUB DUP2 MLOAD AND PUSH1 0x20 DUP5 ADD MSTORE PUSH1 0x20 DUP2 ADD MLOAD PUSH2 0x20D4 PUSH2 0x140 SWAP2 DUP3 PUSH1 0x40 DUP8 ADD MSTORE PUSH2 0x160 DUP7 ADD SWAP1 PUSH2 0x24A3 JUMP JUMPDEST SWAP1 PUSH2 0x120 PUSH2 0x214C PUSH2 0x20F7 PUSH1 0x40 DUP7 ADD MLOAD SWAP5 PUSH1 0x1F NOT SWAP6 DUP7 DUP11 DUP4 SUB ADD PUSH1 0x60 DUP12 ADD MSTORE PUSH2 0x24A3 JUMP JUMPDEST PUSH2 0x2109 PUSH1 0x60 DUP8 ADD MLOAD PUSH1 0x80 DUP11 ADD SWAP1 PUSH2 0x24C8 JUMP JUMPDEST PUSH1 0x80 DUP7 ADD MLOAD PUSH1 0xA0 DUP10 ADD MSTORE PUSH1 0xA0 DUP7 ADD MLOAD ISZERO ISZERO PUSH1 0xC0 DUP10 ADD MSTORE PUSH1 0xC0 DUP7 ADD MLOAD ISZERO ISZERO PUSH1 0xE0 DUP10 ADD MSTORE PUSH1 0xE0 DUP7 ADD MLOAD ISZERO ISZERO PUSH2 0x100 DUP10 ADD MSTORE PUSH2 0x100 DUP7 ADD MLOAD DUP6 DUP10 DUP4 SUB ADD DUP5 DUP11 ADD MSTORE PUSH2 0x24A3 JUMP JUMPDEST SWAP4 ADD MLOAD SWAP2 DUP6 DUP5 SUB ADD SWAP1 DUP6 ADD MSTORE PUSH2 0x24A3 JUMP JUMPDEST SUB SWAP1 RETURN JUMPDEST POP CALLVALUE PUSH2 0x2B6 JUMPI DUP1 PUSH1 0x3 NOT CALLDATASIZE ADD SLT PUSH2 0x2B6 JUMPI PUSH1 0x20 PUSH1 0x40 MLOAD PUSH1 0xA DUP2 MSTORE RETURN JUMPDEST POP CALLVALUE PUSH2 0x2B6 JUMPI DUP1 PUSH1 0x3 NOT CALLDATASIZE ADD SLT PUSH2 0x2B6 JUMPI PUSH1 0x3 SLOAD PUSH1 0x40 MLOAD PUSH1 0x1 PUSH1 0x1 PUSH1 0xA0 SHL SUB SWAP1 SWAP2 AND DUP2 MSTORE PUSH1 0x20 SWAP1 RETURN JUMPDEST POP CALLVALUE PUSH2 0x2B6 JUMPI PUSH1 0x20 CALLDATASIZE PUSH1 0x3 NOT ADD SLT PUSH2 0x2B6 JUMPI PUSH1 0x1 PUSH1 0x1 PUSH1 0xA0 SHL SUB SWAP1 PUSH1 0x40 SWAP1 DUP3 PUSH2 0x21CD PUSH2 0x22CE JUMP JUMPDEST AND DUP2 MSTORE PUSH1 0x6 PUSH1 0x20 MSTORE KECCAK256 SWAP1 DUP2 SLOAD AND PUSH2 0x215D PUSH2 0x21E9 PUSH1 0x1 DUP5 ADD PUSH2 0x23DB JUMP JUMPDEST SWAP3 PUSH2 0x229A PUSH2 0x21F9 PUSH1 0x2 DUP4 ADD PUSH2 0x23DB JUMP JUMPDEST SWAP2 PUSH1 0xFF PUSH1 0x3 DUP3 ADD SLOAD AND SWAP1 PUSH1 0xFF PUSH1 0x4 DUP3 ADD SLOAD PUSH1 0x5 DUP4 ADD SLOAD SWAP1 PUSH2 0x2265 PUSH2 0x225A PUSH2 0x222E PUSH1 0x7 PUSH2 0x2227 PUSH1 0x6 DUP10 ADD PUSH2 0x23DB JUMP JUMPDEST SWAP8 ADD PUSH2 0x23DB JUMP JUMPDEST SWAP9 PUSH2 0x224C PUSH1 0x40 MLOAD SWAP14 DUP15 SWAP14 DUP15 PUSH2 0x140 SWAP2 DUP2 MSTORE DUP2 PUSH1 0x20 DUP3 ADD MSTORE ADD SWAP1 PUSH2 0x24A3 JUMP JUMPDEST DUP13 DUP2 SUB PUSH1 0x40 DUP15 ADD MSTORE SWAP1 PUSH2 0x24A3 JUMP JUMPDEST SWAP6 PUSH1 0x60 DUP12 ADD SWAP1 PUSH2 0x24C8 JUMP JUMPDEST PUSH1 0x80 DUP10 ADD MSTORE DUP2 DUP2 AND ISZERO ISZERO PUSH1 0xA0 DUP10 ADD MSTORE DUP2 DUP2 PUSH1 0x8 SHR AND ISZERO ISZERO PUSH1 0xC0 DUP10 ADD MSTORE PUSH1 0x10 SHR AND ISZERO ISZERO PUSH1 0xE0 DUP8 ADD MSTORE DUP6 DUP3 SUB PUSH2 0x100 DUP8 ADD MSTORE PUSH2 0x24A3 JUMP JUMPDEST SWAP1 DUP4 DUP3 SUB PUSH2 0x120 DUP6 ADD MSTORE PUSH2 0x24A3 JUMP JUMPDEST SWAP1 POP CALLVALUE PUSH2 0x6FC JUMPI DUP2 PUSH1 0x3 NOT CALLDATASIZE ADD SLT PUSH2 0x6FC JUMPI PUSH1 0x4 SLOAD PUSH1 0x1 PUSH1 0x1 PUSH1 0xA0 SHL SUB AND DUP2 MSTORE PUSH1 0x20 SWAP1 RETURN JUMPDEST PUSH1 0x4 CALLDATALOAD SWAP1 PUSH1 0x1 PUSH1 0x1 PUSH1 0xA0 SHL SUB DUP3 AND DUP3 SUB PUSH2 0x264 JUMPI JUMP JUMPDEST SWAP1 PUSH1 0x1 DUP3 DUP2 SHR SWAP3 AND DUP1 ISZERO PUSH2 0x2314 JUMPI JUMPDEST PUSH1 0x20 DUP4 LT EQ PUSH2 0x22FE JUMPI JUMP JUMPDEST PUSH4 0x4E487B71 PUSH1 0xE0 SHL PUSH1 0x0 MSTORE PUSH1 0x22 PUSH1 0x4 MSTORE PUSH1 0x24 PUSH1 0x0 REVERT JUMPDEST SWAP2 PUSH1 0x7F AND SWAP2 PUSH2 0x22F3 JUMP JUMPDEST PUSH2 0x140 DUP2 ADD SWAP1 DUP2 LT PUSH1 0x1 PUSH1 0x1 PUSH1 0x40 SHL SUB DUP3 GT OR PUSH2 0x78F JUMPI PUSH1 0x40 MSTORE JUMP JUMPDEST PUSH1 0x1 PUSH1 0x1 PUSH1 0x40 SHL SUB DUP2 GT PUSH2 0x78F JUMPI PUSH1 0x40 MSTORE JUMP JUMPDEST PUSH1 0x60 DUP2 ADD SWAP1 DUP2 LT PUSH1 0x1 PUSH1 0x1 PUSH1 0x40 SHL SUB DUP3 GT OR PUSH2 0x78F JUMPI PUSH1 0x40 MSTORE JUMP JUMPDEST PUSH1 0x80 DUP2 ADD SWAP1 DUP2 LT PUSH1 0x1 PUSH1 0x1 PUSH1 0x40 SHL SUB DUP3 GT OR PUSH2 0x78F JUMPI PUSH1 0x40 MSTORE JUMP JUMPDEST PUSH2 0x100 DUP2 ADD SWAP1 DUP2 LT PUSH1 0x1 PUSH1 0x1 PUSH1 0x40 SHL SUB DUP3 GT OR PUSH2 0x78F JUMPI PUSH1 0x40 MSTORE JUMP JUMPDEST PUSH1 0x40 DUP2 ADD SWAP1 DUP2 LT PUSH1 0x1 PUSH1 0x1 PUSH1 0x40 SHL SUB DUP3 GT OR PUSH2 0x78F JUMPI PUSH1 0x40 MSTORE JUMP JUMPDEST SWAP1 PUSH1 0x1F DUP1 NOT SWAP2 ADD AND DUP2 ADD SWAP1 DUP2 LT PUSH1 0x1 PUSH1 0x1 PUSH1 0x40 SHL SUB DUP3 GT OR PUSH2 0x78F JUMPI PUSH1 0x40 MSTORE JUMP JUMPDEST SWAP1 PUSH1 0x40 MLOAD SWAP2 DUP3 PUSH1 0x0 DUP3 SLOAD PUSH2 0x23EE DUP2 PUSH2 0x22E4 JUMP JUMPDEST SWAP1 DUP2 DUP5 MSTORE PUSH1 0x20 SWAP5 PUSH1 0x1 SWAP2 PUSH1 0x1 DUP2 AND SWAP1 DUP2 PUSH1 0x0 EQ PUSH2 0x245E JUMPI POP PUSH1 0x1 EQ PUSH2 0x241F JUMPI JUMPDEST POP POP POP PUSH2 0x241D SWAP3 POP SUB DUP4 PUSH2 0x23BA JUMP JUMPDEST JUMP JUMPDEST PUSH1 0x0 SWAP1 DUP2 MSTORE DUP6 DUP2 KECCAK256 SWAP6 SWAP4 POP SWAP2 SWAP1 JUMPDEST DUP2 DUP4 LT PUSH2 0x2446 JUMPI POP POP PUSH2 0x241D SWAP4 POP DUP3 ADD ADD CODESIZE DUP1 DUP1 PUSH2 0x240E JUMP JUMPDEST DUP6 SLOAD DUP9 DUP5 ADD DUP6 ADD MSTORE SWAP5 DUP6 ADD SWAP5 DUP8 SWAP5 POP SWAP2 DUP4 ADD SWAP2 PUSH2 0x242D JUMP JUMPDEST SWAP3 POP POP POP PUSH2 0x241D SWAP5 SWAP3 POP PUSH1 0xFF NOT AND DUP3 DUP5 ADD MSTORE ISZERO ISZERO PUSH1 0x5 SHL DUP3 ADD ADD CODESIZE DUP1 DUP1 PUSH2 0x240E JUMP JUMPDEST PUSH1 0x0 JUMPDEST DUP4 DUP2 LT PUSH2 0x2493 JUMPI POP POP PUSH1 0x0 SWAP2 ADD MSTORE JUMP JUMPDEST DUP2 DUP2 ADD MLOAD DUP4 DUP3 ADD MSTORE PUSH1 0x20 ADD PUSH2 0x2483 JUMP JUMPDEST SWAP1 PUSH1 0x20 SWAP2 PUSH2 0x24BC DUP2 MLOAD DUP1 SWAP3 DUP2 DUP6 MSTORE DUP6 DUP1 DUP7 ADD SWAP2 ADD PUSH2 0x2480 JUMP JUMPDEST PUSH1 0x1F ADD PUSH1 0x1F NOT AND ADD ADD SWAP1 JUMP JUMPDEST SWAP1 PUSH1 0x4 DUP3 LT ISZERO PUSH2 0x24D5 JUMPI MSTORE JUMP JUMPDEST PUSH4 0x4E487B71 PUSH1 0xE0 SHL PUSH1 0x0 MSTORE PUSH1 0x21 PUSH1 0x4 MSTORE PUSH1 0x24 PUSH1 0x0 REVERT JUMPDEST DUP2 PUSH1 0x1F DUP3 ADD SLT ISZERO PUSH2 0x264 JUMPI DUP1 CALLDATALOAD SWAP1 PUSH1 0x1 PUSH1 0x1 PUSH1 0x40 SHL SUB DUP3 GT PUSH2 0x78F JUMPI PUSH1 0x40 MLOAD SWAP3 PUSH2 0x251F PUSH1 0x1F DUP5 ADD PUSH1 0x1F NOT AND PUSH1 0x20 ADD DUP6 PUSH2 0x23BA JUMP JUMPDEST DUP3 DUP5 MSTORE PUSH1 0x20 DUP4 DUP4 ADD ADD GT PUSH2 0x264 JUMPI DUP2 PUSH1 0x0 SWAP3 PUSH1 0x20 DUP1 SWAP4 ADD DUP4 DUP7 ADD CALLDATACOPY DUP4 ADD ADD MSTORE SWAP1 JUMP JUMPDEST PUSH1 0x8 SLOAD DUP2 LT ISZERO PUSH2 0x1A5E JUMPI PUSH1 0x8 PUSH1 0x0 MSTORE PUSH32 0xF3F7A9FE364FAAB93B216DA50A3214154F22A0A2B415B23A84C8169E8B636EE3 ADD SWAP1 PUSH1 0x0 SWAP1 JUMP JUMPDEST ISZERO PUSH2 0x257F JUMPI JUMP JUMPDEST PUSH1 0x40 MLOAD PUSH3 0x461BCD PUSH1 0xE5 SHL DUP2 MSTORE PUSH1 0x20 PUSH1 0x4 DUP3 ADD MSTORE PUSH1 0xC PUSH1 0x24 DUP3 ADD MSTORE PUSH12 0x2737BA10309036B2B6B132B9 PUSH1 0xA1 SHL PUSH1 0x44 DUP3 ADD MSTORE PUSH1 0x64 SWAP1 REVERT JUMPDEST PUSH1 0x4 DUP3 LT ISZERO PUSH2 0x24D5 JUMPI MSTORE JUMP JUMPDEST ISZERO PUSH2 0x25C6 JUMPI JUMP JUMPDEST PUSH1 0x40 MLOAD PUSH3 0x461BCD PUSH1 0xE5 SHL DUP2 MSTORE PUSH1 0x20 PUSH1 0x4 DUP3 ADD MSTORE PUSH1 0x13 PUSH1 0x24 DUP3 ADD MSTORE PUSH19 0x13595B58995C881B9BDD081D995C9A599A5959 PUSH1 0x6A SHL PUSH1 0x44 DUP3 ADD MSTORE PUSH1 0x64 SWAP1 REVERT JUMPDEST ISZERO PUSH2 0x2608 JUMPI JUMP JUMPDEST PUSH1 0x40 MLOAD PUSH3 0x461BCD PUSH1 0xE5 SHL DUP2 MSTORE PUSH1 0x20 PUSH1 0x4 DUP3 ADD MSTORE PUSH1 0x11 PUSH1 0x24 DUP3 ADD MSTORE PUSH17 0x125B9CDD59999A58DA595B9D0814D51055 PUSH1 0x7A SHL PUSH1 0x44 DUP3 ADD MSTORE PUSH1 0x64 SWAP1 REVERT JUMPDEST ISZERO PUSH2 0x2648 JUMPI JUMP JUMPDEST PUSH1 0x40 MLOAD PUSH3 0x461BCD PUSH1 0xE5 SHL DUP2 MSTORE PUSH1 0x20 PUSH1 0x4 DUP3 ADD MSTORE PUSH1 0x21 PUSH1 0x24 DUP3 ADD MSTORE PUSH32 0x4F6E6C792061646D696E2063616E2063616C6C20746869732066756E6374696F PUSH1 0x44 DUP3 ADD MSTORE PUSH1 0x37 PUSH1 0xF9 SHL PUSH1 0x64 DUP3 ADD MSTORE PUSH1 0x84 SWAP1 REVERT JUMPDEST PUSH1 0x0 SWAP2 JUMPDEST PUSH1 0x8 DUP4 LT PUSH2 0x26A8 JUMPI POP POP POP JUMP JUMPDEST PUSH1 0x1 SWAP1 DUP3 MLOAD DUP2 MSTORE PUSH1 0x20 DUP1 SWAP2 ADD SWAP3 ADD SWAP3 ADD SWAP2 SWAP1 PUSH2 0x269B JUMP JUMPDEST SWAP1 DUP2 MLOAD DUP1 DUP3 MSTORE PUSH1 0x20 DUP1 DUP1 SWAP4 ADD SWAP4 ADD SWAP2 PUSH1 0x0 JUMPDEST DUP3 DUP2 LT PUSH2 0x26DF JUMPI POP POP POP POP SWAP1 JUMP JUMPDEST DUP4 MLOAD DUP6 MSTORE SWAP4 DUP2 ADD SWAP4 SWAP3 DUP2 ADD SWAP3 PUSH1 0x1 ADD PUSH2 0x26D1 JUMP JUMPDEST ISZERO PUSH2 0x26FA JUMPI JUMP JUMPDEST PUSH1 0x40 MLOAD PUSH3 0x461BCD PUSH1 0xE5 SHL DUP2 MSTORE PUSH1 0x20 PUSH1 0x4 DUP3 ADD MSTORE PUSH1 0x23 PUSH1 0x24 DUP3 ADD MSTORE PUSH32 0x4F6E6C79206D656D626572732063616E2063616C6C20746869732066756E6374 PUSH1 0x44 DUP3 ADD MSTORE PUSH3 0x34B7B7 PUSH1 0xE9 SHL PUSH1 0x64 DUP3 ADD MSTORE PUSH1 0x84 SWAP1 REVERT JUMPDEST PUSH1 0x0 NOT DUP2 EQ PUSH2 0x275A JUMPI PUSH1 0x1 ADD SWAP1 JUMP JUMPDEST PUSH4 0x4E487B71 PUSH1 0xE0 SHL PUSH1 0x0 MSTORE PUSH1 0x11 PUSH1 0x4 MSTORE PUSH1 0x24 PUSH1 0x0 REVERT JUMPDEST PUSH1 0x4 DUP2 LT ISZERO PUSH2 0x24D5 JUMPI PUSH1 0x3 DUP2 EQ PUSH2 0x2802 JUMPI PUSH1 0x2 DUP2 EQ PUSH2 0x27D7 JUMPI PUSH1 0x1 EQ PUSH2 0x27B2 JUMPI PUSH1 0x40 MLOAD PUSH2 0x279C DUP2 PUSH2 0x239F JUMP JUMPDEST PUSH1 0x6 DUP2 MSTORE PUSH6 0x26A2A6A122A9 PUSH1 0xD1 SHL PUSH1 0x20 DUP3 ADD MSTORE SWAP1 JUMP JUMPDEST PUSH1 0x40 MLOAD PUSH2 0x27BE DUP2 PUSH2 0x239F JUMP JUMPDEST PUSH1 0x9 DUP2 MSTORE PUSH9 0x434F52455F5445414D PUSH1 0xB8 SHL PUSH1 0x20 DUP3 ADD MSTORE SWAP1 JUMP JUMPDEST POP PUSH1 0x40 MLOAD PUSH2 0x27E4 DUP2 PUSH2 0x239F JUMP JUMPDEST PUSH1 0xE DUP2 MSTORE PUSH14 0x159250D157D4149154D251115395 PUSH1 0x92 SHL PUSH1 0x20 DUP3 ADD MSTORE SWAP1 JUMP JUMPDEST POP PUSH1 0x40 MLOAD PUSH2 0x280F DUP2 PUSH2 0x239F JUMP JUMPDEST PUSH1 0x9 DUP2 MSTORE PUSH9 0x14149154D251115395 PUSH1 0xBA SHL PUSH1 0x20 DUP3 ADD MSTORE SWAP1 JUMP INVALID LOG2 PUSH5 0x6970667358 0x22 SLT KECCAK256 0x4D 0xBB 0xE5 0xDD CALL 0x29 0xC4 PUSH13 0xF344AA9676703747A9C78B10DF DIV KECCAK256 PUSH3 0x235297 LOG0 0xB7 PUSH20 0x3C9564736F6C634300081800336080346200090C JUMPI PUSH1 0x1F PUSH3 0x3038 CODESIZE DUP2 SWAP1 SUB SWAP2 DUP3 ADD PUSH1 0x1F NOT AND DUP4 ADD SWAP2 PUSH1 0x1 PUSH1 0x1 PUSH1 0x40 SHL SUB DUP4 GT DUP5 DUP5 LT OR PUSH3 0x578 JUMPI DUP1 DUP5 SWAP3 PUSH1 0x20 SWAP5 PUSH1 0x40 MSTORE DUP4 CODECOPY DUP2 ADD SUB SLT PUSH3 0x90C JUMPI MLOAD PUSH1 0x1 PUSH1 0x1 PUSH1 0xA0 SHL SUB DUP2 AND SWAP1 DUP2 SWAP1 SUB PUSH3 0x90C JUMPI PUSH1 0x5 DUP1 SLOAD PUSH1 0x1 PUSH1 0x1 PUSH1 0xA0 SHL SUB NOT SWAP1 DUP2 AND CALLER OR SWAP1 SWAP2 SSTORE PUSH1 0x6 DUP1 SLOAD SWAP1 SWAP2 AND SWAP2 SWAP1 SWAP2 OR SWAP1 SSTORE PUSH1 0x0 PUSH1 0x7 SSTORE PUSH3 0x87 PUSH3 0x911 JUMP JUMPDEST PUSH1 0x0 DUP2 MSTORE PUSH3 0x95 PUSH3 0x931 JUMP JUMPDEST PUSH1 0x12 DUP2 MSTORE PUSH18 0x426C6F636B73636F75745265676973747279 PUSH1 0x70 SHL PUSH1 0x20 DUP3 ADD MSTORE PUSH1 0x40 MLOAD SWAP1 SWAP2 SWAP1 PUSH1 0x60 DUP2 ADD PUSH1 0x1 PUSH1 0x1 PUSH1 0x40 SHL SUB DUP2 GT DUP3 DUP3 LT OR PUSH3 0x578 JUMPI PUSH1 0x40 MSTORE PUSH1 0x21 DUP2 MSTORE PUSH32 0x5472616E73706172656E637920726567697374727920666F7220475455204441 PUSH1 0x20 DUP3 ADD MSTORE PUSH1 0x4F PUSH1 0xF8 SHL PUSH1 0x40 DUP3 ADD MSTORE PUSH3 0x112 PUSH3 0x931 JUMP JUMPDEST SWAP2 PUSH1 0x5 DUP4 MSTORE PUSH5 0x312E302E3 PUSH1 0xDC SHL PUSH1 0x20 DUP5 ADD MSTORE ADDRESS PUSH1 0x0 MSTORE PUSH1 0x1 PUSH1 0x20 MSTORE PUSH1 0x4 PUSH1 0x40 PUSH1 0x0 KECCAK256 ADD SLOAD PUSH3 0x8C7 JUMPI PUSH1 0x40 MLOAD SWAP2 PUSH1 0x1 PUSH1 0x1 PUSH1 0x40 SHL SUB PUSH2 0x100 DUP5 ADD SWAP1 DUP2 GT SWAP1 DUP5 GT OR PUSH3 0x578 JUMPI PUSH2 0x100 DUP4 ADD PUSH1 0x40 MSTORE DUP5 DUP4 MSTORE PUSH1 0x20 DUP4 ADD MSTORE DUP3 PUSH1 0x40 DUP4 ADD MSTORE ADDRESS PUSH1 0x60 DUP4 ADD MSTORE NUMBER PUSH1 0x80 DUP4 ADD MSTORE PUSH3 0x185 PUSH3 0x911 JUMP JUMPDEST PUSH1 0x0 DUP2 MSTORE PUSH1 0xA0 DUP4 ADD MSTORE PUSH1 0x0 PUSH1 0xC0 DUP4 ADD MSTORE PUSH1 0xE0 DUP3 ADD MSTORE ADDRESS PUSH1 0x0 MSTORE PUSH1 0x1 PUSH1 0x20 MSTORE PUSH1 0x40 PUSH1 0x0 KECCAK256 DUP2 MLOAD DUP1 MLOAD SWAP1 PUSH1 0x1 DUP1 PUSH1 0x40 SHL SUB DUP3 GT PUSH3 0x578 JUMPI PUSH3 0x1C7 DUP4 SLOAD PUSH3 0x951 JUMP JUMPDEST PUSH1 0x1F DUP2 GT PUSH3 0x891 JUMPI JUMPDEST POP PUSH1 0x20 SWAP1 PUSH1 0x1F DUP4 GT PUSH1 0x1 EQ PUSH3 0x820 JUMPI PUSH3 0x206 SWAP3 SWAP2 PUSH1 0x0 SWAP2 DUP4 PUSH3 0x4B5 JUMPI JUMPDEST POP POP DUP2 PUSH1 0x1 SHL SWAP2 PUSH1 0x0 NOT SWAP1 PUSH1 0x3 SHL SHR NOT AND OR SWAP1 JUMP JUMPDEST DUP2 SSTORE JUMPDEST PUSH1 0x20 DUP3 ADD MLOAD DUP1 MLOAD SWAP1 PUSH1 0x1 PUSH1 0x1 PUSH1 0x40 SHL SUB DUP3 GT PUSH3 0x578 JUMPI PUSH3 0x22F PUSH1 0x1 DUP5 ADD SLOAD PUSH3 0x951 JUMP JUMPDEST PUSH1 0x1F DUP2 GT PUSH3 0x7E7 JUMPI JUMPDEST POP PUSH1 0x20 SWAP1 PUSH1 0x1F DUP4 GT PUSH1 0x1 EQ PUSH3 0x770 JUMPI PUSH3 0x26D SWAP3 SWAP2 PUSH1 0x0 SWAP2 DUP4 PUSH3 0x4B5 JUMPI POP POP DUP2 PUSH1 0x1 SHL SWAP2 PUSH1 0x0 NOT SWAP1 PUSH1 0x3 SHL SHR NOT AND OR SWAP1 JUMP JUMPDEST PUSH1 0x1 DUP3 ADD SSTORE JUMPDEST PUSH1 0x40 DUP3 ADD MLOAD DUP1 MLOAD SWAP1 PUSH1 0x1 PUSH1 0x1 PUSH1 0x40 SHL SUB DUP3 GT PUSH3 0x578 JUMPI PUSH3 0x299 PUSH1 0x2 DUP5 ADD SLOAD PUSH3 0x951 JUMP JUMPDEST PUSH1 0x1F DUP2 GT PUSH3 0x737 JUMPI JUMPDEST POP PUSH1 0x20 SWAP1 PUSH1 0x1F DUP4 GT PUSH1 0x1 EQ PUSH3 0x6C0 JUMPI PUSH3 0x2D7 SWAP3 SWAP2 PUSH1 0x0 SWAP2 DUP4 PUSH3 0x4B5 JUMPI POP POP DUP2 PUSH1 0x1 SHL SWAP2 PUSH1 0x0 NOT SWAP1 PUSH1 0x3 SHL SHR NOT AND OR SWAP1 JUMP JUMPDEST PUSH1 0x2 DUP3 ADD SSTORE JUMPDEST PUSH1 0x60 DUP3 ADD MLOAD PUSH1 0x3 DUP3 ADD DUP1 SLOAD PUSH1 0x1 PUSH1 0x1 PUSH1 0xA0 SHL SUB NOT AND PUSH1 0x1 PUSH1 0x1 PUSH1 0xA0 SHL SUB SWAP3 SWAP1 SWAP3 AND SWAP2 SWAP1 SWAP2 OR SWAP1 SSTORE PUSH1 0x80 DUP3 ADD MLOAD PUSH1 0x4 DUP3 ADD SSTORE PUSH1 0xA0 DUP3 ADD MLOAD DUP1 MLOAD SWAP1 PUSH1 0x1 PUSH1 0x1 PUSH1 0x40 SHL SUB DUP3 GT PUSH3 0x578 JUMPI PUSH3 0x334 PUSH1 0x5 DUP5 ADD SLOAD PUSH3 0x951 JUMP JUMPDEST PUSH1 0x1F DUP2 GT PUSH3 0x687 JUMPI JUMPDEST POP PUSH1 0x20 SWAP1 PUSH1 0x1F DUP4 GT PUSH1 0x1 EQ PUSH3 0x60D JUMPI DUP3 PUSH1 0x7 SWAP4 PUSH1 0xE0 SWAP6 SWAP4 PUSH3 0x378 SWAP4 PUSH1 0x0 SWAP3 PUSH3 0x4B5 JUMPI POP POP DUP2 PUSH1 0x1 SHL SWAP2 PUSH1 0x0 NOT SWAP1 PUSH1 0x3 SHL SHR NOT AND OR SWAP1 JUMP JUMPDEST PUSH1 0x5 DUP3 ADD SSTORE JUMPDEST PUSH1 0x6 DUP2 ADD PUSH1 0xC0 DUP6 ADD MLOAD ISZERO ISZERO PUSH1 0xFF DUP1 NOT DUP4 SLOAD AND SWAP2 AND OR SWAP1 SSTORE ADD SWAP2 ADD MLOAD DUP1 MLOAD SWAP1 PUSH9 0x10000000000000000 DUP3 GT PUSH3 0x578 JUMPI DUP3 SLOAD DUP3 DUP5 SSTORE DUP1 DUP4 LT PUSH3 0x58E JUMPI JUMPDEST POP PUSH1 0x20 ADD SWAP2 PUSH1 0x0 MSTORE PUSH1 0x20 PUSH1 0x0 KECCAK256 SWAP2 PUSH1 0x0 SWAP1 JUMPDEST DUP3 DUP3 LT PUSH3 0x43F JUMPI DUP6 PUSH32 0x579EF2EDBCAB574DD08E96AE9C9AB7F9C3F82C08B575C573470D9AE7EC3512D1 PUSH3 0x422 DUP8 PUSH3 0x413 PUSH1 0x40 MLOAD SWAP5 PUSH1 0x60 DUP7 MSTORE PUSH1 0x60 DUP7 ADD SWAP1 PUSH3 0x9A7 JUMP JUMPDEST SWAP1 DUP5 DUP3 SUB PUSH1 0x20 DUP7 ADD MSTORE PUSH3 0x9A7 JUMP JUMPDEST SWAP2 NUMBER PUSH1 0x40 DUP3 ADD MSTORE DUP1 ADDRESS SWAP4 SUB SWAP1 LOG2 PUSH1 0x40 MLOAD PUSH2 0x264E SWAP1 DUP2 PUSH3 0x9EA DUP3 CODECOPY RETURN JUMPDEST DUP1 MLOAD DUP1 MLOAD SWAP1 PUSH1 0x1 PUSH1 0x1 PUSH1 0x40 SHL SUB DUP3 GT PUSH3 0x578 JUMPI PUSH3 0x45F DUP7 SLOAD PUSH3 0x951 JUMP JUMPDEST PUSH1 0x1F DUP2 GT PUSH3 0x536 JUMPI JUMPDEST POP PUSH1 0x20 SWAP1 PUSH1 0x1F DUP4 GT PUSH1 0x1 EQ PUSH3 0x4C1 JUMPI SWAP3 PUSH3 0x4A5 DUP4 PUSH1 0x1 SWAP6 SWAP5 PUSH1 0x20 SWAP5 DUP8 SWAP7 PUSH1 0x0 SWAP3 PUSH3 0x4B5 JUMPI POP POP DUP2 PUSH1 0x1 SHL SWAP2 PUSH1 0x0 NOT SWAP1 PUSH1 0x3 SHL SHR NOT AND OR SWAP1 JUMP JUMPDEST DUP8 SSTORE JUMPDEST ADD SWAP5 ADD SWAP2 ADD SWAP1 SWAP3 PUSH3 0x3CD JUMP JUMPDEST ADD MLOAD SWAP1 POP CODESIZE DUP1 PUSH3 0x1F1 JUMP JUMPDEST SWAP1 DUP7 PUSH1 0x0 MSTORE PUSH1 0x20 PUSH1 0x0 KECCAK256 SWAP2 PUSH1 0x0 JUMPDEST PUSH1 0x1F NOT DUP6 AND DUP2 LT PUSH3 0x51D JUMPI POP DUP4 PUSH1 0x20 SWAP4 PUSH1 0x1 SWAP7 SWAP4 DUP8 SWAP7 SWAP4 DUP8 SWAP5 PUSH1 0x1F NOT DUP2 AND LT PUSH3 0x503 JUMPI JUMPDEST POP POP POP DUP2 SHL ADD DUP8 SSTORE PUSH3 0x4A8 JUMP JUMPDEST ADD MLOAD PUSH1 0x0 NOT PUSH1 0xF8 DUP5 PUSH1 0x3 SHL AND SHR NOT AND SWAP1 SSTORE CODESIZE DUP1 DUP1 PUSH3 0x4F5 JUMP JUMPDEST SWAP2 SWAP3 PUSH1 0x20 PUSH1 0x1 DUP2 SWAP3 DUP7 DUP6 ADD MLOAD DUP2 SSTORE ADD SWAP5 ADD SWAP3 ADD PUSH3 0x4CF JUMP JUMPDEST PUSH3 0x566 SWAP1 DUP8 PUSH1 0x0 MSTORE PUSH1 0x20 PUSH1 0x0 KECCAK256 PUSH1 0x1F DUP6 ADD PUSH1 0x5 SHR DUP2 ADD SWAP2 PUSH1 0x20 DUP7 LT PUSH3 0x56D JUMPI JUMPDEST PUSH1 0x1F ADD PUSH1 0x5 SHR ADD SWAP1 PUSH3 0x98E JUMP JUMPDEST CODESIZE PUSH3 0x469 JUMP JUMPDEST SWAP1 SWAP2 POP DUP2 SWAP1 PUSH3 0x558 JUMP JUMPDEST PUSH4 0x4E487B71 PUSH1 0xE0 SHL PUSH1 0x0 MSTORE PUSH1 0x41 PUSH1 0x4 MSTORE PUSH1 0x24 PUSH1 0x0 REVERT JUMPDEST DUP4 PUSH1 0x0 MSTORE DUP3 PUSH1 0x20 PUSH1 0x0 KECCAK256 SWAP2 DUP3 ADD SWAP2 ADD JUMPDEST DUP2 DUP2 LT PUSH3 0x5AD JUMPI POP PUSH3 0x3BB JUMP JUMPDEST DUP1 PUSH3 0x5BC PUSH1 0x1 SWAP3 SLOAD PUSH3 0x951 JUMP JUMPDEST DUP1 PUSH3 0x5CB JUMPI JUMPDEST POP ADD PUSH3 0x59E JUMP JUMPDEST PUSH1 0x1F DUP2 GT DUP4 EQ PUSH3 0x5E3 JUMPI POP PUSH1 0x0 DUP2 SSTORE JUMPDEST CODESIZE PUSH3 0x5C3 JUMP JUMPDEST PUSH1 0x0 SWAP1 DUP3 DUP3 MSTORE PUSH3 0x603 PUSH1 0x1F PUSH1 0x20 DUP5 KECCAK256 SWAP3 ADD PUSH1 0x5 SHR DUP3 ADD DUP6 DUP4 ADD PUSH3 0x98E JUMP JUMPDEST DUP2 DUP4 SSTORE SSTORE PUSH3 0x5DC JUMP JUMPDEST SWAP1 PUSH1 0x5 DUP5 ADD PUSH1 0x0 MSTORE PUSH1 0x20 PUSH1 0x0 KECCAK256 SWAP2 PUSH1 0x0 JUMPDEST PUSH1 0x1F NOT DUP6 AND DUP2 LT PUSH3 0x66E JUMPI POP SWAP3 PUSH1 0xE0 SWAP5 SWAP3 PUSH1 0x1 SWAP3 PUSH1 0x7 SWAP6 DUP4 PUSH1 0x1F NOT DUP2 AND LT PUSH3 0x654 JUMPI JUMPDEST POP POP POP DUP2 SHL ADD PUSH1 0x5 DUP3 ADD SSTORE PUSH3 0x37E JUMP JUMPDEST ADD MLOAD PUSH1 0x0 NOT PUSH1 0xF8 DUP5 PUSH1 0x3 SHL AND SHR NOT AND SWAP1 SSTORE CODESIZE DUP1 DUP1 PUSH3 0x643 JUMP JUMPDEST SWAP2 SWAP3 PUSH1 0x20 PUSH1 0x1 DUP2 SWAP3 DUP7 DUP6 ADD MLOAD DUP2 SSTORE ADD SWAP5 ADD SWAP3 ADD PUSH3 0x61E JUMP JUMPDEST PUSH3 0x6B9 SWAP1 PUSH1 0x5 DUP6 ADD PUSH1 0x0 MSTORE PUSH1 0x20 PUSH1 0x0 KECCAK256 PUSH1 0x1F DUP6 ADD PUSH1 0x5 SHR DUP2 ADD SWAP2 PUSH1 0x20 DUP7 LT PUSH3 0x56D JUMPI PUSH1 0x1F ADD PUSH1 0x5 SHR ADD SWAP1 PUSH3 0x98E JUMP JUMPDEST CODESIZE PUSH3 0x33E JUMP JUMPDEST SWAP2 SWAP1 PUSH1 0x2 DUP5 ADD PUSH1 0x0 MSTORE PUSH1 0x20 PUSH1 0x0 KECCAK256 SWAP1 PUSH1 0x0 SWAP4 JUMPDEST PUSH1 0x1F NOT DUP5 AND DUP6 LT PUSH3 0x71B JUMPI PUSH1 0x1 SWAP5 POP DUP4 PUSH1 0x1F NOT DUP2 AND LT PUSH3 0x701 JUMPI JUMPDEST POP POP POP DUP2 SHL ADD PUSH1 0x2 DUP3 ADD SSTORE PUSH3 0x2DD JUMP JUMPDEST ADD MLOAD PUSH1 0x0 NOT PUSH1 0xF8 DUP5 PUSH1 0x3 SHL AND SHR NOT AND SWAP1 SSTORE CODESIZE DUP1 DUP1 PUSH3 0x6F0 JUMP JUMPDEST DUP2 DUP2 ADD MLOAD DUP4 SSTORE PUSH1 0x20 SWAP5 DUP6 ADD SWAP5 PUSH1 0x1 SWAP1 SWAP4 ADD SWAP3 SWAP1 SWAP2 ADD SWAP1 PUSH3 0x6D3 JUMP JUMPDEST PUSH3 0x769 SWAP1 PUSH1 0x2 DUP6 ADD PUSH1 0x0 MSTORE PUSH1 0x20 PUSH1 0x0 KECCAK256 PUSH1 0x1F DUP6 ADD PUSH1 0x5 SHR DUP2 ADD SWAP2 PUSH1 0x20 DUP7 LT PUSH3 0x56D JUMPI PUSH1 0x1F ADD PUSH1 0x5 SHR ADD SWAP1 PUSH3 0x98E JUMP JUMPDEST CODESIZE PUSH3 0x2A3 JUMP JUMPDEST SWAP2 SWAP1 PUSH1 0x1 DUP5 ADD PUSH1 0x0 MSTORE PUSH1 0x20 PUSH1 0x0 KECCAK256 SWAP1 PUSH1 0x0 SWAP4 JUMPDEST PUSH1 0x1F NOT DUP5 AND DUP6 LT PUSH3 0x7CB JUMPI PUSH1 0x1 SWAP5 POP DUP4 PUSH1 0x1F NOT DUP2 AND LT PUSH3 0x7B1 JUMPI JUMPDEST POP POP POP DUP2 SHL ADD PUSH1 0x1 DUP3 ADD SSTORE PUSH3 0x273 JUMP JUMPDEST ADD MLOAD PUSH1 0x0 NOT PUSH1 0xF8 DUP5 PUSH1 0x3 SHL AND SHR NOT AND SWAP1 SSTORE CODESIZE DUP1 DUP1 PUSH3 0x7A0 JUMP JUMPDEST DUP2 DUP2 ADD MLOAD DUP4 SSTORE PUSH1 0x20 SWAP5 DUP6 ADD SWAP5 PUSH1 0x1 SWAP1 SWAP4 ADD SWAP3 SWAP1 SWAP2 ADD SWAP1 PUSH3 0x783 JUMP JUMPDEST PUSH3 0x819 SWAP1 PUSH1 0x1 DUP6 ADD PUSH1 0x0 MSTORE PUSH1 0x20 PUSH1 0x0 KECCAK256 PUSH1 0x1F DUP6 ADD PUSH1 0x5 SHR DUP2 ADD SWAP2 PUSH1 0x20 DUP7 LT PUSH3 0x56D JUMPI PUSH1 0x1F ADD PUSH1 0x5 SHR ADD SWAP1 PUSH3 0x98E JUMP JUMPDEST CODESIZE PUSH3 0x239 JUMP JUMPDEST SWAP2 SWAP1 DUP4 PUSH1 0x0 MSTORE PUSH1 0x20 PUSH1 0x0 KECCAK256 SWAP1 PUSH1 0x0 SWAP4 JUMPDEST PUSH1 0x1F NOT DUP5 AND DUP6 LT PUSH3 0x875 JUMPI PUSH1 0x1 SWAP5 POP DUP4 PUSH1 0x1F NOT DUP2 AND LT PUSH3 0x85B JUMPI JUMPDEST POP POP POP DUP2 SHL ADD DUP2 SSTORE PUSH3 0x209 JUMP JUMPDEST ADD MLOAD PUSH1 0x0 NOT PUSH1 0xF8 DUP5 PUSH1 0x3 SHL AND SHR NOT AND SWAP1 SSTORE CODESIZE DUP1 DUP1 PUSH3 0x84D JUMP JUMPDEST DUP2 DUP2 ADD MLOAD DUP4 SSTORE PUSH1 0x20 SWAP5 DUP6 ADD SWAP5 PUSH1 0x1 SWAP1 SWAP4 ADD SWAP3 SWAP1 SWAP2 ADD SWAP1 PUSH3 0x830 JUMP JUMPDEST PUSH3 0x8C0 SWAP1 DUP5 PUSH1 0x0 MSTORE PUSH1 0x20 PUSH1 0x0 KECCAK256 PUSH1 0x1F DUP6 ADD PUSH1 0x5 SHR DUP2 ADD SWAP2 PUSH1 0x20 DUP7 LT PUSH3 0x56D JUMPI PUSH1 0x1F ADD PUSH1 0x5 SHR ADD SWAP1 PUSH3 0x98E JUMP JUMPDEST CODESIZE PUSH3 0x1D1 JUMP JUMPDEST PUSH1 0x40 MLOAD PUSH3 0x461BCD PUSH1 0xE5 SHL DUP2 MSTORE PUSH1 0x20 PUSH1 0x4 DUP3 ADD MSTORE PUSH1 0x1B PUSH1 0x24 DUP3 ADD MSTORE PUSH32 0x436F6E747261637420616C726561647920726567697374657265640000000000 PUSH1 0x44 DUP3 ADD MSTORE PUSH1 0x64 SWAP1 REVERT JUMPDEST PUSH1 0x0 DUP1 REVERT JUMPDEST PUSH1 0x40 MLOAD SWAP1 PUSH1 0x20 DUP3 ADD PUSH1 0x1 PUSH1 0x1 PUSH1 0x40 SHL SUB DUP2 GT DUP4 DUP3 LT OR PUSH3 0x578 JUMPI PUSH1 0x40 MSTORE JUMP JUMPDEST PUSH1 0x40 DUP1 MLOAD SWAP2 SWAP1 DUP3 ADD PUSH1 0x1 PUSH1 0x1 PUSH1 0x40 SHL SUB DUP2 GT DUP4 DUP3 LT OR PUSH3 0x578 JUMPI PUSH1 0x40 MSTORE JUMP JUMPDEST SWAP1 PUSH1 0x1 DUP3 DUP2 SHR SWAP3 AND DUP1 ISZERO PUSH3 0x983 JUMPI JUMPDEST PUSH1 0x20 DUP4 LT EQ PUSH3 0x96D JUMPI JUMP JUMPDEST PUSH4 0x4E487B71 PUSH1 0xE0 SHL PUSH1 0x0 MSTORE PUSH1 0x22 PUSH1 0x4 MSTORE PUSH1 0x24 PUSH1 0x0 REVERT JUMPDEST SWAP2 PUSH1 0x7F AND SWAP2 PUSH3 0x961 JUMP JUMPDEST DUP2 DUP2 LT PUSH3 0x99A JUMPI POP POP JUMP JUMPDEST PUSH1 0x0 DUP2 SSTORE PUSH1 0x1 ADD PUSH3 0x98E JUMP JUMPDEST SWAP2 SWAP1 DUP3 MLOAD SWAP3 DUP4 DUP3 MSTORE PUSH1 0x0 JUMPDEST DUP5 DUP2 LT PUSH3 0x9D4 JUMPI POP POP DUP3 PUSH1 0x0 PUSH1 0x20 DUP1 SWAP5 SWAP6 DUP5 ADD ADD MSTORE PUSH1 0x1F DUP1 NOT SWAP2 ADD AND ADD ADD SWAP1 JUMP JUMPDEST PUSH1 0x20 DUP2 DUP4 ADD DUP2 ADD MLOAD DUP5 DUP4 ADD DUP3 ADD MSTORE ADD PUSH3 0x9B2 JUMP INVALID PUSH1 0x80 DUP1 PUSH1 0x40 MSTORE PUSH1 0x4 CALLDATASIZE LT ISZERO PUSH2 0x13 JUMPI PUSH1 0x0 DUP1 REVERT JUMPDEST PUSH1 0x0 CALLDATALOAD PUSH1 0xE0 SHR SWAP1 DUP2 PUSH4 0xCCB2EC8 EQ PUSH2 0x1EA9 JUMPI POP DUP1 PUSH4 0x125F8974 EQ PUSH2 0x1E8B JUMPI DUP1 PUSH4 0x130B5617 EQ PUSH2 0x1E62 JUMPI DUP1 PUSH4 0x3F4BA83A EQ PUSH2 0x10A4 JUMPI DUP1 PUSH4 0x470B5646 EQ PUSH2 0x1D5C JUMPI DUP1 PUSH4 0x4AAE13CA EQ PUSH2 0x1B75 JUMPI DUP1 PUSH4 0x4E1DC730 EQ PUSH2 0x1B29 JUMPI DUP1 PUSH4 0x55E78F33 EQ PUSH2 0x1912 JUMPI DUP1 PUSH4 0x6035EB4B EQ PUSH2 0x1877 JUMPI DUP1 PUSH4 0x70F2A476 EQ PUSH2 0x10CC JUMPI DUP1 PUSH4 0x8456CB59 EQ PUSH2 0x10A4 JUMPI DUP1 PUSH4 0x985CC061 EQ PUSH2 0x102E JUMPI DUP1 PUSH4 0xB842EC44 EQ PUSH2 0xFD6 JUMPI DUP1 PUSH4 0xD4076630 EQ PUSH2 0x9F4 JUMPI DUP1 PUSH4 0xD8B4F888 EQ PUSH2 0x850 JUMPI DUP1 PUSH4 0xE0F3AA11 EQ PUSH2 0x777 JUMPI DUP1 PUSH4 0xE6397652 EQ PUSH2 0x6FD JUMPI DUP1 PUSH4 0xED111B06 EQ PUSH2 0x5F2 JUMPI DUP1 PUSH4 0xEF925399 EQ PUSH2 0x567 JUMPI DUP1 PUSH4 0xF7B2A8FD EQ PUSH2 0x2FF JUMPI DUP1 PUSH4 0xF851A440 EQ PUSH2 0x2D6 JUMPI PUSH4 0xF898DA7D EQ PUSH2 0x111 JUMPI PUSH1 0x0 DUP1 REVERT JUMPDEST CALLVALUE PUSH2 0x2D1 JUMPI PUSH1 0x40 CALLDATASIZE PUSH1 0x3 NOT ADD SLT PUSH2 0x2D1 JUMPI PUSH1 0x1 PUSH1 0x1 PUSH1 0x40 SHL SUB PUSH1 0x4 CALLDATALOAD PUSH1 0x24 CALLDATALOAD DUP3 DUP2 GT PUSH2 0x2D1 JUMPI PUSH2 0x145 SWAP1 CALLDATASIZE SWAP1 PUSH1 0x4 ADD PUSH2 0x20E1 JUMP JUMPDEST PUSH1 0x5 SLOAD PUSH2 0x167 SWAP1 CALLER PUSH1 0x1 PUSH1 0x1 PUSH1 0xA0 SHL SUB SWAP2 DUP3 AND EQ SWAP1 DUP2 ISZERO PUSH2 0x2C3 JUMPI JUMPDEST POP PUSH2 0x221A JUMP JUMPDEST DUP2 PUSH1 0x0 MSTORE PUSH1 0x20 PUSH1 0x0 DUP2 MSTORE PUSH2 0x184 PUSH1 0x6 PUSH1 0x40 PUSH1 0x0 KECCAK256 ADD SLOAD ISZERO ISZERO PUSH2 0x21D6 JUMP JUMPDEST DUP3 PUSH1 0x0 MSTORE PUSH1 0x0 DUP2 MSTORE PUSH1 0x8 PUSH1 0x40 PUSH1 0x0 KECCAK256 ADD DUP3 MLOAD SWAP5 DUP6 GT PUSH2 0x2AD JUMPI PUSH2 0x1B1 DUP6 PUSH2 0x1AB DUP4 SLOAD PUSH2 0x1ED2 JUMP JUMPDEST DUP4 PUSH2 0x2296 JUMP JUMPDEST DUP2 PUSH1 0x1F DUP7 GT PUSH1 0x1 EQ PUSH2 0x228 JUMPI DUP6 PUSH32 0xE36C73FD13989812054EAA73A813BDD65752BDA9044A9BDAC079E4143C6AB7BD SWAP6 SWAP7 PUSH2 0x201 SWAP3 PUSH1 0x0 SWAP2 PUSH2 0x21D JUMPI JUMPDEST POP DUP2 PUSH1 0x1 SHL SWAP2 PUSH1 0x0 NOT SWAP1 PUSH1 0x3 SHL SHR NOT AND OR SWAP1 JUMP JUMPDEST SWAP1 SSTORE JUMPDEST PUSH2 0x218 PUSH1 0x40 MLOAD SWAP3 DUP3 DUP5 SWAP4 DUP5 MSTORE DUP4 ADD SWAP1 PUSH2 0x2054 JUMP JUMPDEST SUB SWAP1 LOG2 STOP JUMPDEST SWAP1 POP DUP6 ADD MLOAD CODESIZE PUSH2 0x1ED JUMP JUMPDEST PUSH1 0x1F NOT DUP7 AND SWAP1 DUP3 PUSH1 0x0 MSTORE DUP4 PUSH1 0x0 KECCAK256 SWAP2 PUSH1 0x0 JUMPDEST DUP2 DUP2 LT PUSH2 0x296 JUMPI POP SWAP2 DUP8 SWAP2 PUSH32 0xE36C73FD13989812054EAA73A813BDD65752BDA9044A9BDAC079E4143C6AB7BD SWAP8 SWAP9 PUSH1 0x1 SWAP5 LT PUSH2 0x27D JUMPI JUMPDEST POP POP DUP2 SHL ADD SWAP1 SSTORE PUSH2 0x204 JUMP JUMPDEST DUP7 ADD MLOAD PUSH1 0x0 NOT PUSH1 0xF8 DUP5 PUSH1 0x3 SHL AND SHR NOT AND SWAP1 SSTORE CODESIZE DUP1 PUSH2 0x271 JUMP JUMPDEST SWAP2 SWAP3 DUP6 PUSH1 0x1 DUP2 SWAP3 DUP7 DUP11 ADD MLOAD DUP2 SSTORE ADD SWAP5 ADD SWAP3 ADD PUSH2 0x23A JUMP JUMPDEST PUSH4 0x4E487B71 PUSH1 0xE0 SHL PUSH1 0x0 MSTORE PUSH1 0x41 PUSH1 0x4 MSTORE PUSH1 0x24 PUSH1 0x0 REVERT JUMPDEST SWAP1 POP PUSH1 0x6 SLOAD AND CALLER EQ CODESIZE PUSH2 0x161 JUMP JUMPDEST PUSH1 0x0 DUP1 REVERT JUMPDEST CALLVALUE PUSH2 0x2D1 JUMPI PUSH1 0x0 CALLDATASIZE PUSH1 0x3 NOT ADD SLT PUSH2 0x2D1 JUMPI PUSH1 0x5 SLOAD PUSH1 0x40 MLOAD PUSH1 0x1 PUSH1 0x1 PUSH1 0xA0 SHL SUB SWAP1 SWAP2 AND DUP2 MSTORE PUSH1 0x20 SWAP1 RETURN JUMPDEST CALLVALUE PUSH2 0x2D1 JUMPI PUSH1 0x20 CALLDATASIZE PUSH1 0x3 NOT ADD SLT PUSH2 0x2D1 JUMPI PUSH2 0x318 PUSH2 0x2079 JUMP JUMPDEST PUSH1 0x60 PUSH1 0xE0 PUSH1 0x40 MLOAD PUSH2 0x328 DUP2 PUSH2 0x1FBE JUMP JUMPDEST DUP3 DUP2 MSTORE DUP3 PUSH1 0x20 DUP3 ADD MSTORE DUP3 PUSH1 0x40 DUP3 ADD MSTORE PUSH1 0x0 DUP4 DUP3 ADD MSTORE PUSH1 0x0 PUSH1 0x80 DUP3 ADD MSTORE DUP3 PUSH1 0xA0 DUP3 ADD MSTORE PUSH1 0x0 PUSH1 0xC0 DUP3 ADD MSTORE ADD MSTORE PUSH1 0x1 DUP1 PUSH1 0xA0 SHL SUB AND PUSH1 0x0 MSTORE PUSH1 0x1 PUSH1 0x20 MSTORE PUSH1 0x40 PUSH1 0x0 KECCAK256 PUSH1 0x7 PUSH1 0x40 MLOAD SWAP2 PUSH2 0x377 DUP4 PUSH2 0x1FBE JUMP JUMPDEST PUSH1 0x40 MLOAD PUSH2 0x38F DUP2 PUSH2 0x388 DUP2 DUP6 PUSH2 0x1F0C JUMP JUMPDEST SUB DUP3 PUSH2 0x2010 JUMP JUMPDEST DUP4 MSTORE PUSH1 0x40 MLOAD PUSH2 0x3A5 DUP2 PUSH2 0x388 DUP2 PUSH1 0x1 DUP7 ADD PUSH2 0x1F0C JUMP JUMPDEST PUSH1 0x20 DUP5 ADD MSTORE PUSH1 0x40 MLOAD PUSH2 0x3BE DUP2 PUSH2 0x388 DUP2 PUSH1 0x2 DUP7 ADD PUSH2 0x1F0C JUMP JUMPDEST PUSH1 0x40 DUP5 DUP2 ADD SWAP2 SWAP1 SWAP2 MSTORE PUSH1 0x3 DUP3 ADD SLOAD PUSH1 0x1 PUSH1 0x1 PUSH1 0xA0 SHL SUB AND PUSH1 0x60 DUP6 ADD MSTORE PUSH1 0x4 DUP3 ADD SLOAD PUSH1 0x80 DUP6 ADD MSTORE MLOAD PUSH2 0x3F6 DUP2 PUSH2 0x388 DUP2 PUSH1 0x5 DUP7 ADD PUSH2 0x1F0C JUMP JUMPDEST PUSH1 0xA0 DUP5 ADD MSTORE PUSH1 0xFF PUSH1 0x6 DUP3 ADD SLOAD AND ISZERO ISZERO PUSH1 0xC0 DUP5 ADD MSTORE ADD DUP1 SLOAD PUSH2 0x416 DUP2 PUSH2 0x213B JUMP JUMPDEST SWAP2 PUSH2 0x424 PUSH1 0x40 MLOAD SWAP4 DUP5 PUSH2 0x2010 JUMP JUMPDEST DUP2 DUP4 MSTORE PUSH1 0x20 DUP4 ADD SWAP1 PUSH1 0x0 MSTORE PUSH1 0x20 PUSH1 0x0 KECCAK256 PUSH1 0x0 SWAP2 JUMPDEST DUP4 DUP4 LT PUSH2 0x542 JUMPI DUP6 DUP6 PUSH1 0xE0 DUP3 ADD MSTORE PUSH1 0x40 MLOAD DUP1 SWAP2 PUSH1 0x20 DUP3 MSTORE PUSH2 0x467 DUP2 MLOAD PUSH2 0x100 PUSH1 0x20 DUP6 ADD MSTORE PUSH2 0x120 DUP5 ADD SWAP1 PUSH2 0x2054 JUMP JUMPDEST PUSH1 0xE0 PUSH2 0x4CF PUSH2 0x49F PUSH2 0x48B PUSH1 0x20 DUP7 ADD MLOAD SWAP5 PUSH1 0x1F NOT SWAP6 DUP7 DUP10 DUP4 SUB ADD PUSH1 0x40 DUP11 ADD MSTORE PUSH2 0x2054 JUMP JUMPDEST PUSH1 0x40 DUP7 ADD MLOAD DUP6 DUP9 DUP4 SUB ADD PUSH1 0x60 DUP10 ADD MSTORE PUSH2 0x2054 JUMP JUMPDEST PUSH1 0x1 DUP1 PUSH1 0xA0 SHL SUB PUSH1 0x60 DUP7 ADD MLOAD AND PUSH1 0x80 DUP8 ADD MSTORE PUSH1 0x80 DUP6 ADD MLOAD PUSH1 0xA0 DUP8 ADD MSTORE PUSH1 0xA0 DUP6 ADD MLOAD DUP5 DUP8 DUP4 SUB ADD PUSH1 0xC0 DUP9 ADD MSTORE PUSH2 0x2054 JUMP JUMPDEST SWAP3 PUSH1 0xC0 DUP2 ADD MLOAD ISZERO ISZERO DUP3 DUP7 ADD MSTORE ADD MLOAD SWAP2 DUP2 DUP5 DUP3 SUB ADD PUSH2 0x100 DUP6 ADD MSTORE DUP3 MLOAD SWAP1 DUP2 DUP2 MSTORE PUSH1 0x20 DUP2 ADD PUSH1 0x20 DUP1 DUP5 PUSH1 0x5 SHL DUP5 ADD ADD SWAP6 ADD SWAP4 PUSH1 0x0 SWAP3 JUMPDEST DUP5 DUP5 LT PUSH2 0x511 JUMPI DUP8 DUP8 SUB DUP9 RETURN JUMPDEST SWAP2 SWAP4 SWAP6 DUP2 SWAP4 SWAP6 SWAP8 POP PUSH1 0x20 PUSH2 0x530 DUP3 PUSH1 0x1 SWAP5 DUP7 DUP5 SWAP6 SUB ADD DUP9 MSTORE DUP11 MLOAD PUSH2 0x2054 JUMP JUMPDEST SWAP9 ADD SWAP5 ADD SWAP5 ADD SWAP2 DUP8 SWAP7 SWAP6 SWAP4 SWAP5 SWAP2 PUSH2 0x504 JUMP JUMPDEST PUSH1 0x1 PUSH1 0x20 DUP2 SWAP3 PUSH1 0x40 MLOAD PUSH2 0x559 DUP2 PUSH2 0x388 DUP2 DUP10 PUSH2 0x1F0C JUMP JUMPDEST DUP2 MSTORE ADD SWAP3 ADD SWAP3 ADD SWAP2 SWAP1 PUSH2 0x438 JUMP JUMPDEST CALLVALUE PUSH2 0x2D1 JUMPI PUSH1 0x20 DUP1 PUSH1 0x3 NOT CALLDATASIZE ADD SLT PUSH2 0x2D1 JUMPI PUSH1 0x1 PUSH1 0x1 PUSH1 0xA0 SHL SUB PUSH2 0x589 PUSH2 0x2079 JUMP JUMPDEST AND PUSH1 0x0 MSTORE PUSH1 0x4 PUSH1 0x20 MSTORE PUSH1 0x40 PUSH1 0x0 KECCAK256 SWAP1 PUSH1 0x40 MLOAD SWAP1 DUP2 PUSH1 0x20 DUP5 SLOAD SWAP2 DUP3 DUP2 MSTORE ADD SWAP4 PUSH1 0x0 MSTORE PUSH1 0x20 PUSH1 0x0 KECCAK256 SWAP2 PUSH1 0x0 SWAP1 JUMPDEST DUP3 DUP3 LT PUSH2 0x5DB JUMPI PUSH2 0x5D7 DUP6 PUSH2 0x5CB DUP2 DUP10 SUB DUP3 PUSH2 0x2010 JUMP JUMPDEST PUSH1 0x40 MLOAD SWAP2 DUP3 SWAP2 DUP3 PUSH2 0x20FF JUMP JUMPDEST SUB SWAP1 RETURN JUMPDEST DUP4 SLOAD DUP7 MSTORE SWAP5 DUP6 ADD SWAP5 PUSH1 0x1 SWAP4 DUP5 ADD SWAP4 SWAP1 SWAP2 ADD SWAP1 PUSH2 0x5B4 JUMP JUMPDEST CALLVALUE PUSH2 0x2D1 JUMPI PUSH1 0x20 CALLDATASIZE PUSH1 0x3 NOT ADD SLT PUSH2 0x2D1 JUMPI PUSH2 0x6BD PUSH1 0x1 PUSH1 0x1 PUSH1 0xA0 SHL SUB DUP1 PUSH2 0x617 PUSH2 0x2079 JUMP JUMPDEST AND PUSH1 0x0 MSTORE PUSH1 0x1 PUSH1 0x20 MSTORE PUSH1 0x40 PUSH1 0x0 KECCAK256 PUSH2 0x6F1 PUSH1 0x40 MLOAD SWAP3 PUSH2 0x641 DUP5 PUSH2 0x63A DUP2 DUP7 PUSH2 0x1F0C JUMP JUMPDEST SUB DUP6 PUSH2 0x2010 JUMP JUMPDEST PUSH1 0x40 MLOAD SWAP3 PUSH2 0x656 DUP5 PUSH2 0x63A DUP2 PUSH1 0x1 DUP6 ADD PUSH2 0x1F0C JUMP JUMPDEST PUSH1 0x40 MLOAD SWAP2 PUSH2 0x672 DUP4 PUSH2 0x66B DUP2 PUSH1 0x2 DUP7 ADD PUSH2 0x1F0C JUMP JUMPDEST SUB DUP5 PUSH2 0x2010 JUMP JUMPDEST PUSH1 0x3 DUP3 ADD SLOAD AND SWAP2 PUSH2 0x6D9 PUSH1 0x4 DUP4 ADD SLOAD SWAP2 PUSH2 0x6CB PUSH1 0xFF PUSH1 0x6 PUSH1 0x40 MLOAD SWAP7 PUSH2 0x6A5 DUP9 PUSH2 0x69E DUP2 PUSH1 0x5 DUP6 ADD PUSH2 0x1F0C JUMP JUMPDEST SUB DUP10 PUSH2 0x2010 JUMP JUMPDEST ADD SLOAD AND SWAP8 PUSH1 0x40 MLOAD SWAP11 DUP12 SWAP11 PUSH1 0xE0 DUP13 MSTORE PUSH1 0xE0 DUP13 ADD SWAP1 PUSH2 0x2054 JUMP JUMPDEST SWAP1 DUP11 DUP3 SUB PUSH1 0x20 DUP13 ADD MSTORE PUSH2 0x2054 JUMP JUMPDEST SWAP1 DUP9 DUP3 SUB PUSH1 0x40 DUP11 ADD MSTORE PUSH2 0x2054 JUMP JUMPDEST SWAP3 PUSH1 0x60 DUP8 ADD MSTORE PUSH1 0x80 DUP7 ADD MSTORE DUP5 DUP3 SUB PUSH1 0xA0 DUP7 ADD MSTORE PUSH2 0x2054 JUMP JUMPDEST SWAP1 ISZERO ISZERO PUSH1 0xC0 DUP4 ADD MSTORE SUB SWAP1 RETURN JUMPDEST CALLVALUE PUSH2 0x2D1 JUMPI PUSH1 0x40 CALLDATASIZE PUSH1 0x3 NOT ADD SLT PUSH2 0x2D1 JUMPI PUSH1 0x4 CALLDATALOAD PUSH1 0x1 PUSH1 0x1 PUSH1 0x40 SHL SUB DUP2 GT PUSH2 0x2D1 JUMPI PUSH2 0x72D SWAP1 CALLDATASIZE SWAP1 PUSH1 0x4 ADD PUSH2 0x20E1 JUMP JUMPDEST PUSH2 0x749 PUSH1 0x20 PUSH1 0x24 CALLDATALOAD SWAP3 DUP2 PUSH1 0x40 MLOAD SWAP4 DUP3 DUP6 DUP1 SWAP5 MLOAD SWAP4 DUP5 SWAP3 ADD PUSH2 0x2031 JUMP JUMPDEST DUP2 ADD PUSH1 0x3 DUP2 MSTORE SUB ADD SWAP1 KECCAK256 DUP1 SLOAD DUP3 LT ISZERO PUSH2 0x2D1 JUMPI PUSH1 0x20 SWAP2 PUSH2 0x768 SWAP2 PUSH2 0x2152 JUMP JUMPDEST SWAP1 SLOAD SWAP1 PUSH1 0x3 SHL SHR PUSH1 0x40 MLOAD SWAP1 DUP2 MSTORE RETURN JUMPDEST CALLVALUE PUSH2 0x2D1 JUMPI PUSH1 0x20 CALLDATASIZE PUSH1 0x3 NOT ADD SLT PUSH2 0x2D1 JUMPI PUSH2 0x790 PUSH2 0x2079 JUMP JUMPDEST PUSH1 0x0 PUSH1 0xA0 PUSH1 0x40 MLOAD PUSH2 0x7A0 DUP2 PUSH2 0x1FDA JUMP JUMPDEST DUP3 DUP2 MSTORE DUP3 PUSH1 0x20 DUP3 ADD MSTORE DUP3 PUSH1 0x40 DUP3 ADD MSTORE DUP3 PUSH1 0x60 DUP3 ADD MSTORE DUP3 PUSH1 0x80 DUP3 ADD MSTORE ADD MSTORE PUSH1 0x1 DUP1 PUSH1 0xA0 SHL SUB AND PUSH1 0x0 MSTORE PUSH1 0x2 PUSH1 0x20 MSTORE PUSH1 0xC0 PUSH1 0x40 PUSH1 0x0 KECCAK256 PUSH1 0x40 MLOAD PUSH2 0x7E0 DUP2 PUSH2 0x1FDA JUMP JUMPDEST DUP2 SLOAD SWAP2 DUP3 DUP3 MSTORE PUSH1 0x1 DUP2 ADD SLOAD PUSH1 0x20 DUP4 ADD SWAP1 DUP2 MSTORE PUSH1 0x2 DUP3 ADD SLOAD PUSH1 0x40 DUP5 ADD SWAP1 DUP2 MSTORE PUSH1 0x3 DUP4 ADD SLOAD SWAP2 PUSH1 0x60 DUP6 ADD SWAP3 DUP4 MSTORE PUSH1 0xA0 PUSH1 0xFF PUSH1 0x5 PUSH1 0x4 DUP8 ADD SLOAD SWAP7 PUSH1 0x80 DUP10 ADD SWAP8 DUP9 MSTORE ADD SLOAD AND SWAP6 ADD SWAP5 ISZERO ISZERO DUP6 MSTORE PUSH1 0x40 MLOAD SWAP6 DUP7 MSTORE MLOAD PUSH1 0x20 DUP7 ADD MSTORE MLOAD PUSH1 0x40 DUP6 ADD MSTORE MLOAD PUSH1 0x60 DUP5 ADD MSTORE MLOAD PUSH1 0x80 DUP4 ADD MSTORE MLOAD ISZERO ISZERO PUSH1 0xA0 DUP3 ADD MSTORE RETURN JUMPDEST CALLVALUE PUSH2 0x2D1 JUMPI PUSH1 0x40 CALLDATASIZE PUSH1 0x3 NOT ADD SLT PUSH2 0x2D1 JUMPI PUSH2 0x869 PUSH2 0x2079 JUMP JUMPDEST PUSH1 0x1 PUSH1 0x1 PUSH1 0x40 SHL SUB SWAP1 PUSH1 0x24 CALLDATALOAD DUP3 DUP2 GT PUSH2 0x2D1 JUMPI PUSH2 0x88A SWAP1 CALLDATASIZE SWAP1 PUSH1 0x4 ADD PUSH2 0x20E1 JUMP JUMPDEST PUSH1 0x5 SLOAD SWAP1 SWAP2 PUSH1 0x1 PUSH1 0x1 PUSH1 0xA0 SHL SUB SWAP2 PUSH2 0x8A5 SWAP1 DUP4 AND CALLER EQ PUSH2 0x2180 JUMP JUMPDEST AND SWAP1 DUP2 PUSH1 0x0 MSTORE PUSH1 0x1 SWAP2 PUSH1 0x20 SWAP2 DUP4 DUP4 MSTORE PUSH1 0x4 PUSH1 0x40 PUSH1 0x0 KECCAK256 ADD SLOAD ISZERO PUSH2 0x9AF JUMPI DUP2 PUSH1 0x0 MSTORE DUP4 DUP4 MSTORE PUSH1 0x5 PUSH1 0x40 PUSH1 0x0 KECCAK256 ADD SWAP1 DUP1 MLOAD SWAP6 DUP7 GT PUSH2 0x2AD JUMPI PUSH2 0x8EF DUP7 PUSH2 0x8E9 DUP5 SLOAD PUSH2 0x1ED2 JUMP JUMPDEST DUP5 PUSH2 0x2296 JUMP JUMPDEST DUP4 SWAP1 PUSH1 0x1F DUP8 GT PUSH1 0x1 EQ PUSH2 0x94A JUMPI SWAP6 DUP1 PUSH2 0x921 SWAP3 DUP8 SWAP9 PUSH1 0x0 SWAP3 PUSH2 0x93F JUMPI JUMPDEST POP POP DUP2 PUSH1 0x1 SHL SWAP2 PUSH1 0x0 NOT SWAP1 PUSH1 0x3 SHL SHR NOT AND OR SWAP1 JUMP JUMPDEST SWAP1 SSTORE JUMPDEST PUSH1 0x0 MSTORE MSTORE PUSH1 0x6 PUSH1 0x40 PUSH1 0x0 KECCAK256 ADD SWAP1 PUSH1 0xFF NOT DUP3 SLOAD AND OR SWAP1 SSTORE PUSH1 0x0 DUP1 RETURN JUMPDEST ADD MLOAD SWAP1 POP DUP9 DUP1 PUSH2 0x90C JUMP JUMPDEST SWAP1 PUSH1 0x1F NOT DUP8 AND SWAP2 DUP4 PUSH1 0x0 MSTORE DUP6 PUSH1 0x0 KECCAK256 SWAP3 PUSH1 0x0 JUMPDEST DUP2 DUP2 LT PUSH2 0x99A JUMPI POP SWAP2 DUP8 SWAP9 SWAP3 SWAP2 DUP4 DUP10 SWAP6 SWAP4 LT PUSH2 0x981 JUMPI JUMPDEST POP POP POP DUP2 SHL ADD SWAP1 SSTORE PUSH2 0x924 JUMP JUMPDEST ADD MLOAD PUSH1 0x0 NOT PUSH1 0xF8 DUP5 PUSH1 0x3 SHL AND SHR NOT AND SWAP1 SSTORE DUP8 DUP1 DUP1 PUSH2 0x974 JUMP JUMPDEST DUP3 DUP5 ADD MLOAD DUP6 SSTORE SWAP4 DUP9 ADD SWAP4 SWAP3 DUP8 ADD SWAP3 DUP8 ADD PUSH2 0x95D JUMP JUMPDEST PUSH1 0x40 MLOAD PUSH3 0x461BCD PUSH1 0xE5 SHL DUP2 MSTORE PUSH1 0x4 DUP2 ADD DUP5 SWAP1 MSTORE PUSH1 0x17 PUSH1 0x24 DUP3 ADD MSTORE PUSH32 0x436F6E7472616374206E6F742072656769737465726564000000000000000000 PUSH1 0x44 DUP3 ADD MSTORE PUSH1 0x64 SWAP1 REVERT JUMPDEST CALLVALUE PUSH2 0x2D1 JUMPI PUSH1 0xE0 CALLDATASIZE PUSH1 0x3 NOT ADD SLT PUSH2 0x2D1 JUMPI PUSH1 0x24 CALLDATALOAD PUSH1 0x1 PUSH1 0x1 PUSH1 0xA0 SHL SUB DUP2 AND SWAP1 SUB PUSH2 0x2D1 JUMPI PUSH1 0x44 CALLDATALOAD PUSH1 0x1 PUSH1 0x1 PUSH1 0xA0 SHL SUB DUP2 AND SWAP1 SUB PUSH2 0x2D1 JUMPI PUSH1 0x84 CALLDATALOAD PUSH1 0x1 PUSH1 0x1 PUSH1 0x40 SHL SUB DUP2 GT PUSH2 0x2D1 JUMPI CALLDATASIZE PUSH1 0x23 DUP3 ADD SLT ISZERO PUSH2 0x2D1 JUMPI PUSH2 0xA5B SWAP1 CALLDATASIZE SWAP1 PUSH1 0x24 DUP2 PUSH1 0x4 ADD CALLDATALOAD SWAP2 ADD PUSH2 0x20AA JUMP JUMPDEST PUSH1 0xA4 CALLDATALOAD PUSH1 0x1 PUSH1 0x1 PUSH1 0x40 SHL SUB DUP2 GT PUSH2 0x2D1 JUMPI PUSH2 0xA7A SWAP1 CALLDATASIZE SWAP1 PUSH1 0x4 ADD PUSH2 0x20E1 JUMP JUMPDEST SWAP1 PUSH1 0xC4 CALLDATALOAD PUSH1 0x1 PUSH1 0x1 PUSH1 0x40 SHL SUB DUP2 GT PUSH2 0x2D1 JUMPI PUSH2 0xA9A SWAP1 CALLDATASIZE SWAP1 PUSH1 0x4 ADD PUSH2 0x20E1 JUMP JUMPDEST PUSH1 0x5 SLOAD PUSH1 0x1 PUSH1 0x1 PUSH1 0xA0 SHL SUB AND CALLER EQ DUP1 ISZERO PUSH2 0xFC2 JUMPI JUMPDEST PUSH2 0xAB8 SWAP1 PUSH2 0x221A JUMP JUMPDEST PUSH1 0x4 CALLDATALOAD PUSH1 0x0 MSTORE PUSH1 0x0 PUSH1 0x20 MSTORE PUSH1 0x6 PUSH1 0x40 PUSH1 0x0 KECCAK256 ADD SLOAD PUSH2 0xF7D JUMPI PUSH1 0x40 MLOAD SWAP2 PUSH2 0xADD DUP4 PUSH2 0x1FA2 JUMP JUMPDEST PUSH1 0x4 CALLDATALOAD DUP4 MSTORE PUSH1 0x1 DUP1 PUSH1 0xA0 SHL SUB PUSH1 0x24 CALLDATALOAD AND PUSH1 0x20 DUP5 ADD MSTORE PUSH1 0x1 DUP1 PUSH1 0xA0 SHL SUB PUSH1 0x44 CALLDATALOAD AND PUSH1 0x40 DUP5 ADD MSTORE PUSH1 0x64 CALLDATALOAD PUSH1 0x60 DUP5 ADD MSTORE PUSH1 0x80 DUP4 ADD MSTORE NUMBER PUSH1 0xA0 DUP4 ADD MSTORE TIMESTAMP PUSH1 0xC0 DUP4 ADD MSTORE DUP3 PUSH1 0xE0 DUP4 ADD MSTORE PUSH2 0x100 DUP3 ADD MSTORE PUSH1 0x1 PUSH2 0x120 DUP3 ADD MSTORE PUSH1 0x4 CALLDATALOAD PUSH1 0x0 MSTORE PUSH1 0x0 PUSH1 0x20 MSTORE PUSH1 0x40 PUSH1 0x0 KECCAK256 SWAP2 DUP2 MLOAD DUP4 SSTORE PUSH1 0x1 DUP4 ADD PUSH1 0x1 DUP1 PUSH1 0xA0 SHL SUB PUSH1 0x20 DUP5 ADD MLOAD AND SWAP1 PUSH1 0x1 PUSH1 0x1 PUSH1 0x60 SHL SUB PUSH1 0xA0 SHL SWAP2 DUP3 DUP3 SLOAD AND OR SWAP1 SSTORE PUSH1 0x2 DUP5 ADD SWAP1 PUSH1 0x1 DUP1 PUSH1 0xA0 SHL SUB PUSH1 0x40 DUP6 ADD MLOAD AND SWAP1 DUP3 SLOAD AND OR SWAP1 SSTORE PUSH1 0x60 DUP3 ADD MLOAD PUSH1 0x3 DUP5 ADD SSTORE PUSH1 0x80 DUP3 ADD MLOAD SWAP3 DUP4 MLOAD PUSH1 0x1 PUSH1 0x1 PUSH1 0x40 SHL SUB DUP2 GT PUSH2 0x2AD JUMPI PUSH2 0xBBC DUP2 PUSH2 0xBB3 PUSH1 0x4 DUP6 ADD SLOAD PUSH2 0x1ED2 JUMP JUMPDEST PUSH1 0x4 DUP6 ADD PUSH2 0x2296 JUMP JUMPDEST PUSH1 0x20 PUSH1 0x1F DUP3 GT PUSH1 0x1 EQ PUSH2 0xF0E JUMPI DUP2 SWAP1 PUSH2 0xBEE SWAP4 SWAP5 SWAP6 SWAP7 PUSH1 0x0 SWAP3 PUSH2 0xE94 JUMPI POP POP DUP2 PUSH1 0x1 SHL SWAP2 PUSH1 0x0 NOT SWAP1 PUSH1 0x3 SHL SHR NOT AND OR SWAP1 JUMP JUMPDEST PUSH1 0x4 DUP3 ADD SSTORE JUMPDEST PUSH1 0xA0 DUP4 ADD MLOAD PUSH1 0x5 DUP3 ADD SSTORE PUSH1 0xC0 DUP4 ADD MLOAD PUSH1 0x6 DUP3 ADD SSTORE PUSH1 0xE0 DUP4 ADD MLOAD SWAP3 DUP4 MLOAD PUSH1 0x1 PUSH1 0x1 PUSH1 0x40 SHL SUB DUP2 GT PUSH2 0x2AD JUMPI PUSH2 0xC38 DUP2 PUSH2 0xC2F PUSH1 0x7 DUP7 ADD SLOAD PUSH2 0x1ED2 JUMP JUMPDEST PUSH1 0x7 DUP7 ADD PUSH2 0x2296 JUMP JUMPDEST PUSH1 0x20 PUSH1 0x1F DUP3 GT PUSH1 0x1 EQ PUSH2 0xE9F JUMPI DUP2 SWAP1 PUSH2 0xC6A SWAP4 SWAP5 SWAP6 SWAP7 PUSH1 0x0 SWAP3 PUSH2 0xE94 JUMPI POP POP DUP2 PUSH1 0x1 SHL SWAP2 PUSH1 0x0 NOT SWAP1 PUSH1 0x3 SHL SHR NOT AND OR SWAP1 JUMP JUMPDEST PUSH1 0x7 DUP4 ADD SSTORE JUMPDEST PUSH1 0x8 DUP3 ADD PUSH2 0x100 DUP3 ADD MLOAD DUP1 MLOAD SWAP1 PUSH1 0x1 PUSH1 0x1 PUSH1 0x40 SHL SUB DUP3 GT PUSH2 0x2AD JUMPI PUSH2 0xC9F DUP3 PUSH2 0xC99 DUP6 SLOAD PUSH2 0x1ED2 JUMP JUMPDEST DUP6 PUSH2 0x2296 JUMP JUMPDEST PUSH1 0x20 SWAP1 PUSH1 0x1F DUP4 GT PUSH1 0x1 EQ PUSH2 0xE21 JUMPI SWAP3 PUSH2 0xCDB DUP4 PUSH2 0x120 SWAP5 PUSH2 0xCF5 SWAP9 SWAP8 SWAP5 PUSH1 0x9 SWAP8 PUSH1 0x0 SWAP3 PUSH2 0xE16 JUMPI POP POP DUP2 PUSH1 0x1 SHL SWAP2 PUSH1 0x0 NOT SWAP1 PUSH1 0x3 SHL SHR NOT AND OR SWAP1 JUMP JUMPDEST SWAP1 SSTORE JUMPDEST ADD MLOAD ISZERO ISZERO SWAP2 ADD SWAP1 PUSH1 0xFF DUP1 NOT DUP4 SLOAD AND SWAP2 ISZERO ISZERO AND OR SWAP1 SSTORE JUMP JUMPDEST PUSH2 0xD01 DUP2 PUSH1 0x24 CALLDATALOAD PUSH2 0x23FC JUMP JUMPDEST PUSH1 0x24 CALLDATALOAD PUSH1 0x1 PUSH1 0x1 PUSH1 0xA0 SHL SUB SWAP1 DUP2 AND PUSH1 0x44 CALLDATALOAD SWAP1 SWAP2 AND EQ ISZERO DUP1 PUSH2 0xE05 JUMPI JUMPDEST PUSH2 0xD4A PUSH1 0x40 MLOAD DUP4 MLOAD PUSH2 0xD33 DUP2 DUP4 PUSH1 0x20 DUP9 ADD PUSH2 0x2031 JUMP JUMPDEST DUP2 ADD SWAP1 PUSH1 0x3 DUP3 MSTORE PUSH1 0x20 DUP2 PUSH1 0x4 CALLDATALOAD SWAP4 SUB ADD SWAP1 KECCAK256 PUSH2 0x22DD JUMP JUMPDEST PUSH1 0x1 DUP1 PUSH1 0xA0 SHL SUB PUSH1 0x24 CALLDATALOAD AND PUSH1 0x0 MSTORE PUSH1 0x4 PUSH1 0x20 MSTORE PUSH2 0xD6D PUSH1 0x4 CALLDATALOAD PUSH1 0x40 PUSH1 0x0 KECCAK256 PUSH2 0x22DD JUMP JUMPDEST PUSH2 0xDDD JUMPI JUMPDEST PUSH2 0xD7D PUSH1 0x7 SLOAD PUSH2 0x2312 JUMP JUMPDEST PUSH1 0x7 SSTORE PUSH2 0xD95 PUSH1 0x40 MLOAD SWAP2 PUSH1 0x40 DUP4 MSTORE PUSH1 0x40 DUP4 ADD SWAP1 PUSH2 0x2054 JUMP JUMPDEST TIMESTAMP PUSH1 0x20 DUP4 ADD MSTORE PUSH1 0x1 PUSH1 0x1 PUSH1 0xA0 SHL SUB PUSH1 0x44 CALLDATALOAD DUP2 AND SWAP3 PUSH1 0x24 CALLDATALOAD SWAP1 SWAP2 AND SWAP2 PUSH1 0x4 CALLDATALOAD SWAP2 PUSH32 0x3F4A6BB4C4A707355184826D48E737BF3D6A2883E63EF54DA2ADA4D314C472B5 SWAP2 DUP2 SWAP1 SUB SWAP1 LOG4 STOP JUMPDEST PUSH1 0x1 DUP1 PUSH1 0xA0 SHL SUB PUSH1 0x44 CALLDATALOAD AND PUSH1 0x0 MSTORE PUSH1 0x4 PUSH1 0x20 MSTORE PUSH2 0xE00 PUSH1 0x4 CALLDATALOAD PUSH1 0x40 PUSH1 0x0 KECCAK256 PUSH2 0x22DD JUMP JUMPDEST PUSH2 0xD72 JUMP JUMPDEST PUSH2 0xE11 DUP3 PUSH1 0x44 CALLDATALOAD PUSH2 0x23FC JUMP JUMPDEST PUSH2 0xD1D JUMP JUMPDEST ADD MLOAD SWAP1 POP DUP11 DUP1 PUSH2 0x90C JUMP JUMPDEST SWAP1 PUSH1 0x1F NOT DUP4 AND SWAP2 DUP5 PUSH1 0x0 MSTORE PUSH1 0x20 PUSH1 0x0 KECCAK256 SWAP3 PUSH1 0x0 JUMPDEST DUP2 DUP2 LT PUSH2 0xE7C JUMPI POP SWAP4 PUSH2 0xCF5 SWAP8 SWAP7 SWAP4 PUSH1 0x9 SWAP7 SWAP4 PUSH1 0x1 SWAP4 DUP4 PUSH2 0x120 SWAP9 LT PUSH2 0xE63 JUMPI JUMPDEST POP POP POP DUP2 SHL ADD SWAP1 SSTORE PUSH2 0xCDE JUMP JUMPDEST ADD MLOAD PUSH1 0x0 NOT PUSH1 0xF8 DUP5 PUSH1 0x3 SHL AND SHR NOT AND SWAP1 SSTORE DUP10 DUP1 DUP1 PUSH2 0xE56 JUMP JUMPDEST SWAP3 SWAP4 PUSH1 0x20 PUSH1 0x1 DUP2 SWAP3 DUP8 DUP7 ADD MLOAD DUP2 SSTORE ADD SWAP6 ADD SWAP4 ADD PUSH2 0xE35 JUMP JUMPDEST ADD MLOAD SWAP1 POP DUP7 DUP1 PUSH2 0x90C JUMP JUMPDEST PUSH1 0x7 DUP5 ADD PUSH1 0x0 MSTORE PUSH1 0x20 PUSH1 0x0 KECCAK256 SWAP1 PUSH1 0x0 JUMPDEST PUSH1 0x1F NOT DUP5 AND DUP2 LT PUSH2 0xEF6 JUMPI POP PUSH1 0x1 SWAP4 SWAP5 SWAP6 SWAP7 DUP4 PUSH1 0x1F NOT DUP2 AND LT PUSH2 0xEDD JUMPI JUMPDEST POP POP POP DUP2 SHL ADD PUSH1 0x7 DUP4 ADD SSTORE PUSH2 0xC70 JUMP JUMPDEST ADD MLOAD PUSH1 0x0 NOT PUSH1 0xF8 DUP5 PUSH1 0x3 SHL AND SHR NOT AND SWAP1 SSTORE DUP6 DUP1 DUP1 PUSH2 0xECD JUMP JUMPDEST SWAP1 SWAP2 PUSH1 0x20 PUSH1 0x1 DUP2 SWAP3 DUP6 DUP12 ADD MLOAD DUP2 SSTORE ADD SWAP4 ADD SWAP2 ADD PUSH2 0xEAF JUMP JUMPDEST PUSH1 0x4 DUP4 ADD PUSH1 0x0 MSTORE PUSH1 0x20 PUSH1 0x0 KECCAK256 SWAP1 PUSH1 0x0 JUMPDEST PUSH1 0x1F NOT DUP5 AND DUP2 LT PUSH2 0xF65 JUMPI POP PUSH1 0x1 SWAP4 SWAP5 SWAP6 SWAP7 DUP4 PUSH1 0x1F NOT DUP2 AND LT PUSH2 0xF4C JUMPI JUMPDEST POP POP POP DUP2 SHL ADD PUSH1 0x4 DUP3 ADD SSTORE PUSH2 0xBF4 JUMP JUMPDEST ADD MLOAD PUSH1 0x0 NOT PUSH1 0xF8 DUP5 PUSH1 0x3 SHL AND SHR NOT AND SWAP1 SSTORE DUP6 DUP1 DUP1 PUSH2 0xF3C JUMP JUMPDEST SWAP1 SWAP2 PUSH1 0x20 PUSH1 0x1 DUP2 SWAP3 DUP6 DUP12 ADD MLOAD DUP2 SSTORE ADD SWAP4 ADD SWAP2 ADD PUSH2 0xF1E JUMP JUMPDEST PUSH1 0x40 MLOAD PUSH3 0x461BCD PUSH1 0xE5 SHL DUP2 MSTORE PUSH1 0x20 PUSH1 0x4 DUP3 ADD MSTORE PUSH1 0x1E PUSH1 0x24 DUP3 ADD MSTORE PUSH32 0x5472616E73616374696F6E20616C726561647920726567697374657265640000 PUSH1 0x44 DUP3 ADD MSTORE PUSH1 0x64 SWAP1 REVERT JUMPDEST POP PUSH1 0x6 SLOAD PUSH1 0x1 PUSH1 0x1 PUSH1 0xA0 SHL SUB AND CALLER EQ PUSH2 0xAAF JUMP JUMPDEST CALLVALUE PUSH2 0x2D1 JUMPI PUSH1 0x40 CALLDATASIZE PUSH1 0x3 NOT ADD SLT PUSH2 0x2D1 JUMPI PUSH2 0xFEF PUSH2 0x2079 JUMP JUMPDEST PUSH1 0x1 PUSH1 0x1 PUSH1 0xA0 SHL SUB AND PUSH1 0x0 SWAP1 DUP2 MSTORE PUSH1 0x4 PUSH1 0x20 MSTORE PUSH1 0x40 SWAP1 KECCAK256 DUP1 SLOAD PUSH1 0x24 CALLDATALOAD SWAP2 SWAP1 DUP3 LT ISZERO PUSH2 0x2D1 JUMPI PUSH1 0x20 SWAP2 PUSH2 0x1020 SWAP2 PUSH2 0x2152 JUMP JUMPDEST SWAP1 SLOAD PUSH1 0x40 MLOAD SWAP2 PUSH1 0x3 SHL SHR DUP2 MSTORE RETURN JUMPDEST CALLVALUE PUSH2 0x2D1 JUMPI PUSH1 0x20 CALLDATASIZE PUSH1 0x3 NOT ADD SLT PUSH2 0x2D1 JUMPI PUSH1 0x1 PUSH1 0x1 PUSH1 0xA0 SHL SUB PUSH2 0x104F PUSH2 0x2079 JUMP JUMPDEST AND PUSH1 0x0 MSTORE PUSH1 0x2 PUSH1 0x20 MSTORE PUSH1 0xC0 PUSH1 0x40 PUSH1 0x0 KECCAK256 DUP1 SLOAD SWAP1 PUSH1 0x1 DUP2 ADD SLOAD SWAP1 PUSH1 0x2 DUP2 ADD SLOAD PUSH1 0x3 DUP3 ADD SLOAD SWAP1 PUSH1 0xFF PUSH1 0x5 PUSH1 0x4 DUP6 ADD SLOAD SWAP5 ADD SLOAD AND SWAP4 PUSH1 0x40 MLOAD SWAP6 DUP7 MSTORE PUSH1 0x20 DUP7 ADD MSTORE PUSH1 0x40 DUP6 ADD MSTORE PUSH1 0x60 DUP5 ADD MSTORE PUSH1 0x80 DUP4 ADD MSTORE ISZERO ISZERO PUSH1 0xA0 DUP3 ADD MSTORE RETURN JUMPDEST CALLVALUE PUSH2 0x2D1 JUMPI PUSH1 0x0 CALLDATASIZE PUSH1 0x3 NOT ADD SLT PUSH2 0x2D1 JUMPI PUSH2 0x10CA PUSH1 0x1 DUP1 PUSH1 0xA0 SHL SUB PUSH1 0x5 SLOAD AND CALLER EQ PUSH2 0x2180 JUMP JUMPDEST STOP JUMPDEST CALLVALUE PUSH2 0x2D1 JUMPI PUSH1 0xA0 CALLDATASIZE PUSH1 0x3 NOT ADD SLT PUSH2 0x2D1 JUMPI PUSH2 0x10E5 PUSH2 0x2079 JUMP JUMPDEST PUSH1 0x24 CALLDATALOAD PUSH1 0x1 PUSH1 0x1 PUSH1 0x40 SHL SUB DUP2 GT PUSH2 0x2D1 JUMPI PUSH2 0x1104 SWAP1 CALLDATASIZE SWAP1 PUSH1 0x4 ADD PUSH2 0x20E1 JUMP JUMPDEST PUSH1 0x44 CALLDATALOAD PUSH1 0x1 PUSH1 0x1 PUSH1 0x40 SHL SUB DUP2 GT PUSH2 0x2D1 JUMPI PUSH2 0x1123 SWAP1 CALLDATASIZE SWAP1 PUSH1 0x4 ADD PUSH2 0x20E1 JUMP JUMPDEST PUSH1 0x64 CALLDATALOAD PUSH1 0x1 PUSH1 0x1 PUSH1 0x40 SHL SUB DUP2 GT PUSH2 0x2D1 JUMPI PUSH2 0x1142 SWAP1 CALLDATASIZE SWAP1 PUSH1 0x4 ADD PUSH2 0x20E1 JUMP JUMPDEST SWAP1 PUSH1 0x84 CALLDATALOAD PUSH1 0x1 PUSH1 0x1 PUSH1 0x40 SHL SUB DUP2 GT PUSH2 0x2D1 JUMPI CALLDATASIZE PUSH1 0x23 DUP3 ADD SLT ISZERO PUSH2 0x2D1 JUMPI DUP1 PUSH1 0x4 ADD CALLDATALOAD PUSH2 0x116D DUP2 PUSH2 0x213B JUMP JUMPDEST SWAP2 PUSH2 0x117B PUSH1 0x40 MLOAD SWAP4 DUP5 PUSH2 0x2010 JUMP JUMPDEST DUP2 DUP4 MSTORE PUSH1 0x24 PUSH1 0x20 DUP5 ADD SWAP3 PUSH1 0x5 SHL DUP3 ADD ADD SWAP1 CALLDATASIZE DUP3 GT PUSH2 0x2D1 JUMPI PUSH1 0x24 DUP2 ADD SWAP3 JUMPDEST DUP3 DUP5 LT PUSH2 0x1848 JUMPI POP POP POP POP PUSH2 0x11B9 PUSH1 0x1 DUP1 PUSH1 0xA0 SHL SUB PUSH1 0x5 SLOAD AND CALLER EQ PUSH2 0x2180 JUMP JUMPDEST PUSH1 0x1 PUSH1 0x1 PUSH1 0xA0 SHL SUB DUP6 AND PUSH1 0x0 SWAP1 DUP2 MSTORE PUSH1 0x1 PUSH1 0x20 MSTORE PUSH1 0x40 SWAP1 KECCAK256 PUSH1 0x4 ADD SLOAD PUSH2 0x1803 JUMPI PUSH1 0x40 MLOAD SWAP2 PUSH2 0x11E6 DUP4 PUSH2 0x1FBE JUMP JUMPDEST DUP5 DUP4 MSTORE PUSH1 0x20 DUP4 ADD MSTORE DUP3 PUSH1 0x40 DUP4 ADD MSTORE PUSH1 0x1 DUP1 PUSH1 0xA0 SHL SUB DUP6 AND PUSH1 0x60 DUP4 ADD MSTORE NUMBER PUSH1 0x80 DUP4 ADD MSTORE PUSH1 0x40 MLOAD DUP1 PUSH1 0x20 DUP2 ADD LT PUSH1 0x1 PUSH1 0x1 PUSH1 0x40 SHL SUB PUSH1 0x20 DUP4 ADD GT OR PUSH2 0x2AD JUMPI PUSH1 0x20 DUP2 ADD PUSH1 0x40 MSTORE PUSH1 0x0 DUP2 MSTORE PUSH1 0xA0 DUP4 ADD MSTORE PUSH1 0x0 PUSH1 0xC0 DUP4 ADD MSTORE PUSH1 0xE0 DUP3 ADD MSTORE PUSH1 0x1 DUP1 PUSH1 0xA0 SHL SUB DUP5 AND PUSH1 0x0 MSTORE PUSH1 0x1 PUSH1 0x20 MSTORE PUSH1 0x40 PUSH1 0x0 KECCAK256 SWAP1 DUP1 MLOAD DUP1 MLOAD SWAP1 PUSH1 0x1 PUSH1 0x1 PUSH1 0x40 SHL SUB DUP3 GT PUSH2 0x2AD JUMPI PUSH2 0x127D DUP3 PUSH2 0x1277 DUP7 SLOAD PUSH2 0x1ED2 JUMP JUMPDEST DUP7 PUSH2 0x2296 JUMP JUMPDEST PUSH1 0x20 SWAP1 PUSH1 0x1F DUP4 GT PUSH1 0x1 EQ PUSH2 0x1797 JUMPI PUSH2 0x12AD SWAP3 SWAP2 PUSH1 0x0 SWAP2 DUP4 PUSH2 0x93F JUMPI POP POP DUP2 PUSH1 0x1 SHL SWAP2 PUSH1 0x0 NOT SWAP1 PUSH1 0x3 SHL SHR NOT AND OR SWAP1 JUMP JUMPDEST DUP3 SSTORE JUMPDEST PUSH1 0x20 DUP2 ADD MLOAD DUP1 MLOAD SWAP1 PUSH1 0x1 PUSH1 0x1 PUSH1 0x40 SHL SUB DUP3 GT PUSH2 0x2AD JUMPI PUSH2 0x12E0 DUP3 PUSH2 0x12D7 PUSH1 0x1 DUP8 ADD SLOAD PUSH2 0x1ED2 JUMP JUMPDEST PUSH1 0x1 DUP8 ADD PUSH2 0x2296 JUMP JUMPDEST PUSH1 0x20 SWAP1 PUSH1 0x1F DUP4 GT PUSH1 0x1 EQ PUSH2 0x1725 JUMPI PUSH2 0x1310 SWAP3 SWAP2 PUSH1 0x0 SWAP2 DUP4 PUSH2 0x93F JUMPI POP POP DUP2 PUSH1 0x1 SHL SWAP2 PUSH1 0x0 NOT SWAP1 PUSH1 0x3 SHL SHR NOT AND OR SWAP1 JUMP JUMPDEST PUSH1 0x1 DUP4 ADD SSTORE JUMPDEST PUSH1 0x40 DUP2 ADD MLOAD DUP1 MLOAD SWAP1 PUSH1 0x1 PUSH1 0x1 PUSH1 0x40 SHL SUB DUP3 GT PUSH2 0x2AD JUMPI PUSH2 0x1346 DUP3 PUSH2 0x133D PUSH1 0x2 DUP8 ADD SLOAD PUSH2 0x1ED2 JUMP JUMPDEST PUSH1 0x2 DUP8 ADD PUSH2 0x2296 JUMP JUMPDEST PUSH1 0x20 SWAP1 PUSH1 0x1F DUP4 GT PUSH1 0x1 EQ PUSH2 0x16B3 JUMPI PUSH2 0x1376 SWAP3 SWAP2 PUSH1 0x0 SWAP2 DUP4 PUSH2 0x93F JUMPI POP POP DUP2 PUSH1 0x1 SHL SWAP2 PUSH1 0x0 NOT SWAP1 PUSH1 0x3 SHL SHR NOT AND OR SWAP1 JUMP JUMPDEST PUSH1 0x2 DUP4 ADD SSTORE JUMPDEST PUSH1 0x3 DUP3 ADD PUSH1 0x1 DUP1 PUSH1 0xA0 SHL SUB PUSH1 0x60 DUP4 ADD MLOAD AND PUSH1 0x1 PUSH1 0x1 PUSH1 0x60 SHL SUB PUSH1 0xA0 SHL DUP3 SLOAD AND OR SWAP1 SSTORE PUSH1 0x80 DUP2 ADD MLOAD PUSH1 0x4 DUP4 ADD SSTORE PUSH1 0xA0 DUP2 ADD MLOAD DUP1 MLOAD SWAP1 PUSH1 0x1 PUSH1 0x1 PUSH1 0x40 SHL SUB DUP3 GT PUSH2 0x2AD JUMPI PUSH2 0x13D8 DUP3 PUSH2 0x13CF PUSH1 0x5 DUP8 ADD SLOAD PUSH2 0x1ED2 JUMP JUMPDEST PUSH1 0x5 DUP8 ADD PUSH2 0x2296 JUMP JUMPDEST PUSH1 0x20 SWAP1 PUSH1 0x1F DUP4 GT PUSH1 0x1 EQ PUSH2 0x1640 JUMPI SWAP2 DUP1 PUSH2 0x140C SWAP3 PUSH1 0xE0 SWAP6 SWAP5 PUSH1 0x0 SWAP3 PUSH2 0x1635 JUMPI POP POP DUP2 PUSH1 0x1 SHL SWAP2 PUSH1 0x0 NOT SWAP1 PUSH1 0x3 SHL SHR NOT AND OR SWAP1 JUMP JUMPDEST PUSH1 0x5 DUP5 ADD SSTORE JUMPDEST PUSH2 0x1431 PUSH1 0xC0 DUP3 ADD MLOAD ISZERO ISZERO PUSH1 0x6 DUP6 ADD SWAP1 PUSH1 0xFF DUP1 NOT DUP4 SLOAD AND SWAP2 ISZERO ISZERO AND OR SWAP1 SSTORE JUMP JUMPDEST ADD MLOAD DUP1 MLOAD SWAP1 PUSH1 0x1 PUSH1 0x40 SHL DUP3 GT PUSH2 0x2AD JUMPI PUSH1 0x7 DUP4 ADD SLOAD DUP3 PUSH1 0x7 DUP6 ADD SSTORE DUP1 DUP4 LT PUSH2 0x15BD JUMPI JUMPDEST POP PUSH1 0x20 PUSH1 0x7 SWAP2 ADD SWAP3 ADD PUSH1 0x0 MSTORE PUSH1 0x20 PUSH1 0x0 KECCAK256 SWAP2 PUSH1 0x0 SWAP1 JUMPDEST DUP3 DUP3 LT PUSH2 0x14D4 JUMPI DUP7 PUSH32 0x579EF2EDBCAB574DD08E96AE9C9AB7F9C3F82C08B575C573470D9AE7EC3512D1 PUSH2 0x14AF DUP9 PUSH2 0x14BD DUP10 PUSH1 0x40 MLOAD SWAP4 DUP5 SWAP4 PUSH1 0x60 DUP6 MSTORE PUSH1 0x60 DUP6 ADD SWAP1 PUSH2 0x2054 JUMP JUMPDEST SWAP1 DUP4 DUP3 SUB PUSH1 0x20 DUP6 ADD MSTORE PUSH2 0x2054 JUMP JUMPDEST NUMBER PUSH1 0x40 DUP4 ADD MSTORE PUSH1 0x1 PUSH1 0x1 PUSH1 0xA0 SHL SUB SWAP1 SWAP5 AND SWAP4 SUB SWAP1 LOG2 STOP JUMPDEST DUP1 MLOAD DUP1 MLOAD SWAP1 PUSH1 0x1 PUSH1 0x1 PUSH1 0x40 SHL SUB DUP3 GT PUSH2 0x2AD JUMPI PUSH2 0x14FB DUP3 PUSH2 0x14F5 DUP9 SLOAD PUSH2 0x1ED2 JUMP JUMPDEST DUP9 PUSH2 0x2296 JUMP JUMPDEST PUSH1 0x20 SWAP1 PUSH1 0x1F DUP4 GT PUSH1 0x1 EQ PUSH2 0x154D JUMPI SWAP3 PUSH2 0x1533 DUP4 PUSH1 0x1 SWAP6 SWAP5 PUSH1 0x20 SWAP5 DUP8 SWAP7 PUSH1 0x0 SWAP3 PUSH2 0x1542 JUMPI POP POP DUP2 PUSH1 0x1 SHL SWAP2 PUSH1 0x0 NOT SWAP1 PUSH1 0x3 SHL SHR NOT AND OR SWAP1 JUMP JUMPDEST DUP8 SSTORE JUMPDEST ADD SWAP5 ADD SWAP2 ADD SWAP1 SWAP3 PUSH2 0x146A JUMP JUMPDEST ADD MLOAD SWAP1 POP DUP14 DUP1 PUSH2 0x90C JUMP JUMPDEST SWAP1 DUP7 PUSH1 0x0 MSTORE PUSH1 0x20 PUSH1 0x0 KECCAK256 SWAP2 PUSH1 0x0 JUMPDEST PUSH1 0x1F NOT DUP6 AND DUP2 LT PUSH2 0x15A5 JUMPI POP DUP4 PUSH1 0x20 SWAP4 PUSH1 0x1 SWAP7 SWAP4 DUP8 SWAP7 SWAP4 DUP8 SWAP5 PUSH1 0x1F NOT DUP2 AND LT PUSH2 0x158C JUMPI JUMPDEST POP POP POP DUP2 SHL ADD DUP8 SSTORE PUSH2 0x1536 JUMP JUMPDEST ADD MLOAD PUSH1 0x0 NOT PUSH1 0xF8 DUP5 PUSH1 0x3 SHL AND SHR NOT AND SWAP1 SSTORE DUP13 DUP1 DUP1 PUSH2 0x157F JUMP JUMPDEST SWAP2 SWAP3 PUSH1 0x20 PUSH1 0x1 DUP2 SWAP3 DUP7 DUP6 ADD MLOAD DUP2 SSTORE ADD SWAP5 ADD SWAP3 ADD PUSH2 0x155B JUMP JUMPDEST PUSH1 0x7 DUP5 ADD PUSH1 0x0 MSTORE PUSH1 0x20 PUSH1 0x0 KECCAK256 SWAP1 DUP4 DUP3 ADD JUMPDEST DUP2 DUP4 ADD DUP2 LT PUSH2 0x15DE JUMPI POP POP PUSH2 0x1454 JUMP JUMPDEST DUP1 PUSH2 0x15EB PUSH1 0x1 SWAP3 SLOAD PUSH2 0x1ED2 JUMP JUMPDEST DUP1 PUSH2 0x15F8 JUMPI JUMPDEST POP ADD PUSH2 0x15CE JUMP JUMPDEST PUSH1 0x1F DUP2 GT DUP4 EQ PUSH2 0x160E JUMPI POP PUSH1 0x0 DUP2 SSTORE JUMPDEST DUP11 PUSH2 0x15F1 JUMP JUMPDEST PUSH1 0x0 SWAP1 DUP3 DUP3 MSTORE PUSH2 0x162C PUSH1 0x1F PUSH1 0x20 DUP5 KECCAK256 SWAP3 ADD PUSH1 0x5 SHR DUP3 ADD DUP6 DUP4 ADD PUSH2 0x227F JUMP JUMPDEST DUP2 DUP4 SSTORE SSTORE PUSH2 0x1608 JUMP JUMPDEST ADD MLOAD SWAP1 POP DUP10 DUP1 PUSH2 0x90C JUMP JUMPDEST SWAP1 PUSH1 0x5 DUP6 ADD PUSH1 0x0 MSTORE PUSH1 0x20 PUSH1 0x0 KECCAK256 SWAP2 PUSH1 0x0 JUMPDEST PUSH1 0x1F NOT DUP6 AND DUP2 LT PUSH2 0x169B JUMPI POP SWAP2 DUP4 SWAP2 PUSH1 0x1 SWAP4 PUSH1 0xE0 SWAP7 SWAP6 PUSH1 0x1F NOT DUP2 AND LT PUSH2 0x1682 JUMPI JUMPDEST POP POP POP DUP2 SHL ADD PUSH1 0x5 DUP5 ADD SSTORE PUSH2 0x1412 JUMP JUMPDEST ADD MLOAD PUSH1 0x0 NOT PUSH1 0xF8 DUP5 PUSH1 0x3 SHL AND SHR NOT AND SWAP1 SSTORE DUP9 DUP1 DUP1 PUSH2 0x1672 JUMP JUMPDEST SWAP2 SWAP3 PUSH1 0x20 PUSH1 0x1 DUP2 SWAP3 DUP7 DUP6 ADD MLOAD DUP2 SSTORE ADD SWAP5 ADD SWAP3 ADD PUSH2 0x1651 JUMP JUMPDEST SWAP2 SWAP1 PUSH1 0x2 DUP6 ADD PUSH1 0x0 MSTORE PUSH1 0x20 PUSH1 0x0 KECCAK256 SWAP1 PUSH1 0x0 SWAP4 JUMPDEST PUSH1 0x1F NOT DUP5 AND DUP6 LT PUSH2 0x170A JUMPI PUSH1 0x1 SWAP5 POP DUP4 PUSH1 0x1F NOT DUP2 AND LT PUSH2 0x16F1 JUMPI JUMPDEST POP POP POP DUP2 SHL ADD PUSH1 0x2 DUP4 ADD SSTORE PUSH2 0x137C JUMP JUMPDEST ADD MLOAD PUSH1 0x0 NOT PUSH1 0xF8 DUP5 PUSH1 0x3 SHL AND SHR NOT AND SWAP1 SSTORE DUP8 DUP1 DUP1 PUSH2 0x16E1 JUMP JUMPDEST DUP2 DUP2 ADD MLOAD DUP4 SSTORE PUSH1 0x20 SWAP5 DUP6 ADD SWAP5 PUSH1 0x1 SWAP1 SWAP4 ADD SWAP3 SWAP1 SWAP2 ADD SWAP1 PUSH2 0x16C6 JUMP JUMPDEST SWAP2 SWAP1 PUSH1 0x1 DUP6 ADD PUSH1 0x0 MSTORE PUSH1 0x20 PUSH1 0x0 KECCAK256 SWAP1 PUSH1 0x0 SWAP4 JUMPDEST PUSH1 0x1F NOT DUP5 AND DUP6 LT PUSH2 0x177C JUMPI PUSH1 0x1 SWAP5 POP DUP4 PUSH1 0x1F NOT DUP2 AND LT PUSH2 0x1763 JUMPI JUMPDEST POP POP POP DUP2 SHL ADD PUSH1 0x1 DUP4 ADD SSTORE PUSH2 0x1316 JUMP JUMPDEST ADD MLOAD PUSH1 0x0 NOT PUSH1 0xF8 DUP5 PUSH1 0x3 SHL AND SHR NOT AND SWAP1 SSTORE DUP8 DUP1 DUP1 PUSH2 0x1753 JUMP JUMPDEST DUP2 DUP2 ADD MLOAD DUP4 SSTORE PUSH1 0x20 SWAP5 DUP6 ADD SWAP5 PUSH1 0x1 SWAP1 SWAP4 ADD SWAP3 SWAP1 SWAP2 ADD SWAP1 PUSH2 0x1738 JUMP JUMPDEST SWAP2 SWAP1 DUP5 PUSH1 0x0 MSTORE PUSH1 0x20 PUSH1 0x0 KECCAK256 SWAP1 PUSH1 0x0 SWAP4 JUMPDEST PUSH1 0x1F NOT DUP5 AND DUP6 LT PUSH2 0x17E8 JUMPI PUSH1 0x1 SWAP5 POP DUP4 PUSH1 0x1F NOT DUP2 AND LT PUSH2 0x17CF JUMPI JUMPDEST POP POP POP DUP2 SHL ADD DUP3 SSTORE PUSH2 0x12B0 JUMP JUMPDEST ADD MLOAD PUSH1 0x0 NOT PUSH1 0xF8 DUP5 PUSH1 0x3 SHL AND SHR NOT AND SWAP1 SSTORE DUP8 DUP1 DUP1 PUSH2 0x17C2 JUMP JUMPDEST DUP2 DUP2 ADD MLOAD DUP4 SSTORE PUSH1 0x20 SWAP5 DUP6 ADD SWAP5 PUSH1 0x1 SWAP1 SWAP4 ADD SWAP3 SWAP1 SWAP2 ADD SWAP1 PUSH2 0x17A7 JUMP JUMPDEST PUSH1 0x40 MLOAD PUSH3 0x461BCD PUSH1 0xE5 SHL DUP2 MSTORE PUSH1 0x20 PUSH1 0x4 DUP3 ADD MSTORE PUSH1 0x1B PUSH1 0x24 DUP3 ADD MSTORE PUSH32 0x436F6E747261637420616C726561647920726567697374657265640000000000 PUSH1 0x44 DUP3 ADD MSTORE PUSH1 0x64 SWAP1 REVERT JUMPDEST DUP4 CALLDATALOAD PUSH1 0x1 PUSH1 0x1 PUSH1 0x40 SHL SUB DUP2 GT PUSH2 0x2D1 JUMPI PUSH1 0x20 SWAP2 PUSH2 0x186C DUP4 SWAP3 PUSH1 0x24 CALLDATASIZE SWAP2 DUP8 ADD ADD PUSH2 0x20E1 JUMP JUMPDEST DUP2 MSTORE ADD SWAP4 ADD SWAP3 PUSH2 0x1199 JUMP JUMPDEST CALLVALUE PUSH2 0x2D1 JUMPI PUSH1 0x20 DUP1 PUSH1 0x3 NOT CALLDATASIZE ADD SLT PUSH2 0x2D1 JUMPI PUSH1 0x4 CALLDATALOAD PUSH1 0x1 PUSH1 0x1 PUSH1 0x40 SHL SUB DUP2 GT PUSH2 0x2D1 JUMPI DUP2 PUSH2 0x18AC PUSH2 0x18BF SWAP3 CALLDATASIZE SWAP1 PUSH1 0x4 ADD PUSH2 0x20E1 JUMP JUMPDEST DUP2 PUSH1 0x40 MLOAD SWAP4 DUP3 DUP6 DUP1 SWAP5 MLOAD SWAP4 DUP5 SWAP3 ADD PUSH2 0x2031 JUMP JUMPDEST DUP2 ADD PUSH1 0x3 DUP2 MSTORE SUB ADD SWAP1 KECCAK256 SWAP1 PUSH1 0x40 MLOAD SWAP1 DUP2 DUP2 DUP5 SLOAD SWAP2 DUP3 DUP2 MSTORE ADD SWAP4 PUSH1 0x0 MSTORE DUP2 PUSH1 0x0 KECCAK256 SWAP2 PUSH1 0x0 SWAP1 JUMPDEST DUP3 DUP3 LT PUSH2 0x18FB JUMPI PUSH2 0x5D7 DUP6 PUSH2 0x5CB DUP2 DUP10 SUB DUP3 PUSH2 0x2010 JUMP JUMPDEST DUP4 SLOAD DUP7 MSTORE SWAP5 DUP6 ADD SWAP5 PUSH1 0x1 SWAP4 DUP5 ADD SWAP4 SWAP1 SWAP2 ADD SWAP1 PUSH2 0x18E4 JUMP JUMPDEST CALLVALUE PUSH2 0x2D1 JUMPI PUSH1 0x20 DUP1 PUSH1 0x3 NOT CALLDATASIZE ADD SLT PUSH2 0x2D1 JUMPI PUSH1 0x4 CALLDATALOAD PUSH1 0x0 MSTORE PUSH1 0x0 DUP2 MSTORE PUSH1 0x40 PUSH1 0x0 KECCAK256 SWAP1 PUSH2 0x1AF2 PUSH1 0x59 PUSH1 0x40 MLOAD SWAP4 PUSH2 0x1946 DUP6 PUSH2 0x1FA2 JUMP JUMPDEST DUP1 SLOAD DUP6 MSTORE PUSH1 0x1 DUP1 PUSH1 0xA0 SHL SUB DUP1 PUSH1 0x1 DUP4 ADD SLOAD AND DUP6 DUP8 ADD MSTORE PUSH1 0x2 DUP3 ADD SLOAD AND PUSH1 0x40 DUP7 ADD MSTORE PUSH1 0x3 DUP2 ADD SLOAD PUSH1 0x60 DUP7 ADD MSTORE PUSH1 0x40 MLOAD PUSH2 0x1985 DUP2 PUSH2 0x388 DUP2 PUSH1 0x4 DUP7 ADD PUSH2 0x1F0C JUMP JUMPDEST PUSH1 0x80 DUP7 ADD MSTORE PUSH1 0x5 DUP2 ADD SLOAD PUSH1 0xA0 DUP7 ADD MSTORE PUSH1 0x6 DUP2 ADD SLOAD SWAP5 PUSH1 0xC0 DUP2 ADD SWAP6 DUP7 MSTORE PUSH2 0x1A03 PUSH1 0x40 MLOAD PUSH2 0x19B8 DUP2 PUSH2 0x388 DUP2 PUSH1 0x7 DUP9 ADD PUSH2 0x1F0C JUMP JUMPDEST PUSH1 0xE0 DUP4 ADD SWAP1 DUP2 MSTORE PUSH2 0x120 PUSH1 0xFF PUSH1 0x9 PUSH1 0x40 MLOAD SWAP7 PUSH2 0x19DB DUP9 PUSH2 0x69E DUP2 PUSH1 0x8 DUP6 ADD PUSH2 0x1F0C JUMP JUMPDEST PUSH2 0x100 DUP8 ADD SWAP8 DUP9 MSTORE ADD SLOAD AND SWAP4 ADD SWAP3 ISZERO ISZERO DUP4 MSTORE PUSH2 0x19F9 DUP9 MLOAD ISZERO ISZERO PUSH2 0x21D6 JUMP JUMPDEST MLOAD SWAP3 MLOAD SWAP7 MLOAD PUSH2 0x2337 JUMP JUMPDEST SWAP1 MLOAD ISZERO PUSH2 0x1B06 JUMPI PUSH1 0x40 MLOAD PUSH2 0x1A16 DUP2 PUSH2 0x1FF5 JUMP JUMPDEST PUSH1 0x4 DUP2 MSTORE PUSH4 0x74727565 PUSH1 0xE0 SHL DUP7 DUP3 ADD MSTORE SWAP1 JUMPDEST PUSH1 0x40 MLOAD SWAP7 DUP8 SWAP4 PUSH13 0x3D9131B0BA32B3B7B93C911D11 PUSH1 0x99 SHL DUP9 DUP7 ADD MSTORE PUSH2 0x1A56 DUP2 MLOAD DUP1 SWAP3 DUP11 PUSH1 0x2D DUP10 ADD SWAP2 ADD PUSH2 0x2031 JUMP JUMPDEST DUP5 ADD PUSH17 0x1116113232B9B1B934B83A34B7B7111D11 PUSH1 0x79 SHL PUSH1 0x2D DUP3 ADD MSTORE PUSH2 0x1A85 DUP3 MLOAD DUP1 SWAP4 DUP11 PUSH1 0x3E DUP6 ADD SWAP2 ADD PUSH2 0x2031 JUMP JUMPDEST ADD PUSH14 0x1116113A34B6B2B9BA30B6B8111D PUSH1 0x91 SHL PUSH1 0x3E DUP3 ADD MSTORE PUSH2 0x1AB0 DUP3 MLOAD DUP1 SWAP4 DUP10 PUSH1 0x4C DUP6 ADD SWAP2 ADD PUSH2 0x2031 JUMP JUMPDEST ADD PUSH12 0x16113B32B934B334B2B2111D PUSH1 0xA1 SHL PUSH1 0x4C DUP3 ADD MSTORE PUSH2 0x1AD9 DUP3 MLOAD DUP1 SWAP4 DUP9 PUSH1 0x58 DUP6 ADD SWAP2 ADD PUSH2 0x2031 JUMP JUMPDEST ADD PUSH1 0x7D PUSH1 0xF8 SHL PUSH1 0x58 DUP3 ADD MSTORE SUB PUSH1 0x39 DUP2 ADD DUP6 MSTORE ADD DUP4 PUSH2 0x2010 JUMP JUMPDEST PUSH2 0x5D7 PUSH1 0x40 MLOAD SWAP3 DUP3 DUP5 SWAP4 DUP5 MSTORE DUP4 ADD SWAP1 PUSH2 0x2054 JUMP JUMPDEST PUSH1 0x40 MLOAD PUSH2 0x1B12 DUP2 PUSH2 0x1FF5 JUMP JUMPDEST PUSH1 0x5 DUP2 MSTORE PUSH5 0x66616C7365 PUSH1 0xD8 SHL DUP7 DUP3 ADD MSTORE SWAP1 PUSH2 0x1A28 JUMP JUMPDEST CALLVALUE PUSH2 0x2D1 JUMPI PUSH1 0x20 CALLDATASIZE PUSH1 0x3 NOT ADD SLT PUSH2 0x2D1 JUMPI PUSH2 0x1B42 PUSH2 0x2079 JUMP JUMPDEST PUSH1 0x5 SLOAD PUSH1 0x1 PUSH1 0x1 PUSH1 0xA0 SHL SUB SWAP2 SWAP1 PUSH2 0x1B5C SWAP1 DUP4 AND CALLER EQ PUSH2 0x2180 JUMP JUMPDEST AND PUSH1 0x1 PUSH1 0x1 PUSH1 0x60 SHL SUB PUSH1 0xA0 SHL PUSH1 0x6 SLOAD AND OR PUSH1 0x6 SSTORE PUSH1 0x0 DUP1 RETURN JUMPDEST CALLVALUE PUSH2 0x2D1 JUMPI PUSH1 0x20 CALLDATASIZE PUSH1 0x3 NOT ADD SLT PUSH2 0x2D1 JUMPI PUSH1 0x4 CALLDATALOAD PUSH1 0x0 PUSH2 0x120 PUSH1 0x40 MLOAD PUSH2 0x1B9A DUP2 PUSH2 0x1FA2 JUMP JUMPDEST DUP3 DUP2 MSTORE DUP3 PUSH1 0x20 DUP3 ADD MSTORE DUP3 PUSH1 0x40 DUP3 ADD MSTORE DUP3 PUSH1 0x60 DUP3 ADD MSTORE PUSH1 0x60 PUSH1 0x80 DUP3 ADD MSTORE DUP3 PUSH1 0xA0 DUP3 ADD MSTORE DUP3 PUSH1 0xC0 DUP3 ADD MSTORE PUSH1 0x60 PUSH1 0xE0 DUP3 ADD MSTORE PUSH1 0x60 PUSH2 0x100 DUP3 ADD MSTORE ADD MSTORE DUP1 PUSH1 0x0 MSTORE PUSH1 0x0 PUSH1 0x20 MSTORE PUSH2 0x1BEF PUSH1 0x6 PUSH1 0x40 PUSH1 0x0 KECCAK256 ADD SLOAD ISZERO ISZERO PUSH2 0x21D6 JUMP JUMPDEST PUSH1 0x0 MSTORE PUSH1 0x0 PUSH1 0x20 MSTORE PUSH1 0x40 PUSH1 0x0 KECCAK256 PUSH1 0xFF PUSH1 0x9 PUSH1 0x40 MLOAD SWAP3 PUSH2 0x1C0D DUP5 PUSH2 0x1FA2 JUMP JUMPDEST DUP1 SLOAD DUP5 MSTORE PUSH1 0x1 DUP2 ADD SLOAD PUSH1 0x1 PUSH1 0x1 PUSH1 0xA0 SHL SUB SWAP1 DUP2 AND PUSH1 0x20 DUP7 ADD MSTORE PUSH1 0x2 DUP3 ADD SLOAD AND PUSH1 0x40 DUP1 DUP7 ADD SWAP2 SWAP1 SWAP2 MSTORE PUSH1 0x3 DUP3 ADD SLOAD PUSH1 0x60 DUP7 ADD MSTORE MLOAD PUSH2 0x1C51 DUP2 PUSH2 0x388 DUP2 PUSH1 0x4 DUP7 ADD PUSH2 0x1F0C JUMP JUMPDEST PUSH1 0x80 DUP6 ADD MSTORE PUSH1 0x5 DUP2 ADD SLOAD PUSH1 0xA0 DUP6 ADD MSTORE PUSH1 0x6 DUP2 ADD SLOAD PUSH1 0xC0 DUP6 ADD MSTORE PUSH1 0x40 MLOAD PUSH2 0x1C7E DUP2 PUSH2 0x388 DUP2 PUSH1 0x7 DUP7 ADD PUSH2 0x1F0C JUMP JUMPDEST PUSH1 0xE0 DUP6 ADD MSTORE PUSH1 0x40 MLOAD PUSH2 0x1C97 DUP2 PUSH2 0x388 DUP2 PUSH1 0x8 DUP7 ADD PUSH2 0x1F0C JUMP JUMPDEST PUSH2 0x100 DUP6 ADD MSTORE ADD SLOAD AND ISZERO ISZERO PUSH2 0x120 DUP3 ADD MSTORE PUSH1 0x40 MLOAD DUP1 SWAP2 PUSH1 0x20 DUP3 MSTORE DUP1 MLOAD PUSH1 0x20 DUP4 ADD MSTORE PUSH1 0x1 DUP1 PUSH1 0xA0 SHL SUB PUSH1 0x20 DUP3 ADD MLOAD AND PUSH1 0x40 DUP4 ADD MSTORE PUSH1 0x1 DUP1 PUSH1 0xA0 SHL SUB PUSH1 0x40 DUP3 ADD MLOAD AND PUSH1 0x60 DUP4 ADD MSTORE PUSH1 0x60 DUP2 ADD MLOAD PUSH1 0x80 DUP4 ADD MSTORE PUSH1 0x80 DUP2 ADD MLOAD PUSH2 0x120 PUSH2 0x1D4F PUSH2 0x1D09 PUSH2 0x140 SWAP4 DUP5 PUSH1 0xA0 DUP9 ADD MSTORE PUSH2 0x160 DUP8 ADD SWAP1 PUSH2 0x2054 JUMP JUMPDEST PUSH1 0xA0 DUP6 ADD MLOAD PUSH1 0xC0 DUP8 ADD MSTORE PUSH1 0xC0 DUP6 ADD MLOAD PUSH1 0xE0 DUP8 ADD MSTORE PUSH2 0x1D3A PUSH1 0xE0 DUP7 ADD MLOAD SWAP2 PUSH1 0x1F NOT SWAP3 DUP4 DUP10 DUP4 SUB ADD PUSH2 0x100 DUP11 ADD MSTORE PUSH2 0x2054 JUMP JUMPDEST SWAP1 PUSH2 0x100 DUP7 ADD MLOAD SWAP1 DUP8 DUP4 SUB ADD DUP5 DUP9 ADD MSTORE PUSH2 0x2054 JUMP JUMPDEST SWAP3 ADD MLOAD ISZERO ISZERO SWAP1 DUP4 ADD MSTORE SUB SWAP1 RETURN JUMPDEST CALLVALUE PUSH2 0x2D1 JUMPI PUSH1 0x20 CALLDATASIZE PUSH1 0x3 NOT ADD SLT PUSH2 0x2D1 JUMPI PUSH1 0x4 CALLDATALOAD PUSH1 0x0 MSTORE PUSH1 0x0 PUSH1 0x20 MSTORE PUSH1 0x40 PUSH1 0x0 KECCAK256 PUSH1 0x20 DUP2 SLOAD PUSH2 0x1E55 PUSH1 0x1 DUP1 PUSH1 0xA0 SHL SUB SWAP4 PUSH2 0x1E46 DUP6 PUSH1 0x1 DUP4 ADD SLOAD AND SWAP6 PUSH1 0x2 DUP4 ADD SLOAD AND SWAP4 PUSH1 0x3 DUP4 ADD SLOAD PUSH1 0x40 MLOAD SWAP2 PUSH2 0x1DB8 DUP4 PUSH2 0x66B DUP2 PUSH1 0x4 DUP10 ADD PUSH2 0x1F0C JUMP JUMPDEST PUSH2 0x1E2E PUSH1 0x5 DUP7 ADD SLOAD SWAP4 PUSH1 0x6 DUP8 ADD SLOAD SWAP3 PUSH1 0x40 MLOAD SWAP5 PUSH2 0x1DE3 DUP7 PUSH2 0x1DDC DUP2 PUSH1 0x7 DUP14 ADD PUSH2 0x1F0C JUMP JUMPDEST SUB DUP8 PUSH2 0x2010 JUMP JUMPDEST PUSH1 0xFF PUSH1 0x9 PUSH1 0x40 MLOAD SWAP11 PUSH2 0x1E03 DUP13 PUSH2 0x1DFC DUP2 PUSH1 0x8 DUP6 ADD PUSH2 0x1F0C JUMP JUMPDEST SUB DUP14 PUSH2 0x2010 JUMP JUMPDEST ADD SLOAD AND SWAP11 PUSH1 0x40 MLOAD SWAP14 DUP15 SWAP14 DUP15 PUSH2 0x140 SWAP6 DUP2 MSTORE ADD MSTORE PUSH1 0x40 DUP14 ADD MSTORE PUSH1 0x60 DUP13 ADD MSTORE DUP1 PUSH1 0x80 DUP13 ADD MSTORE DUP11 ADD SWAP1 PUSH2 0x2054 JUMP JUMPDEST SWAP3 PUSH1 0xA0 DUP10 ADD MSTORE PUSH1 0xC0 DUP9 ADD MSTORE DUP7 DUP3 SUB PUSH1 0xE0 DUP9 ADD MSTORE PUSH2 0x2054 JUMP JUMPDEST SWAP1 DUP5 DUP3 SUB PUSH2 0x100 DUP7 ADD MSTORE PUSH2 0x2054 JUMP JUMPDEST SWAP1 ISZERO ISZERO PUSH2 0x120 DUP4 ADD MSTORE SUB SWAP1 RETURN JUMPDEST CALLVALUE PUSH2 0x2D1 JUMPI PUSH1 0x0 CALLDATASIZE PUSH1 0x3 NOT ADD SLT PUSH2 0x2D1 JUMPI PUSH1 0x6 SLOAD PUSH1 0x40 MLOAD PUSH1 0x1 PUSH1 0x1 PUSH1 0xA0 SHL SUB SWAP1 SWAP2 AND DUP2 MSTORE PUSH1 0x20 SWAP1 RETURN JUMPDEST CALLVALUE PUSH2 0x2D1 JUMPI PUSH1 0x0 CALLDATASIZE PUSH1 0x3 NOT ADD SLT PUSH2 0x2D1 JUMPI PUSH1 0x20 PUSH1 0x7 SLOAD PUSH1 0x40 MLOAD SWAP1 DUP2 MSTORE RETURN JUMPDEST CALLVALUE PUSH2 0x2D1 JUMPI PUSH1 0x0 CALLDATASIZE PUSH1 0x3 NOT ADD SLT PUSH2 0x2D1 JUMPI PUSH1 0x60 SWAP1 PUSH1 0x7 SLOAD DUP2 MSTORE PUSH1 0x0 PUSH1 0x20 DUP3 ADD MSTORE PUSH1 0x0 PUSH1 0x40 DUP3 ADD MSTORE RETURN JUMPDEST SWAP1 PUSH1 0x1 DUP3 DUP2 SHR SWAP3 AND DUP1 ISZERO PUSH2 0x1F02 JUMPI JUMPDEST PUSH1 0x20 DUP4 LT EQ PUSH2 0x1EEC JUMPI JUMP JUMPDEST PUSH4 0x4E487B71 PUSH1 0xE0 SHL PUSH1 0x0 MSTORE PUSH1 0x22 PUSH1 0x4 MSTORE PUSH1 0x24 PUSH1 0x0 REVERT JUMPDEST SWAP2 PUSH1 0x7F AND SWAP2 PUSH2 0x1EE1 JUMP JUMPDEST DUP1 SLOAD PUSH1 0x0 SWAP4 SWAP3 PUSH2 0x1F1B DUP3 PUSH2 0x1ED2 JUMP JUMPDEST SWAP2 DUP3 DUP3 MSTORE PUSH1 0x20 SWAP4 PUSH1 0x1 SWAP2 PUSH1 0x1 DUP2 AND SWAP1 DUP2 PUSH1 0x0 EQ PUSH2 0x1F83 JUMPI POP PUSH1 0x1 EQ PUSH2 0x1F42 JUMPI JUMPDEST POP POP POP POP POP JUMP JUMPDEST SWAP1 SWAP4 SWAP5 SWAP6 POP PUSH1 0x0 SWAP3 SWAP2 SWAP3 MSTORE DUP4 PUSH1 0x0 KECCAK256 SWAP3 DUP5 PUSH1 0x0 SWAP5 JUMPDEST DUP4 DUP7 LT PUSH2 0x1F6F JUMPI POP POP POP POP ADD ADD SWAP1 CODESIZE DUP1 DUP1 DUP1 DUP1 PUSH2 0x1F3B JUMP JUMPDEST DUP1 SLOAD DUP6 DUP8 ADD DUP4 ADD MSTORE SWAP5 ADD SWAP4 DUP6 SWAP1 DUP3 ADD PUSH2 0x1F57 JUMP JUMPDEST PUSH1 0xFF NOT AND DUP7 DUP6 ADD MSTORE POP POP POP SWAP1 ISZERO ISZERO PUSH1 0x5 SHL ADD ADD SWAP2 POP CODESIZE DUP1 DUP1 DUP1 DUP1 PUSH2 0x1F3B JUMP JUMPDEST PUSH2 0x140 DUP2 ADD SWAP1 DUP2 LT PUSH1 0x1 PUSH1 0x1 PUSH1 0x40 SHL SUB DUP3 GT OR PUSH2 0x2AD JUMPI PUSH1 0x40 MSTORE JUMP JUMPDEST PUSH2 0x100 DUP2 ADD SWAP1 DUP2 LT PUSH1 0x1 PUSH1 0x1 PUSH1 0x40 SHL SUB DUP3 GT OR PUSH2 0x2AD JUMPI PUSH1 0x40 MSTORE JUMP JUMPDEST PUSH1 0xC0 DUP2 ADD SWAP1 DUP2 LT PUSH1 0x1 PUSH1 0x1 PUSH1 0x40 SHL SUB DUP3 GT OR PUSH2 0x2AD JUMPI PUSH1 0x40 MSTORE JUMP JUMPDEST PUSH1 0x40 DUP2 ADD SWAP1 DUP2 LT PUSH1 0x1 PUSH1 0x1 PUSH1 0x40 SHL SUB DUP3 GT OR PUSH2 0x2AD JUMPI PUSH1 0x40 MSTORE JUMP JUMPDEST SWAP1 PUSH1 0x1F DUP1 NOT SWAP2 ADD AND DUP2 ADD SWAP1 DUP2 LT PUSH1 0x1 PUSH1 0x1 PUSH1 0x40 SHL SUB DUP3 GT OR PUSH2 0x2AD JUMPI PUSH1 0x40 MSTORE JUMP JUMPDEST PUSH1 0x0 JUMPDEST DUP4 DUP2 LT PUSH2 0x2044 JUMPI POP POP PUSH1 0x0 SWAP2 ADD MSTORE JUMP JUMPDEST DUP2 DUP2 ADD MLOAD DUP4 DUP3 ADD MSTORE PUSH1 0x20 ADD PUSH2 0x2034 JUMP JUMPDEST SWAP1 PUSH1 0x20 SWAP2 PUSH2 0x206D DUP2 MLOAD DUP1 SWAP3 DUP2 DUP6 MSTORE DUP6 DUP1 DUP7 ADD SWAP2 ADD PUSH2 0x2031 JUMP JUMPDEST PUSH1 0x1F ADD PUSH1 0x1F NOT AND ADD ADD SWAP1 JUMP JUMPDEST PUSH1 0x4 CALLDATALOAD SWAP1 PUSH1 0x1 PUSH1 0x1 PUSH1 0xA0 SHL SUB DUP3 AND DUP3 SUB PUSH2 0x2D1 JUMPI JUMP JUMPDEST PUSH1 0x1 PUSH1 0x1 PUSH1 0x40 SHL SUB DUP2 GT PUSH2 0x2AD JUMPI PUSH1 0x1F ADD PUSH1 0x1F NOT AND PUSH1 0x20 ADD SWAP1 JUMP JUMPDEST SWAP3 SWAP2 SWAP3 PUSH2 0x20B6 DUP3 PUSH2 0x208F JUMP JUMPDEST SWAP2 PUSH2 0x20C4 PUSH1 0x40 MLOAD SWAP4 DUP5 PUSH2 0x2010 JUMP JUMPDEST DUP3 SWAP5 DUP2 DUP5 MSTORE DUP2 DUP4 ADD GT PUSH2 0x2D1 JUMPI DUP3 DUP2 PUSH1 0x20 SWAP4 DUP5 PUSH1 0x0 SWAP7 ADD CALLDATACOPY ADD ADD MSTORE JUMP JUMPDEST SWAP1 DUP1 PUSH1 0x1F DUP4 ADD SLT ISZERO PUSH2 0x2D1 JUMPI DUP2 PUSH1 0x20 PUSH2 0x20FC SWAP4 CALLDATALOAD SWAP2 ADD PUSH2 0x20AA JUMP JUMPDEST SWAP1 JUMP JUMPDEST PUSH1 0x20 SWAP1 PUSH1 0x20 PUSH1 0x40 DUP2 DUP4 ADD SWAP3 DUP3 DUP2 MSTORE DUP6 MLOAD DUP1 SWAP5 MSTORE ADD SWAP4 ADD SWAP2 PUSH1 0x0 JUMPDEST DUP3 DUP2 LT PUSH2 0x2127 JUMPI POP POP POP POP SWAP1 JUMP JUMPDEST DUP4 MLOAD DUP6 MSTORE SWAP4 DUP2 ADD SWAP4 SWAP3 DUP2 ADD SWAP3 PUSH1 0x1 ADD PUSH2 0x2119 JUMP JUMPDEST PUSH1 0x1 PUSH1 0x1 PUSH1 0x40 SHL SUB DUP2 GT PUSH2 0x2AD JUMPI PUSH1 0x5 SHL PUSH1 0x20 ADD SWAP1 JUMP JUMPDEST DUP1 SLOAD DUP3 LT ISZERO PUSH2 0x216A JUMPI PUSH1 0x0 MSTORE PUSH1 0x20 PUSH1 0x0 KECCAK256 ADD SWAP1 PUSH1 0x0 SWAP1 JUMP JUMPDEST PUSH4 0x4E487B71 PUSH1 0xE0 SHL PUSH1 0x0 MSTORE PUSH1 0x32 PUSH1 0x4 MSTORE PUSH1 0x24 PUSH1 0x0 REVERT JUMPDEST ISZERO PUSH2 0x2187 JUMPI JUMP JUMPDEST PUSH1 0x40 MLOAD PUSH3 0x461BCD PUSH1 0xE5 SHL DUP2 MSTORE PUSH1 0x20 PUSH1 0x4 DUP3 ADD MSTORE PUSH1 0x21 PUSH1 0x24 DUP3 ADD MSTORE PUSH32 0x4F6E6C792061646D696E2063616E2063616C6C20746869732066756E6374696F PUSH1 0x44 DUP3 ADD MSTORE PUSH1 0x37 PUSH1 0xF9 SHL PUSH1 0x64 DUP3 ADD MSTORE PUSH1 0x84 SWAP1 REVERT JUMPDEST ISZERO PUSH2 0x21DD JUMPI JUMP JUMPDEST PUSH1 0x40 MLOAD PUSH3 0x461BCD PUSH1 0xE5 SHL DUP2 MSTORE PUSH1 0x20 PUSH1 0x4 DUP3 ADD MSTORE PUSH1 0x15 PUSH1 0x24 DUP3 ADD MSTORE PUSH21 0x151C985B9CD858DD1A5BDB881B9BDD08199BDD5B99 PUSH1 0x5A SHL PUSH1 0x44 DUP3 ADD MSTORE PUSH1 0x64 SWAP1 REVERT JUMPDEST ISZERO PUSH2 0x2221 JUMPI JUMP JUMPDEST PUSH1 0x40 MLOAD PUSH3 0x461BCD PUSH1 0xE5 SHL DUP2 MSTORE PUSH1 0x20 PUSH1 0x4 DUP3 ADD MSTORE PUSH1 0x30 PUSH1 0x24 DUP3 ADD MSTORE PUSH32 0x4F6E6C7920617574686F72697A6564206164647265737365732063616E206361 PUSH1 0x44 DUP3 ADD MSTORE PUSH16 0x3636103A3434B990333AB731BA34B7B7 PUSH1 0x81 SHL PUSH1 0x64 DUP3 ADD MSTORE PUSH1 0x84 SWAP1 REVERT JUMPDEST DUP2 DUP2 LT PUSH2 0x228A JUMPI POP POP JUMP JUMPDEST PUSH1 0x0 DUP2 SSTORE PUSH1 0x1 ADD PUSH2 0x227F JUMP JUMPDEST SWAP2 SWAP1 PUSH1 0x1F DUP2 GT PUSH2 0x22A5 JUMPI POP POP POP JUMP JUMPDEST PUSH2 0x22D1 SWAP3 PUSH1 0x0 MSTORE PUSH1 0x20 PUSH1 0x0 KECCAK256 SWAP1 PUSH1 0x20 PUSH1 0x1F DUP5 ADD PUSH1 0x5 SHR DUP4 ADD SWAP4 LT PUSH2 0x22D3 JUMPI JUMPDEST PUSH1 0x1F ADD PUSH1 0x5 SHR ADD SWAP1 PUSH2 0x227F JUMP JUMPDEST JUMP JUMPDEST SWAP1 SWAP2 POP DUP2 SWAP1 PUSH2 0x22C4 JUMP JUMPDEST DUP1 SLOAD PUSH1 0x1 PUSH1 0x40 SHL DUP2 LT ISZERO PUSH2 0x2AD JUMPI PUSH2 0x22FA SWAP2 PUSH1 0x1 DUP3 ADD DUP2 SSTORE PUSH2 0x2152 JUMP JUMPDEST DUP2 SWAP3 SWAP2 SLOAD SWAP1 PUSH1 0x3 SHL SWAP2 DUP3 SHL SWAP2 PUSH1 0x0 NOT SWAP1 SHL NOT AND OR SWAP1 SSTORE JUMP JUMPDEST PUSH1 0x0 NOT DUP2 EQ PUSH2 0x2321 JUMPI PUSH1 0x1 ADD SWAP1 JUMP JUMPDEST PUSH4 0x4E487B71 PUSH1 0xE0 SHL PUSH1 0x0 MSTORE PUSH1 0x11 PUSH1 0x4 MSTORE PUSH1 0x24 PUSH1 0x0 REVERT JUMPDEST DUP1 ISZERO PUSH2 0x23DE JUMPI PUSH1 0x0 DUP2 DUP1 JUMPDEST PUSH2 0x23CA JUMPI POP PUSH2 0x2350 DUP2 PUSH2 0x208F JUMP JUMPDEST SWAP1 PUSH2 0x235E PUSH1 0x40 MLOAD SWAP3 DUP4 PUSH2 0x2010 JUMP JUMPDEST DUP1 DUP3 MSTORE PUSH1 0x1F NOT PUSH2 0x236D DUP3 PUSH2 0x208F JUMP JUMPDEST ADD CALLDATASIZE PUSH1 0x20 DUP5 ADD CALLDATACOPY JUMPDEST DUP1 SWAP3 DUP1 ISZERO PUSH2 0x23C3 JUMPI PUSH1 0x0 NOT DUP3 ADD SWAP2 DUP3 GT PUSH2 0x2321 JUMPI DUP2 SWAP4 PUSH1 0xA SWAP3 PUSH1 0x30 SWAP1 DUP5 DUP5 MOD DUP3 ADD DUP1 SWAP3 GT PUSH2 0x2321 JUMPI DUP6 MLOAD GT ISZERO PUSH2 0x216A JUMPI PUSH1 0xF8 SHL PUSH1 0x1 PUSH1 0x1 PUSH1 0xF8 SHL SUB NOT AND PUSH1 0x0 BYTE SWAP1 DUP5 ADD PUSH1 0x1F ADD MSTORE8 DIV SWAP2 PUSH2 0x2375 JUMP JUMPDEST POP POP SWAP1 POP SWAP1 JUMP JUMPDEST SWAP1 PUSH2 0x23D6 PUSH1 0xA SWAP2 PUSH2 0x2312 JUMP JUMPDEST SWAP2 DIV DUP1 PUSH2 0x2342 JUMP JUMPDEST POP PUSH1 0x40 MLOAD PUSH2 0x23EB DUP2 PUSH2 0x1FF5 JUMP JUMPDEST PUSH1 0x1 DUP2 MSTORE PUSH1 0x3 PUSH1 0xFC SHL PUSH1 0x20 DUP3 ADD MSTORE SWAP1 JUMP JUMPDEST SWAP2 SWAP1 SWAP2 PUSH1 0x1 DUP1 PUSH1 0xA0 SHL SUB AND PUSH1 0x0 SWAP3 DUP2 DUP5 MSTORE PUSH1 0x20 SWAP1 PUSH1 0x2 DUP3 MSTORE PUSH1 0x40 SWAP2 DUP3 DUP7 KECCAK256 SWAP2 PUSH2 0x2425 DUP4 SLOAD PUSH2 0x2312 JUMP JUMPDEST DUP4 SSTORE NUMBER PUSH1 0x3 DUP5 ADD SSTORE PUSH1 0x5 DUP4 ADD PUSH1 0x1 PUSH1 0xFF NOT DUP3 SLOAD AND OR SWAP1 SSTORE DUP1 MLOAD PUSH32 0xB6D2DC83590271A7C0A5AB5FBF6A2DAD418BBFD533C253E3D69A6772712809C7 DUP4 DUP4 ADD SWAP2 DUP3 KECCAK256 PUSH8 0x1C1C9BDC1BDCD85B PUSH1 0xC2 SHL DUP6 DUP9 MLOAD PUSH2 0x247D DUP2 PUSH2 0x1FF5 JUMP JUMPDEST PUSH1 0x8 DUP2 MSTORE ADD MSTORE SUB PUSH2 0x24FA JUMPI POP POP PUSH1 0x1 DUP3 ADD PUSH2 0x2498 DUP2 SLOAD PUSH2 0x2312 JUMP JUMPDEST SWAP1 SSTORE PUSH1 0x4 DUP3 ADD DUP1 SLOAD SWAP1 PUSH1 0xA DUP3 ADD DUP1 SWAP3 GT PUSH2 0x24E6 JUMPI PUSH32 0x1DE1B315819996FA3806DE26B2DE57C02F9B5BF13E6F68AF7D759D1BF058A1A2 SWAP6 SWAP7 SWAP8 POP SSTORE JUMPDEST PUSH1 0x4 DUP3 SLOAD SWAP3 ADD SLOAD SWAP1 DUP4 MLOAD SWAP3 DUP4 MSTORE DUP3 ADD MSTORE LOG2 JUMP JUMPDEST PUSH4 0x4E487B71 PUSH1 0xE0 SHL DUP9 MSTORE PUSH1 0x11 PUSH1 0x4 MSTORE PUSH1 0x24 DUP9 REVERT JUMPDEST PUSH32 0x932BDF85FC8AA10AC3C22F02317F8F53D4B4F52235ED1EABB3A4CBBE08B5C41 DUP3 MLOAD DUP3 KECCAK256 PUSH4 0x766F7465 PUSH1 0xE0 SHL DUP6 DUP9 MLOAD PUSH2 0x2533 DUP2 PUSH2 0x1FF5 JUMP JUMPDEST PUSH1 0x4 DUP2 MSTORE ADD MSTORE SUB PUSH2 0x258D JUMPI POP POP PUSH1 0x2 DUP3 ADD PUSH2 0x254E DUP2 SLOAD PUSH2 0x2312 JUMP JUMPDEST SWAP1 SSTORE PUSH1 0x4 DUP3 ADD DUP1 SLOAD SWAP1 PUSH1 0x5 DUP3 ADD DUP1 SWAP3 GT PUSH2 0x24E6 JUMPI PUSH32 0x1DE1B315819996FA3806DE26B2DE57C02F9B5BF13E6F68AF7D759D1BF058A1A2 SWAP6 SWAP7 SWAP8 POP SSTORE PUSH2 0x24D3 JUMP JUMPDEST PUSH32 0xA29CAD97D4110E8822DEDEF32879F84A8E8889BF965FF9C57998689E2FDAFBC4 SWAP2 MLOAD SWAP1 KECCAK256 PUSH3 0x6B7963 PUSH1 0xE8 SHL DUP4 DUP7 MLOAD PUSH2 0x25C5 DUP2 PUSH2 0x1FF5 JUMP JUMPDEST PUSH1 0x3 DUP2 MSTORE ADD MSTORE EQ PUSH2 0x25FB JUMPI JUMPDEST PUSH32 0x1DE1B315819996FA3806DE26B2DE57C02F9B5BF13E6F68AF7D759D1BF058A1A2 SWAP4 SWAP5 SWAP6 POP PUSH2 0x24D3 JUMP JUMPDEST PUSH1 0x4 DUP3 ADD DUP1 SLOAD SWAP1 PUSH1 0x14 DUP3 ADD DUP1 SWAP3 GT PUSH2 0x24E6 JUMPI SSTORE SWAP4 SWAP5 POP DUP5 SWAP4 PUSH2 0x25D1 JUMP INVALID LOG2 PUSH5 0x6970667358 0x22 SLT KECCAK256 NUMBER 0xE1 0xBE MSTORE8 0xAF JUMPI 0xAE 0x1E LOG0 PUSH15 0xAE7B6A5707EDCA42FC2035CAEBA757 0x2C 0x4F KECCAK256 0xE7 0xC4 0xE9 CALL PUSH5 0x736F6C6343 STOP ADDMOD XOR STOP CALLER PUSH1 0x80 CALLVALUE PUSH3 0x433 JUMPI PUSH1 0x1F PUSH3 0x16FD CODESIZE DUP2 SWAP1 SUB DUP3 DUP2 ADD PUSH1 0x1F NOT SWAP1 DUP2 AND DUP6 ADD SWAP5 SWAP4 PUSH1 0x1 PUSH1 0x1 PUSH1 0x40 SHL SUB SWAP4 SWAP1 SWAP3 DUP5 DUP8 GT DUP7 DUP9 LT OR PUSH3 0x438 JUMPI DUP1 DUP7 SWAP3 PUSH1 0x40 SWAP9 DUP10 MSTORE DUP4 CODECOPY PUSH1 0x20 SWAP6 DUP7 SWAP2 DUP2 ADD SUB SLT PUSH3 0x433 JUMPI MLOAD PUSH1 0x1 PUSH1 0x1 PUSH1 0xA0 SHL SUB SWAP5 DUP6 DUP3 AND SWAP5 SWAP2 DUP6 SWAP1 SUB PUSH3 0x433 JUMPI PUSH3 0x6E PUSH3 0x44E JUMP JUMPDEST PUSH1 0x14 DUP2 MSTORE PUSH32 0x4754552044414F2053746174757320546F6B656E000000000000000000000000 DUP3 DUP3 ADD MSTORE PUSH3 0xA1 PUSH3 0x44E JUMP JUMPDEST SWAP5 PUSH1 0x4 SWAP6 DUP7 DUP2 MSTORE PUSH4 0x14D51055 PUSH1 0xE2 SHL DUP5 DUP3 ADD MSTORE DUP3 MLOAD SWAP4 DUP6 DUP6 GT PUSH3 0x339 JUMPI PUSH1 0x3 SWAP5 DUP6 SLOAD SWAP5 PUSH1 0x1 SWAP6 DUP7 DUP2 DUP2 SHR SWAP2 AND DUP1 ISZERO PUSH3 0x428 JUMPI JUMPDEST DUP5 DUP3 LT EQ PUSH3 0x413 JUMPI SWAP1 DUP2 DUP7 DUP5 SWAP4 GT PUSH3 0x3BD JUMPI JUMPDEST POP DUP4 SWAP1 DUP7 DUP4 GT PUSH1 0x1 EQ PUSH3 0x35A JUMPI PUSH1 0x0 SWAP3 PUSH3 0x34E JUMPI JUMPDEST POP POP PUSH1 0x0 NOT DUP3 DUP9 SHL SHR NOT AND SWAP1 DUP6 SHL OR DUP6 SSTORE JUMPDEST DUP2 MLOAD SWAP6 DUP7 GT PUSH3 0x339 JUMPI DUP8 SLOAD DUP5 DUP2 DUP2 SHR SWAP2 AND DUP1 ISZERO PUSH3 0x32E JUMPI JUMPDEST DUP3 DUP3 LT EQ PUSH3 0x319 JUMPI DUP4 DUP2 GT PUSH3 0x2CE JUMPI JUMPDEST POP DUP1 SWAP3 DUP7 GT PUSH1 0x1 EQ PUSH3 0x262 JUMPI POP DUP5 SWAP6 POP SWAP1 DUP5 SWAP3 SWAP2 PUSH1 0x0 SWAP6 PUSH3 0x256 JUMPI JUMPDEST POP POP SHL SWAP3 PUSH1 0x0 NOT SWAP2 SHL SHR NOT AND OR DUP2 SSTORE JUMPDEST DUP2 ISZERO PUSH3 0x23F JUMPI POP PUSH1 0x5 DUP1 SLOAD PUSH1 0x1 PUSH1 0x1 PUSH1 0xA0 SHL SUB NOT DUP2 AND DUP4 OR SWAP1 SWAP2 SSTORE DUP4 MLOAD PUSH2 0x3E8 SWAP4 PUSH1 0x29 SWAP4 SWAP2 SWAP3 AND PUSH32 0x8BE0079C531659141344CD1FD0A4F28419497F9722A3DAAFE3B4186F6B6457E0 PUSH1 0x0 DUP1 LOG3 PUSH9 0x14149154D251115395 PUSH1 0xBA SHL DUP2 MSTORE PUSH1 0x7 PUSH1 0x9 DUP3 ADD MSTORE KECCAK256 SSTORE PUSH2 0x320 PUSH1 0x2E DUP3 MLOAD PUSH14 0x159250D157D4149154D251115395 PUSH1 0x92 SHL DUP2 MSTORE PUSH1 0x7 PUSH1 0xE DUP3 ADD MSTORE KECCAK256 SSTORE PUSH2 0x258 PUSH1 0x29 DUP3 MLOAD PUSH9 0x434F52455F5445414D PUSH1 0xB8 SHL DUP2 MSTORE PUSH1 0x7 PUSH1 0x9 DUP3 ADD MSTORE KECCAK256 SSTORE PUSH1 0x64 PUSH1 0x26 DUP3 MLOAD PUSH6 0x26A2A6A122A9 PUSH1 0xD1 SHL DUP2 MSTORE PUSH1 0x7 PUSH1 0x6 DUP3 ADD MSTORE KECCAK256 SSTORE MLOAD PUSH2 0x128E SWAP1 DUP2 PUSH3 0x46F DUP3 CODECOPY RETURN JUMPDEST PUSH1 0x24 SWAP1 PUSH1 0x0 DUP6 MLOAD SWAP2 PUSH4 0x1E4FBDF7 PUSH1 0xE0 SHL DUP4 MSTORE DUP3 ADD MSTORE REVERT JUMPDEST ADD MLOAD SWAP4 POP CODESIZE DUP1 PUSH3 0x15E JUMP JUMPDEST SWAP4 SWAP3 SWAP6 DUP6 SWAP1 DUP2 AND DUP9 PUSH1 0x0 MSTORE DUP6 PUSH1 0x0 KECCAK256 SWAP6 PUSH1 0x0 SWAP1 JUMPDEST DUP10 DUP4 DUP4 LT PUSH3 0x2B3 JUMPI POP POP POP LT PUSH3 0x298 JUMPI JUMPDEST POP POP POP POP DUP2 SHL ADD DUP2 SSTORE PUSH3 0x16E JUMP JUMPDEST ADD MLOAD SWAP1 PUSH1 0xF8 DUP5 PUSH1 0x0 NOT SWAP3 SHL AND SHR NOT AND SWAP1 SSTORE CODESIZE DUP1 DUP1 DUP1 PUSH3 0x289 JUMP JUMPDEST DUP6 DUP8 ADD MLOAD DUP10 SSTORE SWAP1 SWAP8 ADD SWAP7 SWAP5 DUP6 ADD SWAP5 DUP9 SWAP4 POP SWAP1 DUP2 ADD SWAP1 PUSH3 0x276 JUMP JUMPDEST DUP9 PUSH1 0x0 MSTORE DUP2 PUSH1 0x0 KECCAK256 DUP5 DUP1 DUP10 ADD PUSH1 0x5 SHR DUP3 ADD SWAP3 DUP5 DUP11 LT PUSH3 0x30F JUMPI JUMPDEST ADD PUSH1 0x5 SHR ADD SWAP1 DUP6 SWAP1 JUMPDEST DUP3 DUP2 LT PUSH3 0x302 JUMPI POP POP PUSH3 0x140 JUMP JUMPDEST PUSH1 0x0 DUP2 SSTORE ADD DUP6 SWAP1 PUSH3 0x2F2 JUMP JUMPDEST SWAP3 POP DUP2 SWAP3 PUSH3 0x2E9 JUMP JUMPDEST PUSH1 0x22 DUP10 PUSH4 0x4E487B71 PUSH1 0xE0 SHL PUSH1 0x0 MSTORE MSTORE PUSH1 0x24 PUSH1 0x0 REVERT JUMPDEST SWAP1 PUSH1 0x7F AND SWAP1 PUSH3 0x12E JUMP JUMPDEST PUSH1 0x41 DUP9 PUSH4 0x4E487B71 PUSH1 0xE0 SHL PUSH1 0x0 MSTORE MSTORE PUSH1 0x24 PUSH1 0x0 REVERT JUMPDEST ADD MLOAD SWAP1 POP CODESIZE DUP1 PUSH3 0x102 JUMP JUMPDEST SWAP1 DUP11 DUP9 SWAP5 AND SWAP2 DUP10 PUSH1 0x0 MSTORE DUP6 PUSH1 0x0 KECCAK256 SWAP3 PUSH1 0x0 JUMPDEST DUP8 DUP3 DUP3 LT PUSH3 0x3A6 JUMPI POP POP DUP5 GT PUSH3 0x38D JUMPI JUMPDEST POP POP POP DUP2 SHL ADD DUP6 SSTORE PUSH3 0x114 JUMP JUMPDEST ADD MLOAD PUSH1 0x0 NOT DUP4 DUP11 SHL PUSH1 0xF8 AND SHR NOT AND SWAP1 SSTORE CODESIZE DUP1 DUP1 PUSH3 0x37F JUMP JUMPDEST DUP4 DUP6 ADD MLOAD DUP7 SSTORE DUP12 SWAP8 SWAP1 SWAP6 ADD SWAP5 SWAP4 DUP5 ADD SWAP4 ADD PUSH3 0x36C JUMP JUMPDEST SWAP1 SWAP2 POP DUP8 PUSH1 0x0 MSTORE DUP4 PUSH1 0x0 KECCAK256 DUP7 DUP1 DUP6 ADD PUSH1 0x5 SHR DUP3 ADD SWAP3 DUP7 DUP7 LT PUSH3 0x409 JUMPI JUMPDEST SWAP2 DUP10 SWAP2 DUP7 SWAP6 SWAP5 SWAP4 ADD PUSH1 0x5 SHR ADD SWAP2 JUMPDEST DUP3 DUP2 LT PUSH3 0x3F9 JUMPI POP POP PUSH3 0xEB JUMP JUMPDEST PUSH1 0x0 DUP2 SSTORE DUP6 SWAP5 POP DUP10 SWAP2 ADD PUSH3 0x3E9 JUMP JUMPDEST SWAP3 POP DUP2 SWAP3 PUSH3 0x3DB JUMP JUMPDEST PUSH1 0x22 DUP12 PUSH4 0x4E487B71 PUSH1 0xE0 SHL PUSH1 0x0 MSTORE MSTORE PUSH1 0x24 PUSH1 0x0 REVERT JUMPDEST SWAP1 PUSH1 0x7F AND SWAP1 PUSH3 0xD6 JUMP JUMPDEST PUSH1 0x0 DUP1 REVERT JUMPDEST PUSH4 0x4E487B71 PUSH1 0xE0 SHL PUSH1 0x0 MSTORE PUSH1 0x41 PUSH1 0x4 MSTORE PUSH1 0x24 PUSH1 0x0 REVERT JUMPDEST PUSH1 0x40 DUP1 MLOAD SWAP2 SWAP1 DUP3 ADD PUSH1 0x1 PUSH1 0x1 PUSH1 0x40 SHL SUB DUP2 GT DUP4 DUP3 LT OR PUSH3 0x438 JUMPI PUSH1 0x40 MSTORE JUMP INVALID PUSH1 0x80 PUSH1 0x40 DUP2 DUP2 MSTORE PUSH1 0x4 DUP1 CALLDATASIZE LT ISZERO PUSH2 0x15 JUMPI PUSH1 0x0 DUP1 REVERT JUMPDEST PUSH1 0x0 SWAP3 DUP4 CALLDATALOAD PUSH1 0xE0 SHR SWAP1 DUP2 PUSH4 0x6FDDE03 EQ PUSH2 0xD62 JUMPI POP DUP1 PUSH4 0x95EA7B3 EQ PUSH2 0xCF0 JUMPI DUP1 PUSH4 0x15F570DC EQ PUSH2 0xC88 JUMPI DUP1 PUSH4 0x18160DDD EQ PUSH2 0xC69 JUMPI DUP1 PUSH4 0x1DE40E49 EQ PUSH2 0xC4D JUMPI DUP1 PUSH4 0x1E9D4904 EQ PUSH2 0xC2F JUMPI DUP1 PUSH4 0x23B872DD EQ PUSH2 0xBBD JUMPI DUP1 PUSH4 0x313CE567 EQ PUSH2 0xBA1 JUMPI DUP1 PUSH4 0x4177731F EQ PUSH2 0xB43 JUMPI DUP1 PUSH4 0x4E43603A EQ PUSH2 0xA75 JUMPI DUP1 PUSH4 0x54AE2738 EQ PUSH2 0xA18 JUMPI DUP1 PUSH4 0x70A08231 EQ PUSH2 0x9E1 JUMPI DUP1 PUSH4 0x715018A6 EQ PUSH2 0x984 JUMPI DUP1 PUSH4 0x8A65D874 EQ PUSH2 0x90D JUMPI DUP1 PUSH4 0x8DA5CB5B EQ PUSH2 0x8E4 JUMPI DUP1 PUSH4 0x9582FA34 EQ PUSH2 0x642 JUMPI DUP1 PUSH4 0x95D89B41 EQ PUSH2 0x553 JUMPI DUP1 PUSH4 0xA9059CBB EQ PUSH2 0x4A2 JUMPI DUP1 PUSH4 0xAB5A7D5A EQ PUSH2 0x39A JUMPI DUP1 PUSH4 0xD3FC9864 EQ PUSH2 0x30E JUMPI DUP1 PUSH4 0xDD62ED3E EQ PUSH2 0x2C1 JUMPI DUP1 PUSH4 0xEDFCC437 EQ PUSH2 0x1B2 JUMPI PUSH4 0xF2FDE38B EQ PUSH2 0x120 JUMPI PUSH1 0x0 DUP1 REVERT JUMPDEST CALLVALUE PUSH2 0x1AE JUMPI PUSH1 0x20 CALLDATASIZE PUSH1 0x3 NOT ADD SLT PUSH2 0x1AE JUMPI PUSH2 0x139 PUSH2 0xE82 JUMP JUMPDEST SWAP1 PUSH2 0x142 PUSH2 0x1111 JUMP JUMPDEST PUSH1 0x1 PUSH1 0x1 PUSH1 0xA0 SHL SUB SWAP2 DUP3 AND SWAP3 DUP4 ISZERO PUSH2 0x198 JUMPI POP POP PUSH1 0x5 SLOAD DUP3 PUSH12 0xFFFFFFFFFFFFFFFFFFFFFFFF PUSH1 0xA0 SHL DUP3 AND OR PUSH1 0x5 SSTORE AND PUSH32 0x8BE0079C531659141344CD1FD0A4F28419497F9722A3DAAFE3B4186F6B6457E0 DUP4 DUP1 LOG3 DUP1 RETURN JUMPDEST MLOAD PUSH4 0x1E4FBDF7 PUSH1 0xE0 SHL DUP2 MSTORE SWAP1 DUP2 ADD DUP5 SWAP1 MSTORE PUSH1 0x24 SWAP1 REVERT JUMPDEST DUP3 DUP1 REVERT JUMPDEST POP SWAP1 CALLVALUE PUSH2 0x1AE JUMPI PUSH1 0x20 CALLDATASIZE PUSH1 0x3 NOT ADD SLT PUSH2 0x1AE JUMPI PUSH2 0x1CD PUSH2 0xE82 JUMP JUMPDEST PUSH1 0x1 PUSH1 0x1 PUSH1 0xA0 SHL SUB DUP2 AND DUP1 DUP6 MSTORE PUSH1 0x6 PUSH1 0x20 MSTORE DUP3 DUP6 KECCAK256 SLOAD SWAP1 SWAP4 SWAP1 PUSH3 0x278D00 DUP2 ADD SWAP1 DUP2 LT PUSH2 0x2AE JUMPI TIMESTAMP LT PUSH2 0x274 JUMPI DUP4 DUP6 MSTORE DUP5 PUSH1 0x20 MSTORE DUP3 DUP6 KECCAK256 SLOAD SWAP1 PUSH1 0x5 DUP3 MUL SWAP2 DUP1 DUP4 DIV PUSH1 0x5 EQ SWAP1 ISZERO OR ISZERO PUSH2 0x261 JUMPI POP PUSH1 0x64 SWAP1 DIV DUP1 PUSH2 0x226 JUMPI DUP5 DUP1 RETURN JUMPDEST PUSH32 0x79F983B8FB121392D55D6B815393BF7DD2134065DF6B6C2A14FBFF6CAF21BC06 SWAP3 PUSH2 0x254 DUP3 PUSH1 0x20 SWAP5 PUSH2 0x113D JUMP JUMPDEST MLOAD SWAP1 DUP2 MSTORE LOG2 CODESIZE DUP1 DUP1 DUP1 DUP5 DUP1 RETURN JUMPDEST PUSH4 0x4E487B71 PUSH1 0xE0 SHL DUP7 MSTORE PUSH1 0x11 SWAP1 MSTORE PUSH1 0x24 DUP6 REVERT JUMPDEST PUSH1 0x64 SWAP1 PUSH1 0x20 DUP5 MLOAD SWAP2 PUSH3 0x461BCD PUSH1 0xE5 SHL DUP4 MSTORE DUP3 ADD MSTORE PUSH1 0x14 PUSH1 0x24 DUP3 ADD MSTORE PUSH20 0x55736572206973207374696C6C20616374697665 PUSH1 0x60 SHL PUSH1 0x44 DUP3 ADD MSTORE REVERT JUMPDEST PUSH4 0x4E487B71 PUSH1 0xE0 SHL DUP7 MSTORE PUSH1 0x11 DUP3 MSTORE PUSH1 0x24 DUP7 REVERT JUMPDEST POP POP CALLVALUE PUSH2 0x30A JUMPI DUP1 PUSH1 0x3 NOT CALLDATASIZE ADD SLT PUSH2 0x30A JUMPI DUP1 PUSH1 0x20 SWAP3 PUSH2 0x2DF PUSH2 0xE82 JUMP JUMPDEST PUSH2 0x2E7 PUSH2 0xE9D JUMP JUMPDEST PUSH1 0x1 PUSH1 0x1 PUSH1 0xA0 SHL SUB SWAP2 DUP3 AND DUP4 MSTORE PUSH1 0x1 DUP7 MSTORE DUP4 DUP4 KECCAK256 SWAP2 AND DUP3 MSTORE DUP5 MSTORE KECCAK256 SLOAD SWAP1 MLOAD SWAP1 DUP2 MSTORE RETURN JUMPDEST POP DUP1 REVERT JUMPDEST POP POP CALLVALUE PUSH2 0x30A JUMPI PUSH32 0x79C5D66E2599A2F835D79AE78578DA14935990E01F26BAF55A4639C8220559C4 PUSH2 0x394 SWAP2 PUSH2 0x343 CALLDATASIZE PUSH2 0xF7A JUMP JUMPDEST SWAP5 SWAP1 SWAP2 PUSH2 0x34E PUSH2 0x1111 JUMP JUMPDEST PUSH2 0x358 DUP4 DUP3 PUSH2 0x11E1 JUMP JUMPDEST PUSH1 0x1 DUP1 PUSH1 0xA0 SHL SUB AND SWAP5 DUP6 DUP8 MSTORE PUSH1 0x6 PUSH1 0x20 MSTORE PUSH1 0x1 DUP5 DUP9 KECCAK256 TIMESTAMP DUP2 SSTORE ADD PUSH2 0x37D DUP5 DUP3 SLOAD PUSH2 0x10DF JUMP JUMPDEST SWAP1 SSTORE DUP4 MLOAD SWAP4 DUP5 SWAP4 DUP5 MSTORE DUP1 PUSH1 0x20 DUP6 ADD MSTORE DUP4 ADD SWAP1 PUSH2 0xE5D JUMP JUMPDEST SUB SWAP1 LOG2 DUP1 RETURN JUMPDEST POP SWAP1 CALLVALUE PUSH2 0x1AE JUMPI PUSH2 0x3AA CALLDATASIZE PUSH2 0x109F JUMP JUMPDEST SWAP3 SWAP1 PUSH2 0x3B4 PUSH2 0x1111 JUMP JUMPDEST PUSH1 0x1 DUP1 PUSH1 0xA0 SHL SUB AND SWAP1 DUP2 DUP6 MSTORE PUSH1 0x20 SWAP4 PUSH1 0x6 DUP6 MSTORE TIMESTAMP DUP5 DUP8 KECCAK256 SSTORE DUP1 MLOAD SWAP1 PUSH32 0xB6D2DC83590271A7C0A5AB5FBF6A2DAD418BBFD533C253E3D69A6772712809C7 DUP7 DUP3 ADD SWAP3 DUP4 KECCAK256 PUSH8 0x1C1C9BDC1BDCD85B PUSH1 0xC2 SHL DUP9 DUP9 MLOAD PUSH2 0x40E DUP2 PUSH2 0xEE5 JUMP JUMPDEST PUSH1 0x8 DUP2 MSTORE ADD MSTORE SUB PUSH2 0x437 JUMPI POP POP POP PUSH1 0x2 SWAP3 PUSH1 0x6 SWAP2 DUP6 MSTORE MSTORE DUP3 KECCAK256 ADD PUSH2 0x432 DUP2 SLOAD PUSH2 0x1102 JUMP JUMPDEST SWAP1 SSTORE DUP1 RETURN JUMPDEST MLOAD SWAP1 KECCAK256 DUP4 MLOAD PUSH32 0x932BDF85FC8AA10AC3C22F02317F8F53D4B4F52235ED1EABB3A4CBBE08B5C41 SWAP3 PUSH4 0x766F7465 PUSH1 0xE0 SHL SWAP2 DUP8 SWAP2 PUSH2 0x472 DUP3 PUSH2 0xEE5 JUMP JUMPDEST DUP2 MSTORE ADD MSTORE EQ PUSH2 0x482 JUMPI JUMPDEST POP POP POP DUP1 RETURN JUMPDEST PUSH1 0x3 SWAP3 PUSH1 0x6 SWAP2 DUP6 MSTORE MSTORE DUP3 KECCAK256 ADD PUSH2 0x498 DUP2 SLOAD PUSH2 0x1102 JUMP JUMPDEST SWAP1 SSTORE CODESIZE DUP1 DUP1 PUSH2 0x47C JUMP JUMPDEST POP DUP3 CALLVALUE PUSH2 0x550 JUMPI DUP3 PUSH1 0x3 NOT CALLDATASIZE ADD SLT PUSH2 0x550 JUMPI PUSH2 0x4BC PUSH2 0xE82 JUMP JUMPDEST CALLER ISZERO PUSH2 0x53B JUMPI PUSH1 0x1 PUSH1 0x1 PUSH1 0xA0 SHL SUB AND ISZERO PUSH2 0x527 JUMPI POP PUSH1 0x20 PUSH1 0x84 SWAP3 MLOAD SWAP2 PUSH3 0x461BCD PUSH1 0xE5 SHL DUP4 MSTORE DUP3 ADD MSTORE PUSH1 0x2B PUSH1 0x24 DUP3 ADD MSTORE PUSH32 0x5354415420697320736F756C626F756E6420616E642063616E6E6F7420626520 PUSH1 0x44 DUP3 ADD MSTORE PUSH11 0x1D1C985B9CD9995C9C9959 PUSH1 0xAA SHL PUSH1 0x64 DUP3 ADD MSTORE REVERT JUMPDEST PUSH1 0x24 SWAP3 MLOAD SWAP2 PUSH4 0xEC442F05 PUSH1 0xE0 SHL DUP4 MSTORE DUP3 ADD MSTORE REVERT JUMPDEST POP PUSH1 0x24 SWAP3 MLOAD SWAP2 PUSH4 0x4B637E8F PUSH1 0xE1 SHL DUP4 MSTORE DUP3 ADD MSTORE REVERT JUMPDEST DUP1 REVERT JUMPDEST POP SWAP1 CALLVALUE PUSH2 0x1AE JUMPI DUP3 PUSH1 0x3 NOT CALLDATASIZE ADD SLT PUSH2 0x1AE JUMPI DUP1 MLOAD DUP4 DUP2 SWAP5 SWAP1 DUP5 SLOAD PUSH2 0x576 DUP2 PUSH2 0xFC0 JUMP JUMPDEST SWAP2 DUP3 DUP6 MSTORE PUSH1 0x20 SWAP7 PUSH1 0x1 SWAP3 DUP9 PUSH1 0x1 DUP3 AND SWAP2 DUP3 PUSH1 0x0 EQ PUSH2 0x618 JUMPI POP POP PUSH1 0x1 EQ PUSH2 0x5BD JUMPI JUMPDEST DUP6 DUP9 PUSH2 0x5B9 DUP10 PUSH2 0x5AA DUP5 DUP11 SUB DUP6 PUSH2 0xF01 JUMP JUMPDEST MLOAD SWAP3 DUP3 DUP5 SWAP4 DUP5 MSTORE DUP4 ADD SWAP1 PUSH2 0xE5D JUMP JUMPDEST SUB SWAP1 RETURN JUMPDEST DUP2 MSTORE DUP7 SWAP4 POP SWAP2 SWAP1 PUSH32 0x8A35ACFBC15FF81A39AE7D344FD709F28E8600B4AA8C65C6B64BFE7FE36BD19B JUMPDEST DUP3 DUP5 LT PUSH2 0x600 JUMPI POP POP POP DUP3 ADD ADD DUP2 PUSH2 0x5AA PUSH2 0x5B9 CODESIZE PUSH2 0x598 JUMP JUMPDEST DUP1 SLOAD DUP5 DUP11 ADD DUP7 ADD MSTORE DUP9 SWAP6 POP DUP8 SWAP5 SWAP1 SWAP4 ADD SWAP3 DUP2 ADD PUSH2 0x5E6 JUMP JUMPDEST PUSH1 0xFF NOT AND DUP9 DUP3 ADD MSTORE SWAP5 ISZERO ISZERO PUSH1 0x5 SHL DUP8 ADD SWAP1 SWAP5 ADD SWAP5 POP DUP6 SWAP4 POP PUSH2 0x5AA SWAP3 POP PUSH2 0x5B9 SWAP2 POP CODESIZE SWAP1 POP PUSH2 0x598 JUMP JUMPDEST POP SWAP2 SWAP1 CALLVALUE PUSH2 0x30A JUMPI PUSH2 0x653 CALLDATASIZE PUSH2 0x109F JUMP JUMPDEST SWAP2 PUSH2 0x65C PUSH2 0x1111 JUMP JUMPDEST DUP1 MLOAD SWAP3 DUP1 MLOAD PUSH1 0x20 SWAP5 DUP6 DUP2 DUP2 DUP6 ADD SWAP4 PUSH2 0x675 DUP2 DUP4 DUP8 PUSH2 0xE3A JUMP JUMPDEST DUP2 ADD PUSH1 0x7 DUP2 MSTORE SUB ADD SWAP1 KECCAK256 SLOAD SWAP4 DUP5 ISZERO PUSH2 0x8B2 JUMPI DUP6 SWAP7 SWAP8 PUSH2 0x694 DUP7 DUP4 PUSH2 0x11E1 JUMP JUMPDEST DUP5 MLOAD PUSH2 0x69F DUP2 PUSH2 0xEB3 JUMP JUMPDEST TIMESTAMP DUP2 MSTORE DUP2 DUP9 DUP3 ADD SWAP2 DUP9 DUP4 MSTORE DUP12 DUP9 DUP3 ADD DUP2 DUP2 MSTORE DUP10 PUSH1 0x60 DUP5 ADD SWAP3 DUP1 DUP5 MSTORE PUSH1 0x80 DUP6 ADD SWAP9 DUP12 DUP11 MSTORE PUSH1 0x1 PUSH1 0xA0 SHL PUSH1 0x1 SWAP1 SUB AND SWAP15 DUP16 DUP3 MSTORE PUSH1 0x6 SWAP1 MSTORE KECCAK256 SWAP3 MLOAD DUP4 SSTORE PUSH1 0x1 SWAP5 MLOAD DUP6 DUP5 ADD SSTORE MLOAD PUSH1 0x2 DUP4 ADD SSTORE MLOAD PUSH1 0x3 DUP3 ADD SSTORE ADD SWAP3 MLOAD DUP1 MLOAD SWAP3 PUSH8 0xFFFFFFFFFFFFFFFF DUP5 GT PUSH2 0x89F JUMPI POP PUSH2 0x70D DUP5 SLOAD PUSH2 0xFC0 JUMP JUMPDEST PUSH1 0x1F DUP2 GT PUSH2 0x859 JUMPI JUMPDEST POP DUP9 SWAP1 DUP12 PUSH1 0x1F DUP6 GT PUSH1 0x1 EQ PUSH2 0x7C4 JUMPI SWAP5 DUP5 DUP1 PUSH2 0x7A6 SWAP7 PUSH1 0x26 SWAP7 PUSH2 0x394 SWAP12 SWAP7 PUSH32 0x79C5D66E2599A2F835D79AE78578DA14935990E01F26BAF55A4639C8220559C4 SWAP16 SWAP15 SWAP14 SWAP11 SWAP7 PUSH2 0x796 SWAP13 SWAP8 SWAP5 PUSH2 0x7B9 JUMPI JUMPDEST POP POP SHL SWAP2 PUSH1 0x0 NOT SWAP1 PUSH1 0x3 SHL SHR NOT AND OR SWAP1 SSTORE JUMPDEST DUP5 MLOAD SWAP6 DUP7 SWAP3 PUSH6 0x2937B6329D1 PUSH1 0xD5 SHL DUP12 DUP6 ADD MSTORE MLOAD DUP1 SWAP3 DUP6 DUP6 ADD SWAP1 PUSH2 0xE3A JUMP JUMPDEST DUP2 ADD SUB PUSH1 0x6 DUP2 ADD DUP6 MSTORE ADD DUP4 PUSH2 0xF01 JUMP JUMPDEST DUP1 DUP1 MLOAD SWAP6 DUP7 SWAP6 DUP7 MSTORE DUP6 ADD MSTORE DUP4 ADD SWAP1 PUSH2 0xE5D JUMP JUMPDEST ADD MLOAD SWAP3 POP CODESIZE DUP1 PUSH2 0x765 JUMP JUMPDEST POP DUP5 DUP13 MSTORE DUP10 DUP13 KECCAK256 SWAP3 SWAP4 SWAP3 SWAP2 SWAP1 PUSH1 0x1F NOT DUP5 AND DUP14 JUMPDEST DUP2 DUP2 LT PUSH2 0x844 JUMPI POP SWAP5 DUP5 PUSH2 0x394 SWAP10 SWAP5 PUSH2 0x796 SWAP10 SWAP5 PUSH32 0x79C5D66E2599A2F835D79AE78578DA14935990E01F26BAF55A4639C8220559C4 SWAP15 SWAP14 SWAP13 SWAP10 SWAP5 PUSH1 0x26 SWAP9 PUSH2 0x7A6 SWAP11 LT PUSH2 0x82B JUMPI JUMPDEST POP POP POP DUP2 SHL ADD SWAP1 SSTORE PUSH2 0x777 JUMP JUMPDEST ADD MLOAD PUSH1 0x0 NOT PUSH1 0xF8 DUP5 PUSH1 0x3 SHL AND SHR NOT AND SWAP1 SSTORE CODESIZE DUP1 DUP1 PUSH2 0x81E JUMP JUMPDEST DUP3 DUP5 ADD MLOAD DUP6 SSTORE SWAP4 DUP7 ADD SWAP4 SWAP3 DUP13 ADD SWAP3 DUP13 ADD PUSH2 0x7D7 JUMP JUMPDEST DUP5 DUP13 MSTORE DUP10 DUP13 KECCAK256 PUSH1 0x1F DUP6 ADD PUSH1 0x5 SHR DUP2 ADD SWAP2 DUP12 DUP7 LT PUSH2 0x895 JUMPI JUMPDEST PUSH1 0x1F ADD PUSH1 0x5 SHR ADD SWAP1 DUP4 SWAP1 JUMPDEST DUP3 DUP2 LT PUSH2 0x88A JUMPI POP POP PUSH2 0x716 JUMP JUMPDEST DUP14 DUP2 SSTORE ADD DUP4 SWAP1 PUSH2 0x87C JUMP JUMPDEST SWAP1 SWAP2 POP DUP2 SWAP1 PUSH2 0x871 JUMP JUMPDEST PUSH4 0x4E487B71 PUSH1 0xE0 SHL DUP13 MSTORE PUSH1 0x41 SWAP1 MSTORE PUSH1 0x24 DUP12 REVERT JUMPDEST DUP4 MLOAD PUSH3 0x461BCD PUSH1 0xE5 SHL DUP2 MSTORE DUP1 DUP10 ADD DUP8 SWAP1 MSTORE PUSH1 0xC PUSH1 0x24 DUP3 ADD MSTORE PUSH12 0x496E76616C696420726F6C65 PUSH1 0xA0 SHL PUSH1 0x44 DUP3 ADD MSTORE PUSH1 0x64 SWAP1 REVERT JUMPDEST POP POP CALLVALUE PUSH2 0x30A JUMPI DUP2 PUSH1 0x3 NOT CALLDATASIZE ADD SLT PUSH2 0x30A JUMPI PUSH1 0x5 SLOAD SWAP1 MLOAD PUSH1 0x1 PUSH1 0x1 PUSH1 0xA0 SHL SUB SWAP1 SWAP2 AND DUP2 MSTORE PUSH1 0x20 SWAP1 RETURN JUMPDEST POP SWAP2 CALLVALUE PUSH2 0x550 JUMPI PUSH1 0x20 CALLDATASIZE PUSH1 0x3 NOT ADD SLT PUSH2 0x550 JUMPI PUSH2 0x5B9 SWAP1 DUP3 SWAP1 PUSH1 0x1 PUSH1 0x1 PUSH1 0xA0 SHL SUB PUSH2 0x936 PUSH2 0xE82 JUMP JUMPDEST AND DUP2 MSTORE PUSH1 0x6 PUSH1 0x20 MSTORE KECCAK256 SWAP2 DUP3 SLOAD SWAP3 PUSH1 0x1 DUP2 ADD SLOAD SWAP5 PUSH2 0x95E PUSH1 0x2 DUP4 ADD SLOAD SWAP2 PUSH1 0x3 DUP5 ADD SLOAD SWAP4 ADD PUSH2 0xFFA JUMP JUMPDEST SWAP3 DUP1 MLOAD SWAP7 DUP8 SWAP7 DUP8 MSTORE PUSH1 0x20 DUP8 ADD MSTORE DUP6 ADD MSTORE PUSH1 0x60 DUP5 ADD MSTORE PUSH1 0xA0 PUSH1 0x80 DUP5 ADD MSTORE PUSH1 0xA0 DUP4 ADD SWAP1 PUSH2 0xE5D JUMP JUMPDEST DUP4 CALLVALUE PUSH2 0x550 JUMPI DUP1 PUSH1 0x3 NOT CALLDATASIZE ADD SLT PUSH2 0x550 JUMPI PUSH2 0x99D PUSH2 0x1111 JUMP JUMPDEST PUSH1 0x5 DUP1 SLOAD PUSH1 0x1 PUSH1 0x1 PUSH1 0xA0 SHL SUB NOT DUP2 AND SWAP1 SWAP2 SSTORE DUP2 SWAP1 PUSH1 0x1 PUSH1 0x1 PUSH1 0xA0 SHL SUB AND PUSH32 0x8BE0079C531659141344CD1FD0A4F28419497F9722A3DAAFE3B4186F6B6457E0 DUP3 DUP1 LOG3 DUP1 RETURN JUMPDEST POP POP CALLVALUE PUSH2 0x30A JUMPI PUSH1 0x20 CALLDATASIZE PUSH1 0x3 NOT ADD SLT PUSH2 0x30A JUMPI PUSH1 0x20 SWAP2 DUP2 SWAP1 PUSH1 0x1 PUSH1 0x1 PUSH1 0xA0 SHL SUB PUSH2 0xA09 PUSH2 0xE82 JUMP JUMPDEST AND DUP2 MSTORE DUP1 DUP5 MSTORE KECCAK256 SLOAD SWAP1 MLOAD SWAP1 DUP2 MSTORE RETURN JUMPDEST POP SWAP2 CALLVALUE PUSH2 0x550 JUMPI PUSH1 0x20 CALLDATASIZE PUSH1 0x3 NOT ADD SLT PUSH2 0x550 JUMPI DUP3 CALLDATALOAD SWAP1 PUSH8 0xFFFFFFFFFFFFFFFF DUP3 GT PUSH2 0x550 JUMPI POP PUSH1 0x20 PUSH2 0xA51 DUP2 SWAP5 PUSH2 0xA63 SWAP4 CALLDATASIZE SWAP2 ADD PUSH2 0xF23 JUMP JUMPDEST DUP2 DUP5 MLOAD SWAP4 DUP3 DUP6 DUP1 SWAP5 MLOAD SWAP4 DUP5 SWAP3 ADD PUSH2 0xE3A JUMP JUMPDEST DUP2 ADD PUSH1 0x7 DUP2 MSTORE SUB ADD SWAP1 KECCAK256 SLOAD SWAP1 MLOAD SWAP1 DUP2 MSTORE RETURN JUMPDEST POP SWAP1 CALLVALUE PUSH2 0x1AE JUMPI PUSH1 0x20 SWAP3 DUP4 PUSH1 0x3 NOT CALLDATASIZE ADD SLT PUSH2 0x550 JUMPI SWAP1 DUP1 PUSH2 0x5B9 SWAP3 PUSH2 0xA98 PUSH2 0xE82 JUMP JUMPDEST PUSH1 0x60 PUSH1 0x80 DUP5 MLOAD PUSH2 0xAA7 DUP2 PUSH2 0xEB3 JUMP JUMPDEST DUP5 DUP2 MSTORE DUP10 DUP2 ADD DUP6 SWAP1 MSTORE DUP6 DUP2 ADD DUP6 SWAP1 MSTORE DUP3 DUP2 ADD DUP6 SWAP1 MSTORE ADD MSTORE PUSH1 0x1 PUSH1 0x1 PUSH1 0xA0 SHL SUB AND DUP2 MSTORE PUSH1 0x6 DUP7 MSTORE KECCAK256 DUP2 MLOAD SWAP4 PUSH2 0xADA DUP6 PUSH2 0xEB3 JUMP JUMPDEST DUP2 SLOAD DUP6 MSTORE PUSH1 0x1 DUP3 ADD SLOAD SWAP3 DUP7 DUP7 ADD SWAP4 DUP5 MSTORE PUSH2 0xB0C PUSH1 0x2 DUP5 ADD SLOAD SWAP3 DUP3 DUP9 ADD SWAP4 DUP5 MSTORE PUSH1 0x3 DUP6 ADD SLOAD SWAP5 PUSH1 0x60 DUP10 ADD SWAP6 DUP7 MSTORE ADD PUSH2 0xFFA JUMP JUMPDEST SWAP4 PUSH1 0x80 DUP8 ADD SWAP5 DUP6 MSTORE DUP2 MLOAD SWAP8 DUP9 SWAP8 DUP2 DUP10 MSTORE MLOAD SWAP1 DUP9 ADD MSTORE MLOAD SWAP1 DUP7 ADD MSTORE MLOAD PUSH1 0x60 DUP6 ADD MSTORE MLOAD PUSH1 0x80 DUP5 ADD MSTORE MLOAD PUSH1 0xA0 DUP1 DUP5 ADD MSTORE PUSH1 0xC0 DUP4 ADD SWAP1 PUSH2 0xE5D JUMP JUMPDEST POP SWAP2 SWAP1 CALLVALUE PUSH2 0x30A JUMPI PUSH1 0x20 CALLDATASIZE PUSH1 0x3 NOT ADD SLT PUSH2 0x30A JUMPI PUSH1 0x1 PUSH1 0x1 PUSH1 0xA0 SHL SUB PUSH2 0xB67 PUSH2 0xE82 JUMP JUMPDEST AND DUP3 MSTORE PUSH1 0x6 PUSH1 0x20 MSTORE DUP1 DUP3 KECCAK256 SLOAD SWAP2 PUSH3 0x278D00 DUP4 ADD DUP1 SWAP4 GT PUSH2 0xB8E JUMPI PUSH1 0x20 DUP4 DUP4 MLOAD SWAP1 TIMESTAMP LT ISZERO DUP2 MSTORE RETURN JUMPDEST PUSH4 0x4E487B71 PUSH1 0xE0 SHL DUP2 MSTORE PUSH1 0x11 DUP5 MSTORE PUSH1 0x24 SWAP1 REVERT JUMPDEST POP POP CALLVALUE PUSH2 0x30A JUMPI DUP2 PUSH1 0x3 NOT CALLDATASIZE ADD SLT PUSH2 0x30A JUMPI PUSH1 0x20 SWAP1 MLOAD PUSH1 0x12 DUP2 MSTORE RETURN JUMPDEST POP DUP3 CALLVALUE PUSH2 0x550 JUMPI PUSH1 0x60 CALLDATASIZE PUSH1 0x3 NOT ADD SLT PUSH2 0x550 JUMPI POP PUSH1 0x20 PUSH1 0x84 SWAP3 PUSH2 0xBDE PUSH2 0xE82 JUMP JUMPDEST POP PUSH2 0xBE7 PUSH2 0xE9D JUMP JUMPDEST POP MLOAD PUSH3 0x461BCD PUSH1 0xE5 SHL DUP2 MSTORE SWAP2 DUP3 ADD MSTORE PUSH1 0x21 PUSH1 0x24 DUP3 ADD MSTORE PUSH32 0x5354415420746F6B656E732063616E6E6F74206265207472616E736665727265 PUSH1 0x44 DUP3 ADD MSTORE PUSH1 0x19 PUSH1 0xFA SHL PUSH1 0x64 DUP3 ADD MSTORE REVERT JUMPDEST POP POP CALLVALUE PUSH2 0x30A JUMPI DUP2 PUSH1 0x3 NOT CALLDATASIZE ADD SLT PUSH2 0x30A JUMPI PUSH1 0x20 SWAP1 MLOAD PUSH3 0x278D00 DUP2 MSTORE RETURN JUMPDEST POP POP CALLVALUE PUSH2 0x30A JUMPI DUP2 PUSH1 0x3 NOT CALLDATASIZE ADD SLT PUSH2 0x30A JUMPI PUSH1 0x20 SWAP1 MLOAD PUSH1 0x5 DUP2 MSTORE RETURN JUMPDEST POP POP CALLVALUE PUSH2 0x30A JUMPI DUP2 PUSH1 0x3 NOT CALLDATASIZE ADD SLT PUSH2 0x30A JUMPI PUSH1 0x20 SWAP1 PUSH1 0x2 SLOAD SWAP1 MLOAD SWAP1 DUP2 MSTORE RETURN JUMPDEST POP POP CALLVALUE PUSH2 0x30A JUMPI PUSH32 0xB6EBA437DEA61002485068CBDC3EB1297D900EFAE5943C4ECB01B815E8DCAD3C PUSH2 0x394 PUSH2 0xCBC CALLDATASIZE PUSH2 0xF7A JUMP JUMPDEST PUSH2 0xCC8 SWAP4 SWAP2 SWAP3 SWAP4 PUSH2 0x1111 JUMP JUMPDEST PUSH2 0xCD2 DUP4 DUP6 PUSH2 0x113D JUMP JUMPDEST DUP6 MLOAD SWAP4 DUP5 SWAP4 DUP5 MSTORE DUP7 PUSH1 0x20 DUP6 ADD MSTORE PUSH1 0x1 DUP1 PUSH1 0xA0 SHL SUB AND SWAP6 DUP4 ADD SWAP1 PUSH2 0xE5D JUMP JUMPDEST POP DUP3 CALLVALUE PUSH2 0x550 JUMPI DUP3 PUSH1 0x3 NOT CALLDATASIZE ADD SLT PUSH2 0x550 JUMPI POP PUSH1 0x20 PUSH1 0x84 SWAP3 PUSH2 0xD10 PUSH2 0xE82 JUMP JUMPDEST POP MLOAD PUSH3 0x461BCD PUSH1 0xE5 SHL DUP2 MSTORE SWAP2 DUP3 ADD MSTORE PUSH1 0x2B PUSH1 0x24 DUP3 ADD MSTORE PUSH32 0x5354415420746F6B656E732063616E6E6F7420626520617070726F7665642066 PUSH1 0x44 DUP3 ADD MSTORE PUSH11 0x37B9103A3930B739B332B9 PUSH1 0xA9 SHL PUSH1 0x64 DUP3 ADD MSTORE REVERT JUMPDEST DUP5 DUP5 CALLVALUE PUSH2 0x30A JUMPI DUP2 PUSH1 0x3 NOT CALLDATASIZE ADD SLT PUSH2 0x30A JUMPI DUP3 DUP3 PUSH1 0x3 SLOAD PUSH2 0xD82 DUP2 PUSH2 0xFC0 JUMP JUMPDEST SWAP1 DUP2 DUP5 MSTORE PUSH1 0x20 SWAP6 PUSH1 0x1 SWAP2 DUP8 PUSH1 0x1 DUP3 AND SWAP2 DUP3 PUSH1 0x0 EQ PUSH2 0xE13 JUMPI POP POP PUSH1 0x1 EQ PUSH2 0xDB7 JUMPI JUMPDEST POP POP POP PUSH2 0x5B9 SWAP3 SWAP2 PUSH2 0x5AA SWAP2 SUB DUP6 PUSH2 0xF01 JUMP JUMPDEST SWAP2 SWAP1 DUP7 SWAP4 POP PUSH1 0x3 DUP4 MSTORE PUSH32 0xC2575A0E9E593C00F959F8C92F12DB2869C3395A3B0502D05E2516446F71F85B JUMPDEST DUP3 DUP5 LT PUSH2 0xDFB JUMPI POP POP POP DUP3 ADD ADD DUP2 PUSH2 0x5AA PUSH2 0x5B9 PUSH2 0xDA4 JUMP JUMPDEST DUP1 SLOAD DUP5 DUP11 ADD DUP7 ADD MSTORE DUP9 SWAP6 POP DUP8 SWAP5 SWAP1 SWAP4 ADD SWAP3 DUP2 ADD PUSH2 0xDE2 JUMP JUMPDEST PUSH1 0xFF NOT AND DUP8 DUP3 ADD MSTORE SWAP4 ISZERO ISZERO PUSH1 0x5 SHL DUP7 ADD SWAP1 SWAP4 ADD SWAP4 POP DUP5 SWAP3 POP PUSH2 0x5AA SWAP2 POP PUSH2 0x5B9 SWAP1 POP PUSH2 0xDA4 JUMP JUMPDEST PUSH1 0x0 JUMPDEST DUP4 DUP2 LT PUSH2 0xE4D JUMPI POP POP PUSH1 0x0 SWAP2 ADD MSTORE JUMP JUMPDEST DUP2 DUP2 ADD MLOAD DUP4 DUP3 ADD MSTORE PUSH1 0x20 ADD PUSH2 0xE3D JUMP JUMPDEST SWAP1 PUSH1 0x20 SWAP2 PUSH2 0xE76 DUP2 MLOAD DUP1 SWAP3 DUP2 DUP6 MSTORE DUP6 DUP1 DUP7 ADD SWAP2 ADD PUSH2 0xE3A JUMP JUMPDEST PUSH1 0x1F ADD PUSH1 0x1F NOT AND ADD ADD SWAP1 JUMP JUMPDEST PUSH1 0x4 CALLDATALOAD SWAP1 PUSH1 0x1 PUSH1 0x1 PUSH1 0xA0 SHL SUB DUP3 AND DUP3 SUB PUSH2 0xE98 JUMPI JUMP JUMPDEST PUSH1 0x0 DUP1 REVERT JUMPDEST PUSH1 0x24 CALLDATALOAD SWAP1 PUSH1 0x1 PUSH1 0x1 PUSH1 0xA0 SHL SUB DUP3 AND DUP3 SUB PUSH2 0xE98 JUMPI JUMP JUMPDEST PUSH1 0xA0 DUP2 ADD SWAP1 DUP2 LT PUSH8 0xFFFFFFFFFFFFFFFF DUP3 GT OR PUSH2 0xECF JUMPI PUSH1 0x40 MSTORE JUMP JUMPDEST PUSH4 0x4E487B71 PUSH1 0xE0 SHL PUSH1 0x0 MSTORE PUSH1 0x41 PUSH1 0x4 MSTORE PUSH1 0x24 PUSH1 0x0 REVERT JUMPDEST PUSH1 0x40 DUP2 ADD SWAP1 DUP2 LT PUSH8 0xFFFFFFFFFFFFFFFF DUP3 GT OR PUSH2 0xECF JUMPI PUSH1 0x40 MSTORE JUMP JUMPDEST SWAP1 PUSH1 0x1F DUP1 NOT SWAP2 ADD AND DUP2 ADD SWAP1 DUP2 LT PUSH8 0xFFFFFFFFFFFFFFFF DUP3 GT OR PUSH2 0xECF JUMPI PUSH1 0x40 MSTORE JUMP JUMPDEST DUP2 PUSH1 0x1F DUP3 ADD SLT ISZERO PUSH2 0xE98 JUMPI DUP1 CALLDATALOAD SWAP1 PUSH8 0xFFFFFFFFFFFFFFFF DUP3 GT PUSH2 0xECF JUMPI PUSH1 0x40 MLOAD SWAP3 PUSH2 0xF58 PUSH1 0x1F DUP5 ADD PUSH1 0x1F NOT AND PUSH1 0x20 ADD DUP6 PUSH2 0xF01 JUMP JUMPDEST DUP3 DUP5 MSTORE PUSH1 0x20 DUP4 DUP4 ADD ADD GT PUSH2 0xE98 JUMPI DUP2 PUSH1 0x0 SWAP3 PUSH1 0x20 DUP1 SWAP4 ADD DUP4 DUP7 ADD CALLDATACOPY DUP4 ADD ADD MSTORE SWAP1 JUMP JUMPDEST PUSH1 0x60 PUSH1 0x3 NOT DUP3 ADD SLT PUSH2 0xE98 JUMPI PUSH1 0x4 CALLDATALOAD PUSH1 0x1 PUSH1 0x1 PUSH1 0xA0 SHL SUB DUP2 AND DUP2 SUB PUSH2 0xE98 JUMPI SWAP2 PUSH1 0x24 CALLDATALOAD SWAP2 PUSH1 0x44 CALLDATALOAD SWAP1 PUSH8 0xFFFFFFFFFFFFFFFF DUP3 GT PUSH2 0xE98 JUMPI PUSH2 0xFBD SWAP2 PUSH1 0x4 ADD PUSH2 0xF23 JUMP JUMPDEST SWAP1 JUMP JUMPDEST SWAP1 PUSH1 0x1 DUP3 DUP2 SHR SWAP3 AND DUP1 ISZERO PUSH2 0xFF0 JUMPI JUMPDEST PUSH1 0x20 DUP4 LT EQ PUSH2 0xFDA JUMPI JUMP JUMPDEST PUSH4 0x4E487B71 PUSH1 0xE0 SHL PUSH1 0x0 MSTORE PUSH1 0x22 PUSH1 0x4 MSTORE PUSH1 0x24 PUSH1 0x0 REVERT JUMPDEST SWAP2 PUSH1 0x7F AND SWAP2 PUSH2 0xFCF JUMP JUMPDEST SWAP1 PUSH1 0x40 MLOAD SWAP2 DUP3 PUSH1 0x0 DUP3 SLOAD PUSH2 0x100D DUP2 PUSH2 0xFC0 JUMP JUMPDEST SWAP1 DUP2 DUP5 MSTORE PUSH1 0x20 SWAP5 PUSH1 0x1 SWAP2 PUSH1 0x1 DUP2 AND SWAP1 DUP2 PUSH1 0x0 EQ PUSH2 0x107D JUMPI POP PUSH1 0x1 EQ PUSH2 0x103E JUMPI JUMPDEST POP POP POP PUSH2 0x103C SWAP3 POP SUB DUP4 PUSH2 0xF01 JUMP JUMPDEST JUMP JUMPDEST PUSH1 0x0 SWAP1 DUP2 MSTORE DUP6 DUP2 KECCAK256 SWAP6 SWAP4 POP SWAP2 SWAP1 JUMPDEST DUP2 DUP4 LT PUSH2 0x1065 JUMPI POP POP PUSH2 0x103C SWAP4 POP DUP3 ADD ADD CODESIZE DUP1 DUP1 PUSH2 0x102D JUMP JUMPDEST DUP6 SLOAD DUP9 DUP5 ADD DUP6 ADD MSTORE SWAP5 DUP6 ADD SWAP5 DUP8 SWAP5 POP SWAP2 DUP4 ADD SWAP2 PUSH2 0x104C JUMP JUMPDEST SWAP3 POP POP POP PUSH2 0x103C SWAP5 SWAP3 POP PUSH1 0xFF NOT AND DUP3 DUP5 ADD MSTORE ISZERO ISZERO PUSH1 0x5 SHL DUP3 ADD ADD CODESIZE DUP1 DUP1 PUSH2 0x102D JUMP JUMPDEST SWAP1 PUSH1 0x40 PUSH1 0x3 NOT DUP4 ADD SLT PUSH2 0xE98 JUMPI PUSH1 0x4 CALLDATALOAD PUSH1 0x1 PUSH1 0x1 PUSH1 0xA0 SHL SUB DUP2 AND DUP2 SUB PUSH2 0xE98 JUMPI SWAP2 PUSH1 0x24 CALLDATALOAD SWAP1 PUSH8 0xFFFFFFFFFFFFFFFF DUP3 GT PUSH2 0xE98 JUMPI PUSH2 0xFBD SWAP2 PUSH1 0x4 ADD PUSH2 0xF23 JUMP JUMPDEST SWAP2 SWAP1 DUP3 ADD DUP1 SWAP3 GT PUSH2 0x10EC JUMPI JUMP JUMPDEST PUSH4 0x4E487B71 PUSH1 0xE0 SHL PUSH1 0x0 MSTORE PUSH1 0x11 PUSH1 0x4 MSTORE PUSH1 0x24 PUSH1 0x0 REVERT JUMPDEST PUSH1 0x0 NOT DUP2 EQ PUSH2 0x10EC JUMPI PUSH1 0x1 ADD SWAP1 JUMP JUMPDEST PUSH1 0x5 SLOAD PUSH1 0x1 PUSH1 0x1 PUSH1 0xA0 SHL SUB AND CALLER SUB PUSH2 0x1125 JUMPI JUMP JUMPDEST PUSH1 0x40 MLOAD PUSH4 0x118CDAA7 PUSH1 0xE0 SHL DUP2 MSTORE CALLER PUSH1 0x4 DUP3 ADD MSTORE PUSH1 0x24 SWAP1 REVERT JUMPDEST PUSH1 0x1 PUSH1 0x1 PUSH1 0xA0 SHL SUB AND DUP1 ISZERO PUSH2 0x11C8 JUMPI PUSH1 0x0 SWAP2 DUP2 DUP4 MSTORE DUP3 PUSH1 0x20 MSTORE PUSH1 0x40 DUP4 KECCAK256 SLOAD DUP2 DUP2 LT PUSH2 0x11A5 JUMPI DUP2 PUSH32 0xDDF252AD1BE2C89B69C2B068FC378DAA952BA7F163C4A11628F55A4DF523B3EF SWAP3 PUSH1 0x20 SWAP3 DUP6 DUP8 MSTORE DUP7 DUP5 MSTORE SUB PUSH1 0x40 DUP7 KECCAK256 SSTORE DUP1 PUSH1 0x2 SLOAD SUB PUSH1 0x2 SSTORE PUSH1 0x40 MLOAD SWAP1 DUP2 MSTORE LOG3 JUMP JUMPDEST PUSH1 0x64 SWAP4 POP PUSH1 0x40 MLOAD SWAP3 PUSH4 0x391434E3 PUSH1 0xE2 SHL DUP5 MSTORE PUSH1 0x4 DUP5 ADD MSTORE PUSH1 0x24 DUP4 ADD MSTORE PUSH1 0x44 DUP3 ADD MSTORE REVERT JUMPDEST PUSH1 0x40 MLOAD PUSH4 0x4B637E8F PUSH1 0xE1 SHL DUP2 MSTORE PUSH1 0x0 PUSH1 0x4 DUP3 ADD MSTORE PUSH1 0x24 SWAP1 REVERT JUMPDEST PUSH1 0x1 PUSH1 0x1 PUSH1 0xA0 SHL SUB AND SWAP1 DUP2 ISZERO PUSH2 0x123F JUMPI PUSH32 0xDDF252AD1BE2C89B69C2B068FC378DAA952BA7F163C4A11628F55A4DF523B3EF PUSH1 0x20 DUP3 PUSH2 0x1223 PUSH1 0x0 SWAP5 PUSH1 0x2 SLOAD PUSH2 0x10DF JUMP JUMPDEST PUSH1 0x2 SSTORE DUP5 DUP5 MSTORE DUP4 DUP3 MSTORE PUSH1 0x40 DUP5 KECCAK256 DUP2 DUP2 SLOAD ADD SWAP1 SSTORE PUSH1 0x40 MLOAD SWAP1 DUP2 MSTORE LOG3 JUMP JUMPDEST PUSH1 0x40 MLOAD PUSH4 0xEC442F05 PUSH1 0xE0 SHL DUP2 MSTORE PUSH1 0x0 PUSH1 0x4 DUP3 ADD MSTORE PUSH1 0x24 SWAP1 REVERT INVALID LOG2 PUSH5 0x6970667358 0x22 SLT KECCAK256 BLOCKHASH PUSH8 0xEEEAABA79274760 0xC5 0xB1 STATICCALL 0xCF 0xD6 DUP8 CALLCODE SWAP4 SWAP13 TIMESTAMP 0xF 0xDA 0xC8 0x4E CALLCODE GASPRICE 0x2C PUSH5 0x4A0720364 PUSH20 0x6F6C6343000818003360803462000F3357601F62 STOP 0x27 GASPRICE CODESIZE DUP2 SWAP1 SUB SWAP2 DUP3 ADD PUSH1 0x1F NOT AND DUP4 ADD SWAP2 PUSH1 0x1 PUSH1 0x1 PUSH1 0x40 SHL SUB DUP4 GT DUP5 DUP5 LT OR PUSH3 0x936 JUMPI DUP1 DUP5 SWAP3 PUSH1 0x20 SWAP5 PUSH1 0x40 MSTORE DUP4 CODECOPY DUP2 ADD SUB SLT PUSH3 0xF33 JUMPI MLOAD PUSH1 0x1 PUSH1 0x1 PUSH1 0xA0 SHL SUB DUP2 AND SWAP1 DUP2 SWAP1 SUB PUSH3 0xF33 JUMPI PUSH1 0x1 DUP1 PUSH1 0xA0 SHL SUB NOT CALLER DUP2 PUSH1 0x4 SLOAD AND OR PUSH1 0x4 SSTORE PUSH1 0x5 SLOAD AND OR PUSH1 0x5 SSTORE PUSH1 0x0 PUSH1 0x6 SSTORE PUSH3 0x7F PUSH3 0xF58 JUMP JUMPDEST PUSH1 0x10 DUP2 MSTORE PUSH1 0x20 DUP2 ADD PUSH16 0x35BCB196BB32B934B334B1B0BA34B7B7 PUSH1 0x81 SHL DUP2 MSTORE PUSH3 0xA7 PUSH3 0xF78 JUMP JUMPDEST SWAP1 PUSH1 0x2A DUP3 MSTORE PUSH32 0x4B594320766572696669636174696F6E207769746820576F726C642049442069 PUSH1 0x20 DUP4 ADD MSTORE PUSH10 0x373A32B3B930BA34B7B7 PUSH1 0xB1 SHL PUSH1 0x40 DUP4 ADD MSTORE PUSH3 0xEF PUSH3 0xF38 JUMP JUMPDEST DUP4 DUP2 MSTORE PUSH3 0x11F PUSH1 0x20 DUP1 DUP4 ADD SWAP4 DUP6 DUP6 MSTORE PUSH1 0x1 PUSH1 0x40 DUP6 ADD MSTORE PUSH1 0x4 PUSH1 0x60 DUP6 ADD MSTORE PUSH1 0x40 MLOAD DUP1 SWAP4 DUP2 SWAP3 DUP10 MLOAD SWAP3 DUP4 SWAP2 PUSH3 0xF98 JUMP JUMPDEST DUP2 ADD PUSH1 0x1 DUP2 MSTORE SUB ADD SWAP1 KECCAK256 SWAP2 DUP2 MLOAD DUP1 MLOAD SWAP1 PUSH1 0x1 DUP1 PUSH1 0x40 SHL SUB DUP3 GT PUSH3 0x936 JUMPI DUP5 SLOAD SWAP1 PUSH1 0x1 DUP3 DUP2 SHR SWAP3 AND DUP1 ISZERO PUSH3 0xF28 JUMPI JUMPDEST PUSH1 0x20 DUP4 LT EQ PUSH3 0x915 JUMPI DUP2 PUSH1 0x1F DUP5 SWAP4 GT PUSH3 0xED3 JUMPI JUMPDEST POP PUSH1 0x20 SWAP1 PUSH1 0x1F DUP4 GT PUSH1 0x1 EQ PUSH3 0xE62 JUMPI PUSH1 0x0 SWAP3 PUSH3 0xE56 JUMPI JUMPDEST POP POP DUP2 PUSH1 0x1 SHL SWAP2 PUSH1 0x0 NOT SWAP1 PUSH1 0x3 SHL SHR NOT AND OR DUP4 SSTORE JUMPDEST MLOAD DUP1 MLOAD SWAP1 PUSH1 0x1 PUSH1 0x1 PUSH1 0x40 SHL SUB DUP3 GT PUSH3 0x936 JUMPI PUSH1 0x1 DUP5 ADD SLOAD PUSH1 0x1 DUP2 DUP2 SHR SWAP2 AND DUP1 ISZERO PUSH3 0xE4B JUMPI JUMPDEST PUSH1 0x20 DUP3 LT EQ PUSH3 0x915 JUMPI PUSH1 0x1F DUP2 GT PUSH3 0xDFF JUMPI JUMPDEST POP PUSH1 0x20 SWAP1 PUSH1 0x1F DUP4 GT PUSH1 0x1 EQ PUSH3 0xD85 JUMPI PUSH1 0x60 PUSH3 0x261 SWAP5 DUP5 PUSH3 0x252 SWAP9 SWAP6 PUSH1 0x0 DUP1 MLOAD PUSH1 0x20 PUSH3 0x271A DUP4 CODECOPY DUP2 MLOAD SWAP2 MSTORE SWAP11 SWAP9 SWAP6 PUSH1 0x3 SWAP6 PUSH1 0x0 SWAP3 PUSH3 0x827 JUMPI JUMPDEST POP POP PUSH1 0x0 NOT DUP3 DUP7 SHL SHR NOT AND PUSH1 0x1 SWAP2 DUP3 SHL OR SWAP1 DUP6 ADD SSTORE JUMPDEST PUSH1 0x2 DUP5 ADD PUSH1 0x40 DUP3 ADD MLOAD ISZERO ISZERO PUSH1 0xFF DUP1 NOT DUP4 SLOAD AND SWAP2 AND OR SWAP1 SSTORE ADD MLOAD SWAP2 ADD SSTORE PUSH1 0x40 MLOAD SWAP4 DUP5 SWAP4 PUSH1 0x40 DUP6 MSTORE PUSH1 0x40 DUP6 ADD SWAP1 PUSH3 0xFBD JUMP JUMPDEST SWAP1 DUP4 DUP3 SUB PUSH1 0x20 DUP6 ADD MSTORE PUSH3 0xFBD JUMP JUMPDEST SUB SWAP1 LOG1 PUSH3 0x26E PUSH3 0xF58 JUMP JUMPDEST PUSH1 0x12 DUP2 MSTORE PUSH1 0x20 DUP2 ADD PUSH18 0x766F74696E672D656C69676962696C697479 PUSH1 0x70 SHL DUP2 MSTORE PUSH3 0x298 PUSH3 0xF78 JUMP JUMPDEST SWAP1 PUSH1 0x34 DUP3 MSTORE PUSH32 0x56657269667920766F74696E6720656C69676962696C69747920776974686F75 PUSH1 0x20 DUP4 ADD MSTORE PUSH32 0x742072657665616C696E67206964656E74697479000000000000000000000000 PUSH1 0x40 DUP4 ADD MSTORE PUSH3 0x322 PUSH1 0x20 PUSH3 0x2F9 PUSH3 0xF38 JUMP JUMPDEST SWAP3 DUP6 DUP5 MSTORE DUP5 DUP3 DUP6 ADD MSTORE PUSH1 0x1 PUSH1 0x40 DUP6 ADD MSTORE PUSH1 0x5 PUSH1 0x60 DUP6 ADD MSTORE PUSH1 0x40 MLOAD DUP1 SWAP4 DUP2 SWAP3 DUP9 MLOAD SWAP3 DUP4 SWAP2 PUSH3 0xF98 JUMP JUMPDEST DUP2 ADD PUSH1 0x1 DUP2 MSTORE SUB ADD SWAP1 KECCAK256 SWAP1 DUP1 MLOAD DUP1 MLOAD SWAP1 PUSH1 0x1 DUP1 PUSH1 0x40 SHL SUB DUP3 GT PUSH3 0x936 JUMPI DUP4 SLOAD SWAP1 PUSH1 0x1 DUP3 DUP2 SHR SWAP3 AND DUP1 ISZERO PUSH3 0xD7A JUMPI JUMPDEST PUSH1 0x20 DUP4 LT EQ PUSH3 0x915 JUMPI DUP2 PUSH1 0x1F DUP5 SWAP4 GT PUSH3 0xD25 JUMPI JUMPDEST POP PUSH1 0x20 SWAP1 PUSH1 0x1F DUP4 GT PUSH1 0x1 EQ PUSH3 0xCB4 JUMPI PUSH1 0x0 SWAP3 PUSH3 0xCA8 JUMPI JUMPDEST POP POP DUP2 PUSH1 0x1 SHL SWAP2 PUSH1 0x0 NOT SWAP1 PUSH1 0x3 SHL SHR NOT AND OR DUP3 SSTORE JUMPDEST PUSH1 0x20 DUP2 ADD MLOAD DUP1 MLOAD SWAP1 PUSH1 0x1 PUSH1 0x1 PUSH1 0x40 SHL SUB DUP3 GT PUSH3 0x936 JUMPI PUSH1 0x1 DUP5 ADD SLOAD PUSH1 0x1 DUP2 DUP2 SHR SWAP2 AND DUP1 ISZERO PUSH3 0xC9D JUMPI JUMPDEST PUSH1 0x20 DUP3 LT EQ PUSH3 0x915 JUMPI PUSH1 0x1F DUP2 GT PUSH3 0xC51 JUMPI JUMPDEST POP PUSH1 0x20 SWAP1 PUSH1 0x1F DUP4 GT PUSH1 0x1 EQ PUSH3 0xBD7 JUMPI PUSH1 0x60 PUSH3 0x457 SWAP5 DUP5 PUSH3 0x252 SWAP9 SWAP6 PUSH1 0x0 DUP1 MLOAD PUSH1 0x20 PUSH3 0x271A DUP4 CODECOPY DUP2 MLOAD SWAP2 MSTORE SWAP11 SWAP9 SWAP6 PUSH1 0x3 SWAP6 PUSH1 0x0 SWAP3 PUSH3 0x827 JUMPI POP POP PUSH1 0x0 NOT DUP3 DUP7 SHL SHR NOT AND PUSH1 0x1 SWAP2 DUP3 SHL OR SWAP1 DUP6 ADD SSTORE PUSH1 0x2 DUP5 ADD PUSH1 0x40 DUP3 ADD MLOAD ISZERO ISZERO PUSH1 0xFF DUP1 NOT DUP4 SLOAD AND SWAP2 AND OR SWAP1 SSTORE ADD MLOAD SWAP2 ADD SSTORE PUSH1 0x40 MLOAD SWAP4 DUP5 SWAP4 PUSH1 0x40 DUP6 MSTORE PUSH1 0x40 DUP6 ADD SWAP1 PUSH3 0xFBD JUMP JUMPDEST SUB SWAP1 LOG1 PUSH3 0x464 PUSH3 0xF58 JUMP JUMPDEST PUSH1 0x10 DUP2 MSTORE PUSH1 0x20 DUP2 ADD PUSH16 0x616E6F6E796D6F75732D766F74696E67 PUSH1 0x80 SHL DUP2 MSTORE PUSH3 0x48C PUSH3 0xF58 JUMP JUMPDEST SWAP1 PUSH1 0x1F DUP3 MSTORE PUSH32 0x416E6F6E796D6F757320766F74696E672077697468206E756C6C696669657200 PUSH1 0x20 DUP4 ADD MSTORE PUSH3 0x4F0 PUSH1 0x20 PUSH3 0x4C7 PUSH3 0xF38 JUMP JUMPDEST SWAP3 DUP6 DUP5 MSTORE DUP5 DUP3 DUP6 ADD MSTORE PUSH1 0x1 PUSH1 0x40 DUP6 ADD MSTORE PUSH1 0x6 PUSH1 0x60 DUP6 ADD MSTORE PUSH1 0x40 MLOAD DUP1 SWAP4 DUP2 SWAP3 DUP9 MLOAD SWAP3 DUP4 SWAP2 PUSH3 0xF98 JUMP JUMPDEST DUP2 ADD PUSH1 0x1 DUP2 MSTORE SUB ADD SWAP1 KECCAK256 SWAP1 DUP1 MLOAD DUP1 MLOAD SWAP1 PUSH1 0x1 DUP1 PUSH1 0x40 SHL SUB DUP3 GT PUSH3 0x936 JUMPI DUP4 SLOAD SWAP1 PUSH1 0x1 DUP3 DUP2 SHR SWAP3 AND DUP1 ISZERO PUSH3 0xBCC JUMPI JUMPDEST PUSH1 0x20 DUP4 LT EQ PUSH3 0x915 JUMPI DUP2 PUSH1 0x1F DUP5 SWAP4 GT PUSH3 0xB77 JUMPI JUMPDEST POP PUSH1 0x20 SWAP1 PUSH1 0x1F DUP4 GT PUSH1 0x1 EQ PUSH3 0xB06 JUMPI PUSH1 0x0 SWAP3 PUSH3 0xAFA JUMPI JUMPDEST POP POP DUP2 PUSH1 0x1 SHL SWAP2 PUSH1 0x0 NOT SWAP1 PUSH1 0x3 SHL SHR NOT AND OR DUP3 SSTORE JUMPDEST PUSH1 0x20 DUP2 ADD MLOAD DUP1 MLOAD SWAP1 PUSH1 0x1 PUSH1 0x1 PUSH1 0x40 SHL SUB DUP3 GT PUSH3 0x936 JUMPI PUSH1 0x1 DUP5 ADD SLOAD PUSH1 0x1 DUP2 DUP2 SHR SWAP2 AND DUP1 ISZERO PUSH3 0xAEF JUMPI JUMPDEST PUSH1 0x20 DUP3 LT EQ PUSH3 0x915 JUMPI PUSH1 0x1F DUP2 GT PUSH3 0xAA3 JUMPI JUMPDEST POP PUSH1 0x20 SWAP1 PUSH1 0x1F DUP4 GT PUSH1 0x1 EQ PUSH3 0xA29 JUMPI PUSH1 0x60 PUSH3 0x625 SWAP5 DUP5 PUSH3 0x252 SWAP9 SWAP6 PUSH1 0x0 DUP1 MLOAD PUSH1 0x20 PUSH3 0x271A DUP4 CODECOPY DUP2 MLOAD SWAP2 MSTORE SWAP11 SWAP9 SWAP6 PUSH1 0x3 SWAP6 PUSH1 0x0 SWAP3 PUSH3 0x827 JUMPI POP POP PUSH1 0x0 NOT DUP3 DUP7 SHL SHR NOT AND PUSH1 0x1 SWAP2 DUP3 SHL OR SWAP1 DUP6 ADD SSTORE PUSH1 0x2 DUP5 ADD PUSH1 0x40 DUP3 ADD MLOAD ISZERO ISZERO PUSH1 0xFF DUP1 NOT DUP4 SLOAD AND SWAP2 AND OR SWAP1 SSTORE ADD MLOAD SWAP2 ADD SSTORE PUSH1 0x40 MLOAD SWAP4 DUP5 SWAP4 PUSH1 0x40 DUP6 MSTORE PUSH1 0x40 DUP6 ADD SWAP1 PUSH3 0xFBD JUMP JUMPDEST SUB SWAP1 LOG1 PUSH3 0x632 PUSH3 0xF58 JUMP JUMPDEST PUSH1 0x17 DUP2 MSTORE PUSH32 0x6D656D626572736869702D766572696669636174696F6E000000000000000000 PUSH1 0x20 DUP3 ADD MSTORE PUSH3 0x666 PUSH3 0xF78 JUMP JUMPDEST PUSH1 0x2E DUP2 MSTORE PUSH32 0x50726F76652044414F206D656D6265727368697020776974686F757420726576 PUSH1 0x20 DUP3 ADD MSTORE PUSH14 0x65616C696E672064657461696C73 PUSH1 0x90 SHL PUSH1 0x40 DUP3 ADD MSTORE PUSH3 0x6B1 PUSH3 0xF38 JUMP JUMPDEST DUP3 DUP2 MSTORE DUP2 PUSH1 0x20 DUP3 ADD MSTORE PUSH1 0x1 PUSH1 0x40 DUP3 ADD MSTORE PUSH1 0x4 PUSH1 0x60 DUP3 ADD MSTORE PUSH1 0x40 MLOAD PUSH1 0x20 DUP2 DUP6 MLOAD PUSH3 0x6DF DUP2 DUP4 DUP6 DUP11 ADD PUSH3 0xF98 JUMP JUMPDEST DUP2 ADD PUSH1 0x1 DUP2 MSTORE SUB ADD SWAP1 KECCAK256 SWAP1 DUP1 MLOAD DUP1 MLOAD SWAP1 PUSH1 0x1 DUP1 PUSH1 0x40 SHL SUB DUP3 GT PUSH3 0x936 JUMPI DUP4 SLOAD SWAP1 PUSH1 0x1 DUP3 DUP2 SHR SWAP3 AND DUP1 ISZERO PUSH3 0xA1E JUMPI JUMPDEST PUSH1 0x20 DUP4 LT EQ PUSH3 0x915 JUMPI DUP2 PUSH1 0x1F DUP5 SWAP4 GT PUSH3 0x9C9 JUMPI JUMPDEST POP PUSH1 0x20 SWAP1 PUSH1 0x1F DUP4 GT PUSH1 0x1 EQ PUSH3 0x958 JUMPI PUSH1 0x0 SWAP3 PUSH3 0x94C JUMPI JUMPDEST POP POP DUP2 PUSH1 0x1 SHL SWAP2 PUSH1 0x0 NOT SWAP1 PUSH1 0x3 SHL SHR NOT AND OR DUP3 SSTORE JUMPDEST PUSH1 0x20 DUP2 ADD MLOAD DUP1 MLOAD SWAP1 PUSH1 0x1 PUSH1 0x1 PUSH1 0x40 SHL SUB DUP3 GT PUSH3 0x936 JUMPI PUSH1 0x1 DUP5 ADD SLOAD PUSH1 0x1 DUP2 DUP2 SHR SWAP2 AND DUP1 ISZERO PUSH3 0x92B JUMPI JUMPDEST PUSH1 0x20 DUP3 LT EQ PUSH3 0x915 JUMPI PUSH1 0x1F DUP2 GT PUSH3 0x8C5 JUMPI JUMPDEST POP PUSH1 0x20 SWAP1 PUSH1 0x1F DUP4 GT PUSH1 0x1 EQ PUSH3 0x833 JUMPI PUSH1 0x60 PUSH3 0x814 SWAP5 DUP5 PUSH3 0x252 SWAP9 SWAP6 PUSH1 0x0 DUP1 MLOAD PUSH1 0x20 PUSH3 0x271A DUP4 CODECOPY DUP2 MLOAD SWAP2 MSTORE SWAP11 SWAP9 SWAP6 PUSH1 0x3 SWAP6 PUSH1 0x0 SWAP3 PUSH3 0x827 JUMPI POP POP PUSH1 0x0 NOT DUP3 DUP7 SHL SHR NOT AND PUSH1 0x1 SWAP2 DUP3 SHL OR SWAP1 DUP6 ADD SSTORE PUSH1 0x2 DUP5 ADD PUSH1 0x40 DUP3 ADD MLOAD ISZERO ISZERO PUSH1 0xFF DUP1 NOT DUP4 SLOAD AND SWAP2 AND OR SWAP1 SSTORE ADD MLOAD SWAP2 ADD SSTORE PUSH1 0x40 MLOAD SWAP4 DUP5 SWAP4 PUSH1 0x40 DUP6 MSTORE PUSH1 0x40 DUP6 ADD SWAP1 PUSH3 0xFBD JUMP JUMPDEST SUB SWAP1 LOG1 PUSH1 0x40 MLOAD PUSH2 0x1735 SWAP1 DUP2 PUSH3 0xFE5 DUP3 CODECOPY RETURN JUMPDEST ADD MLOAD SWAP1 POP CODESIZE DUP1 PUSH3 0x20B JUMP JUMPDEST SWAP1 PUSH1 0x1F NOT DUP4 AND SWAP2 PUSH1 0x1 DUP7 ADD PUSH1 0x0 MSTORE PUSH1 0x20 PUSH1 0x0 KECCAK256 SWAP3 PUSH1 0x0 JUMPDEST DUP2 DUP2 LT PUSH3 0x8AC JUMPI POP SWAP5 PUSH1 0x1 DUP6 PUSH1 0x0 DUP1 MLOAD PUSH1 0x20 PUSH3 0x271A DUP4 CODECOPY DUP2 MLOAD SWAP2 MSTORE SWAP11 SWAP9 SWAP6 PUSH1 0x3 SWAP6 PUSH1 0x60 SWAP6 PUSH3 0x252 SWAP13 SWAP10 PUSH3 0x814 SWAP12 LT PUSH3 0x893 JUMPI JUMPDEST POP POP POP DUP2 SHL ADD PUSH1 0x1 DUP6 ADD SSTORE PUSH3 0x221 JUMP JUMPDEST ADD MLOAD PUSH1 0x0 NOT DUP4 DUP9 SHL PUSH1 0xF8 AND SHR NOT AND SWAP1 SSTORE CODESIZE DUP1 DUP1 PUSH3 0x882 JUMP JUMPDEST SWAP3 SWAP4 PUSH1 0x20 PUSH1 0x1 DUP2 SWAP3 DUP8 DUP7 ADD MLOAD DUP2 SSTORE ADD SWAP6 ADD SWAP4 ADD PUSH3 0x84A JUMP JUMPDEST PUSH1 0x1 DUP6 ADD PUSH1 0x0 MSTORE PUSH1 0x20 PUSH1 0x0 KECCAK256 PUSH1 0x1F DUP5 ADD PUSH1 0x5 SHR DUP2 ADD SWAP2 PUSH1 0x20 DUP6 LT PUSH3 0x90A JUMPI JUMPDEST PUSH1 0x1F ADD PUSH1 0x5 SHR ADD SWAP1 JUMPDEST DUP2 DUP2 LT PUSH3 0x8FD JUMPI POP PUSH3 0x792 JUMP JUMPDEST PUSH1 0x0 DUP2 SSTORE PUSH1 0x1 ADD PUSH3 0x8EE JUMP JUMPDEST SWAP1 SWAP2 POP DUP2 SWAP1 PUSH3 0x8E5 JUMP JUMPDEST PUSH4 0x4E487B71 PUSH1 0xE0 SHL PUSH1 0x0 MSTORE PUSH1 0x22 PUSH1 0x4 MSTORE PUSH1 0x24 PUSH1 0x0 REVERT JUMPDEST SWAP1 PUSH1 0x7F AND SWAP1 PUSH3 0x77E JUMP JUMPDEST PUSH4 0x4E487B71 PUSH1 0xE0 SHL PUSH1 0x0 MSTORE PUSH1 0x41 PUSH1 0x4 MSTORE PUSH1 0x24 PUSH1 0x0 REVERT JUMPDEST ADD MLOAD SWAP1 POP CODESIZE DUP1 PUSH3 0x73E JUMP JUMPDEST SWAP3 POP DUP5 PUSH1 0x0 MSTORE PUSH1 0x20 PUSH1 0x0 KECCAK256 SWAP1 PUSH1 0x0 SWAP4 JUMPDEST PUSH1 0x1F NOT DUP5 AND DUP6 LT PUSH3 0x9AD JUMPI PUSH1 0x1 SWAP5 POP DUP4 PUSH1 0x1F NOT DUP2 AND LT PUSH3 0x993 JUMPI JUMPDEST POP POP POP DUP2 SHL ADD DUP3 SSTORE PUSH3 0x753 JUMP JUMPDEST ADD MLOAD PUSH1 0x0 NOT PUSH1 0xF8 DUP5 PUSH1 0x3 SHL AND SHR NOT AND SWAP1 SSTORE CODESIZE DUP1 DUP1 PUSH3 0x985 JUMP JUMPDEST DUP2 DUP2 ADD MLOAD DUP4 SSTORE PUSH1 0x20 SWAP5 DUP6 ADD SWAP5 PUSH1 0x1 SWAP1 SWAP4 ADD SWAP3 SWAP1 SWAP2 ADD SWAP1 PUSH3 0x968 JUMP JUMPDEST SWAP1 SWAP2 POP DUP5 PUSH1 0x0 MSTORE PUSH1 0x20 PUSH1 0x0 KECCAK256 PUSH1 0x1F DUP5 ADD PUSH1 0x5 SHR DUP2 ADD PUSH1 0x20 DUP6 LT PUSH3 0xA16 JUMPI JUMPDEST SWAP1 DUP5 SWAP4 SWAP3 SWAP2 JUMPDEST PUSH1 0x1F DUP4 ADD PUSH1 0x5 SHR DUP3 ADD DUP2 LT PUSH3 0xA06 JUMPI POP POP PUSH3 0x725 JUMP JUMPDEST PUSH1 0x0 DUP2 SSTORE DUP6 SWAP5 POP PUSH1 0x1 ADD PUSH3 0x9EE JUMP JUMPDEST POP DUP1 PUSH3 0x9E8 JUMP JUMPDEST SWAP2 PUSH1 0x7F AND SWAP2 PUSH3 0x70F JUMP JUMPDEST SWAP1 PUSH1 0x1 DUP6 ADD PUSH1 0x0 MSTORE PUSH1 0x20 PUSH1 0x0 KECCAK256 SWAP2 PUSH1 0x0 JUMPDEST PUSH1 0x1F NOT DUP6 AND DUP2 LT PUSH3 0xA8A JUMPI POP PUSH3 0x625 SWAP5 PUSH1 0x1 DUP6 PUSH1 0x0 DUP1 MLOAD PUSH1 0x20 PUSH3 0x271A DUP4 CODECOPY DUP2 MLOAD SWAP2 MSTORE SWAP11 SWAP9 SWAP6 PUSH1 0x3 SWAP6 PUSH1 0x60 SWAP6 PUSH3 0x252 SWAP13 SWAP10 PUSH1 0x1F NOT DUP2 AND LT PUSH3 0x893 JUMPI POP POP POP DUP2 SHL ADD PUSH1 0x1 DUP6 ADD SSTORE PUSH3 0x221 JUMP JUMPDEST SWAP2 SWAP3 PUSH1 0x20 PUSH1 0x1 DUP2 SWAP3 DUP7 DUP6 ADD MLOAD DUP2 SSTORE ADD SWAP5 ADD SWAP3 ADD PUSH3 0xA3A JUMP JUMPDEST PUSH1 0x1 DUP6 ADD PUSH1 0x0 MSTORE PUSH1 0x20 PUSH1 0x0 KECCAK256 PUSH1 0x1F DUP5 ADD PUSH1 0x5 SHR DUP2 ADD PUSH1 0x20 DUP6 LT PUSH3 0xAE7 JUMPI JUMPDEST PUSH1 0x1F DUP4 ADD PUSH1 0x5 SHR DUP3 ADD DUP2 LT PUSH3 0xADA JUMPI POP POP PUSH3 0x5A3 JUMP JUMPDEST PUSH1 0x0 DUP2 SSTORE PUSH1 0x1 ADD PUSH3 0xAC2 JUMP JUMPDEST POP DUP1 PUSH3 0xAC2 JUMP JUMPDEST SWAP1 PUSH1 0x7F AND SWAP1 PUSH3 0x58F JUMP JUMPDEST ADD MLOAD SWAP1 POP CODESIZE DUP1 PUSH3 0x54F JUMP JUMPDEST SWAP3 POP DUP5 PUSH1 0x0 MSTORE PUSH1 0x20 PUSH1 0x0 KECCAK256 SWAP1 PUSH1 0x0 SWAP4 JUMPDEST PUSH1 0x1F NOT DUP5 AND DUP6 LT PUSH3 0xB5B JUMPI PUSH1 0x1 SWAP5 POP DUP4 PUSH1 0x1F NOT DUP2 AND LT PUSH3 0xB41 JUMPI JUMPDEST POP POP POP DUP2 SHL ADD DUP3 SSTORE PUSH3 0x564 JUMP JUMPDEST ADD MLOAD PUSH1 0x0 NOT PUSH1 0xF8 DUP5 PUSH1 0x3 SHL AND SHR NOT AND SWAP1 SSTORE CODESIZE DUP1 DUP1 PUSH3 0xB33 JUMP JUMPDEST DUP2 DUP2 ADD MLOAD DUP4 SSTORE PUSH1 0x20 SWAP5 DUP6 ADD SWAP5 PUSH1 0x1 SWAP1 SWAP4 ADD SWAP3 SWAP1 SWAP2 ADD SWAP1 PUSH3 0xB16 JUMP JUMPDEST SWAP1 SWAP2 POP DUP5 PUSH1 0x0 MSTORE PUSH1 0x20 PUSH1 0x0 KECCAK256 PUSH1 0x1F DUP5 ADD PUSH1 0x5 SHR DUP2 ADD PUSH1 0x20 DUP6 LT PUSH3 0xBC4 JUMPI JUMPDEST SWAP1 DUP5 SWAP4 SWAP3 SWAP2 JUMPDEST PUSH1 0x1F DUP4 ADD PUSH1 0x5 SHR DUP3 ADD DUP2 LT PUSH3 0xBB4 JUMPI POP POP PUSH3 0x536 JUMP JUMPDEST PUSH1 0x0 DUP2 SSTORE DUP6 SWAP5 POP PUSH1 0x1 ADD PUSH3 0xB9C JUMP JUMPDEST POP DUP1 PUSH3 0xB96 JUMP JUMPDEST SWAP2 PUSH1 0x7F AND SWAP2 PUSH3 0x520 JUMP JUMPDEST SWAP1 PUSH1 0x1 DUP6 ADD PUSH1 0x0 MSTORE PUSH1 0x20 PUSH1 0x0 KECCAK256 SWAP2 PUSH1 0x0 JUMPDEST PUSH1 0x1F NOT DUP6 AND DUP2 LT PUSH3 0xC38 JUMPI POP PUSH3 0x457 SWAP5 PUSH1 0x1 DUP6 PUSH1 0x0 DUP1 MLOAD PUSH1 0x20 PUSH3 0x271A DUP4 CODECOPY DUP2 MLOAD SWAP2 MSTORE SWAP11 SWAP9 SWAP6 PUSH1 0x3 SWAP6 PUSH1 0x60 SWAP6 PUSH3 0x252 SWAP13 SWAP10 PUSH1 0x1F NOT DUP2 AND LT PUSH3 0x893 JUMPI POP POP POP DUP2 SHL ADD PUSH1 0x1 DUP6 ADD SSTORE PUSH3 0x221 JUMP JUMPDEST SWAP2 SWAP3 PUSH1 0x20 PUSH1 0x1 DUP2 SWAP3 DUP7 DUP6 ADD MLOAD DUP2 SSTORE ADD SWAP5 ADD SWAP3 ADD PUSH3 0xBE8 JUMP JUMPDEST PUSH1 0x1 DUP6 ADD PUSH1 0x0 MSTORE PUSH1 0x20 PUSH1 0x0 KECCAK256 PUSH1 0x1F DUP5 ADD PUSH1 0x5 SHR DUP2 ADD PUSH1 0x20 DUP6 LT PUSH3 0xC95 JUMPI JUMPDEST PUSH1 0x1F DUP4 ADD PUSH1 0x5 SHR DUP3 ADD DUP2 LT PUSH3 0xC88 JUMPI POP POP PUSH3 0x3D5 JUMP JUMPDEST PUSH1 0x0 DUP2 SSTORE PUSH1 0x1 ADD PUSH3 0xC70 JUMP JUMPDEST POP DUP1 PUSH3 0xC70 JUMP JUMPDEST SWAP1 PUSH1 0x7F AND SWAP1 PUSH3 0x3C1 JUMP JUMPDEST ADD MLOAD SWAP1 POP CODESIZE DUP1 PUSH3 0x381 JUMP JUMPDEST SWAP3 POP DUP5 PUSH1 0x0 MSTORE PUSH1 0x20 PUSH1 0x0 KECCAK256 SWAP1 PUSH1 0x0 SWAP4 JUMPDEST PUSH1 0x1F NOT DUP5 AND DUP6 LT PUSH3 0xD09 JUMPI PUSH1 0x1 SWAP5 POP DUP4 PUSH1 0x1F NOT DUP2 AND LT PUSH3 0xCEF JUMPI JUMPDEST POP POP POP DUP2 SHL ADD DUP3 SSTORE PUSH3 0x396 JUMP JUMPDEST ADD MLOAD PUSH1 0x0 NOT PUSH1 0xF8 DUP5 PUSH1 0x3 SHL AND SHR NOT AND SWAP1 SSTORE CODESIZE DUP1 DUP1 PUSH3 0xCE1 JUMP JUMPDEST DUP2 DUP2 ADD MLOAD DUP4 SSTORE PUSH1 0x20 SWAP5 DUP6 ADD SWAP5 PUSH1 0x1 SWAP1 SWAP4 ADD SWAP3 SWAP1 SWAP2 ADD SWAP1 PUSH3 0xCC4 JUMP JUMPDEST SWAP1 SWAP2 POP DUP5 PUSH1 0x0 MSTORE PUSH1 0x20 PUSH1 0x0 KECCAK256 PUSH1 0x1F DUP5 ADD PUSH1 0x5 SHR DUP2 ADD PUSH1 0x20 DUP6 LT PUSH3 0xD72 JUMPI JUMPDEST SWAP1 DUP5 SWAP4 SWAP3 SWAP2 JUMPDEST PUSH1 0x1F DUP4 ADD PUSH1 0x5 SHR DUP3 ADD DUP2 LT PUSH3 0xD62 JUMPI POP POP PUSH3 0x368 JUMP JUMPDEST PUSH1 0x0 DUP2 SSTORE DUP6 SWAP5 POP PUSH1 0x1 ADD PUSH3 0xD4A JUMP JUMPDEST POP DUP1 PUSH3 0xD44 JUMP JUMPDEST SWAP2 PUSH1 0x7F AND SWAP2 PUSH3 0x352 JUMP JUMPDEST SWAP1 PUSH1 0x1 DUP6 ADD PUSH1 0x0 MSTORE PUSH1 0x20 PUSH1 0x0 KECCAK256 SWAP2 PUSH1 0x0 JUMPDEST PUSH1 0x1F NOT DUP6 AND DUP2 LT PUSH3 0xDE6 JUMPI POP PUSH3 0x261 SWAP5 PUSH1 0x1 DUP6 PUSH1 0x0 DUP1 MLOAD PUSH1 0x20 PUSH3 0x271A DUP4 CODECOPY DUP2 MLOAD SWAP2 MSTORE SWAP11 SWAP9 SWAP6 PUSH1 0x3 SWAP6 PUSH1 0x60 SWAP6 PUSH3 0x252 SWAP13 SWAP10 PUSH1 0x1F NOT DUP2 AND LT PUSH3 0x893 JUMPI POP POP POP DUP2 SHL ADD PUSH1 0x1 DUP6 ADD SSTORE PUSH3 0x221 JUMP JUMPDEST SWAP2 SWAP3 PUSH1 0x20 PUSH1 0x1 DUP2 SWAP3 DUP7 DUP6 ADD MLOAD DUP2 SSTORE ADD SWAP5 ADD SWAP3 ADD PUSH3 0xD96 JUMP JUMPDEST PUSH1 0x1 DUP6 ADD PUSH1 0x0 MSTORE PUSH1 0x20 PUSH1 0x0 KECCAK256 PUSH1 0x1F DUP5 ADD PUSH1 0x5 SHR DUP2 ADD PUSH1 0x20 DUP6 LT PUSH3 0xE43 JUMPI JUMPDEST PUSH1 0x1F DUP4 ADD PUSH1 0x5 SHR DUP3 ADD DUP2 LT PUSH3 0xE36 JUMPI POP POP PUSH3 0x1CE JUMP JUMPDEST PUSH1 0x0 DUP2 SSTORE PUSH1 0x1 ADD PUSH3 0xE1E JUMP JUMPDEST POP DUP1 PUSH3 0xE1E JUMP JUMPDEST SWAP1 PUSH1 0x7F AND SWAP1 PUSH3 0x1BA JUMP JUMPDEST ADD MLOAD SWAP1 POP CODESIZE DUP1 PUSH3 0x17E JUMP JUMPDEST SWAP3 POP DUP6 PUSH1 0x0 MSTORE PUSH1 0x20 PUSH1 0x0 KECCAK256 SWAP1 PUSH1 0x0 SWAP4 JUMPDEST PUSH1 0x1F NOT DUP5 AND DUP6 LT PUSH3 0xEB7 JUMPI PUSH1 0x1 SWAP5 POP DUP4 PUSH1 0x1F NOT DUP2 AND LT PUSH3 0xE9D JUMPI JUMPDEST POP POP POP DUP2 SHL ADD DUP4 SSTORE PUSH3 0x193 JUMP JUMPDEST ADD MLOAD PUSH1 0x0 NOT PUSH1 0xF8 DUP5 PUSH1 0x3 SHL AND SHR NOT AND SWAP1 SSTORE CODESIZE DUP1 DUP1 PUSH3 0xE8F JUMP JUMPDEST DUP2 DUP2 ADD MLOAD DUP4 SSTORE PUSH1 0x20 SWAP5 DUP6 ADD SWAP5 PUSH1 0x1 SWAP1 SWAP4 ADD SWAP3 SWAP1 SWAP2 ADD SWAP1 PUSH3 0xE72 JUMP JUMPDEST SWAP1 SWAP2 POP DUP6 PUSH1 0x0 MSTORE PUSH1 0x20 PUSH1 0x0 KECCAK256 PUSH1 0x1F DUP5 ADD PUSH1 0x5 SHR DUP2 ADD PUSH1 0x20 DUP6 LT PUSH3 0xF20 JUMPI JUMPDEST SWAP1 DUP5 SWAP4 SWAP3 SWAP2 JUMPDEST PUSH1 0x1F DUP4 ADD PUSH1 0x5 SHR DUP3 ADD DUP2 LT PUSH3 0xF10 JUMPI POP POP PUSH3 0x165 JUMP JUMPDEST PUSH1 0x0 DUP2 SSTORE DUP6 SWAP5 POP PUSH1 0x1 ADD PUSH3 0xEF8 JUMP JUMPDEST POP DUP1 PUSH3 0xEF2 JUMP JUMPDEST SWAP2 PUSH1 0x7F AND SWAP2 PUSH3 0x14F JUMP JUMPDEST PUSH1 0x0 DUP1 REVERT JUMPDEST PUSH1 0x40 MLOAD SWAP1 PUSH1 0x80 DUP3 ADD PUSH1 0x1 PUSH1 0x1 PUSH1 0x40 SHL SUB DUP2 GT DUP4 DUP3 LT OR PUSH3 0x936 JUMPI PUSH1 0x40 MSTORE JUMP JUMPDEST PUSH1 0x40 DUP1 MLOAD SWAP2 SWAP1 DUP3 ADD PUSH1 0x1 PUSH1 0x1 PUSH1 0x40 SHL SUB DUP2 GT DUP4 DUP3 LT OR PUSH3 0x936 JUMPI PUSH1 0x40 MSTORE JUMP JUMPDEST PUSH1 0x40 MLOAD SWAP1 PUSH1 0x60 DUP3 ADD PUSH1 0x1 PUSH1 0x1 PUSH1 0x40 SHL SUB DUP2 GT DUP4 DUP3 LT OR PUSH3 0x936 JUMPI PUSH1 0x40 MSTORE JUMP JUMPDEST PUSH1 0x0 JUMPDEST DUP4 DUP2 LT PUSH3 0xFAC JUMPI POP POP PUSH1 0x0 SWAP2 ADD MSTORE JUMP JUMPDEST DUP2 DUP2 ADD MLOAD DUP4 DUP3 ADD MSTORE PUSH1 0x20 ADD PUSH3 0xF9B JUMP JUMPDEST SWAP1 PUSH1 0x20 SWAP2 PUSH3 0xFD8 DUP2 MLOAD DUP1 SWAP3 DUP2 DUP6 MSTORE DUP6 DUP1 DUP7 ADD SWAP2 ADD PUSH3 0xF98 JUMP JUMPDEST PUSH1 0x1F ADD PUSH1 0x1F NOT AND ADD ADD SWAP1 JUMP INVALID PUSH1 0x80 DUP1 PUSH1 0x40 MSTORE PUSH1 0x4 CALLDATASIZE LT ISZERO PUSH2 0x13 JUMPI PUSH1 0x0 DUP1 REVERT JUMPDEST PUSH1 0x0 CALLDATALOAD PUSH1 0xE0 SHR SWAP1 DUP2 PUSH4 0x17CC915C EQ PUSH2 0x11AC JUMPI POP DUP1 PUSH4 0x1B80BB3A EQ PUSH2 0x1017 JUMPI DUP1 PUSH4 0x1CAA449C EQ PUSH2 0xFEE JUMPI DUP1 PUSH4 0x1F09A2E2 EQ PUSH2 0xCBE JUMPI DUP1 PUSH4 0x22DC7B4C EQ PUSH2 0xC8D JUMPI DUP1 PUSH4 0x275D4191 EQ PUSH2 0xB4F JUMPI DUP1 PUSH4 0x373B58E6 EQ PUSH2 0xAF7 JUMPI DUP1 PUSH4 0x3F4BA83A EQ PUSH2 0x38D JUMPI DUP1 PUSH4 0x4370A39B EQ PUSH2 0x4E0 JUMPI DUP1 PUSH4 0x444D95B0 EQ PUSH2 0x469 JUMPI DUP1 PUSH4 0x46BDFB80 EQ PUSH2 0x3B5 JUMPI DUP1 PUSH4 0x6D9F4370 EQ PUSH2 0x36F JUMPI DUP1 PUSH4 0x8456CB59 EQ PUSH2 0x38D JUMPI DUP1 PUSH4 0x9B1BC0C9 EQ PUSH2 0x36F JUMPI DUP1 PUSH4 0x9EA2CD38 EQ PUSH2 0x2C0 JUMPI DUP1 PUSH4 0xB142B4EC EQ PUSH2 0x270 JUMPI DUP1 PUSH4 0xE4BAEDA3 EQ PUSH2 0x16F JUMPI DUP1 PUSH4 0xF6EB0C0C EQ PUSH2 0x11E JUMPI PUSH4 0xF851A440 EQ PUSH2 0xF0 JUMPI PUSH1 0x0 DUP1 REVERT JUMPDEST CALLVALUE PUSH2 0x119 JUMPI PUSH1 0x0 CALLDATASIZE PUSH1 0x3 NOT ADD SLT PUSH2 0x119 JUMPI PUSH1 0x4 SLOAD PUSH1 0x40 MLOAD PUSH1 0x1 PUSH1 0x1 PUSH1 0xA0 SHL SUB SWAP1 SWAP2 AND DUP2 MSTORE PUSH1 0x20 SWAP1 RETURN JUMPDEST PUSH1 0x0 DUP1 REVERT JUMPDEST CALLVALUE PUSH2 0x119 JUMPI PUSH1 0x20 CALLDATASIZE PUSH1 0x3 NOT ADD SLT PUSH2 0x119 JUMPI PUSH2 0x137 PUSH2 0x1305 JUMP JUMPDEST PUSH1 0x4 SLOAD PUSH1 0x1 PUSH1 0x1 PUSH1 0xA0 SHL SUB SWAP2 SWAP1 PUSH2 0x151 SWAP1 DUP4 AND CALLER EQ PUSH2 0x14EF JUMP JUMPDEST AND PUSH12 0xFFFFFFFFFFFFFFFFFFFFFFFF PUSH1 0xA0 SHL PUSH1 0x5 SLOAD AND OR PUSH1 0x5 SSTORE PUSH1 0x0 DUP1 RETURN JUMPDEST CALLVALUE PUSH2 0x119 JUMPI PUSH1 0x20 DUP1 PUSH1 0x3 NOT CALLDATASIZE ADD SLT PUSH2 0x119 JUMPI PUSH1 0x4 CALLDATALOAD SWAP1 PUSH1 0x1 PUSH1 0x1 PUSH1 0x40 SHL SUB DUP3 GT PUSH2 0x119 JUMPI PUSH2 0x1DA DUP2 PUSH2 0x1A7 PUSH1 0x80 SWAP5 CALLDATASIZE SWAP1 PUSH1 0x4 ADD PUSH2 0x12AF JUMP JUMPDEST PUSH1 0x0 PUSH1 0x60 PUSH1 0x40 MLOAD PUSH2 0x1B7 DUP2 PUSH2 0x123C JUMP JUMPDEST DUP2 DUP2 MSTORE DUP2 DUP6 DUP3 ADD MSTORE DUP3 PUSH1 0x40 DUP3 ADD MSTORE ADD MSTORE DUP2 PUSH1 0x40 MLOAD SWAP4 DUP3 DUP6 DUP1 SWAP5 MLOAD SWAP4 DUP5 SWAP3 ADD PUSH2 0x11D9 JUMP JUMPDEST DUP2 ADD PUSH1 0x1 DUP2 MSTORE SUB ADD SWAP1 KECCAK256 PUSH1 0x40 MLOAD SWAP2 PUSH2 0x1F1 DUP4 PUSH2 0x123C JUMP JUMPDEST PUSH2 0x1FA DUP3 PUSH2 0x1383 JUMP JUMPDEST DUP4 MSTORE PUSH2 0x25D PUSH2 0x20B PUSH1 0x1 DUP5 ADD PUSH2 0x1383 JUMP JUMPDEST DUP3 DUP6 ADD SWAP1 DUP2 MSTORE PUSH2 0x24A PUSH1 0x3 PUSH1 0xFF PUSH1 0x2 DUP8 ADD SLOAD AND SWAP6 PUSH1 0x40 DUP9 ADD SWAP7 ISZERO ISZERO DUP8 MSTORE ADD SLOAD SWAP4 PUSH1 0x60 DUP8 ADD SWAP5 DUP6 MSTORE PUSH1 0x40 MLOAD SWAP8 DUP9 SWAP8 DUP3 DUP10 MSTORE MLOAD SWAP2 DUP9 ADD MSTORE PUSH1 0xA0 DUP8 ADD SWAP1 PUSH2 0x11FC JUMP JUMPDEST SWAP1 MLOAD DUP6 DUP3 SUB PUSH1 0x1F NOT ADD PUSH1 0x40 DUP8 ADD MSTORE PUSH2 0x11FC JUMP JUMPDEST SWAP2 MLOAD ISZERO ISZERO PUSH1 0x60 DUP5 ADD MSTORE MLOAD PUSH1 0x80 DUP4 ADD MSTORE SUB SWAP1 RETURN JUMPDEST CALLVALUE PUSH2 0x119 JUMPI PUSH1 0x20 CALLDATASIZE PUSH1 0x3 NOT ADD SLT PUSH2 0x119 JUMPI PUSH1 0x4 CALLDATALOAD DUP1 PUSH1 0x0 MSTORE PUSH1 0x0 PUSH1 0x20 MSTORE PUSH2 0x2A0 PUSH1 0xA PUSH1 0x40 PUSH1 0x0 KECCAK256 ADD SLOAD ISZERO ISZERO PUSH2 0x1428 JUMP JUMPDEST PUSH1 0x0 MSTORE PUSH1 0x0 PUSH1 0x20 MSTORE PUSH1 0x20 PUSH1 0xFF PUSH1 0xB PUSH1 0x40 PUSH1 0x0 KECCAK256 ADD SLOAD AND PUSH1 0x40 MLOAD SWAP1 ISZERO ISZERO DUP2 MSTORE RETURN JUMPDEST CALLVALUE PUSH2 0x119 JUMPI PUSH1 0x20 CALLDATASIZE PUSH1 0x3 NOT ADD SLT PUSH2 0x119 JUMPI PUSH1 0x4 CALLDATALOAD PUSH1 0x1 PUSH1 0x1 PUSH1 0x40 SHL SUB DUP2 GT PUSH2 0x119 JUMPI PUSH2 0x30B PUSH1 0x20 PUSH2 0x2F8 PUSH2 0x350 SWAP4 CALLDATASIZE SWAP1 PUSH1 0x4 ADD PUSH2 0x12AF JUMP JUMPDEST DUP2 PUSH1 0x40 MLOAD SWAP4 DUP3 DUP6 DUP1 SWAP5 MLOAD SWAP4 DUP5 SWAP3 ADD PUSH2 0x11D9 JUMP JUMPDEST DUP2 ADD PUSH1 0x1 DUP2 MSTORE SUB ADD SWAP1 KECCAK256 PUSH2 0x31E DUP2 PUSH2 0x1383 JUMP JUMPDEST SWAP1 PUSH2 0x32B PUSH1 0x1 DUP3 ADD PUSH2 0x1383 JUMP JUMPDEST PUSH2 0x35E PUSH1 0x3 PUSH1 0xFF PUSH1 0x2 DUP6 ADD SLOAD AND SWAP4 ADD SLOAD SWAP2 PUSH1 0x40 MLOAD SWAP6 DUP7 SWAP6 PUSH1 0x80 DUP8 MSTORE PUSH1 0x80 DUP8 ADD SWAP1 PUSH2 0x11FC JUMP JUMPDEST SWAP1 DUP6 DUP3 SUB PUSH1 0x20 DUP8 ADD MSTORE PUSH2 0x11FC JUMP JUMPDEST SWAP2 ISZERO ISZERO PUSH1 0x40 DUP5 ADD MSTORE PUSH1 0x60 DUP4 ADD MSTORE SUB SWAP1 RETURN JUMPDEST CALLVALUE PUSH2 0x119 JUMPI PUSH1 0x0 CALLDATASIZE PUSH1 0x3 NOT ADD SLT PUSH2 0x119 JUMPI PUSH1 0x20 PUSH1 0x6 SLOAD PUSH1 0x40 MLOAD SWAP1 DUP2 MSTORE RETURN JUMPDEST CALLVALUE PUSH2 0x119 JUMPI PUSH1 0x0 CALLDATASIZE PUSH1 0x3 NOT ADD SLT PUSH2 0x119 JUMPI PUSH2 0x3B3 PUSH1 0x1 DUP1 PUSH1 0xA0 SHL SUB PUSH1 0x4 SLOAD AND CALLER EQ PUSH2 0x14EF JUMP JUMPDEST STOP JUMPDEST CALLVALUE PUSH2 0x119 JUMPI PUSH1 0x20 DUP1 PUSH1 0x3 NOT CALLDATASIZE ADD SLT PUSH2 0x119 JUMPI PUSH1 0x1 PUSH1 0x1 PUSH1 0xA0 SHL SUB PUSH2 0x3D7 PUSH2 0x1305 JUMP JUMPDEST AND PUSH1 0x0 MSTORE PUSH1 0x2 DUP2 MSTORE PUSH1 0x40 PUSH1 0x0 KECCAK256 PUSH1 0x40 MLOAD SWAP1 DUP2 DUP4 DUP3 SLOAD SWAP2 DUP3 DUP2 MSTORE ADD SWAP1 DUP2 SWAP3 PUSH1 0x0 MSTORE DUP5 PUSH1 0x0 KECCAK256 SWAP1 PUSH1 0x0 JUMPDEST DUP7 DUP3 DUP3 LT PUSH2 0x455 JUMPI DUP7 DUP7 PUSH2 0x415 DUP3 DUP9 SUB DUP4 PUSH2 0x128E JUMP JUMPDEST PUSH1 0x40 MLOAD SWAP3 DUP4 SWAP3 DUP2 DUP5 ADD SWAP1 DUP3 DUP6 MSTORE MLOAD DUP1 SWAP2 MSTORE PUSH1 0x40 DUP5 ADD SWAP3 SWAP2 PUSH1 0x0 JUMPDEST DUP3 DUP2 LT PUSH2 0x43E JUMPI POP POP POP POP SUB SWAP1 RETURN JUMPDEST DUP4 MLOAD DUP6 MSTORE DUP7 SWAP6 POP SWAP4 DUP2 ADD SWAP4 SWAP3 DUP2 ADD SWAP3 PUSH1 0x1 ADD PUSH2 0x42F JUMP JUMPDEST DUP4 SLOAD DUP6 MSTORE SWAP1 SWAP4 ADD SWAP3 PUSH1 0x1 SWAP3 DUP4 ADD SWAP3 ADD PUSH2 0x3FF JUMP JUMPDEST CALLVALUE PUSH2 0x119 JUMPI PUSH1 0x20 CALLDATASIZE PUSH1 0x3 NOT ADD SLT PUSH2 0x119 JUMPI PUSH1 0x4 CALLDATALOAD PUSH1 0x0 MSTORE PUSH1 0x0 PUSH1 0x20 MSTORE PUSH2 0x4B8 PUSH1 0x40 PUSH1 0x0 KECCAK256 PUSH2 0x499 PUSH1 0x9 DUP3 ADD PUSH2 0x1383 JUMP JUMPDEST SWAP1 PUSH1 0xB PUSH1 0xA DUP3 ADD SLOAD SWAP2 ADD SLOAD PUSH1 0x40 MLOAD SWAP4 DUP5 SWAP4 PUSH1 0x80 DUP6 MSTORE PUSH1 0x80 DUP6 ADD SWAP1 PUSH2 0x11FC JUMP JUMPDEST PUSH1 0x20 DUP5 ADD SWAP3 SWAP1 SWAP3 MSTORE PUSH1 0xFF DUP2 AND ISZERO ISZERO PUSH1 0x40 DUP5 ADD MSTORE PUSH1 0x8 SHR PUSH1 0x1 PUSH1 0x1 PUSH1 0xA0 SHL SUB AND PUSH1 0x60 DUP4 ADD MSTORE SUB SWAP1 RETURN JUMPDEST CALLVALUE PUSH2 0x119 JUMPI PUSH2 0x160 CALLDATASIZE PUSH1 0x3 NOT ADD SLT PUSH2 0x119 JUMPI CALLDATASIZE PUSH1 0x23 SLT ISZERO PUSH2 0x119 JUMPI PUSH1 0x40 MLOAD PUSH2 0x507 DUP2 PUSH2 0x1257 JUMP JUMPDEST PUSH2 0x104 DUP2 CALLDATASIZE DUP3 GT PUSH2 0x119 JUMPI PUSH1 0x4 SWAP1 JUMPDEST DUP3 DUP3 LT PUSH2 0xAE7 JUMPI POP POP CALLDATALOAD PUSH1 0x1 PUSH1 0x1 PUSH1 0x40 SHL SUB DUP2 GT PUSH2 0x119 JUMPI CALLDATASIZE PUSH1 0x23 DUP3 ADD SLT ISZERO PUSH2 0x119 JUMPI DUP1 PUSH1 0x4 ADD CALLDATALOAD SWAP1 PUSH1 0x1 PUSH1 0x1 PUSH1 0x40 SHL SUB DUP3 GT PUSH2 0x8B2 JUMPI DUP2 PUSH1 0x5 SHL PUSH1 0x40 MLOAD SWAP3 PUSH2 0x562 PUSH1 0x20 DUP4 ADD DUP6 PUSH2 0x128E JUMP JUMPDEST DUP4 MSTORE PUSH1 0x24 PUSH1 0x20 DUP5 ADD SWAP2 DUP4 ADD ADD SWAP2 CALLDATASIZE DUP4 GT PUSH2 0x119 JUMPI PUSH1 0x24 ADD SWAP1 JUMPDEST DUP3 DUP3 LT PUSH2 0xAD7 JUMPI POP POP POP PUSH2 0x124 CALLDATALOAD PUSH1 0x1 PUSH1 0x1 PUSH1 0x40 SHL SUB DUP2 GT PUSH2 0x119 JUMPI PUSH2 0x5A5 SWAP1 CALLDATASIZE SWAP1 PUSH1 0x4 ADD PUSH2 0x12AF JUMP JUMPDEST SWAP2 PUSH2 0x144 CALLDATALOAD PUSH1 0x40 MLOAD PUSH1 0xFF PUSH1 0x2 DUP7 MLOAD SWAP3 PUSH1 0x20 DUP2 DUP2 DUP11 ADD SWAP6 PUSH2 0x5C6 DUP2 DUP4 DUP10 PUSH2 0x11D9 JUMP JUMPDEST DUP2 ADD PUSH1 0x1 DUP2 MSTORE SUB ADD SWAP1 KECCAK256 ADD SLOAD AND ISZERO PUSH2 0xA9D JUMPI DUP4 MLOAD PUSH1 0x3 PUSH1 0x40 MLOAD PUSH1 0x20 DUP2 DUP10 MLOAD PUSH2 0x5EF DUP2 DUP4 DUP10 PUSH2 0x11D9 JUMP JUMPDEST DUP2 ADD PUSH1 0x1 DUP2 MSTORE SUB ADD SWAP1 KECCAK256 ADD SLOAD LT PUSH2 0xA58 JUMPI DUP5 MLOAD SWAP1 KECCAK256 PUSH2 0x60C PUSH2 0x1545 JUMP JUMPDEST PUSH1 0x20 DUP2 MLOAD SWAP2 ADD KECCAK256 EQ PUSH2 0x9E6 JUMPI JUMPDEST POP PUSH1 0x6 SLOAD PUSH1 0x0 NOT DUP2 EQ PUSH2 0x9D0 JUMPI PUSH1 0x1 ADD DUP1 PUSH1 0x6 SSTORE PUSH1 0x40 MLOAD PUSH1 0x20 DUP2 ADD SWAP2 CALLER PUSH1 0x60 SHL DUP4 MSTORE PUSH1 0x34 DUP3 ADD MSTORE TIMESTAMP PUSH1 0x54 DUP3 ADD MSTORE PUSH1 0x54 DUP2 MSTORE PUSH2 0x653 DUP2 PUSH2 0x123C JUMP JUMPDEST MLOAD SWAP1 KECCAK256 SWAP2 PUSH1 0x40 MLOAD SWAP2 PUSH2 0x664 DUP4 PUSH2 0x1221 JUMP JUMPDEST DUP3 MSTORE PUSH1 0x20 DUP3 ADD MSTORE DUP3 PUSH1 0x40 DUP3 ADD MSTORE TIMESTAMP PUSH1 0x60 DUP3 ADD MSTORE PUSH1 0x0 PUSH1 0x80 DUP3 ADD MSTORE CALLER PUSH1 0xA0 DUP3 ADD MSTORE DUP2 PUSH1 0x0 MSTORE PUSH1 0x0 PUSH1 0x20 MSTORE PUSH1 0x40 PUSH1 0x0 KECCAK256 DUP2 MLOAD PUSH1 0x0 JUMPDEST PUSH1 0x8 DUP2 LT PUSH2 0x9BC JUMPI POP POP PUSH1 0x20 DUP3 ADD MLOAD DUP1 MLOAD SWAP1 PUSH1 0x1 PUSH1 0x1 PUSH1 0x40 SHL SUB DUP3 GT PUSH2 0x8B2 JUMPI PUSH1 0x1 PUSH1 0x40 SHL DUP3 GT PUSH2 0x8B2 JUMPI PUSH1 0x20 SWAP1 PUSH1 0x8 DUP5 ADD SLOAD DUP4 PUSH1 0x8 DUP7 ADD SSTORE DUP1 DUP5 LT PUSH2 0x99C JUMPI JUMPDEST POP ADD PUSH1 0x8 DUP4 ADD PUSH1 0x0 MSTORE PUSH1 0x20 PUSH1 0x0 KECCAK256 PUSH1 0x0 JUMPDEST DUP4 DUP2 LT PUSH2 0x988 JUMPI POP POP POP POP PUSH1 0x40 DUP3 ADD MLOAD DUP1 MLOAD SWAP1 PUSH1 0x1 PUSH1 0x1 PUSH1 0x40 SHL SUB DUP3 GT PUSH2 0x8B2 JUMPI PUSH2 0x717 PUSH1 0x9 DUP5 ADD SLOAD PUSH2 0x1349 JUMP JUMPDEST PUSH1 0x1F DUP2 GT PUSH2 0x948 JUMPI JUMPDEST POP PUSH1 0x20 SWAP1 PUSH1 0x1F DUP4 GT PUSH1 0x1 EQ PUSH2 0x8D3 JUMPI SWAP2 DUP1 PUSH1 0xA0 SWAP5 SWAP3 PUSH1 0xB SWAP5 PUSH1 0x0 SWAP3 PUSH2 0x8C8 JUMPI JUMPDEST POP POP DUP2 PUSH1 0x1 SHL SWAP2 PUSH1 0x0 NOT SWAP1 PUSH1 0x3 SHL SHR NOT AND OR PUSH1 0x9 DUP3 ADD SSTORE JUMPDEST PUSH1 0x60 DUP5 ADD MLOAD PUSH1 0xA DUP3 ADD SSTORE ADD SWAP2 PUSH2 0x780 PUSH1 0x80 DUP3 ADD MLOAD ISZERO ISZERO DUP5 SWAP1 PUSH1 0xFF DUP1 NOT DUP4 SLOAD AND SWAP2 ISZERO ISZERO AND OR SWAP1 SSTORE JUMP JUMPDEST ADD MLOAD DUP2 SLOAD PUSH2 0x100 PUSH1 0x1 PUSH1 0xA8 SHL SUB NOT AND PUSH1 0x8 SWAP2 SWAP1 SWAP2 SHL PUSH2 0x100 PUSH1 0x1 PUSH1 0xA8 SHL SUB AND OR SWAP1 SSTORE CALLER PUSH1 0x0 SWAP1 DUP2 MSTORE PUSH1 0x2 PUSH1 0x20 MSTORE PUSH1 0x40 SWAP1 KECCAK256 DUP1 SLOAD SWAP3 SWAP1 PUSH1 0x1 PUSH1 0x40 SHL DUP5 LT ISZERO PUSH2 0x8B2 JUMPI DUP4 PUSH2 0x7D3 SWAP2 PUSH1 0x1 PUSH1 0x20 SWAP7 ADD DUP2 SSTORE PUSH2 0x131B JUMP JUMPDEST DUP2 SLOAD SWAP1 PUSH1 0x3 SHL SWAP1 DUP5 DUP3 SHL SWAP2 PUSH1 0x0 NOT SWAP1 SHL NOT AND OR SWAP1 SSTORE DUP2 PUSH32 0xDB677E795581B981FCC03F2063AF7A50F2F1934A4721D6F23D5F1E694B0997BB PUSH2 0x81F PUSH1 0x40 MLOAD SWAP4 PUSH1 0x40 DUP6 MSTORE PUSH1 0x40 DUP6 ADD SWAP1 PUSH2 0x11FC JUMP JUMPDEST SWAP3 TIMESTAMP DUP7 DUP3 ADD MSTORE DUP1 CALLER SWAP5 SUB SWAP1 LOG3 DUP1 PUSH1 0x0 MSTORE PUSH1 0x0 DUP3 MSTORE DUP1 PUSH32 0xC0AFD2D440ECCE8F50A3A8FB8C422B4BB32611B01094A5041D71F88DD21C6A9 PUSH1 0x40 PUSH1 0xB PUSH2 0x89D DUP3 PUSH1 0x0 KECCAK256 PUSH2 0x88A PUSH2 0x86C DUP3 PUSH2 0x146B JUMP JUMPDEST PUSH2 0x878 PUSH1 0x8 DUP5 ADD PUSH2 0x149E JUMP JUMPDEST PUSH2 0x884 PUSH1 0x9 DUP6 ADD PUSH2 0x1383 JUMP JUMPDEST SWAP2 PUSH2 0x1588 JUMP JUMPDEST SWAP3 ADD DUP1 SLOAD PUSH1 0xFF NOT AND PUSH1 0xFF DUP5 ISZERO ISZERO AND OR SWAP1 SSTORE JUMP JUMPDEST DUP2 MLOAD SWAP1 ISZERO ISZERO DUP2 MSTORE TIMESTAMP DUP7 DUP3 ADD MSTORE LOG2 PUSH1 0x40 MLOAD SWAP1 DUP2 MSTORE RETURN JUMPDEST PUSH4 0x4E487B71 PUSH1 0xE0 SHL PUSH1 0x0 MSTORE PUSH1 0x41 PUSH1 0x4 MSTORE PUSH1 0x24 PUSH1 0x0 REVERT JUMPDEST ADD MLOAD SWAP1 POP DUP9 DUP1 PUSH2 0x740 JUMP JUMPDEST SWAP1 PUSH1 0x9 DUP5 ADD PUSH1 0x0 MSTORE PUSH1 0x20 PUSH1 0x0 KECCAK256 SWAP2 PUSH1 0x0 JUMPDEST PUSH1 0x1F NOT DUP6 AND DUP2 LT PUSH2 0x930 JUMPI POP SWAP3 PUSH1 0xA0 SWAP5 SWAP3 PUSH1 0x1 SWAP3 PUSH1 0xB SWAP6 DUP4 PUSH1 0x1F NOT DUP2 AND LT PUSH2 0x917 JUMPI JUMPDEST POP POP POP DUP2 SHL ADD PUSH1 0x9 DUP3 ADD SSTORE PUSH2 0x758 JUMP JUMPDEST ADD MLOAD PUSH1 0x0 NOT PUSH1 0xF8 DUP5 PUSH1 0x3 SHL AND SHR NOT AND SWAP1 SSTORE DUP9 DUP1 DUP1 PUSH2 0x907 JUMP JUMPDEST SWAP2 SWAP3 PUSH1 0x20 PUSH1 0x1 DUP2 SWAP3 DUP7 DUP6 ADD MLOAD DUP2 SSTORE ADD SWAP5 ADD SWAP3 ADD PUSH2 0x8E4 JUMP JUMPDEST PUSH2 0x978 SWAP1 PUSH1 0x9 DUP6 ADD PUSH1 0x0 MSTORE PUSH1 0x20 PUSH1 0x0 KECCAK256 PUSH1 0x1F DUP6 ADD PUSH1 0x5 SHR DUP2 ADD SWAP2 PUSH1 0x20 DUP7 LT PUSH2 0x97E JUMPI JUMPDEST PUSH1 0x1F ADD PUSH1 0x5 SHR ADD SWAP1 PUSH2 0x1571 JUMP JUMPDEST DUP7 PUSH2 0x720 JUMP JUMPDEST SWAP1 SWAP2 POP DUP2 SWAP1 PUSH2 0x96B JUMP JUMPDEST PUSH1 0x1 SWAP1 PUSH1 0x20 DUP5 MLOAD SWAP5 ADD SWAP4 DUP2 DUP5 ADD SSTORE ADD PUSH2 0x6E9 JUMP JUMPDEST PUSH2 0x9B6 SWAP1 PUSH1 0x8 DUP7 ADD PUSH1 0x0 MSTORE DUP5 DUP5 PUSH1 0x0 KECCAK256 SWAP2 DUP3 ADD SWAP2 ADD PUSH2 0x1571 JUMP JUMPDEST DUP8 PUSH2 0x6D8 JUMP JUMPDEST PUSH1 0x1 SWAP1 PUSH1 0x20 DUP4 MLOAD SWAP4 ADD SWAP3 DUP2 DUP6 ADD SSTORE ADD PUSH2 0x697 JUMP JUMPDEST PUSH4 0x4E487B71 PUSH1 0xE0 SHL PUSH1 0x0 MSTORE PUSH1 0x11 PUSH1 0x4 MSTORE PUSH1 0x24 PUSH1 0x0 REVERT JUMPDEST DUP1 PUSH1 0x0 MSTORE PUSH1 0x3 PUSH1 0x20 MSTORE PUSH1 0xFF PUSH1 0x40 PUSH1 0x0 KECCAK256 SLOAD AND PUSH2 0xA1A JUMPI PUSH1 0x0 MSTORE PUSH1 0x3 PUSH1 0x20 MSTORE PUSH1 0x40 PUSH1 0x0 KECCAK256 PUSH1 0x1 PUSH1 0xFF NOT DUP3 SLOAD AND OR SWAP1 SSTORE DUP4 PUSH2 0x619 JUMP JUMPDEST PUSH1 0x40 MLOAD PUSH3 0x461BCD PUSH1 0xE5 SHL DUP2 MSTORE PUSH1 0x20 PUSH1 0x4 DUP3 ADD MSTORE PUSH1 0x16 PUSH1 0x24 DUP3 ADD MSTORE PUSH22 0x139D5B1B1A599A595C88185B1C9958591E481D5CD959 PUSH1 0x52 SHL PUSH1 0x44 DUP3 ADD MSTORE PUSH1 0x64 SWAP1 REVERT JUMPDEST PUSH1 0x40 MLOAD PUSH3 0x461BCD PUSH1 0xE5 SHL DUP2 MSTORE PUSH1 0x20 PUSH1 0x4 DUP3 ADD MSTORE PUSH1 0x17 PUSH1 0x24 DUP3 ADD MSTORE PUSH32 0x546F6F206D616E79207075626C6963207369676E616C73000000000000000000 PUSH1 0x44 DUP3 ADD MSTORE PUSH1 0x64 SWAP1 REVERT JUMPDEST PUSH1 0x40 MLOAD PUSH3 0x461BCD PUSH1 0xE5 SHL DUP2 MSTORE PUSH1 0x20 PUSH1 0x4 DUP3 ADD MSTORE PUSH1 0x12 PUSH1 0x24 DUP3 ADD MSTORE PUSH18 0x43697263756974206E6F7420616374697665 PUSH1 0x70 SHL PUSH1 0x44 DUP3 ADD MSTORE PUSH1 0x64 SWAP1 REVERT JUMPDEST DUP2 CALLDATALOAD DUP2 MSTORE PUSH1 0x20 SWAP2 DUP3 ADD SWAP2 ADD PUSH2 0x57B JUMP JUMPDEST DUP2 CALLDATALOAD DUP2 MSTORE PUSH1 0x20 SWAP2 DUP3 ADD SWAP2 ADD PUSH2 0x516 JUMP JUMPDEST CALLVALUE PUSH2 0x119 JUMPI PUSH1 0x40 CALLDATASIZE PUSH1 0x3 NOT ADD SLT PUSH2 0x119 JUMPI PUSH2 0xB10 PUSH2 0x1305 JUMP JUMPDEST PUSH1 0x1 PUSH1 0x1 PUSH1 0xA0 SHL SUB AND PUSH1 0x0 SWAP1 DUP2 MSTORE PUSH1 0x2 PUSH1 0x20 MSTORE PUSH1 0x40 SWAP1 KECCAK256 DUP1 SLOAD PUSH1 0x24 CALLDATALOAD SWAP2 SWAP1 DUP3 LT ISZERO PUSH2 0x119 JUMPI PUSH1 0x20 SWAP2 PUSH2 0xB41 SWAP2 PUSH2 0x131B JUMP JUMPDEST SWAP1 SLOAD PUSH1 0x40 MLOAD SWAP2 PUSH1 0x3 SHL SHR DUP2 MSTORE RETURN JUMPDEST CALLVALUE PUSH2 0x119 JUMPI PUSH1 0x40 CALLDATASIZE PUSH1 0x3 NOT ADD SLT PUSH2 0x119 JUMPI PUSH1 0x4 CALLDATALOAD PUSH1 0x1 PUSH1 0x1 PUSH1 0x40 SHL SUB DUP2 GT PUSH2 0x119 JUMPI PUSH2 0xB7F SWAP1 CALLDATASIZE SWAP1 PUSH1 0x4 ADD PUSH2 0x12AF JUMP JUMPDEST PUSH1 0x24 CALLDATALOAD DUP1 ISZERO ISZERO SWAP2 DUP3 DUP3 SUB PUSH2 0x119 JUMPI PUSH2 0xBA2 PUSH1 0x1 DUP1 PUSH1 0xA0 SHL SUB PUSH1 0x4 SLOAD AND CALLER EQ PUSH2 0x14EF JUMP JUMPDEST PUSH1 0x40 MLOAD SWAP3 PUSH2 0xBCE DUP3 MLOAD SWAP5 PUSH1 0x20 DUP2 DUP2 DUP7 ADD SWAP8 PUSH2 0xBBE DUP2 DUP4 DUP12 PUSH2 0x11D9 JUMP JUMPDEST DUP2 ADD PUSH1 0x1 DUP2 MSTORE SUB ADD SWAP1 KECCAK256 SLOAD PUSH2 0x1349 JUMP JUMPDEST ISZERO PUSH2 0xC4F JUMPI PUSH2 0xC30 PUSH2 0xC44 SWAP4 PUSH1 0x2 PUSH2 0xC14 PUSH1 0x20 PUSH32 0x60C372D33F420BAAEE2DB69302E63D22FE0F81AD9352D18E31C7B856A311ABB3 SWAP9 PUSH1 0x40 MLOAD DUP1 SWAP4 DUP2 SWAP3 DUP11 MLOAD SWAP3 DUP4 SWAP2 PUSH2 0x11D9 JUMP JUMPDEST DUP2 ADD PUSH1 0x1 DUP2 MSTORE SUB ADD SWAP1 KECCAK256 ADD SWAP1 PUSH1 0xFF DUP1 NOT DUP4 SLOAD AND SWAP2 ISZERO ISZERO AND OR SWAP1 SSTORE JUMP JUMPDEST PUSH1 0x40 MLOAD SWAP3 DUP4 SWAP3 PUSH1 0x40 DUP5 MSTORE PUSH1 0x40 DUP5 ADD SWAP1 PUSH2 0x11FC JUMP JUMPDEST SWAP1 PUSH1 0x20 DUP4 ADD MSTORE SUB SWAP1 LOG1 STOP JUMPDEST PUSH1 0x40 MLOAD PUSH3 0x461BCD PUSH1 0xE5 SHL DUP2 MSTORE PUSH1 0x20 PUSH1 0x4 DUP3 ADD MSTORE PUSH1 0x16 PUSH1 0x24 DUP3 ADD MSTORE PUSH22 0x10DA5C98DD5A5D08191BD95CC81B9BDD08195E1A5CDD PUSH1 0x52 SHL PUSH1 0x44 DUP3 ADD MSTORE PUSH1 0x64 SWAP1 REVERT JUMPDEST CALLVALUE PUSH2 0x119 JUMPI PUSH1 0x20 CALLDATASIZE PUSH1 0x3 NOT ADD SLT PUSH2 0x119 JUMPI PUSH1 0x4 CALLDATALOAD PUSH1 0x0 MSTORE PUSH1 0x3 PUSH1 0x20 MSTORE PUSH1 0x20 PUSH1 0xFF PUSH1 0x40 PUSH1 0x0 KECCAK256 SLOAD AND PUSH1 0x40 MLOAD SWAP1 ISZERO ISZERO DUP2 MSTORE RETURN JUMPDEST CALLVALUE PUSH2 0x119 JUMPI PUSH1 0x60 CALLDATASIZE PUSH1 0x3 NOT ADD SLT PUSH2 0x119 JUMPI PUSH1 0x1 PUSH1 0x1 PUSH1 0x40 SHL SUB PUSH1 0x4 CALLDATALOAD DUP2 DUP2 GT PUSH2 0x119 JUMPI PUSH2 0xCEF SWAP1 CALLDATASIZE SWAP1 PUSH1 0x4 ADD PUSH2 0x12AF JUMP JUMPDEST PUSH1 0x24 CALLDATALOAD DUP3 DUP2 GT PUSH2 0x119 JUMPI PUSH2 0xD07 SWAP1 CALLDATASIZE SWAP1 PUSH1 0x4 ADD PUSH2 0x12AF JUMP JUMPDEST PUSH2 0xD1C PUSH1 0x1 DUP1 PUSH1 0xA0 SHL SUB PUSH1 0x4 SLOAD AND CALLER EQ PUSH2 0x14EF JUMP JUMPDEST PUSH1 0x40 MLOAD SWAP1 PUSH2 0xD29 DUP3 PUSH2 0x123C JUMP JUMPDEST DUP3 DUP3 MSTORE PUSH1 0x20 SWAP2 DUP3 DUP2 ADD DUP3 DUP2 MSTORE PUSH1 0x40 DUP3 ADD PUSH1 0x1 SWAP2 DUP3 DUP3 MSTORE PUSH1 0x60 DUP5 ADD SWAP3 PUSH1 0x44 CALLDATALOAD DUP5 MSTORE PUSH1 0x40 MLOAD DUP8 DUP2 DUP2 PUSH2 0xD5F DUP13 DUP4 DUP2 MLOAD SWAP4 DUP5 SWAP3 ADD PUSH2 0x11D9 JUMP JUMPDEST DUP2 ADD DUP5 DUP2 MSTORE SUB ADD SWAP1 KECCAK256 SWAP5 MLOAD DUP1 MLOAD DUP11 DUP2 GT PUSH2 0x8B2 JUMPI DUP1 PUSH2 0xD7E DUP9 SLOAD PUSH2 0x1349 JUMP JUMPDEST SWAP3 PUSH1 0x1F SWAP4 DUP12 DUP6 DUP3 GT PUSH2 0xFBF JUMPI JUMPDEST POP POP DUP11 SWAP1 DUP5 DUP4 GT PUSH1 0x1 EQ PUSH2 0xF5C JUMPI PUSH1 0x0 SWAP3 PUSH2 0xF51 JUMPI JUMPDEST POP POP PUSH1 0x0 NOT PUSH1 0x3 DUP4 SWAP1 SHL SHR NOT AND SWAP1 DUP4 SHL OR DUP7 SSTORE JUMPDEST DUP2 DUP7 ADD SWAP3 MLOAD DUP1 MLOAD SWAP11 DUP12 GT PUSH2 0x8B2 JUMPI PUSH2 0xDCD DUP5 SLOAD PUSH2 0x1349 JUMP JUMPDEST DUP12 DUP4 DUP3 GT PUSH2 0xF18 JUMPI JUMPDEST POP POP DUP9 SWAP2 DUP12 GT PUSH1 0x1 EQ PUSH2 0xE82 JUMPI SWAP4 PUSH1 0x3 SWAP4 DUP12 DUP1 PUSH32 0xFFA02A982D35D608CD43813952ADAC44F611D562FBE92CA6085AEB0DC0831D4 SWAP14 PUSH2 0xE72 SWAP12 SWAP10 SWAP7 PUSH2 0xE4D SWAP7 PUSH2 0xE65 SWAP16 SWAP15 SWAP13 SWAP11 PUSH1 0x0 SWAP5 PUSH2 0xE77 JUMPI JUMPDEST POP POP SHL SWAP2 PUSH1 0x0 NOT SWAP1 DUP9 SHL SHR NOT AND OR SWAP1 SSTORE JUMPDEST MLOAD ISZERO ISZERO PUSH1 0x2 DUP6 ADD SWAP1 PUSH1 0xFF DUP1 NOT DUP4 SLOAD AND SWAP2 ISZERO ISZERO AND OR SWAP1 SSTORE JUMP JUMPDEST MLOAD SWAP2 ADD SSTORE PUSH1 0x40 MLOAD SWAP5 DUP6 SWAP5 PUSH1 0x40 DUP7 MSTORE PUSH1 0x40 DUP7 ADD SWAP1 PUSH2 0x11FC JUMP JUMPDEST SWAP2 DUP5 DUP4 SUB SWAP1 DUP6 ADD MSTORE PUSH2 0x11FC JUMP JUMPDEST SUB SWAP1 LOG1 STOP JUMPDEST ADD MLOAD SWAP3 POP CODESIZE DUP1 PUSH2 0xE24 JUMP JUMPDEST SWAP10 SWAP1 PUSH1 0x1F NOT DUP3 AND SWAP11 DUP5 PUSH1 0x0 MSTORE DUP10 PUSH1 0x0 KECCAK256 SWAP12 PUSH1 0x0 JUMPDEST DUP2 DUP2 LT PUSH2 0xF03 JUMPI POP SWAP4 DUP4 PUSH32 0xFFA02A982D35D608CD43813952ADAC44F611D562FBE92CA6085AEB0DC0831D4 SWAP14 PUSH2 0xE65 SWAP14 SWAP13 SWAP11 SWAP9 SWAP5 PUSH1 0x3 SWAP9 SWAP5 PUSH2 0xE4D SWAP8 PUSH2 0xE72 SWAP15 SWAP13 SWAP10 LT PUSH2 0xEEB JUMPI JUMPDEST POP POP POP DUP2 SHL ADD SWAP1 SSTORE PUSH2 0xE35 JUMP JUMPDEST ADD MLOAD PUSH1 0x0 NOT DUP4 DUP11 SHL PUSH1 0xF8 AND SHR NOT AND SWAP1 SSTORE DUP15 DUP1 DUP1 PUSH2 0xEDE JUMP JUMPDEST DUP4 DUP4 ADD MLOAD DUP15 SSTORE SWAP13 DUP6 ADD SWAP13 SWAP3 DUP12 ADD SWAP3 DUP12 ADD PUSH2 0xE96 JUMP JUMPDEST PUSH2 0xF41 SWAP2 DUP7 PUSH1 0x0 MSTORE DUP5 DUP13 PUSH1 0x0 KECCAK256 SWAP2 DUP14 DUP3 DUP6 ADD PUSH1 0x5 SHR DUP5 ADD SWAP5 LT PUSH2 0xF48 JUMPI JUMPDEST ADD PUSH1 0x5 SHR ADD SWAP1 PUSH2 0x1571 JUMP JUMPDEST DUP12 DUP12 PUSH2 0xDD6 JUMP JUMPDEST SWAP3 POP DUP2 SWAP3 PUSH2 0xF36 JUMP JUMPDEST ADD MLOAD SWAP1 POP DUP13 DUP1 PUSH2 0xDA1 JUMP JUMPDEST PUSH1 0x0 DUP11 DUP2 MSTORE DUP13 DUP2 KECCAK256 DUP8 SWAP6 POP SWAP3 SWAP2 SWAP1 PUSH1 0x1F NOT DUP6 AND SWAP1 DUP15 JUMPDEST DUP3 DUP3 LT PUSH2 0xFA8 JUMPI POP POP DUP5 GT PUSH2 0xF8F JUMPI JUMPDEST POP POP POP DUP2 SHL ADD DUP7 SSTORE PUSH2 0xDB5 JUMP JUMPDEST ADD MLOAD PUSH1 0x0 NOT PUSH1 0xF8 DUP5 PUSH1 0x3 SHL AND SHR NOT AND SWAP1 SSTORE DUP13 DUP1 DUP1 PUSH2 0xF82 JUMP JUMPDEST DUP4 DUP6 ADD MLOAD DUP7 SSTORE DUP10 SWAP8 SWAP1 SWAP6 ADD SWAP5 SWAP4 DUP5 ADD SWAP4 ADD DUP15 PUSH2 0xF72 JUMP JUMPDEST PUSH2 0xFE7 SWAP2 DUP12 PUSH1 0x0 MSTORE DUP7 DUP3 PUSH1 0x0 KECCAK256 SWAP2 DUP2 DUP8 ADD PUSH1 0x5 SHR DUP4 ADD SWAP4 DUP8 LT PUSH2 0xF48 JUMPI ADD PUSH1 0x5 SHR ADD SWAP1 PUSH2 0x1571 JUMP JUMPDEST DUP14 DUP12 PUSH2 0xD8B JUMP JUMPDEST CALLVALUE PUSH2 0x119 JUMPI PUSH1 0x0 CALLDATASIZE PUSH1 0x3 NOT ADD SLT PUSH2 0x119 JUMPI PUSH1 0x5 SLOAD PUSH1 0x40 MLOAD PUSH1 0x1 PUSH1 0x1 PUSH1 0xA0 SHL SUB SWAP1 SWAP2 AND DUP2 MSTORE PUSH1 0x20 SWAP1 RETURN JUMPDEST CALLVALUE PUSH2 0x119 JUMPI PUSH1 0x20 DUP1 PUSH1 0x3 NOT CALLDATASIZE ADD SLT PUSH2 0x119 JUMPI PUSH1 0x4 CALLDATALOAD PUSH1 0x0 PUSH1 0xA0 PUSH1 0x40 MLOAD PUSH2 0x103C DUP2 PUSH2 0x1221 JUMP JUMPDEST PUSH1 0x40 MLOAD PUSH2 0x1048 DUP2 PUSH2 0x1257 JUMP JUMPDEST PUSH2 0x100 CALLDATASIZE DUP3 CALLDATACOPY DUP2 MSTORE PUSH1 0x60 DUP6 DUP3 ADD MSTORE PUSH1 0x60 PUSH1 0x40 DUP3 ADD MSTORE DUP3 PUSH1 0x60 DUP3 ADD MSTORE DUP3 PUSH1 0x80 DUP3 ADD MSTORE ADD MSTORE DUP1 PUSH1 0x0 MSTORE PUSH1 0x0 DUP3 MSTORE PUSH2 0x1086 PUSH1 0xA PUSH1 0x40 PUSH1 0x0 KECCAK256 ADD SLOAD ISZERO ISZERO PUSH2 0x1428 JUMP JUMPDEST PUSH1 0x0 MSTORE PUSH1 0x0 DUP2 MSTORE PUSH1 0x40 PUSH1 0x0 KECCAK256 PUSH1 0x40 MLOAD SWAP1 PUSH2 0x109F DUP3 PUSH2 0x1221 JUMP JUMPDEST PUSH2 0x10A8 DUP2 PUSH2 0x146B JUMP JUMPDEST DUP3 MSTORE PUSH1 0x8 SWAP2 PUSH2 0x10B9 PUSH1 0x8 DUP4 ADD PUSH2 0x149E JUMP JUMPDEST DUP5 DUP3 ADD SWAP1 DUP2 MSTORE PUSH2 0x10CB PUSH1 0x9 DUP5 ADD PUSH2 0x1383 JUMP JUMPDEST PUSH1 0x40 DUP4 ADD SWAP1 DUP2 MSTORE PUSH1 0xB PUSH1 0xA DUP6 ADD SLOAD SWAP5 PUSH1 0x60 DUP6 ADD SWAP6 DUP7 MSTORE ADD SLOAD SWAP1 PUSH1 0x80 DUP5 ADD SWAP1 PUSH1 0xFF DUP4 AND ISZERO ISZERO DUP3 MSTORE PUSH1 0x1 DUP1 PUSH1 0xA0 SHL SUB SWAP4 DUP5 PUSH1 0xA0 DUP8 ADD SWAP5 PUSH1 0x8 SHR AND DUP5 MSTORE PUSH1 0x40 MLOAD SWAP8 DUP10 DUP10 ADD DUP11 DUP11 MSTORE PUSH2 0x1C0 DUP11 ADD SWAP8 MLOAD PUSH1 0x0 SWAP2 JUMPDEST DUP4 DUP4 LT PUSH2 0x1196 JUMPI POP POP POP POP MLOAD SWAP8 PUSH2 0x1A0 SWAP6 DUP7 PUSH2 0x120 DUP11 ADD MSTORE DUP10 MLOAD DUP1 SWAP2 MSTORE DUP2 PUSH2 0x1E0 DUP11 ADD SWAP11 ADD SWAP2 PUSH1 0x0 JUMPDEST DUP3 DUP2 LT PUSH2 0x1182 JUMPI POP POP POP POP DUP7 SWAP8 PUSH2 0x1167 SWAP2 MLOAD PUSH1 0x1F NOT DUP10 DUP4 SUB ADD PUSH2 0x140 DUP11 ADD MSTORE PUSH2 0x11FC JUMP JUMPDEST SWAP5 MLOAD PUSH2 0x160 DUP8 ADD MSTORE MLOAD ISZERO ISZERO PUSH2 0x180 DUP7 ADD MSTORE MLOAD AND SWAP1 DUP4 ADD MSTORE SUB SWAP1 RETURN JUMPDEST DUP4 MLOAD DUP13 MSTORE SWAP11 DUP2 ADD SWAP11 SWAP3 DUP2 ADD SWAP3 PUSH1 0x1 ADD PUSH2 0x1143 JUMP JUMPDEST DUP2 MLOAD DUP2 MSTORE PUSH1 0x1 SWAP3 SWAP1 SWAP3 ADD SWAP2 SWAP1 DUP13 ADD SWAP1 DUP13 ADD PUSH2 0x111A JUMP JUMPDEST CALLVALUE PUSH2 0x119 JUMPI PUSH1 0x20 CALLDATASIZE PUSH1 0x3 NOT ADD SLT PUSH2 0x119 JUMPI PUSH1 0x20 SWAP1 PUSH1 0x4 CALLDATALOAD PUSH1 0x0 MSTORE PUSH1 0x3 DUP3 MSTORE PUSH1 0xFF PUSH1 0x40 PUSH1 0x0 KECCAK256 SLOAD AND ISZERO ISZERO DUP2 MSTORE RETURN JUMPDEST PUSH1 0x0 JUMPDEST DUP4 DUP2 LT PUSH2 0x11EC JUMPI POP POP PUSH1 0x0 SWAP2 ADD MSTORE JUMP JUMPDEST DUP2 DUP2 ADD MLOAD DUP4 DUP3 ADD MSTORE PUSH1 0x20 ADD PUSH2 0x11DC JUMP JUMPDEST SWAP1 PUSH1 0x20 SWAP2 PUSH2 0x1215 DUP2 MLOAD DUP1 SWAP3 DUP2 DUP6 MSTORE DUP6 DUP1 DUP7 ADD SWAP2 ADD PUSH2 0x11D9 JUMP JUMPDEST PUSH1 0x1F ADD PUSH1 0x1F NOT AND ADD ADD SWAP1 JUMP JUMPDEST PUSH1 0xC0 DUP2 ADD SWAP1 DUP2 LT PUSH1 0x1 PUSH1 0x1 PUSH1 0x40 SHL SUB DUP3 GT OR PUSH2 0x8B2 JUMPI PUSH1 0x40 MSTORE JUMP JUMPDEST PUSH1 0x80 DUP2 ADD SWAP1 DUP2 LT PUSH1 0x1 PUSH1 0x1 PUSH1 0x40 SHL SUB DUP3 GT OR PUSH2 0x8B2 JUMPI PUSH1 0x40 MSTORE JUMP JUMPDEST PUSH2 0x100 DUP2 ADD SWAP1 DUP2 LT PUSH1 0x1 PUSH1 0x1 PUSH1 0x40 SHL SUB DUP3 GT OR PUSH2 0x8B2 JUMPI PUSH1 0x40 MSTORE JUMP JUMPDEST PUSH1 0x40 DUP2 ADD SWAP1 DUP2 LT PUSH1 0x1 PUSH1 0x1 PUSH1 0x40 SHL SUB DUP3 GT OR PUSH2 0x8B2 JUMPI PUSH1 0x40 MSTORE JUMP JUMPDEST SWAP1 PUSH1 0x1F DUP1 NOT SWAP2 ADD AND DUP2 ADD SWAP1 DUP2 LT PUSH1 0x1 PUSH1 0x1 PUSH1 0x40 SHL SUB DUP3 GT OR PUSH2 0x8B2 JUMPI PUSH1 0x40 MSTORE JUMP JUMPDEST DUP2 PUSH1 0x1F DUP3 ADD SLT ISZERO PUSH2 0x119 JUMPI DUP1 CALLDATALOAD SWAP1 PUSH1 0x1 PUSH1 0x1 PUSH1 0x40 SHL SUB DUP3 GT PUSH2 0x8B2 JUMPI PUSH1 0x40 MLOAD SWAP3 PUSH2 0x12E3 PUSH1 0x1F DUP5 ADD PUSH1 0x1F NOT AND PUSH1 0x20 ADD DUP6 PUSH2 0x128E JUMP JUMPDEST DUP3 DUP5 MSTORE PUSH1 0x20 DUP4 DUP4 ADD ADD GT PUSH2 0x119 JUMPI DUP2 PUSH1 0x0 SWAP3 PUSH1 0x20 DUP1 SWAP4 ADD DUP4 DUP7 ADD CALLDATACOPY DUP4 ADD ADD MSTORE SWAP1 JUMP JUMPDEST PUSH1 0x4 CALLDATALOAD SWAP1 PUSH1 0x1 PUSH1 0x1 PUSH1 0xA0 SHL SUB DUP3 AND DUP3 SUB PUSH2 0x119 JUMPI JUMP JUMPDEST DUP1 SLOAD DUP3 LT ISZERO PUSH2 0x1333 JUMPI PUSH1 0x0 MSTORE PUSH1 0x20 PUSH1 0x0 KECCAK256 ADD SWAP1 PUSH1 0x0 SWAP1 JUMP JUMPDEST PUSH4 0x4E487B71 PUSH1 0xE0 SHL PUSH1 0x0 MSTORE PUSH1 0x32 PUSH1 0x4 MSTORE PUSH1 0x24 PUSH1 0x0 REVERT JUMPDEST SWAP1 PUSH1 0x1 DUP3 DUP2 SHR SWAP3 AND DUP1 ISZERO PUSH2 0x1379 JUMPI JUMPDEST PUSH1 0x20 DUP4 LT EQ PUSH2 0x1363 JUMPI JUMP JUMPDEST PUSH4 0x4E487B71 PUSH1 0xE0 SHL PUSH1 0x0 MSTORE PUSH1 0x22 PUSH1 0x4 MSTORE PUSH1 0x24 PUSH1 0x0 REVERT JUMPDEST SWAP2 PUSH1 0x7F AND SWAP2 PUSH2 0x1358 JUMP JUMPDEST SWAP1 PUSH1 0x40 MLOAD SWAP2 DUP3 PUSH1 0x0 DUP3 SLOAD PUSH2 0x1396 DUP2 PUSH2 0x1349 JUMP JUMPDEST SWAP1 DUP2 DUP5 MSTORE PUSH1 0x20 SWAP5 PUSH1 0x1 SWAP2 PUSH1 0x1 DUP2 AND SWAP1 DUP2 PUSH1 0x0 EQ PUSH2 0x1406 JUMPI POP PUSH1 0x1 EQ PUSH2 0x13C7 JUMPI JUMPDEST POP POP POP PUSH2 0x13C5 SWAP3 POP SUB DUP4 PUSH2 0x128E JUMP JUMPDEST JUMP JUMPDEST PUSH1 0x0 SWAP1 DUP2 MSTORE DUP6 DUP2 KECCAK256 SWAP6 SWAP4 POP SWAP2 SWAP1 JUMPDEST DUP2 DUP4 LT PUSH2 0x13EE JUMPI POP POP PUSH2 0x13C5 SWAP4 POP DUP3 ADD ADD CODESIZE DUP1 DUP1 PUSH2 0x13B6 JUMP JUMPDEST DUP6 SLOAD DUP9 DUP5 ADD DUP6 ADD MSTORE SWAP5 DUP6 ADD SWAP5 DUP8 SWAP5 POP SWAP2 DUP4 ADD SWAP2 PUSH2 0x13D5 JUMP JUMPDEST SWAP3 POP POP POP PUSH2 0x13C5 SWAP5 SWAP3 POP PUSH1 0xFF NOT AND DUP3 DUP5 ADD MSTORE ISZERO ISZERO PUSH1 0x5 SHL DUP3 ADD ADD CODESIZE DUP1 DUP1 PUSH2 0x13B6 JUMP JUMPDEST ISZERO PUSH2 0x142F JUMPI JUMP JUMPDEST PUSH1 0x40 MLOAD PUSH3 0x461BCD PUSH1 0xE5 SHL DUP2 MSTORE PUSH1 0x20 PUSH1 0x4 DUP3 ADD MSTORE PUSH1 0x14 PUSH1 0x24 DUP3 ADD MSTORE PUSH20 0x141C9BDBD988191BD95CC81B9BDD08195E1A5CDD PUSH1 0x62 SHL PUSH1 0x44 DUP3 ADD MSTORE PUSH1 0x64 SWAP1 REVERT JUMPDEST PUSH1 0x40 MLOAD SWAP2 SWAP1 PUSH1 0x0 DUP4 JUMPDEST PUSH1 0x8 DUP3 LT PUSH2 0x1488 JUMPI POP POP POP PUSH2 0x13C5 DUP3 PUSH2 0x1257 JUMP JUMPDEST PUSH1 0x1 PUSH1 0x20 DUP2 SWAP3 DUP6 SLOAD DUP2 MSTORE ADD SWAP4 ADD SWAP2 ADD SWAP1 SWAP2 PUSH2 0x1474 JUMP JUMPDEST SWAP1 PUSH1 0x40 MLOAD SWAP2 DUP3 DUP2 SLOAD SWAP2 DUP3 DUP3 MSTORE PUSH1 0x20 SWAP3 PUSH1 0x20 DUP4 ADD SWAP2 PUSH1 0x0 MSTORE PUSH1 0x20 PUSH1 0x0 KECCAK256 SWAP4 PUSH1 0x0 SWAP1 JUMPDEST DUP3 DUP3 LT PUSH2 0x14D5 JUMPI POP POP POP PUSH2 0x13C5 SWAP3 POP SUB DUP4 PUSH2 0x128E JUMP JUMPDEST DUP6 SLOAD DUP5 MSTORE PUSH1 0x1 SWAP6 DUP7 ADD SWAP6 DUP9 SWAP6 POP SWAP4 DUP2 ADD SWAP4 SWAP1 SWAP2 ADD SWAP1 PUSH2 0x14BF JUMP JUMPDEST ISZERO PUSH2 0x14F6 JUMPI JUMP JUMPDEST PUSH1 0x40 MLOAD PUSH3 0x461BCD PUSH1 0xE5 SHL DUP2 MSTORE PUSH1 0x20 PUSH1 0x4 DUP3 ADD MSTORE PUSH1 0x21 PUSH1 0x24 DUP3 ADD MSTORE PUSH32 0x4F6E6C792061646D696E2063616E2063616C6C20746869732066756E6374696F PUSH1 0x44 DUP3 ADD MSTORE PUSH1 0x37 PUSH1 0xF9 SHL PUSH1 0x64 DUP3 ADD MSTORE PUSH1 0x84 SWAP1 REVERT JUMPDEST PUSH1 0x40 MLOAD SWAP1 PUSH2 0x1552 DUP3 PUSH2 0x1273 JUMP JUMPDEST PUSH1 0x10 DUP3 MSTORE PUSH16 0x616E6F6E796D6F75732D766F74696E67 PUSH1 0x80 SHL PUSH1 0x20 DUP4 ADD MSTORE JUMP JUMPDEST DUP2 DUP2 LT PUSH2 0x157C JUMPI POP POP JUMP JUMPDEST PUSH1 0x0 DUP2 SSTORE PUSH1 0x1 ADD PUSH2 0x1571 JUMP JUMPDEST SWAP2 SWAP1 SWAP2 MLOAD ISZERO DUP1 ISZERO PUSH2 0x16F6 JUMPI JUMPDEST PUSH2 0x16EF JUMPI DUP1 MLOAD SWAP1 PUSH32 0x955D37FC839CAD7A92B3AC87986E1B665589C694070B87F2CA77C5661427FC9F PUSH1 0x20 DUP3 ADD SWAP3 DUP4 KECCAK256 PUSH16 0x35BCB196BB32B934B334B1B0BA34B7B7 PUSH1 0x81 SHL PUSH1 0x20 PUSH1 0x40 MLOAD PUSH2 0x15E5 DUP2 PUSH2 0x1273 JUMP JUMPDEST PUSH1 0x10 DUP2 MSTORE ADD MSTORE SUB PUSH2 0x15FB JUMPI POP POP PUSH1 0x3 SWAP1 MLOAD LT ISZERO SWAP1 JUMP JUMPDEST PUSH32 0x5C14477785F304953B925DFE8BA8932FFB039937C5277F6EF9249F2CBA2B730B DUP2 MLOAD DUP4 KECCAK256 PUSH18 0x766F74696E672D656C69676962696C697479 PUSH1 0x70 SHL PUSH1 0x20 PUSH1 0x40 MLOAD PUSH2 0x1644 DUP2 PUSH2 0x1273 JUMP JUMPDEST PUSH1 0x12 DUP2 MSTORE ADD MSTORE SUB PUSH2 0x165A JUMPI POP POP PUSH1 0x4 SWAP1 MLOAD LT ISZERO SWAP1 JUMP JUMPDEST DUP1 MLOAD DUP3 KECCAK256 PUSH2 0x1666 PUSH2 0x1545 JUMP JUMPDEST PUSH1 0x20 DUP2 MLOAD SWAP2 ADD KECCAK256 EQ PUSH1 0x0 EQ PUSH2 0x1680 JUMPI POP POP PUSH1 0x3 SWAP1 MLOAD LT ISZERO SWAP1 JUMP JUMPDEST SWAP1 PUSH32 0x8264C34C5B601E0429C899C166C2E703AF24AF96DFAA5B74570101330E047A47 SWAP2 MLOAD SWAP1 KECCAK256 PUSH32 0x6D656D626572736869702D766572696669636174696F6E000000000000000000 PUSH1 0x20 PUSH1 0x40 MLOAD PUSH2 0x16D5 DUP2 PUSH2 0x1273 JUMP JUMPDEST PUSH1 0x17 DUP2 MSTORE ADD MSTORE EQ PUSH2 0x16E6 JUMPI POP PUSH1 0x1 SWAP1 JUMP JUMPDEST PUSH1 0x3 SWAP1 MLOAD LT ISZERO SWAP1 JUMP JUMPDEST POP POP PUSH1 0x0 SWAP1 JUMP JUMPDEST POP DUP2 MLOAD ISZERO PUSH2 0x1594 JUMP INVALID LOG2 PUSH5 0x6970667358 0x22 SLT KECCAK256 SWAP4 POP CREATE2 GASLIMIT SAR 0xD5 0x2F OR SAR 0xCD ADDMOD TIMESTAMP 0x4E 0xDA 0x2B JUMPI 0xC4 0xC4 BLOBBASEFEE BLOCKHASH CALLVALUE 0xB1 SWAP3 DUP1 0xC6 DUP14 0xDC 0xB1 0xEB SWAP11 0xC4 0x4E PUSH5 0x736F6C6343 STOP ADDMOD XOR STOP CALLER 0xF STATICCALL MUL 0xA9 DUP3 0xD3 TSTORE PUSH1 0x8C 0xD4 CODESIZE SGT SWAP6 0x2A 0xDA 0xC4 0x4F PUSH2 0x1D56 0x2F 0xBE SWAP3 0xCA PUSH1 0x85 0xAE 0xB0 0xDC ADDMOD BALANCE 0xD4 PUSH1 0x80 CALLVALUE PUSH2 0x81 JUMPI PUSH1 0x1F PUSH2 0x1BB7 CODESIZE DUP2 SWAP1 SUB SWAP2 DUP3 ADD PUSH1 0x1F NOT AND DUP4 ADD SWAP2 PUSH1 0x1 PUSH1 0x1 PUSH1 0x40 SHL SUB DUP4 GT DUP5 DUP5 LT OR PUSH2 0x86 JUMPI DUP1 DUP5 SWAP3 PUSH1 0x20 SWAP5 PUSH1 0x40 MSTORE DUP4 CODECOPY DUP2 ADD SUB SLT PUSH2 0x81 JUMPI MLOAD PUSH1 0x1 PUSH1 0x1 PUSH1 0xA0 SHL SUB DUP2 AND SWAP1 DUP2 SWAP1 SUB PUSH2 0x81 JUMPI PUSH1 0x1 DUP1 PUSH1 0xA0 SHL SUB NOT SWAP1 DUP2 PUSH1 0x0 SLOAD AND OR PUSH1 0x0 SSTORE CALLER SWAP1 PUSH1 0x1 SLOAD AND OR PUSH1 0x1 SSTORE PUSH1 0x0 PUSH1 0x2 SSTORE PUSH1 0x40 MLOAD PUSH2 0x1B1A SWAP1 DUP2 PUSH2 0x9D DUP3 CODECOPY RETURN JUMPDEST PUSH1 0x0 DUP1 REVERT JUMPDEST PUSH4 0x4E487B71 PUSH1 0xE0 SHL PUSH1 0x0 MSTORE PUSH1 0x41 PUSH1 0x4 MSTORE PUSH1 0x24 PUSH1 0x0 REVERT INVALID PUSH1 0x80 PUSH1 0x40 MSTORE PUSH1 0x4 CALLDATASIZE LT ISZERO PUSH2 0x12 JUMPI PUSH1 0x0 DUP1 REVERT JUMPDEST PUSH1 0x0 DUP1 CALLDATALOAD PUSH1 0xE0 SHR DUP1 PUSH4 0x13CF08B EQ PUSH2 0x13A8 JUMPI DUP1 PUSH4 0x3C7881A EQ PUSH2 0x1344 JUMPI DUP1 PUSH4 0xC0512E9 EQ PUSH2 0x10A1 JUMPI DUP1 PUSH4 0xD61B519 EQ PUSH2 0x10DB JUMPI DUP1 PUSH4 0xD95255B EQ PUSH2 0x10BF JUMPI DUP1 PUSH4 0x1A5007DD EQ PUSH2 0x10A1 JUMPI DUP1 PUSH4 0x1B31527F EQ PUSH2 0x1059 JUMPI DUP1 PUSH4 0x1C0D850E EQ PUSH2 0x1025 JUMPI DUP1 PUSH4 0x5B16D25D EQ PUSH2 0x8A9 JUMPI DUP1 PUSH4 0x70C3B424 EQ PUSH2 0x882 JUMPI DUP1 PUSH4 0x78EF1138 EQ PUSH2 0x80C JUMPI DUP1 PUSH4 0x8B3511F7 EQ PUSH2 0x7B6 JUMPI DUP1 PUSH4 0x950C7822 EQ PUSH2 0x730 JUMPI DUP1 PUSH4 0x98712B56 EQ PUSH2 0x714 JUMPI DUP1 PUSH4 0xB7D3438E EQ PUSH2 0x6F8 JUMPI DUP1 PUSH4 0xBB4D4436 EQ PUSH2 0x661 JUMPI DUP1 PUSH4 0xC7F758A8 EQ PUSH2 0x5BF JUMPI DUP1 PUSH4 0xD3C0715B EQ PUSH2 0x1F9 JUMPI DUP1 PUSH4 0xE2F273BD EQ PUSH2 0x124 JUMPI PUSH4 0xF851A440 EQ PUSH2 0xF9 JUMPI PUSH1 0x0 DUP1 REVERT JUMPDEST CALLVALUE PUSH2 0x121 JUMPI DUP1 PUSH1 0x3 NOT CALLDATASIZE ADD SLT PUSH2 0x121 JUMPI PUSH1 0x1 SLOAD PUSH1 0x40 MLOAD PUSH1 0x1 PUSH1 0x1 PUSH1 0xA0 SHL SUB SWAP1 SWAP2 AND DUP2 MSTORE PUSH1 0x20 SWAP1 RETURN JUMPDEST DUP1 REVERT JUMPDEST POP CALLVALUE PUSH2 0x121 JUMPI PUSH1 0x20 CALLDATASIZE PUSH1 0x3 NOT ADD SLT PUSH2 0x121 JUMPI PUSH2 0x13E PUSH2 0x1690 JUMP JUMPDEST PUSH1 0x1 SLOAD SWAP1 PUSH1 0x1 PUSH1 0x1 PUSH1 0xA0 SHL SUB SWAP1 DUP2 DUP4 AND CALLER SUB PUSH2 0x1AA JUMPI AND SWAP1 DUP2 ISZERO PUSH2 0x16D JUMPI PUSH1 0x1 PUSH1 0x1 PUSH1 0xA0 SHL SUB NOT AND OR PUSH1 0x1 SSTORE DUP1 RETURN JUMPDEST PUSH1 0x40 MLOAD PUSH3 0x461BCD PUSH1 0xE5 SHL DUP2 MSTORE PUSH1 0x20 PUSH1 0x4 DUP3 ADD MSTORE PUSH1 0x15 PUSH1 0x24 DUP3 ADD MSTORE PUSH21 0x496E76616C69642061646D696E2061646472657373 PUSH1 0x58 SHL PUSH1 0x44 DUP3 ADD MSTORE PUSH1 0x64 SWAP1 REVERT JUMPDEST PUSH1 0x40 MLOAD PUSH3 0x461BCD PUSH1 0xE5 SHL DUP2 MSTORE PUSH1 0x20 PUSH1 0x4 DUP3 ADD MSTORE PUSH1 0x21 PUSH1 0x24 DUP3 ADD MSTORE PUSH32 0x4F6E6C792061646D696E2063616E2063616C6C20746869732066756E6374696F PUSH1 0x44 DUP3 ADD MSTORE PUSH1 0x37 PUSH1 0xF9 SHL PUSH1 0x64 DUP3 ADD MSTORE PUSH1 0x84 SWAP1 REVERT JUMPDEST POP CALLVALUE PUSH2 0x121 JUMPI PUSH1 0x60 CALLDATASIZE PUSH1 0x3 NOT ADD SLT PUSH2 0x121 JUMPI PUSH1 0x24 PUSH1 0x4 CALLDATALOAD DUP2 CALLDATALOAD DUP1 ISZERO ISZERO DUP1 DUP3 SUB PUSH2 0x498 JUMPI PUSH1 0x44 SWAP4 DUP5 CALLDATALOAD PUSH8 0xFFFFFFFFFFFFFFFF DUP2 GT PUSH2 0x5BB JUMPI PUSH2 0x23E SWAP1 CALLDATASIZE SWAP1 PUSH1 0x4 ADD PUSH2 0x16F0 JUMP JUMPDEST SWAP5 DUP5 DUP8 MSTORE PUSH1 0x20 SWAP4 PUSH1 0x3 DUP6 MSTORE PUSH1 0x40 DUP9 KECCAK256 PUSH1 0x2 SLOAD DUP8 GT ISZERO DUP1 PUSH2 0x5B2 JUMPI JUMPDEST PUSH2 0x262 SWAP1 PUSH2 0x1773 JUMP JUMPDEST PUSH1 0xFF PUSH1 0x4 DUP3 ADD SLOAD PUSH1 0x8 SHR AND PUSH1 0x4 DUP2 LT ISZERO PUSH2 0x59F JUMPI PUSH2 0x280 SWAP1 ISZERO PUSH2 0x17B5 JUMP JUMPDEST PUSH1 0x8 DUP2 ADD SLOAD TIMESTAMP LT ISZERO PUSH2 0x566 JUMPI PUSH1 0xB DUP2 ADD SWAP2 CALLER PUSH1 0x0 MSTORE DUP3 DUP8 MSTORE PUSH1 0xFF PUSH1 0x40 PUSH1 0x0 KECCAK256 SLOAD AND PUSH2 0x533 JUMPI DUP10 SLOAD PUSH1 0x40 MLOAD PUSH4 0x70A08231 PUSH1 0xE0 SHL DUP2 MSTORE CALLER PUSH1 0x4 DUP3 ADD MSTORE SWAP6 SWAP4 PUSH1 0x1 PUSH1 0x1 PUSH1 0xA0 SHL SUB SWAP4 SWAP3 SWAP2 DUP10 SWAP1 DUP9 SWAP1 DUP8 SWAP1 DUP3 SWAP1 DUP9 AND GAS STATICCALL SWAP7 DUP8 ISZERO PUSH2 0x528 JUMPI DUP13 SWAP8 PUSH2 0x4F4 JUMPI JUMPDEST POP DUP7 ISZERO PUSH2 0x4B1 JUMPI SWAP1 DUP12 SWAP6 SWAP5 SWAP4 SWAP3 SWAP2 CALLER PUSH1 0x0 MSTORE DUP10 MSTORE PUSH1 0x40 PUSH1 0x0 KECCAK256 PUSH1 0xFF NOT SWAP1 PUSH1 0x1 DUP3 DUP3 SLOAD AND OR SWAP1 SSTORE PUSH1 0xC DUP4 ADD DUP11 MSTORE PUSH1 0x40 PUSH1 0x0 KECCAK256 SWAP1 DUP2 SLOAD AND PUSH1 0xFF DUP11 AND OR SWAP1 SSTORE PUSH1 0x7 DUP3 ADD PUSH2 0x32C DUP9 DUP3 SLOAD PUSH2 0x19D8 JUMP JUMPDEST SWAP1 SSTORE ISZERO PUSH2 0x49C JUMPI PUSH1 0x5 ADD PUSH2 0x341 DUP7 DUP3 SLOAD PUSH2 0x19D8 JUMP JUMPDEST SWAP1 SSTORE JUMPDEST CALLER DUP5 MSTORE PUSH1 0x5 DUP8 MSTORE PUSH2 0x358 DUP9 PUSH1 0x40 DUP7 KECCAK256 PUSH2 0x19E5 JUMP JUMPDEST DUP1 DUP5 SLOAD AND DUP1 EXTCODESIZE ISZERO PUSH2 0x498 JUMPI DUP5 DUP1 SWAP2 PUSH1 0xA4 PUSH1 0x40 MLOAD DUP1 SWAP5 DUP2 SWAP4 PUSH4 0x34FF2619 PUSH1 0xE2 SHL DUP4 MSTORE CALLER PUSH1 0x4 DUP5 ADD MSTORE PUSH1 0xA DUP10 DUP5 ADD MSTORE PUSH1 0x60 DUP11 DUP5 ADD MSTORE PUSH1 0x12 PUSH1 0x64 DUP5 ADD MSTORE PUSH18 0x2B37BA32902830B93A34B1B4B830BA34B7B7 PUSH1 0x71 SHL PUSH1 0x84 DUP5 ADD MSTORE GAS CALL SWAP1 DUP2 ISZERO PUSH2 0x48D JUMPI DUP6 SWAP2 PUSH2 0x479 JUMPI JUMPDEST POP SLOAD AND SWAP1 DUP2 EXTCODESIZE ISZERO PUSH2 0x475 JUMPI PUSH1 0x84 PUSH1 0x40 SWAP2 DUP6 DUP1 SWAP5 PUSH1 0x4 DUP6 MLOAD SWAP8 DUP9 SWAP7 DUP8 SWAP6 PUSH4 0x55AD3EAD PUSH1 0xE1 SHL DUP8 MSTORE CALLER DUP5 DUP9 ADD MSTORE DUP7 ADD MSTORE DUP5 ADD MSTORE PUSH4 0x766F7465 PUSH1 0xE0 SHL PUSH1 0x64 DUP5 ADD MSTORE GAS CALL DUP1 ISZERO PUSH2 0x46A JUMPI PUSH2 0x452 JUMPI JUMPDEST POP POP PUSH32 0x63453EBF8E1AA432B8D77257D489F75C1A106CDBD568C0E0C63547D20FC91FA8 SWAP3 PUSH1 0x40 MLOAD SWAP3 DUP4 MSTORE DUP3 ADD MSTORE PUSH1 0x60 PUSH1 0x40 DUP3 ADD MSTORE DUP1 PUSH2 0x44C CALLER SWAP6 PUSH1 0x60 DUP4 ADD SWAP1 PUSH2 0x15AE JUMP JUMPDEST SUB SWAP1 LOG3 DUP1 RETURN JUMPDEST PUSH2 0x45B SWAP1 PUSH2 0x147E JUMP JUMPDEST PUSH2 0x466 JUMPI DUP6 CODESIZE PUSH2 0x408 JUMP JUMPDEST DUP6 DUP1 REVERT JUMPDEST PUSH1 0x40 MLOAD RETURNDATASIZE DUP5 DUP3 RETURNDATACOPY RETURNDATASIZE SWAP1 REVERT JUMPDEST DUP4 DUP1 REVERT JUMPDEST PUSH2 0x482 SWAP1 PUSH2 0x147E JUMP JUMPDEST PUSH2 0x475 JUMPI DUP4 CODESIZE PUSH2 0x3BD JUMP JUMPDEST PUSH1 0x40 MLOAD RETURNDATASIZE DUP8 DUP3 RETURNDATACOPY RETURNDATASIZE SWAP1 REVERT JUMPDEST DUP5 DUP1 REVERT JUMPDEST PUSH1 0x6 ADD PUSH2 0x4AA DUP7 DUP3 SLOAD PUSH2 0x19D8 JUMP JUMPDEST SWAP1 SSTORE PUSH2 0x344 JUMP JUMPDEST PUSH1 0x40 MLOAD PUSH3 0x461BCD PUSH1 0xE5 SHL DUP2 MSTORE PUSH1 0x4 DUP2 ADD DUP11 SWAP1 MSTORE PUSH1 0x1B DUP2 DUP8 ADD MSTORE PUSH32 0x4E6F205354415420746F6B656E732C2063616E6E6F7420766F74650000000000 DUP2 DUP9 ADD MSTORE PUSH1 0x64 SWAP1 REVERT JUMPDEST SWAP1 SWAP7 POP DUP9 DUP2 DUP2 RETURNDATASIZE DUP4 GT PUSH2 0x521 JUMPI JUMPDEST PUSH2 0x50C DUP2 DUP4 PUSH2 0x14C4 JUMP JUMPDEST DUP2 ADD SUB SLT PUSH2 0x51C JUMPI MLOAD SWAP6 CODESIZE PUSH2 0x2E1 JUMP JUMPDEST PUSH1 0x0 DUP1 REVERT JUMPDEST POP RETURNDATASIZE PUSH2 0x502 JUMP JUMPDEST PUSH1 0x40 MLOAD RETURNDATASIZE DUP15 DUP3 RETURNDATACOPY RETURNDATASIZE SWAP1 REVERT JUMPDEST PUSH1 0x40 MLOAD PUSH3 0x461BCD PUSH1 0xE5 SHL DUP2 MSTORE PUSH1 0x4 DUP2 ADD DUP9 SWAP1 MSTORE PUSH1 0xD DUP2 DUP8 ADD MSTORE PUSH13 0x105B1C9958591E481D9BDD1959 PUSH1 0x9A SHL DUP2 DUP7 ADD MSTORE PUSH1 0x64 SWAP1 REVERT JUMPDEST PUSH1 0x40 MLOAD PUSH3 0x461BCD PUSH1 0xE5 SHL DUP2 MSTORE PUSH1 0x4 DUP2 ADD DUP8 SWAP1 MSTORE PUSH1 0x13 DUP2 DUP7 ADD MSTORE PUSH19 0x159BDD1A5B99C81C195C9A5BD908195B991959 PUSH1 0x6A SHL DUP2 DUP6 ADD MSTORE PUSH1 0x64 SWAP1 REVERT JUMPDEST PUSH4 0x4E487B71 PUSH1 0xE0 SHL DUP11 MSTORE PUSH1 0x21 PUSH1 0x4 MSTORE DUP5 DUP11 REVERT JUMPDEST POP DUP7 ISZERO ISZERO PUSH2 0x259 JUMP JUMPDEST DUP7 DUP1 REVERT JUMPDEST POP CALLVALUE PUSH2 0x121 JUMPI PUSH1 0x20 CALLDATASIZE PUSH1 0x3 NOT ADD SLT PUSH2 0x121 JUMPI PUSH1 0x40 SWAP1 PUSH1 0x4 CALLDATALOAD DUP2 MSTORE PUSH1 0x3 PUSH1 0x20 MSTORE KECCAK256 DUP1 SLOAD SWAP1 PUSH2 0x65D PUSH1 0x4 DUP3 ADD SLOAD SWAP3 PUSH1 0x5 DUP4 ADD SLOAD PUSH1 0x6 DUP5 ADD SLOAD PUSH1 0x7 DUP6 ADD SLOAD PUSH1 0x8 DUP7 ADD SLOAD SWAP2 PUSH1 0x9 DUP8 ADD SLOAD SWAP4 PUSH1 0xFF PUSH1 0xA DUP10 ADD SLOAD AND SWAP6 PUSH2 0x61B PUSH1 0x1 DUP11 ADD PUSH2 0x14E6 JUMP JUMPDEST SWAP10 PUSH2 0x634 PUSH1 0x3 PUSH2 0x62D PUSH1 0x2 DUP14 ADD PUSH2 0x14E6 JUMP JUMPDEST SWAP12 ADD PUSH2 0x14E6 JUMP JUMPDEST PUSH1 0x40 MLOAD SWAP12 DUP13 SWAP12 PUSH1 0x1 PUSH1 0x1 PUSH1 0xA0 SHL SUB PUSH1 0x10 DUP6 SWAP1 SHR AND SWAP5 PUSH1 0xFF PUSH1 0x8 DUP7 SWAP1 SHR DUP2 AND SWAP6 AND SWAP4 SWAP3 SWAP1 DUP15 PUSH2 0x15F6 JUMP JUMPDEST SUB SWAP1 RETURN JUMPDEST POP CALLVALUE PUSH2 0x121 JUMPI PUSH1 0x20 SWAP1 DUP2 PUSH1 0x3 NOT CALLDATASIZE ADD SLT PUSH2 0x121 JUMPI PUSH2 0x67D PUSH2 0x1690 JUMP JUMPDEST DUP2 SLOAD PUSH1 0x40 MLOAD PUSH4 0x70A08231 PUSH1 0xE0 SHL DUP2 MSTORE PUSH1 0x1 PUSH1 0x1 PUSH1 0xA0 SHL SUB SWAP3 DUP4 AND PUSH1 0x4 DUP3 ADD MSTORE SWAP2 DUP5 SWAP2 DUP4 SWAP2 PUSH1 0x24 SWAP2 DUP4 SWAP2 AND GAS STATICCALL SWAP2 DUP3 ISZERO PUSH2 0x6EC JUMPI SWAP2 PUSH2 0x6BF JUMPI JUMPDEST POP PUSH1 0x40 MLOAD SWAP1 DUP2 MSTORE RETURN JUMPDEST SWAP1 POP DUP2 DUP2 DUP2 RETURNDATASIZE DUP4 GT PUSH2 0x6E5 JUMPI JUMPDEST PUSH2 0x6D6 DUP2 DUP4 PUSH2 0x14C4 JUMP JUMPDEST DUP2 ADD SUB SLT PUSH2 0x51C JUMPI MLOAD CODESIZE PUSH2 0x6B6 JUMP JUMPDEST POP RETURNDATASIZE PUSH2 0x6CC JUMP JUMPDEST PUSH1 0x40 MLOAD SWAP1 RETURNDATASIZE SWAP1 DUP3 RETURNDATACOPY RETURNDATASIZE SWAP1 REVERT JUMPDEST POP CALLVALUE PUSH2 0x121 JUMPI DUP1 PUSH1 0x3 NOT CALLDATASIZE ADD SLT PUSH2 0x121 JUMPI PUSH1 0x20 PUSH1 0x40 MLOAD PUSH1 0x64 DUP2 MSTORE RETURN JUMPDEST POP CALLVALUE PUSH2 0x121 JUMPI DUP1 PUSH1 0x3 NOT CALLDATASIZE ADD SLT PUSH2 0x121 JUMPI PUSH1 0x20 PUSH1 0x40 MLOAD PUSH1 0x32 DUP2 MSTORE RETURN JUMPDEST POP CALLVALUE PUSH2 0x121 JUMPI PUSH1 0x20 DUP1 PUSH1 0x3 NOT CALLDATASIZE ADD SLT PUSH2 0x7B2 JUMPI PUSH1 0x1 PUSH1 0x1 PUSH1 0xA0 SHL SUB PUSH2 0x753 PUSH2 0x1690 JUMP JUMPDEST AND DUP3 MSTORE PUSH1 0x5 PUSH1 0x20 MSTORE PUSH1 0x40 DUP3 KECCAK256 SWAP2 PUSH1 0x40 MLOAD DUP1 SWAP3 PUSH1 0x20 DUP6 SLOAD SWAP3 DUP4 DUP2 MSTORE ADD SWAP5 DUP4 MSTORE PUSH1 0x20 DUP4 KECCAK256 SWAP3 SWAP1 JUMPDEST DUP3 DUP3 LT PUSH2 0x79B JUMPI PUSH2 0x65D DUP6 PUSH2 0x78F DUP2 DUP10 SUB DUP3 PUSH2 0x14C4 JUMP JUMPDEST PUSH1 0x40 MLOAD SWAP2 DUP3 SWAP2 DUP3 PUSH2 0x1737 JUMP JUMPDEST DUP4 SLOAD DUP7 MSTORE SWAP5 DUP6 ADD SWAP5 PUSH1 0x1 SWAP4 DUP5 ADD SWAP4 SWAP1 SWAP2 ADD SWAP1 PUSH2 0x778 JUMP JUMPDEST POP DUP1 REVERT JUMPDEST POP CALLVALUE PUSH2 0x121 JUMPI PUSH1 0x40 CALLDATASIZE PUSH1 0x3 NOT ADD SLT PUSH2 0x121 JUMPI PUSH2 0x7D0 PUSH2 0x1690 JUMP JUMPDEST PUSH1 0x1 PUSH1 0x1 PUSH1 0xA0 SHL SUB AND DUP2 MSTORE PUSH1 0x5 PUSH1 0x20 MSTORE PUSH1 0x40 DUP2 KECCAK256 DUP1 SLOAD PUSH1 0x24 CALLDATALOAD SWAP3 SWAP1 DUP4 LT ISZERO PUSH2 0x121 JUMPI PUSH1 0x20 PUSH2 0x7FE DUP5 DUP5 PUSH2 0x16A6 JUMP JUMPDEST SWAP1 SLOAD PUSH1 0x40 MLOAD SWAP2 PUSH1 0x3 SHL SHR DUP2 MSTORE RETURN JUMPDEST POP CALLVALUE PUSH2 0x121 JUMPI PUSH1 0x20 DUP1 PUSH1 0x3 NOT CALLDATASIZE ADD SLT PUSH2 0x7B2 JUMPI PUSH1 0x1 PUSH1 0x1 PUSH1 0xA0 SHL SUB PUSH2 0x82F PUSH2 0x1690 JUMP JUMPDEST AND DUP3 MSTORE PUSH1 0x4 PUSH1 0x20 MSTORE PUSH1 0x40 DUP3 KECCAK256 SWAP2 PUSH1 0x40 MLOAD DUP1 SWAP3 PUSH1 0x20 DUP6 SLOAD SWAP3 DUP4 DUP2 MSTORE ADD SWAP5 DUP4 MSTORE PUSH1 0x20 DUP4 KECCAK256 SWAP3 SWAP1 JUMPDEST DUP3 DUP3 LT PUSH2 0x86B JUMPI PUSH2 0x65D DUP6 PUSH2 0x78F DUP2 DUP10 SUB DUP3 PUSH2 0x14C4 JUMP JUMPDEST DUP4 SLOAD DUP7 MSTORE SWAP5 DUP6 ADD SWAP5 PUSH1 0x1 SWAP4 DUP5 ADD SWAP4 SWAP1 SWAP2 ADD SWAP1 PUSH2 0x854 JUMP JUMPDEST POP CALLVALUE PUSH2 0x121 JUMPI DUP1 PUSH1 0x3 NOT CALLDATASIZE ADD SLT PUSH2 0x121 JUMPI SLOAD PUSH1 0x40 MLOAD PUSH1 0x1 PUSH1 0x1 PUSH1 0xA0 SHL SUB SWAP1 SWAP2 AND DUP2 MSTORE PUSH1 0x20 SWAP1 RETURN JUMPDEST POP CALLVALUE PUSH2 0x121 JUMPI PUSH1 0xA0 CALLDATASIZE PUSH1 0x3 NOT ADD SLT PUSH2 0x121 JUMPI PUSH1 0x4 CALLDATALOAD PUSH8 0xFFFFFFFFFFFFFFFF DUP2 GT PUSH2 0x7B2 JUMPI PUSH2 0x8DB SWAP1 CALLDATASIZE SWAP1 PUSH1 0x4 ADD PUSH2 0x16F0 JUMP JUMPDEST PUSH1 0x24 CALLDATALOAD PUSH8 0xFFFFFFFFFFFFFFFF DUP2 GT PUSH2 0xC55 JUMPI PUSH2 0x8FB SWAP1 CALLDATASIZE SWAP1 PUSH1 0x4 ADD PUSH2 0x16F0 JUMP JUMPDEST SWAP1 PUSH1 0x44 CALLDATALOAD PUSH8 0xFFFFFFFFFFFFFFFF DUP2 GT PUSH2 0x475 JUMPI PUSH2 0x91C SWAP1 CALLDATASIZE SWAP1 PUSH1 0x4 ADD PUSH2 0x16F0 JUMP JUMPDEST PUSH1 0x3 PUSH1 0x64 CALLDATALOAD LT ISZERO PUSH2 0x475 JUMPI DUP2 MLOAD ISZERO PUSH2 0xFE8 JUMPI DUP3 MLOAD ISZERO PUSH2 0xFA3 JUMPI PUSH1 0x84 CALLDATALOAD ISZERO PUSH2 0xF5E JUMPI DUP4 SLOAD PUSH1 0x40 MLOAD PUSH4 0x70A08231 PUSH1 0xE0 SHL DUP2 MSTORE CALLER PUSH1 0x4 DUP3 ADD MSTORE SWAP1 PUSH1 0x20 SWAP1 DUP3 SWAP1 PUSH1 0x24 SWAP1 DUP3 SWAP1 PUSH1 0x1 PUSH1 0x1 PUSH1 0xA0 SHL SUB AND GAS STATICCALL DUP1 ISZERO PUSH2 0x48D JUMPI DUP6 SWAP1 PUSH2 0xF2B JUMPI JUMPDEST PUSH1 0x32 SWAP2 POP LT PUSH2 0xEDA JUMPI PUSH2 0x989 PUSH1 0x2 SLOAD PUSH2 0x19B3 JUMP JUMPDEST SWAP1 DUP2 PUSH1 0x2 SSTORE PUSH2 0x99A PUSH1 0x84 CALLDATALOAD TIMESTAMP PUSH2 0x19D8 JUMP JUMPDEST SWAP4 DUP3 DUP7 MSTORE PUSH1 0x3 PUSH1 0x20 MSTORE PUSH1 0x40 DUP7 KECCAK256 SWAP3 DUP4 SSTORE DUP4 MLOAD PUSH8 0xFFFFFFFFFFFFFFFF DUP2 GT PUSH2 0xE0C JUMPI PUSH2 0x9C8 PUSH1 0x1 DUP6 ADD SLOAD PUSH2 0x1444 JUMP JUMPDEST PUSH1 0x1F DUP2 GT PUSH2 0xE95 JUMPI JUMPDEST POP DUP1 PUSH1 0x20 PUSH1 0x1F DUP3 GT PUSH1 0x1 EQ PUSH2 0xE2B JUMPI DUP9 SWAP2 PUSH2 0xE20 JUMPI JUMPDEST POP DUP2 PUSH1 0x1 SHL SWAP2 PUSH1 0x0 NOT SWAP1 PUSH1 0x3 SHL SHR NOT AND OR PUSH1 0x1 DUP5 ADD SSTORE JUMPDEST DUP1 MLOAD SWAP1 PUSH8 0xFFFFFFFFFFFFFFFF DUP3 GT PUSH2 0xE0C JUMPI DUP2 SWAP1 PUSH2 0xA1F PUSH1 0x2 DUP7 ADD SLOAD PUSH2 0x1444 JUMP JUMPDEST PUSH1 0x1F DUP2 GT PUSH2 0xDBB JUMPI JUMPDEST POP PUSH1 0x20 SWAP1 PUSH1 0x1F DUP4 GT PUSH1 0x1 EQ PUSH2 0xD4C JUMPI DUP9 SWAP3 PUSH2 0xD41 JUMPI JUMPDEST POP POP DUP2 PUSH1 0x1 SHL SWAP2 PUSH1 0x0 NOT SWAP1 PUSH1 0x3 SHL SHR NOT AND OR PUSH1 0x2 DUP4 ADD SSTORE JUMPDEST DUP1 MLOAD SWAP1 PUSH8 0xFFFFFFFFFFFFFFFF DUP3 GT PUSH2 0xD2D JUMPI PUSH2 0xA75 PUSH1 0x3 DUP5 ADD SLOAD PUSH2 0x1444 JUMP JUMPDEST PUSH1 0x1F DUP2 GT PUSH2 0xCE8 JUMPI JUMPDEST POP PUSH1 0x20 SWAP1 PUSH1 0x1F DUP4 GT PUSH1 0x1 EQ PUSH2 0xC78 JUMPI PUSH1 0xA SWAP4 SWAP3 SWAP2 DUP8 SWAP2 DUP4 PUSH2 0xC6D JUMPI JUMPDEST POP POP DUP2 PUSH1 0x1 SHL SWAP2 PUSH1 0x0 NOT SWAP1 PUSH1 0x3 SHL SHR NOT AND OR PUSH1 0x3 DUP3 ADD SSTORE JUMPDEST PUSH1 0x4 DUP2 ADD DUP1 SLOAD PUSH3 0x10000 PUSH1 0x1 PUSH1 0xB0 SHL SUB CALLER PUSH1 0x10 SHL AND SWAP1 PUSH1 0xFF PUSH1 0x64 CALLDATALOAD AND SWAP1 PUSH10 0xFFFFFFFFFFFFFFFFFFFF PUSH1 0xB0 SHL AND OR OR SWAP1 SSTORE DUP5 PUSH1 0x5 DUP3 ADD SSTORE DUP5 PUSH1 0x6 DUP3 ADD SSTORE DUP5 PUSH1 0x7 DUP3 ADD SSTORE DUP4 PUSH1 0x8 DUP3 ADD SSTORE TIMESTAMP PUSH1 0x9 DUP3 ADD SSTORE ADD PUSH1 0xFF NOT DUP2 SLOAD AND SWAP1 SSTORE CALLER DUP4 MSTORE PUSH1 0x4 PUSH1 0x20 MSTORE PUSH2 0xB21 PUSH1 0x40 DUP5 KECCAK256 PUSH1 0x2 SLOAD SWAP1 PUSH2 0x19E5 JUMP JUMPDEST DUP3 SLOAD DUP4 SWAP1 PUSH1 0x1 PUSH1 0x1 PUSH1 0xA0 SHL SUB AND DUP1 EXTCODESIZE ISZERO PUSH2 0x7B2 JUMPI DUP2 DUP1 SWAP2 PUSH1 0xA4 PUSH1 0x40 MLOAD DUP1 SWAP5 DUP2 SWAP4 PUSH4 0x34FF2619 PUSH1 0xE2 SHL DUP4 MSTORE CALLER PUSH1 0x4 DUP5 ADD MSTORE PUSH1 0x32 PUSH1 0x24 DUP5 ADD MSTORE PUSH1 0x60 PUSH1 0x44 DUP5 ADD MSTORE PUSH1 0x10 PUSH1 0x64 DUP5 ADD MSTORE PUSH16 0x141C9BDC1BDCD85B0810DC99585D1959 PUSH1 0x82 SHL PUSH1 0x84 DUP5 ADD MSTORE GAS CALL DUP1 ISZERO PUSH2 0x46A JUMPI PUSH2 0xC59 JUMPI JUMPDEST POP DUP1 SLOAD PUSH1 0x1 PUSH1 0x1 PUSH1 0xA0 SHL SUB AND DUP1 EXTCODESIZE ISZERO PUSH2 0x7B2 JUMPI DUP2 DUP1 SWAP2 PUSH1 0x84 PUSH1 0x40 MLOAD DUP1 SWAP5 DUP2 SWAP4 PUSH4 0x55AD3EAD PUSH1 0xE1 SHL DUP4 MSTORE CALLER PUSH1 0x4 DUP5 ADD MSTORE PUSH1 0x40 PUSH1 0x24 DUP5 ADD MSTORE PUSH1 0x8 PUSH1 0x44 DUP5 ADD MSTORE PUSH8 0x1C1C9BDC1BDCD85B PUSH1 0xC2 SHL PUSH1 0x64 DUP5 ADD MSTORE GAS CALL DUP1 ISZERO PUSH2 0x46A JUMPI PUSH2 0xC41 JUMPI JUMPDEST POP POP PUSH32 0xD8244157BFCD2B10051DB9A0C53E954E429355CB86128797A0468E0892B92BF9 PUSH1 0x2 SLOAD SWAP2 PUSH2 0xC23 PUSH1 0x40 MLOAD SWAP2 PUSH1 0x60 DUP4 MSTORE PUSH1 0x60 DUP4 ADD SWAP1 PUSH2 0x15AE JUMP JUMPDEST SWAP4 PUSH2 0xC33 PUSH1 0x20 DUP4 ADD PUSH1 0x64 CALLDATALOAD PUSH2 0x15D3 JUMP JUMPDEST PUSH1 0x40 DUP3 ADD MSTORE DUP1 CALLER SWAP5 SUB SWAP1 LOG3 DUP1 RETURN JUMPDEST PUSH2 0xC4A SWAP1 PUSH2 0x147E JUMP JUMPDEST PUSH2 0xC55 JUMPI DUP3 CODESIZE PUSH2 0xBE7 JUMP JUMPDEST DUP3 DUP1 REVERT JUMPDEST PUSH2 0xC62 SWAP1 PUSH2 0x147E JUMP JUMPDEST PUSH2 0xC55 JUMPI DUP3 CODESIZE PUSH2 0xB8C JUMP JUMPDEST ADD MLOAD SWAP1 POP CODESIZE DUP1 PUSH2 0xA9A JUMP JUMPDEST SWAP1 PUSH1 0x3 DUP5 ADD DUP8 MSTORE PUSH1 0x20 DUP8 KECCAK256 SWAP2 DUP8 JUMPDEST PUSH1 0x1F NOT DUP6 AND DUP2 LT PUSH2 0xCD0 JUMPI POP SWAP2 DUP4 SWAP2 PUSH1 0x1 SWAP4 PUSH1 0xA SWAP7 SWAP6 PUSH1 0x1F NOT DUP2 AND LT PUSH2 0xCB7 JUMPI JUMPDEST POP POP POP DUP2 SHL ADD PUSH1 0x3 DUP3 ADD SSTORE PUSH2 0xAB2 JUMP JUMPDEST ADD MLOAD PUSH1 0x0 NOT PUSH1 0xF8 DUP5 PUSH1 0x3 SHL AND SHR NOT AND SWAP1 SSTORE CODESIZE DUP1 DUP1 PUSH2 0xCA7 JUMP JUMPDEST SWAP2 SWAP3 PUSH1 0x20 PUSH1 0x1 DUP2 SWAP3 DUP7 DUP6 ADD MLOAD DUP2 SSTORE ADD SWAP5 ADD SWAP3 ADD PUSH2 0xC86 JUMP JUMPDEST PUSH1 0x3 DUP5 ADD DUP8 MSTORE PUSH1 0x20 DUP8 KECCAK256 PUSH1 0x1F DUP5 ADD PUSH1 0x5 SHR DUP2 ADD PUSH1 0x20 DUP6 LT PUSH2 0xD26 JUMPI JUMPDEST PUSH1 0x1F DUP4 ADD PUSH1 0x5 SHR DUP3 ADD DUP2 LT PUSH2 0xD1A JUMPI POP POP PUSH2 0xA7E JUMP JUMPDEST PUSH1 0x0 DUP2 SSTORE PUSH1 0x1 ADD PUSH2 0xD04 JUMP JUMPDEST POP DUP1 PUSH2 0xD04 JUMP JUMPDEST PUSH4 0x4E487B71 PUSH1 0xE0 SHL DUP7 MSTORE PUSH1 0x41 PUSH1 0x4 MSTORE PUSH1 0x24 DUP7 REVERT JUMPDEST ADD MLOAD SWAP1 POP CODESIZE DUP1 PUSH2 0xA3E JUMP JUMPDEST SWAP3 POP PUSH1 0x2 DUP6 ADD DUP9 MSTORE PUSH1 0x20 DUP9 KECCAK256 SWAP1 DUP9 SWAP4 JUMPDEST PUSH1 0x1F NOT DUP5 AND DUP6 LT PUSH2 0xDA0 JUMPI PUSH1 0x1 SWAP5 POP DUP4 PUSH1 0x1F NOT DUP2 AND LT PUSH2 0xD87 JUMPI JUMPDEST POP POP POP DUP2 SHL ADD PUSH1 0x2 DUP4 ADD SSTORE PUSH2 0xA56 JUMP JUMPDEST ADD MLOAD PUSH1 0x0 NOT PUSH1 0xF8 DUP5 PUSH1 0x3 SHL AND SHR NOT AND SWAP1 SSTORE CODESIZE DUP1 DUP1 PUSH2 0xD77 JUMP JUMPDEST DUP2 DUP2 ADD MLOAD DUP4 SSTORE PUSH1 0x20 SWAP5 DUP6 ADD SWAP5 PUSH1 0x1 SWAP1 SWAP4 ADD SWAP3 SWAP1 SWAP2 ADD SWAP1 PUSH2 0xD5C JUMP JUMPDEST SWAP1 SWAP2 POP PUSH1 0x2 DUP6 ADD DUP9 MSTORE PUSH1 0x20 DUP9 KECCAK256 PUSH1 0x1F DUP5 ADD PUSH1 0x5 SHR DUP2 ADD PUSH1 0x20 DUP6 LT PUSH2 0xE05 JUMPI JUMPDEST SWAP1 DUP5 SWAP4 SWAP3 SWAP2 JUMPDEST PUSH1 0x1F DUP4 ADD PUSH1 0x5 SHR DUP3 ADD DUP2 LT PUSH2 0xDF6 JUMPI POP POP PUSH2 0xA28 JUMP JUMPDEST PUSH1 0x0 DUP2 SSTORE DUP6 SWAP5 POP PUSH1 0x1 ADD PUSH2 0xDE0 JUMP JUMPDEST POP DUP1 PUSH2 0xDDA JUMP JUMPDEST PUSH4 0x4E487B71 PUSH1 0xE0 SHL DUP8 MSTORE PUSH1 0x41 PUSH1 0x4 MSTORE PUSH1 0x24 DUP8 REVERT JUMPDEST SWAP1 POP DUP6 ADD MLOAD CODESIZE PUSH2 0x9E7 JUMP JUMPDEST SWAP2 POP PUSH1 0x1 DUP6 ADD DUP9 MSTORE PUSH1 0x20 DUP9 KECCAK256 DUP9 SWAP3 JUMPDEST PUSH1 0x1F NOT DUP4 AND DUP5 LT PUSH2 0xE7D JUMPI PUSH1 0x1 SWAP4 POP DUP3 PUSH1 0x1F NOT DUP2 AND LT PUSH2 0xE64 JUMPI JUMPDEST POP POP DUP2 SHL ADD PUSH1 0x1 DUP5 ADD SSTORE PUSH2 0x9FE JUMP JUMPDEST DUP8 ADD MLOAD PUSH1 0x0 NOT PUSH1 0xF8 DUP5 PUSH1 0x3 SHL AND SHR NOT AND SWAP1 SSTORE CODESIZE DUP1 PUSH2 0xE55 JUMP JUMPDEST DUP8 DUP2 ADD MLOAD DUP3 SSTORE PUSH1 0x20 SWAP4 DUP5 ADD SWAP4 PUSH1 0x1 SWAP1 SWAP3 ADD SWAP2 ADD PUSH2 0xE3A JUMP JUMPDEST PUSH1 0x1 DUP6 ADD DUP9 MSTORE PUSH1 0x20 DUP9 KECCAK256 PUSH1 0x1F DUP4 ADD PUSH1 0x5 SHR DUP2 ADD PUSH1 0x20 DUP5 LT PUSH2 0xED3 JUMPI JUMPDEST PUSH1 0x1F DUP4 ADD PUSH1 0x5 SHR DUP3 ADD DUP2 LT PUSH2 0xEC7 JUMPI POP POP PUSH2 0x9D1 JUMP JUMPDEST PUSH1 0x0 DUP2 SSTORE PUSH1 0x1 ADD PUSH2 0xEB1 JUMP JUMPDEST POP DUP1 PUSH2 0xEB1 JUMP JUMPDEST PUSH1 0x40 MLOAD PUSH3 0x461BCD PUSH1 0xE5 SHL DUP2 MSTORE PUSH1 0x20 PUSH1 0x4 DUP3 ADD MSTORE PUSH1 0x24 DUP1 DUP3 ADD MSTORE PUSH32 0x496E73756666696369656E74205354415420746F206372656174652070726F70 PUSH1 0x44 DUP3 ADD MSTORE PUSH4 0x1BDCD85B PUSH1 0xE2 SHL PUSH1 0x64 DUP3 ADD MSTORE PUSH1 0x84 SWAP1 REVERT JUMPDEST POP PUSH1 0x20 DUP2 RETURNDATASIZE PUSH1 0x20 GT PUSH2 0xF56 JUMPI JUMPDEST DUP2 PUSH2 0xF45 PUSH1 0x20 SWAP4 DUP4 PUSH2 0x14C4 JUMP JUMPDEST DUP2 ADD SUB SLT PUSH2 0x51C JUMPI PUSH1 0x32 SWAP1 MLOAD PUSH2 0x975 JUMP JUMPDEST RETURNDATASIZE SWAP2 POP PUSH2 0xF38 JUMP JUMPDEST PUSH1 0x40 MLOAD PUSH3 0x461BCD PUSH1 0xE5 SHL DUP2 MSTORE PUSH1 0x20 PUSH1 0x4 DUP3 ADD MSTORE PUSH1 0x19 PUSH1 0x24 DUP3 ADD MSTORE PUSH32 0x4475726174696F6E206D75737420626520706F73697469766500000000000000 PUSH1 0x44 DUP3 ADD MSTORE PUSH1 0x64 SWAP1 REVERT JUMPDEST PUSH1 0x40 MLOAD PUSH3 0x461BCD PUSH1 0xE5 SHL DUP2 MSTORE PUSH1 0x20 PUSH1 0x4 DUP3 ADD MSTORE PUSH1 0x1B PUSH1 0x24 DUP3 ADD MSTORE PUSH32 0x4465736372697074696F6E2063616E6E6F7420626520656D7074790000000000 PUSH1 0x44 DUP3 ADD MSTORE PUSH1 0x64 SWAP1 REVERT JUMPDEST PUSH1 0x40 MLOAD PUSH3 0x461BCD PUSH1 0xE5 SHL DUP2 MSTORE PUSH1 0x20 PUSH1 0x4 DUP3 ADD MSTORE PUSH1 0x15 PUSH1 0x24 DUP3 ADD MSTORE PUSH21 0x5469746C652063616E6E6F7420626520656D707479 PUSH1 0x58 SHL PUSH1 0x44 DUP3 ADD MSTORE PUSH1 0x64 SWAP1 REVERT JUMPDEST POP CALLVALUE PUSH2 0x121 JUMPI PUSH1 0x20 CALLDATASIZE PUSH1 0x3 NOT ADD SLT PUSH2 0x121 JUMPI PUSH2 0x65D PUSH2 0x1045 PUSH1 0x4 CALLDATALOAD PUSH2 0x1817 JUMP JUMPDEST PUSH1 0x40 MLOAD SWAP2 DUP3 SWAP2 PUSH1 0x20 DUP4 MSTORE PUSH1 0x20 DUP4 ADD SWAP1 PUSH2 0x15AE JUMP JUMPDEST POP CALLVALUE PUSH2 0x121 JUMPI PUSH1 0x40 CALLDATASIZE PUSH1 0x3 NOT ADD SLT PUSH2 0x121 JUMPI PUSH2 0x1073 PUSH2 0x1690 JUMP JUMPDEST PUSH1 0x1 PUSH1 0x1 PUSH1 0xA0 SHL SUB AND DUP2 MSTORE PUSH1 0x4 PUSH1 0x20 MSTORE PUSH1 0x40 DUP2 KECCAK256 DUP1 SLOAD PUSH1 0x24 CALLDATALOAD SWAP3 SWAP1 DUP4 LT ISZERO PUSH2 0x121 JUMPI PUSH1 0x20 PUSH2 0x7FE DUP5 DUP5 PUSH2 0x16A6 JUMP JUMPDEST POP CALLVALUE PUSH2 0x121 JUMPI DUP1 PUSH1 0x3 NOT CALLDATASIZE ADD SLT PUSH2 0x121 JUMPI PUSH1 0x20 PUSH1 0x2 SLOAD PUSH1 0x40 MLOAD SWAP1 DUP2 MSTORE RETURN JUMPDEST POP CALLVALUE PUSH2 0x121 JUMPI DUP1 PUSH1 0x3 NOT CALLDATASIZE ADD SLT PUSH2 0x121 JUMPI PUSH1 0x20 PUSH1 0x40 MLOAD PUSH1 0xA DUP2 MSTORE RETURN JUMPDEST POP CALLVALUE PUSH2 0x121 JUMPI PUSH1 0x20 CALLDATASIZE PUSH1 0x3 NOT ADD SLT PUSH2 0x121 JUMPI PUSH1 0x4 CALLDATALOAD DUP1 DUP3 MSTORE PUSH1 0x3 PUSH1 0x20 MSTORE PUSH1 0x40 DUP3 KECCAK256 PUSH1 0x2 SLOAD DUP3 GT ISZERO DUP1 PUSH2 0x133B JUMPI JUMPDEST PUSH2 0x1111 SWAP1 PUSH2 0x1773 JUMP JUMPDEST PUSH1 0x4 DUP2 ADD DUP1 SLOAD SWAP2 PUSH1 0xFF DUP4 PUSH1 0x8 SHR AND PUSH1 0x4 DUP2 LT ISZERO PUSH2 0x1327 JUMPI PUSH2 0x1132 SWAP1 ISZERO PUSH2 0x17B5 JUMP JUMPDEST PUSH1 0x8 DUP2 ADD SLOAD TIMESTAMP LT PUSH2 0x12E2 JUMPI PUSH1 0xA DUP2 ADD DUP1 SLOAD PUSH1 0xFF DUP2 AND PUSH2 0x129D JUMPI PUSH1 0xFF NOT AND PUSH1 0x1 OR SWAP1 SSTORE PUSH1 0x5 DUP2 ADD SLOAD PUSH1 0x6 SWAP2 SWAP1 SWAP2 ADD SLOAD LT SWAP2 DUP3 ISZERO PUSH2 0x1268 JUMPI POP DUP1 SLOAD PUSH2 0xFF00 NOT AND PUSH2 0x100 OR SWAP1 DUP2 SWAP1 SSTORE DUP4 SLOAD PUSH1 0x1 PUSH1 0x1 PUSH1 0xA0 SHL SUB SWAP1 DUP2 AND SWAP2 DUP6 SWAP2 SWAP1 DUP4 EXTCODESIZE ISZERO PUSH2 0xC55 JUMPI PUSH1 0xA4 SWAP1 DUP4 PUSH1 0x40 MLOAD SWAP6 DUP7 SWAP5 DUP6 SWAP4 PUSH4 0x34FF2619 PUSH1 0xE2 SHL DUP6 MSTORE PUSH1 0x10 SHR AND PUSH1 0x4 DUP5 ADD MSTORE PUSH1 0x64 PUSH1 0x24 DUP5 ADD MSTORE PUSH1 0x60 PUSH1 0x44 DUP5 ADD MSTORE PUSH1 0x19 PUSH1 0x64 DUP5 ADD MSTORE PUSH32 0x5375636365737366756C2050726F706F73616C20426F6E757300000000000000 PUSH1 0x84 DUP5 ADD MSTORE GAS CALL DUP1 ISZERO PUSH2 0x125D JUMPI PUSH2 0x1227 JUMPI JUMPDEST POP PUSH1 0x20 PUSH32 0x948F4A9CD986F1118C3FBD459F7A22B23C0693E1CA3EF06A6A8BE5AA7D39CC03 SWAP2 JUMPDEST PUSH1 0x40 MLOAD SWAP1 DUP2 MSTORE LOG2 DUP1 RETURN JUMPDEST PUSH32 0x948F4A9CD986F1118C3FBD459F7A22B23C0693E1CA3EF06A6A8BE5AA7D39CC03 SWAP2 SWAP4 PUSH2 0x1255 PUSH1 0x20 SWAP3 PUSH2 0x147E JUMP JUMPDEST SWAP4 SWAP2 POP PUSH2 0x11F7 JUMP JUMPDEST PUSH1 0x40 MLOAD RETURNDATASIZE DUP7 DUP3 RETURNDATACOPY RETURNDATASIZE SWAP1 REVERT JUMPDEST PUSH2 0xFF00 NOT AND PUSH2 0x200 OR SWAP1 SSTORE PUSH32 0x948F4A9CD986F1118C3FBD459F7A22B23C0693E1CA3EF06A6A8BE5AA7D39CC03 SWAP1 PUSH1 0x20 SWAP1 PUSH2 0x121D JUMP JUMPDEST PUSH1 0x40 MLOAD PUSH3 0x461BCD PUSH1 0xE5 SHL DUP2 MSTORE PUSH1 0x20 PUSH1 0x4 DUP3 ADD MSTORE PUSH1 0x19 PUSH1 0x24 DUP3 ADD MSTORE PUSH32 0x50726F706F73616C20616C726561647920657865637574656400000000000000 PUSH1 0x44 DUP3 ADD MSTORE PUSH1 0x64 SWAP1 REVERT JUMPDEST PUSH1 0x40 MLOAD PUSH3 0x461BCD PUSH1 0xE5 SHL DUP2 MSTORE PUSH1 0x20 PUSH1 0x4 DUP3 ADD MSTORE PUSH1 0x17 PUSH1 0x24 DUP3 ADD MSTORE PUSH32 0x566F74696E6720706572696F64206E6F7420656E646564000000000000000000 PUSH1 0x44 DUP3 ADD MSTORE PUSH1 0x64 SWAP1 REVERT JUMPDEST PUSH4 0x4E487B71 PUSH1 0xE0 SHL DUP7 MSTORE PUSH1 0x21 PUSH1 0x4 MSTORE PUSH1 0x24 DUP7 REVERT JUMPDEST POP DUP2 ISZERO ISZERO PUSH2 0x1108 JUMP JUMPDEST POP CALLVALUE PUSH2 0x121 JUMPI PUSH1 0x40 CALLDATASIZE PUSH1 0x3 NOT ADD SLT PUSH2 0x121 JUMPI PUSH1 0x24 CALLDATALOAD PUSH1 0x1 PUSH1 0x1 PUSH1 0xA0 SHL SUB DUP2 AND SWAP1 DUP2 SWAP1 SUB PUSH2 0x7B2 JUMPI PUSH1 0xFF PUSH1 0x40 DUP1 SWAP4 PUSH1 0x4 CALLDATALOAD DUP2 MSTORE PUSH1 0x3 PUSH1 0x20 MSTORE DUP2 DUP2 KECCAK256 SWAP4 DUP2 MSTORE PUSH1 0xB DUP5 ADD PUSH1 0x20 MSTORE PUSH1 0xC DUP4 DUP4 DUP4 KECCAK256 SLOAD AND SWAP5 ADD PUSH1 0x20 MSTORE KECCAK256 SLOAD AND DUP3 MLOAD SWAP2 ISZERO ISZERO DUP3 MSTORE ISZERO ISZERO PUSH1 0x20 DUP3 ADD MSTORE RETURN JUMPDEST POP CALLVALUE PUSH2 0x121 JUMPI PUSH1 0x20 CALLDATASIZE PUSH1 0x3 NOT ADD SLT PUSH2 0x121 JUMPI PUSH1 0x40 SWAP1 PUSH1 0x4 CALLDATALOAD DUP2 MSTORE PUSH1 0x3 PUSH1 0x20 MSTORE KECCAK256 DUP1 SLOAD SWAP1 PUSH2 0x65D PUSH2 0x13DA PUSH1 0x1 DUP4 ADD PUSH2 0x14E6 JUMP JUMPDEST PUSH2 0x13E6 PUSH1 0x2 DUP5 ADD PUSH2 0x14E6 JUMP JUMPDEST SWAP3 PUSH2 0x13F3 PUSH1 0x3 DUP3 ADD PUSH2 0x14E6 JUMP JUMPDEST SWAP5 PUSH1 0x4 DUP3 ADD SLOAD SWAP1 PUSH1 0x5 DUP4 ADD SLOAD PUSH1 0x6 DUP5 ADD SLOAD SWAP1 PUSH1 0x7 DUP6 ADD SLOAD SWAP3 PUSH1 0x8 DUP7 ADD SLOAD SWAP5 PUSH1 0xFF PUSH1 0xA PUSH1 0x9 DUP10 ADD SLOAD SWAP9 ADD SLOAD AND SWAP8 PUSH1 0x40 MLOAD SWAP12 DUP13 SWAP12 DUP13 SWAP3 PUSH1 0x1 DUP1 PUSH1 0xA0 SHL SUB DUP6 PUSH1 0x10 SHR AND SWAP6 PUSH1 0xFF DUP1 DUP8 PUSH1 0x8 SHR AND SWAP7 AND SWAP5 PUSH2 0x15F6 JUMP JUMPDEST SWAP1 PUSH1 0x1 DUP3 DUP2 SHR SWAP3 AND DUP1 ISZERO PUSH2 0x1474 JUMPI JUMPDEST PUSH1 0x20 DUP4 LT EQ PUSH2 0x145E JUMPI JUMP JUMPDEST PUSH4 0x4E487B71 PUSH1 0xE0 SHL PUSH1 0x0 MSTORE PUSH1 0x22 PUSH1 0x4 MSTORE PUSH1 0x24 PUSH1 0x0 REVERT JUMPDEST SWAP2 PUSH1 0x7F AND SWAP2 PUSH2 0x1453 JUMP JUMPDEST PUSH8 0xFFFFFFFFFFFFFFFF DUP2 GT PUSH2 0x1492 JUMPI PUSH1 0x40 MSTORE JUMP JUMPDEST PUSH4 0x4E487B71 PUSH1 0xE0 SHL PUSH1 0x0 MSTORE PUSH1 0x41 PUSH1 0x4 MSTORE PUSH1 0x24 PUSH1 0x0 REVERT JUMPDEST PUSH1 0x40 DUP2 ADD SWAP1 DUP2 LT PUSH8 0xFFFFFFFFFFFFFFFF DUP3 GT OR PUSH2 0x1492 JUMPI PUSH1 0x40 MSTORE JUMP JUMPDEST SWAP1 PUSH1 0x1F DUP1 NOT SWAP2 ADD AND DUP2 ADD SWAP1 DUP2 LT PUSH8 0xFFFFFFFFFFFFFFFF DUP3 GT OR PUSH2 0x1492 JUMPI PUSH1 0x40 MSTORE JUMP JUMPDEST SWAP1 PUSH1 0x40 MLOAD SWAP2 DUP3 PUSH1 0x0 DUP3 SLOAD PUSH2 0x14F9 DUP2 PUSH2 0x1444 JUMP JUMPDEST SWAP1 DUP2 DUP5 MSTORE PUSH1 0x20 SWAP5 PUSH1 0x1 SWAP2 PUSH1 0x1 DUP2 AND SWAP1 DUP2 PUSH1 0x0 EQ PUSH2 0x1569 JUMPI POP PUSH1 0x1 EQ PUSH2 0x152A JUMPI JUMPDEST POP POP POP PUSH2 0x1528 SWAP3 POP SUB DUP4 PUSH2 0x14C4 JUMP JUMPDEST JUMP JUMPDEST PUSH1 0x0 SWAP1 DUP2 MSTORE DUP6 DUP2 KECCAK256 SWAP6 SWAP4 POP SWAP2 SWAP1 JUMPDEST DUP2 DUP4 LT PUSH2 0x1551 JUMPI POP POP PUSH2 0x1528 SWAP4 POP DUP3 ADD ADD CODESIZE DUP1 DUP1 PUSH2 0x1519 JUMP JUMPDEST DUP6 SLOAD DUP9 DUP5 ADD DUP6 ADD MSTORE SWAP5 DUP6 ADD SWAP5 DUP8 SWAP5 POP SWAP2 DUP4 ADD SWAP2 PUSH2 0x1538 JUMP JUMPDEST SWAP3 POP POP POP PUSH2 0x1528 SWAP5 SWAP3 POP PUSH1 0xFF NOT AND DUP3 DUP5 ADD MSTORE ISZERO ISZERO PUSH1 0x5 SHL DUP3 ADD ADD CODESIZE DUP1 DUP1 PUSH2 0x1519 JUMP JUMPDEST PUSH1 0x0 JUMPDEST DUP4 DUP2 LT PUSH2 0x159E JUMPI POP POP PUSH1 0x0 SWAP2 ADD MSTORE JUMP JUMPDEST DUP2 DUP2 ADD MLOAD DUP4 DUP3 ADD MSTORE PUSH1 0x20 ADD PUSH2 0x158E JUMP JUMPDEST SWAP1 PUSH1 0x20 SWAP2 PUSH2 0x15C7 DUP2 MLOAD DUP1 SWAP3 DUP2 DUP6 MSTORE DUP6 DUP1 DUP7 ADD SWAP2 ADD PUSH2 0x158B JUMP JUMPDEST PUSH1 0x1F ADD PUSH1 0x1F NOT AND ADD ADD SWAP1 JUMP JUMPDEST SWAP1 PUSH1 0x3 DUP3 LT ISZERO PUSH2 0x15E0 JUMPI MSTORE JUMP JUMPDEST PUSH4 0x4E487B71 PUSH1 0xE0 SHL PUSH1 0x0 MSTORE PUSH1 0x21 PUSH1 0x4 MSTORE PUSH1 0x24 PUSH1 0x0 REVERT JUMPDEST SWAP12 SWAP9 SWAP6 SWAP11 SWAP8 SWAP5 SWAP14 SWAP13 SWAP10 SWAP7 SWAP4 SWAP1 DUP13 PUSH2 0x164D SWAP5 PUSH2 0x1626 PUSH2 0x1642 SWAP6 PUSH2 0x1634 SWAP5 PUSH2 0x1A0 SWAP1 DUP6 MSTORE DUP1 PUSH1 0x20 DUP7 ADD MSTORE DUP5 ADD SWAP1 PUSH2 0x15AE JUMP JUMPDEST SWAP2 PUSH1 0x40 DUP2 DUP5 SUB SWAP2 ADD MSTORE PUSH2 0x15AE JUMP JUMPDEST DUP13 DUP2 SUB PUSH1 0x60 DUP15 ADD MSTORE SWAP1 PUSH2 0x15AE JUMP JUMPDEST SWAP12 PUSH1 0x80 DUP12 ADD SWAP1 PUSH2 0x15D3 JUMP JUMPDEST PUSH1 0x4 DUP9 LT ISZERO PUSH2 0x15E0 JUMPI PUSH2 0x180 SWAP8 PUSH1 0xA0 DUP11 ADD MSTORE PUSH1 0x1 DUP1 PUSH1 0xA0 SHL SUB AND PUSH1 0xC0 DUP10 ADD MSTORE PUSH1 0xE0 DUP9 ADD MSTORE PUSH2 0x100 DUP8 ADD MSTORE PUSH2 0x120 DUP7 ADD MSTORE PUSH2 0x140 DUP6 ADD MSTORE PUSH2 0x160 DUP5 ADD MSTORE ISZERO ISZERO SWAP2 ADD MSTORE JUMP JUMPDEST PUSH1 0x4 CALLDATALOAD SWAP1 PUSH1 0x1 PUSH1 0x1 PUSH1 0xA0 SHL SUB DUP3 AND DUP3 SUB PUSH2 0x51C JUMPI JUMP JUMPDEST DUP1 SLOAD DUP3 LT ISZERO PUSH2 0x16BE JUMPI PUSH1 0x0 MSTORE PUSH1 0x20 PUSH1 0x0 KECCAK256 ADD SWAP1 PUSH1 0x0 SWAP1 JUMP JUMPDEST PUSH4 0x4E487B71 PUSH1 0xE0 SHL PUSH1 0x0 MSTORE PUSH1 0x32 PUSH1 0x4 MSTORE PUSH1 0x24 PUSH1 0x0 REVERT JUMPDEST PUSH8 0xFFFFFFFFFFFFFFFF DUP2 GT PUSH2 0x1492 JUMPI PUSH1 0x1F ADD PUSH1 0x1F NOT AND PUSH1 0x20 ADD SWAP1 JUMP JUMPDEST DUP2 PUSH1 0x1F DUP3 ADD SLT ISZERO PUSH2 0x51C JUMPI DUP1 CALLDATALOAD SWAP1 PUSH2 0x1707 DUP3 PUSH2 0x16D4 JUMP JUMPDEST SWAP3 PUSH2 0x1715 PUSH1 0x40 MLOAD SWAP5 DUP6 PUSH2 0x14C4 JUMP JUMPDEST DUP3 DUP5 MSTORE PUSH1 0x20 DUP4 DUP4 ADD ADD GT PUSH2 0x51C JUMPI DUP2 PUSH1 0x0 SWAP3 PUSH1 0x20 DUP1 SWAP4 ADD DUP4 DUP7 ADD CALLDATACOPY DUP4 ADD ADD MSTORE SWAP1 JUMP JUMPDEST PUSH1 0x20 SWAP1 PUSH1 0x20 PUSH1 0x40 DUP2 DUP4 ADD SWAP3 DUP3 DUP2 MSTORE DUP6 MLOAD DUP1 SWAP5 MSTORE ADD SWAP4 ADD SWAP2 PUSH1 0x0 JUMPDEST DUP3 DUP2 LT PUSH2 0x175F JUMPI POP POP POP POP SWAP1 JUMP JUMPDEST DUP4 MLOAD DUP6 MSTORE SWAP4 DUP2 ADD SWAP4 SWAP3 DUP2 ADD SWAP3 PUSH1 0x1 ADD PUSH2 0x1751 JUMP JUMPDEST ISZERO PUSH2 0x177A JUMPI JUMP JUMPDEST PUSH1 0x40 MLOAD PUSH3 0x461BCD PUSH1 0xE5 SHL DUP2 MSTORE PUSH1 0x20 PUSH1 0x4 DUP3 ADD MSTORE PUSH1 0x13 PUSH1 0x24 DUP3 ADD MSTORE PUSH19 0x125B9D985B1A59081C1C9BDC1BDCD85B081251 PUSH1 0x6A SHL PUSH1 0x44 DUP3 ADD MSTORE PUSH1 0x64 SWAP1 REVERT JUMPDEST ISZERO PUSH2 0x17BC JUMPI JUMP JUMPDEST PUSH1 0x40 MLOAD PUSH3 0x461BCD PUSH1 0xE5 SHL DUP2 MSTORE PUSH1 0x20 PUSH1 0x4 DUP3 ADD MSTORE PUSH1 0x13 PUSH1 0x24 DUP3 ADD MSTORE PUSH19 0x50726F706F73616C206E6F7420616374697665 PUSH1 0x68 SHL PUSH1 0x44 DUP3 ADD MSTORE PUSH1 0x64 SWAP1 REVERT JUMPDEST DUP2 ISZERO PUSH2 0x1801 JUMPI DIV SWAP1 JUMP JUMPDEST PUSH4 0x4E487B71 PUSH1 0xE0 SHL PUSH1 0x0 MSTORE PUSH1 0x12 PUSH1 0x4 MSTORE PUSH1 0x24 PUSH1 0x0 REVERT JUMPDEST PUSH1 0x0 SWAP1 DUP2 MSTORE PUSH1 0x20 SWAP1 PUSH1 0x3 DUP3 MSTORE PUSH1 0x40 DUP2 KECCAK256 SWAP1 PUSH1 0x7 DUP3 ADD SLOAD DUP1 ISZERO PUSH2 0x1988 JUMPI PUSH1 0x5 DUP4 ADD SLOAD SWAP1 PUSH1 0x64 DUP3 MUL DUP3 DUP2 DIV PUSH1 0x64 EQ DUP4 ISZERO OR ISZERO PUSH2 0x1974 JUMPI PUSH2 0x1857 DUP3 PUSH1 0x6 SWAP3 PUSH2 0x17F7 JUMP JUMPDEST SWAP5 ADD SLOAD SWAP3 PUSH1 0x64 DUP5 MUL SWAP1 DUP5 DUP3 DIV PUSH1 0x64 EQ DUP6 ISZERO OR ISZERO PUSH2 0x1960 JUMPI POP SWAP1 PUSH2 0x1879 SWAP2 PUSH2 0x17F7 JUMP JUMPDEST SWAP2 DUP1 DUP3 GT ISZERO PUSH2 0x18DF JUMPI POP POP POP PUSH1 0x2E PUSH2 0x18BD SWAP3 PUSH2 0x1897 PUSH2 0x18DC SWAP4 PUSH2 0x1A1F JUMP JUMPDEST PUSH1 0x40 MLOAD SWAP5 DUP3 PUSH8 0xA082A6A68A88405 PUSH1 0xC3 SHL DUP8 SWAP5 DUP6 ADD MSTORE DUP3 MLOAD SWAP3 DUP4 SWAP2 PUSH1 0x28 DUP7 ADD SWAP2 ADD PUSH2 0x158B JUMP JUMPDEST DUP2 ADD PUSH6 0x252059455329 PUSH1 0xD0 SHL PUSH1 0x28 DUP3 ADD MSTORE SUB PUSH1 0xE DUP2 ADD DUP5 MSTORE ADD DUP3 PUSH2 0x14C4 JUMP JUMPDEST SWAP1 JUMP JUMPDEST SWAP2 SWAP3 POP LT ISZERO PUSH2 0x1940 JUMPI PUSH1 0x2F PUSH2 0x1922 SWAP3 PUSH2 0x18FA PUSH2 0x18DC SWAP4 PUSH2 0x1A1F JUMP JUMPDEST PUSH1 0x40 MLOAD SWAP5 DUP3 PUSH10 0xA48A948A86A88A88405 PUSH1 0xB3 SHL DUP8 SWAP5 DUP6 ADD MSTORE DUP3 MLOAD SWAP3 DUP4 SWAP2 PUSH1 0x2A DUP7 ADD SWAP2 ADD PUSH2 0x158B JUMP JUMPDEST DUP2 ADD PUSH5 0x25204E4F29 PUSH1 0xD8 SHL PUSH1 0x2A DUP3 ADD MSTORE SUB PUSH1 0xF DUP2 ADD DUP5 MSTORE ADD DUP3 PUSH2 0x14C4 JUMP JUMPDEST POP PUSH4 0x15125151 PUSH1 0xE2 SHL PUSH1 0x40 MLOAD SWAP2 PUSH2 0x1956 DUP4 PUSH2 0x14A8 JUMP JUMPDEST PUSH1 0x4 DUP4 MSTORE DUP3 ADD MSTORE SWAP1 JUMP JUMPDEST PUSH4 0x4E487B71 PUSH1 0xE0 SHL DUP2 MSTORE PUSH1 0x11 PUSH1 0x4 MSTORE PUSH1 0x24 SWAP1 REVERT JUMPDEST PUSH4 0x4E487B71 PUSH1 0xE0 SHL DUP5 MSTORE PUSH1 0x11 PUSH1 0x4 MSTORE PUSH1 0x24 DUP5 REVERT JUMPDEST POP POP POP PUSH13 0x139BC81D9BDD195CC818D85CDD PUSH1 0x9A SHL PUSH1 0x40 MLOAD SWAP2 PUSH2 0x19A9 DUP4 PUSH2 0x14A8 JUMP JUMPDEST PUSH1 0xD DUP4 MSTORE DUP3 ADD MSTORE SWAP1 JUMP JUMPDEST PUSH1 0x0 NOT DUP2 EQ PUSH2 0x19C2 JUMPI PUSH1 0x1 ADD SWAP1 JUMP JUMPDEST PUSH4 0x4E487B71 PUSH1 0xE0 SHL PUSH1 0x0 MSTORE PUSH1 0x11 PUSH1 0x4 MSTORE PUSH1 0x24 PUSH1 0x0 REVERT JUMPDEST SWAP2 SWAP1 DUP3 ADD DUP1 SWAP3 GT PUSH2 0x19C2 JUMPI JUMP JUMPDEST DUP1 SLOAD PUSH9 0x10000000000000000 DUP2 LT ISZERO PUSH2 0x1492 JUMPI PUSH2 0x1A07 SWAP2 PUSH1 0x1 DUP3 ADD DUP2 SSTORE PUSH2 0x16A6 JUMP JUMPDEST DUP2 SWAP3 SWAP2 SLOAD SWAP1 PUSH1 0x3 SHL SWAP2 DUP3 SHL SWAP2 PUSH1 0x0 NOT SWAP1 SHL NOT AND OR SWAP1 SSTORE JUMP JUMPDEST DUP1 ISZERO PUSH2 0x1AC6 JUMPI PUSH1 0x0 DUP2 DUP1 JUMPDEST PUSH2 0x1AB2 JUMPI POP PUSH2 0x1A38 DUP2 PUSH2 0x16D4 JUMP JUMPDEST SWAP1 PUSH2 0x1A46 PUSH1 0x40 MLOAD SWAP3 DUP4 PUSH2 0x14C4 JUMP JUMPDEST DUP1 DUP3 MSTORE PUSH1 0x1F NOT PUSH2 0x1A55 DUP3 PUSH2 0x16D4 JUMP JUMPDEST ADD CALLDATASIZE PUSH1 0x20 DUP5 ADD CALLDATACOPY JUMPDEST DUP1 SWAP3 DUP1 ISZERO PUSH2 0x1AAB JUMPI PUSH1 0x0 NOT DUP3 ADD SWAP2 DUP3 GT PUSH2 0x19C2 JUMPI DUP2 SWAP4 PUSH1 0xA SWAP3 PUSH1 0x30 SWAP1 DUP5 DUP5 MOD DUP3 ADD DUP1 SWAP3 GT PUSH2 0x19C2 JUMPI DUP6 MLOAD GT ISZERO PUSH2 0x16BE JUMPI PUSH1 0xF8 SHL PUSH1 0x1 PUSH1 0x1 PUSH1 0xF8 SHL SUB NOT AND PUSH1 0x0 BYTE SWAP1 DUP5 ADD PUSH1 0x1F ADD MSTORE8 DIV SWAP2 PUSH2 0x1A5D JUMP JUMPDEST POP POP SWAP1 POP SWAP1 JUMP JUMPDEST SWAP1 PUSH2 0x1ABE PUSH1 0xA SWAP2 PUSH2 0x19B3 JUMP JUMPDEST SWAP2 DIV DUP1 PUSH2 0x1A2A JUMP JUMPDEST POP PUSH1 0x40 MLOAD PUSH2 0x1AD3 DUP2 PUSH2 0x14A8 JUMP JUMPDEST PUSH1 0x1 DUP2 MSTORE PUSH1 0x3 PUSH1 0xFC SHL PUSH1 0x20 DUP3 ADD MSTORE SWAP1 JUMP INVALID LOG2 PUSH5 0x6970667358 0x22 SLT KECCAK256 PC 0xED JUMPDEST 0x25 SHL 0xA9 SWAP6 AND SWAP1 0xEA 0xFC PUSH18 0x3A2B24F50B15FFDAF2BF908ED9100D14E13E BYTE PUSH27 0x64736F6C6343000818003360806040523462000345576200147A80 CODESIZE SUB DUP1 PUSH3 0x1D DUP2 PUSH3 0x34A JUMP JUMPDEST SWAP3 DUP4 CODECOPY DUP2 ADD SWAP1 PUSH1 0x40 DUP2 DUP4 SUB SLT PUSH3 0x345 JUMPI DUP1 MLOAD PUSH1 0x1 PUSH1 0x1 PUSH1 0x40 SHL SUB SWAP1 DUP2 DUP2 GT PUSH3 0x345 JUMPI DUP4 PUSH3 0x4F SWAP2 DUP5 ADD PUSH3 0x370 JUMP JUMPDEST SWAP2 PUSH1 0x20 SWAP4 DUP5 DUP3 ADD MLOAD DUP4 DUP2 GT PUSH3 0x345 JUMPI PUSH3 0x6B SWAP3 ADD PUSH3 0x370 JUMP JUMPDEST PUSH1 0x3 DUP1 SLOAD PUSH1 0x1 PUSH1 0x1 PUSH1 0xA0 SHL SUB NOT AND CALLER OR DUP2 SSTORE DUP4 MLOAD SWAP1 SWAP2 DUP4 DUP3 GT PUSH3 0x32F JUMPI PUSH1 0x4 SWAP6 DUP7 SLOAD SWAP3 PUSH1 0x1 SWAP7 DUP8 DUP6 DUP2 SHR SWAP6 AND DUP1 ISZERO PUSH3 0x324 JUMPI JUMPDEST DUP4 DUP7 LT EQ PUSH3 0x30F JUMPI DUP2 SWAP1 PUSH1 0x1F SWAP6 DUP7 DUP2 GT PUSH3 0x2B9 JUMPI JUMPDEST POP DUP4 SWAP1 DUP7 DUP4 GT PUSH1 0x1 EQ PUSH3 0x252 JUMPI PUSH1 0x0 SWAP3 PUSH3 0x246 JUMPI JUMPDEST POP POP PUSH1 0x0 NOT DUP3 DUP8 SHL SHR NOT AND SWAP1 DUP8 SHL OR DUP8 SSTORE JUMPDEST DUP2 MLOAD SWAP5 DUP6 GT PUSH3 0x231 JUMPI PUSH1 0x5 SWAP7 DUP8 SLOAD SWAP1 DUP8 DUP3 DUP2 SHR SWAP3 AND DUP1 ISZERO PUSH3 0x226 JUMPI JUMPDEST DUP4 DUP4 LT EQ PUSH3 0x211 JUMPI POP DUP4 DUP2 GT PUSH3 0x1C8 JUMPI JUMPDEST POP DUP1 SWAP3 DUP6 GT PUSH1 0x1 EQ PUSH3 0x15A JUMPI POP SWAP4 DUP4 SWAP5 SWAP2 DUP5 SWAP3 PUSH1 0x0 SWAP6 PUSH3 0x14E JUMPI JUMPDEST POP POP SHL SWAP3 PUSH1 0x0 NOT SWAP2 SHL SHR NOT AND OR SWAP1 SSTORE JUMPDEST PUSH1 0x40 MLOAD PUSH2 0x1097 SWAP1 DUP2 PUSH3 0x3E3 DUP3 CODECOPY RETURN JUMPDEST ADD MLOAD SWAP4 POP CODESIZE DUP1 PUSH3 0x12E JUMP JUMPDEST SWAP3 SWAP2 SWAP1 DUP5 PUSH1 0x1F NOT DUP2 AND DUP9 PUSH1 0x0 MSTORE DUP6 PUSH1 0x0 KECCAK256 SWAP6 PUSH1 0x0 SWAP1 JUMPDEST DUP10 DUP4 DUP4 LT PUSH3 0x1AD JUMPI POP POP POP LT PUSH3 0x192 JUMPI JUMPDEST POP POP POP POP DUP2 SHL ADD SWAP1 SSTORE PUSH3 0x13E JUMP JUMPDEST ADD MLOAD SWAP1 PUSH1 0xF8 DUP5 PUSH1 0x0 NOT SWAP3 SHL AND SHR NOT AND SWAP1 SSTORE CODESIZE DUP1 DUP1 DUP1 PUSH3 0x183 JUMP JUMPDEST DUP6 DUP8 ADD MLOAD DUP10 SSTORE SWAP1 SWAP8 ADD SWAP7 SWAP5 DUP6 ADD SWAP5 DUP9 SWAP4 POP SWAP1 DUP2 ADD SWAP1 PUSH3 0x170 JUMP JUMPDEST DUP8 PUSH1 0x0 MSTORE DUP2 PUSH1 0x0 KECCAK256 DUP5 DUP1 DUP9 ADD DUP11 SHR DUP3 ADD SWAP3 DUP5 DUP10 LT PUSH3 0x207 JUMPI JUMPDEST ADD DUP10 SHR ADD SWAP1 DUP8 SWAP1 JUMPDEST DUP3 DUP2 LT PUSH3 0x1FA JUMPI POP POP PUSH3 0x111 JUMP JUMPDEST PUSH1 0x0 DUP2 SSTORE ADD DUP8 SWAP1 PUSH3 0x1EA JUMP JUMPDEST SWAP3 POP DUP2 SWAP3 PUSH3 0x1E2 JUMP JUMPDEST PUSH1 0x22 SWAP1 PUSH4 0x4E487B71 PUSH1 0xE0 SHL PUSH1 0x0 MSTORE MSTORE PUSH1 0x24 PUSH1 0x0 REVERT JUMPDEST SWAP2 PUSH1 0x7F AND SWAP2 PUSH3 0xFE JUMP JUMPDEST PUSH1 0x41 DUP8 PUSH4 0x4E487B71 PUSH1 0xE0 SHL PUSH1 0x0 MSTORE MSTORE PUSH1 0x24 PUSH1 0x0 REVERT JUMPDEST ADD MLOAD SWAP1 POP CODESIZE DUP1 PUSH3 0xCE JUMP JUMPDEST SWAP1 DUP10 SWAP4 POP PUSH1 0x1F NOT DUP4 AND SWAP2 DUP12 PUSH1 0x0 MSTORE DUP6 PUSH1 0x0 KECCAK256 SWAP3 PUSH1 0x0 JUMPDEST DUP8 DUP3 DUP3 LT PUSH3 0x2A2 JUMPI POP POP DUP5 GT PUSH3 0x289 JUMPI JUMPDEST POP POP POP DUP2 SHL ADD DUP8 SSTORE PUSH3 0xE0 JUMP JUMPDEST ADD MLOAD PUSH1 0x0 NOT DUP4 DUP10 SHL PUSH1 0xF8 AND SHR NOT AND SWAP1 SSTORE CODESIZE DUP1 DUP1 PUSH3 0x27B JUMP JUMPDEST DUP4 DUP6 ADD MLOAD DUP7 SSTORE DUP14 SWAP8 SWAP1 SWAP6 ADD SWAP5 SWAP4 DUP5 ADD SWAP4 ADD PUSH3 0x268 JUMP JUMPDEST SWAP1 SWAP2 POP DUP10 PUSH1 0x0 MSTORE DUP4 PUSH1 0x0 KECCAK256 DUP7 DUP1 DUP6 ADD PUSH1 0x5 SHR DUP3 ADD SWAP3 DUP7 DUP7 LT PUSH3 0x305 JUMPI JUMPDEST SWAP2 DUP12 SWAP2 DUP7 SWAP6 SWAP5 SWAP4 ADD PUSH1 0x5 SHR ADD SWAP2 JUMPDEST DUP3 DUP2 LT PUSH3 0x2F5 JUMPI POP POP PUSH3 0xB7 JUMP JUMPDEST PUSH1 0x0 DUP2 SSTORE DUP6 SWAP5 POP DUP12 SWAP2 ADD PUSH3 0x2E5 JUMP JUMPDEST SWAP3 POP DUP2 SWAP3 PUSH3 0x2D7 JUMP JUMPDEST PUSH1 0x22 DUP10 PUSH4 0x4E487B71 PUSH1 0xE0 SHL PUSH1 0x0 MSTORE MSTORE PUSH1 0x24 PUSH1 0x0 REVERT JUMPDEST SWAP5 PUSH1 0x7F AND SWAP5 PUSH3 0xA0 JUMP JUMPDEST PUSH4 0x4E487B71 PUSH1 0xE0 SHL PUSH1 0x0 MSTORE PUSH1 0x41 PUSH1 0x4 MSTORE PUSH1 0x24 PUSH1 0x0 REVERT JUMPDEST PUSH1 0x0 DUP1 REVERT JUMPDEST PUSH1 0x40 MLOAD SWAP2 SWAP1 PUSH1 0x1F ADD PUSH1 0x1F NOT AND DUP3 ADD PUSH1 0x1 PUSH1 0x1 PUSH1 0x40 SHL SUB DUP2 GT DUP4 DUP3 LT OR PUSH3 0x32F JUMPI PUSH1 0x40 MSTORE JUMP JUMPDEST SWAP2 SWAP1 DUP1 PUSH1 0x1F DUP5 ADD SLT ISZERO PUSH3 0x345 JUMPI DUP3 MLOAD PUSH1 0x1 PUSH1 0x1 PUSH1 0x40 SHL SUB DUP2 GT PUSH3 0x32F JUMPI PUSH1 0x20 SWAP1 PUSH3 0x3A6 PUSH1 0x1F DUP3 ADD PUSH1 0x1F NOT AND DUP4 ADD PUSH3 0x34A JUMP JUMPDEST SWAP3 DUP2 DUP5 MSTORE DUP3 DUP3 DUP8 ADD ADD GT PUSH3 0x345 JUMPI PUSH1 0x0 JUMPDEST DUP2 DUP2 LT PUSH3 0x3CE JUMPI POP DUP3 PUSH1 0x0 SWAP4 SWAP5 SWAP6 POP ADD ADD MSTORE SWAP1 JUMP JUMPDEST DUP6 DUP2 ADD DUP4 ADD MLOAD DUP5 DUP3 ADD DUP5 ADD MSTORE DUP3 ADD PUSH3 0x3B8 JUMP INVALID PUSH1 0x40 PUSH1 0x80 DUP2 MSTORE PUSH1 0x4 SWAP1 DUP2 CALLDATASIZE LT ISZERO PUSH2 0x15 JUMPI PUSH1 0x0 DUP1 REVERT JUMPDEST PUSH1 0x0 SWAP2 DUP3 CALLDATALOAD PUSH1 0xE0 SHR DUP1 PUSH4 0x80C98DA EQ PUSH2 0xD16 JUMPI DUP1 PUSH4 0x36B6E82B EQ PUSH2 0xC3B JUMPI DUP1 PUSH4 0x51858E27 EQ PUSH2 0xC12 JUMPI DUP1 PUSH4 0x69839B66 EQ PUSH2 0xBF7 JUMPI DUP1 PUSH4 0x7AE922BE EQ PUSH2 0x917 JUMPI DUP1 PUSH4 0x7BE700BA EQ PUSH2 0x480 JUMPI DUP1 PUSH4 0x7FC9592D EQ PUSH2 0x30C JUMPI DUP1 PUSH4 0x80AFDEA8 EQ PUSH2 0x21D JUMPI DUP1 PUSH4 0xAAD24061 EQ PUSH2 0x1F1 JUMPI DUP1 PUSH4 0xB9209E33 EQ PUSH2 0x1B3 JUMPI DUP1 PUSH4 0xE35FE366 EQ PUSH2 0x1B3 JUMPI DUP1 PUSH4 0xF851A440 EQ PUSH2 0x186 JUMPI PUSH4 0xF883E478 EQ PUSH2 0xB0 JUMPI PUSH1 0x0 DUP1 REVERT JUMPDEST CALLVALUE PUSH2 0x182 JUMPI DUP2 PUSH1 0x3 NOT CALLDATASIZE ADD SLT PUSH2 0x182 JUMPI PUSH2 0xC8 PUSH2 0xD96 JUMP JUMPDEST SWAP1 PUSH1 0x24 CALLDATALOAD SWAP2 PUSH8 0xFFFFFFFFFFFFFFFF DUP4 GT PUSH2 0x17E JUMPI PUSH2 0x10D PUSH2 0x178 SWAP3 PUSH32 0x3B56C041A4C2E60799EDF637B19F958011D99C582CE76AF1D7DE3B1C73436F85 SWAP5 CALLDATASIZE SWAP2 ADD PUSH2 0xF5D JUMP JUMPDEST PUSH1 0x3 SLOAD SWAP1 SWAP2 PUSH1 0x1 PUSH1 0x1 PUSH1 0xA0 SHL SUB SWAP2 PUSH2 0x128 SWAP1 DUP4 AND CALLER EQ PUSH2 0xFB4 JUMP JUMPDEST AND SWAP4 DUP5 DUP7 MSTORE PUSH1 0x2 PUSH1 0x20 MSTORE PUSH2 0x141 PUSH1 0xFF DUP3 DUP9 KECCAK256 SLOAD AND PUSH2 0x1021 JUMP JUMPDEST DUP5 DUP7 MSTORE DUP6 PUSH1 0x20 MSTORE PUSH1 0xC DUP2 DUP8 KECCAK256 ADD PUSH1 0xFF NOT SWAP1 DUP2 DUP2 SLOAD AND SWAP1 SSTORE PUSH1 0x2 PUSH1 0x20 MSTORE DUP2 DUP8 KECCAK256 SWAP1 DUP2 SLOAD AND SWAP1 SSTORE MLOAD SWAP2 DUP3 SWAP2 PUSH1 0x20 DUP4 MSTORE PUSH1 0x20 DUP4 ADD SWAP1 PUSH2 0xF1D JUMP JUMPDEST SUB SWAP1 LOG2 DUP1 RETURN JUMPDEST DUP5 DUP1 REVERT JUMPDEST DUP3 DUP1 REVERT JUMPDEST POP POP CALLVALUE PUSH2 0x1AF JUMPI DUP2 PUSH1 0x3 NOT CALLDATASIZE ADD SLT PUSH2 0x1AF JUMPI PUSH1 0x3 SLOAD SWAP1 MLOAD PUSH1 0x1 PUSH1 0x1 PUSH1 0xA0 SHL SUB SWAP1 SWAP2 AND DUP2 MSTORE PUSH1 0x20 SWAP1 RETURN JUMPDEST POP DUP1 REVERT JUMPDEST POP POP CALLVALUE PUSH2 0x1AF JUMPI PUSH1 0x20 CALLDATASIZE PUSH1 0x3 NOT ADD SLT PUSH2 0x1AF JUMPI PUSH1 0x20 SWAP2 PUSH1 0xFF SWAP1 DUP3 SWAP1 PUSH1 0x1 PUSH1 0x1 PUSH1 0xA0 SHL SUB PUSH2 0x1DE PUSH2 0xD96 JUMP JUMPDEST AND DUP2 MSTORE PUSH1 0x2 DUP6 MSTORE KECCAK256 SLOAD AND SWAP1 MLOAD SWAP1 ISZERO ISZERO DUP2 MSTORE RETURN JUMPDEST POP CALLVALUE PUSH2 0x182 JUMPI PUSH1 0x20 CALLDATASIZE PUSH1 0x3 NOT ADD SLT PUSH2 0x182 JUMPI DUP2 PUSH1 0x20 SWAP4 PUSH1 0xFF SWAP3 CALLDATALOAD DUP2 MSTORE PUSH1 0x1 DUP6 MSTORE KECCAK256 SLOAD AND SWAP1 MLOAD SWAP1 ISZERO ISZERO DUP2 MSTORE RETURN JUMPDEST POP SWAP1 CALLVALUE PUSH2 0x182 JUMPI DUP3 PUSH1 0x3 NOT CALLDATASIZE ADD SLT PUSH2 0x182 JUMPI DUP1 MLOAD DUP4 DUP2 SWAP5 SWAP1 DUP5 SLOAD PUSH2 0x240 DUP2 PUSH2 0xDB1 JUMP JUMPDEST SWAP2 DUP3 DUP6 MSTORE PUSH1 0x20 SWAP7 PUSH1 0x1 SWAP3 DUP9 PUSH1 0x1 DUP3 AND SWAP2 DUP3 PUSH1 0x0 EQ PUSH2 0x2E2 JUMPI POP POP PUSH1 0x1 EQ PUSH2 0x287 JUMPI JUMPDEST DUP6 DUP9 PUSH2 0x283 DUP10 PUSH2 0x274 DUP5 DUP11 SUB DUP6 PUSH2 0xE56 JUMP JUMPDEST MLOAD SWAP3 DUP3 DUP5 SWAP4 DUP5 MSTORE DUP4 ADD SWAP1 PUSH2 0xF1D JUMP JUMPDEST SUB SWAP1 RETURN JUMPDEST DUP2 MSTORE DUP7 SWAP4 POP SWAP2 SWAP1 PUSH32 0x8A35ACFBC15FF81A39AE7D344FD709F28E8600B4AA8C65C6B64BFE7FE36BD19B JUMPDEST DUP3 DUP5 LT PUSH2 0x2CA JUMPI POP POP POP DUP3 ADD ADD DUP2 PUSH2 0x274 PUSH2 0x283 CODESIZE PUSH2 0x262 JUMP JUMPDEST DUP1 SLOAD DUP5 DUP11 ADD DUP7 ADD MSTORE DUP9 SWAP6 POP DUP8 SWAP5 SWAP1 SWAP4 ADD SWAP3 DUP2 ADD PUSH2 0x2B0 JUMP JUMPDEST PUSH1 0xFF NOT AND DUP9 DUP3 ADD MSTORE SWAP5 ISZERO ISZERO PUSH1 0x5 SHL DUP8 ADD SWAP1 SWAP5 ADD SWAP5 POP DUP6 SWAP4 POP PUSH2 0x274 SWAP3 POP PUSH2 0x283 SWAP2 POP CODESIZE SWAP1 POP PUSH2 0x262 JUMP JUMPDEST POP POP CALLVALUE PUSH2 0x1AF JUMPI PUSH1 0x20 DUP1 PUSH1 0x3 NOT CALLDATASIZE ADD SLT PUSH2 0x182 JUMPI PUSH2 0x328 PUSH2 0xD96 JUMP JUMPDEST DUP4 PUSH1 0xA0 DUP5 MLOAD PUSH2 0x336 DUP2 PUSH2 0xDEB JUMP JUMPDEST DUP3 DUP2 MSTORE DUP3 DUP6 DUP3 ADD MSTORE DUP6 MLOAD PUSH2 0x349 DUP2 PUSH2 0xE1D JUMP JUMPDEST PUSH2 0x100 CALLDATASIZE DUP3 CALLDATACOPY DUP2 DUP8 ADD MSTORE PUSH1 0x60 DUP1 DUP3 ADD MSTORE PUSH1 0x80 DUP2 ADD DUP4 SWAP1 MSTORE ADD MSTORE PUSH1 0x1 PUSH1 0x1 PUSH1 0xA0 SHL SUB AND DUP1 DUP5 MSTORE PUSH1 0x2 DUP3 MSTORE DUP3 DUP5 KECCAK256 SLOAD PUSH2 0x382 SWAP1 PUSH1 0xFF AND PUSH2 0x1021 JUMP JUMPDEST DUP4 MSTORE DUP3 DUP2 MSTORE DUP2 DUP4 KECCAK256 SWAP1 DUP3 MLOAD SWAP3 PUSH2 0x397 DUP5 PUSH2 0xDEB JUMP JUMPDEST DUP3 SLOAD DUP5 MSTORE PUSH1 0x1 SWAP5 PUSH1 0x1 DUP5 ADD SLOAD SWAP3 DUP1 DUP7 ADD SWAP4 DUP5 MSTORE DUP3 MLOAD DUP1 DUP9 PUSH1 0x2 DUP9 ADD SWAP2 DUP5 DUP7 SWAP2 JUMPDEST PUSH1 0x8 DUP4 LT PUSH2 0x46C JUMPI POP POP POP POP POP PUSH2 0x3CD DUP2 PUSH2 0xE1D JUMP JUMPDEST DUP4 DUP8 ADD SWAP1 DUP2 MSTORE PUSH2 0x3DF PUSH1 0xA DUP8 ADD PUSH2 0xE78 JUMP JUMPDEST SWAP4 PUSH1 0x60 DUP9 ADD SWAP5 DUP6 MSTORE PUSH1 0xFF PUSH1 0xC PUSH1 0xB DUP10 ADD SLOAD SWAP9 PUSH1 0x80 DUP12 ADD SWAP10 DUP11 MSTORE ADD SLOAD AND SWAP6 PUSH1 0xA0 DUP10 ADD SWAP7 ISZERO ISZERO DUP8 MSTORE DUP2 MLOAD SWAP9 DUP5 DUP11 MSTORE MLOAD DUP5 DUP11 ADD MSTORE MLOAD SWAP1 DUP9 ADD MSTORE MLOAD PUSH1 0x60 DUP8 ADD SWAP1 SWAP3 SWAP1 JUMPDEST PUSH1 0x8 DUP3 LT PUSH2 0x459 JUMPI DUP8 DUP1 DUP9 DUP9 DUP9 MLOAD SWAP1 PUSH2 0x446 PUSH2 0x1A0 SWAP3 DUP4 PUSH2 0x160 DUP8 ADD MSTORE PUSH2 0x1C0 DUP7 ADD SWAP1 PUSH2 0xF1D JUMP JUMPDEST SWAP3 MLOAD PUSH2 0x180 DUP6 ADD MSTORE MLOAD ISZERO ISZERO SWAP1 DUP4 ADD MSTORE SUB SWAP1 RETURN JUMPDEST DUP4 MLOAD DUP2 MSTORE SWAP3 DUP3 ADD SWAP3 SWAP1 DUP9 ADD SWAP1 DUP3 ADD PUSH2 0x41E JUMP JUMPDEST DUP5 SLOAD DUP2 MSTORE SWAP4 DUP4 ADD SWAP4 SWAP2 DUP4 ADD SWAP2 DUP7 SWAP2 ADD PUSH2 0x3B7 JUMP JUMPDEST POP CALLVALUE PUSH2 0x182 JUMPI PUSH2 0x160 CALLDATASIZE PUSH1 0x3 NOT ADD SLT PUSH2 0x182 JUMPI DUP1 CALLDATALOAD PUSH1 0x24 SWAP2 DUP3 CALLDATALOAD SWAP3 CALLDATASIZE PUSH1 0x63 SLT ISZERO PUSH2 0x913 JUMPI DUP5 MLOAD SWAP3 PUSH2 0x4B0 DUP5 PUSH2 0xE1D JUMP JUMPDEST PUSH2 0x144 DUP5 CALLDATASIZE DUP3 GT PUSH2 0x8FF JUMPI PUSH1 0x44 SWAP1 JUMPDEST DUP3 DUP3 LT PUSH2 0x903 JUMPI POP POP CALLDATALOAD SWAP2 PUSH8 0xFFFFFFFFFFFFFFFF SWAP3 DUP4 DUP2 GT PUSH2 0x8FF JUMPI PUSH2 0x4E8 SWAP1 CALLDATASIZE SWAP1 DUP7 ADD PUSH2 0xF5D JUMP JUMPDEST SWAP5 DUP7 DUP10 MSTORE PUSH1 0x1 SWAP4 PUSH1 0x20 SWAP6 DUP6 DUP8 MSTORE PUSH1 0xFF DUP11 DUP13 KECCAK256 SLOAD AND PUSH2 0x8C4 JUMPI CALLER DUP12 MSTORE PUSH1 0x2 DUP8 MSTORE PUSH1 0xFF DUP11 DUP13 KECCAK256 SLOAD AND PUSH2 0x88A JUMPI DUP8 MLOAD PUSH32 0xB60DFD2D76B37248D06A548F402532200B7A08F600ECE90F63C05723C91CF2A8 DUP12 PUSH3 0x27A921 PUSH1 0xE9 SHL DUP11 DUP1 DUP14 ADD SWAP5 DUP6 KECCAK256 SWAP3 MLOAD PUSH2 0x54F DUP2 PUSH2 0xE3A JUMP JUMPDEST PUSH1 0x3 DUP2 MSTORE ADD MSTORE EQ SWAP1 DUP2 ISZERO PUSH2 0x840 JUMPI JUMPDEST POP ISZERO PUSH2 0x7FE JUMPI DUP5 ISZERO ISZERO DUP1 PUSH2 0x7F5 JUMPI JUMPDEST DUP1 PUSH2 0x7EB JUMPI JUMPDEST ISZERO PUSH2 0x7B0 JUMPI SWAP1 DUP8 SWAP2 DUP7 SWAP6 SWAP5 DUP13 DUP8 DUP11 SWAP7 DUP14 DUP16 DUP1 MLOAD SWAP11 PUSH2 0x590 DUP13 PUSH2 0xDEB JUMP JUMPDEST DUP12 MSTORE DUP10 DUP12 ADD SWAP2 DUP3 MSTORE DUP1 DUP12 ADD SWAP3 DUP4 MSTORE PUSH1 0x60 DUP12 ADD SWAP9 DUP10 MSTORE DUP5 PUSH1 0x80 DUP13 ADD SWAP11 TIMESTAMP DUP13 MSTORE PUSH1 0xA0 DUP14 ADD SWAP15 DUP16 MSTORE CALLER DUP3 MSTORE MSTORE DUP5 KECCAK256 SWAP10 MLOAD DUP11 SSTORE MLOAD DUP3 DUP11 ADD SSTORE MLOAD SWAP2 JUMPDEST PUSH1 0x8 DUP2 LT PUSH2 0x79B JUMPI POP POP POP PUSH1 0xA DUP7 ADD SWAP4 MLOAD SWAP2 DUP3 MLOAD SWAP4 DUP5 GT PUSH2 0x78A JUMPI POP POP DUP12 PUSH2 0x5EF DUP5 SLOAD PUSH2 0xDB1 JUMP JUMPDEST DUP10 PUSH1 0x1F DUP3 GT PUSH2 0x751 JUMPI JUMPDEST POP POP POP DUP8 SWAP1 DUP13 PUSH1 0x1F DUP5 GT PUSH1 0x1 EQ PUSH2 0x6C2 JUMPI SWAP4 DUP4 PUSH1 0xC SWAP5 PUSH2 0x6A8 SWAP12 SWAP9 SWAP5 PUSH32 0xE7F244AAC8DD2C9C62EB282436E5FA591BB07F0E6219A03436EB819B75DE86FA SWAP15 SWAP14 SWAP12 SWAP9 SWAP5 PUSH1 0x60 SWAP12 SWAP9 SWAP3 PUSH2 0x6B7 JUMPI JUMPDEST POP POP PUSH1 0x0 NOT PUSH1 0x3 DUP4 SWAP1 SHL SHR NOT AND SWAP1 DUP7 SHL OR SWAP1 SSTORE JUMPDEST MLOAD PUSH1 0xB DUP3 ADD SSTORE ADD SWAP2 MLOAD ISZERO ISZERO SWAP2 PUSH1 0xFF NOT SWAP3 PUSH1 0xFF DUP5 DUP4 SLOAD AND SWAP2 AND OR SWAP1 SSTORE DUP7 DUP11 MSTORE DUP1 DUP4 MSTORE DUP9 DUP11 KECCAK256 DUP2 DUP4 DUP3 SLOAD AND OR SWAP1 SSTORE CALLER DUP11 MSTORE PUSH1 0x2 DUP4 MSTORE DUP9 DUP11 KECCAK256 SWAP2 DUP3 SLOAD AND OR SWAP1 SSTORE DUP7 MLOAD SWAP5 DUP6 MSTORE DUP5 ADD MSTORE PUSH1 0x60 DUP4 ADD SWAP1 PUSH2 0xF1D JUMP JUMPDEST SWAP3 TIMESTAMP SWAP1 DUP3 ADD MSTORE DUP1 CALLER SWAP4 SUB SWAP1 LOG2 DUP1 RETURN JUMPDEST ADD MLOAD SWAP1 POP CODESIZE DUP1 PUSH2 0x645 JUMP JUMPDEST SWAP2 SWAP1 PUSH1 0x1F NOT DUP5 AND DUP6 DUP5 MSTORE DUP11 DUP5 KECCAK256 SWAP4 JUMPDEST DUP2 DUP2 LT PUSH2 0x73C JUMPI POP SWAP8 DUP5 PUSH2 0x6A8 SWAP12 SWAP9 SWAP5 PUSH32 0xE7F244AAC8DD2C9C62EB282436E5FA591BB07F0E6219A03436EB819B75DE86FA SWAP15 SWAP14 SWAP12 SWAP9 SWAP5 DUP4 SWAP9 SWAP5 PUSH1 0xC SWAP9 PUSH1 0x60 SWAP14 LT PUSH2 0x723 JUMPI JUMPDEST POP POP POP DUP2 SHL ADD SWAP1 SSTORE PUSH2 0x659 JUMP JUMPDEST ADD MLOAD PUSH1 0x0 NOT PUSH1 0xF8 DUP5 PUSH1 0x3 SHL AND SHR NOT AND SWAP1 SSTORE CODESIZE DUP1 DUP1 PUSH2 0x716 JUMP JUMPDEST DUP3 DUP5 ADD MLOAD DUP6 SSTORE SWAP4 DUP10 ADD SWAP4 SWAP3 DUP12 ADD SWAP3 DUP12 ADD PUSH2 0x6D1 JUMP JUMPDEST DUP3 DUP7 PUSH2 0x778 SWAP5 MSTORE KECCAK256 PUSH1 0x1F DUP6 ADD PUSH1 0x5 SHR DUP2 ADD SWAP2 DUP12 DUP7 LT PUSH2 0x780 JUMPI JUMPDEST PUSH1 0x1F ADD PUSH1 0x5 SHR ADD SWAP1 PUSH2 0x100A JUMP JUMPDEST DUP12 CODESIZE DUP10 PUSH2 0x5F9 JUMP JUMPDEST SWAP1 SWAP2 POP DUP2 SWAP1 PUSH2 0x76B JUMP JUMPDEST PUSH4 0x4E487B71 PUSH1 0xE0 SHL DUP15 MSTORE PUSH1 0x41 SWAP1 MSTORE DUP13 REVERT JUMPDEST DUP12 DUP4 MLOAD SWAP4 ADD SWAP3 PUSH1 0x2 DUP3 DUP12 ADD ADD SSTORE ADD DUP9 SWAP1 PUSH2 0x5C7 JUMP JUMPDEST DUP10 MLOAD PUSH3 0x461BCD PUSH1 0xE5 SHL DUP2 MSTORE SWAP1 DUP2 ADD DUP8 SWAP1 MSTORE PUSH1 0x16 DUP2 DUP6 ADD MSTORE PUSH22 0x24B73B30B634B2102BB7B936321024A210383937B7B3 PUSH1 0x51 SHL PUSH1 0x44 DUP3 ADD MSTORE PUSH1 0x64 SWAP1 REVERT JUMPDEST POP DUP3 MLOAD ISZERO ISZERO PUSH2 0x573 JUMP JUMPDEST POP DUP9 ISZERO ISZERO PUSH2 0x56D JUMP JUMPDEST DUP10 MLOAD PUSH3 0x461BCD PUSH1 0xE5 SHL DUP2 MSTORE SWAP1 DUP2 ADD DUP8 SWAP1 MSTORE PUSH1 0x1A DUP2 DUP6 ADD MSTORE PUSH32 0x496E76616C696420766572696669636174696F6E206C6576656C000000000000 PUSH1 0x44 DUP3 ADD MSTORE PUSH1 0x64 SWAP1 REVERT JUMPDEST PUSH32 0xDCFA7035A5C1DA005E9057DFE74F35F457DF142AD11B8584F13E433660D15CE5 SWAP2 POP DUP10 MLOAD SWAP1 KECCAK256 PUSH6 0x444556494345 PUSH1 0xD0 SHL DUP10 DUP14 MLOAD PUSH2 0x87D DUP2 PUSH2 0xE3A JUMP JUMPDEST PUSH1 0x6 DUP2 MSTORE ADD MSTORE EQ CODESIZE PUSH2 0x55E JUMP JUMPDEST DUP10 MLOAD PUSH3 0x461BCD PUSH1 0xE5 SHL DUP2 MSTORE SWAP1 DUP2 ADD DUP8 SWAP1 MSTORE PUSH1 0x15 DUP2 DUP6 ADD MSTORE PUSH21 0x155CD95C88185B1C9958591E481D995C9A599A5959 PUSH1 0x5A SHL PUSH1 0x44 DUP3 ADD MSTORE PUSH1 0x64 SWAP1 REVERT JUMPDEST DUP10 MLOAD PUSH3 0x461BCD PUSH1 0xE5 SHL DUP2 MSTORE SWAP1 DUP2 ADD DUP8 SWAP1 MSTORE PUSH1 0x16 DUP2 DUP6 ADD MSTORE PUSH22 0x139D5B1B1A599A595C88185B1C9958591E481D5CD959 PUSH1 0x52 SHL PUSH1 0x44 DUP3 ADD MSTORE PUSH1 0x64 SWAP1 REVERT JUMPDEST DUP9 DUP1 REVERT JUMPDEST DUP2 CALLDATALOAD DUP2 MSTORE PUSH1 0x20 SWAP2 DUP3 ADD SWAP2 ADD PUSH2 0x4BF JUMP JUMPDEST DUP6 DUP1 REVERT JUMPDEST POP SWAP2 SWAP1 CALLVALUE PUSH2 0x1AF JUMPI CALLDATASIZE PUSH1 0x3 NOT ADD SLT PUSH2 0xBF4 JUMPI PUSH8 0xFFFFFFFFFFFFFFFF DUP3 CALLDATALOAD DUP2 DUP2 GT PUSH2 0x182 JUMPI PUSH2 0x948 SWAP1 CALLDATASIZE SWAP1 DUP6 ADD PUSH2 0xF5D JUMP JUMPDEST SWAP1 PUSH1 0x24 CALLDATALOAD DUP2 DUP2 GT PUSH2 0xBF0 JUMPI PUSH2 0x960 SWAP1 CALLDATASIZE SWAP1 DUP7 ADD PUSH2 0xF5D JUMP JUMPDEST SWAP4 PUSH2 0x976 PUSH1 0x1 DUP1 PUSH1 0xA0 SHL SUB PUSH1 0x3 SLOAD AND CALLER EQ PUSH2 0xFB4 JUMP JUMPDEST DUP3 MLOAD DUP3 DUP2 GT PUSH2 0xBDD JUMPI DUP1 PUSH2 0x98A DUP4 SLOAD PUSH2 0xDB1 JUMP JUMPDEST SWAP5 PUSH1 0x1F SWAP6 DUP7 DUP2 GT PUSH2 0xB88 JUMPI JUMPDEST POP PUSH1 0x20 SWAP1 DUP7 DUP4 GT PUSH1 0x1 EQ PUSH2 0xB07 JUMPI DUP8 SWAP3 PUSH2 0xAFC JUMPI JUMPDEST POP POP DUP2 PUSH1 0x1 SHL SWAP2 PUSH1 0x0 NOT SWAP1 PUSH1 0x3 SHL SHR NOT AND OR DUP2 SSTORE JUMPDEST DUP5 MLOAD SWAP2 DUP3 GT PUSH2 0xAE9 JUMPI POP PUSH1 0x5 SWAP2 PUSH2 0x9D7 DUP4 SLOAD PUSH2 0xDB1 JUMP JUMPDEST DUP2 DUP2 GT PUSH2 0xA96 JUMPI JUMPDEST POP PUSH1 0x20 SWAP1 DUP3 GT PUSH1 0x1 EQ PUSH2 0xA19 JUMPI DUP4 SWAP5 DUP3 SWAP4 SWAP5 SWAP3 PUSH2 0xA0E JUMPI JUMPDEST POP POP DUP2 PUSH1 0x1 SHL SWAP2 PUSH1 0x0 NOT SWAP1 PUSH1 0x3 SHL SHR NOT AND OR SWAP1 SSTORE DUP1 RETURN JUMPDEST ADD MLOAD SWAP1 POP CODESIZE DUP1 PUSH2 0x9F7 JUMP JUMPDEST DUP3 DUP5 MSTORE PUSH32 0x36B6384B5ECA791C62761152D0C79BB0604C104A5FB6F4EB0703F3154BB3DB0 SWAP1 PUSH1 0x1F NOT DUP4 AND DUP6 JUMPDEST DUP2 DUP2 LT PUSH2 0xA7E JUMPI POP SWAP6 DUP4 PUSH1 0x1 SWAP6 SWAP7 SWAP8 LT PUSH2 0xA65 JUMPI JUMPDEST POP POP POP DUP2 SHL ADD SWAP1 SSTORE DUP1 RETURN JUMPDEST ADD MLOAD PUSH1 0x0 NOT PUSH1 0xF8 DUP5 PUSH1 0x3 SHL AND SHR NOT AND SWAP1 SSTORE CODESIZE DUP1 DUP1 PUSH2 0xA5A JUMP JUMPDEST SWAP2 SWAP3 PUSH1 0x20 PUSH1 0x1 DUP2 SWAP3 DUP7 DUP12 ADD MLOAD DUP2 SSTORE ADD SWAP5 ADD SWAP3 ADD PUSH2 0xA45 JUMP JUMPDEST PUSH2 0xADA SWAP1 DUP5 DUP7 MSTORE PUSH32 0x36B6384B5ECA791C62761152D0C79BB0604C104A5FB6F4EB0703F3154BB3DB0 DUP4 DUP1 DUP7 ADD DUP8 SHR DUP3 ADD SWAP3 PUSH1 0x20 DUP8 LT PUSH2 0xAE0 JUMPI JUMPDEST ADD DUP7 SHR ADD SWAP1 PUSH2 0x100A JUMP JUMPDEST CODESIZE PUSH2 0x9DF JUMP JUMPDEST SWAP3 POP DUP2 SWAP3 PUSH2 0xAD0 JUMP JUMPDEST PUSH4 0x4E487B71 PUSH1 0xE0 SHL DUP5 MSTORE PUSH1 0x41 SWAP1 MSTORE PUSH1 0x24 DUP4 REVERT JUMPDEST ADD MLOAD SWAP1 POP CODESIZE DUP1 PUSH2 0x9AB JUMP JUMPDEST DUP5 DUP9 MSTORE PUSH32 0x8A35ACFBC15FF81A39AE7D344FD709F28E8600B4AA8C65C6B64BFE7FE36BD19B SWAP3 POP PUSH1 0x1F NOT DUP5 AND DUP9 JUMPDEST DUP2 DUP2 LT PUSH2 0xB70 JUMPI POP SWAP1 DUP5 PUSH1 0x1 SWAP6 SWAP5 SWAP4 SWAP3 LT PUSH2 0xB57 JUMPI JUMPDEST POP POP POP DUP2 SHL ADD DUP2 SSTORE PUSH2 0x9C0 JUMP JUMPDEST ADD MLOAD PUSH1 0x0 NOT PUSH1 0xF8 DUP5 PUSH1 0x3 SHL AND SHR NOT AND SWAP1 SSTORE CODESIZE DUP1 DUP1 PUSH2 0xB4A JUMP JUMPDEST SWAP3 SWAP4 PUSH1 0x20 PUSH1 0x1 DUP2 SWAP3 DUP8 DUP7 ADD MLOAD DUP2 SSTORE ADD SWAP6 ADD SWAP4 ADD PUSH2 0xB34 JUMP JUMPDEST PUSH2 0xBCE SWAP1 DUP6 DUP10 MSTORE PUSH32 0x8A35ACFBC15FF81A39AE7D344FD709F28E8600B4AA8C65C6B64BFE7FE36BD19B DUP9 DUP1 DUP7 ADD PUSH1 0x5 SHR DUP3 ADD SWAP3 PUSH1 0x20 DUP8 LT PUSH2 0xBD4 JUMPI JUMPDEST ADD PUSH1 0x5 SHR ADD SWAP1 PUSH2 0x100A JUMP JUMPDEST CODESIZE PUSH2 0x996 JUMP JUMPDEST SWAP3 POP DUP2 SWAP3 PUSH2 0xBC3 JUMP JUMPDEST PUSH4 0x4E487B71 PUSH1 0xE0 SHL DUP6 MSTORE PUSH1 0x41 DUP3 MSTORE PUSH1 0x24 DUP6 REVERT JUMPDEST DUP4 DUP1 REVERT JUMPDEST DUP1 REVERT JUMPDEST POP POP CALLVALUE PUSH2 0x1AF JUMPI DUP2 PUSH1 0x3 NOT CALLDATASIZE ADD SLT PUSH2 0x1AF JUMPI MLOAD SWAP1 DUP2 MSTORE PUSH1 0x20 SWAP1 RETURN JUMPDEST DUP4 CALLVALUE PUSH2 0xBF4 JUMPI DUP1 PUSH1 0x3 NOT CALLDATASIZE ADD SLT PUSH2 0xBF4 JUMPI PUSH2 0xC38 PUSH1 0x1 DUP1 PUSH1 0xA0 SHL SUB PUSH1 0x3 SLOAD AND CALLER EQ PUSH2 0xFB4 JUMP JUMPDEST DUP1 RETURN JUMPDEST DUP3 DUP5 CALLVALUE PUSH2 0xBF4 JUMPI DUP1 PUSH1 0x3 NOT CALLDATASIZE ADD SLT PUSH2 0xBF4 JUMPI DUP2 MLOAD SWAP2 DUP3 DUP3 PUSH1 0x5 SLOAD PUSH2 0xC5E DUP2 PUSH2 0xDB1 JUMP JUMPDEST SWAP1 DUP2 DUP5 MSTORE PUSH1 0x20 SWAP6 PUSH1 0x1 SWAP2 DUP8 PUSH1 0x1 DUP3 AND SWAP2 DUP3 PUSH1 0x0 EQ PUSH2 0xCEF JUMPI POP POP PUSH1 0x1 EQ PUSH2 0xC93 JUMPI JUMPDEST POP POP POP PUSH2 0x283 SWAP3 SWAP2 PUSH2 0x274 SWAP2 SUB DUP6 PUSH2 0xE56 JUMP JUMPDEST SWAP2 SWAP1 DUP7 SWAP4 POP PUSH1 0x5 DUP4 MSTORE PUSH32 0x36B6384B5ECA791C62761152D0C79BB0604C104A5FB6F4EB0703F3154BB3DB0 JUMPDEST DUP3 DUP5 LT PUSH2 0xCD7 JUMPI POP POP POP DUP3 ADD ADD DUP2 PUSH2 0x274 PUSH2 0x283 PUSH2 0xC80 JUMP JUMPDEST DUP1 SLOAD DUP5 DUP11 ADD DUP7 ADD MSTORE DUP9 SWAP6 POP DUP8 SWAP5 SWAP1 SWAP4 ADD SWAP3 DUP2 ADD PUSH2 0xCBE JUMP JUMPDEST PUSH1 0xFF NOT AND DUP8 DUP3 ADD MSTORE SWAP4 ISZERO ISZERO PUSH1 0x5 SHL DUP7 ADD SWAP1 SWAP4 ADD SWAP4 POP DUP5 SWAP3 POP PUSH2 0x274 SWAP2 POP PUSH2 0x283 SWAP1 POP PUSH2 0xC80 JUMP JUMPDEST POP POP CALLVALUE PUSH2 0x1AF JUMPI PUSH1 0x20 CALLDATASIZE PUSH1 0x3 NOT ADD SLT PUSH2 0x1AF JUMPI SWAP1 DUP2 SWAP1 PUSH1 0x1 PUSH1 0x1 PUSH1 0xA0 SHL SUB PUSH2 0xD3C PUSH2 0xD96 JUMP JUMPDEST AND DUP2 MSTORE DUP1 PUSH1 0x20 MSTORE KECCAK256 DUP1 SLOAD SWAP1 PUSH1 0x1 DUP2 ADD SLOAD SWAP3 PUSH2 0xD85 PUSH2 0xD5C PUSH1 0xA DUP5 ADD PUSH2 0xE78 JUMP JUMPDEST PUSH1 0xA0 PUSH1 0xFF PUSH1 0xC PUSH1 0xB DUP8 ADD SLOAD SWAP7 ADD SLOAD AND SWAP4 DUP1 MLOAD SWAP8 DUP9 SWAP8 DUP9 MSTORE PUSH1 0x20 DUP9 ADD MSTORE DUP7 ADD MSTORE PUSH1 0xA0 DUP6 ADD SWAP1 PUSH2 0xF1D JUMP JUMPDEST SWAP2 PUSH1 0x60 DUP5 ADD MSTORE ISZERO ISZERO PUSH1 0x80 DUP4 ADD MSTORE SUB SWAP1 RETURN JUMPDEST PUSH1 0x4 CALLDATALOAD SWAP1 PUSH1 0x1 PUSH1 0x1 PUSH1 0xA0 SHL SUB DUP3 AND DUP3 SUB PUSH2 0xDAC JUMPI JUMP JUMPDEST PUSH1 0x0 DUP1 REVERT JUMPDEST SWAP1 PUSH1 0x1 DUP3 DUP2 SHR SWAP3 AND DUP1 ISZERO PUSH2 0xDE1 JUMPI JUMPDEST PUSH1 0x20 DUP4 LT EQ PUSH2 0xDCB JUMPI JUMP JUMPDEST PUSH4 0x4E487B71 PUSH1 0xE0 SHL PUSH1 0x0 MSTORE PUSH1 0x22 PUSH1 0x4 MSTORE PUSH1 0x24 PUSH1 0x0 REVERT JUMPDEST SWAP2 PUSH1 0x7F AND SWAP2 PUSH2 0xDC0 JUMP JUMPDEST PUSH1 0xC0 DUP2 ADD SWAP1 DUP2 LT PUSH8 0xFFFFFFFFFFFFFFFF DUP3 GT OR PUSH2 0xE07 JUMPI PUSH1 0x40 MSTORE JUMP JUMPDEST PUSH4 0x4E487B71 PUSH1 0xE0 SHL PUSH1 0x0 MSTORE PUSH1 0x41 PUSH1 0x4 MSTORE PUSH1 0x24 PUSH1 0x0 REVERT JUMPDEST PUSH2 0x100 DUP2 ADD SWAP1 DUP2 LT PUSH8 0xFFFFFFFFFFFFFFFF DUP3 GT OR PUSH2 0xE07 JUMPI PUSH1 0x40 MSTORE JUMP JUMPDEST PUSH1 0x40 DUP2 ADD SWAP1 DUP2 LT PUSH8 0xFFFFFFFFFFFFFFFF DUP3 GT OR PUSH2 0xE07 JUMPI PUSH1 0x40 MSTORE JUMP JUMPDEST SWAP1 PUSH1 0x1F DUP1 NOT SWAP2 ADD AND DUP2 ADD SWAP1 DUP2 LT PUSH8 0xFFFFFFFFFFFFFFFF DUP3 GT OR PUSH2 0xE07 JUMPI PUSH1 0x40 MSTORE JUMP JUMPDEST SWAP1 PUSH1 0x40 MLOAD SWAP2 DUP3 PUSH1 0x0 DUP3 SLOAD PUSH2 0xE8B DUP2 PUSH2 0xDB1 JUMP JUMPDEST SWAP1 DUP2 DUP5 MSTORE PUSH1 0x20 SWAP5 PUSH1 0x1 SWAP2 PUSH1 0x1 DUP2 AND SWAP1 DUP2 PUSH1 0x0 EQ PUSH2 0xEFB JUMPI POP PUSH1 0x1 EQ PUSH2 0xEBC JUMPI JUMPDEST POP POP POP PUSH2 0xEBA SWAP3 POP SUB DUP4 PUSH2 0xE56 JUMP JUMPDEST JUMP JUMPDEST PUSH1 0x0 SWAP1 DUP2 MSTORE DUP6 DUP2 KECCAK256 SWAP6 SWAP4 POP SWAP2 SWAP1 JUMPDEST DUP2 DUP4 LT PUSH2 0xEE3 JUMPI POP POP PUSH2 0xEBA SWAP4 POP DUP3 ADD ADD CODESIZE DUP1 DUP1 PUSH2 0xEAB JUMP JUMPDEST DUP6 SLOAD DUP9 DUP5 ADD DUP6 ADD MSTORE SWAP5 DUP6 ADD SWAP5 DUP8 SWAP5 POP SWAP2 DUP4 ADD SWAP2 PUSH2 0xECA JUMP JUMPDEST SWAP3 POP POP POP PUSH2 0xEBA SWAP5 SWAP3 POP PUSH1 0xFF NOT AND DUP3 DUP5 ADD MSTORE ISZERO ISZERO PUSH1 0x5 SHL DUP3 ADD ADD CODESIZE DUP1 DUP1 PUSH2 0xEAB JUMP JUMPDEST SWAP2 SWAP1 DUP3 MLOAD SWAP3 DUP4 DUP3 MSTORE PUSH1 0x0 JUMPDEST DUP5 DUP2 LT PUSH2 0xF49 JUMPI POP POP DUP3 PUSH1 0x0 PUSH1 0x20 DUP1 SWAP5 SWAP6 DUP5 ADD ADD MSTORE PUSH1 0x1F DUP1 NOT SWAP2 ADD AND ADD ADD SWAP1 JUMP JUMPDEST PUSH1 0x20 DUP2 DUP4 ADD DUP2 ADD MLOAD DUP5 DUP4 ADD DUP3 ADD MSTORE ADD PUSH2 0xF28 JUMP JUMPDEST DUP2 PUSH1 0x1F DUP3 ADD SLT ISZERO PUSH2 0xDAC JUMPI DUP1 CALLDATALOAD SWAP1 PUSH8 0xFFFFFFFFFFFFFFFF DUP3 GT PUSH2 0xE07 JUMPI PUSH1 0x40 MLOAD SWAP3 PUSH2 0xF92 PUSH1 0x1F DUP5 ADD PUSH1 0x1F NOT AND PUSH1 0x20 ADD DUP6 PUSH2 0xE56 JUMP JUMPDEST DUP3 DUP5 MSTORE PUSH1 0x20 DUP4 DUP4 ADD ADD GT PUSH2 0xDAC JUMPI DUP2 PUSH1 0x0 SWAP3 PUSH1 0x20 DUP1 SWAP4 ADD DUP4 DUP7 ADD CALLDATACOPY DUP4 ADD ADD MSTORE SWAP1 JUMP JUMPDEST ISZERO PUSH2 0xFBB JUMPI JUMP JUMPDEST PUSH1 0x40 MLOAD PUSH3 0x461BCD PUSH1 0xE5 SHL DUP2 MSTORE PUSH1 0x20 PUSH1 0x4 DUP3 ADD MSTORE PUSH1 0x21 PUSH1 0x24 DUP3 ADD MSTORE PUSH32 0x4F6E6C792061646D696E2063616E2063616C6C20746869732066756E6374696F PUSH1 0x44 DUP3 ADD MSTORE PUSH1 0x37 PUSH1 0xF9 SHL PUSH1 0x64 DUP3 ADD MSTORE PUSH1 0x84 SWAP1 REVERT JUMPDEST DUP2 DUP2 LT PUSH2 0x1015 JUMPI POP POP JUMP JUMPDEST PUSH1 0x0 DUP2 SSTORE PUSH1 0x1 ADD PUSH2 0x100A JUMP JUMPDEST ISZERO PUSH2 0x1028 JUMPI JUMP JUMPDEST PUSH1 0x40 MLOAD PUSH3 0x461BCD PUSH1 0xE5 SHL DUP2 MSTORE PUSH1 0x20 PUSH1 0x4 DUP3 ADD MSTORE PUSH1 0x11 PUSH1 0x24 DUP3 ADD MSTORE PUSH17 0x155CD95C881B9BDD081D995C9A599A5959 PUSH1 0x7A SHL PUSH1 0x44 DUP3 ADD MSTORE PUSH1 0x64 SWAP1 REVERT INVALID LOG2 PUSH5 0x6970667358 0x22 SLT KECCAK256 0xF6 DELEGATECALL 0xCC 0xA7 NUMBER PUSH11 0xB3069AB9A32960AFC8E340 0xE4 PUSH9 0x3945AB75910F21EA41 0xB2 0xE1 BLOBHASH PUSH13 0x64736F6C634300081800330000 "},"methodIdentifiers":{"MIN_STAT_FOR_PROPOSAL()":"f9feed50","MIN_STAT_FOR_VOTING()":"2a017fdc","PROPOSAL_DURATION()":"7f097010","addMember(address,string,string,uint8,string,string)":"923fa334","admin()":"f851a440","blockscoutRegistry()":"07a57b11","createProposal(string,string,string,uint8)":"4e9e55bb","getAllMembers()":"7c0f6b35","getDAOStats()":"ffc4bfde","getMember(address)":"2ada2596","isMember(address)":"a230c524","memberAddresses(uint256)":"cc4e6299","members(address)":"08ae4b0c","pauseAll()":"595c6a67","statToken()":"70c3b424","submitZKProof(uint256[8],uint256[],string)":"efe540a3","updateContracts(address,address,address,address,address)":"5fb6658a","verifyWithWorldID(uint256,uint256,uint256[8],string)":"7be700ba","vlayerVerifier()":"1caa449c","voteOnProposal(uint256,bool,string,bool)":"66ce2cf8","voting()":"fce1ccca","worldVerifier()":"ff5989bd"}}}}}