{"contracts/WorldIDVerifier.sol":{"WorldIDVerifier":{"abi":[{"inputs":[{"internalType":"string","name":"_appId","type":"string"},{"internalType":"string","name":"_actionId","type":"string"}],"stateMutability":"nonpayable","type":"constructor"},{"anonymous":false,"inputs":[{"indexed":true,"internalType":"address","name":"user","type":"address"},{"indexed":false,"internalType":"uint256","name":"nullifierHash","type":"uint256"},{"indexed":false,"internalType":"string","name":"verificationLevel","type":"string"},{"indexed":false,"internalType":"uint256","name":"timestamp","type":"uint256"}],"name":"UserVerified","type":"event"},{"anonymous":false,"inputs":[{"indexed":true,"internalType":"address","name":"user","type":"address"},{"indexed":false,"internalType":"string","name":"reason","type":"string"}],"name":"VerificationRevoked","type":"event"},{"inputs":[],"name":"actionId","outputs":[{"internalType":"string","name":"","type":"string"}],"stateMutability":"view","type":"function"},{"inputs":[],"name":"admin","outputs":[{"internalType":"address","name":"","type":"address"}],"stateMutability":"view","type":"function"},{"inputs":[],"name":"appId","outputs":[{"internalType":"string","name":"","type":"string"}],"stateMutability":"view","type":"function"},{"inputs":[],"name":"emergencyPause","outputs":[],"stateMutability":"nonpayable","type":"function"},{"inputs":[{"internalType":"address","name":"user","type":"address"}],"name":"getVerification","outputs":[{"components":[{"internalType":"uint256","name":"merkleRoot","type":"uint256"},{"internalType":"uint256","name":"nullifierHash","type":"uint256"},{"internalType":"uint256[8]","name":"proof","type":"uint256[8]"},{"internalType":"string","name":"verificationLevel","type":"string"},{"internalType":"uint256","name":"timestamp","type":"uint256"},{"internalType":"bool","name":"isValid","type":"bool"}],"internalType":"struct WorldIDVerifier.VerificationProof","name":"","type":"tuple"}],"stateMutability":"view","type":"function"},{"inputs":[],"name":"getVerifiedUsersCount","outputs":[{"internalType":"uint256","name":"","type":"uint256"}],"stateMutability":"view","type":"function"},{"inputs":[{"internalType":"address","name":"user","type":"address"}],"name":"isVerified","outputs":[{"internalType":"bool","name":"","type":"bool"}],"stateMutability":"view","type":"function"},{"inputs":[{"internalType":"address","name":"user","type":"address"},{"internalType":"string","name":"reason","type":"string"}],"name":"revokeVerification","outputs":[],"stateMutability":"nonpayable","type":"function"},{"inputs":[{"internalType":"string","name":"_appId","type":"string"},{"internalType":"string","name":"_actionId","type":"string"}],"name":"updateConfig","outputs":[],"stateMutability":"nonpayable","type":"function"},{"inputs":[{"internalType":"uint256","name":"","type":"uint256"}],"name":"usedNullifiers","outputs":[{"internalType":"bool","name":"","type":"bool"}],"stateMutability":"view","type":"function"},{"inputs":[{"internalType":"address","name":"","type":"address"}],"name":"verifications","outputs":[{"internalType":"uint256","name":"merkleRoot","type":"uint256"},{"internalType":"uint256","name":"nullifierHash","type":"uint256"},{"internalType":"string","name":"verificationLevel","type":"string"},{"internalType":"uint256","name":"timestamp","type":"uint256"},{"internalType":"bool","name":"isValid","type":"bool"}],"stateMutability":"view","type":"function"},{"inputs":[{"internalType":"address","name":"","type":"address"}],"name":"verifiedUsers","outputs":[{"internalType":"bool","name":"","type":"bool"}],"stateMutability":"view","type":"function"},{"inputs":[{"internalType":"uint256","name":"merkleRoot","type":"uint256"},{"internalType":"uint256","name":"nullifierHash","type":"uint256"},{"internalType":"uint256[8]","name":"proof","type":"uint256[8]"},{"internalType":"string","name":"verificationLevel","type":"string"}],"name":"verifyWithWorldID","outputs":[],"stateMutability":"nonpayable","type":"function"}],"evm":{"bytecode":{"linkReferences":{},"object":"60806040523462000345576200147a803803806200001d816200034a565b928339810190604081830312620003455780516001600160401b03908181116200034557836200004f91840162000370565b916020938482015183811162000345576200006b920162000370565b600380546001600160a01b03191633178155835190918382116200032f576004958654926001968785811c9516801562000324575b838610146200030f578190601f95868111620002b9575b508390868311600114620002525760009262000246575b505060001982871b1c191690871b1787555b815194851162000231576005968754908782811c9216801562000226575b83831014620002115750838111620001c8575b50809285116001146200015a57509383949184926000956200014e575b50501b92600019911b1c19161790555b6040516110979081620003e38239f35b0151935038806200012e565b92919084601f1981168860005285600020956000905b89838310620001ad575050501062000192575b50505050811b0190556200013e565b01519060f884600019921b161c191690553880808062000183565b85870151895590970196948501948893509081019062000170565b8760005281600020848088018a1c82019284891062000207575b01891c019087905b828110620001fa57505062000111565b60008155018790620001ea565b92508192620001e2565b602290634e487b7160e01b6000525260246000fd5b91607f1691620000fe565b604187634e487b7160e01b6000525260246000fd5b015190503880620000ce565b90899350601f198316918b600052856000209260005b87828210620002a2575050841162000289575b505050811b018755620000e0565b015160001983891b60f8161c191690553880806200027b565b8385015186558d9790950194938401930162000268565b90915089600052836000208680850160051c82019286861062000305575b918b91869594930160051c01915b828110620002f5575050620000b7565b600081558594508b9101620002e5565b92508192620002d7565b602289634e487b7160e01b6000525260246000fd5b94607f1694620000a0565b634e487b7160e01b600052604160045260246000fd5b600080fd5b6040519190601f01601f191682016001600160401b038111838210176200032f57604052565b919080601f84011215620003455782516001600160401b0381116200032f57602090620003a6601f8201601f191683016200034a565b92818452828287010111620003455760005b818110620003ce57508260009394955001015290565b8581018301518482018401528201620003b856fe6040608081526004908136101561001557600080fd5b600091823560e01c8063080c98da14610d1657806336b6e82b14610c3b57806351858e2714610c1257806369839b6614610bf75780637ae922be146109175780637be700ba146104805780637fc9592d1461030c57806380afdea81461021d578063aad24061146101f1578063b9209e33146101b3578063e35fe366146101b3578063f851a440146101865763f883e478146100b057600080fd5b346101825781600319360112610182576100c8610d96565b906024359167ffffffffffffffff831161017e5761010d610178927f3b56c041a4c2e60799edf637b19f958011d99c582ce76af1d7de3b1c73436f8594369101610f5d565b60035490916001600160a01b03916101289083163314610fb4565b1693848652600260205261014160ff8288205416611021565b84865285602052600c8187200160ff1990818154169055600260205281872090815416905551918291602083526020830190610f1d565b0390a280f35b8480fd5b8280fd5b5050346101af57816003193601126101af5760035490516001600160a01b039091168152602090f35b5080fd5b5050346101af5760203660031901126101af5760209160ff9082906001600160a01b036101de610d96565b1681526002855220541690519015158152f35b5034610182576020366003190112610182578160209360ff923581526001855220541690519015158152f35b509034610182578260031936011261018257805183819490845461024081610db1565b91828552602096600192886001821691826000146102e2575050600114610287575b858861028389610274848a0385610e56565b51928284938452830190610f1d565b0390f35b815286935091907f8a35acfbc15ff81a39ae7d344fd709f28e8600b4aa8c65c6b64bfe7fe36bd19b5b8284106102ca575050508201018161027461028338610262565b8054848a0186015288955087949093019281016102b0565b60ff19168882015294151560051b8701909401945085935061027492506102839150389050610262565b5050346101af5760208060031936011261018257610328610d96565b8360a0845161033681610deb565b8281528285820152855161034981610e1d565b610100368237818701526060808201526080810183905201526001600160a01b031680845260028252828420546103829060ff16611021565b83528281528183209082519261039784610deb565b825484526001946001840154928086019384528251808860028801918486915b6008831061046c5750505050506103cd81610e1d565b8387019081526103df600a8701610e78565b936060880194855260ff600c600b8901549860808b01998a520154169560a089019615158752815198848a5251848a0152519088015251606087019092905b6008821061045957878088888851906104466101a092836101608701526101c0860190610f1d565b9251610180850152511515908301520390f35b835181529282019290880190820161041e565b8454815293830193918301918691016103b7565b5034610182576101603660031901126101825780356024918235923660631215610913578451926104b084610e1d565b610144843682116108ff576044905b828210610903575050359167ffffffffffffffff928381116108ff576104e89036908601610f5d565b9486895260019360209585875260ff8a8c2054166108c457338b526002875260ff8a8c20541661088a5787517fb60dfd2d76b37248d06a548f402532200b7a08f600ece90f63c05723c91cf2a88b6227a92160e91b8a808d01948520925161054f81610e3a565b60038152015214908115610840575b50156107fe57841515806107f5575b806107eb575b156107b0579087918695948c878a968d8f80519a6105908c610deb565b8b52898b01918252808b0192835260608b019889528460808c019a428c5260a08d019e8f5233825252842099518a5551828a015551915b6008811061079b57505050600a8601935191825193841161078a5750508b6105ef8454610db1565b89601f8211610751575b50505087908c601f84116001146106c2579383600c946106a89b98947fe7f244aac8dd2c9c62eb282436e5fa591bb07f0e6219a03436eb819b75de86fa9e9d9b989460609b98926106b7575b5050600019600383901b1c191690861b1790555b51600b82015501915115159160ff199260ff848354169116179055868a52808352888a208183825416179055338a5260028352888a209182541617905586519485528401526060830190610f1d565b9242908201528033930390a280f35b015190503880610645565b9190601f1984168584528a8420935b81811061073c575097846106a89b98947fe7f244aac8dd2c9c62eb282436e5fa591bb07f0e6219a03436eb819b75de86fa9e9d9b9894839894600c9860609d10610723575b505050811b019055610659565b015160001960f88460031b161c19169055388080610716565b82840151855593890193928b01928b016106d1565b8286610778945220601f850160051c8101918b8610610780575b601f0160051c019061100a565b8b38896105f9565b909150819061076b565b634e487b7160e01b8e52604190528cfd5b8b83519301926002828b0101550188906105c7565b895162461bcd60e51b81529081018790526016818501527524b73b30b634b2102bb7b936321024a210383937b7b360511b6044820152606490fd5b5082511515610573565b5088151561056d565b895162461bcd60e51b8152908101879052601a818501527f496e76616c696420766572696669636174696f6e206c6576656c0000000000006044820152606490fd5b7fdcfa7035a5c1da005e9057dfe74f35f457df142ad11b8584f13e433660d15ce59150895190206544455649434560d01b898d5161087d81610e3a565b600681520152143861055e565b895162461bcd60e51b815290810187905260158185015274155cd95c88185b1c9958591e481d995c9a599a5959605a1b6044820152606490fd5b895162461bcd60e51b815290810187905260168185015275139d5b1b1a599a595c88185b1c9958591e481d5cd95960521b6044820152606490fd5b8880fd5b81358152602091820191016104bf565b8580fd5b509190346101af57366003190112610bf45767ffffffffffffffff8235818111610182576109489036908501610f5d565b90602435818111610bf0576109609036908601610f5d565b9361097660018060a01b03600354163314610fb4565b8251828111610bdd578061098a8354610db1565b94601f95868111610b88575b50602090868311600114610b07578792610afc575b50508160011b916000199060031b1c19161781555b8451918211610ae957506005916109d78354610db1565b818111610a96575b506020908211600114610a1957839482939492610a0e575b50508160011b916000199060031b1c191617905580f35b0151905038806109f7565b8284527f036b6384b5eca791c62761152d0c79bb0604c104a5fb6f4eb0703f3154bb3db090601f198316855b818110610a7e57509583600195969710610a65575b505050811b01905580f35b015160001960f88460031b161c19169055388080610a5a565b9192602060018192868b015181550194019201610a45565b610ada908486527f036b6384b5eca791c62761152d0c79bb0604c104a5fb6f4eb0703f3154bb3db083808601871c82019260208710610ae0575b01861c019061100a565b386109df565b92508192610ad0565b634e487b7160e01b845260419052602483fd5b0151905038806109ab565b8488527f8a35acfbc15ff81a39ae7d344fd709f28e8600b4aa8c65c6b64bfe7fe36bd19b9250601f198416885b818110610b705750908460019594939210610b57575b505050811b0181556109c0565b015160001960f88460031b161c19169055388080610b4a565b92936020600181928786015181550195019301610b34565b610bce908589527f8a35acfbc15ff81a39ae7d344fd709f28e8600b4aa8c65c6b64bfe7fe36bd19b8880860160051c82019260208710610bd4575b0160051c019061100a565b38610996565b92508192610bc3565b634e487b7160e01b855260418252602485fd5b8380fd5b80fd5b5050346101af57816003193601126101af5751908152602090f35b8334610bf45780600319360112610bf457610c3860018060a01b03600354163314610fb4565b80f35b828434610bf45780600319360112610bf4578151918282600554610c5e81610db1565b9081845260209560019187600182169182600014610cef575050600114610c93575b5050506102839291610274910385610e56565b9190869350600583527f036b6384b5eca791c62761152d0c79bb0604c104a5fb6f4eb0703f3154bb3db05b828410610cd75750505082010181610274610283610c80565b8054848a018601528895508794909301928101610cbe565b60ff19168782015293151560051b8601909301935084925061027491506102839050610c80565b5050346101af5760203660031901126101af579081906001600160a01b03610d3c610d96565b1681528060205220805490600181015492610d85610d5c600a8401610e78565b60a060ff600c600b870154960154169380519788978852602088015286015260a0850190610f1d565b916060840152151560808301520390f35b600435906001600160a01b0382168203610dac57565b600080fd5b90600182811c92168015610de1575b6020831014610dcb57565b634e487b7160e01b600052602260045260246000fd5b91607f1691610dc0565b60c0810190811067ffffffffffffffff821117610e0757604052565b634e487b7160e01b600052604160045260246000fd5b610100810190811067ffffffffffffffff821117610e0757604052565b6040810190811067ffffffffffffffff821117610e0757604052565b90601f8019910116810190811067ffffffffffffffff821117610e0757604052565b90604051918260008254610e8b81610db1565b90818452602094600191600181169081600014610efb5750600114610ebc575b505050610eba92500383610e56565b565b600090815285812095935091905b818310610ee3575050610eba9350820101388080610eab565b85548884018501529485019487945091830191610eca565b92505050610eba94925060ff191682840152151560051b820101388080610eab565b919082519283825260005b848110610f49575050826000602080949584010152601f8019910116010190565b602081830181015184830182015201610f28565b81601f82011215610dac5780359067ffffffffffffffff8211610e075760405192610f92601f8401601f191660200185610e56565b82845260208383010111610dac57816000926020809301838601378301015290565b15610fbb57565b60405162461bcd60e51b815260206004820152602160248201527f4f6e6c792061646d696e2063616e2063616c6c20746869732066756e6374696f6044820152603760f91b6064820152608490fd5b818110611015575050565b6000815560010161100a565b1561102857565b60405162461bcd60e51b8152602060048201526011602482015270155cd95c881b9bdd081d995c9a599a5959607a1b6044820152606490fdfea2646970667358221220f6f4cca7436ab3069ab9a32960afc8e340e4683945ab75910f21ea41b2e1496c64736f6c63430008180033","opcodes":"PUSH1 0x80 PUSH1 0x40 MSTORE CALLVALUE PUSH3 0x345 JUMPI PUSH3 0x147A DUP1 CODESIZE SUB DUP1 PUSH3 0x1D DUP2 PUSH3 0x34A JUMP JUMPDEST SWAP3 DUP4 CODECOPY DUP2 ADD SWAP1 PUSH1 0x40 DUP2 DUP4 SUB SLT PUSH3 0x345 JUMPI DUP1 MLOAD PUSH1 0x1 PUSH1 0x1 PUSH1 0x40 SHL SUB SWAP1 DUP2 DUP2 GT PUSH3 0x345 JUMPI DUP4 PUSH3 0x4F SWAP2 DUP5 ADD PUSH3 0x370 JUMP JUMPDEST SWAP2 PUSH1 0x20 SWAP4 DUP5 DUP3 ADD MLOAD DUP4 DUP2 GT PUSH3 0x345 JUMPI PUSH3 0x6B SWAP3 ADD PUSH3 0x370 JUMP JUMPDEST PUSH1 0x3 DUP1 SLOAD PUSH1 0x1 PUSH1 0x1 PUSH1 0xA0 SHL SUB NOT AND CALLER OR DUP2 SSTORE DUP4 MLOAD SWAP1 SWAP2 DUP4 DUP3 GT PUSH3 0x32F JUMPI PUSH1 0x4 SWAP6 DUP7 SLOAD SWAP3 PUSH1 0x1 SWAP7 DUP8 DUP6 DUP2 SHR SWAP6 AND DUP1 ISZERO PUSH3 0x324 JUMPI JUMPDEST DUP4 DUP7 LT EQ PUSH3 0x30F JUMPI DUP2 SWAP1 PUSH1 0x1F SWAP6 DUP7 DUP2 GT PUSH3 0x2B9 JUMPI JUMPDEST POP DUP4 SWAP1 DUP7 DUP4 GT PUSH1 0x1 EQ PUSH3 0x252 JUMPI PUSH1 0x0 SWAP3 PUSH3 0x246 JUMPI JUMPDEST POP POP PUSH1 0x0 NOT DUP3 DUP8 SHL SHR NOT AND SWAP1 DUP8 SHL OR DUP8 SSTORE JUMPDEST DUP2 MLOAD SWAP5 DUP6 GT PUSH3 0x231 JUMPI PUSH1 0x5 SWAP7 DUP8 SLOAD SWAP1 DUP8 DUP3 DUP2 SHR SWAP3 AND DUP1 ISZERO PUSH3 0x226 JUMPI JUMPDEST DUP4 DUP4 LT EQ PUSH3 0x211 JUMPI POP DUP4 DUP2 GT PUSH3 0x1C8 JUMPI JUMPDEST POP DUP1 SWAP3 DUP6 GT PUSH1 0x1 EQ PUSH3 0x15A JUMPI POP SWAP4 DUP4 SWAP5 SWAP2 DUP5 SWAP3 PUSH1 0x0 SWAP6 PUSH3 0x14E JUMPI JUMPDEST POP POP SHL SWAP3 PUSH1 0x0 NOT SWAP2 SHL SHR NOT AND OR SWAP1 SSTORE JUMPDEST PUSH1 0x40 MLOAD PUSH2 0x1097 SWAP1 DUP2 PUSH3 0x3E3 DUP3 CODECOPY RETURN JUMPDEST ADD MLOAD SWAP4 POP CODESIZE DUP1 PUSH3 0x12E JUMP JUMPDEST SWAP3 SWAP2 SWAP1 DUP5 PUSH1 0x1F NOT DUP2 AND DUP9 PUSH1 0x0 MSTORE DUP6 PUSH1 0x0 KECCAK256 SWAP6 PUSH1 0x0 SWAP1 JUMPDEST DUP10 DUP4 DUP4 LT PUSH3 0x1AD JUMPI POP POP POP LT PUSH3 0x192 JUMPI JUMPDEST POP POP POP POP DUP2 SHL ADD SWAP1 SSTORE PUSH3 0x13E JUMP JUMPDEST ADD MLOAD SWAP1 PUSH1 0xF8 DUP5 PUSH1 0x0 NOT SWAP3 SHL AND SHR NOT AND SWAP1 SSTORE CODESIZE DUP1 DUP1 DUP1 PUSH3 0x183 JUMP JUMPDEST DUP6 DUP8 ADD MLOAD DUP10 SSTORE SWAP1 SWAP8 ADD SWAP7 SWAP5 DUP6 ADD SWAP5 DUP9 SWAP4 POP SWAP1 DUP2 ADD SWAP1 PUSH3 0x170 JUMP JUMPDEST DUP8 PUSH1 0x0 MSTORE DUP2 PUSH1 0x0 KECCAK256 DUP5 DUP1 DUP9 ADD DUP11 SHR DUP3 ADD SWAP3 DUP5 DUP10 LT PUSH3 0x207 JUMPI JUMPDEST ADD DUP10 SHR ADD SWAP1 DUP8 SWAP1 JUMPDEST DUP3 DUP2 LT PUSH3 0x1FA JUMPI POP POP PUSH3 0x111 JUMP JUMPDEST PUSH1 0x0 DUP2 SSTORE ADD DUP8 SWAP1 PUSH3 0x1EA JUMP JUMPDEST SWAP3 POP DUP2 SWAP3 PUSH3 0x1E2 JUMP JUMPDEST PUSH1 0x22 SWAP1 PUSH4 0x4E487B71 PUSH1 0xE0 SHL PUSH1 0x0 MSTORE MSTORE PUSH1 0x24 PUSH1 0x0 REVERT JUMPDEST SWAP2 PUSH1 0x7F AND SWAP2 PUSH3 0xFE JUMP JUMPDEST PUSH1 0x41 DUP8 PUSH4 0x4E487B71 PUSH1 0xE0 SHL PUSH1 0x0 MSTORE MSTORE PUSH1 0x24 PUSH1 0x0 REVERT JUMPDEST ADD MLOAD SWAP1 POP CODESIZE DUP1 PUSH3 0xCE JUMP JUMPDEST SWAP1 DUP10 SWAP4 POP PUSH1 0x1F NOT DUP4 AND SWAP2 DUP12 PUSH1 0x0 MSTORE DUP6 PUSH1 0x0 KECCAK256 SWAP3 PUSH1 0x0 JUMPDEST DUP8 DUP3 DUP3 LT PUSH3 0x2A2 JUMPI POP POP DUP5 GT PUSH3 0x289 JUMPI JUMPDEST POP POP POP DUP2 SHL ADD DUP8 SSTORE PUSH3 0xE0 JUMP JUMPDEST ADD MLOAD PUSH1 0x0 NOT DUP4 DUP10 SHL PUSH1 0xF8 AND SHR NOT AND SWAP1 SSTORE CODESIZE DUP1 DUP1 PUSH3 0x27B JUMP JUMPDEST DUP4 DUP6 ADD MLOAD DUP7 SSTORE DUP14 SWAP8 SWAP1 SWAP6 ADD SWAP5 SWAP4 DUP5 ADD SWAP4 ADD PUSH3 0x268 JUMP JUMPDEST SWAP1 SWAP2 POP DUP10 PUSH1 0x0 MSTORE DUP4 PUSH1 0x0 KECCAK256 DUP7 DUP1 DUP6 ADD PUSH1 0x5 SHR DUP3 ADD SWAP3 DUP7 DUP7 LT PUSH3 0x305 JUMPI JUMPDEST SWAP2 DUP12 SWAP2 DUP7 SWAP6 SWAP5 SWAP4 ADD PUSH1 0x5 SHR ADD SWAP2 JUMPDEST DUP3 DUP2 LT PUSH3 0x2F5 JUMPI POP POP PUSH3 0xB7 JUMP JUMPDEST PUSH1 0x0 DUP2 SSTORE DUP6 SWAP5 POP DUP12 SWAP2 ADD PUSH3 0x2E5 JUMP JUMPDEST SWAP3 POP DUP2 SWAP3 PUSH3 0x2D7 JUMP JUMPDEST PUSH1 0x22 DUP10 PUSH4 0x4E487B71 PUSH1 0xE0 SHL PUSH1 0x0 MSTORE MSTORE PUSH1 0x24 PUSH1 0x0 REVERT JUMPDEST SWAP5 PUSH1 0x7F AND SWAP5 PUSH3 0xA0 JUMP JUMPDEST PUSH4 0x4E487B71 PUSH1 0xE0 SHL PUSH1 0x0 MSTORE PUSH1 0x41 PUSH1 0x4 MSTORE PUSH1 0x24 PUSH1 0x0 REVERT JUMPDEST PUSH1 0x0 DUP1 REVERT JUMPDEST PUSH1 0x40 MLOAD SWAP2 SWAP1 PUSH1 0x1F ADD PUSH1 0x1F NOT AND DUP3 ADD PUSH1 0x1 PUSH1 0x1 PUSH1 0x40 SHL SUB DUP2 GT DUP4 DUP3 LT OR PUSH3 0x32F JUMPI PUSH1 0x40 MSTORE JUMP JUMPDEST SWAP2 SWAP1 DUP1 PUSH1 0x1F DUP5 ADD SLT ISZERO PUSH3 0x345 JUMPI DUP3 MLOAD PUSH1 0x1 PUSH1 0x1 PUSH1 0x40 SHL SUB DUP2 GT PUSH3 0x32F JUMPI PUSH1 0x20 SWAP1 PUSH3 0x3A6 PUSH1 0x1F DUP3 ADD PUSH1 0x1F NOT AND DUP4 ADD PUSH3 0x34A JUMP JUMPDEST SWAP3 DUP2 DUP5 MSTORE DUP3 DUP3 DUP8 ADD ADD GT PUSH3 0x345 JUMPI PUSH1 0x0 JUMPDEST DUP2 DUP2 LT PUSH3 0x3CE JUMPI POP DUP3 PUSH1 0x0 SWAP4 SWAP5 SWAP6 POP ADD ADD MSTORE SWAP1 JUMP JUMPDEST DUP6 DUP2 ADD DUP4 ADD MLOAD DUP5 DUP3 ADD DUP5 ADD MSTORE DUP3 ADD PUSH3 0x3B8 JUMP INVALID PUSH1 0x40 PUSH1 0x80 DUP2 MSTORE PUSH1 0x4 SWAP1 DUP2 CALLDATASIZE LT ISZERO PUSH2 0x15 JUMPI PUSH1 0x0 DUP1 REVERT JUMPDEST PUSH1 0x0 SWAP2 DUP3 CALLDATALOAD PUSH1 0xE0 SHR DUP1 PUSH4 0x80C98DA EQ PUSH2 0xD16 JUMPI DUP1 PUSH4 0x36B6E82B EQ PUSH2 0xC3B JUMPI DUP1 PUSH4 0x51858E27 EQ PUSH2 0xC12 JUMPI DUP1 PUSH4 0x69839B66 EQ PUSH2 0xBF7 JUMPI DUP1 PUSH4 0x7AE922BE EQ PUSH2 0x917 JUMPI DUP1 PUSH4 0x7BE700BA EQ PUSH2 0x480 JUMPI DUP1 PUSH4 0x7FC9592D EQ PUSH2 0x30C JUMPI DUP1 PUSH4 0x80AFDEA8 EQ PUSH2 0x21D JUMPI DUP1 PUSH4 0xAAD24061 EQ PUSH2 0x1F1 JUMPI DUP1 PUSH4 0xB9209E33 EQ PUSH2 0x1B3 JUMPI DUP1 PUSH4 0xE35FE366 EQ PUSH2 0x1B3 JUMPI DUP1 PUSH4 0xF851A440 EQ PUSH2 0x186 JUMPI PUSH4 0xF883E478 EQ PUSH2 0xB0 JUMPI PUSH1 0x0 DUP1 REVERT JUMPDEST CALLVALUE PUSH2 0x182 JUMPI DUP2 PUSH1 0x3 NOT CALLDATASIZE ADD SLT PUSH2 0x182 JUMPI PUSH2 0xC8 PUSH2 0xD96 JUMP JUMPDEST SWAP1 PUSH1 0x24 CALLDATALOAD SWAP2 PUSH8 0xFFFFFFFFFFFFFFFF DUP4 GT PUSH2 0x17E JUMPI PUSH2 0x10D PUSH2 0x178 SWAP3 PUSH32 0x3B56C041A4C2E60799EDF637B19F958011D99C582CE76AF1D7DE3B1C73436F85 SWAP5 CALLDATASIZE SWAP2 ADD PUSH2 0xF5D JUMP JUMPDEST PUSH1 0x3 SLOAD SWAP1 SWAP2 PUSH1 0x1 PUSH1 0x1 PUSH1 0xA0 SHL SUB SWAP2 PUSH2 0x128 SWAP1 DUP4 AND CALLER EQ PUSH2 0xFB4 JUMP JUMPDEST AND SWAP4 DUP5 DUP7 MSTORE PUSH1 0x2 PUSH1 0x20 MSTORE PUSH2 0x141 PUSH1 0xFF DUP3 DUP9 KECCAK256 SLOAD AND PUSH2 0x1021 JUMP JUMPDEST DUP5 DUP7 MSTORE DUP6 PUSH1 0x20 MSTORE PUSH1 0xC DUP2 DUP8 KECCAK256 ADD PUSH1 0xFF NOT SWAP1 DUP2 DUP2 SLOAD AND SWAP1 SSTORE PUSH1 0x2 PUSH1 0x20 MSTORE DUP2 DUP8 KECCAK256 SWAP1 DUP2 SLOAD AND SWAP1 SSTORE MLOAD SWAP2 DUP3 SWAP2 PUSH1 0x20 DUP4 MSTORE PUSH1 0x20 DUP4 ADD SWAP1 PUSH2 0xF1D JUMP JUMPDEST SUB SWAP1 LOG2 DUP1 RETURN JUMPDEST DUP5 DUP1 REVERT JUMPDEST DUP3 DUP1 REVERT JUMPDEST POP POP CALLVALUE PUSH2 0x1AF JUMPI DUP2 PUSH1 0x3 NOT CALLDATASIZE ADD SLT PUSH2 0x1AF JUMPI PUSH1 0x3 SLOAD SWAP1 MLOAD PUSH1 0x1 PUSH1 0x1 PUSH1 0xA0 SHL SUB SWAP1 SWAP2 AND DUP2 MSTORE PUSH1 0x20 SWAP1 RETURN JUMPDEST POP DUP1 REVERT JUMPDEST POP POP CALLVALUE PUSH2 0x1AF JUMPI PUSH1 0x20 CALLDATASIZE PUSH1 0x3 NOT ADD SLT PUSH2 0x1AF JUMPI PUSH1 0x20 SWAP2 PUSH1 0xFF SWAP1 DUP3 SWAP1 PUSH1 0x1 PUSH1 0x1 PUSH1 0xA0 SHL SUB PUSH2 0x1DE PUSH2 0xD96 JUMP JUMPDEST AND DUP2 MSTORE PUSH1 0x2 DUP6 MSTORE KECCAK256 SLOAD AND SWAP1 MLOAD SWAP1 ISZERO ISZERO DUP2 MSTORE RETURN JUMPDEST POP CALLVALUE PUSH2 0x182 JUMPI PUSH1 0x20 CALLDATASIZE PUSH1 0x3 NOT ADD SLT PUSH2 0x182 JUMPI DUP2 PUSH1 0x20 SWAP4 PUSH1 0xFF SWAP3 CALLDATALOAD DUP2 MSTORE PUSH1 0x1 DUP6 MSTORE KECCAK256 SLOAD AND SWAP1 MLOAD SWAP1 ISZERO ISZERO DUP2 MSTORE RETURN JUMPDEST POP SWAP1 CALLVALUE PUSH2 0x182 JUMPI DUP3 PUSH1 0x3 NOT CALLDATASIZE ADD SLT PUSH2 0x182 JUMPI DUP1 MLOAD DUP4 DUP2 SWAP5 SWAP1 DUP5 SLOAD PUSH2 0x240 DUP2 PUSH2 0xDB1 JUMP JUMPDEST SWAP2 DUP3 DUP6 MSTORE PUSH1 0x20 SWAP7 PUSH1 0x1 SWAP3 DUP9 PUSH1 0x1 DUP3 AND SWAP2 DUP3 PUSH1 0x0 EQ PUSH2 0x2E2 JUMPI POP POP PUSH1 0x1 EQ PUSH2 0x287 JUMPI JUMPDEST DUP6 DUP9 PUSH2 0x283 DUP10 PUSH2 0x274 DUP5 DUP11 SUB DUP6 PUSH2 0xE56 JUMP JUMPDEST MLOAD SWAP3 DUP3 DUP5 SWAP4 DUP5 MSTORE DUP4 ADD SWAP1 PUSH2 0xF1D JUMP JUMPDEST SUB SWAP1 RETURN JUMPDEST DUP2 MSTORE DUP7 SWAP4 POP SWAP2 SWAP1 PUSH32 0x8A35ACFBC15FF81A39AE7D344FD709F28E8600B4AA8C65C6B64BFE7FE36BD19B JUMPDEST DUP3 DUP5 LT PUSH2 0x2CA JUMPI POP POP POP DUP3 ADD ADD DUP2 PUSH2 0x274 PUSH2 0x283 CODESIZE PUSH2 0x262 JUMP JUMPDEST DUP1 SLOAD DUP5 DUP11 ADD DUP7 ADD MSTORE DUP9 SWAP6 POP DUP8 SWAP5 SWAP1 SWAP4 ADD SWAP3 DUP2 ADD PUSH2 0x2B0 JUMP JUMPDEST PUSH1 0xFF NOT AND DUP9 DUP3 ADD MSTORE SWAP5 ISZERO ISZERO PUSH1 0x5 SHL DUP8 ADD SWAP1 SWAP5 ADD SWAP5 POP DUP6 SWAP4 POP PUSH2 0x274 SWAP3 POP PUSH2 0x283 SWAP2 POP CODESIZE SWAP1 POP PUSH2 0x262 JUMP JUMPDEST POP POP CALLVALUE PUSH2 0x1AF JUMPI PUSH1 0x20 DUP1 PUSH1 0x3 NOT CALLDATASIZE ADD SLT PUSH2 0x182 JUMPI PUSH2 0x328 PUSH2 0xD96 JUMP JUMPDEST DUP4 PUSH1 0xA0 DUP5 MLOAD PUSH2 0x336 DUP2 PUSH2 0xDEB JUMP JUMPDEST DUP3 DUP2 MSTORE DUP3 DUP6 DUP3 ADD MSTORE DUP6 MLOAD PUSH2 0x349 DUP2 PUSH2 0xE1D JUMP JUMPDEST PUSH2 0x100 CALLDATASIZE DUP3 CALLDATACOPY DUP2 DUP8 ADD MSTORE PUSH1 0x60 DUP1 DUP3 ADD MSTORE PUSH1 0x80 DUP2 ADD DUP4 SWAP1 MSTORE ADD MSTORE PUSH1 0x1 PUSH1 0x1 PUSH1 0xA0 SHL SUB AND DUP1 DUP5 MSTORE PUSH1 0x2 DUP3 MSTORE DUP3 DUP5 KECCAK256 SLOAD PUSH2 0x382 SWAP1 PUSH1 0xFF AND PUSH2 0x1021 JUMP JUMPDEST DUP4 MSTORE DUP3 DUP2 MSTORE DUP2 DUP4 KECCAK256 SWAP1 DUP3 MLOAD SWAP3 PUSH2 0x397 DUP5 PUSH2 0xDEB JUMP JUMPDEST DUP3 SLOAD DUP5 MSTORE PUSH1 0x1 SWAP5 PUSH1 0x1 DUP5 ADD SLOAD SWAP3 DUP1 DUP7 ADD SWAP4 DUP5 MSTORE DUP3 MLOAD DUP1 DUP9 PUSH1 0x2 DUP9 ADD SWAP2 DUP5 DUP7 SWAP2 JUMPDEST PUSH1 0x8 DUP4 LT PUSH2 0x46C JUMPI POP POP POP POP POP PUSH2 0x3CD DUP2 PUSH2 0xE1D JUMP JUMPDEST DUP4 DUP8 ADD SWAP1 DUP2 MSTORE PUSH2 0x3DF PUSH1 0xA DUP8 ADD PUSH2 0xE78 JUMP JUMPDEST SWAP4 PUSH1 0x60 DUP9 ADD SWAP5 DUP6 MSTORE PUSH1 0xFF PUSH1 0xC PUSH1 0xB DUP10 ADD SLOAD SWAP9 PUSH1 0x80 DUP12 ADD SWAP10 DUP11 MSTORE ADD SLOAD AND SWAP6 PUSH1 0xA0 DUP10 ADD SWAP7 ISZERO ISZERO DUP8 MSTORE DUP2 MLOAD SWAP9 DUP5 DUP11 MSTORE MLOAD DUP5 DUP11 ADD MSTORE MLOAD SWAP1 DUP9 ADD MSTORE MLOAD PUSH1 0x60 DUP8 ADD SWAP1 SWAP3 SWAP1 JUMPDEST PUSH1 0x8 DUP3 LT PUSH2 0x459 JUMPI DUP8 DUP1 DUP9 DUP9 DUP9 MLOAD SWAP1 PUSH2 0x446 PUSH2 0x1A0 SWAP3 DUP4 PUSH2 0x160 DUP8 ADD MSTORE PUSH2 0x1C0 DUP7 ADD SWAP1 PUSH2 0xF1D JUMP JUMPDEST SWAP3 MLOAD PUSH2 0x180 DUP6 ADD MSTORE MLOAD ISZERO ISZERO SWAP1 DUP4 ADD MSTORE SUB SWAP1 RETURN JUMPDEST DUP4 MLOAD DUP2 MSTORE SWAP3 DUP3 ADD SWAP3 SWAP1 DUP9 ADD SWAP1 DUP3 ADD PUSH2 0x41E JUMP JUMPDEST DUP5 SLOAD DUP2 MSTORE SWAP4 DUP4 ADD SWAP4 SWAP2 DUP4 ADD SWAP2 DUP7 SWAP2 ADD PUSH2 0x3B7 JUMP JUMPDEST POP CALLVALUE PUSH2 0x182 JUMPI PUSH2 0x160 CALLDATASIZE PUSH1 0x3 NOT ADD SLT PUSH2 0x182 JUMPI DUP1 CALLDATALOAD PUSH1 0x24 SWAP2 DUP3 CALLDATALOAD SWAP3 CALLDATASIZE PUSH1 0x63 SLT ISZERO PUSH2 0x913 JUMPI DUP5 MLOAD SWAP3 PUSH2 0x4B0 DUP5 PUSH2 0xE1D JUMP JUMPDEST PUSH2 0x144 DUP5 CALLDATASIZE DUP3 GT PUSH2 0x8FF JUMPI PUSH1 0x44 SWAP1 JUMPDEST DUP3 DUP3 LT PUSH2 0x903 JUMPI POP POP CALLDATALOAD SWAP2 PUSH8 0xFFFFFFFFFFFFFFFF SWAP3 DUP4 DUP2 GT PUSH2 0x8FF JUMPI PUSH2 0x4E8 SWAP1 CALLDATASIZE SWAP1 DUP7 ADD PUSH2 0xF5D JUMP JUMPDEST SWAP5 DUP7 DUP10 MSTORE PUSH1 0x1 SWAP4 PUSH1 0x20 SWAP6 DUP6 DUP8 MSTORE PUSH1 0xFF DUP11 DUP13 KECCAK256 SLOAD AND PUSH2 0x8C4 JUMPI CALLER DUP12 MSTORE PUSH1 0x2 DUP8 MSTORE PUSH1 0xFF DUP11 DUP13 KECCAK256 SLOAD AND PUSH2 0x88A JUMPI DUP8 MLOAD PUSH32 0xB60DFD2D76B37248D06A548F402532200B7A08F600ECE90F63C05723C91CF2A8 DUP12 PUSH3 0x27A921 PUSH1 0xE9 SHL DUP11 DUP1 DUP14 ADD SWAP5 DUP6 KECCAK256 SWAP3 MLOAD PUSH2 0x54F DUP2 PUSH2 0xE3A JUMP JUMPDEST PUSH1 0x3 DUP2 MSTORE ADD MSTORE EQ SWAP1 DUP2 ISZERO PUSH2 0x840 JUMPI JUMPDEST POP ISZERO PUSH2 0x7FE JUMPI DUP5 ISZERO ISZERO DUP1 PUSH2 0x7F5 JUMPI JUMPDEST DUP1 PUSH2 0x7EB JUMPI JUMPDEST ISZERO PUSH2 0x7B0 JUMPI SWAP1 DUP8 SWAP2 DUP7 SWAP6 SWAP5 DUP13 DUP8 DUP11 SWAP7 DUP14 DUP16 DUP1 MLOAD SWAP11 PUSH2 0x590 DUP13 PUSH2 0xDEB JUMP JUMPDEST DUP12 MSTORE DUP10 DUP12 ADD SWAP2 DUP3 MSTORE DUP1 DUP12 ADD SWAP3 DUP4 MSTORE PUSH1 0x60 DUP12 ADD SWAP9 DUP10 MSTORE DUP5 PUSH1 0x80 DUP13 ADD SWAP11 TIMESTAMP DUP13 MSTORE PUSH1 0xA0 DUP14 ADD SWAP15 DUP16 MSTORE CALLER DUP3 MSTORE MSTORE DUP5 KECCAK256 SWAP10 MLOAD DUP11 SSTORE MLOAD DUP3 DUP11 ADD SSTORE MLOAD SWAP2 JUMPDEST PUSH1 0x8 DUP2 LT PUSH2 0x79B JUMPI POP POP POP PUSH1 0xA DUP7 ADD SWAP4 MLOAD SWAP2 DUP3 MLOAD SWAP4 DUP5 GT PUSH2 0x78A JUMPI POP POP DUP12 PUSH2 0x5EF DUP5 SLOAD PUSH2 0xDB1 JUMP JUMPDEST DUP10 PUSH1 0x1F DUP3 GT PUSH2 0x751 JUMPI JUMPDEST POP POP POP DUP8 SWAP1 DUP13 PUSH1 0x1F DUP5 GT PUSH1 0x1 EQ PUSH2 0x6C2 JUMPI SWAP4 DUP4 PUSH1 0xC SWAP5 PUSH2 0x6A8 SWAP12 SWAP9 SWAP5 PUSH32 0xE7F244AAC8DD2C9C62EB282436E5FA591BB07F0E6219A03436EB819B75DE86FA SWAP15 SWAP14 SWAP12 SWAP9 SWAP5 PUSH1 0x60 SWAP12 SWAP9 SWAP3 PUSH2 0x6B7 JUMPI JUMPDEST POP POP PUSH1 0x0 NOT PUSH1 0x3 DUP4 SWAP1 SHL SHR NOT AND SWAP1 DUP7 SHL OR SWAP1 SSTORE JUMPDEST MLOAD PUSH1 0xB DUP3 ADD SSTORE ADD SWAP2 MLOAD ISZERO ISZERO SWAP2 PUSH1 0xFF NOT SWAP3 PUSH1 0xFF DUP5 DUP4 SLOAD AND SWAP2 AND OR SWAP1 SSTORE DUP7 DUP11 MSTORE DUP1 DUP4 MSTORE DUP9 DUP11 KECCAK256 DUP2 DUP4 DUP3 SLOAD AND OR SWAP1 SSTORE CALLER DUP11 MSTORE PUSH1 0x2 DUP4 MSTORE DUP9 DUP11 KECCAK256 SWAP2 DUP3 SLOAD AND OR SWAP1 SSTORE DUP7 MLOAD SWAP5 DUP6 MSTORE DUP5 ADD MSTORE PUSH1 0x60 DUP4 ADD SWAP1 PUSH2 0xF1D JUMP JUMPDEST SWAP3 TIMESTAMP SWAP1 DUP3 ADD MSTORE DUP1 CALLER SWAP4 SUB SWAP1 LOG2 DUP1 RETURN JUMPDEST ADD MLOAD SWAP1 POP CODESIZE DUP1 PUSH2 0x645 JUMP JUMPDEST SWAP2 SWAP1 PUSH1 0x1F NOT DUP5 AND DUP6 DUP5 MSTORE DUP11 DUP5 KECCAK256 SWAP4 JUMPDEST DUP2 DUP2 LT PUSH2 0x73C JUMPI POP SWAP8 DUP5 PUSH2 0x6A8 SWAP12 SWAP9 SWAP5 PUSH32 0xE7F244AAC8DD2C9C62EB282436E5FA591BB07F0E6219A03436EB819B75DE86FA SWAP15 SWAP14 SWAP12 SWAP9 SWAP5 DUP4 SWAP9 SWAP5 PUSH1 0xC SWAP9 PUSH1 0x60 SWAP14 LT PUSH2 0x723 JUMPI JUMPDEST POP POP POP DUP2 SHL ADD SWAP1 SSTORE PUSH2 0x659 JUMP JUMPDEST ADD MLOAD PUSH1 0x0 NOT PUSH1 0xF8 DUP5 PUSH1 0x3 SHL AND SHR NOT AND SWAP1 SSTORE CODESIZE DUP1 DUP1 PUSH2 0x716 JUMP JUMPDEST DUP3 DUP5 ADD MLOAD DUP6 SSTORE SWAP4 DUP10 ADD SWAP4 SWAP3 DUP12 ADD SWAP3 DUP12 ADD PUSH2 0x6D1 JUMP JUMPDEST DUP3 DUP7 PUSH2 0x778 SWAP5 MSTORE KECCAK256 PUSH1 0x1F DUP6 ADD PUSH1 0x5 SHR DUP2 ADD SWAP2 DUP12 DUP7 LT PUSH2 0x780 JUMPI JUMPDEST PUSH1 0x1F ADD PUSH1 0x5 SHR ADD SWAP1 PUSH2 0x100A JUMP JUMPDEST DUP12 CODESIZE DUP10 PUSH2 0x5F9 JUMP JUMPDEST SWAP1 SWAP2 POP DUP2 SWAP1 PUSH2 0x76B JUMP JUMPDEST PUSH4 0x4E487B71 PUSH1 0xE0 SHL DUP15 MSTORE PUSH1 0x41 SWAP1 MSTORE DUP13 REVERT JUMPDEST DUP12 DUP4 MLOAD SWAP4 ADD SWAP3 PUSH1 0x2 DUP3 DUP12 ADD ADD SSTORE ADD DUP9 SWAP1 PUSH2 0x5C7 JUMP JUMPDEST DUP10 MLOAD PUSH3 0x461BCD PUSH1 0xE5 SHL DUP2 MSTORE SWAP1 DUP2 ADD DUP8 SWAP1 MSTORE PUSH1 0x16 DUP2 DUP6 ADD MSTORE PUSH22 0x24B73B30B634B2102BB7B936321024A210383937B7B3 PUSH1 0x51 SHL PUSH1 0x44 DUP3 ADD MSTORE PUSH1 0x64 SWAP1 REVERT JUMPDEST POP DUP3 MLOAD ISZERO ISZERO PUSH2 0x573 JUMP JUMPDEST POP DUP9 ISZERO ISZERO PUSH2 0x56D JUMP JUMPDEST DUP10 MLOAD PUSH3 0x461BCD PUSH1 0xE5 SHL DUP2 MSTORE SWAP1 DUP2 ADD DUP8 SWAP1 MSTORE PUSH1 0x1A DUP2 DUP6 ADD MSTORE PUSH32 0x496E76616C696420766572696669636174696F6E206C6576656C000000000000 PUSH1 0x44 DUP3 ADD MSTORE PUSH1 0x64 SWAP1 REVERT JUMPDEST PUSH32 0xDCFA7035A5C1DA005E9057DFE74F35F457DF142AD11B8584F13E433660D15CE5 SWAP2 POP DUP10 MLOAD SWAP1 KECCAK256 PUSH6 0x444556494345 PUSH1 0xD0 SHL DUP10 DUP14 MLOAD PUSH2 0x87D DUP2 PUSH2 0xE3A JUMP JUMPDEST PUSH1 0x6 DUP2 MSTORE ADD MSTORE EQ CODESIZE PUSH2 0x55E JUMP JUMPDEST DUP10 MLOAD PUSH3 0x461BCD PUSH1 0xE5 SHL DUP2 MSTORE SWAP1 DUP2 ADD DUP8 SWAP1 MSTORE PUSH1 0x15 DUP2 DUP6 ADD MSTORE PUSH21 0x155CD95C88185B1C9958591E481D995C9A599A5959 PUSH1 0x5A SHL PUSH1 0x44 DUP3 ADD MSTORE PUSH1 0x64 SWAP1 REVERT JUMPDEST DUP10 MLOAD PUSH3 0x461BCD PUSH1 0xE5 SHL DUP2 MSTORE SWAP1 DUP2 ADD DUP8 SWAP1 MSTORE PUSH1 0x16 DUP2 DUP6 ADD MSTORE PUSH22 0x139D5B1B1A599A595C88185B1C9958591E481D5CD959 PUSH1 0x52 SHL PUSH1 0x44 DUP3 ADD MSTORE PUSH1 0x64 SWAP1 REVERT JUMPDEST DUP9 DUP1 REVERT JUMPDEST DUP2 CALLDATALOAD DUP2 MSTORE PUSH1 0x20 SWAP2 DUP3 ADD SWAP2 ADD PUSH2 0x4BF JUMP JUMPDEST DUP6 DUP1 REVERT JUMPDEST POP SWAP2 SWAP1 CALLVALUE PUSH2 0x1AF JUMPI CALLDATASIZE PUSH1 0x3 NOT ADD SLT PUSH2 0xBF4 JUMPI PUSH8 0xFFFFFFFFFFFFFFFF DUP3 CALLDATALOAD DUP2 DUP2 GT PUSH2 0x182 JUMPI PUSH2 0x948 SWAP1 CALLDATASIZE SWAP1 DUP6 ADD PUSH2 0xF5D JUMP JUMPDEST SWAP1 PUSH1 0x24 CALLDATALOAD DUP2 DUP2 GT PUSH2 0xBF0 JUMPI PUSH2 0x960 SWAP1 CALLDATASIZE SWAP1 DUP7 ADD PUSH2 0xF5D JUMP JUMPDEST SWAP4 PUSH2 0x976 PUSH1 0x1 DUP1 PUSH1 0xA0 SHL SUB PUSH1 0x3 SLOAD AND CALLER EQ PUSH2 0xFB4 JUMP JUMPDEST DUP3 MLOAD DUP3 DUP2 GT PUSH2 0xBDD JUMPI DUP1 PUSH2 0x98A DUP4 SLOAD PUSH2 0xDB1 JUMP JUMPDEST SWAP5 PUSH1 0x1F SWAP6 DUP7 DUP2 GT PUSH2 0xB88 JUMPI JUMPDEST POP PUSH1 0x20 SWAP1 DUP7 DUP4 GT PUSH1 0x1 EQ PUSH2 0xB07 JUMPI DUP8 SWAP3 PUSH2 0xAFC JUMPI JUMPDEST POP POP DUP2 PUSH1 0x1 SHL SWAP2 PUSH1 0x0 NOT SWAP1 PUSH1 0x3 SHL SHR NOT AND OR DUP2 SSTORE JUMPDEST DUP5 MLOAD SWAP2 DUP3 GT PUSH2 0xAE9 JUMPI POP PUSH1 0x5 SWAP2 PUSH2 0x9D7 DUP4 SLOAD PUSH2 0xDB1 JUMP JUMPDEST DUP2 DUP2 GT PUSH2 0xA96 JUMPI JUMPDEST POP PUSH1 0x20 SWAP1 DUP3 GT PUSH1 0x1 EQ PUSH2 0xA19 JUMPI DUP4 SWAP5 DUP3 SWAP4 SWAP5 SWAP3 PUSH2 0xA0E JUMPI JUMPDEST POP POP DUP2 PUSH1 0x1 SHL SWAP2 PUSH1 0x0 NOT SWAP1 PUSH1 0x3 SHL SHR NOT AND OR SWAP1 SSTORE DUP1 RETURN JUMPDEST ADD MLOAD SWAP1 POP CODESIZE DUP1 PUSH2 0x9F7 JUMP JUMPDEST DUP3 DUP5 MSTORE PUSH32 0x36B6384B5ECA791C62761152D0C79BB0604C104A5FB6F4EB0703F3154BB3DB0 SWAP1 PUSH1 0x1F NOT DUP4 AND DUP6 JUMPDEST DUP2 DUP2 LT PUSH2 0xA7E JUMPI POP SWAP6 DUP4 PUSH1 0x1 SWAP6 SWAP7 SWAP8 LT PUSH2 0xA65 JUMPI JUMPDEST POP POP POP DUP2 SHL ADD SWAP1 SSTORE DUP1 RETURN JUMPDEST ADD MLOAD PUSH1 0x0 NOT PUSH1 0xF8 DUP5 PUSH1 0x3 SHL AND SHR NOT AND SWAP1 SSTORE CODESIZE DUP1 DUP1 PUSH2 0xA5A JUMP JUMPDEST SWAP2 SWAP3 PUSH1 0x20 PUSH1 0x1 DUP2 SWAP3 DUP7 DUP12 ADD MLOAD DUP2 SSTORE ADD SWAP5 ADD SWAP3 ADD PUSH2 0xA45 JUMP JUMPDEST PUSH2 0xADA SWAP1 DUP5 DUP7 MSTORE PUSH32 0x36B6384B5ECA791C62761152D0C79BB0604C104A5FB6F4EB0703F3154BB3DB0 DUP4 DUP1 DUP7 ADD DUP8 SHR DUP3 ADD SWAP3 PUSH1 0x20 DUP8 LT PUSH2 0xAE0 JUMPI JUMPDEST ADD DUP7 SHR ADD SWAP1 PUSH2 0x100A JUMP JUMPDEST CODESIZE PUSH2 0x9DF JUMP JUMPDEST SWAP3 POP DUP2 SWAP3 PUSH2 0xAD0 JUMP JUMPDEST PUSH4 0x4E487B71 PUSH1 0xE0 SHL DUP5 MSTORE PUSH1 0x41 SWAP1 MSTORE PUSH1 0x24 DUP4 REVERT JUMPDEST ADD MLOAD SWAP1 POP CODESIZE DUP1 PUSH2 0x9AB JUMP JUMPDEST DUP5 DUP9 MSTORE PUSH32 0x8A35ACFBC15FF81A39AE7D344FD709F28E8600B4AA8C65C6B64BFE7FE36BD19B SWAP3 POP PUSH1 0x1F NOT DUP5 AND DUP9 JUMPDEST DUP2 DUP2 LT PUSH2 0xB70 JUMPI POP SWAP1 DUP5 PUSH1 0x1 SWAP6 SWAP5 SWAP4 SWAP3 LT PUSH2 0xB57 JUMPI JUMPDEST POP POP POP DUP2 SHL ADD DUP2 SSTORE PUSH2 0x9C0 JUMP JUMPDEST ADD MLOAD PUSH1 0x0 NOT PUSH1 0xF8 DUP5 PUSH1 0x3 SHL AND SHR NOT AND SWAP1 SSTORE CODESIZE DUP1 DUP1 PUSH2 0xB4A JUMP JUMPDEST SWAP3 SWAP4 PUSH1 0x20 PUSH1 0x1 DUP2 SWAP3 DUP8 DUP7 ADD MLOAD DUP2 SSTORE ADD SWAP6 ADD SWAP4 ADD PUSH2 0xB34 JUMP JUMPDEST PUSH2 0xBCE SWAP1 DUP6 DUP10 MSTORE PUSH32 0x8A35ACFBC15FF81A39AE7D344FD709F28E8600B4AA8C65C6B64BFE7FE36BD19B DUP9 DUP1 DUP7 ADD PUSH1 0x5 SHR DUP3 ADD SWAP3 PUSH1 0x20 DUP8 LT PUSH2 0xBD4 JUMPI JUMPDEST ADD PUSH1 0x5 SHR ADD SWAP1 PUSH2 0x100A JUMP JUMPDEST CODESIZE PUSH2 0x996 JUMP JUMPDEST SWAP3 POP DUP2 SWAP3 PUSH2 0xBC3 JUMP JUMPDEST PUSH4 0x4E487B71 PUSH1 0xE0 SHL DUP6 MSTORE PUSH1 0x41 DUP3 MSTORE PUSH1 0x24 DUP6 REVERT JUMPDEST DUP4 DUP1 REVERT JUMPDEST DUP1 REVERT JUMPDEST POP POP CALLVALUE PUSH2 0x1AF JUMPI DUP2 PUSH1 0x3 NOT CALLDATASIZE ADD SLT PUSH2 0x1AF JUMPI MLOAD SWAP1 DUP2 MSTORE PUSH1 0x20 SWAP1 RETURN JUMPDEST DUP4 CALLVALUE PUSH2 0xBF4 JUMPI DUP1 PUSH1 0x3 NOT CALLDATASIZE ADD SLT PUSH2 0xBF4 JUMPI PUSH2 0xC38 PUSH1 0x1 DUP1 PUSH1 0xA0 SHL SUB PUSH1 0x3 SLOAD AND CALLER EQ PUSH2 0xFB4 JUMP JUMPDEST DUP1 RETURN JUMPDEST DUP3 DUP5 CALLVALUE PUSH2 0xBF4 JUMPI DUP1 PUSH1 0x3 NOT CALLDATASIZE ADD SLT PUSH2 0xBF4 JUMPI DUP2 MLOAD SWAP2 DUP3 DUP3 PUSH1 0x5 SLOAD PUSH2 0xC5E DUP2 PUSH2 0xDB1 JUMP JUMPDEST SWAP1 DUP2 DUP5 MSTORE PUSH1 0x20 SWAP6 PUSH1 0x1 SWAP2 DUP8 PUSH1 0x1 DUP3 AND SWAP2 DUP3 PUSH1 0x0 EQ PUSH2 0xCEF JUMPI POP POP PUSH1 0x1 EQ PUSH2 0xC93 JUMPI JUMPDEST POP POP POP PUSH2 0x283 SWAP3 SWAP2 PUSH2 0x274 SWAP2 SUB DUP6 PUSH2 0xE56 JUMP JUMPDEST SWAP2 SWAP1 DUP7 SWAP4 POP PUSH1 0x5 DUP4 MSTORE PUSH32 0x36B6384B5ECA791C62761152D0C79BB0604C104A5FB6F4EB0703F3154BB3DB0 JUMPDEST DUP3 DUP5 LT PUSH2 0xCD7 JUMPI POP POP POP DUP3 ADD ADD DUP2 PUSH2 0x274 PUSH2 0x283 PUSH2 0xC80 JUMP JUMPDEST DUP1 SLOAD DUP5 DUP11 ADD DUP7 ADD MSTORE DUP9 SWAP6 POP DUP8 SWAP5 SWAP1 SWAP4 ADD SWAP3 DUP2 ADD PUSH2 0xCBE JUMP JUMPDEST PUSH1 0xFF NOT AND DUP8 DUP3 ADD MSTORE SWAP4 ISZERO ISZERO PUSH1 0x5 SHL DUP7 ADD SWAP1 SWAP4 ADD SWAP4 POP DUP5 SWAP3 POP PUSH2 0x274 SWAP2 POP PUSH2 0x283 SWAP1 POP PUSH2 0xC80 JUMP JUMPDEST POP POP CALLVALUE PUSH2 0x1AF JUMPI PUSH1 0x20 CALLDATASIZE PUSH1 0x3 NOT ADD SLT PUSH2 0x1AF JUMPI SWAP1 DUP2 SWAP1 PUSH1 0x1 PUSH1 0x1 PUSH1 0xA0 SHL SUB PUSH2 0xD3C PUSH2 0xD96 JUMP JUMPDEST AND DUP2 MSTORE DUP1 PUSH1 0x20 MSTORE KECCAK256 DUP1 SLOAD SWAP1 PUSH1 0x1 DUP2 ADD SLOAD SWAP3 PUSH2 0xD85 PUSH2 0xD5C PUSH1 0xA DUP5 ADD PUSH2 0xE78 JUMP JUMPDEST PUSH1 0xA0 PUSH1 0xFF PUSH1 0xC PUSH1 0xB DUP8 ADD SLOAD SWAP7 ADD SLOAD AND SWAP4 DUP1 MLOAD SWAP8 DUP9 SWAP8 DUP9 MSTORE PUSH1 0x20 DUP9 ADD MSTORE DUP7 ADD MSTORE PUSH1 0xA0 DUP6 ADD SWAP1 PUSH2 0xF1D JUMP JUMPDEST SWAP2 PUSH1 0x60 DUP5 ADD MSTORE ISZERO ISZERO PUSH1 0x80 DUP4 ADD MSTORE SUB SWAP1 RETURN JUMPDEST PUSH1 0x4 CALLDATALOAD SWAP1 PUSH1 0x1 PUSH1 0x1 PUSH1 0xA0 SHL SUB DUP3 AND DUP3 SUB PUSH2 0xDAC JUMPI JUMP JUMPDEST PUSH1 0x0 DUP1 REVERT JUMPDEST SWAP1 PUSH1 0x1 DUP3 DUP2 SHR SWAP3 AND DUP1 ISZERO PUSH2 0xDE1 JUMPI JUMPDEST PUSH1 0x20 DUP4 LT EQ PUSH2 0xDCB JUMPI JUMP JUMPDEST PUSH4 0x4E487B71 PUSH1 0xE0 SHL PUSH1 0x0 MSTORE PUSH1 0x22 PUSH1 0x4 MSTORE PUSH1 0x24 PUSH1 0x0 REVERT JUMPDEST SWAP2 PUSH1 0x7F AND SWAP2 PUSH2 0xDC0 JUMP JUMPDEST PUSH1 0xC0 DUP2 ADD SWAP1 DUP2 LT PUSH8 0xFFFFFFFFFFFFFFFF DUP3 GT OR PUSH2 0xE07 JUMPI PUSH1 0x40 MSTORE JUMP JUMPDEST PUSH4 0x4E487B71 PUSH1 0xE0 SHL PUSH1 0x0 MSTORE PUSH1 0x41 PUSH1 0x4 MSTORE PUSH1 0x24 PUSH1 0x0 REVERT JUMPDEST PUSH2 0x100 DUP2 ADD SWAP1 DUP2 LT PUSH8 0xFFFFFFFFFFFFFFFF DUP3 GT OR PUSH2 0xE07 JUMPI PUSH1 0x40 MSTORE JUMP JUMPDEST PUSH1 0x40 DUP2 ADD SWAP1 DUP2 LT PUSH8 0xFFFFFFFFFFFFFFFF DUP3 GT OR PUSH2 0xE07 JUMPI PUSH1 0x40 MSTORE JUMP JUMPDEST SWAP1 PUSH1 0x1F DUP1 NOT SWAP2 ADD AND DUP2 ADD SWAP1 DUP2 LT PUSH8 0xFFFFFFFFFFFFFFFF DUP3 GT OR PUSH2 0xE07 JUMPI PUSH1 0x40 MSTORE JUMP JUMPDEST SWAP1 PUSH1 0x40 MLOAD SWAP2 DUP3 PUSH1 0x0 DUP3 SLOAD PUSH2 0xE8B DUP2 PUSH2 0xDB1 JUMP JUMPDEST SWAP1 DUP2 DUP5 MSTORE PUSH1 0x20 SWAP5 PUSH1 0x1 SWAP2 PUSH1 0x1 DUP2 AND SWAP1 DUP2 PUSH1 0x0 EQ PUSH2 0xEFB JUMPI POP PUSH1 0x1 EQ PUSH2 0xEBC JUMPI JUMPDEST POP POP POP PUSH2 0xEBA SWAP3 POP SUB DUP4 PUSH2 0xE56 JUMP JUMPDEST JUMP JUMPDEST PUSH1 0x0 SWAP1 DUP2 MSTORE DUP6 DUP2 KECCAK256 SWAP6 SWAP4 POP SWAP2 SWAP1 JUMPDEST DUP2 DUP4 LT PUSH2 0xEE3 JUMPI POP POP PUSH2 0xEBA SWAP4 POP DUP3 ADD ADD CODESIZE DUP1 DUP1 PUSH2 0xEAB JUMP JUMPDEST DUP6 SLOAD DUP9 DUP5 ADD DUP6 ADD MSTORE SWAP5 DUP6 ADD SWAP5 DUP8 SWAP5 POP SWAP2 DUP4 ADD SWAP2 PUSH2 0xECA JUMP JUMPDEST SWAP3 POP POP POP PUSH2 0xEBA SWAP5 SWAP3 POP PUSH1 0xFF NOT AND DUP3 DUP5 ADD MSTORE ISZERO ISZERO PUSH1 0x5 SHL DUP3 ADD ADD CODESIZE DUP1 DUP1 PUSH2 0xEAB JUMP JUMPDEST SWAP2 SWAP1 DUP3 MLOAD SWAP3 DUP4 DUP3 MSTORE PUSH1 0x0 JUMPDEST DUP5 DUP2 LT PUSH2 0xF49 JUMPI POP POP DUP3 PUSH1 0x0 PUSH1 0x20 DUP1 SWAP5 SWAP6 DUP5 ADD ADD MSTORE PUSH1 0x1F DUP1 NOT SWAP2 ADD AND ADD ADD SWAP1 JUMP JUMPDEST PUSH1 0x20 DUP2 DUP4 ADD DUP2 ADD MLOAD DUP5 DUP4 ADD DUP3 ADD MSTORE ADD PUSH2 0xF28 JUMP JUMPDEST DUP2 PUSH1 0x1F DUP3 ADD SLT ISZERO PUSH2 0xDAC JUMPI DUP1 CALLDATALOAD SWAP1 PUSH8 0xFFFFFFFFFFFFFFFF DUP3 GT PUSH2 0xE07 JUMPI PUSH1 0x40 MLOAD SWAP3 PUSH2 0xF92 PUSH1 0x1F DUP5 ADD PUSH1 0x1F NOT AND PUSH1 0x20 ADD DUP6 PUSH2 0xE56 JUMP JUMPDEST DUP3 DUP5 MSTORE PUSH1 0x20 DUP4 DUP4 ADD ADD GT PUSH2 0xDAC JUMPI DUP2 PUSH1 0x0 SWAP3 PUSH1 0x20 DUP1 SWAP4 ADD DUP4 DUP7 ADD CALLDATACOPY DUP4 ADD ADD MSTORE SWAP1 JUMP JUMPDEST ISZERO PUSH2 0xFBB JUMPI JUMP JUMPDEST PUSH1 0x40 MLOAD PUSH3 0x461BCD PUSH1 0xE5 SHL DUP2 MSTORE PUSH1 0x20 PUSH1 0x4 DUP3 ADD MSTORE PUSH1 0x21 PUSH1 0x24 DUP3 ADD MSTORE PUSH32 0x4F6E6C792061646D696E2063616E2063616C6C20746869732066756E6374696F PUSH1 0x44 DUP3 ADD MSTORE PUSH1 0x37 PUSH1 0xF9 SHL PUSH1 0x64 DUP3 ADD MSTORE PUSH1 0x84 SWAP1 REVERT JUMPDEST DUP2 DUP2 LT PUSH2 0x1015 JUMPI POP POP JUMP JUMPDEST PUSH1 0x0 DUP2 SSTORE PUSH1 0x1 ADD PUSH2 0x100A JUMP JUMPDEST ISZERO PUSH2 0x1028 JUMPI JUMP JUMPDEST PUSH1 0x40 MLOAD PUSH3 0x461BCD PUSH1 0xE5 SHL DUP2 MSTORE PUSH1 0x20 PUSH1 0x4 DUP3 ADD MSTORE PUSH1 0x11 PUSH1 0x24 DUP3 ADD MSTORE PUSH17 0x155CD95C881B9BDD081D995C9A599A5959 PUSH1 0x7A SHL PUSH1 0x44 DUP3 ADD MSTORE PUSH1 0x64 SWAP1 REVERT INVALID LOG2 PUSH5 0x6970667358 0x22 SLT KECCAK256 0xF6 DELEGATECALL 0xCC 0xA7 NUMBER PUSH11 0xB3069AB9A32960AFC8E340 0xE4 PUSH9 0x3945AB75910F21EA41 0xB2 0xE1 BLOBHASH PUSH13 0x64736F6C634300081800330000 "},"methodIdentifiers":{"actionId()":"36b6e82b","admin()":"f851a440","appId()":"80afdea8","emergencyPause()":"51858e27","getVerification(address)":"7fc9592d","getVerifiedUsersCount()":"69839b66","isVerified(address)":"b9209e33","revokeVerification(address,string)":"f883e478","updateConfig(string,string)":"7ae922be","usedNullifiers(uint256)":"aad24061","verifications(address)":"080c98da","verifiedUsers(address)":"e35fe366","verifyWithWorldID(uint256,uint256,uint256[8],string)":"7be700ba"}}}}}