{"contracts/VlayerIntegration.sol":{"VlayerIntegration":{"abi":[{"inputs":[{"internalType":"address","name":"_vlayerProver","type":"address"}],"stateMutability":"nonpayable","type":"constructor"},{"anonymous":false,"inputs":[{"indexed":true,"internalType":"bytes32","name":"proofHash","type":"bytes32"},{"indexed":false,"internalType":"string","name":"emailDomain","type":"string"},{"indexed":false,"internalType":"address","name":"verifier","type":"address"}],"name":"EmailProofVerified","type":"event"},{"anonymous":false,"inputs":[{"indexed":true,"internalType":"address","name":"newProver","type":"address"}],"name":"ProverUpdated","type":"event"},{"anonymous":false,"inputs":[{"indexed":true,"internalType":"bytes32","name":"proofHash","type":"bytes32"},{"indexed":false,"internalType":"uint256","name":"sourceChain","type":"uint256"},{"indexed":false,"internalType":"uint256","name":"targetChain","type":"uint256"}],"name":"TeleportProofExecuted","type":"event"},{"anonymous":false,"inputs":[{"indexed":true,"internalType":"bytes32","name":"proofHash","type":"bytes32"},{"indexed":false,"internalType":"uint256","name":"blockNumber","type":"uint256"},{"indexed":false,"internalType":"address","name":"prover","type":"address"}],"name":"TimeTravelProofCreated","type":"event"},{"anonymous":false,"inputs":[{"indexed":true,"internalType":"bytes32","name":"proofHash","type":"bytes32"},{"indexed":false,"internalType":"string","name":"dataSource","type":"string"},{"indexed":false,"internalType":"address","name":"prover","type":"address"}],"name":"WebProofVerified","type":"event"},{"inputs":[],"name":"admin","outputs":[{"internalType":"address","name":"","type":"address"}],"stateMutability":"view","type":"function"},{"inputs":[{"internalType":"bytes32","name":"proofHash","type":"bytes32"},{"internalType":"uint256","name":"blockNumber","type":"uint256"},{"internalType":"bytes32","name":"stateRoot","type":"bytes32"},{"internalType":"string","name":"dataType","type":"string"}],"name":"createTimeTravelProof","outputs":[],"stateMutability":"nonpayable","type":"function"},{"inputs":[{"internalType":"bytes32","name":"","type":"bytes32"}],"name":"emailProofs","outputs":[{"internalType":"bytes32","name":"proofHash","type":"bytes32"},{"internalType":"string","name":"emailDomain","type":"string"},{"internalType":"bytes32","name":"contentHash","type":"bytes32"},{"internalType":"address","name":"verifier","type":"address"},{"internalType":"uint256","name":"timestamp","type":"uint256"},{"internalType":"bool","name":"isValid","type":"bool"}],"stateMutability":"view","type":"function"},{"inputs":[{"internalType":"bytes32","name":"proofHash","type":"bytes32"},{"internalType":"uint256","name":"sourceChainId","type":"uint256"},{"internalType":"uint256","name":"targetChainId","type":"uint256"},{"internalType":"bytes32","name":"crossChainHash","type":"bytes32"}],"name":"executeTeleportProof","outputs":[],"stateMutability":"nonpayable","type":"function"},{"inputs":[{"internalType":"bytes32","name":"proofHash","type":"bytes32"}],"name":"getEmailProof","outputs":[{"components":[{"internalType":"bytes32","name":"proofHash","type":"bytes32"},{"internalType":"string","name":"emailDomain","type":"string"},{"internalType":"bytes32","name":"contentHash","type":"bytes32"},{"internalType":"address","name":"verifier","type":"address"},{"internalType":"uint256","name":"timestamp","type":"uint256"},{"internalType":"bool","name":"isValid","type":"bool"}],"internalType":"struct VlayerIntegration.EmailProof","name":"","type":"tuple"}],"stateMutability":"view","type":"function"},{"inputs":[{"internalType":"bytes32","name":"proofHash","type":"bytes32"}],"name":"getTeleportProof","outputs":[{"components":[{"internalType":"bytes32","name":"proofHash","type":"bytes32"},{"internalType":"uint256","name":"sourceChainId","type":"uint256"},{"internalType":"uint256","name":"targetChainId","type":"uint256"},{"internalType":"bytes32","name":"crossChainHash","type":"bytes32"},{"internalType":"address","name":"relayer","type":"address"},{"internalType":"uint256","name":"timestamp","type":"uint256"},{"internalType":"bool","name":"executed","type":"bool"}],"internalType":"struct VlayerIntegration.TeleportProof","name":"","type":"tuple"}],"stateMutability":"view","type":"function"},{"inputs":[{"internalType":"bytes32","name":"proofHash","type":"bytes32"}],"name":"getTimeTravelProof","outputs":[{"components":[{"internalType":"bytes32","name":"proofHash","type":"bytes32"},{"internalType":"uint256","name":"blockNumber","type":"uint256"},{"internalType":"bytes32","name":"stateRoot","type":"bytes32"},{"internalType":"string","name":"dataType","type":"string"},{"internalType":"address","name":"prover","type":"address"},{"internalType":"uint256","name":"timestamp","type":"uint256"},{"internalType":"bool","name":"verified","type":"bool"}],"internalType":"struct VlayerIntegration.TimeTravelProof","name":"","type":"tuple"}],"stateMutability":"view","type":"function"},{"inputs":[],"name":"getTotalProofs","outputs":[{"internalType":"uint256","name":"","type":"uint256"}],"stateMutability":"view","type":"function"},{"inputs":[{"internalType":"address","name":"user","type":"address"}],"name":"getUserProofs","outputs":[{"internalType":"bytes32[]","name":"","type":"bytes32[]"}],"stateMutability":"view","type":"function"},{"inputs":[{"internalType":"bytes32","name":"proofHash","type":"bytes32"}],"name":"getWebProof","outputs":[{"components":[{"internalType":"bytes32","name":"proofHash","type":"bytes32"},{"internalType":"string","name":"dataSource","type":"string"},{"internalType":"bytes32","name":"dataHash","type":"bytes32"},{"internalType":"uint256","name":"timestamp","type":"uint256"},{"internalType":"address","name":"prover","type":"address"},{"internalType":"bool","name":"verified","type":"bool"},{"internalType":"string","name":"metadata","type":"string"}],"internalType":"struct VlayerIntegration.WebProof","name":"","type":"tuple"}],"stateMutability":"view","type":"function"},{"inputs":[],"name":"proofCounter","outputs":[{"internalType":"uint256","name":"","type":"uint256"}],"stateMutability":"view","type":"function"},{"inputs":[{"internalType":"bytes32","name":"","type":"bytes32"}],"name":"teleportProofs","outputs":[{"internalType":"bytes32","name":"proofHash","type":"bytes32"},{"internalType":"uint256","name":"sourceChainId","type":"uint256"},{"internalType":"uint256","name":"targetChainId","type":"uint256"},{"internalType":"bytes32","name":"crossChainHash","type":"bytes32"},{"internalType":"address","name":"relayer","type":"address"},{"internalType":"uint256","name":"timestamp","type":"uint256"},{"internalType":"bool","name":"executed","type":"bool"}],"stateMutability":"view","type":"function"},{"inputs":[{"internalType":"bytes32","name":"","type":"bytes32"}],"name":"timeTravelProofs","outputs":[{"internalType":"bytes32","name":"proofHash","type":"bytes32"},{"internalType":"uint256","name":"blockNumber","type":"uint256"},{"internalType":"bytes32","name":"stateRoot","type":"bytes32"},{"internalType":"string","name":"dataType","type":"string"},{"internalType":"address","name":"prover","type":"address"},{"internalType":"uint256","name":"timestamp","type":"uint256"},{"internalType":"bool","name":"verified","type":"bool"}],"stateMutability":"view","type":"function"},{"inputs":[{"internalType":"address","name":"newProver","type":"address"}],"name":"updateProver","outputs":[],"stateMutability":"nonpayable","type":"function"},{"inputs":[{"internalType":"address","name":"","type":"address"},{"internalType":"uint256","name":"","type":"uint256"}],"name":"userProofs","outputs":[{"internalType":"bytes32","name":"","type":"bytes32"}],"stateMutability":"view","type":"function"},{"inputs":[{"internalType":"bytes32","name":"proofHash","type":"bytes32"},{"internalType":"string","name":"emailDomain","type":"string"},{"internalType":"bytes32","name":"contentHash","type":"bytes32"}],"name":"verifyEmailProof","outputs":[],"stateMutability":"nonpayable","type":"function"},{"inputs":[{"internalType":"bytes32","name":"proofHash","type":"bytes32"},{"internalType":"string","name":"dataSource","type":"string"},{"internalType":"bytes32","name":"dataHash","type":"bytes32"},{"internalType":"string","name":"metadata","type":"string"}],"name":"verifyWebProof","outputs":[],"stateMutability":"nonpayable","type":"function"},{"inputs":[],"name":"vlayerProver","outputs":[{"internalType":"address","name":"","type":"address"}],"stateMutability":"view","type":"function"},{"inputs":[{"internalType":"bytes32","name":"","type":"bytes32"}],"name":"webProofs","outputs":[{"internalType":"bytes32","name":"proofHash","type":"bytes32"},{"internalType":"string","name":"dataSource","type":"string"},{"internalType":"bytes32","name":"dataHash","type":"bytes32"},{"internalType":"uint256","name":"timestamp","type":"uint256"},{"internalType":"address","name":"prover","type":"address"},{"internalType":"bool","name":"verified","type":"bool"},{"internalType":"string","name":"metadata","type":"string"}],"stateMutability":"view","type":"function"}],"evm":{"bytecode":{"linkReferences":{},"object":"60803461007f57601f6119a338819003918201601f19168301916001600160401b038311848410176100845780849260209460405283398101031261007f57516001600160a01b0381169081900361007f5760018060a01b03193381600554161760055560065416176006556000600755604051611908908161009b8239f35b600080fd5b634e487b7160e01b600052604160045260246000fdfe6080604052600436101561001257600080fd5b60e0600035811c806303b9602e1461154d5780630a5670c71461121e5780630aef80541461116557806311d40bcd1461106c5780632a865d6b14610f48578063373b58e614610ef057806346bdfb8014610e3c57806352037a3414610c5d5780635aca5b4814610c345780636d9f4370146103b75780637402480214610b26578063853de72d1461082d578063950bac2a146103d55780639b1bc0c9146103b7578063a0be97a01461033e578063a69375c61461024f578063f3b0964c146101bc578063f851a440146101935763fbf2453e146100ee57600080fd5b3461018e57602036600319011261018e576004356000526000602052604060002061018a8154916101216001820161166a565b60ff600283015492600381015461015961014260056004850154940161166a565b94604051998a998a528060208b015289019061170f565b946040880152606087015260018060a01b038116608087015260a01c16151560a085015283820360c085015261170f565b0390f35b600080fd5b3461018e57600036600319011261018e576005546040516001600160a01b039091168152602090f35b503461018e57602036600319011261018e5760043560005260026020526040600020908154906001830154926002810154906102396101fd6003830161166a565b60018060a01b036004840154169460ff60066005860154950154169460405198899889526020890152604088015280606088015286019061170f565b92608085015260a0840152151560c08301520390f35b503461018e57602036600319011261018e57600060c060405161027181611610565b8281528260208201528260408201528260608201528260808201528260a08201520152600435600052600360205260406000206040516102b081611610565b8154918282526001810154602083019081526002820154906040840191825260038301546060850190815260018060a01b039283600486015416926080870193845260c060ff600660058901549860a08b01998a5201541697019615158752604051978852516020880152516040870152516060860152511660808401525160a083015251151560c0820152f35b503461018e57602036600319011261018e57600435600052600360205260406000208054906001810154906002810154600382015460018060a01b036004840154169160ff600660058601549501541694604051968752602087015260408601526060850152608084015260a0830152151560c0820152f35b3461018e57600036600319011261018e576020600754604051908152f35b3461018e57608036600319011261018e5760243567ffffffffffffffff811161018e5761040690369060040161174f565b60643567ffffffffffffffff811161018e5761042690369060040161174f565b6006549193916001600160a01b031633148015610819575b610447906117c1565b60043560005260006020526040600020546107dd576104a66040519461046c86611610565b600435865261047c368686611818565b92602087019384526044356040880152426060880152336080880152600160a08801523691611818565b60c08501526004356000526000602052604060002090845182555180519067ffffffffffffffff8211610700576104e060018401546115d6565b601f8111610796575b50602090601f831160011461072157918060c09492600594600092610716575b50508160011b916000199060031b1c19161760018201555b60408601516002820155606086015160038201556004810160018060a01b0360808801511681549060ff60a01b60a08a0151151560a01b16916affffffffffffffffffffff60a81b16171790550193015192835167ffffffffffffffff81116107005761058e82546115d6565b601f81116106b8575b50602094601f821160011461065257948192939495600092610647575b50508160011b916000199060031b1c19161790555b3360005260046020526105e2600435604060002061185f565b6007546000198114610631577f1dff7aa2a940c664f5ba0f1c33fb523ce014ae7762b32dfdd638cc994e62eda591600161062c920160075560405191829160043595339184611899565b0390a2005b634e487b7160e01b600052601160045260246000fd5b0151905085806105b4565b601f198216958360005260206000209160005b8881106106a057508360019596979810610687575b505050811b0190556105c9565b015160001960f88460031b161c1916905585808061067a565b91926020600181928685015181550194019201610665565b826000526020600020601f830160051c810191602084106106f6575b601f0160051c01905b8181106106ea5750610597565b600081556001016106dd565b90915081906106d4565b634e487b7160e01b600052604160045260246000fd5b015190508880610509565b906001840160005260206000209160005b601f198516811061077e57509260c0949260019260059583601f19811610610765575b505050811b016001820155610521565b015160001960f88460031b161c19169055888080610755565b91926020600181928685015181550194019201610732565b600184016000526020600020601f840160051c8101602085106107d6575b601f830160051c820181106107ca5750506104e9565b600081556001016107b4565b50806107b4565b60405162461bcd60e51b815260206004820152601460248201527350726f6f6620616c72656164792065786973747360601b6044820152606490fd5b506005546001600160a01b0316331461043e565b3461018e57606036600319011261018e5767ffffffffffffffff60243581811161018e5761085f90369060040161174f565b9160018060a01b036006541633148015610b12575b61087d906117c1565b6004356000526001602052604060002054610acd5760405161089e8161162c565b60043581526108ae368585611818565b91602082019283526044356040830152336060830152426080830152600160a0830152600435600052600160205260406000209282518455518051918211610700576108fd60018501546115d6565b601f8111610a86575b50602090601f83116001146109e85760a07fb634a0f3048d01ab5fd305d08b781f7b495d220b126f1816573183dea8cb4f789694846109b29561062c98956005956000926109dd575b50508160011b916000199060031b1c19161760018501555b6040810151600285015560038401600180841b036060830151166001600160601b03841b825416179055608081015160048501550151151591019060ff801983541691151516179055565b3360005260046020526109cb600435604060002061185f565b60405191829160043595339184611899565b015190508b8061094f565b906001850160005260206000209160005b601f1985168110610a6e57507fb634a0f3048d01ab5fd305d08b781f7b495d220b126f1816573183dea8cb4f78969460018561062c989560059560a0956109b299601f19811610610a55575b505050811b016001850155610967565b015160001960f88460031b161c191690558b8080610a45565b919260206001819286850151815501940192016109f9565b600185016000526020600020601f840160051c810160208510610ac6575b601f830160051c82018110610aba575050610906565b60008155600101610aa4565b5080610aa4565b60405162461bcd60e51b815260206004820152601a60248201527f456d61696c2070726f6f6620616c7265616479206578697374730000000000006044820152606490fd5b506005546001600160a01b03163314610874565b503461018e576020908160031936011261018e57600060c0604051610b4a81611610565b82815282858201528260408201526060808201528260808201528260a0820152015260043560005260028252604060002060405191610b8883611610565b81548352600182015484840190815260028301549260408501938452610bb06003820161166a565b60608601908152610c1b60018060a01b039182600485015416966080890197885260ff600660058701549660a08c019788520154169560c08a0196151587526040519a8b9a818c5251908b01525160408a01525160608901525185608089015261010088019061170f565b94511660a08601525160c0850152511515908301520390f35b3461018e57600036600319011261018e576006546040516001600160a01b039091168152602090f35b3461018e57608036600319011261018e5760043560243560443560018060a01b03806006541633148015610e2f575b610c95906117c1565b8360005260209060038252604060002054610dea57828414610d9257917f02ec0c77c3af1d5502c245ba77f23448b8f149236ab7ccbee688b7f2e353e0b99391610d72604094600688875192610cea84611610565b8184528584019088825289850190888252606086016064358152608087019233845260a088019442865260c08901966001885260005260038b528d60002098518955516001890155516002880155516003870155600486019151166001600160601b0360a01b82541617905551600584015551151591019060ff801983541691151516179055565b3360005260048152610d87868560002061185f565b8351928352820152a2005b60405162461bcd60e51b815260048101839052602a60248201527f536f7572636520616e642074617267657420636861696e73206d75737420626560448201526908191a5999995c995b9d60b21b6064820152608490fd5b60405162461bcd60e51b815260048101839052601d60248201527f54656c65706f72742070726f6f6620616c7265616479206578697374730000006044820152606490fd5b5060055481163314610c8c565b3461018e5760208060031936011261018e576001600160a01b03610e5e61177d565b1660005260048152604060002060405190818382549182815201908192600052846000209060005b86828210610edc578686610e9c82880383611648565b604051928392818401908285525180915260408401929160005b828110610ec557505050500390f35b835185528695509381019392810192600101610eb6565b835485529093019260019283019201610e86565b3461018e57604036600319011261018e57610f0961177d565b6001600160a01b031660009081526004602052604090208054602435919082101561018e57602091610f3a91611793565b90546040519160031b1c8152f35b503461018e576020908160031936011261018e57606060c0604051610f6c81611610565b6000815282858201526000604082015260008382015260006080820152600060a082015201526004356000526000825261018a604060002060405192610fb184611610565b81548452610fc16001830161166a565b85850190815260028301549260408601938452600381015490606087019182528660048201549261103e611016600560018060a01b039560ff60a06080880197898b168952019860a01c16151588520161166a565b9560c08b019687526040519b8c9b818d5251908c0152518760408c01526101008b019061170f565b965160608a0152516080890152511660a087015251151560c08601525190601f19858403019085015261170f565b503461018e576020908160031936011261018e57600060a06040516110908161162c565b828152606085820152826040820152826060820152826080820152015260043560005260018252604060002090604051916110ca8361162c565b805483526110da6001820161166a565b908484019182526002810154926040850193845260018060a01b039061114582600385015416916060880192835260ff600560048701549660808b019788520154169560a089019615158752604051998a99818b5251908a0152519060c060408a015288019061170f565b94516060870152511660808501525160a084015251151560c08301520390f35b3461018e57602036600319011261018e5761117e61177d565b6005546001600160a01b039190821633036111cf5716806001600160601b0360a01b60065416176006557f52dd1bef79b79f03d1c5c160b2d041c41b8578a23904fadc4aeae4c071b00f03600080a2005b60405162461bcd60e51b815260206004820152602160248201527f4f6e6c792061646d696e2063616e2063616c6c20746869732066756e6374696f6044820152603760f91b6064820152608490fd5b3461018e57608036600319011261018e5767ffffffffffffffff60643581811161018e5761125090369060040161174f565b9160018060a01b036006541633148015611539575b61126e906117c1565b60043560005260026020526040600020546114f5574360243510156114b0576040519261129a84611610565b60043584526112bd60208501936024358552604086019260443584523691611818565b90606085019182523360808601524260a0860152600160c08601526004356000526002602052604060002093855185555160018501555160028401555180519182116107005761131060038401546115d6565b601f8111611469575b50602090601f83116001146113f357938260069360c093611397976000926113e8575b50508160011b916000199060031b1c19161760038501555b6004840160018060a01b036080830151166001600160601b0360a01b82541617905560a081015160058501550151151591019060ff801983541691151516179055565b3360005260046020526113b0600435604060002061185f565b60405160243581523360208201527fe2fef72e93d04478b10ef109b01a4af4feef212ed6d16b88542f250590ea106e604060043592a2005b01519050878061133c565b90601f198316916003850160005260206000209260005b81811061145157509360c09361139797936001938360069810611438575b505050811b016003850155611354565b015160001960f88460031b161c19169055878080611428565b9293602060018192878601518155019501930161140a565b600384016000526020600020601f840160051c8101602085106114a9575b601f830160051c8201811061149d575050611319565b60008155600101611487565b5080611487565b60405162461bcd60e51b815260206004820152601c60248201527f43616e6e6f742074696d652074726176656c20746f20667574757265000000006044820152606490fd5b606460405162461bcd60e51b815260206004820152602060248201527f54696d652074726176656c2070726f6f6620616c7265616479206578697374736044820152fd5b506005546001600160a01b03163314611265565b3461018e57602036600319011261018e5760043560005260016020526040600020805461157c6001830161166a565b9160028101549060018060a01b036003820154169060ff6005600483015492015416916115bb604051968796875260c0602088015260c087019061170f565b93604086015260608501526080840152151560a08301520390f35b90600182811c92168015611606575b60208310146115f057565b634e487b7160e01b600052602260045260246000fd5b91607f16916115e5565b60e0810190811067ffffffffffffffff82111761070057604052565b60c0810190811067ffffffffffffffff82111761070057604052565b90601f8019910116810190811067ffffffffffffffff82111761070057604052565b9060405191826000825461167d816115d6565b908184526020946001916001811690816000146116ed57506001146116ae575b5050506116ac92500383611648565b565b600090815285812095935091905b8183106116d55750506116ac935082010138808061169d565b855488840185015294850194879450918301916116bc565b925050506116ac94925060ff191682840152151560051b82010138808061169d565b919082519283825260005b84811061173b575050826000602080949584010152601f8019910116010190565b60208183018101518483018201520161171a565b9181601f8401121561018e5782359167ffffffffffffffff831161018e576020838186019501011161018e57565b600435906001600160a01b038216820361018e57565b80548210156117ab5760005260206000200190600090565b634e487b7160e01b600052603260045260246000fd5b156117c857565b60405162461bcd60e51b815260206004820152602260248201527f4f6e6c792070726f7665722063616e2063616c6c20746869732066756e63746960448201526137b760f11b6064820152608490fd5b92919267ffffffffffffffff82116107005760405191611842601f8201601f191660200184611648565b82948184528183011161018e578281602093846000960137010152565b8054680100000000000000008110156107005761188191600182018155611793565b819291549060031b91821b91600019901b1916179055565b918060609160209396959660408652816040870152838601376000828286010152601f80199101168301019360018060a01b031691015256fea2646970667358221220cb61d0a5ef762f01e6e149cd6babbbc57d76979d2d0ed1b1399052a6cac8a3f164736f6c63430008180033","opcodes":"PUSH1 0x80 CALLVALUE PUSH2 0x7F JUMPI PUSH1 0x1F PUSH2 0x19A3 CODESIZE DUP2 SWAP1 SUB SWAP2 DUP3 ADD PUSH1 0x1F NOT AND DUP4 ADD SWAP2 PUSH1 0x1 PUSH1 0x1 PUSH1 0x40 SHL SUB DUP4 GT DUP5 DUP5 LT OR PUSH2 0x84 JUMPI DUP1 DUP5 SWAP3 PUSH1 0x20 SWAP5 PUSH1 0x40 MSTORE DUP4 CODECOPY DUP2 ADD SUB SLT PUSH2 0x7F JUMPI MLOAD PUSH1 0x1 PUSH1 0x1 PUSH1 0xA0 SHL SUB DUP2 AND SWAP1 DUP2 SWAP1 SUB PUSH2 0x7F JUMPI PUSH1 0x1 DUP1 PUSH1 0xA0 SHL SUB NOT CALLER DUP2 PUSH1 0x5 SLOAD AND OR PUSH1 0x5 SSTORE PUSH1 0x6 SLOAD AND OR PUSH1 0x6 SSTORE PUSH1 0x0 PUSH1 0x7 SSTORE PUSH1 0x40 MLOAD PUSH2 0x1908 SWAP1 DUP2 PUSH2 0x9B DUP3 CODECOPY RETURN JUMPDEST PUSH1 0x0 DUP1 REVERT JUMPDEST PUSH4 0x4E487B71 PUSH1 0xE0 SHL PUSH1 0x0 MSTORE PUSH1 0x41 PUSH1 0x4 MSTORE PUSH1 0x24 PUSH1 0x0 REVERT INVALID PUSH1 0x80 PUSH1 0x40 MSTORE PUSH1 0x4 CALLDATASIZE LT ISZERO PUSH2 0x12 JUMPI PUSH1 0x0 DUP1 REVERT JUMPDEST PUSH1 0xE0 PUSH1 0x0 CALLDATALOAD DUP2 SHR DUP1 PUSH4 0x3B9602E EQ PUSH2 0x154D JUMPI DUP1 PUSH4 0xA5670C7 EQ PUSH2 0x121E JUMPI DUP1 PUSH4 0xAEF8054 EQ PUSH2 0x1165 JUMPI DUP1 PUSH4 0x11D40BCD EQ PUSH2 0x106C JUMPI DUP1 PUSH4 0x2A865D6B EQ PUSH2 0xF48 JUMPI DUP1 PUSH4 0x373B58E6 EQ PUSH2 0xEF0 JUMPI DUP1 PUSH4 0x46BDFB80 EQ PUSH2 0xE3C JUMPI DUP1 PUSH4 0x52037A34 EQ PUSH2 0xC5D JUMPI DUP1 PUSH4 0x5ACA5B48 EQ PUSH2 0xC34 JUMPI DUP1 PUSH4 0x6D9F4370 EQ PUSH2 0x3B7 JUMPI DUP1 PUSH4 0x74024802 EQ PUSH2 0xB26 JUMPI DUP1 PUSH4 0x853DE72D EQ PUSH2 0x82D JUMPI DUP1 PUSH4 0x950BAC2A EQ PUSH2 0x3D5 JUMPI DUP1 PUSH4 0x9B1BC0C9 EQ PUSH2 0x3B7 JUMPI DUP1 PUSH4 0xA0BE97A0 EQ PUSH2 0x33E JUMPI DUP1 PUSH4 0xA69375C6 EQ PUSH2 0x24F JUMPI DUP1 PUSH4 0xF3B0964C EQ PUSH2 0x1BC JUMPI DUP1 PUSH4 0xF851A440 EQ PUSH2 0x193 JUMPI PUSH4 0xFBF2453E EQ PUSH2 0xEE JUMPI PUSH1 0x0 DUP1 REVERT JUMPDEST CALLVALUE PUSH2 0x18E JUMPI PUSH1 0x20 CALLDATASIZE PUSH1 0x3 NOT ADD SLT PUSH2 0x18E JUMPI PUSH1 0x4 CALLDATALOAD PUSH1 0x0 MSTORE PUSH1 0x0 PUSH1 0x20 MSTORE PUSH1 0x40 PUSH1 0x0 KECCAK256 PUSH2 0x18A DUP2 SLOAD SWAP2 PUSH2 0x121 PUSH1 0x1 DUP3 ADD PUSH2 0x166A JUMP JUMPDEST PUSH1 0xFF PUSH1 0x2 DUP4 ADD SLOAD SWAP3 PUSH1 0x3 DUP2 ADD SLOAD PUSH2 0x159 PUSH2 0x142 PUSH1 0x5 PUSH1 0x4 DUP6 ADD SLOAD SWAP5 ADD PUSH2 0x166A JUMP JUMPDEST SWAP5 PUSH1 0x40 MLOAD SWAP10 DUP11 SWAP10 DUP11 MSTORE DUP1 PUSH1 0x20 DUP12 ADD MSTORE DUP10 ADD SWAP1 PUSH2 0x170F JUMP JUMPDEST SWAP5 PUSH1 0x40 DUP9 ADD MSTORE PUSH1 0x60 DUP8 ADD MSTORE PUSH1 0x1 DUP1 PUSH1 0xA0 SHL SUB DUP2 AND PUSH1 0x80 DUP8 ADD MSTORE PUSH1 0xA0 SHR AND ISZERO ISZERO PUSH1 0xA0 DUP6 ADD MSTORE DUP4 DUP3 SUB PUSH1 0xC0 DUP6 ADD MSTORE PUSH2 0x170F JUMP JUMPDEST SUB SWAP1 RETURN JUMPDEST PUSH1 0x0 DUP1 REVERT JUMPDEST CALLVALUE PUSH2 0x18E JUMPI PUSH1 0x0 CALLDATASIZE PUSH1 0x3 NOT ADD SLT PUSH2 0x18E JUMPI PUSH1 0x5 SLOAD PUSH1 0x40 MLOAD PUSH1 0x1 PUSH1 0x1 PUSH1 0xA0 SHL SUB SWAP1 SWAP2 AND DUP2 MSTORE PUSH1 0x20 SWAP1 RETURN JUMPDEST POP CALLVALUE PUSH2 0x18E JUMPI PUSH1 0x20 CALLDATASIZE PUSH1 0x3 NOT ADD SLT PUSH2 0x18E JUMPI PUSH1 0x4 CALLDATALOAD PUSH1 0x0 MSTORE PUSH1 0x2 PUSH1 0x20 MSTORE PUSH1 0x40 PUSH1 0x0 KECCAK256 SWAP1 DUP2 SLOAD SWAP1 PUSH1 0x1 DUP4 ADD SLOAD SWAP3 PUSH1 0x2 DUP2 ADD SLOAD SWAP1 PUSH2 0x239 PUSH2 0x1FD PUSH1 0x3 DUP4 ADD PUSH2 0x166A JUMP JUMPDEST PUSH1 0x1 DUP1 PUSH1 0xA0 SHL SUB PUSH1 0x4 DUP5 ADD SLOAD AND SWAP5 PUSH1 0xFF PUSH1 0x6 PUSH1 0x5 DUP7 ADD SLOAD SWAP6 ADD SLOAD AND SWAP5 PUSH1 0x40 MLOAD SWAP9 DUP10 SWAP9 DUP10 MSTORE PUSH1 0x20 DUP10 ADD MSTORE PUSH1 0x40 DUP9 ADD MSTORE DUP1 PUSH1 0x60 DUP9 ADD MSTORE DUP7 ADD SWAP1 PUSH2 0x170F JUMP JUMPDEST SWAP3 PUSH1 0x80 DUP6 ADD MSTORE PUSH1 0xA0 DUP5 ADD MSTORE ISZERO ISZERO PUSH1 0xC0 DUP4 ADD MSTORE SUB SWAP1 RETURN JUMPDEST POP CALLVALUE PUSH2 0x18E JUMPI PUSH1 0x20 CALLDATASIZE PUSH1 0x3 NOT ADD SLT PUSH2 0x18E JUMPI PUSH1 0x0 PUSH1 0xC0 PUSH1 0x40 MLOAD PUSH2 0x271 DUP2 PUSH2 0x1610 JUMP JUMPDEST DUP3 DUP2 MSTORE DUP3 PUSH1 0x20 DUP3 ADD MSTORE DUP3 PUSH1 0x40 DUP3 ADD MSTORE DUP3 PUSH1 0x60 DUP3 ADD MSTORE DUP3 PUSH1 0x80 DUP3 ADD MSTORE DUP3 PUSH1 0xA0 DUP3 ADD MSTORE ADD MSTORE PUSH1 0x4 CALLDATALOAD PUSH1 0x0 MSTORE PUSH1 0x3 PUSH1 0x20 MSTORE PUSH1 0x40 PUSH1 0x0 KECCAK256 PUSH1 0x40 MLOAD PUSH2 0x2B0 DUP2 PUSH2 0x1610 JUMP JUMPDEST DUP2 SLOAD SWAP2 DUP3 DUP3 MSTORE PUSH1 0x1 DUP2 ADD SLOAD PUSH1 0x20 DUP4 ADD SWAP1 DUP2 MSTORE PUSH1 0x2 DUP3 ADD SLOAD SWAP1 PUSH1 0x40 DUP5 ADD SWAP2 DUP3 MSTORE PUSH1 0x3 DUP4 ADD SLOAD PUSH1 0x60 DUP6 ADD SWAP1 DUP2 MSTORE PUSH1 0x1 DUP1 PUSH1 0xA0 SHL SUB SWAP3 DUP4 PUSH1 0x4 DUP7 ADD SLOAD AND SWAP3 PUSH1 0x80 DUP8 ADD SWAP4 DUP5 MSTORE PUSH1 0xC0 PUSH1 0xFF PUSH1 0x6 PUSH1 0x5 DUP10 ADD SLOAD SWAP9 PUSH1 0xA0 DUP12 ADD SWAP10 DUP11 MSTORE ADD SLOAD AND SWAP8 ADD SWAP7 ISZERO ISZERO DUP8 MSTORE PUSH1 0x40 MLOAD SWAP8 DUP9 MSTORE MLOAD PUSH1 0x20 DUP9 ADD MSTORE MLOAD PUSH1 0x40 DUP8 ADD MSTORE MLOAD PUSH1 0x60 DUP7 ADD MSTORE MLOAD AND PUSH1 0x80 DUP5 ADD MSTORE MLOAD PUSH1 0xA0 DUP4 ADD MSTORE MLOAD ISZERO ISZERO PUSH1 0xC0 DUP3 ADD MSTORE RETURN JUMPDEST POP CALLVALUE PUSH2 0x18E JUMPI PUSH1 0x20 CALLDATASIZE PUSH1 0x3 NOT ADD SLT PUSH2 0x18E JUMPI PUSH1 0x4 CALLDATALOAD PUSH1 0x0 MSTORE PUSH1 0x3 PUSH1 0x20 MSTORE PUSH1 0x40 PUSH1 0x0 KECCAK256 DUP1 SLOAD SWAP1 PUSH1 0x1 DUP2 ADD SLOAD SWAP1 PUSH1 0x2 DUP2 ADD SLOAD PUSH1 0x3 DUP3 ADD SLOAD PUSH1 0x1 DUP1 PUSH1 0xA0 SHL SUB PUSH1 0x4 DUP5 ADD SLOAD AND SWAP2 PUSH1 0xFF PUSH1 0x6 PUSH1 0x5 DUP7 ADD SLOAD SWAP6 ADD SLOAD AND SWAP5 PUSH1 0x40 MLOAD SWAP7 DUP8 MSTORE PUSH1 0x20 DUP8 ADD MSTORE PUSH1 0x40 DUP7 ADD MSTORE PUSH1 0x60 DUP6 ADD MSTORE PUSH1 0x80 DUP5 ADD MSTORE PUSH1 0xA0 DUP4 ADD MSTORE ISZERO ISZERO PUSH1 0xC0 DUP3 ADD MSTORE RETURN JUMPDEST CALLVALUE PUSH2 0x18E JUMPI PUSH1 0x0 CALLDATASIZE PUSH1 0x3 NOT ADD SLT PUSH2 0x18E JUMPI PUSH1 0x20 PUSH1 0x7 SLOAD PUSH1 0x40 MLOAD SWAP1 DUP2 MSTORE RETURN JUMPDEST CALLVALUE PUSH2 0x18E JUMPI PUSH1 0x80 CALLDATASIZE PUSH1 0x3 NOT ADD SLT PUSH2 0x18E JUMPI PUSH1 0x24 CALLDATALOAD PUSH8 0xFFFFFFFFFFFFFFFF DUP2 GT PUSH2 0x18E JUMPI PUSH2 0x406 SWAP1 CALLDATASIZE SWAP1 PUSH1 0x4 ADD PUSH2 0x174F JUMP JUMPDEST PUSH1 0x64 CALLDATALOAD PUSH8 0xFFFFFFFFFFFFFFFF DUP2 GT PUSH2 0x18E JUMPI PUSH2 0x426 SWAP1 CALLDATASIZE SWAP1 PUSH1 0x4 ADD PUSH2 0x174F JUMP JUMPDEST PUSH1 0x6 SLOAD SWAP2 SWAP4 SWAP2 PUSH1 0x1 PUSH1 0x1 PUSH1 0xA0 SHL SUB AND CALLER EQ DUP1 ISZERO PUSH2 0x819 JUMPI JUMPDEST PUSH2 0x447 SWAP1 PUSH2 0x17C1 JUMP JUMPDEST PUSH1 0x4 CALLDATALOAD PUSH1 0x0 MSTORE PUSH1 0x0 PUSH1 0x20 MSTORE PUSH1 0x40 PUSH1 0x0 KECCAK256 SLOAD PUSH2 0x7DD JUMPI PUSH2 0x4A6 PUSH1 0x40 MLOAD SWAP5 PUSH2 0x46C DUP7 PUSH2 0x1610 JUMP JUMPDEST PUSH1 0x4 CALLDATALOAD DUP7 MSTORE PUSH2 0x47C CALLDATASIZE DUP7 DUP7 PUSH2 0x1818 JUMP JUMPDEST SWAP3 PUSH1 0x20 DUP8 ADD SWAP4 DUP5 MSTORE PUSH1 0x44 CALLDATALOAD PUSH1 0x40 DUP9 ADD MSTORE TIMESTAMP PUSH1 0x60 DUP9 ADD MSTORE CALLER PUSH1 0x80 DUP9 ADD MSTORE PUSH1 0x1 PUSH1 0xA0 DUP9 ADD MSTORE CALLDATASIZE SWAP2 PUSH2 0x1818 JUMP JUMPDEST PUSH1 0xC0 DUP6 ADD MSTORE PUSH1 0x4 CALLDATALOAD PUSH1 0x0 MSTORE PUSH1 0x0 PUSH1 0x20 MSTORE PUSH1 0x40 PUSH1 0x0 KECCAK256 SWAP1 DUP5 MLOAD DUP3 SSTORE MLOAD DUP1 MLOAD SWAP1 PUSH8 0xFFFFFFFFFFFFFFFF DUP3 GT PUSH2 0x700 JUMPI PUSH2 0x4E0 PUSH1 0x1 DUP5 ADD SLOAD PUSH2 0x15D6 JUMP JUMPDEST PUSH1 0x1F DUP2 GT PUSH2 0x796 JUMPI JUMPDEST POP PUSH1 0x20 SWAP1 PUSH1 0x1F DUP4 GT PUSH1 0x1 EQ PUSH2 0x721 JUMPI SWAP2 DUP1 PUSH1 0xC0 SWAP5 SWAP3 PUSH1 0x5 SWAP5 PUSH1 0x0 SWAP3 PUSH2 0x716 JUMPI JUMPDEST POP POP DUP2 PUSH1 0x1 SHL SWAP2 PUSH1 0x0 NOT SWAP1 PUSH1 0x3 SHL SHR NOT AND OR PUSH1 0x1 DUP3 ADD SSTORE JUMPDEST PUSH1 0x40 DUP7 ADD MLOAD PUSH1 0x2 DUP3 ADD SSTORE PUSH1 0x60 DUP7 ADD MLOAD PUSH1 0x3 DUP3 ADD SSTORE PUSH1 0x4 DUP2 ADD PUSH1 0x1 DUP1 PUSH1 0xA0 SHL SUB PUSH1 0x80 DUP9 ADD MLOAD AND DUP2 SLOAD SWAP1 PUSH1 0xFF PUSH1 0xA0 SHL PUSH1 0xA0 DUP11 ADD MLOAD ISZERO ISZERO PUSH1 0xA0 SHL AND SWAP2 PUSH11 0xFFFFFFFFFFFFFFFFFFFFFF PUSH1 0xA8 SHL AND OR OR SWAP1 SSTORE ADD SWAP4 ADD MLOAD SWAP3 DUP4 MLOAD PUSH8 0xFFFFFFFFFFFFFFFF DUP2 GT PUSH2 0x700 JUMPI PUSH2 0x58E DUP3 SLOAD PUSH2 0x15D6 JUMP JUMPDEST PUSH1 0x1F DUP2 GT PUSH2 0x6B8 JUMPI JUMPDEST POP PUSH1 0x20 SWAP5 PUSH1 0x1F DUP3 GT PUSH1 0x1 EQ PUSH2 0x652 JUMPI SWAP5 DUP2 SWAP3 SWAP4 SWAP5 SWAP6 PUSH1 0x0 SWAP3 PUSH2 0x647 JUMPI JUMPDEST POP POP DUP2 PUSH1 0x1 SHL SWAP2 PUSH1 0x0 NOT SWAP1 PUSH1 0x3 SHL SHR NOT AND OR SWAP1 SSTORE JUMPDEST CALLER PUSH1 0x0 MSTORE PUSH1 0x4 PUSH1 0x20 MSTORE PUSH2 0x5E2 PUSH1 0x4 CALLDATALOAD PUSH1 0x40 PUSH1 0x0 KECCAK256 PUSH2 0x185F JUMP JUMPDEST PUSH1 0x7 SLOAD PUSH1 0x0 NOT DUP2 EQ PUSH2 0x631 JUMPI PUSH32 0x1DFF7AA2A940C664F5BA0F1C33FB523CE014AE7762B32DFDD638CC994E62EDA5 SWAP2 PUSH1 0x1 PUSH2 0x62C SWAP3 ADD PUSH1 0x7 SSTORE PUSH1 0x40 MLOAD SWAP2 DUP3 SWAP2 PUSH1 0x4 CALLDATALOAD SWAP6 CALLER SWAP2 DUP5 PUSH2 0x1899 JUMP JUMPDEST SUB SWAP1 LOG2 STOP JUMPDEST PUSH4 0x4E487B71 PUSH1 0xE0 SHL PUSH1 0x0 MSTORE PUSH1 0x11 PUSH1 0x4 MSTORE PUSH1 0x24 PUSH1 0x0 REVERT JUMPDEST ADD MLOAD SWAP1 POP DUP6 DUP1 PUSH2 0x5B4 JUMP JUMPDEST PUSH1 0x1F NOT DUP3 AND SWAP6 DUP4 PUSH1 0x0 MSTORE PUSH1 0x20 PUSH1 0x0 KECCAK256 SWAP2 PUSH1 0x0 JUMPDEST DUP9 DUP2 LT PUSH2 0x6A0 JUMPI POP DUP4 PUSH1 0x1 SWAP6 SWAP7 SWAP8 SWAP9 LT PUSH2 0x687 JUMPI JUMPDEST POP POP POP DUP2 SHL ADD SWAP1 SSTORE PUSH2 0x5C9 JUMP JUMPDEST ADD MLOAD PUSH1 0x0 NOT PUSH1 0xF8 DUP5 PUSH1 0x3 SHL AND SHR NOT AND SWAP1 SSTORE DUP6 DUP1 DUP1 PUSH2 0x67A JUMP JUMPDEST SWAP2 SWAP3 PUSH1 0x20 PUSH1 0x1 DUP2 SWAP3 DUP7 DUP6 ADD MLOAD DUP2 SSTORE ADD SWAP5 ADD SWAP3 ADD PUSH2 0x665 JUMP JUMPDEST DUP3 PUSH1 0x0 MSTORE PUSH1 0x20 PUSH1 0x0 KECCAK256 PUSH1 0x1F DUP4 ADD PUSH1 0x5 SHR DUP2 ADD SWAP2 PUSH1 0x20 DUP5 LT PUSH2 0x6F6 JUMPI JUMPDEST PUSH1 0x1F ADD PUSH1 0x5 SHR ADD SWAP1 JUMPDEST DUP2 DUP2 LT PUSH2 0x6EA JUMPI POP PUSH2 0x597 JUMP JUMPDEST PUSH1 0x0 DUP2 SSTORE PUSH1 0x1 ADD PUSH2 0x6DD JUMP JUMPDEST SWAP1 SWAP2 POP DUP2 SWAP1 PUSH2 0x6D4 JUMP JUMPDEST PUSH4 0x4E487B71 PUSH1 0xE0 SHL PUSH1 0x0 MSTORE PUSH1 0x41 PUSH1 0x4 MSTORE PUSH1 0x24 PUSH1 0x0 REVERT JUMPDEST ADD MLOAD SWAP1 POP DUP9 DUP1 PUSH2 0x509 JUMP JUMPDEST SWAP1 PUSH1 0x1 DUP5 ADD PUSH1 0x0 MSTORE PUSH1 0x20 PUSH1 0x0 KECCAK256 SWAP2 PUSH1 0x0 JUMPDEST PUSH1 0x1F NOT DUP6 AND DUP2 LT PUSH2 0x77E JUMPI POP SWAP3 PUSH1 0xC0 SWAP5 SWAP3 PUSH1 0x1 SWAP3 PUSH1 0x5 SWAP6 DUP4 PUSH1 0x1F NOT DUP2 AND LT PUSH2 0x765 JUMPI JUMPDEST POP POP POP DUP2 SHL ADD PUSH1 0x1 DUP3 ADD SSTORE PUSH2 0x521 JUMP JUMPDEST ADD MLOAD PUSH1 0x0 NOT PUSH1 0xF8 DUP5 PUSH1 0x3 SHL AND SHR NOT AND SWAP1 SSTORE DUP9 DUP1 DUP1 PUSH2 0x755 JUMP JUMPDEST SWAP2 SWAP3 PUSH1 0x20 PUSH1 0x1 DUP2 SWAP3 DUP7 DUP6 ADD MLOAD DUP2 SSTORE ADD SWAP5 ADD SWAP3 ADD PUSH2 0x732 JUMP JUMPDEST PUSH1 0x1 DUP5 ADD PUSH1 0x0 MSTORE PUSH1 0x20 PUSH1 0x0 KECCAK256 PUSH1 0x1F DUP5 ADD PUSH1 0x5 SHR DUP2 ADD PUSH1 0x20 DUP6 LT PUSH2 0x7D6 JUMPI JUMPDEST PUSH1 0x1F DUP4 ADD PUSH1 0x5 SHR DUP3 ADD DUP2 LT PUSH2 0x7CA JUMPI POP POP PUSH2 0x4E9 JUMP JUMPDEST PUSH1 0x0 DUP2 SSTORE PUSH1 0x1 ADD PUSH2 0x7B4 JUMP JUMPDEST POP DUP1 PUSH2 0x7B4 JUMP JUMPDEST PUSH1 0x40 MLOAD PUSH3 0x461BCD PUSH1 0xE5 SHL DUP2 MSTORE PUSH1 0x20 PUSH1 0x4 DUP3 ADD MSTORE PUSH1 0x14 PUSH1 0x24 DUP3 ADD MSTORE PUSH20 0x50726F6F6620616C726561647920657869737473 PUSH1 0x60 SHL PUSH1 0x44 DUP3 ADD MSTORE PUSH1 0x64 SWAP1 REVERT JUMPDEST POP PUSH1 0x5 SLOAD PUSH1 0x1 PUSH1 0x1 PUSH1 0xA0 SHL SUB AND CALLER EQ PUSH2 0x43E JUMP JUMPDEST CALLVALUE PUSH2 0x18E JUMPI PUSH1 0x60 CALLDATASIZE PUSH1 0x3 NOT ADD SLT PUSH2 0x18E JUMPI PUSH8 0xFFFFFFFFFFFFFFFF PUSH1 0x24 CALLDATALOAD DUP2 DUP2 GT PUSH2 0x18E JUMPI PUSH2 0x85F SWAP1 CALLDATASIZE SWAP1 PUSH1 0x4 ADD PUSH2 0x174F JUMP JUMPDEST SWAP2 PUSH1 0x1 DUP1 PUSH1 0xA0 SHL SUB PUSH1 0x6 SLOAD AND CALLER EQ DUP1 ISZERO PUSH2 0xB12 JUMPI JUMPDEST PUSH2 0x87D SWAP1 PUSH2 0x17C1 JUMP JUMPDEST PUSH1 0x4 CALLDATALOAD PUSH1 0x0 MSTORE PUSH1 0x1 PUSH1 0x20 MSTORE PUSH1 0x40 PUSH1 0x0 KECCAK256 SLOAD PUSH2 0xACD JUMPI PUSH1 0x40 MLOAD PUSH2 0x89E DUP2 PUSH2 0x162C JUMP JUMPDEST PUSH1 0x4 CALLDATALOAD DUP2 MSTORE PUSH2 0x8AE CALLDATASIZE DUP6 DUP6 PUSH2 0x1818 JUMP JUMPDEST SWAP2 PUSH1 0x20 DUP3 ADD SWAP3 DUP4 MSTORE PUSH1 0x44 CALLDATALOAD PUSH1 0x40 DUP4 ADD MSTORE CALLER PUSH1 0x60 DUP4 ADD MSTORE TIMESTAMP PUSH1 0x80 DUP4 ADD MSTORE PUSH1 0x1 PUSH1 0xA0 DUP4 ADD MSTORE PUSH1 0x4 CALLDATALOAD PUSH1 0x0 MSTORE PUSH1 0x1 PUSH1 0x20 MSTORE PUSH1 0x40 PUSH1 0x0 KECCAK256 SWAP3 DUP3 MLOAD DUP5 SSTORE MLOAD DUP1 MLOAD SWAP2 DUP3 GT PUSH2 0x700 JUMPI PUSH2 0x8FD PUSH1 0x1 DUP6 ADD SLOAD PUSH2 0x15D6 JUMP JUMPDEST PUSH1 0x1F DUP2 GT PUSH2 0xA86 JUMPI JUMPDEST POP PUSH1 0x20 SWAP1 PUSH1 0x1F DUP4 GT PUSH1 0x1 EQ PUSH2 0x9E8 JUMPI PUSH1 0xA0 PUSH32 0xB634A0F3048D01AB5FD305D08B781F7B495D220B126F1816573183DEA8CB4F78 SWAP7 SWAP5 DUP5 PUSH2 0x9B2 SWAP6 PUSH2 0x62C SWAP9 SWAP6 PUSH1 0x5 SWAP6 PUSH1 0x0 SWAP3 PUSH2 0x9DD JUMPI JUMPDEST POP POP DUP2 PUSH1 0x1 SHL SWAP2 PUSH1 0x0 NOT SWAP1 PUSH1 0x3 SHL SHR NOT AND OR PUSH1 0x1 DUP6 ADD SSTORE JUMPDEST PUSH1 0x40 DUP2 ADD MLOAD PUSH1 0x2 DUP6 ADD SSTORE PUSH1 0x3 DUP5 ADD PUSH1 0x1 DUP1 DUP5 SHL SUB PUSH1 0x60 DUP4 ADD MLOAD AND PUSH1 0x1 PUSH1 0x1 PUSH1 0x60 SHL SUB DUP5 SHL DUP3 SLOAD AND OR SWAP1 SSTORE PUSH1 0x80 DUP2 ADD MLOAD PUSH1 0x4 DUP6 ADD SSTORE ADD MLOAD ISZERO ISZERO SWAP2 ADD SWAP1 PUSH1 0xFF DUP1 NOT DUP4 SLOAD AND SWAP2 ISZERO ISZERO AND OR SWAP1 SSTORE JUMP JUMPDEST CALLER PUSH1 0x0 MSTORE PUSH1 0x4 PUSH1 0x20 MSTORE PUSH2 0x9CB PUSH1 0x4 CALLDATALOAD PUSH1 0x40 PUSH1 0x0 KECCAK256 PUSH2 0x185F JUMP JUMPDEST PUSH1 0x40 MLOAD SWAP2 DUP3 SWAP2 PUSH1 0x4 CALLDATALOAD SWAP6 CALLER SWAP2 DUP5 PUSH2 0x1899 JUMP JUMPDEST ADD MLOAD SWAP1 POP DUP12 DUP1 PUSH2 0x94F JUMP JUMPDEST SWAP1 PUSH1 0x1 DUP6 ADD PUSH1 0x0 MSTORE PUSH1 0x20 PUSH1 0x0 KECCAK256 SWAP2 PUSH1 0x0 JUMPDEST PUSH1 0x1F NOT DUP6 AND DUP2 LT PUSH2 0xA6E JUMPI POP PUSH32 0xB634A0F3048D01AB5FD305D08B781F7B495D220B126F1816573183DEA8CB4F78 SWAP7 SWAP5 PUSH1 0x1 DUP6 PUSH2 0x62C SWAP9 SWAP6 PUSH1 0x5 SWAP6 PUSH1 0xA0 SWAP6 PUSH2 0x9B2 SWAP10 PUSH1 0x1F NOT DUP2 AND LT PUSH2 0xA55 JUMPI JUMPDEST POP POP POP DUP2 SHL ADD PUSH1 0x1 DUP6 ADD SSTORE PUSH2 0x967 JUMP JUMPDEST ADD MLOAD PUSH1 0x0 NOT PUSH1 0xF8 DUP5 PUSH1 0x3 SHL AND SHR NOT AND SWAP1 SSTORE DUP12 DUP1 DUP1 PUSH2 0xA45 JUMP JUMPDEST SWAP2 SWAP3 PUSH1 0x20 PUSH1 0x1 DUP2 SWAP3 DUP7 DUP6 ADD MLOAD DUP2 SSTORE ADD SWAP5 ADD SWAP3 ADD PUSH2 0x9F9 JUMP JUMPDEST PUSH1 0x1 DUP6 ADD PUSH1 0x0 MSTORE PUSH1 0x20 PUSH1 0x0 KECCAK256 PUSH1 0x1F DUP5 ADD PUSH1 0x5 SHR DUP2 ADD PUSH1 0x20 DUP6 LT PUSH2 0xAC6 JUMPI JUMPDEST PUSH1 0x1F DUP4 ADD PUSH1 0x5 SHR DUP3 ADD DUP2 LT PUSH2 0xABA JUMPI POP POP PUSH2 0x906 JUMP JUMPDEST PUSH1 0x0 DUP2 SSTORE PUSH1 0x1 ADD PUSH2 0xAA4 JUMP JUMPDEST POP DUP1 PUSH2 0xAA4 JUMP JUMPDEST PUSH1 0x40 MLOAD PUSH3 0x461BCD PUSH1 0xE5 SHL DUP2 MSTORE PUSH1 0x20 PUSH1 0x4 DUP3 ADD MSTORE PUSH1 0x1A PUSH1 0x24 DUP3 ADD MSTORE PUSH32 0x456D61696C2070726F6F6620616C726561647920657869737473000000000000 PUSH1 0x44 DUP3 ADD MSTORE PUSH1 0x64 SWAP1 REVERT JUMPDEST POP PUSH1 0x5 SLOAD PUSH1 0x1 PUSH1 0x1 PUSH1 0xA0 SHL SUB AND CALLER EQ PUSH2 0x874 JUMP JUMPDEST POP CALLVALUE PUSH2 0x18E JUMPI PUSH1 0x20 SWAP1 DUP2 PUSH1 0x3 NOT CALLDATASIZE ADD SLT PUSH2 0x18E JUMPI PUSH1 0x0 PUSH1 0xC0 PUSH1 0x40 MLOAD PUSH2 0xB4A DUP2 PUSH2 0x1610 JUMP JUMPDEST DUP3 DUP2 MSTORE DUP3 DUP6 DUP3 ADD MSTORE DUP3 PUSH1 0x40 DUP3 ADD MSTORE PUSH1 0x60 DUP1 DUP3 ADD MSTORE DUP3 PUSH1 0x80 DUP3 ADD MSTORE DUP3 PUSH1 0xA0 DUP3 ADD MSTORE ADD MSTORE PUSH1 0x4 CALLDATALOAD PUSH1 0x0 MSTORE PUSH1 0x2 DUP3 MSTORE PUSH1 0x40 PUSH1 0x0 KECCAK256 PUSH1 0x40 MLOAD SWAP2 PUSH2 0xB88 DUP4 PUSH2 0x1610 JUMP JUMPDEST DUP2 SLOAD DUP4 MSTORE PUSH1 0x1 DUP3 ADD SLOAD DUP5 DUP5 ADD SWAP1 DUP2 MSTORE PUSH1 0x2 DUP4 ADD SLOAD SWAP3 PUSH1 0x40 DUP6 ADD SWAP4 DUP5 MSTORE PUSH2 0xBB0 PUSH1 0x3 DUP3 ADD PUSH2 0x166A JUMP JUMPDEST PUSH1 0x60 DUP7 ADD SWAP1 DUP2 MSTORE PUSH2 0xC1B PUSH1 0x1 DUP1 PUSH1 0xA0 SHL SUB SWAP2 DUP3 PUSH1 0x4 DUP6 ADD SLOAD AND SWAP7 PUSH1 0x80 DUP10 ADD SWAP8 DUP9 MSTORE PUSH1 0xFF PUSH1 0x6 PUSH1 0x5 DUP8 ADD SLOAD SWAP7 PUSH1 0xA0 DUP13 ADD SWAP8 DUP9 MSTORE ADD SLOAD AND SWAP6 PUSH1 0xC0 DUP11 ADD SWAP7 ISZERO ISZERO DUP8 MSTORE PUSH1 0x40 MLOAD SWAP11 DUP12 SWAP11 DUP2 DUP13 MSTORE MLOAD SWAP1 DUP12 ADD MSTORE MLOAD PUSH1 0x40 DUP11 ADD MSTORE MLOAD PUSH1 0x60 DUP10 ADD MSTORE MLOAD DUP6 PUSH1 0x80 DUP10 ADD MSTORE PUSH2 0x100 DUP9 ADD SWAP1 PUSH2 0x170F JUMP JUMPDEST SWAP5 MLOAD AND PUSH1 0xA0 DUP7 ADD MSTORE MLOAD PUSH1 0xC0 DUP6 ADD MSTORE MLOAD ISZERO ISZERO SWAP1 DUP4 ADD MSTORE SUB SWAP1 RETURN JUMPDEST CALLVALUE PUSH2 0x18E JUMPI PUSH1 0x0 CALLDATASIZE PUSH1 0x3 NOT ADD SLT PUSH2 0x18E JUMPI PUSH1 0x6 SLOAD PUSH1 0x40 MLOAD PUSH1 0x1 PUSH1 0x1 PUSH1 0xA0 SHL SUB SWAP1 SWAP2 AND DUP2 MSTORE PUSH1 0x20 SWAP1 RETURN JUMPDEST CALLVALUE PUSH2 0x18E JUMPI PUSH1 0x80 CALLDATASIZE PUSH1 0x3 NOT ADD SLT PUSH2 0x18E JUMPI PUSH1 0x4 CALLDATALOAD PUSH1 0x24 CALLDATALOAD PUSH1 0x44 CALLDATALOAD PUSH1 0x1 DUP1 PUSH1 0xA0 SHL SUB DUP1 PUSH1 0x6 SLOAD AND CALLER EQ DUP1 ISZERO PUSH2 0xE2F JUMPI JUMPDEST PUSH2 0xC95 SWAP1 PUSH2 0x17C1 JUMP JUMPDEST DUP4 PUSH1 0x0 MSTORE PUSH1 0x20 SWAP1 PUSH1 0x3 DUP3 MSTORE PUSH1 0x40 PUSH1 0x0 KECCAK256 SLOAD PUSH2 0xDEA JUMPI DUP3 DUP5 EQ PUSH2 0xD92 JUMPI SWAP2 PUSH32 0x2EC0C77C3AF1D5502C245BA77F23448B8F149236AB7CCBEE688B7F2E353E0B9 SWAP4 SWAP2 PUSH2 0xD72 PUSH1 0x40 SWAP5 PUSH1 0x6 DUP9 DUP8 MLOAD SWAP3 PUSH2 0xCEA DUP5 PUSH2 0x1610 JUMP JUMPDEST DUP2 DUP5 MSTORE DUP6 DUP5 ADD SWAP1 DUP9 DUP3 MSTORE DUP10 DUP6 ADD SWAP1 DUP9 DUP3 MSTORE PUSH1 0x60 DUP7 ADD PUSH1 0x64 CALLDATALOAD DUP2 MSTORE PUSH1 0x80 DUP8 ADD SWAP3 CALLER DUP5 MSTORE PUSH1 0xA0 DUP9 ADD SWAP5 TIMESTAMP DUP7 MSTORE PUSH1 0xC0 DUP10 ADD SWAP7 PUSH1 0x1 DUP9 MSTORE PUSH1 0x0 MSTORE PUSH1 0x3 DUP12 MSTORE DUP14 PUSH1 0x0 KECCAK256 SWAP9 MLOAD DUP10 SSTORE MLOAD PUSH1 0x1 DUP10 ADD SSTORE MLOAD PUSH1 0x2 DUP9 ADD SSTORE MLOAD PUSH1 0x3 DUP8 ADD SSTORE PUSH1 0x4 DUP7 ADD SWAP2 MLOAD AND PUSH1 0x1 PUSH1 0x1 PUSH1 0x60 SHL SUB PUSH1 0xA0 SHL DUP3 SLOAD AND OR SWAP1 SSTORE MLOAD PUSH1 0x5 DUP5 ADD SSTORE MLOAD ISZERO ISZERO SWAP2 ADD SWAP1 PUSH1 0xFF DUP1 NOT DUP4 SLOAD AND SWAP2 ISZERO ISZERO AND OR SWAP1 SSTORE JUMP JUMPDEST CALLER PUSH1 0x0 MSTORE PUSH1 0x4 DUP2 MSTORE PUSH2 0xD87 DUP7 DUP6 PUSH1 0x0 KECCAK256 PUSH2 0x185F JUMP JUMPDEST DUP4 MLOAD SWAP3 DUP4 MSTORE DUP3 ADD MSTORE LOG2 STOP JUMPDEST PUSH1 0x40 MLOAD PUSH3 0x461BCD PUSH1 0xE5 SHL DUP2 MSTORE PUSH1 0x4 DUP2 ADD DUP4 SWAP1 MSTORE PUSH1 0x2A PUSH1 0x24 DUP3 ADD MSTORE PUSH32 0x536F7572636520616E642074617267657420636861696E73206D757374206265 PUSH1 0x44 DUP3 ADD MSTORE PUSH10 0x8191A5999995C995B9D PUSH1 0xB2 SHL PUSH1 0x64 DUP3 ADD MSTORE PUSH1 0x84 SWAP1 REVERT JUMPDEST PUSH1 0x40 MLOAD PUSH3 0x461BCD PUSH1 0xE5 SHL DUP2 MSTORE PUSH1 0x4 DUP2 ADD DUP4 SWAP1 MSTORE PUSH1 0x1D PUSH1 0x24 DUP3 ADD MSTORE PUSH32 0x54656C65706F72742070726F6F6620616C726561647920657869737473000000 PUSH1 0x44 DUP3 ADD MSTORE PUSH1 0x64 SWAP1 REVERT JUMPDEST POP PUSH1 0x5 SLOAD DUP2 AND CALLER EQ PUSH2 0xC8C JUMP JUMPDEST CALLVALUE PUSH2 0x18E JUMPI PUSH1 0x20 DUP1 PUSH1 0x3 NOT CALLDATASIZE ADD SLT PUSH2 0x18E JUMPI PUSH1 0x1 PUSH1 0x1 PUSH1 0xA0 SHL SUB PUSH2 0xE5E PUSH2 0x177D JUMP JUMPDEST AND PUSH1 0x0 MSTORE PUSH1 0x4 DUP2 MSTORE PUSH1 0x40 PUSH1 0x0 KECCAK256 PUSH1 0x40 MLOAD SWAP1 DUP2 DUP4 DUP3 SLOAD SWAP2 DUP3 DUP2 MSTORE ADD SWAP1 DUP2 SWAP3 PUSH1 0x0 MSTORE DUP5 PUSH1 0x0 KECCAK256 SWAP1 PUSH1 0x0 JUMPDEST DUP7 DUP3 DUP3 LT PUSH2 0xEDC JUMPI DUP7 DUP7 PUSH2 0xE9C DUP3 DUP9 SUB DUP4 PUSH2 0x1648 JUMP JUMPDEST PUSH1 0x40 MLOAD SWAP3 DUP4 SWAP3 DUP2 DUP5 ADD SWAP1 DUP3 DUP6 MSTORE MLOAD DUP1 SWAP2 MSTORE PUSH1 0x40 DUP5 ADD SWAP3 SWAP2 PUSH1 0x0 JUMPDEST DUP3 DUP2 LT PUSH2 0xEC5 JUMPI POP POP POP POP SUB SWAP1 RETURN JUMPDEST DUP4 MLOAD DUP6 MSTORE DUP7 SWAP6 POP SWAP4 DUP2 ADD SWAP4 SWAP3 DUP2 ADD SWAP3 PUSH1 0x1 ADD PUSH2 0xEB6 JUMP JUMPDEST DUP4 SLOAD DUP6 MSTORE SWAP1 SWAP4 ADD SWAP3 PUSH1 0x1 SWAP3 DUP4 ADD SWAP3 ADD PUSH2 0xE86 JUMP JUMPDEST CALLVALUE PUSH2 0x18E JUMPI PUSH1 0x40 CALLDATASIZE PUSH1 0x3 NOT ADD SLT PUSH2 0x18E JUMPI PUSH2 0xF09 PUSH2 0x177D JUMP JUMPDEST PUSH1 0x1 PUSH1 0x1 PUSH1 0xA0 SHL SUB AND PUSH1 0x0 SWAP1 DUP2 MSTORE PUSH1 0x4 PUSH1 0x20 MSTORE PUSH1 0x40 SWAP1 KECCAK256 DUP1 SLOAD PUSH1 0x24 CALLDATALOAD SWAP2 SWAP1 DUP3 LT ISZERO PUSH2 0x18E JUMPI PUSH1 0x20 SWAP2 PUSH2 0xF3A SWAP2 PUSH2 0x1793 JUMP JUMPDEST SWAP1 SLOAD PUSH1 0x40 MLOAD SWAP2 PUSH1 0x3 SHL SHR DUP2 MSTORE RETURN JUMPDEST POP CALLVALUE PUSH2 0x18E JUMPI PUSH1 0x20 SWAP1 DUP2 PUSH1 0x3 NOT CALLDATASIZE ADD SLT PUSH2 0x18E JUMPI PUSH1 0x60 PUSH1 0xC0 PUSH1 0x40 MLOAD PUSH2 0xF6C DUP2 PUSH2 0x1610 JUMP JUMPDEST PUSH1 0x0 DUP2 MSTORE DUP3 DUP6 DUP3 ADD MSTORE PUSH1 0x0 PUSH1 0x40 DUP3 ADD MSTORE PUSH1 0x0 DUP4 DUP3 ADD MSTORE PUSH1 0x0 PUSH1 0x80 DUP3 ADD MSTORE PUSH1 0x0 PUSH1 0xA0 DUP3 ADD MSTORE ADD MSTORE PUSH1 0x4 CALLDATALOAD PUSH1 0x0 MSTORE PUSH1 0x0 DUP3 MSTORE PUSH2 0x18A PUSH1 0x40 PUSH1 0x0 KECCAK256 PUSH1 0x40 MLOAD SWAP3 PUSH2 0xFB1 DUP5 PUSH2 0x1610 JUMP JUMPDEST DUP2 SLOAD DUP5 MSTORE PUSH2 0xFC1 PUSH1 0x1 DUP4 ADD PUSH2 0x166A JUMP JUMPDEST DUP6 DUP6 ADD SWAP1 DUP2 MSTORE PUSH1 0x2 DUP4 ADD SLOAD SWAP3 PUSH1 0x40 DUP7 ADD SWAP4 DUP5 MSTORE PUSH1 0x3 DUP2 ADD SLOAD SWAP1 PUSH1 0x60 DUP8 ADD SWAP2 DUP3 MSTORE DUP7 PUSH1 0x4 DUP3 ADD SLOAD SWAP3 PUSH2 0x103E PUSH2 0x1016 PUSH1 0x5 PUSH1 0x1 DUP1 PUSH1 0xA0 SHL SUB SWAP6 PUSH1 0xFF PUSH1 0xA0 PUSH1 0x80 DUP9 ADD SWAP8 DUP10 DUP12 AND DUP10 MSTORE ADD SWAP9 PUSH1 0xA0 SHR AND ISZERO ISZERO DUP9 MSTORE ADD PUSH2 0x166A JUMP JUMPDEST SWAP6 PUSH1 0xC0 DUP12 ADD SWAP7 DUP8 MSTORE PUSH1 0x40 MLOAD SWAP12 DUP13 SWAP12 DUP2 DUP14 MSTORE MLOAD SWAP1 DUP13 ADD MSTORE MLOAD DUP8 PUSH1 0x40 DUP13 ADD MSTORE PUSH2 0x100 DUP12 ADD SWAP1 PUSH2 0x170F JUMP JUMPDEST SWAP7 MLOAD PUSH1 0x60 DUP11 ADD MSTORE MLOAD PUSH1 0x80 DUP10 ADD MSTORE MLOAD AND PUSH1 0xA0 DUP8 ADD MSTORE MLOAD ISZERO ISZERO PUSH1 0xC0 DUP7 ADD MSTORE MLOAD SWAP1 PUSH1 0x1F NOT DUP6 DUP5 SUB ADD SWAP1 DUP6 ADD MSTORE PUSH2 0x170F JUMP JUMPDEST POP CALLVALUE PUSH2 0x18E JUMPI PUSH1 0x20 SWAP1 DUP2 PUSH1 0x3 NOT CALLDATASIZE ADD SLT PUSH2 0x18E JUMPI PUSH1 0x0 PUSH1 0xA0 PUSH1 0x40 MLOAD PUSH2 0x1090 DUP2 PUSH2 0x162C JUMP JUMPDEST DUP3 DUP2 MSTORE PUSH1 0x60 DUP6 DUP3 ADD MSTORE DUP3 PUSH1 0x40 DUP3 ADD MSTORE DUP3 PUSH1 0x60 DUP3 ADD MSTORE DUP3 PUSH1 0x80 DUP3 ADD MSTORE ADD MSTORE PUSH1 0x4 CALLDATALOAD PUSH1 0x0 MSTORE PUSH1 0x1 DUP3 MSTORE PUSH1 0x40 PUSH1 0x0 KECCAK256 SWAP1 PUSH1 0x40 MLOAD SWAP2 PUSH2 0x10CA DUP4 PUSH2 0x162C JUMP JUMPDEST DUP1 SLOAD DUP4 MSTORE PUSH2 0x10DA PUSH1 0x1 DUP3 ADD PUSH2 0x166A JUMP JUMPDEST SWAP1 DUP5 DUP5 ADD SWAP2 DUP3 MSTORE PUSH1 0x2 DUP2 ADD SLOAD SWAP3 PUSH1 0x40 DUP6 ADD SWAP4 DUP5 MSTORE PUSH1 0x1 DUP1 PUSH1 0xA0 SHL SUB SWAP1 PUSH2 0x1145 DUP3 PUSH1 0x3 DUP6 ADD SLOAD AND SWAP2 PUSH1 0x60 DUP9 ADD SWAP3 DUP4 MSTORE PUSH1 0xFF PUSH1 0x5 PUSH1 0x4 DUP8 ADD SLOAD SWAP7 PUSH1 0x80 DUP12 ADD SWAP8 DUP9 MSTORE ADD SLOAD AND SWAP6 PUSH1 0xA0 DUP10 ADD SWAP7 ISZERO ISZERO DUP8 MSTORE PUSH1 0x40 MLOAD SWAP10 DUP11 SWAP10 DUP2 DUP12 MSTORE MLOAD SWAP1 DUP11 ADD MSTORE MLOAD SWAP1 PUSH1 0xC0 PUSH1 0x40 DUP11 ADD MSTORE DUP9 ADD SWAP1 PUSH2 0x170F JUMP JUMPDEST SWAP5 MLOAD PUSH1 0x60 DUP8 ADD MSTORE MLOAD AND PUSH1 0x80 DUP6 ADD MSTORE MLOAD PUSH1 0xA0 DUP5 ADD MSTORE MLOAD ISZERO ISZERO PUSH1 0xC0 DUP4 ADD MSTORE SUB SWAP1 RETURN JUMPDEST CALLVALUE PUSH2 0x18E JUMPI PUSH1 0x20 CALLDATASIZE PUSH1 0x3 NOT ADD SLT PUSH2 0x18E JUMPI PUSH2 0x117E PUSH2 0x177D JUMP JUMPDEST PUSH1 0x5 SLOAD PUSH1 0x1 PUSH1 0x1 PUSH1 0xA0 SHL SUB SWAP2 SWAP1 DUP3 AND CALLER SUB PUSH2 0x11CF JUMPI AND DUP1 PUSH1 0x1 PUSH1 0x1 PUSH1 0x60 SHL SUB PUSH1 0xA0 SHL PUSH1 0x6 SLOAD AND OR PUSH1 0x6 SSTORE PUSH32 0x52DD1BEF79B79F03D1C5C160B2D041C41B8578A23904FADC4AEAE4C071B00F03 PUSH1 0x0 DUP1 LOG2 STOP JUMPDEST PUSH1 0x40 MLOAD PUSH3 0x461BCD PUSH1 0xE5 SHL DUP2 MSTORE PUSH1 0x20 PUSH1 0x4 DUP3 ADD MSTORE PUSH1 0x21 PUSH1 0x24 DUP3 ADD MSTORE PUSH32 0x4F6E6C792061646D696E2063616E2063616C6C20746869732066756E6374696F PUSH1 0x44 DUP3 ADD MSTORE PUSH1 0x37 PUSH1 0xF9 SHL PUSH1 0x64 DUP3 ADD MSTORE PUSH1 0x84 SWAP1 REVERT JUMPDEST CALLVALUE PUSH2 0x18E JUMPI PUSH1 0x80 CALLDATASIZE PUSH1 0x3 NOT ADD SLT PUSH2 0x18E JUMPI PUSH8 0xFFFFFFFFFFFFFFFF PUSH1 0x64 CALLDATALOAD DUP2 DUP2 GT PUSH2 0x18E JUMPI PUSH2 0x1250 SWAP1 CALLDATASIZE SWAP1 PUSH1 0x4 ADD PUSH2 0x174F JUMP JUMPDEST SWAP2 PUSH1 0x1 DUP1 PUSH1 0xA0 SHL SUB PUSH1 0x6 SLOAD AND CALLER EQ DUP1 ISZERO PUSH2 0x1539 JUMPI JUMPDEST PUSH2 0x126E SWAP1 PUSH2 0x17C1 JUMP JUMPDEST PUSH1 0x4 CALLDATALOAD PUSH1 0x0 MSTORE PUSH1 0x2 PUSH1 0x20 MSTORE PUSH1 0x40 PUSH1 0x0 KECCAK256 SLOAD PUSH2 0x14F5 JUMPI NUMBER PUSH1 0x24 CALLDATALOAD LT ISZERO PUSH2 0x14B0 JUMPI PUSH1 0x40 MLOAD SWAP3 PUSH2 0x129A DUP5 PUSH2 0x1610 JUMP JUMPDEST PUSH1 0x4 CALLDATALOAD DUP5 MSTORE PUSH2 0x12BD PUSH1 0x20 DUP6 ADD SWAP4 PUSH1 0x24 CALLDATALOAD DUP6 MSTORE PUSH1 0x40 DUP7 ADD SWAP3 PUSH1 0x44 CALLDATALOAD DUP5 MSTORE CALLDATASIZE SWAP2 PUSH2 0x1818 JUMP JUMPDEST SWAP1 PUSH1 0x60 DUP6 ADD SWAP2 DUP3 MSTORE CALLER PUSH1 0x80 DUP7 ADD MSTORE TIMESTAMP PUSH1 0xA0 DUP7 ADD MSTORE PUSH1 0x1 PUSH1 0xC0 DUP7 ADD MSTORE PUSH1 0x4 CALLDATALOAD PUSH1 0x0 MSTORE PUSH1 0x2 PUSH1 0x20 MSTORE PUSH1 0x40 PUSH1 0x0 KECCAK256 SWAP4 DUP6 MLOAD DUP6 SSTORE MLOAD PUSH1 0x1 DUP6 ADD SSTORE MLOAD PUSH1 0x2 DUP5 ADD SSTORE MLOAD DUP1 MLOAD SWAP2 DUP3 GT PUSH2 0x700 JUMPI PUSH2 0x1310 PUSH1 0x3 DUP5 ADD SLOAD PUSH2 0x15D6 JUMP JUMPDEST PUSH1 0x1F DUP2 GT PUSH2 0x1469 JUMPI JUMPDEST POP PUSH1 0x20 SWAP1 PUSH1 0x1F DUP4 GT PUSH1 0x1 EQ PUSH2 0x13F3 JUMPI SWAP4 DUP3 PUSH1 0x6 SWAP4 PUSH1 0xC0 SWAP4 PUSH2 0x1397 SWAP8 PUSH1 0x0 SWAP3 PUSH2 0x13E8 JUMPI JUMPDEST POP POP DUP2 PUSH1 0x1 SHL SWAP2 PUSH1 0x0 NOT SWAP1 PUSH1 0x3 SHL SHR NOT AND OR PUSH1 0x3 DUP6 ADD SSTORE JUMPDEST PUSH1 0x4 DUP5 ADD PUSH1 0x1 DUP1 PUSH1 0xA0 SHL SUB PUSH1 0x80 DUP4 ADD MLOAD AND PUSH1 0x1 PUSH1 0x1 PUSH1 0x60 SHL SUB PUSH1 0xA0 SHL DUP3 SLOAD AND OR SWAP1 SSTORE PUSH1 0xA0 DUP2 ADD MLOAD PUSH1 0x5 DUP6 ADD SSTORE ADD MLOAD ISZERO ISZERO SWAP2 ADD SWAP1 PUSH1 0xFF DUP1 NOT DUP4 SLOAD AND SWAP2 ISZERO ISZERO AND OR SWAP1 SSTORE JUMP JUMPDEST CALLER PUSH1 0x0 MSTORE PUSH1 0x4 PUSH1 0x20 MSTORE PUSH2 0x13B0 PUSH1 0x4 CALLDATALOAD PUSH1 0x40 PUSH1 0x0 KECCAK256 PUSH2 0x185F JUMP JUMPDEST PUSH1 0x40 MLOAD PUSH1 0x24 CALLDATALOAD DUP2 MSTORE CALLER PUSH1 0x20 DUP3 ADD MSTORE PUSH32 0xE2FEF72E93D04478B10EF109B01A4AF4FEEF212ED6D16B88542F250590EA106E PUSH1 0x40 PUSH1 0x4 CALLDATALOAD SWAP3 LOG2 STOP JUMPDEST ADD MLOAD SWAP1 POP DUP8 DUP1 PUSH2 0x133C JUMP JUMPDEST SWAP1 PUSH1 0x1F NOT DUP4 AND SWAP2 PUSH1 0x3 DUP6 ADD PUSH1 0x0 MSTORE PUSH1 0x20 PUSH1 0x0 KECCAK256 SWAP3 PUSH1 0x0 JUMPDEST DUP2 DUP2 LT PUSH2 0x1451 JUMPI POP SWAP4 PUSH1 0xC0 SWAP4 PUSH2 0x1397 SWAP8 SWAP4 PUSH1 0x1 SWAP4 DUP4 PUSH1 0x6 SWAP9 LT PUSH2 0x1438 JUMPI JUMPDEST POP POP POP DUP2 SHL ADD PUSH1 0x3 DUP6 ADD SSTORE PUSH2 0x1354 JUMP JUMPDEST ADD MLOAD PUSH1 0x0 NOT PUSH1 0xF8 DUP5 PUSH1 0x3 SHL AND SHR NOT AND SWAP1 SSTORE DUP8 DUP1 DUP1 PUSH2 0x1428 JUMP JUMPDEST SWAP3 SWAP4 PUSH1 0x20 PUSH1 0x1 DUP2 SWAP3 DUP8 DUP7 ADD MLOAD DUP2 SSTORE ADD SWAP6 ADD SWAP4 ADD PUSH2 0x140A JUMP JUMPDEST PUSH1 0x3 DUP5 ADD PUSH1 0x0 MSTORE PUSH1 0x20 PUSH1 0x0 KECCAK256 PUSH1 0x1F DUP5 ADD PUSH1 0x5 SHR DUP2 ADD PUSH1 0x20 DUP6 LT PUSH2 0x14A9 JUMPI JUMPDEST PUSH1 0x1F DUP4 ADD PUSH1 0x5 SHR DUP3 ADD DUP2 LT PUSH2 0x149D JUMPI POP POP PUSH2 0x1319 JUMP JUMPDEST PUSH1 0x0 DUP2 SSTORE PUSH1 0x1 ADD PUSH2 0x1487 JUMP JUMPDEST POP DUP1 PUSH2 0x1487 JUMP JUMPDEST PUSH1 0x40 MLOAD PUSH3 0x461BCD PUSH1 0xE5 SHL DUP2 MSTORE PUSH1 0x20 PUSH1 0x4 DUP3 ADD MSTORE PUSH1 0x1C PUSH1 0x24 DUP3 ADD MSTORE PUSH32 0x43616E6E6F742074696D652074726176656C20746F2066757475726500000000 PUSH1 0x44 DUP3 ADD MSTORE PUSH1 0x64 SWAP1 REVERT JUMPDEST PUSH1 0x64 PUSH1 0x40 MLOAD PUSH3 0x461BCD PUSH1 0xE5 SHL DUP2 MSTORE PUSH1 0x20 PUSH1 0x4 DUP3 ADD MSTORE PUSH1 0x20 PUSH1 0x24 DUP3 ADD MSTORE PUSH32 0x54696D652074726176656C2070726F6F6620616C726561647920657869737473 PUSH1 0x44 DUP3 ADD MSTORE REVERT JUMPDEST POP PUSH1 0x5 SLOAD PUSH1 0x1 PUSH1 0x1 PUSH1 0xA0 SHL SUB AND CALLER EQ PUSH2 0x1265 JUMP JUMPDEST CALLVALUE PUSH2 0x18E JUMPI PUSH1 0x20 CALLDATASIZE PUSH1 0x3 NOT ADD SLT PUSH2 0x18E JUMPI PUSH1 0x4 CALLDATALOAD PUSH1 0x0 MSTORE PUSH1 0x1 PUSH1 0x20 MSTORE PUSH1 0x40 PUSH1 0x0 KECCAK256 DUP1 SLOAD PUSH2 0x157C PUSH1 0x1 DUP4 ADD PUSH2 0x166A JUMP JUMPDEST SWAP2 PUSH1 0x2 DUP2 ADD SLOAD SWAP1 PUSH1 0x1 DUP1 PUSH1 0xA0 SHL SUB PUSH1 0x3 DUP3 ADD SLOAD AND SWAP1 PUSH1 0xFF PUSH1 0x5 PUSH1 0x4 DUP4 ADD SLOAD SWAP3 ADD SLOAD AND SWAP2 PUSH2 0x15BB PUSH1 0x40 MLOAD SWAP7 DUP8 SWAP7 DUP8 MSTORE PUSH1 0xC0 PUSH1 0x20 DUP9 ADD MSTORE PUSH1 0xC0 DUP8 ADD SWAP1 PUSH2 0x170F JUMP JUMPDEST SWAP4 PUSH1 0x40 DUP7 ADD MSTORE PUSH1 0x60 DUP6 ADD MSTORE PUSH1 0x80 DUP5 ADD MSTORE ISZERO ISZERO PUSH1 0xA0 DUP4 ADD MSTORE SUB SWAP1 RETURN JUMPDEST SWAP1 PUSH1 0x1 DUP3 DUP2 SHR SWAP3 AND DUP1 ISZERO PUSH2 0x1606 JUMPI JUMPDEST PUSH1 0x20 DUP4 LT EQ PUSH2 0x15F0 JUMPI JUMP JUMPDEST PUSH4 0x4E487B71 PUSH1 0xE0 SHL PUSH1 0x0 MSTORE PUSH1 0x22 PUSH1 0x4 MSTORE PUSH1 0x24 PUSH1 0x0 REVERT JUMPDEST SWAP2 PUSH1 0x7F AND SWAP2 PUSH2 0x15E5 JUMP JUMPDEST PUSH1 0xE0 DUP2 ADD SWAP1 DUP2 LT PUSH8 0xFFFFFFFFFFFFFFFF DUP3 GT OR PUSH2 0x700 JUMPI PUSH1 0x40 MSTORE JUMP JUMPDEST PUSH1 0xC0 DUP2 ADD SWAP1 DUP2 LT PUSH8 0xFFFFFFFFFFFFFFFF DUP3 GT OR PUSH2 0x700 JUMPI PUSH1 0x40 MSTORE JUMP JUMPDEST SWAP1 PUSH1 0x1F DUP1 NOT SWAP2 ADD AND DUP2 ADD SWAP1 DUP2 LT PUSH8 0xFFFFFFFFFFFFFFFF DUP3 GT OR PUSH2 0x700 JUMPI PUSH1 0x40 MSTORE JUMP JUMPDEST SWAP1 PUSH1 0x40 MLOAD SWAP2 DUP3 PUSH1 0x0 DUP3 SLOAD PUSH2 0x167D DUP2 PUSH2 0x15D6 JUMP JUMPDEST SWAP1 DUP2 DUP5 MSTORE PUSH1 0x20 SWAP5 PUSH1 0x1 SWAP2 PUSH1 0x1 DUP2 AND SWAP1 DUP2 PUSH1 0x0 EQ PUSH2 0x16ED JUMPI POP PUSH1 0x1 EQ PUSH2 0x16AE JUMPI JUMPDEST POP POP POP PUSH2 0x16AC SWAP3 POP SUB DUP4 PUSH2 0x1648 JUMP JUMPDEST JUMP JUMPDEST PUSH1 0x0 SWAP1 DUP2 MSTORE DUP6 DUP2 KECCAK256 SWAP6 SWAP4 POP SWAP2 SWAP1 JUMPDEST DUP2 DUP4 LT PUSH2 0x16D5 JUMPI POP POP PUSH2 0x16AC SWAP4 POP DUP3 ADD ADD CODESIZE DUP1 DUP1 PUSH2 0x169D JUMP JUMPDEST DUP6 SLOAD DUP9 DUP5 ADD DUP6 ADD MSTORE SWAP5 DUP6 ADD SWAP5 DUP8 SWAP5 POP SWAP2 DUP4 ADD SWAP2 PUSH2 0x16BC JUMP JUMPDEST SWAP3 POP POP POP PUSH2 0x16AC SWAP5 SWAP3 POP PUSH1 0xFF NOT AND DUP3 DUP5 ADD MSTORE ISZERO ISZERO PUSH1 0x5 SHL DUP3 ADD ADD CODESIZE DUP1 DUP1 PUSH2 0x169D JUMP JUMPDEST SWAP2 SWAP1 DUP3 MLOAD SWAP3 DUP4 DUP3 MSTORE PUSH1 0x0 JUMPDEST DUP5 DUP2 LT PUSH2 0x173B JUMPI POP POP DUP3 PUSH1 0x0 PUSH1 0x20 DUP1 SWAP5 SWAP6 DUP5 ADD ADD MSTORE PUSH1 0x1F DUP1 NOT SWAP2 ADD AND ADD ADD SWAP1 JUMP JUMPDEST PUSH1 0x20 DUP2 DUP4 ADD DUP2 ADD MLOAD DUP5 DUP4 ADD DUP3 ADD MSTORE ADD PUSH2 0x171A JUMP JUMPDEST SWAP2 DUP2 PUSH1 0x1F DUP5 ADD SLT ISZERO PUSH2 0x18E JUMPI DUP3 CALLDATALOAD SWAP2 PUSH8 0xFFFFFFFFFFFFFFFF DUP4 GT PUSH2 0x18E JUMPI PUSH1 0x20 DUP4 DUP2 DUP7 ADD SWAP6 ADD ADD GT PUSH2 0x18E JUMPI JUMP JUMPDEST PUSH1 0x4 CALLDATALOAD SWAP1 PUSH1 0x1 PUSH1 0x1 PUSH1 0xA0 SHL SUB DUP3 AND DUP3 SUB PUSH2 0x18E JUMPI JUMP JUMPDEST DUP1 SLOAD DUP3 LT ISZERO PUSH2 0x17AB JUMPI PUSH1 0x0 MSTORE PUSH1 0x20 PUSH1 0x0 KECCAK256 ADD SWAP1 PUSH1 0x0 SWAP1 JUMP JUMPDEST PUSH4 0x4E487B71 PUSH1 0xE0 SHL PUSH1 0x0 MSTORE PUSH1 0x32 PUSH1 0x4 MSTORE PUSH1 0x24 PUSH1 0x0 REVERT JUMPDEST ISZERO PUSH2 0x17C8 JUMPI JUMP JUMPDEST PUSH1 0x40 MLOAD PUSH3 0x461BCD PUSH1 0xE5 SHL DUP2 MSTORE PUSH1 0x20 PUSH1 0x4 DUP3 ADD MSTORE PUSH1 0x22 PUSH1 0x24 DUP3 ADD MSTORE PUSH32 0x4F6E6C792070726F7665722063616E2063616C6C20746869732066756E637469 PUSH1 0x44 DUP3 ADD MSTORE PUSH2 0x37B7 PUSH1 0xF1 SHL PUSH1 0x64 DUP3 ADD MSTORE PUSH1 0x84 SWAP1 REVERT JUMPDEST SWAP3 SWAP2 SWAP3 PUSH8 0xFFFFFFFFFFFFFFFF DUP3 GT PUSH2 0x700 JUMPI PUSH1 0x40 MLOAD SWAP2 PUSH2 0x1842 PUSH1 0x1F DUP3 ADD PUSH1 0x1F NOT AND PUSH1 0x20 ADD DUP5 PUSH2 0x1648 JUMP JUMPDEST DUP3 SWAP5 DUP2 DUP5 MSTORE DUP2 DUP4 ADD GT PUSH2 0x18E JUMPI DUP3 DUP2 PUSH1 0x20 SWAP4 DUP5 PUSH1 0x0 SWAP7 ADD CALLDATACOPY ADD ADD MSTORE JUMP JUMPDEST DUP1 SLOAD PUSH9 0x10000000000000000 DUP2 LT ISZERO PUSH2 0x700 JUMPI PUSH2 0x1881 SWAP2 PUSH1 0x1 DUP3 ADD DUP2 SSTORE PUSH2 0x1793 JUMP JUMPDEST DUP2 SWAP3 SWAP2 SLOAD SWAP1 PUSH1 0x3 SHL SWAP2 DUP3 SHL SWAP2 PUSH1 0x0 NOT SWAP1 SHL NOT AND OR SWAP1 SSTORE JUMP JUMPDEST SWAP2 DUP1 PUSH1 0x60 SWAP2 PUSH1 0x20 SWAP4 SWAP7 SWAP6 SWAP7 PUSH1 0x40 DUP7 MSTORE DUP2 PUSH1 0x40 DUP8 ADD MSTORE DUP4 DUP7 ADD CALLDATACOPY PUSH1 0x0 DUP3 DUP3 DUP7 ADD ADD MSTORE PUSH1 0x1F DUP1 NOT SWAP2 ADD AND DUP4 ADD ADD SWAP4 PUSH1 0x1 DUP1 PUSH1 0xA0 SHL SUB AND SWAP2 ADD MSTORE JUMP INVALID LOG2 PUSH5 0x6970667358 0x22 SLT KECCAK256 0xCB PUSH2 0xD0A5 0xEF PUSH23 0x2F01E6E149CD6BABBBC57D76979D2D0ED1B1399052A6CA 0xC8 LOG3 CALL PUSH5 0x736F6C6343 STOP ADDMOD XOR STOP CALLER "},"methodIdentifiers":{"admin()":"f851a440","createTimeTravelProof(bytes32,uint256,bytes32,string)":"0a5670c7","emailProofs(bytes32)":"03b9602e","executeTeleportProof(bytes32,uint256,uint256,bytes32)":"52037a34","getEmailProof(bytes32)":"11d40bcd","getTeleportProof(bytes32)":"a69375c6","getTimeTravelProof(bytes32)":"74024802","getTotalProofs()":"9b1bc0c9","getUserProofs(address)":"46bdfb80","getWebProof(bytes32)":"2a865d6b","proofCounter()":"6d9f4370","teleportProofs(bytes32)":"a0be97a0","timeTravelProofs(bytes32)":"f3b0964c","updateProver(address)":"0aef8054","userProofs(address,uint256)":"373b58e6","verifyEmailProof(bytes32,string,bytes32)":"853de72d","verifyWebProof(bytes32,string,bytes32,string)":"950bac2a","vlayerProver()":"5aca5b48","webProofs(bytes32)":"fbf2453e"}}}}}