{"contracts/BlockscoutRegistry.sol":{"BlockscoutRegistry":{"abi":[{"inputs":[{"internalType":"address","name":"_blockscoutOperator","type":"address"}],"stateMutability":"nonpayable","type":"constructor"},{"anonymous":false,"inputs":[{"indexed":true,"internalType":"address","name":"contractAddress","type":"address"},{"indexed":false,"internalType":"string","name":"name","type":"string"},{"indexed":false,"internalType":"string","name":"version","type":"string"},{"indexed":false,"internalType":"uint256","name":"deployBlock","type":"uint256"}],"name":"ContractRegistered","type":"event"},{"anonymous":false,"inputs":[{"indexed":true,"internalType":"bytes32","name":"txHash","type":"bytes32"},{"indexed":false,"internalType":"string","name":"description","type":"string"}],"name":"MetadataUpdated","type":"event"},{"anonymous":false,"inputs":[{"indexed":true,"internalType":"bytes32","name":"txHash","type":"bytes32"},{"indexed":true,"internalType":"address","name":"from","type":"address"},{"indexed":true,"internalType":"address","name":"to","type":"address"},{"indexed":false,"internalType":"string","name":"category","type":"string"},{"indexed":false,"internalType":"uint256","name":"timestamp","type":"uint256"}],"name":"TransactionRegistered","type":"event"},{"anonymous":false,"inputs":[{"indexed":true,"internalType":"address","name":"user","type":"address"},{"indexed":false,"internalType":"uint256","name":"totalTransactions","type":"uint256"},{"indexed":false,"internalType":"uint256","name":"reputationScore","type":"uint256"}],"name":"UserActivityUpdated","type":"event"},{"inputs":[],"name":"admin","outputs":[{"internalType":"address","name":"","type":"address"}],"stateMutability":"view","type":"function"},{"inputs":[],"name":"blockscoutOperator","outputs":[{"internalType":"address","name":"","type":"address"}],"stateMutability":"view","type":"function"},{"inputs":[{"internalType":"address","name":"","type":"address"}],"name":"contractRegistry","outputs":[{"internalType":"string","name":"name","type":"string"},{"internalType":"string","name":"description","type":"string"},{"internalType":"string","name":"version","type":"string"},{"internalType":"address","name":"contractAddress","type":"address"},{"internalType":"uint256","name":"deployBlock","type":"uint256"},{"internalType":"string","name":"sourceCodeUrl","type":"string"},{"internalType":"bool","name":"isVerified","type":"bool"}],"stateMutability":"view","type":"function"},{"inputs":[{"internalType":"bytes32","name":"txHash","type":"bytes32"}],"name":"generateBlockscoutMetadata","outputs":[{"internalType":"string","name":"","type":"string"}],"stateMutability":"view","type":"function"},{"inputs":[],"name":"getAnalytics","outputs":[{"internalType":"uint256","name":"totalTxs","type":"uint256"},{"internalType":"uint256","name":"totalContracts","type":"uint256"},{"internalType":"uint256","name":"activeUsers","type":"uint256"}],"stateMutability":"view","type":"function"},{"inputs":[{"internalType":"address","name":"contractAddress","type":"address"}],"name":"getContractMetadata","outputs":[{"components":[{"internalType":"string","name":"name","type":"string"},{"internalType":"string","name":"description","type":"string"},{"internalType":"string","name":"version","type":"string"},{"internalType":"address","name":"contractAddress","type":"address"},{"internalType":"uint256","name":"deployBlock","type":"uint256"},{"internalType":"string","name":"sourceCodeUrl","type":"string"},{"internalType":"bool","name":"isVerified","type":"bool"},{"internalType":"string[]","name":"tags","type":"string[]"}],"internalType":"struct BlockscoutRegistry.ContractMetadata","name":"","type":"tuple"}],"stateMutability":"view","type":"function"},{"inputs":[{"internalType":"bytes32","name":"txHash","type":"bytes32"}],"name":"getTransaction","outputs":[{"components":[{"internalType":"bytes32","name":"txHash","type":"bytes32"},{"internalType":"address","name":"from","type":"address"},{"internalType":"address","name":"to","type":"address"},{"internalType":"uint256","name":"value","type":"uint256"},{"internalType":"bytes","name":"data","type":"bytes"},{"internalType":"uint256","name":"blockNumber","type":"uint256"},{"internalType":"uint256","name":"timestamp","type":"uint256"},{"internalType":"string","name":"category","type":"string"},{"internalType":"string","name":"description","type":"string"},{"internalType":"bool","name":"isVerified","type":"bool"}],"internalType":"struct BlockscoutRegistry.TransactionRecord","name":"","type":"tuple"}],"stateMutability":"view","type":"function"},{"inputs":[{"internalType":"string","name":"category","type":"string"}],"name":"getTransactionsByCategory","outputs":[{"internalType":"bytes32[]","name":"","type":"bytes32[]"}],"stateMutability":"view","type":"function"},{"inputs":[{"internalType":"address","name":"user","type":"address"}],"name":"getUserActivity","outputs":[{"components":[{"internalType":"uint256","name":"totalTransactions","type":"uint256"},{"internalType":"uint256","name":"totalProposals","type":"uint256"},{"internalType":"uint256","name":"totalVotes","type":"uint256"},{"internalType":"uint256","name":"lastActivityBlock","type":"uint256"},{"internalType":"uint256","name":"reputationScore","type":"uint256"},{"internalType":"bool","name":"isActive","type":"bool"}],"internalType":"struct BlockscoutRegistry.UserActivity","name":"","type":"tuple"}],"stateMutability":"view","type":"function"},{"inputs":[{"internalType":"address","name":"user","type":"address"}],"name":"getUserTransactions","outputs":[{"internalType":"bytes32[]","name":"","type":"bytes32[]"}],"stateMutability":"view","type":"function"},{"inputs":[],"name":"pause","outputs":[],"stateMutability":"nonpayable","type":"function"},{"inputs":[{"internalType":"address","name":"contractAddress","type":"address"},{"internalType":"string","name":"name","type":"string"},{"internalType":"string","name":"description","type":"string"},{"internalType":"string","name":"version","type":"string"},{"internalType":"string[]","name":"tags","type":"string[]"}],"name":"registerContract","outputs":[],"stateMutability":"nonpayable","type":"function"},{"inputs":[{"internalType":"bytes32","name":"txHash","type":"bytes32"},{"internalType":"address","name":"from","type":"address"},{"internalType":"address","name":"to","type":"address"},{"internalType":"uint256","name":"value","type":"uint256"},{"internalType":"bytes","name":"data","type":"bytes"},{"internalType":"string","name":"category","type":"string"},{"internalType":"string","name":"description","type":"string"}],"name":"registerTransaction","outputs":[],"stateMutability":"nonpayable","type":"function"},{"inputs":[],"name":"totalRecords","outputs":[{"internalType":"uint256","name":"","type":"uint256"}],"stateMutability":"view","type":"function"},{"inputs":[{"internalType":"bytes32","name":"","type":"bytes32"}],"name":"transactionRecords","outputs":[{"internalType":"bytes32","name":"txHash","type":"bytes32"},{"internalType":"address","name":"from","type":"address"},{"internalType":"address","name":"to","type":"address"},{"internalType":"uint256","name":"value","type":"uint256"},{"internalType":"bytes","name":"data","type":"bytes"},{"internalType":"uint256","name":"blockNumber","type":"uint256"},{"internalType":"uint256","name":"timestamp","type":"uint256"},{"internalType":"string","name":"category","type":"string"},{"internalType":"string","name":"description","type":"string"},{"internalType":"bool","name":"isVerified","type":"bool"}],"stateMutability":"view","type":"function"},{"inputs":[{"internalType":"string","name":"","type":"string"},{"internalType":"uint256","name":"","type":"uint256"}],"name":"transactionsByCategory","outputs":[{"internalType":"bytes32","name":"","type":"bytes32"}],"stateMutability":"view","type":"function"},{"inputs":[],"name":"unpause","outputs":[],"stateMutability":"nonpayable","type":"function"},{"inputs":[{"internalType":"address","name":"newOperator","type":"address"}],"name":"updateBlockscoutOperator","outputs":[],"stateMutability":"nonpayable","type":"function"},{"inputs":[{"internalType":"bytes32","name":"txHash","type":"bytes32"},{"internalType":"string","name":"description","type":"string"}],"name":"updateTransactionMetadata","outputs":[],"stateMutability":"nonpayable","type":"function"},{"inputs":[{"internalType":"address","name":"","type":"address"}],"name":"userActivities","outputs":[{"internalType":"uint256","name":"totalTransactions","type":"uint256"},{"internalType":"uint256","name":"totalProposals","type":"uint256"},{"internalType":"uint256","name":"totalVotes","type":"uint256"},{"internalType":"uint256","name":"lastActivityBlock","type":"uint256"},{"internalType":"uint256","name":"reputationScore","type":"uint256"},{"internalType":"bool","name":"isActive","type":"bool"}],"stateMutability":"view","type":"function"},{"inputs":[{"internalType":"address","name":"","type":"address"},{"internalType":"uint256","name":"","type":"uint256"}],"name":"userTransactions","outputs":[{"internalType":"bytes32","name":"","type":"bytes32"}],"stateMutability":"view","type":"function"},{"inputs":[{"internalType":"address","name":"contractAddress","type":"address"},{"internalType":"string","name":"sourceCodeUrl","type":"string"}],"name":"verifyContract","outputs":[],"stateMutability":"nonpayable","type":"function"}],"evm":{"bytecode":{"linkReferences":{},"object":"6080346200090c57601f6200303838819003918201601f19168301916001600160401b0383118484101762000578578084926020946040528339810103126200090c57516001600160a01b038116908190036200090c57600580546001600160a01b031990811633179091556006805490911691909117905560006007556200008762000911565b600081526200009562000931565b6012815271426c6f636b73636f7574526567697374727960701b6020820152604051909190606081016001600160401b038111828210176200057857604052602181527f5472616e73706172656e637920726567697374727920666f72204754552044416020820152604f60f81b60408201526200011262000931565b9160058352640312e302e360dc1b6020840152306000526001602052600460406000200154620008c757604051916001600160401b036101008401908111908411176200057857610100830160405284835260208301528260408301523060608301524360808301526200018562000911565b6000815260a0830152600060c083015260e08201523060005260016020526040600020815180519060018060401b0382116200057857620001c7835462000951565b601f811162000891575b50602090601f8311600114620008205762000206929160009183620004b5575b50508160011b916000199060031b1c19161790565b81555b60208201518051906001600160401b03821162000578576200022f600184015462000951565b601f8111620007e7575b50602090601f831160011462000770576200026d929160009183620004b55750508160011b916000199060031b1c19161790565b60018201555b60408201518051906001600160401b038211620005785762000299600284015462000951565b601f811162000737575b50602090601f8311600114620006c057620002d7929160009183620004b55750508160011b916000199060031b1c19161790565b60028201555b60608201516003820180546001600160a01b0319166001600160a01b03929092169190911790556080820151600482015560a08201518051906001600160401b038211620005785762000334600584015462000951565b601f811162000687575b50602090601f83116001146200060d578260079360e095936200037893600092620004b55750508160011b916000199060031b1c19161790565b60058201555b6006810160c0850151151560ff8019835416911617905501910151805190680100000000000000008211620005785782548284558083106200058e575b50602001916000526020600020916000905b8282106200043f57857f579ef2edbcab574dd08e96ae9c9ab7f9c3f82c08b575c573470d9ae7ec3512d162000422876200041360405194606086526060860190620009a7565b908482036020860152620009a7565b914360408201528030930390a260405161264e9081620009ea8239f35b80518051906001600160401b03821162000578576200045f865462000951565b601f811162000536575b50602090601f8311600114620004c15792620004a583600195946020948796600092620004b55750508160011b916000199060031b1c19161790565b87555b01940191019092620003cd565b015190503880620001f1565b908660005260206000209160005b601f19851681106200051d575083602093600196938796938794601f1981161062000503575b505050811b018755620004a8565b015160001960f88460031b161c19169055388080620004f5565b91926020600181928685015181550194019201620004cf565b6200056690876000526020600020601f850160051c810191602086106200056d575b601f0160051c01906200098e565b3862000469565b909150819062000558565b634e487b7160e01b600052604160045260246000fd5b8360005282602060002091820191015b818110620005ad5750620003bb565b80620005bc6001925462000951565b80620005cb575b50016200059e565b601f81118314620005e35750600081555b38620005c3565b60009082825262000603601f60208420920160051c82018583016200098e565b81835555620005dc565b906005840160005260206000209160005b601f19851681106200066e57509260e0949260019260079583601f1981161062000654575b505050811b0160058201556200037e565b015160001960f88460031b161c1916905538808062000643565b919260206001819286850151815501940192016200061e565b620006b990600585016000526020600020601f850160051c810191602086106200056d57601f0160051c01906200098e565b386200033e565b9190600284016000526020600020906000935b601f19841685106200071b576001945083601f1981161062000701575b505050811b016002820155620002dd565b015160001960f88460031b161c19169055388080620006f0565b81810151835560209485019460019093019290910190620006d3565b6200076990600285016000526020600020601f850160051c810191602086106200056d57601f0160051c01906200098e565b38620002a3565b9190600184016000526020600020906000935b601f1984168510620007cb576001945083601f19811610620007b1575b505050811b01600182015562000273565b015160001960f88460031b161c19169055388080620007a0565b8181015183556020948501946001909301929091019062000783565b6200081990600185016000526020600020601f850160051c810191602086106200056d57601f0160051c01906200098e565b3862000239565b9190836000526020600020906000935b601f198416851062000875576001945083601f198116106200085b575b505050811b01815562000209565b015160001960f88460031b161c191690553880806200084d565b8181015183556020948501946001909301929091019062000830565b620008c090846000526020600020601f850160051c810191602086106200056d57601f0160051c01906200098e565b38620001d1565b60405162461bcd60e51b815260206004820152601b60248201527f436f6e747261637420616c7265616479207265676973746572656400000000006044820152606490fd5b600080fd5b60405190602082016001600160401b038111838210176200057857604052565b60408051919082016001600160401b038111838210176200057857604052565b90600182811c9216801562000983575b60208310146200096d57565b634e487b7160e01b600052602260045260246000fd5b91607f169162000961565b8181106200099a575050565b600081556001016200098e565b919082519283825260005b848110620009d4575050826000602080949584010152601f8019910116010190565b602081830181015184830182015201620009b256fe608080604052600436101561001357600080fd5b60003560e01c9081630ccb2ec814611ea957508063125f897414611e8b578063130b561714611e625780633f4ba83a146110a4578063470b564614611d5c5780634aae13ca14611b755780634e1dc73014611b2957806355e78f33146119125780636035eb4b1461187757806370f2a476146110cc5780638456cb59146110a4578063985cc0611461102e578063b842ec4414610fd6578063d4076630146109f4578063d8b4f88814610850578063e0f3aa1114610777578063e6397652146106fd578063ed111b06146105f2578063ef92539914610567578063f7b2a8fd146102ff578063f851a440146102d65763f898da7d1461011157600080fd5b346102d15760403660031901126102d1576001600160401b036004356024358281116102d1576101459036906004016120e1565b60055461016790336001600160a01b03918216149081156102c3575b5061221a565b8160005260206000815261018460066040600020015415156121d6565b8260005260008152600860406000200182519485116102ad576101b1856101ab8354611ed2565b83612296565b81601f861160011461022857857fe36c73fd13989812054eaa73a813bdd65752bda9044a9bdac079e4143c6ab7bd95966102019260009161021d575b508160011b916000199060031b1c19161790565b90555b610218604051928284938452830190612054565b0390a2005b9050850151386101ed565b601f1986169082600052836000209160005b81811061029657509187917fe36c73fd13989812054eaa73a813bdd65752bda9044a9bdac079e4143c6ab7bd97986001941061027d575b5050811b019055610204565b86015160001960f88460031b161c191690553880610271565b91928560018192868a01518155019401920161023a565b634e487b7160e01b600052604160045260246000fd5b905060065416331438610161565b600080fd5b346102d15760003660031901126102d1576005546040516001600160a01b039091168152602090f35b346102d15760203660031901126102d157610318612079565b606060e060405161032881611fbe565b828152826020820152826040820152600083820152600060808201528260a0820152600060c0820152015260018060a01b03166000526001602052604060002060076040519161037783611fbe565b60405161038f816103888185611f0c565b0382612010565b83526040516103a5816103888160018601611f0c565b60208401526040516103be816103888160028601611f0c565b60408481019190915260038201546001600160a01b0316606085015260048201546080850152516103f6816103888160058601611f0c565b60a084015260ff600682015416151560c08401520180546104168161213b565b916104246040519384612010565b818352602083019060005260206000206000915b83831061054257858560e082015260405180916020825261046781516101006020850152610120840190612054565b60e06104cf61049f61048b602086015194601f1995868983030160408a0152612054565b604086015185888303016060890152612054565b60018060a01b036060860151166080870152608085015160a087015260a0850151848783030160c0880152612054565b9260c08101511515828601520151918184820301610100850152825190818152602081016020808460051b8401019501936000925b8484106105115787870388f35b9193958193959750602061053082600194868495030188528a51612054565b98019401940191879695939491610504565b600160208192604051610559816103888189611f0c565b815201920192019190610438565b346102d1576020806003193601126102d1576001600160a01b03610589612079565b1660005260046020526040600020906040519081602084549182815201936000526020600020916000905b8282106105db576105d7856105cb81890382612010565b604051918291826120ff565b0390f35b8354865294850194600193840193909101906105b4565b346102d15760203660031901126102d1576106bd6001600160a01b0380610617612079565b16600052600160205260406000206106f1604051926106418461063a8186611f0c565b0385612010565b604051926106568461063a8160018501611f0c565b604051916106728361066b8160028601611f0c565b0384612010565b600382015416916106d96004830154916106cb60ff6006604051966106a58861069e8160058501611f0c565b0389612010565b015416976040519a8b9a60e08c5260e08c0190612054565b908a820360208c0152612054565b9088820360408a0152612054565b926060870152608086015284820360a0860152612054565b90151560c08301520390f35b346102d15760403660031901126102d1576004356001600160401b0381116102d15761072d9036906004016120e1565b6107496020602435928160405193828580945193849201612031565b8101600381520301902080548210156102d15760209161076891612152565b90549060031b1c604051908152f35b346102d15760203660031901126102d157610790612079565b600060a06040516107a081611fda565b828152826020820152826040820152826060820152826080820152015260018060a01b0316600052600260205260c060406000206040516107e081611fda565b8154918282526001810154602083019081526002820154604084019081526003830154916060850192835260a060ff6005600487015496608089019788520154169501941515855260405195865251602086015251604085015251606084015251608083015251151560a0820152f35b346102d15760403660031901126102d157610869612079565b6001600160401b03906024358281116102d15761088a9036906004016120e1565b60055490916001600160a01b03916108a59083163314612180565b169081600052600191602091838352600460406000200154156109af578160005283835260056040600020019080519586116102ad576108ef866108e98454611ed2565b84612296565b8390601f871160011461094a57958061092192879860009261093f575b50508160011b916000199060031b1c19161790565b90555b6000525260066040600020019060ff19825416179055600080f35b01519050888061090c565b90601f1987169183600052856000209260005b81811061099a575091879892918389959310610981575b505050811b019055610924565b015160001960f88460031b161c19169055878080610974565b8284015185559388019392870192870161095d565b60405162461bcd60e51b815260048101849052601760248201527f436f6e7472616374206e6f7420726567697374657265640000000000000000006044820152606490fd5b346102d15760e03660031901126102d1576024356001600160a01b03811690036102d1576044356001600160a01b03811690036102d1576084356001600160401b0381116102d157366023820112156102d157610a5b9036906024816004013591016120aa565b60a4356001600160401b0381116102d157610a7a9036906004016120e1565b9060c4356001600160401b0381116102d157610a9a9036906004016120e1565b6005546001600160a01b031633148015610fc2575b610ab89061221a565b6004356000526000602052600660406000200154610f7d5760405191610add83611fa2565b600435835260018060a01b0360243516602084015260018060a01b03604435166040840152606435606084015260808301524360a08301524260c08301528260e083015261010082015260016101208201526004356000526000602052604060002091815183556001830160018060a01b03602084015116906001600160601b0360a01b9182825416179055600284019060018060a01b03604085015116908254161790556060820151600384015560808201519283516001600160401b0381116102ad57610bbc81610bb36004850154611ed2565b60048501612296565b6020601f8211600114610f0e578190610bee93949596600092610e945750508160011b916000199060031b1c19161790565b60048201555b60a0830151600582015560c0830151600682015560e08301519283516001600160401b0381116102ad57610c3881610c2f6007860154611ed2565b60078601612296565b6020601f8211600114610e9f578190610c6a93949596600092610e945750508160011b916000199060031b1c19161790565b60078301555b600882016101008201518051906001600160401b0382116102ad57610c9f82610c998554611ed2565b85612296565b602090601f8311600114610e215792610cdb8361012094610cf5989794600997600092610e165750508160011b916000199060031b1c19161790565b90555b0151151591019060ff801983541691151516179055565b610d01816024356123fc565b6024356001600160a01b03908116604435909116141580610e05575b610d4a6040518351610d33818360208801612031565b8101906003825260208160043593030190206122dd565b60018060a01b03602435166000526004602052610d6d60043560406000206122dd565b610ddd575b610d7d600754612312565b600755610d9560405191604083526040830190612054565b4260208301526001600160a01b0360443581169260243590911691600435917f3f4a6bb4c4a707355184826d48e737bf3d6a2883e63ef54da2ada4d314c472b59181900390a4005b60018060a01b03604435166000526004602052610e0060043560406000206122dd565b610d72565b610e11826044356123fc565b610d1d565b015190508a8061090c565b90601f198316918460005260206000209260005b818110610e7c575093610cf597969360099693600193836101209810610e63575b505050811b019055610cde565b015160001960f88460031b161c19169055898080610e56565b92936020600181928786015181550195019301610e35565b01519050868061090c565b6007840160005260206000209060005b601f1984168110610ef6575060019394959683601f19811610610edd575b505050811b016007830155610c70565b015160001960f88460031b161c19169055858080610ecd565b9091602060018192858b015181550193019101610eaf565b6004830160005260206000209060005b601f1984168110610f65575060019394959683601f19811610610f4c575b505050811b016004820155610bf4565b015160001960f88460031b161c19169055858080610f3c565b9091602060018192858b015181550193019101610f1e565b60405162461bcd60e51b815260206004820152601e60248201527f5472616e73616374696f6e20616c7265616479207265676973746572656400006044820152606490fd5b506006546001600160a01b03163314610aaf565b346102d15760403660031901126102d157610fef612079565b6001600160a01b03166000908152600460205260409020805460243591908210156102d15760209161102091612152565b90546040519160031b1c8152f35b346102d15760203660031901126102d1576001600160a01b0361104f612079565b16600052600260205260c06040600020805490600181015490600281015460038201549060ff6005600485015494015416936040519586526020860152604085015260608401526080830152151560a0820152f35b346102d15760003660031901126102d1576110ca60018060a01b03600554163314612180565b005b346102d15760a03660031901126102d1576110e5612079565b6024356001600160401b0381116102d1576111049036906004016120e1565b6044356001600160401b0381116102d1576111239036906004016120e1565b6064356001600160401b0381116102d1576111429036906004016120e1565b906084356001600160401b0381116102d157366023820112156102d157806004013561116d8161213b565b9161117b6040519384612010565b8183526024602084019260051b820101903682116102d15760248101925b82841061184857505050506111b960018060a01b03600554163314612180565b6001600160a01b03851660009081526001602052604090206004015461180357604051916111e683611fbe565b848352602083015282604083015260018060a01b03851660608301524360808301526040518060208101106001600160401b036020830111176102ad57602081016040526000815260a0830152600060c083015260e082015260018060a01b038416600052600160205260406000209080518051906001600160401b0382116102ad5761127d826112778654611ed2565b86612296565b602090601f8311600114611797576112ad92916000918361093f5750508160011b916000199060031b1c19161790565b82555b60208101518051906001600160401b0382116102ad576112e0826112d76001870154611ed2565b60018701612296565b602090601f83116001146117255761131092916000918361093f5750508160011b916000199060031b1c19161790565b60018301555b60408101518051906001600160401b0382116102ad576113468261133d6002870154611ed2565b60028701612296565b602090601f83116001146116b35761137692916000918361093f5750508160011b916000199060031b1c19161790565b60028301555b6003820160018060a01b036060830151166001600160601b0360a01b8254161790556080810151600483015560a08101518051906001600160401b0382116102ad576113d8826113cf6005870154611ed2565b60058701612296565b602090601f831160011461164057918061140c9260e095946000926116355750508160011b916000199060031b1c19161790565b60058401555b61143160c08201511515600685019060ff801983541691151516179055565b0151805190600160401b82116102ad5760078301548260078501558083106115bd575b5060206007910192016000526020600020916000905b8282106114d457867f579ef2edbcab574dd08e96ae9c9ab7f9c3f82c08b575c573470d9ae7ec3512d16114af886114bd89604051938493606085526060850190612054565b908382036020850152612054565b4360408301526001600160a01b03909416930390a2005b80518051906001600160401b0382116102ad576114fb826114f58854611ed2565b88612296565b602090601f831160011461154d5792611533836001959460209487966000926115425750508160011b916000199060031b1c19161790565b87555b0194019101909261146a565b015190508d8061090c565b908660005260206000209160005b601f19851681106115a5575083602093600196938796938794601f1981161061158c575b505050811b018755611536565b015160001960f88460031b161c191690558c808061157f565b9192602060018192868501518155019401920161155b565b600784016000526020600020908382015b81830181106115de575050611454565b806115eb60019254611ed2565b806115f8575b50016115ce565b601f8111831461160e5750600081555b8a6115f1565b60009082825261162c601f60208420920160051c820185830161227f565b81835555611608565b01519050898061090c565b906005850160005260206000209160005b601f198516811061169b575091839160019360e09695601f19811610611682575b505050811b016005840155611412565b015160001960f88460031b161c19169055888080611672565b91926020600181928685015181550194019201611651565b9190600285016000526020600020906000935b601f198416851061170a576001945083601f198116106116f1575b505050811b01600283015561137c565b015160001960f88460031b161c191690558780806116e1565b818101518355602094850194600190930192909101906116c6565b9190600185016000526020600020906000935b601f198416851061177c576001945083601f19811610611763575b505050811b016001830155611316565b015160001960f88460031b161c19169055878080611753565b81810151835560209485019460019093019290910190611738565b9190846000526020600020906000935b601f19841685106117e8576001945083601f198116106117cf575b505050811b0182556112b0565b015160001960f88460031b161c191690558780806117c2565b818101518355602094850194600190930192909101906117a7565b60405162461bcd60e51b815260206004820152601b60248201527f436f6e747261637420616c7265616479207265676973746572656400000000006044820152606490fd5b83356001600160401b0381116102d15760209161186c8392602436918701016120e1565b815201930192611199565b346102d1576020806003193601126102d1576004356001600160401b0381116102d157816118ac6118bf9236906004016120e1565b8160405193828580945193849201612031565b8101600381520301902090604051908181845491828152019360005281600020916000905b8282106118fb576105d7856105cb81890382612010565b8354865294850194600193840193909101906118e4565b346102d1576020806003193601126102d15760043560005260008152604060002090611af260596040519361194685611fa2565b8054855260018060a01b038060018301541685870152600282015416604086015260038101546060860152604051611985816103888160048601611f0c565b6080860152600581015460a086015260068101549460c08101958652611a036040516119b8816103888160078801611f0c565b60e0830190815261012060ff6009604051966119db8861069e8160088501611f0c565b6101008701978852015416930192151583526119f9885115156121d6565b5192519651612337565b905115611b0657604051611a1681611ff5565b60048152637472756560e01b86820152905b6040519687936c3d9131b0ba32b3b7b93c911d1160991b88860152611a56815180928a602d89019101612031565b8401701116113232b9b1b934b83a34b7b7111d1160791b602d820152611a85825180938a603e85019101612031565b016d1116113a34b6b2b9ba30b6b8111d60911b603e820152611ab08251809389604c85019101612031565b016b16113b32b934b334b2b2111d60a11b604c820152611ad98251809388605885019101612031565b01607d60f81b6058820152036039810185520183612010565b6105d7604051928284938452830190612054565b604051611b1281611ff5565b600581526466616c736560d81b8682015290611a28565b346102d15760203660031901126102d157611b42612079565b6005546001600160a01b039190611b5c9083163314612180565b166001600160601b0360a01b6006541617600655600080f35b346102d15760203660031901126102d1576004356000610120604051611b9a81611fa2565b828152826020820152826040820152826060820152606060808201528260a08201528260c0820152606060e082015260606101008201520152806000526000602052611bef60066040600020015415156121d6565b6000526000602052604060002060ff600960405192611c0d84611fa2565b8054845260018101546001600160a01b0390811660208601526002820154166040808601919091526003820154606086015251611c51816103888160048601611f0c565b6080850152600581015460a0850152600681015460c0850152604051611c7e816103888160078601611f0c565b60e0850152604051611c97816103888160088601611f0c565b61010085015201541615156101208201526040518091602082528051602083015260018060a01b03602082015116604083015260018060a01b036040820151166060830152606081015160808301526080810151610120611d4f611d09610140938460a0880152610160870190612054565b60a085015160c087015260c085015160e0870152611d3a60e086015191601f199283898303016101008a0152612054565b90610100860151908783030184880152612054565b9201511515908301520390f35b346102d15760203660031901126102d1576004356000526000602052604060002060208154611e5560018060a01b0393611e46856001830154169560028301541693600383015460405191611db88361066b8160048901611f0c565b611e2e60058601549360068701549260405194611de386611ddc8160078d01611f0c565b0387612010565b60ff60096040519a611e038c611dfc8160088501611f0c565b038d612010565b0154169a6040519d8e9d8e610140958152015260408d015260608c01528060808c01528a0190612054565b9260a089015260c088015286820360e0880152612054565b90848203610100860152612054565b9015156101208301520390f35b346102d15760003660031901126102d1576006546040516001600160a01b039091168152602090f35b346102d15760003660031901126102d1576020600754604051908152f35b346102d15760003660031901126102d15760609060075481526000602082015260006040820152f35b90600182811c92168015611f02575b6020831014611eec57565b634e487b7160e01b600052602260045260246000fd5b91607f1691611ee1565b805460009392611f1b82611ed2565b91828252602093600191600181169081600014611f835750600114611f42575b5050505050565b90939495506000929192528360002092846000945b838610611f6f57505050500101903880808080611f3b565b805485870183015294019385908201611f57565b60ff19168685015250505090151560051b010191503880808080611f3b565b61014081019081106001600160401b038211176102ad57604052565b61010081019081106001600160401b038211176102ad57604052565b60c081019081106001600160401b038211176102ad57604052565b604081019081106001600160401b038211176102ad57604052565b90601f801991011681019081106001600160401b038211176102ad57604052565b60005b8381106120445750506000910152565b8181015183820152602001612034565b9060209161206d81518092818552858086019101612031565b601f01601f1916010190565b600435906001600160a01b03821682036102d157565b6001600160401b0381116102ad57601f01601f191660200190565b9291926120b68261208f565b916120c46040519384612010565b8294818452818301116102d1578281602093846000960137010152565b9080601f830112156102d1578160206120fc933591016120aa565b90565b602090602060408183019282815285518094520193019160005b828110612127575050505090565b835185529381019392810192600101612119565b6001600160401b0381116102ad5760051b60200190565b805482101561216a5760005260206000200190600090565b634e487b7160e01b600052603260045260246000fd5b1561218757565b60405162461bcd60e51b815260206004820152602160248201527f4f6e6c792061646d696e2063616e2063616c6c20746869732066756e6374696f6044820152603760f91b6064820152608490fd5b156121dd57565b60405162461bcd60e51b8152602060048201526015602482015274151c985b9cd858dd1a5bdb881b9bdd08199bdd5b99605a1b6044820152606490fd5b1561222157565b60405162461bcd60e51b815260206004820152603060248201527f4f6e6c7920617574686f72697a6564206164647265737365732063616e20636160448201526f3636103a3434b990333ab731ba34b7b760811b6064820152608490fd5b81811061228a575050565b6000815560010161227f565b9190601f81116122a557505050565b6122d1926000526020600020906020601f840160051c830193106122d3575b601f0160051c019061227f565b565b90915081906122c4565b8054600160401b8110156102ad576122fa91600182018155612152565b819291549060031b91821b91600019901b1916179055565b60001981146123215760010190565b634e487b7160e01b600052601160045260246000fd5b80156123de57600081805b6123ca57506123508161208f565b9061235e6040519283612010565b808252601f1961236d8261208f565b013660208401375b809280156123c3576000198201918211612321578193600a926030908484068201809211612321578551111561216a5760f81b6001600160f81b03191660001a908401601f01530491612375565b5050905090565b906123d6600a91612312565b910480612342565b506040516123eb81611ff5565b60018152600360fc1b602082015290565b91909160018060a01b031660009281845260209060028252604091828620916124258354612312565b835543600384015560058301600160ff1982541617905580517fb6d2dc83590271a7c0a5ab5fbf6a2dad418bbfd533c253e3d69a6772712809c7838301918220671c1c9bdc1bdcd85b60c21b85885161247d81611ff5565b600881520152036124fa575050600182016124988154612312565b905560048201805490600a82018092116124e6577f1de1b315819996fa3806de26b2de57c02f9b5bf13e6f68af7d759d1bf058a1a295969750555b60048254920154908351928352820152a2565b634e487b7160e01b88526011600452602488fd5b7f0932bdf85fc8aa10ac3c22f02317f8f53d4b4f52235ed1eabb3a4cbbe08b5c418251822063766f746560e01b85885161253381611ff5565b6004815201520361258d5750506002820161254e8154612312565b905560048201805490600582018092116124e6577f1de1b315819996fa3806de26b2de57c02f9b5bf13e6f68af7d759d1bf058a1a295969750556124d3565b7fa29cad97d4110e8822dedef32879f84a8e8889bf965ff9c57998689e2fdafbc491519020626b796360e81b8386516125c581611ff5565b600381520152146125fb575b7f1de1b315819996fa3806de26b2de57c02f9b5bf13e6f68af7d759d1bf058a1a2939495506124d3565b60048201805490601482018092116124e6575593945084936125d156fea264697066735822122043e1be53af57ae1ea06eae7b6a5707edca42fc2035caeba7572c4f20e7c4e9f164736f6c63430008180033","opcodes":"PUSH1 0x80 CALLVALUE PUSH3 0x90C JUMPI PUSH1 0x1F PUSH3 0x3038 CODESIZE DUP2 SWAP1 SUB SWAP2 DUP3 ADD PUSH1 0x1F NOT AND DUP4 ADD SWAP2 PUSH1 0x1 PUSH1 0x1 PUSH1 0x40 SHL SUB DUP4 GT DUP5 DUP5 LT OR PUSH3 0x578 JUMPI DUP1 DUP5 SWAP3 PUSH1 0x20 SWAP5 PUSH1 0x40 MSTORE DUP4 CODECOPY DUP2 ADD SUB SLT PUSH3 0x90C JUMPI MLOAD PUSH1 0x1 PUSH1 0x1 PUSH1 0xA0 SHL SUB DUP2 AND SWAP1 DUP2 SWAP1 SUB PUSH3 0x90C JUMPI PUSH1 0x5 DUP1 SLOAD PUSH1 0x1 PUSH1 0x1 PUSH1 0xA0 SHL SUB NOT SWAP1 DUP2 AND CALLER OR SWAP1 SWAP2 SSTORE PUSH1 0x6 DUP1 SLOAD SWAP1 SWAP2 AND SWAP2 SWAP1 SWAP2 OR SWAP1 SSTORE PUSH1 0x0 PUSH1 0x7 SSTORE PUSH3 0x87 PUSH3 0x911 JUMP JUMPDEST PUSH1 0x0 DUP2 MSTORE PUSH3 0x95 PUSH3 0x931 JUMP JUMPDEST PUSH1 0x12 DUP2 MSTORE PUSH18 0x426C6F636B73636F75745265676973747279 PUSH1 0x70 SHL PUSH1 0x20 DUP3 ADD MSTORE PUSH1 0x40 MLOAD SWAP1 SWAP2 SWAP1 PUSH1 0x60 DUP2 ADD PUSH1 0x1 PUSH1 0x1 PUSH1 0x40 SHL SUB DUP2 GT DUP3 DUP3 LT OR PUSH3 0x578 JUMPI PUSH1 0x40 MSTORE PUSH1 0x21 DUP2 MSTORE PUSH32 0x5472616E73706172656E637920726567697374727920666F7220475455204441 PUSH1 0x20 DUP3 ADD MSTORE PUSH1 0x4F PUSH1 0xF8 SHL PUSH1 0x40 DUP3 ADD MSTORE PUSH3 0x112 PUSH3 0x931 JUMP JUMPDEST SWAP2 PUSH1 0x5 DUP4 MSTORE PUSH5 0x312E302E3 PUSH1 0xDC SHL PUSH1 0x20 DUP5 ADD MSTORE ADDRESS PUSH1 0x0 MSTORE PUSH1 0x1 PUSH1 0x20 MSTORE PUSH1 0x4 PUSH1 0x40 PUSH1 0x0 KECCAK256 ADD SLOAD PUSH3 0x8C7 JUMPI PUSH1 0x40 MLOAD SWAP2 PUSH1 0x1 PUSH1 0x1 PUSH1 0x40 SHL SUB PUSH2 0x100 DUP5 ADD SWAP1 DUP2 GT SWAP1 DUP5 GT OR PUSH3 0x578 JUMPI PUSH2 0x100 DUP4 ADD PUSH1 0x40 MSTORE DUP5 DUP4 MSTORE PUSH1 0x20 DUP4 ADD MSTORE DUP3 PUSH1 0x40 DUP4 ADD MSTORE ADDRESS PUSH1 0x60 DUP4 ADD MSTORE NUMBER PUSH1 0x80 DUP4 ADD MSTORE PUSH3 0x185 PUSH3 0x911 JUMP JUMPDEST PUSH1 0x0 DUP2 MSTORE PUSH1 0xA0 DUP4 ADD MSTORE PUSH1 0x0 PUSH1 0xC0 DUP4 ADD MSTORE PUSH1 0xE0 DUP3 ADD MSTORE ADDRESS PUSH1 0x0 MSTORE PUSH1 0x1 PUSH1 0x20 MSTORE PUSH1 0x40 PUSH1 0x0 KECCAK256 DUP2 MLOAD DUP1 MLOAD SWAP1 PUSH1 0x1 DUP1 PUSH1 0x40 SHL SUB DUP3 GT PUSH3 0x578 JUMPI PUSH3 0x1C7 DUP4 SLOAD PUSH3 0x951 JUMP JUMPDEST PUSH1 0x1F DUP2 GT PUSH3 0x891 JUMPI JUMPDEST POP PUSH1 0x20 SWAP1 PUSH1 0x1F DUP4 GT PUSH1 0x1 EQ PUSH3 0x820 JUMPI PUSH3 0x206 SWAP3 SWAP2 PUSH1 0x0 SWAP2 DUP4 PUSH3 0x4B5 JUMPI JUMPDEST POP POP DUP2 PUSH1 0x1 SHL SWAP2 PUSH1 0x0 NOT SWAP1 PUSH1 0x3 SHL SHR NOT AND OR SWAP1 JUMP JUMPDEST DUP2 SSTORE JUMPDEST PUSH1 0x20 DUP3 ADD MLOAD DUP1 MLOAD SWAP1 PUSH1 0x1 PUSH1 0x1 PUSH1 0x40 SHL SUB DUP3 GT PUSH3 0x578 JUMPI PUSH3 0x22F PUSH1 0x1 DUP5 ADD SLOAD PUSH3 0x951 JUMP JUMPDEST PUSH1 0x1F DUP2 GT PUSH3 0x7E7 JUMPI JUMPDEST POP PUSH1 0x20 SWAP1 PUSH1 0x1F DUP4 GT PUSH1 0x1 EQ PUSH3 0x770 JUMPI PUSH3 0x26D SWAP3 SWAP2 PUSH1 0x0 SWAP2 DUP4 PUSH3 0x4B5 JUMPI POP POP DUP2 PUSH1 0x1 SHL SWAP2 PUSH1 0x0 NOT SWAP1 PUSH1 0x3 SHL SHR NOT AND OR SWAP1 JUMP JUMPDEST PUSH1 0x1 DUP3 ADD SSTORE JUMPDEST PUSH1 0x40 DUP3 ADD MLOAD DUP1 MLOAD SWAP1 PUSH1 0x1 PUSH1 0x1 PUSH1 0x40 SHL SUB DUP3 GT PUSH3 0x578 JUMPI PUSH3 0x299 PUSH1 0x2 DUP5 ADD SLOAD PUSH3 0x951 JUMP JUMPDEST PUSH1 0x1F DUP2 GT PUSH3 0x737 JUMPI JUMPDEST POP PUSH1 0x20 SWAP1 PUSH1 0x1F DUP4 GT PUSH1 0x1 EQ PUSH3 0x6C0 JUMPI PUSH3 0x2D7 SWAP3 SWAP2 PUSH1 0x0 SWAP2 DUP4 PUSH3 0x4B5 JUMPI POP POP DUP2 PUSH1 0x1 SHL SWAP2 PUSH1 0x0 NOT SWAP1 PUSH1 0x3 SHL SHR NOT AND OR SWAP1 JUMP JUMPDEST PUSH1 0x2 DUP3 ADD SSTORE JUMPDEST PUSH1 0x60 DUP3 ADD MLOAD PUSH1 0x3 DUP3 ADD DUP1 SLOAD PUSH1 0x1 PUSH1 0x1 PUSH1 0xA0 SHL SUB NOT AND PUSH1 0x1 PUSH1 0x1 PUSH1 0xA0 SHL SUB SWAP3 SWAP1 SWAP3 AND SWAP2 SWAP1 SWAP2 OR SWAP1 SSTORE PUSH1 0x80 DUP3 ADD MLOAD PUSH1 0x4 DUP3 ADD SSTORE PUSH1 0xA0 DUP3 ADD MLOAD DUP1 MLOAD SWAP1 PUSH1 0x1 PUSH1 0x1 PUSH1 0x40 SHL SUB DUP3 GT PUSH3 0x578 JUMPI PUSH3 0x334 PUSH1 0x5 DUP5 ADD SLOAD PUSH3 0x951 JUMP JUMPDEST PUSH1 0x1F DUP2 GT PUSH3 0x687 JUMPI JUMPDEST POP PUSH1 0x20 SWAP1 PUSH1 0x1F DUP4 GT PUSH1 0x1 EQ PUSH3 0x60D JUMPI DUP3 PUSH1 0x7 SWAP4 PUSH1 0xE0 SWAP6 SWAP4 PUSH3 0x378 SWAP4 PUSH1 0x0 SWAP3 PUSH3 0x4B5 JUMPI POP POP DUP2 PUSH1 0x1 SHL SWAP2 PUSH1 0x0 NOT SWAP1 PUSH1 0x3 SHL SHR NOT AND OR SWAP1 JUMP JUMPDEST PUSH1 0x5 DUP3 ADD SSTORE JUMPDEST PUSH1 0x6 DUP2 ADD PUSH1 0xC0 DUP6 ADD MLOAD ISZERO ISZERO PUSH1 0xFF DUP1 NOT DUP4 SLOAD AND SWAP2 AND OR SWAP1 SSTORE ADD SWAP2 ADD MLOAD DUP1 MLOAD SWAP1 PUSH9 0x10000000000000000 DUP3 GT PUSH3 0x578 JUMPI DUP3 SLOAD DUP3 DUP5 SSTORE DUP1 DUP4 LT PUSH3 0x58E JUMPI JUMPDEST POP PUSH1 0x20 ADD SWAP2 PUSH1 0x0 MSTORE PUSH1 0x20 PUSH1 0x0 KECCAK256 SWAP2 PUSH1 0x0 SWAP1 JUMPDEST DUP3 DUP3 LT PUSH3 0x43F JUMPI DUP6 PUSH32 0x579EF2EDBCAB574DD08E96AE9C9AB7F9C3F82C08B575C573470D9AE7EC3512D1 PUSH3 0x422 DUP8 PUSH3 0x413 PUSH1 0x40 MLOAD SWAP5 PUSH1 0x60 DUP7 MSTORE PUSH1 0x60 DUP7 ADD SWAP1 PUSH3 0x9A7 JUMP JUMPDEST SWAP1 DUP5 DUP3 SUB PUSH1 0x20 DUP7 ADD MSTORE PUSH3 0x9A7 JUMP JUMPDEST SWAP2 NUMBER PUSH1 0x40 DUP3 ADD MSTORE DUP1 ADDRESS SWAP4 SUB SWAP1 LOG2 PUSH1 0x40 MLOAD PUSH2 0x264E SWAP1 DUP2 PUSH3 0x9EA DUP3 CODECOPY RETURN JUMPDEST DUP1 MLOAD DUP1 MLOAD SWAP1 PUSH1 0x1 PUSH1 0x1 PUSH1 0x40 SHL SUB DUP3 GT PUSH3 0x578 JUMPI PUSH3 0x45F DUP7 SLOAD PUSH3 0x951 JUMP JUMPDEST PUSH1 0x1F DUP2 GT PUSH3 0x536 JUMPI JUMPDEST POP PUSH1 0x20 SWAP1 PUSH1 0x1F DUP4 GT PUSH1 0x1 EQ PUSH3 0x4C1 JUMPI SWAP3 PUSH3 0x4A5 DUP4 PUSH1 0x1 SWAP6 SWAP5 PUSH1 0x20 SWAP5 DUP8 SWAP7 PUSH1 0x0 SWAP3 PUSH3 0x4B5 JUMPI POP POP DUP2 PUSH1 0x1 SHL SWAP2 PUSH1 0x0 NOT SWAP1 PUSH1 0x3 SHL SHR NOT AND OR SWAP1 JUMP JUMPDEST DUP8 SSTORE JUMPDEST ADD SWAP5 ADD SWAP2 ADD SWAP1 SWAP3 PUSH3 0x3CD JUMP JUMPDEST ADD MLOAD SWAP1 POP CODESIZE DUP1 PUSH3 0x1F1 JUMP JUMPDEST SWAP1 DUP7 PUSH1 0x0 MSTORE PUSH1 0x20 PUSH1 0x0 KECCAK256 SWAP2 PUSH1 0x0 JUMPDEST PUSH1 0x1F NOT DUP6 AND DUP2 LT PUSH3 0x51D JUMPI POP DUP4 PUSH1 0x20 SWAP4 PUSH1 0x1 SWAP7 SWAP4 DUP8 SWAP7 SWAP4 DUP8 SWAP5 PUSH1 0x1F NOT DUP2 AND LT PUSH3 0x503 JUMPI JUMPDEST POP POP POP DUP2 SHL ADD DUP8 SSTORE PUSH3 0x4A8 JUMP JUMPDEST ADD MLOAD PUSH1 0x0 NOT PUSH1 0xF8 DUP5 PUSH1 0x3 SHL AND SHR NOT AND SWAP1 SSTORE CODESIZE DUP1 DUP1 PUSH3 0x4F5 JUMP JUMPDEST SWAP2 SWAP3 PUSH1 0x20 PUSH1 0x1 DUP2 SWAP3 DUP7 DUP6 ADD MLOAD DUP2 SSTORE ADD SWAP5 ADD SWAP3 ADD PUSH3 0x4CF JUMP JUMPDEST PUSH3 0x566 SWAP1 DUP8 PUSH1 0x0 MSTORE PUSH1 0x20 PUSH1 0x0 KECCAK256 PUSH1 0x1F DUP6 ADD PUSH1 0x5 SHR DUP2 ADD SWAP2 PUSH1 0x20 DUP7 LT PUSH3 0x56D JUMPI JUMPDEST PUSH1 0x1F ADD PUSH1 0x5 SHR ADD SWAP1 PUSH3 0x98E JUMP JUMPDEST CODESIZE PUSH3 0x469 JUMP JUMPDEST SWAP1 SWAP2 POP DUP2 SWAP1 PUSH3 0x558 JUMP JUMPDEST PUSH4 0x4E487B71 PUSH1 0xE0 SHL PUSH1 0x0 MSTORE PUSH1 0x41 PUSH1 0x4 MSTORE PUSH1 0x24 PUSH1 0x0 REVERT JUMPDEST DUP4 PUSH1 0x0 MSTORE DUP3 PUSH1 0x20 PUSH1 0x0 KECCAK256 SWAP2 DUP3 ADD SWAP2 ADD JUMPDEST DUP2 DUP2 LT PUSH3 0x5AD JUMPI POP PUSH3 0x3BB JUMP JUMPDEST DUP1 PUSH3 0x5BC PUSH1 0x1 SWAP3 SLOAD PUSH3 0x951 JUMP JUMPDEST DUP1 PUSH3 0x5CB JUMPI JUMPDEST POP ADD PUSH3 0x59E JUMP JUMPDEST PUSH1 0x1F DUP2 GT DUP4 EQ PUSH3 0x5E3 JUMPI POP PUSH1 0x0 DUP2 SSTORE JUMPDEST CODESIZE PUSH3 0x5C3 JUMP JUMPDEST PUSH1 0x0 SWAP1 DUP3 DUP3 MSTORE PUSH3 0x603 PUSH1 0x1F PUSH1 0x20 DUP5 KECCAK256 SWAP3 ADD PUSH1 0x5 SHR DUP3 ADD DUP6 DUP4 ADD PUSH3 0x98E JUMP JUMPDEST DUP2 DUP4 SSTORE SSTORE PUSH3 0x5DC JUMP JUMPDEST SWAP1 PUSH1 0x5 DUP5 ADD PUSH1 0x0 MSTORE PUSH1 0x20 PUSH1 0x0 KECCAK256 SWAP2 PUSH1 0x0 JUMPDEST PUSH1 0x1F NOT DUP6 AND DUP2 LT PUSH3 0x66E JUMPI POP SWAP3 PUSH1 0xE0 SWAP5 SWAP3 PUSH1 0x1 SWAP3 PUSH1 0x7 SWAP6 DUP4 PUSH1 0x1F NOT DUP2 AND LT PUSH3 0x654 JUMPI JUMPDEST POP POP POP DUP2 SHL ADD PUSH1 0x5 DUP3 ADD SSTORE PUSH3 0x37E JUMP JUMPDEST ADD MLOAD PUSH1 0x0 NOT PUSH1 0xF8 DUP5 PUSH1 0x3 SHL AND SHR NOT AND SWAP1 SSTORE CODESIZE DUP1 DUP1 PUSH3 0x643 JUMP JUMPDEST SWAP2 SWAP3 PUSH1 0x20 PUSH1 0x1 DUP2 SWAP3 DUP7 DUP6 ADD MLOAD DUP2 SSTORE ADD SWAP5 ADD SWAP3 ADD PUSH3 0x61E JUMP JUMPDEST PUSH3 0x6B9 SWAP1 PUSH1 0x5 DUP6 ADD PUSH1 0x0 MSTORE PUSH1 0x20 PUSH1 0x0 KECCAK256 PUSH1 0x1F DUP6 ADD PUSH1 0x5 SHR DUP2 ADD SWAP2 PUSH1 0x20 DUP7 LT PUSH3 0x56D JUMPI PUSH1 0x1F ADD PUSH1 0x5 SHR ADD SWAP1 PUSH3 0x98E JUMP JUMPDEST CODESIZE PUSH3 0x33E JUMP JUMPDEST SWAP2 SWAP1 PUSH1 0x2 DUP5 ADD PUSH1 0x0 MSTORE PUSH1 0x20 PUSH1 0x0 KECCAK256 SWAP1 PUSH1 0x0 SWAP4 JUMPDEST PUSH1 0x1F NOT DUP5 AND DUP6 LT PUSH3 0x71B JUMPI PUSH1 0x1 SWAP5 POP DUP4 PUSH1 0x1F NOT DUP2 AND LT PUSH3 0x701 JUMPI JUMPDEST POP POP POP DUP2 SHL ADD PUSH1 0x2 DUP3 ADD SSTORE PUSH3 0x2DD JUMP JUMPDEST ADD MLOAD PUSH1 0x0 NOT PUSH1 0xF8 DUP5 PUSH1 0x3 SHL AND SHR NOT AND SWAP1 SSTORE CODESIZE DUP1 DUP1 PUSH3 0x6F0 JUMP JUMPDEST DUP2 DUP2 ADD MLOAD DUP4 SSTORE PUSH1 0x20 SWAP5 DUP6 ADD SWAP5 PUSH1 0x1 SWAP1 SWAP4 ADD SWAP3 SWAP1 SWAP2 ADD SWAP1 PUSH3 0x6D3 JUMP JUMPDEST PUSH3 0x769 SWAP1 PUSH1 0x2 DUP6 ADD PUSH1 0x0 MSTORE PUSH1 0x20 PUSH1 0x0 KECCAK256 PUSH1 0x1F DUP6 ADD PUSH1 0x5 SHR DUP2 ADD SWAP2 PUSH1 0x20 DUP7 LT PUSH3 0x56D JUMPI PUSH1 0x1F ADD PUSH1 0x5 SHR ADD SWAP1 PUSH3 0x98E JUMP JUMPDEST CODESIZE PUSH3 0x2A3 JUMP JUMPDEST SWAP2 SWAP1 PUSH1 0x1 DUP5 ADD PUSH1 0x0 MSTORE PUSH1 0x20 PUSH1 0x0 KECCAK256 SWAP1 PUSH1 0x0 SWAP4 JUMPDEST PUSH1 0x1F NOT DUP5 AND DUP6 LT PUSH3 0x7CB JUMPI PUSH1 0x1 SWAP5 POP DUP4 PUSH1 0x1F NOT DUP2 AND LT PUSH3 0x7B1 JUMPI JUMPDEST POP POP POP DUP2 SHL ADD PUSH1 0x1 DUP3 ADD SSTORE PUSH3 0x273 JUMP JUMPDEST ADD MLOAD PUSH1 0x0 NOT PUSH1 0xF8 DUP5 PUSH1 0x3 SHL AND SHR NOT AND SWAP1 SSTORE CODESIZE DUP1 DUP1 PUSH3 0x7A0 JUMP JUMPDEST DUP2 DUP2 ADD MLOAD DUP4 SSTORE PUSH1 0x20 SWAP5 DUP6 ADD SWAP5 PUSH1 0x1 SWAP1 SWAP4 ADD SWAP3 SWAP1 SWAP2 ADD SWAP1 PUSH3 0x783 JUMP JUMPDEST PUSH3 0x819 SWAP1 PUSH1 0x1 DUP6 ADD PUSH1 0x0 MSTORE PUSH1 0x20 PUSH1 0x0 KECCAK256 PUSH1 0x1F DUP6 ADD PUSH1 0x5 SHR DUP2 ADD SWAP2 PUSH1 0x20 DUP7 LT PUSH3 0x56D JUMPI PUSH1 0x1F ADD PUSH1 0x5 SHR ADD SWAP1 PUSH3 0x98E JUMP JUMPDEST CODESIZE PUSH3 0x239 JUMP JUMPDEST SWAP2 SWAP1 DUP4 PUSH1 0x0 MSTORE PUSH1 0x20 PUSH1 0x0 KECCAK256 SWAP1 PUSH1 0x0 SWAP4 JUMPDEST PUSH1 0x1F NOT DUP5 AND DUP6 LT PUSH3 0x875 JUMPI PUSH1 0x1 SWAP5 POP DUP4 PUSH1 0x1F NOT DUP2 AND LT PUSH3 0x85B JUMPI JUMPDEST POP POP POP DUP2 SHL ADD DUP2 SSTORE PUSH3 0x209 JUMP JUMPDEST ADD MLOAD PUSH1 0x0 NOT PUSH1 0xF8 DUP5 PUSH1 0x3 SHL AND SHR NOT AND SWAP1 SSTORE CODESIZE DUP1 DUP1 PUSH3 0x84D JUMP JUMPDEST DUP2 DUP2 ADD MLOAD DUP4 SSTORE PUSH1 0x20 SWAP5 DUP6 ADD SWAP5 PUSH1 0x1 SWAP1 SWAP4 ADD SWAP3 SWAP1 SWAP2 ADD SWAP1 PUSH3 0x830 JUMP JUMPDEST PUSH3 0x8C0 SWAP1 DUP5 PUSH1 0x0 MSTORE PUSH1 0x20 PUSH1 0x0 KECCAK256 PUSH1 0x1F DUP6 ADD PUSH1 0x5 SHR DUP2 ADD SWAP2 PUSH1 0x20 DUP7 LT PUSH3 0x56D JUMPI PUSH1 0x1F ADD PUSH1 0x5 SHR ADD SWAP1 PUSH3 0x98E JUMP JUMPDEST CODESIZE PUSH3 0x1D1 JUMP JUMPDEST PUSH1 0x40 MLOAD PUSH3 0x461BCD PUSH1 0xE5 SHL DUP2 MSTORE PUSH1 0x20 PUSH1 0x4 DUP3 ADD MSTORE PUSH1 0x1B PUSH1 0x24 DUP3 ADD MSTORE PUSH32 0x436F6E747261637420616C726561647920726567697374657265640000000000 PUSH1 0x44 DUP3 ADD MSTORE PUSH1 0x64 SWAP1 REVERT JUMPDEST PUSH1 0x0 DUP1 REVERT JUMPDEST PUSH1 0x40 MLOAD SWAP1 PUSH1 0x20 DUP3 ADD PUSH1 0x1 PUSH1 0x1 PUSH1 0x40 SHL SUB DUP2 GT DUP4 DUP3 LT OR PUSH3 0x578 JUMPI PUSH1 0x40 MSTORE JUMP JUMPDEST PUSH1 0x40 DUP1 MLOAD SWAP2 SWAP1 DUP3 ADD PUSH1 0x1 PUSH1 0x1 PUSH1 0x40 SHL SUB DUP2 GT DUP4 DUP3 LT OR PUSH3 0x578 JUMPI PUSH1 0x40 MSTORE JUMP JUMPDEST SWAP1 PUSH1 0x1 DUP3 DUP2 SHR SWAP3 AND DUP1 ISZERO PUSH3 0x983 JUMPI JUMPDEST PUSH1 0x20 DUP4 LT EQ PUSH3 0x96D JUMPI JUMP JUMPDEST PUSH4 0x4E487B71 PUSH1 0xE0 SHL PUSH1 0x0 MSTORE PUSH1 0x22 PUSH1 0x4 MSTORE PUSH1 0x24 PUSH1 0x0 REVERT JUMPDEST SWAP2 PUSH1 0x7F AND SWAP2 PUSH3 0x961 JUMP JUMPDEST DUP2 DUP2 LT PUSH3 0x99A JUMPI POP POP JUMP JUMPDEST PUSH1 0x0 DUP2 SSTORE PUSH1 0x1 ADD PUSH3 0x98E JUMP JUMPDEST SWAP2 SWAP1 DUP3 MLOAD SWAP3 DUP4 DUP3 MSTORE PUSH1 0x0 JUMPDEST DUP5 DUP2 LT PUSH3 0x9D4 JUMPI POP POP DUP3 PUSH1 0x0 PUSH1 0x20 DUP1 SWAP5 SWAP6 DUP5 ADD ADD MSTORE PUSH1 0x1F DUP1 NOT SWAP2 ADD AND ADD ADD SWAP1 JUMP JUMPDEST PUSH1 0x20 DUP2 DUP4 ADD DUP2 ADD MLOAD DUP5 DUP4 ADD DUP3 ADD MSTORE ADD PUSH3 0x9B2 JUMP INVALID PUSH1 0x80 DUP1 PUSH1 0x40 MSTORE PUSH1 0x4 CALLDATASIZE LT ISZERO PUSH2 0x13 JUMPI PUSH1 0x0 DUP1 REVERT JUMPDEST PUSH1 0x0 CALLDATALOAD PUSH1 0xE0 SHR SWAP1 DUP2 PUSH4 0xCCB2EC8 EQ PUSH2 0x1EA9 JUMPI POP DUP1 PUSH4 0x125F8974 EQ PUSH2 0x1E8B JUMPI DUP1 PUSH4 0x130B5617 EQ PUSH2 0x1E62 JUMPI DUP1 PUSH4 0x3F4BA83A EQ PUSH2 0x10A4 JUMPI DUP1 PUSH4 0x470B5646 EQ PUSH2 0x1D5C JUMPI DUP1 PUSH4 0x4AAE13CA EQ PUSH2 0x1B75 JUMPI DUP1 PUSH4 0x4E1DC730 EQ PUSH2 0x1B29 JUMPI DUP1 PUSH4 0x55E78F33 EQ PUSH2 0x1912 JUMPI DUP1 PUSH4 0x6035EB4B EQ PUSH2 0x1877 JUMPI DUP1 PUSH4 0x70F2A476 EQ PUSH2 0x10CC JUMPI DUP1 PUSH4 0x8456CB59 EQ PUSH2 0x10A4 JUMPI DUP1 PUSH4 0x985CC061 EQ PUSH2 0x102E JUMPI DUP1 PUSH4 0xB842EC44 EQ PUSH2 0xFD6 JUMPI DUP1 PUSH4 0xD4076630 EQ PUSH2 0x9F4 JUMPI DUP1 PUSH4 0xD8B4F888 EQ PUSH2 0x850 JUMPI DUP1 PUSH4 0xE0F3AA11 EQ PUSH2 0x777 JUMPI DUP1 PUSH4 0xE6397652 EQ PUSH2 0x6FD JUMPI DUP1 PUSH4 0xED111B06 EQ PUSH2 0x5F2 JUMPI DUP1 PUSH4 0xEF925399 EQ PUSH2 0x567 JUMPI DUP1 PUSH4 0xF7B2A8FD EQ PUSH2 0x2FF JUMPI DUP1 PUSH4 0xF851A440 EQ PUSH2 0x2D6 JUMPI PUSH4 0xF898DA7D EQ PUSH2 0x111 JUMPI PUSH1 0x0 DUP1 REVERT JUMPDEST CALLVALUE PUSH2 0x2D1 JUMPI PUSH1 0x40 CALLDATASIZE PUSH1 0x3 NOT ADD SLT PUSH2 0x2D1 JUMPI PUSH1 0x1 PUSH1 0x1 PUSH1 0x40 SHL SUB PUSH1 0x4 CALLDATALOAD PUSH1 0x24 CALLDATALOAD DUP3 DUP2 GT PUSH2 0x2D1 JUMPI PUSH2 0x145 SWAP1 CALLDATASIZE SWAP1 PUSH1 0x4 ADD PUSH2 0x20E1 JUMP JUMPDEST PUSH1 0x5 SLOAD PUSH2 0x167 SWAP1 CALLER PUSH1 0x1 PUSH1 0x1 PUSH1 0xA0 SHL SUB SWAP2 DUP3 AND EQ SWAP1 DUP2 ISZERO PUSH2 0x2C3 JUMPI JUMPDEST POP PUSH2 0x221A JUMP JUMPDEST DUP2 PUSH1 0x0 MSTORE PUSH1 0x20 PUSH1 0x0 DUP2 MSTORE PUSH2 0x184 PUSH1 0x6 PUSH1 0x40 PUSH1 0x0 KECCAK256 ADD SLOAD ISZERO ISZERO PUSH2 0x21D6 JUMP JUMPDEST DUP3 PUSH1 0x0 MSTORE PUSH1 0x0 DUP2 MSTORE PUSH1 0x8 PUSH1 0x40 PUSH1 0x0 KECCAK256 ADD DUP3 MLOAD SWAP5 DUP6 GT PUSH2 0x2AD JUMPI PUSH2 0x1B1 DUP6 PUSH2 0x1AB DUP4 SLOAD PUSH2 0x1ED2 JUMP JUMPDEST DUP4 PUSH2 0x2296 JUMP JUMPDEST DUP2 PUSH1 0x1F DUP7 GT PUSH1 0x1 EQ PUSH2 0x228 JUMPI DUP6 PUSH32 0xE36C73FD13989812054EAA73A813BDD65752BDA9044A9BDAC079E4143C6AB7BD SWAP6 SWAP7 PUSH2 0x201 SWAP3 PUSH1 0x0 SWAP2 PUSH2 0x21D JUMPI JUMPDEST POP DUP2 PUSH1 0x1 SHL SWAP2 PUSH1 0x0 NOT SWAP1 PUSH1 0x3 SHL SHR NOT AND OR SWAP1 JUMP JUMPDEST SWAP1 SSTORE JUMPDEST PUSH2 0x218 PUSH1 0x40 MLOAD SWAP3 DUP3 DUP5 SWAP4 DUP5 MSTORE DUP4 ADD SWAP1 PUSH2 0x2054 JUMP JUMPDEST SUB SWAP1 LOG2 STOP JUMPDEST SWAP1 POP DUP6 ADD MLOAD CODESIZE PUSH2 0x1ED JUMP JUMPDEST PUSH1 0x1F NOT DUP7 AND SWAP1 DUP3 PUSH1 0x0 MSTORE DUP4 PUSH1 0x0 KECCAK256 SWAP2 PUSH1 0x0 JUMPDEST DUP2 DUP2 LT PUSH2 0x296 JUMPI POP SWAP2 DUP8 SWAP2 PUSH32 0xE36C73FD13989812054EAA73A813BDD65752BDA9044A9BDAC079E4143C6AB7BD SWAP8 SWAP9 PUSH1 0x1 SWAP5 LT PUSH2 0x27D JUMPI JUMPDEST POP POP DUP2 SHL ADD SWAP1 SSTORE PUSH2 0x204 JUMP JUMPDEST DUP7 ADD MLOAD PUSH1 0x0 NOT PUSH1 0xF8 DUP5 PUSH1 0x3 SHL AND SHR NOT AND SWAP1 SSTORE CODESIZE DUP1 PUSH2 0x271 JUMP JUMPDEST SWAP2 SWAP3 DUP6 PUSH1 0x1 DUP2 SWAP3 DUP7 DUP11 ADD MLOAD DUP2 SSTORE ADD SWAP5 ADD SWAP3 ADD PUSH2 0x23A JUMP JUMPDEST PUSH4 0x4E487B71 PUSH1 0xE0 SHL PUSH1 0x0 MSTORE PUSH1 0x41 PUSH1 0x4 MSTORE PUSH1 0x24 PUSH1 0x0 REVERT JUMPDEST SWAP1 POP PUSH1 0x6 SLOAD AND CALLER EQ CODESIZE PUSH2 0x161 JUMP JUMPDEST PUSH1 0x0 DUP1 REVERT JUMPDEST CALLVALUE PUSH2 0x2D1 JUMPI PUSH1 0x0 CALLDATASIZE PUSH1 0x3 NOT ADD SLT PUSH2 0x2D1 JUMPI PUSH1 0x5 SLOAD PUSH1 0x40 MLOAD PUSH1 0x1 PUSH1 0x1 PUSH1 0xA0 SHL SUB SWAP1 SWAP2 AND DUP2 MSTORE PUSH1 0x20 SWAP1 RETURN JUMPDEST CALLVALUE PUSH2 0x2D1 JUMPI PUSH1 0x20 CALLDATASIZE PUSH1 0x3 NOT ADD SLT PUSH2 0x2D1 JUMPI PUSH2 0x318 PUSH2 0x2079 JUMP JUMPDEST PUSH1 0x60 PUSH1 0xE0 PUSH1 0x40 MLOAD PUSH2 0x328 DUP2 PUSH2 0x1FBE JUMP JUMPDEST DUP3 DUP2 MSTORE DUP3 PUSH1 0x20 DUP3 ADD MSTORE DUP3 PUSH1 0x40 DUP3 ADD MSTORE PUSH1 0x0 DUP4 DUP3 ADD MSTORE PUSH1 0x0 PUSH1 0x80 DUP3 ADD MSTORE DUP3 PUSH1 0xA0 DUP3 ADD MSTORE PUSH1 0x0 PUSH1 0xC0 DUP3 ADD MSTORE ADD MSTORE PUSH1 0x1 DUP1 PUSH1 0xA0 SHL SUB AND PUSH1 0x0 MSTORE PUSH1 0x1 PUSH1 0x20 MSTORE PUSH1 0x40 PUSH1 0x0 KECCAK256 PUSH1 0x7 PUSH1 0x40 MLOAD SWAP2 PUSH2 0x377 DUP4 PUSH2 0x1FBE JUMP JUMPDEST PUSH1 0x40 MLOAD PUSH2 0x38F DUP2 PUSH2 0x388 DUP2 DUP6 PUSH2 0x1F0C JUMP JUMPDEST SUB DUP3 PUSH2 0x2010 JUMP JUMPDEST DUP4 MSTORE PUSH1 0x40 MLOAD PUSH2 0x3A5 DUP2 PUSH2 0x388 DUP2 PUSH1 0x1 DUP7 ADD PUSH2 0x1F0C JUMP JUMPDEST PUSH1 0x20 DUP5 ADD MSTORE PUSH1 0x40 MLOAD PUSH2 0x3BE DUP2 PUSH2 0x388 DUP2 PUSH1 0x2 DUP7 ADD PUSH2 0x1F0C JUMP JUMPDEST PUSH1 0x40 DUP5 DUP2 ADD SWAP2 SWAP1 SWAP2 MSTORE PUSH1 0x3 DUP3 ADD SLOAD PUSH1 0x1 PUSH1 0x1 PUSH1 0xA0 SHL SUB AND PUSH1 0x60 DUP6 ADD MSTORE PUSH1 0x4 DUP3 ADD SLOAD PUSH1 0x80 DUP6 ADD MSTORE MLOAD PUSH2 0x3F6 DUP2 PUSH2 0x388 DUP2 PUSH1 0x5 DUP7 ADD PUSH2 0x1F0C JUMP JUMPDEST PUSH1 0xA0 DUP5 ADD MSTORE PUSH1 0xFF PUSH1 0x6 DUP3 ADD SLOAD AND ISZERO ISZERO PUSH1 0xC0 DUP5 ADD MSTORE ADD DUP1 SLOAD PUSH2 0x416 DUP2 PUSH2 0x213B JUMP JUMPDEST SWAP2 PUSH2 0x424 PUSH1 0x40 MLOAD SWAP4 DUP5 PUSH2 0x2010 JUMP JUMPDEST DUP2 DUP4 MSTORE PUSH1 0x20 DUP4 ADD SWAP1 PUSH1 0x0 MSTORE PUSH1 0x20 PUSH1 0x0 KECCAK256 PUSH1 0x0 SWAP2 JUMPDEST DUP4 DUP4 LT PUSH2 0x542 JUMPI DUP6 DUP6 PUSH1 0xE0 DUP3 ADD MSTORE PUSH1 0x40 MLOAD DUP1 SWAP2 PUSH1 0x20 DUP3 MSTORE PUSH2 0x467 DUP2 MLOAD PUSH2 0x100 PUSH1 0x20 DUP6 ADD MSTORE PUSH2 0x120 DUP5 ADD SWAP1 PUSH2 0x2054 JUMP JUMPDEST PUSH1 0xE0 PUSH2 0x4CF PUSH2 0x49F PUSH2 0x48B PUSH1 0x20 DUP7 ADD MLOAD SWAP5 PUSH1 0x1F NOT SWAP6 DUP7 DUP10 DUP4 SUB ADD PUSH1 0x40 DUP11 ADD MSTORE PUSH2 0x2054 JUMP JUMPDEST PUSH1 0x40 DUP7 ADD MLOAD DUP6 DUP9 DUP4 SUB ADD PUSH1 0x60 DUP10 ADD MSTORE PUSH2 0x2054 JUMP JUMPDEST PUSH1 0x1 DUP1 PUSH1 0xA0 SHL SUB PUSH1 0x60 DUP7 ADD MLOAD AND PUSH1 0x80 DUP8 ADD MSTORE PUSH1 0x80 DUP6 ADD MLOAD PUSH1 0xA0 DUP8 ADD MSTORE PUSH1 0xA0 DUP6 ADD MLOAD DUP5 DUP8 DUP4 SUB ADD PUSH1 0xC0 DUP9 ADD MSTORE PUSH2 0x2054 JUMP JUMPDEST SWAP3 PUSH1 0xC0 DUP2 ADD MLOAD ISZERO ISZERO DUP3 DUP7 ADD MSTORE ADD MLOAD SWAP2 DUP2 DUP5 DUP3 SUB ADD PUSH2 0x100 DUP6 ADD MSTORE DUP3 MLOAD SWAP1 DUP2 DUP2 MSTORE PUSH1 0x20 DUP2 ADD PUSH1 0x20 DUP1 DUP5 PUSH1 0x5 SHL DUP5 ADD ADD SWAP6 ADD SWAP4 PUSH1 0x0 SWAP3 JUMPDEST DUP5 DUP5 LT PUSH2 0x511 JUMPI DUP8 DUP8 SUB DUP9 RETURN JUMPDEST SWAP2 SWAP4 SWAP6 DUP2 SWAP4 SWAP6 SWAP8 POP PUSH1 0x20 PUSH2 0x530 DUP3 PUSH1 0x1 SWAP5 DUP7 DUP5 SWAP6 SUB ADD DUP9 MSTORE DUP11 MLOAD PUSH2 0x2054 JUMP JUMPDEST SWAP9 ADD SWAP5 ADD SWAP5 ADD SWAP2 DUP8 SWAP7 SWAP6 SWAP4 SWAP5 SWAP2 PUSH2 0x504 JUMP JUMPDEST PUSH1 0x1 PUSH1 0x20 DUP2 SWAP3 PUSH1 0x40 MLOAD PUSH2 0x559 DUP2 PUSH2 0x388 DUP2 DUP10 PUSH2 0x1F0C JUMP JUMPDEST DUP2 MSTORE ADD SWAP3 ADD SWAP3 ADD SWAP2 SWAP1 PUSH2 0x438 JUMP JUMPDEST CALLVALUE PUSH2 0x2D1 JUMPI PUSH1 0x20 DUP1 PUSH1 0x3 NOT CALLDATASIZE ADD SLT PUSH2 0x2D1 JUMPI PUSH1 0x1 PUSH1 0x1 PUSH1 0xA0 SHL SUB PUSH2 0x589 PUSH2 0x2079 JUMP JUMPDEST AND PUSH1 0x0 MSTORE PUSH1 0x4 PUSH1 0x20 MSTORE PUSH1 0x40 PUSH1 0x0 KECCAK256 SWAP1 PUSH1 0x40 MLOAD SWAP1 DUP2 PUSH1 0x20 DUP5 SLOAD SWAP2 DUP3 DUP2 MSTORE ADD SWAP4 PUSH1 0x0 MSTORE PUSH1 0x20 PUSH1 0x0 KECCAK256 SWAP2 PUSH1 0x0 SWAP1 JUMPDEST DUP3 DUP3 LT PUSH2 0x5DB JUMPI PUSH2 0x5D7 DUP6 PUSH2 0x5CB DUP2 DUP10 SUB DUP3 PUSH2 0x2010 JUMP JUMPDEST PUSH1 0x40 MLOAD SWAP2 DUP3 SWAP2 DUP3 PUSH2 0x20FF JUMP JUMPDEST SUB SWAP1 RETURN JUMPDEST DUP4 SLOAD DUP7 MSTORE SWAP5 DUP6 ADD SWAP5 PUSH1 0x1 SWAP4 DUP5 ADD SWAP4 SWAP1 SWAP2 ADD SWAP1 PUSH2 0x5B4 JUMP JUMPDEST CALLVALUE PUSH2 0x2D1 JUMPI PUSH1 0x20 CALLDATASIZE PUSH1 0x3 NOT ADD SLT PUSH2 0x2D1 JUMPI PUSH2 0x6BD PUSH1 0x1 PUSH1 0x1 PUSH1 0xA0 SHL SUB DUP1 PUSH2 0x617 PUSH2 0x2079 JUMP JUMPDEST AND PUSH1 0x0 MSTORE PUSH1 0x1 PUSH1 0x20 MSTORE PUSH1 0x40 PUSH1 0x0 KECCAK256 PUSH2 0x6F1 PUSH1 0x40 MLOAD SWAP3 PUSH2 0x641 DUP5 PUSH2 0x63A DUP2 DUP7 PUSH2 0x1F0C JUMP JUMPDEST SUB DUP6 PUSH2 0x2010 JUMP JUMPDEST PUSH1 0x40 MLOAD SWAP3 PUSH2 0x656 DUP5 PUSH2 0x63A DUP2 PUSH1 0x1 DUP6 ADD PUSH2 0x1F0C JUMP JUMPDEST PUSH1 0x40 MLOAD SWAP2 PUSH2 0x672 DUP4 PUSH2 0x66B DUP2 PUSH1 0x2 DUP7 ADD PUSH2 0x1F0C JUMP JUMPDEST SUB DUP5 PUSH2 0x2010 JUMP JUMPDEST PUSH1 0x3 DUP3 ADD SLOAD AND SWAP2 PUSH2 0x6D9 PUSH1 0x4 DUP4 ADD SLOAD SWAP2 PUSH2 0x6CB PUSH1 0xFF PUSH1 0x6 PUSH1 0x40 MLOAD SWAP7 PUSH2 0x6A5 DUP9 PUSH2 0x69E DUP2 PUSH1 0x5 DUP6 ADD PUSH2 0x1F0C JUMP JUMPDEST SUB DUP10 PUSH2 0x2010 JUMP JUMPDEST ADD SLOAD AND SWAP8 PUSH1 0x40 MLOAD SWAP11 DUP12 SWAP11 PUSH1 0xE0 DUP13 MSTORE PUSH1 0xE0 DUP13 ADD SWAP1 PUSH2 0x2054 JUMP JUMPDEST SWAP1 DUP11 DUP3 SUB PUSH1 0x20 DUP13 ADD MSTORE PUSH2 0x2054 JUMP JUMPDEST SWAP1 DUP9 DUP3 SUB PUSH1 0x40 DUP11 ADD MSTORE PUSH2 0x2054 JUMP JUMPDEST SWAP3 PUSH1 0x60 DUP8 ADD MSTORE PUSH1 0x80 DUP7 ADD MSTORE DUP5 DUP3 SUB PUSH1 0xA0 DUP7 ADD MSTORE PUSH2 0x2054 JUMP JUMPDEST SWAP1 ISZERO ISZERO PUSH1 0xC0 DUP4 ADD MSTORE SUB SWAP1 RETURN JUMPDEST CALLVALUE PUSH2 0x2D1 JUMPI PUSH1 0x40 CALLDATASIZE PUSH1 0x3 NOT ADD SLT PUSH2 0x2D1 JUMPI PUSH1 0x4 CALLDATALOAD PUSH1 0x1 PUSH1 0x1 PUSH1 0x40 SHL SUB DUP2 GT PUSH2 0x2D1 JUMPI PUSH2 0x72D SWAP1 CALLDATASIZE SWAP1 PUSH1 0x4 ADD PUSH2 0x20E1 JUMP JUMPDEST PUSH2 0x749 PUSH1 0x20 PUSH1 0x24 CALLDATALOAD SWAP3 DUP2 PUSH1 0x40 MLOAD SWAP4 DUP3 DUP6 DUP1 SWAP5 MLOAD SWAP4 DUP5 SWAP3 ADD PUSH2 0x2031 JUMP JUMPDEST DUP2 ADD PUSH1 0x3 DUP2 MSTORE SUB ADD SWAP1 KECCAK256 DUP1 SLOAD DUP3 LT ISZERO PUSH2 0x2D1 JUMPI PUSH1 0x20 SWAP2 PUSH2 0x768 SWAP2 PUSH2 0x2152 JUMP JUMPDEST SWAP1 SLOAD SWAP1 PUSH1 0x3 SHL SHR PUSH1 0x40 MLOAD SWAP1 DUP2 MSTORE RETURN JUMPDEST CALLVALUE PUSH2 0x2D1 JUMPI PUSH1 0x20 CALLDATASIZE PUSH1 0x3 NOT ADD SLT PUSH2 0x2D1 JUMPI PUSH2 0x790 PUSH2 0x2079 JUMP JUMPDEST PUSH1 0x0 PUSH1 0xA0 PUSH1 0x40 MLOAD PUSH2 0x7A0 DUP2 PUSH2 0x1FDA JUMP JUMPDEST DUP3 DUP2 MSTORE DUP3 PUSH1 0x20 DUP3 ADD MSTORE DUP3 PUSH1 0x40 DUP3 ADD MSTORE DUP3 PUSH1 0x60 DUP3 ADD MSTORE DUP3 PUSH1 0x80 DUP3 ADD MSTORE ADD MSTORE PUSH1 0x1 DUP1 PUSH1 0xA0 SHL SUB AND PUSH1 0x0 MSTORE PUSH1 0x2 PUSH1 0x20 MSTORE PUSH1 0xC0 PUSH1 0x40 PUSH1 0x0 KECCAK256 PUSH1 0x40 MLOAD PUSH2 0x7E0 DUP2 PUSH2 0x1FDA JUMP JUMPDEST DUP2 SLOAD SWAP2 DUP3 DUP3 MSTORE PUSH1 0x1 DUP2 ADD SLOAD PUSH1 0x20 DUP4 ADD SWAP1 DUP2 MSTORE PUSH1 0x2 DUP3 ADD SLOAD PUSH1 0x40 DUP5 ADD SWAP1 DUP2 MSTORE PUSH1 0x3 DUP4 ADD SLOAD SWAP2 PUSH1 0x60 DUP6 ADD SWAP3 DUP4 MSTORE PUSH1 0xA0 PUSH1 0xFF PUSH1 0x5 PUSH1 0x4 DUP8 ADD SLOAD SWAP7 PUSH1 0x80 DUP10 ADD SWAP8 DUP9 MSTORE ADD SLOAD AND SWAP6 ADD SWAP5 ISZERO ISZERO DUP6 MSTORE PUSH1 0x40 MLOAD SWAP6 DUP7 MSTORE MLOAD PUSH1 0x20 DUP7 ADD MSTORE MLOAD PUSH1 0x40 DUP6 ADD MSTORE MLOAD PUSH1 0x60 DUP5 ADD MSTORE MLOAD PUSH1 0x80 DUP4 ADD MSTORE MLOAD ISZERO ISZERO PUSH1 0xA0 DUP3 ADD MSTORE RETURN JUMPDEST CALLVALUE PUSH2 0x2D1 JUMPI PUSH1 0x40 CALLDATASIZE PUSH1 0x3 NOT ADD SLT PUSH2 0x2D1 JUMPI PUSH2 0x869 PUSH2 0x2079 JUMP JUMPDEST PUSH1 0x1 PUSH1 0x1 PUSH1 0x40 SHL SUB SWAP1 PUSH1 0x24 CALLDATALOAD DUP3 DUP2 GT PUSH2 0x2D1 JUMPI PUSH2 0x88A SWAP1 CALLDATASIZE SWAP1 PUSH1 0x4 ADD PUSH2 0x20E1 JUMP JUMPDEST PUSH1 0x5 SLOAD SWAP1 SWAP2 PUSH1 0x1 PUSH1 0x1 PUSH1 0xA0 SHL SUB SWAP2 PUSH2 0x8A5 SWAP1 DUP4 AND CALLER EQ PUSH2 0x2180 JUMP JUMPDEST AND SWAP1 DUP2 PUSH1 0x0 MSTORE PUSH1 0x1 SWAP2 PUSH1 0x20 SWAP2 DUP4 DUP4 MSTORE PUSH1 0x4 PUSH1 0x40 PUSH1 0x0 KECCAK256 ADD SLOAD ISZERO PUSH2 0x9AF JUMPI DUP2 PUSH1 0x0 MSTORE DUP4 DUP4 MSTORE PUSH1 0x5 PUSH1 0x40 PUSH1 0x0 KECCAK256 ADD SWAP1 DUP1 MLOAD SWAP6 DUP7 GT PUSH2 0x2AD JUMPI PUSH2 0x8EF DUP7 PUSH2 0x8E9 DUP5 SLOAD PUSH2 0x1ED2 JUMP JUMPDEST DUP5 PUSH2 0x2296 JUMP JUMPDEST DUP4 SWAP1 PUSH1 0x1F DUP8 GT PUSH1 0x1 EQ PUSH2 0x94A JUMPI SWAP6 DUP1 PUSH2 0x921 SWAP3 DUP8 SWAP9 PUSH1 0x0 SWAP3 PUSH2 0x93F JUMPI JUMPDEST POP POP DUP2 PUSH1 0x1 SHL SWAP2 PUSH1 0x0 NOT SWAP1 PUSH1 0x3 SHL SHR NOT AND OR SWAP1 JUMP JUMPDEST SWAP1 SSTORE JUMPDEST PUSH1 0x0 MSTORE MSTORE PUSH1 0x6 PUSH1 0x40 PUSH1 0x0 KECCAK256 ADD SWAP1 PUSH1 0xFF NOT DUP3 SLOAD AND OR SWAP1 SSTORE PUSH1 0x0 DUP1 RETURN JUMPDEST ADD MLOAD SWAP1 POP DUP9 DUP1 PUSH2 0x90C JUMP JUMPDEST SWAP1 PUSH1 0x1F NOT DUP8 AND SWAP2 DUP4 PUSH1 0x0 MSTORE DUP6 PUSH1 0x0 KECCAK256 SWAP3 PUSH1 0x0 JUMPDEST DUP2 DUP2 LT PUSH2 0x99A JUMPI POP SWAP2 DUP8 SWAP9 SWAP3 SWAP2 DUP4 DUP10 SWAP6 SWAP4 LT PUSH2 0x981 JUMPI JUMPDEST POP POP POP DUP2 SHL ADD SWAP1 SSTORE PUSH2 0x924 JUMP JUMPDEST ADD MLOAD PUSH1 0x0 NOT PUSH1 0xF8 DUP5 PUSH1 0x3 SHL AND SHR NOT AND SWAP1 SSTORE DUP8 DUP1 DUP1 PUSH2 0x974 JUMP JUMPDEST DUP3 DUP5 ADD MLOAD DUP6 SSTORE SWAP4 DUP9 ADD SWAP4 SWAP3 DUP8 ADD SWAP3 DUP8 ADD PUSH2 0x95D JUMP JUMPDEST PUSH1 0x40 MLOAD PUSH3 0x461BCD PUSH1 0xE5 SHL DUP2 MSTORE PUSH1 0x4 DUP2 ADD DUP5 SWAP1 MSTORE PUSH1 0x17 PUSH1 0x24 DUP3 ADD MSTORE PUSH32 0x436F6E7472616374206E6F742072656769737465726564000000000000000000 PUSH1 0x44 DUP3 ADD MSTORE PUSH1 0x64 SWAP1 REVERT JUMPDEST CALLVALUE PUSH2 0x2D1 JUMPI PUSH1 0xE0 CALLDATASIZE PUSH1 0x3 NOT ADD SLT PUSH2 0x2D1 JUMPI PUSH1 0x24 CALLDATALOAD PUSH1 0x1 PUSH1 0x1 PUSH1 0xA0 SHL SUB DUP2 AND SWAP1 SUB PUSH2 0x2D1 JUMPI PUSH1 0x44 CALLDATALOAD PUSH1 0x1 PUSH1 0x1 PUSH1 0xA0 SHL SUB DUP2 AND SWAP1 SUB PUSH2 0x2D1 JUMPI PUSH1 0x84 CALLDATALOAD PUSH1 0x1 PUSH1 0x1 PUSH1 0x40 SHL SUB DUP2 GT PUSH2 0x2D1 JUMPI CALLDATASIZE PUSH1 0x23 DUP3 ADD SLT ISZERO PUSH2 0x2D1 JUMPI PUSH2 0xA5B SWAP1 CALLDATASIZE SWAP1 PUSH1 0x24 DUP2 PUSH1 0x4 ADD CALLDATALOAD SWAP2 ADD PUSH2 0x20AA JUMP JUMPDEST PUSH1 0xA4 CALLDATALOAD PUSH1 0x1 PUSH1 0x1 PUSH1 0x40 SHL SUB DUP2 GT PUSH2 0x2D1 JUMPI PUSH2 0xA7A SWAP1 CALLDATASIZE SWAP1 PUSH1 0x4 ADD PUSH2 0x20E1 JUMP JUMPDEST SWAP1 PUSH1 0xC4 CALLDATALOAD PUSH1 0x1 PUSH1 0x1 PUSH1 0x40 SHL SUB DUP2 GT PUSH2 0x2D1 JUMPI PUSH2 0xA9A SWAP1 CALLDATASIZE SWAP1 PUSH1 0x4 ADD PUSH2 0x20E1 JUMP JUMPDEST PUSH1 0x5 SLOAD PUSH1 0x1 PUSH1 0x1 PUSH1 0xA0 SHL SUB AND CALLER EQ DUP1 ISZERO PUSH2 0xFC2 JUMPI JUMPDEST PUSH2 0xAB8 SWAP1 PUSH2 0x221A JUMP JUMPDEST PUSH1 0x4 CALLDATALOAD PUSH1 0x0 MSTORE PUSH1 0x0 PUSH1 0x20 MSTORE PUSH1 0x6 PUSH1 0x40 PUSH1 0x0 KECCAK256 ADD SLOAD PUSH2 0xF7D JUMPI PUSH1 0x40 MLOAD SWAP2 PUSH2 0xADD DUP4 PUSH2 0x1FA2 JUMP JUMPDEST PUSH1 0x4 CALLDATALOAD DUP4 MSTORE PUSH1 0x1 DUP1 PUSH1 0xA0 SHL SUB PUSH1 0x24 CALLDATALOAD AND PUSH1 0x20 DUP5 ADD MSTORE PUSH1 0x1 DUP1 PUSH1 0xA0 SHL SUB PUSH1 0x44 CALLDATALOAD AND PUSH1 0x40 DUP5 ADD MSTORE PUSH1 0x64 CALLDATALOAD PUSH1 0x60 DUP5 ADD MSTORE PUSH1 0x80 DUP4 ADD MSTORE NUMBER PUSH1 0xA0 DUP4 ADD MSTORE TIMESTAMP PUSH1 0xC0 DUP4 ADD MSTORE DUP3 PUSH1 0xE0 DUP4 ADD MSTORE PUSH2 0x100 DUP3 ADD MSTORE PUSH1 0x1 PUSH2 0x120 DUP3 ADD MSTORE PUSH1 0x4 CALLDATALOAD PUSH1 0x0 MSTORE PUSH1 0x0 PUSH1 0x20 MSTORE PUSH1 0x40 PUSH1 0x0 KECCAK256 SWAP2 DUP2 MLOAD DUP4 SSTORE PUSH1 0x1 DUP4 ADD PUSH1 0x1 DUP1 PUSH1 0xA0 SHL SUB PUSH1 0x20 DUP5 ADD MLOAD AND SWAP1 PUSH1 0x1 PUSH1 0x1 PUSH1 0x60 SHL SUB PUSH1 0xA0 SHL SWAP2 DUP3 DUP3 SLOAD AND OR SWAP1 SSTORE PUSH1 0x2 DUP5 ADD SWAP1 PUSH1 0x1 DUP1 PUSH1 0xA0 SHL SUB PUSH1 0x40 DUP6 ADD MLOAD AND SWAP1 DUP3 SLOAD AND OR SWAP1 SSTORE PUSH1 0x60 DUP3 ADD MLOAD PUSH1 0x3 DUP5 ADD SSTORE PUSH1 0x80 DUP3 ADD MLOAD SWAP3 DUP4 MLOAD PUSH1 0x1 PUSH1 0x1 PUSH1 0x40 SHL SUB DUP2 GT PUSH2 0x2AD JUMPI PUSH2 0xBBC DUP2 PUSH2 0xBB3 PUSH1 0x4 DUP6 ADD SLOAD PUSH2 0x1ED2 JUMP JUMPDEST PUSH1 0x4 DUP6 ADD PUSH2 0x2296 JUMP JUMPDEST PUSH1 0x20 PUSH1 0x1F DUP3 GT PUSH1 0x1 EQ PUSH2 0xF0E JUMPI DUP2 SWAP1 PUSH2 0xBEE SWAP4 SWAP5 SWAP6 SWAP7 PUSH1 0x0 SWAP3 PUSH2 0xE94 JUMPI POP POP DUP2 PUSH1 0x1 SHL SWAP2 PUSH1 0x0 NOT SWAP1 PUSH1 0x3 SHL SHR NOT AND OR SWAP1 JUMP JUMPDEST PUSH1 0x4 DUP3 ADD SSTORE JUMPDEST PUSH1 0xA0 DUP4 ADD MLOAD PUSH1 0x5 DUP3 ADD SSTORE PUSH1 0xC0 DUP4 ADD MLOAD PUSH1 0x6 DUP3 ADD SSTORE PUSH1 0xE0 DUP4 ADD MLOAD SWAP3 DUP4 MLOAD PUSH1 0x1 PUSH1 0x1 PUSH1 0x40 SHL SUB DUP2 GT PUSH2 0x2AD JUMPI PUSH2 0xC38 DUP2 PUSH2 0xC2F PUSH1 0x7 DUP7 ADD SLOAD PUSH2 0x1ED2 JUMP JUMPDEST PUSH1 0x7 DUP7 ADD PUSH2 0x2296 JUMP JUMPDEST PUSH1 0x20 PUSH1 0x1F DUP3 GT PUSH1 0x1 EQ PUSH2 0xE9F JUMPI DUP2 SWAP1 PUSH2 0xC6A SWAP4 SWAP5 SWAP6 SWAP7 PUSH1 0x0 SWAP3 PUSH2 0xE94 JUMPI POP POP DUP2 PUSH1 0x1 SHL SWAP2 PUSH1 0x0 NOT SWAP1 PUSH1 0x3 SHL SHR NOT AND OR SWAP1 JUMP JUMPDEST PUSH1 0x7 DUP4 ADD SSTORE JUMPDEST PUSH1 0x8 DUP3 ADD PUSH2 0x100 DUP3 ADD MLOAD DUP1 MLOAD SWAP1 PUSH1 0x1 PUSH1 0x1 PUSH1 0x40 SHL SUB DUP3 GT PUSH2 0x2AD JUMPI PUSH2 0xC9F DUP3 PUSH2 0xC99 DUP6 SLOAD PUSH2 0x1ED2 JUMP JUMPDEST DUP6 PUSH2 0x2296 JUMP JUMPDEST PUSH1 0x20 SWAP1 PUSH1 0x1F DUP4 GT PUSH1 0x1 EQ PUSH2 0xE21 JUMPI SWAP3 PUSH2 0xCDB DUP4 PUSH2 0x120 SWAP5 PUSH2 0xCF5 SWAP9 SWAP8 SWAP5 PUSH1 0x9 SWAP8 PUSH1 0x0 SWAP3 PUSH2 0xE16 JUMPI POP POP DUP2 PUSH1 0x1 SHL SWAP2 PUSH1 0x0 NOT SWAP1 PUSH1 0x3 SHL SHR NOT AND OR SWAP1 JUMP JUMPDEST SWAP1 SSTORE JUMPDEST ADD MLOAD ISZERO ISZERO SWAP2 ADD SWAP1 PUSH1 0xFF DUP1 NOT DUP4 SLOAD AND SWAP2 ISZERO ISZERO AND OR SWAP1 SSTORE JUMP JUMPDEST PUSH2 0xD01 DUP2 PUSH1 0x24 CALLDATALOAD PUSH2 0x23FC JUMP JUMPDEST PUSH1 0x24 CALLDATALOAD PUSH1 0x1 PUSH1 0x1 PUSH1 0xA0 SHL SUB SWAP1 DUP2 AND PUSH1 0x44 CALLDATALOAD SWAP1 SWAP2 AND EQ ISZERO DUP1 PUSH2 0xE05 JUMPI JUMPDEST PUSH2 0xD4A PUSH1 0x40 MLOAD DUP4 MLOAD PUSH2 0xD33 DUP2 DUP4 PUSH1 0x20 DUP9 ADD PUSH2 0x2031 JUMP JUMPDEST DUP2 ADD SWAP1 PUSH1 0x3 DUP3 MSTORE PUSH1 0x20 DUP2 PUSH1 0x4 CALLDATALOAD SWAP4 SUB ADD SWAP1 KECCAK256 PUSH2 0x22DD JUMP JUMPDEST PUSH1 0x1 DUP1 PUSH1 0xA0 SHL SUB PUSH1 0x24 CALLDATALOAD AND PUSH1 0x0 MSTORE PUSH1 0x4 PUSH1 0x20 MSTORE PUSH2 0xD6D PUSH1 0x4 CALLDATALOAD PUSH1 0x40 PUSH1 0x0 KECCAK256 PUSH2 0x22DD JUMP JUMPDEST PUSH2 0xDDD JUMPI JUMPDEST PUSH2 0xD7D PUSH1 0x7 SLOAD PUSH2 0x2312 JUMP JUMPDEST PUSH1 0x7 SSTORE PUSH2 0xD95 PUSH1 0x40 MLOAD SWAP2 PUSH1 0x40 DUP4 MSTORE PUSH1 0x40 DUP4 ADD SWAP1 PUSH2 0x2054 JUMP JUMPDEST TIMESTAMP PUSH1 0x20 DUP4 ADD MSTORE PUSH1 0x1 PUSH1 0x1 PUSH1 0xA0 SHL SUB PUSH1 0x44 CALLDATALOAD DUP2 AND SWAP3 PUSH1 0x24 CALLDATALOAD SWAP1 SWAP2 AND SWAP2 PUSH1 0x4 CALLDATALOAD SWAP2 PUSH32 0x3F4A6BB4C4A707355184826D48E737BF3D6A2883E63EF54DA2ADA4D314C472B5 SWAP2 DUP2 SWAP1 SUB SWAP1 LOG4 STOP JUMPDEST PUSH1 0x1 DUP1 PUSH1 0xA0 SHL SUB PUSH1 0x44 CALLDATALOAD AND PUSH1 0x0 MSTORE PUSH1 0x4 PUSH1 0x20 MSTORE PUSH2 0xE00 PUSH1 0x4 CALLDATALOAD PUSH1 0x40 PUSH1 0x0 KECCAK256 PUSH2 0x22DD JUMP JUMPDEST PUSH2 0xD72 JUMP JUMPDEST PUSH2 0xE11 DUP3 PUSH1 0x44 CALLDATALOAD PUSH2 0x23FC JUMP JUMPDEST PUSH2 0xD1D JUMP JUMPDEST ADD MLOAD SWAP1 POP DUP11 DUP1 PUSH2 0x90C JUMP JUMPDEST SWAP1 PUSH1 0x1F NOT DUP4 AND SWAP2 DUP5 PUSH1 0x0 MSTORE PUSH1 0x20 PUSH1 0x0 KECCAK256 SWAP3 PUSH1 0x0 JUMPDEST DUP2 DUP2 LT PUSH2 0xE7C JUMPI POP SWAP4 PUSH2 0xCF5 SWAP8 SWAP7 SWAP4 PUSH1 0x9 SWAP7 SWAP4 PUSH1 0x1 SWAP4 DUP4 PUSH2 0x120 SWAP9 LT PUSH2 0xE63 JUMPI JUMPDEST POP POP POP DUP2 SHL ADD SWAP1 SSTORE PUSH2 0xCDE JUMP JUMPDEST ADD MLOAD PUSH1 0x0 NOT PUSH1 0xF8 DUP5 PUSH1 0x3 SHL AND SHR NOT AND SWAP1 SSTORE DUP10 DUP1 DUP1 PUSH2 0xE56 JUMP JUMPDEST SWAP3 SWAP4 PUSH1 0x20 PUSH1 0x1 DUP2 SWAP3 DUP8 DUP7 ADD MLOAD DUP2 SSTORE ADD SWAP6 ADD SWAP4 ADD PUSH2 0xE35 JUMP JUMPDEST ADD MLOAD SWAP1 POP DUP7 DUP1 PUSH2 0x90C JUMP JUMPDEST PUSH1 0x7 DUP5 ADD PUSH1 0x0 MSTORE PUSH1 0x20 PUSH1 0x0 KECCAK256 SWAP1 PUSH1 0x0 JUMPDEST PUSH1 0x1F NOT DUP5 AND DUP2 LT PUSH2 0xEF6 JUMPI POP PUSH1 0x1 SWAP4 SWAP5 SWAP6 SWAP7 DUP4 PUSH1 0x1F NOT DUP2 AND LT PUSH2 0xEDD JUMPI JUMPDEST POP POP POP DUP2 SHL ADD PUSH1 0x7 DUP4 ADD SSTORE PUSH2 0xC70 JUMP JUMPDEST ADD MLOAD PUSH1 0x0 NOT PUSH1 0xF8 DUP5 PUSH1 0x3 SHL AND SHR NOT AND SWAP1 SSTORE DUP6 DUP1 DUP1 PUSH2 0xECD JUMP JUMPDEST SWAP1 SWAP2 PUSH1 0x20 PUSH1 0x1 DUP2 SWAP3 DUP6 DUP12 ADD MLOAD DUP2 SSTORE ADD SWAP4 ADD SWAP2 ADD PUSH2 0xEAF JUMP JUMPDEST PUSH1 0x4 DUP4 ADD PUSH1 0x0 MSTORE PUSH1 0x20 PUSH1 0x0 KECCAK256 SWAP1 PUSH1 0x0 JUMPDEST PUSH1 0x1F NOT DUP5 AND DUP2 LT PUSH2 0xF65 JUMPI POP PUSH1 0x1 SWAP4 SWAP5 SWAP6 SWAP7 DUP4 PUSH1 0x1F NOT DUP2 AND LT PUSH2 0xF4C JUMPI JUMPDEST POP POP POP DUP2 SHL ADD PUSH1 0x4 DUP3 ADD SSTORE PUSH2 0xBF4 JUMP JUMPDEST ADD MLOAD PUSH1 0x0 NOT PUSH1 0xF8 DUP5 PUSH1 0x3 SHL AND SHR NOT AND SWAP1 SSTORE DUP6 DUP1 DUP1 PUSH2 0xF3C JUMP JUMPDEST SWAP1 SWAP2 PUSH1 0x20 PUSH1 0x1 DUP2 SWAP3 DUP6 DUP12 ADD MLOAD DUP2 SSTORE ADD SWAP4 ADD SWAP2 ADD PUSH2 0xF1E JUMP JUMPDEST PUSH1 0x40 MLOAD PUSH3 0x461BCD PUSH1 0xE5 SHL DUP2 MSTORE PUSH1 0x20 PUSH1 0x4 DUP3 ADD MSTORE PUSH1 0x1E PUSH1 0x24 DUP3 ADD MSTORE PUSH32 0x5472616E73616374696F6E20616C726561647920726567697374657265640000 PUSH1 0x44 DUP3 ADD MSTORE PUSH1 0x64 SWAP1 REVERT JUMPDEST POP PUSH1 0x6 SLOAD PUSH1 0x1 PUSH1 0x1 PUSH1 0xA0 SHL SUB AND CALLER EQ PUSH2 0xAAF JUMP JUMPDEST CALLVALUE PUSH2 0x2D1 JUMPI PUSH1 0x40 CALLDATASIZE PUSH1 0x3 NOT ADD SLT PUSH2 0x2D1 JUMPI PUSH2 0xFEF PUSH2 0x2079 JUMP JUMPDEST PUSH1 0x1 PUSH1 0x1 PUSH1 0xA0 SHL SUB AND PUSH1 0x0 SWAP1 DUP2 MSTORE PUSH1 0x4 PUSH1 0x20 MSTORE PUSH1 0x40 SWAP1 KECCAK256 DUP1 SLOAD PUSH1 0x24 CALLDATALOAD SWAP2 SWAP1 DUP3 LT ISZERO PUSH2 0x2D1 JUMPI PUSH1 0x20 SWAP2 PUSH2 0x1020 SWAP2 PUSH2 0x2152 JUMP JUMPDEST SWAP1 SLOAD PUSH1 0x40 MLOAD SWAP2 PUSH1 0x3 SHL SHR DUP2 MSTORE RETURN JUMPDEST CALLVALUE PUSH2 0x2D1 JUMPI PUSH1 0x20 CALLDATASIZE PUSH1 0x3 NOT ADD SLT PUSH2 0x2D1 JUMPI PUSH1 0x1 PUSH1 0x1 PUSH1 0xA0 SHL SUB PUSH2 0x104F PUSH2 0x2079 JUMP JUMPDEST AND PUSH1 0x0 MSTORE PUSH1 0x2 PUSH1 0x20 MSTORE PUSH1 0xC0 PUSH1 0x40 PUSH1 0x0 KECCAK256 DUP1 SLOAD SWAP1 PUSH1 0x1 DUP2 ADD SLOAD SWAP1 PUSH1 0x2 DUP2 ADD SLOAD PUSH1 0x3 DUP3 ADD SLOAD SWAP1 PUSH1 0xFF PUSH1 0x5 PUSH1 0x4 DUP6 ADD SLOAD SWAP5 ADD SLOAD AND SWAP4 PUSH1 0x40 MLOAD SWAP6 DUP7 MSTORE PUSH1 0x20 DUP7 ADD MSTORE PUSH1 0x40 DUP6 ADD MSTORE PUSH1 0x60 DUP5 ADD MSTORE PUSH1 0x80 DUP4 ADD MSTORE ISZERO ISZERO PUSH1 0xA0 DUP3 ADD MSTORE RETURN JUMPDEST CALLVALUE PUSH2 0x2D1 JUMPI PUSH1 0x0 CALLDATASIZE PUSH1 0x3 NOT ADD SLT PUSH2 0x2D1 JUMPI PUSH2 0x10CA PUSH1 0x1 DUP1 PUSH1 0xA0 SHL SUB PUSH1 0x5 SLOAD AND CALLER EQ PUSH2 0x2180 JUMP JUMPDEST STOP JUMPDEST CALLVALUE PUSH2 0x2D1 JUMPI PUSH1 0xA0 CALLDATASIZE PUSH1 0x3 NOT ADD SLT PUSH2 0x2D1 JUMPI PUSH2 0x10E5 PUSH2 0x2079 JUMP JUMPDEST PUSH1 0x24 CALLDATALOAD PUSH1 0x1 PUSH1 0x1 PUSH1 0x40 SHL SUB DUP2 GT PUSH2 0x2D1 JUMPI PUSH2 0x1104 SWAP1 CALLDATASIZE SWAP1 PUSH1 0x4 ADD PUSH2 0x20E1 JUMP JUMPDEST PUSH1 0x44 CALLDATALOAD PUSH1 0x1 PUSH1 0x1 PUSH1 0x40 SHL SUB DUP2 GT PUSH2 0x2D1 JUMPI PUSH2 0x1123 SWAP1 CALLDATASIZE SWAP1 PUSH1 0x4 ADD PUSH2 0x20E1 JUMP JUMPDEST PUSH1 0x64 CALLDATALOAD PUSH1 0x1 PUSH1 0x1 PUSH1 0x40 SHL SUB DUP2 GT PUSH2 0x2D1 JUMPI PUSH2 0x1142 SWAP1 CALLDATASIZE SWAP1 PUSH1 0x4 ADD PUSH2 0x20E1 JUMP JUMPDEST SWAP1 PUSH1 0x84 CALLDATALOAD PUSH1 0x1 PUSH1 0x1 PUSH1 0x40 SHL SUB DUP2 GT PUSH2 0x2D1 JUMPI CALLDATASIZE PUSH1 0x23 DUP3 ADD SLT ISZERO PUSH2 0x2D1 JUMPI DUP1 PUSH1 0x4 ADD CALLDATALOAD PUSH2 0x116D DUP2 PUSH2 0x213B JUMP JUMPDEST SWAP2 PUSH2 0x117B PUSH1 0x40 MLOAD SWAP4 DUP5 PUSH2 0x2010 JUMP JUMPDEST DUP2 DUP4 MSTORE PUSH1 0x24 PUSH1 0x20 DUP5 ADD SWAP3 PUSH1 0x5 SHL DUP3 ADD ADD SWAP1 CALLDATASIZE DUP3 GT PUSH2 0x2D1 JUMPI PUSH1 0x24 DUP2 ADD SWAP3 JUMPDEST DUP3 DUP5 LT PUSH2 0x1848 JUMPI POP POP POP POP PUSH2 0x11B9 PUSH1 0x1 DUP1 PUSH1 0xA0 SHL SUB PUSH1 0x5 SLOAD AND CALLER EQ PUSH2 0x2180 JUMP JUMPDEST PUSH1 0x1 PUSH1 0x1 PUSH1 0xA0 SHL SUB DUP6 AND PUSH1 0x0 SWAP1 DUP2 MSTORE PUSH1 0x1 PUSH1 0x20 MSTORE PUSH1 0x40 SWAP1 KECCAK256 PUSH1 0x4 ADD SLOAD PUSH2 0x1803 JUMPI PUSH1 0x40 MLOAD SWAP2 PUSH2 0x11E6 DUP4 PUSH2 0x1FBE JUMP JUMPDEST DUP5 DUP4 MSTORE PUSH1 0x20 DUP4 ADD MSTORE DUP3 PUSH1 0x40 DUP4 ADD MSTORE PUSH1 0x1 DUP1 PUSH1 0xA0 SHL SUB DUP6 AND PUSH1 0x60 DUP4 ADD MSTORE NUMBER PUSH1 0x80 DUP4 ADD MSTORE PUSH1 0x40 MLOAD DUP1 PUSH1 0x20 DUP2 ADD LT PUSH1 0x1 PUSH1 0x1 PUSH1 0x40 SHL SUB PUSH1 0x20 DUP4 ADD GT OR PUSH2 0x2AD JUMPI PUSH1 0x20 DUP2 ADD PUSH1 0x40 MSTORE PUSH1 0x0 DUP2 MSTORE PUSH1 0xA0 DUP4 ADD MSTORE PUSH1 0x0 PUSH1 0xC0 DUP4 ADD MSTORE PUSH1 0xE0 DUP3 ADD MSTORE PUSH1 0x1 DUP1 PUSH1 0xA0 SHL SUB DUP5 AND PUSH1 0x0 MSTORE PUSH1 0x1 PUSH1 0x20 MSTORE PUSH1 0x40 PUSH1 0x0 KECCAK256 SWAP1 DUP1 MLOAD DUP1 MLOAD SWAP1 PUSH1 0x1 PUSH1 0x1 PUSH1 0x40 SHL SUB DUP3 GT PUSH2 0x2AD JUMPI PUSH2 0x127D DUP3 PUSH2 0x1277 DUP7 SLOAD PUSH2 0x1ED2 JUMP JUMPDEST DUP7 PUSH2 0x2296 JUMP JUMPDEST PUSH1 0x20 SWAP1 PUSH1 0x1F DUP4 GT PUSH1 0x1 EQ PUSH2 0x1797 JUMPI PUSH2 0x12AD SWAP3 SWAP2 PUSH1 0x0 SWAP2 DUP4 PUSH2 0x93F JUMPI POP POP DUP2 PUSH1 0x1 SHL SWAP2 PUSH1 0x0 NOT SWAP1 PUSH1 0x3 SHL SHR NOT AND OR SWAP1 JUMP JUMPDEST DUP3 SSTORE JUMPDEST PUSH1 0x20 DUP2 ADD MLOAD DUP1 MLOAD SWAP1 PUSH1 0x1 PUSH1 0x1 PUSH1 0x40 SHL SUB DUP3 GT PUSH2 0x2AD JUMPI PUSH2 0x12E0 DUP3 PUSH2 0x12D7 PUSH1 0x1 DUP8 ADD SLOAD PUSH2 0x1ED2 JUMP JUMPDEST PUSH1 0x1 DUP8 ADD PUSH2 0x2296 JUMP JUMPDEST PUSH1 0x20 SWAP1 PUSH1 0x1F DUP4 GT PUSH1 0x1 EQ PUSH2 0x1725 JUMPI PUSH2 0x1310 SWAP3 SWAP2 PUSH1 0x0 SWAP2 DUP4 PUSH2 0x93F JUMPI POP POP DUP2 PUSH1 0x1 SHL SWAP2 PUSH1 0x0 NOT SWAP1 PUSH1 0x3 SHL SHR NOT AND OR SWAP1 JUMP JUMPDEST PUSH1 0x1 DUP4 ADD SSTORE JUMPDEST PUSH1 0x40 DUP2 ADD MLOAD DUP1 MLOAD SWAP1 PUSH1 0x1 PUSH1 0x1 PUSH1 0x40 SHL SUB DUP3 GT PUSH2 0x2AD JUMPI PUSH2 0x1346 DUP3 PUSH2 0x133D PUSH1 0x2 DUP8 ADD SLOAD PUSH2 0x1ED2 JUMP JUMPDEST PUSH1 0x2 DUP8 ADD PUSH2 0x2296 JUMP JUMPDEST PUSH1 0x20 SWAP1 PUSH1 0x1F DUP4 GT PUSH1 0x1 EQ PUSH2 0x16B3 JUMPI PUSH2 0x1376 SWAP3 SWAP2 PUSH1 0x0 SWAP2 DUP4 PUSH2 0x93F JUMPI POP POP DUP2 PUSH1 0x1 SHL SWAP2 PUSH1 0x0 NOT SWAP1 PUSH1 0x3 SHL SHR NOT AND OR SWAP1 JUMP JUMPDEST PUSH1 0x2 DUP4 ADD SSTORE JUMPDEST PUSH1 0x3 DUP3 ADD PUSH1 0x1 DUP1 PUSH1 0xA0 SHL SUB PUSH1 0x60 DUP4 ADD MLOAD AND PUSH1 0x1 PUSH1 0x1 PUSH1 0x60 SHL SUB PUSH1 0xA0 SHL DUP3 SLOAD AND OR SWAP1 SSTORE PUSH1 0x80 DUP2 ADD MLOAD PUSH1 0x4 DUP4 ADD SSTORE PUSH1 0xA0 DUP2 ADD MLOAD DUP1 MLOAD SWAP1 PUSH1 0x1 PUSH1 0x1 PUSH1 0x40 SHL SUB DUP3 GT PUSH2 0x2AD JUMPI PUSH2 0x13D8 DUP3 PUSH2 0x13CF PUSH1 0x5 DUP8 ADD SLOAD PUSH2 0x1ED2 JUMP JUMPDEST PUSH1 0x5 DUP8 ADD PUSH2 0x2296 JUMP JUMPDEST PUSH1 0x20 SWAP1 PUSH1 0x1F DUP4 GT PUSH1 0x1 EQ PUSH2 0x1640 JUMPI SWAP2 DUP1 PUSH2 0x140C SWAP3 PUSH1 0xE0 SWAP6 SWAP5 PUSH1 0x0 SWAP3 PUSH2 0x1635 JUMPI POP POP DUP2 PUSH1 0x1 SHL SWAP2 PUSH1 0x0 NOT SWAP1 PUSH1 0x3 SHL SHR NOT AND OR SWAP1 JUMP JUMPDEST PUSH1 0x5 DUP5 ADD SSTORE JUMPDEST PUSH2 0x1431 PUSH1 0xC0 DUP3 ADD MLOAD ISZERO ISZERO PUSH1 0x6 DUP6 ADD SWAP1 PUSH1 0xFF DUP1 NOT DUP4 SLOAD AND SWAP2 ISZERO ISZERO AND OR SWAP1 SSTORE JUMP JUMPDEST ADD MLOAD DUP1 MLOAD SWAP1 PUSH1 0x1 PUSH1 0x40 SHL DUP3 GT PUSH2 0x2AD JUMPI PUSH1 0x7 DUP4 ADD SLOAD DUP3 PUSH1 0x7 DUP6 ADD SSTORE DUP1 DUP4 LT PUSH2 0x15BD JUMPI JUMPDEST POP PUSH1 0x20 PUSH1 0x7 SWAP2 ADD SWAP3 ADD PUSH1 0x0 MSTORE PUSH1 0x20 PUSH1 0x0 KECCAK256 SWAP2 PUSH1 0x0 SWAP1 JUMPDEST DUP3 DUP3 LT PUSH2 0x14D4 JUMPI DUP7 PUSH32 0x579EF2EDBCAB574DD08E96AE9C9AB7F9C3F82C08B575C573470D9AE7EC3512D1 PUSH2 0x14AF DUP9 PUSH2 0x14BD DUP10 PUSH1 0x40 MLOAD SWAP4 DUP5 SWAP4 PUSH1 0x60 DUP6 MSTORE PUSH1 0x60 DUP6 ADD SWAP1 PUSH2 0x2054 JUMP JUMPDEST SWAP1 DUP4 DUP3 SUB PUSH1 0x20 DUP6 ADD MSTORE PUSH2 0x2054 JUMP JUMPDEST NUMBER PUSH1 0x40 DUP4 ADD MSTORE PUSH1 0x1 PUSH1 0x1 PUSH1 0xA0 SHL SUB SWAP1 SWAP5 AND SWAP4 SUB SWAP1 LOG2 STOP JUMPDEST DUP1 MLOAD DUP1 MLOAD SWAP1 PUSH1 0x1 PUSH1 0x1 PUSH1 0x40 SHL SUB DUP3 GT PUSH2 0x2AD JUMPI PUSH2 0x14FB DUP3 PUSH2 0x14F5 DUP9 SLOAD PUSH2 0x1ED2 JUMP JUMPDEST DUP9 PUSH2 0x2296 JUMP JUMPDEST PUSH1 0x20 SWAP1 PUSH1 0x1F DUP4 GT PUSH1 0x1 EQ PUSH2 0x154D JUMPI SWAP3 PUSH2 0x1533 DUP4 PUSH1 0x1 SWAP6 SWAP5 PUSH1 0x20 SWAP5 DUP8 SWAP7 PUSH1 0x0 SWAP3 PUSH2 0x1542 JUMPI POP POP DUP2 PUSH1 0x1 SHL SWAP2 PUSH1 0x0 NOT SWAP1 PUSH1 0x3 SHL SHR NOT AND OR SWAP1 JUMP JUMPDEST DUP8 SSTORE JUMPDEST ADD SWAP5 ADD SWAP2 ADD SWAP1 SWAP3 PUSH2 0x146A JUMP JUMPDEST ADD MLOAD SWAP1 POP DUP14 DUP1 PUSH2 0x90C JUMP JUMPDEST SWAP1 DUP7 PUSH1 0x0 MSTORE PUSH1 0x20 PUSH1 0x0 KECCAK256 SWAP2 PUSH1 0x0 JUMPDEST PUSH1 0x1F NOT DUP6 AND DUP2 LT PUSH2 0x15A5 JUMPI POP DUP4 PUSH1 0x20 SWAP4 PUSH1 0x1 SWAP7 SWAP4 DUP8 SWAP7 SWAP4 DUP8 SWAP5 PUSH1 0x1F NOT DUP2 AND LT PUSH2 0x158C JUMPI JUMPDEST POP POP POP DUP2 SHL ADD DUP8 SSTORE PUSH2 0x1536 JUMP JUMPDEST ADD MLOAD PUSH1 0x0 NOT PUSH1 0xF8 DUP5 PUSH1 0x3 SHL AND SHR NOT AND SWAP1 SSTORE DUP13 DUP1 DUP1 PUSH2 0x157F JUMP JUMPDEST SWAP2 SWAP3 PUSH1 0x20 PUSH1 0x1 DUP2 SWAP3 DUP7 DUP6 ADD MLOAD DUP2 SSTORE ADD SWAP5 ADD SWAP3 ADD PUSH2 0x155B JUMP JUMPDEST PUSH1 0x7 DUP5 ADD PUSH1 0x0 MSTORE PUSH1 0x20 PUSH1 0x0 KECCAK256 SWAP1 DUP4 DUP3 ADD JUMPDEST DUP2 DUP4 ADD DUP2 LT PUSH2 0x15DE JUMPI POP POP PUSH2 0x1454 JUMP JUMPDEST DUP1 PUSH2 0x15EB PUSH1 0x1 SWAP3 SLOAD PUSH2 0x1ED2 JUMP JUMPDEST DUP1 PUSH2 0x15F8 JUMPI JUMPDEST POP ADD PUSH2 0x15CE JUMP JUMPDEST PUSH1 0x1F DUP2 GT DUP4 EQ PUSH2 0x160E JUMPI POP PUSH1 0x0 DUP2 SSTORE JUMPDEST DUP11 PUSH2 0x15F1 JUMP JUMPDEST PUSH1 0x0 SWAP1 DUP3 DUP3 MSTORE PUSH2 0x162C PUSH1 0x1F PUSH1 0x20 DUP5 KECCAK256 SWAP3 ADD PUSH1 0x5 SHR DUP3 ADD DUP6 DUP4 ADD PUSH2 0x227F JUMP JUMPDEST DUP2 DUP4 SSTORE SSTORE PUSH2 0x1608 JUMP JUMPDEST ADD MLOAD SWAP1 POP DUP10 DUP1 PUSH2 0x90C JUMP JUMPDEST SWAP1 PUSH1 0x5 DUP6 ADD PUSH1 0x0 MSTORE PUSH1 0x20 PUSH1 0x0 KECCAK256 SWAP2 PUSH1 0x0 JUMPDEST PUSH1 0x1F NOT DUP6 AND DUP2 LT PUSH2 0x169B JUMPI POP SWAP2 DUP4 SWAP2 PUSH1 0x1 SWAP4 PUSH1 0xE0 SWAP7 SWAP6 PUSH1 0x1F NOT DUP2 AND LT PUSH2 0x1682 JUMPI JUMPDEST POP POP POP DUP2 SHL ADD PUSH1 0x5 DUP5 ADD SSTORE PUSH2 0x1412 JUMP JUMPDEST ADD MLOAD PUSH1 0x0 NOT PUSH1 0xF8 DUP5 PUSH1 0x3 SHL AND SHR NOT AND SWAP1 SSTORE DUP9 DUP1 DUP1 PUSH2 0x1672 JUMP JUMPDEST SWAP2 SWAP3 PUSH1 0x20 PUSH1 0x1 DUP2 SWAP3 DUP7 DUP6 ADD MLOAD DUP2 SSTORE ADD SWAP5 ADD SWAP3 ADD PUSH2 0x1651 JUMP JUMPDEST SWAP2 SWAP1 PUSH1 0x2 DUP6 ADD PUSH1 0x0 MSTORE PUSH1 0x20 PUSH1 0x0 KECCAK256 SWAP1 PUSH1 0x0 SWAP4 JUMPDEST PUSH1 0x1F NOT DUP5 AND DUP6 LT PUSH2 0x170A JUMPI PUSH1 0x1 SWAP5 POP DUP4 PUSH1 0x1F NOT DUP2 AND LT PUSH2 0x16F1 JUMPI JUMPDEST POP POP POP DUP2 SHL ADD PUSH1 0x2 DUP4 ADD SSTORE PUSH2 0x137C JUMP JUMPDEST ADD MLOAD PUSH1 0x0 NOT PUSH1 0xF8 DUP5 PUSH1 0x3 SHL AND SHR NOT AND SWAP1 SSTORE DUP8 DUP1 DUP1 PUSH2 0x16E1 JUMP JUMPDEST DUP2 DUP2 ADD MLOAD DUP4 SSTORE PUSH1 0x20 SWAP5 DUP6 ADD SWAP5 PUSH1 0x1 SWAP1 SWAP4 ADD SWAP3 SWAP1 SWAP2 ADD SWAP1 PUSH2 0x16C6 JUMP JUMPDEST SWAP2 SWAP1 PUSH1 0x1 DUP6 ADD PUSH1 0x0 MSTORE PUSH1 0x20 PUSH1 0x0 KECCAK256 SWAP1 PUSH1 0x0 SWAP4 JUMPDEST PUSH1 0x1F NOT DUP5 AND DUP6 LT PUSH2 0x177C JUMPI PUSH1 0x1 SWAP5 POP DUP4 PUSH1 0x1F NOT DUP2 AND LT PUSH2 0x1763 JUMPI JUMPDEST POP POP POP DUP2 SHL ADD PUSH1 0x1 DUP4 ADD SSTORE PUSH2 0x1316 JUMP JUMPDEST ADD MLOAD PUSH1 0x0 NOT PUSH1 0xF8 DUP5 PUSH1 0x3 SHL AND SHR NOT AND SWAP1 SSTORE DUP8 DUP1 DUP1 PUSH2 0x1753 JUMP JUMPDEST DUP2 DUP2 ADD MLOAD DUP4 SSTORE PUSH1 0x20 SWAP5 DUP6 ADD SWAP5 PUSH1 0x1 SWAP1 SWAP4 ADD SWAP3 SWAP1 SWAP2 ADD SWAP1 PUSH2 0x1738 JUMP JUMPDEST SWAP2 SWAP1 DUP5 PUSH1 0x0 MSTORE PUSH1 0x20 PUSH1 0x0 KECCAK256 SWAP1 PUSH1 0x0 SWAP4 JUMPDEST PUSH1 0x1F NOT DUP5 AND DUP6 LT PUSH2 0x17E8 JUMPI PUSH1 0x1 SWAP5 POP DUP4 PUSH1 0x1F NOT DUP2 AND LT PUSH2 0x17CF JUMPI JUMPDEST POP POP POP DUP2 SHL ADD DUP3 SSTORE PUSH2 0x12B0 JUMP JUMPDEST ADD MLOAD PUSH1 0x0 NOT PUSH1 0xF8 DUP5 PUSH1 0x3 SHL AND SHR NOT AND SWAP1 SSTORE DUP8 DUP1 DUP1 PUSH2 0x17C2 JUMP JUMPDEST DUP2 DUP2 ADD MLOAD DUP4 SSTORE PUSH1 0x20 SWAP5 DUP6 ADD SWAP5 PUSH1 0x1 SWAP1 SWAP4 ADD SWAP3 SWAP1 SWAP2 ADD SWAP1 PUSH2 0x17A7 JUMP JUMPDEST PUSH1 0x40 MLOAD PUSH3 0x461BCD PUSH1 0xE5 SHL DUP2 MSTORE PUSH1 0x20 PUSH1 0x4 DUP3 ADD MSTORE PUSH1 0x1B PUSH1 0x24 DUP3 ADD MSTORE PUSH32 0x436F6E747261637420616C726561647920726567697374657265640000000000 PUSH1 0x44 DUP3 ADD MSTORE PUSH1 0x64 SWAP1 REVERT JUMPDEST DUP4 CALLDATALOAD PUSH1 0x1 PUSH1 0x1 PUSH1 0x40 SHL SUB DUP2 GT PUSH2 0x2D1 JUMPI PUSH1 0x20 SWAP2 PUSH2 0x186C DUP4 SWAP3 PUSH1 0x24 CALLDATASIZE SWAP2 DUP8 ADD ADD PUSH2 0x20E1 JUMP JUMPDEST DUP2 MSTORE ADD SWAP4 ADD SWAP3 PUSH2 0x1199 JUMP JUMPDEST CALLVALUE PUSH2 0x2D1 JUMPI PUSH1 0x20 DUP1 PUSH1 0x3 NOT CALLDATASIZE ADD SLT PUSH2 0x2D1 JUMPI PUSH1 0x4 CALLDATALOAD PUSH1 0x1 PUSH1 0x1 PUSH1 0x40 SHL SUB DUP2 GT PUSH2 0x2D1 JUMPI DUP2 PUSH2 0x18AC PUSH2 0x18BF SWAP3 CALLDATASIZE SWAP1 PUSH1 0x4 ADD PUSH2 0x20E1 JUMP JUMPDEST DUP2 PUSH1 0x40 MLOAD SWAP4 DUP3 DUP6 DUP1 SWAP5 MLOAD SWAP4 DUP5 SWAP3 ADD PUSH2 0x2031 JUMP JUMPDEST DUP2 ADD PUSH1 0x3 DUP2 MSTORE SUB ADD SWAP1 KECCAK256 SWAP1 PUSH1 0x40 MLOAD SWAP1 DUP2 DUP2 DUP5 SLOAD SWAP2 DUP3 DUP2 MSTORE ADD SWAP4 PUSH1 0x0 MSTORE DUP2 PUSH1 0x0 KECCAK256 SWAP2 PUSH1 0x0 SWAP1 JUMPDEST DUP3 DUP3 LT PUSH2 0x18FB JUMPI PUSH2 0x5D7 DUP6 PUSH2 0x5CB DUP2 DUP10 SUB DUP3 PUSH2 0x2010 JUMP JUMPDEST DUP4 SLOAD DUP7 MSTORE SWAP5 DUP6 ADD SWAP5 PUSH1 0x1 SWAP4 DUP5 ADD SWAP4 SWAP1 SWAP2 ADD SWAP1 PUSH2 0x18E4 JUMP JUMPDEST CALLVALUE PUSH2 0x2D1 JUMPI PUSH1 0x20 DUP1 PUSH1 0x3 NOT CALLDATASIZE ADD SLT PUSH2 0x2D1 JUMPI PUSH1 0x4 CALLDATALOAD PUSH1 0x0 MSTORE PUSH1 0x0 DUP2 MSTORE PUSH1 0x40 PUSH1 0x0 KECCAK256 SWAP1 PUSH2 0x1AF2 PUSH1 0x59 PUSH1 0x40 MLOAD SWAP4 PUSH2 0x1946 DUP6 PUSH2 0x1FA2 JUMP JUMPDEST DUP1 SLOAD DUP6 MSTORE PUSH1 0x1 DUP1 PUSH1 0xA0 SHL SUB DUP1 PUSH1 0x1 DUP4 ADD SLOAD AND DUP6 DUP8 ADD MSTORE PUSH1 0x2 DUP3 ADD SLOAD AND PUSH1 0x40 DUP7 ADD MSTORE PUSH1 0x3 DUP2 ADD SLOAD PUSH1 0x60 DUP7 ADD MSTORE PUSH1 0x40 MLOAD PUSH2 0x1985 DUP2 PUSH2 0x388 DUP2 PUSH1 0x4 DUP7 ADD PUSH2 0x1F0C JUMP JUMPDEST PUSH1 0x80 DUP7 ADD MSTORE PUSH1 0x5 DUP2 ADD SLOAD PUSH1 0xA0 DUP7 ADD MSTORE PUSH1 0x6 DUP2 ADD SLOAD SWAP5 PUSH1 0xC0 DUP2 ADD SWAP6 DUP7 MSTORE PUSH2 0x1A03 PUSH1 0x40 MLOAD PUSH2 0x19B8 DUP2 PUSH2 0x388 DUP2 PUSH1 0x7 DUP9 ADD PUSH2 0x1F0C JUMP JUMPDEST PUSH1 0xE0 DUP4 ADD SWAP1 DUP2 MSTORE PUSH2 0x120 PUSH1 0xFF PUSH1 0x9 PUSH1 0x40 MLOAD SWAP7 PUSH2 0x19DB DUP9 PUSH2 0x69E DUP2 PUSH1 0x8 DUP6 ADD PUSH2 0x1F0C JUMP JUMPDEST PUSH2 0x100 DUP8 ADD SWAP8 DUP9 MSTORE ADD SLOAD AND SWAP4 ADD SWAP3 ISZERO ISZERO DUP4 MSTORE PUSH2 0x19F9 DUP9 MLOAD ISZERO ISZERO PUSH2 0x21D6 JUMP JUMPDEST MLOAD SWAP3 MLOAD SWAP7 MLOAD PUSH2 0x2337 JUMP JUMPDEST SWAP1 MLOAD ISZERO PUSH2 0x1B06 JUMPI PUSH1 0x40 MLOAD PUSH2 0x1A16 DUP2 PUSH2 0x1FF5 JUMP JUMPDEST PUSH1 0x4 DUP2 MSTORE PUSH4 0x74727565 PUSH1 0xE0 SHL DUP7 DUP3 ADD MSTORE SWAP1 JUMPDEST PUSH1 0x40 MLOAD SWAP7 DUP8 SWAP4 PUSH13 0x3D9131B0BA32B3B7B93C911D11 PUSH1 0x99 SHL DUP9 DUP7 ADD MSTORE PUSH2 0x1A56 DUP2 MLOAD DUP1 SWAP3 DUP11 PUSH1 0x2D DUP10 ADD SWAP2 ADD PUSH2 0x2031 JUMP JUMPDEST DUP5 ADD PUSH17 0x1116113232B9B1B934B83A34B7B7111D11 PUSH1 0x79 SHL PUSH1 0x2D DUP3 ADD MSTORE PUSH2 0x1A85 DUP3 MLOAD DUP1 SWAP4 DUP11 PUSH1 0x3E DUP6 ADD SWAP2 ADD PUSH2 0x2031 JUMP JUMPDEST ADD PUSH14 0x1116113A34B6B2B9BA30B6B8111D PUSH1 0x91 SHL PUSH1 0x3E DUP3 ADD MSTORE PUSH2 0x1AB0 DUP3 MLOAD DUP1 SWAP4 DUP10 PUSH1 0x4C DUP6 ADD SWAP2 ADD PUSH2 0x2031 JUMP JUMPDEST ADD PUSH12 0x16113B32B934B334B2B2111D PUSH1 0xA1 SHL PUSH1 0x4C DUP3 ADD MSTORE PUSH2 0x1AD9 DUP3 MLOAD DUP1 SWAP4 DUP9 PUSH1 0x58 DUP6 ADD SWAP2 ADD PUSH2 0x2031 JUMP JUMPDEST ADD PUSH1 0x7D PUSH1 0xF8 SHL PUSH1 0x58 DUP3 ADD MSTORE SUB PUSH1 0x39 DUP2 ADD DUP6 MSTORE ADD DUP4 PUSH2 0x2010 JUMP JUMPDEST PUSH2 0x5D7 PUSH1 0x40 MLOAD SWAP3 DUP3 DUP5 SWAP4 DUP5 MSTORE DUP4 ADD SWAP1 PUSH2 0x2054 JUMP JUMPDEST PUSH1 0x40 MLOAD PUSH2 0x1B12 DUP2 PUSH2 0x1FF5 JUMP JUMPDEST PUSH1 0x5 DUP2 MSTORE PUSH5 0x66616C7365 PUSH1 0xD8 SHL DUP7 DUP3 ADD MSTORE SWAP1 PUSH2 0x1A28 JUMP JUMPDEST CALLVALUE PUSH2 0x2D1 JUMPI PUSH1 0x20 CALLDATASIZE PUSH1 0x3 NOT ADD SLT PUSH2 0x2D1 JUMPI PUSH2 0x1B42 PUSH2 0x2079 JUMP JUMPDEST PUSH1 0x5 SLOAD PUSH1 0x1 PUSH1 0x1 PUSH1 0xA0 SHL SUB SWAP2 SWAP1 PUSH2 0x1B5C SWAP1 DUP4 AND CALLER EQ PUSH2 0x2180 JUMP JUMPDEST AND PUSH1 0x1 PUSH1 0x1 PUSH1 0x60 SHL SUB PUSH1 0xA0 SHL PUSH1 0x6 SLOAD AND OR PUSH1 0x6 SSTORE PUSH1 0x0 DUP1 RETURN JUMPDEST CALLVALUE PUSH2 0x2D1 JUMPI PUSH1 0x20 CALLDATASIZE PUSH1 0x3 NOT ADD SLT PUSH2 0x2D1 JUMPI PUSH1 0x4 CALLDATALOAD PUSH1 0x0 PUSH2 0x120 PUSH1 0x40 MLOAD PUSH2 0x1B9A DUP2 PUSH2 0x1FA2 JUMP JUMPDEST DUP3 DUP2 MSTORE DUP3 PUSH1 0x20 DUP3 ADD MSTORE DUP3 PUSH1 0x40 DUP3 ADD MSTORE DUP3 PUSH1 0x60 DUP3 ADD MSTORE PUSH1 0x60 PUSH1 0x80 DUP3 ADD MSTORE DUP3 PUSH1 0xA0 DUP3 ADD MSTORE DUP3 PUSH1 0xC0 DUP3 ADD MSTORE PUSH1 0x60 PUSH1 0xE0 DUP3 ADD MSTORE PUSH1 0x60 PUSH2 0x100 DUP3 ADD MSTORE ADD MSTORE DUP1 PUSH1 0x0 MSTORE PUSH1 0x0 PUSH1 0x20 MSTORE PUSH2 0x1BEF PUSH1 0x6 PUSH1 0x40 PUSH1 0x0 KECCAK256 ADD SLOAD ISZERO ISZERO PUSH2 0x21D6 JUMP JUMPDEST PUSH1 0x0 MSTORE PUSH1 0x0 PUSH1 0x20 MSTORE PUSH1 0x40 PUSH1 0x0 KECCAK256 PUSH1 0xFF PUSH1 0x9 PUSH1 0x40 MLOAD SWAP3 PUSH2 0x1C0D DUP5 PUSH2 0x1FA2 JUMP JUMPDEST DUP1 SLOAD DUP5 MSTORE PUSH1 0x1 DUP2 ADD SLOAD PUSH1 0x1 PUSH1 0x1 PUSH1 0xA0 SHL SUB SWAP1 DUP2 AND PUSH1 0x20 DUP7 ADD MSTORE PUSH1 0x2 DUP3 ADD SLOAD AND PUSH1 0x40 DUP1 DUP7 ADD SWAP2 SWAP1 SWAP2 MSTORE PUSH1 0x3 DUP3 ADD SLOAD PUSH1 0x60 DUP7 ADD MSTORE MLOAD PUSH2 0x1C51 DUP2 PUSH2 0x388 DUP2 PUSH1 0x4 DUP7 ADD PUSH2 0x1F0C JUMP JUMPDEST PUSH1 0x80 DUP6 ADD MSTORE PUSH1 0x5 DUP2 ADD SLOAD PUSH1 0xA0 DUP6 ADD MSTORE PUSH1 0x6 DUP2 ADD SLOAD PUSH1 0xC0 DUP6 ADD MSTORE PUSH1 0x40 MLOAD PUSH2 0x1C7E DUP2 PUSH2 0x388 DUP2 PUSH1 0x7 DUP7 ADD PUSH2 0x1F0C JUMP JUMPDEST PUSH1 0xE0 DUP6 ADD MSTORE PUSH1 0x40 MLOAD PUSH2 0x1C97 DUP2 PUSH2 0x388 DUP2 PUSH1 0x8 DUP7 ADD PUSH2 0x1F0C JUMP JUMPDEST PUSH2 0x100 DUP6 ADD MSTORE ADD SLOAD AND ISZERO ISZERO PUSH2 0x120 DUP3 ADD MSTORE PUSH1 0x40 MLOAD DUP1 SWAP2 PUSH1 0x20 DUP3 MSTORE DUP1 MLOAD PUSH1 0x20 DUP4 ADD MSTORE PUSH1 0x1 DUP1 PUSH1 0xA0 SHL SUB PUSH1 0x20 DUP3 ADD MLOAD AND PUSH1 0x40 DUP4 ADD MSTORE PUSH1 0x1 DUP1 PUSH1 0xA0 SHL SUB PUSH1 0x40 DUP3 ADD MLOAD AND PUSH1 0x60 DUP4 ADD MSTORE PUSH1 0x60 DUP2 ADD MLOAD PUSH1 0x80 DUP4 ADD MSTORE PUSH1 0x80 DUP2 ADD MLOAD PUSH2 0x120 PUSH2 0x1D4F PUSH2 0x1D09 PUSH2 0x140 SWAP4 DUP5 PUSH1 0xA0 DUP9 ADD MSTORE PUSH2 0x160 DUP8 ADD SWAP1 PUSH2 0x2054 JUMP JUMPDEST PUSH1 0xA0 DUP6 ADD MLOAD PUSH1 0xC0 DUP8 ADD MSTORE PUSH1 0xC0 DUP6 ADD MLOAD PUSH1 0xE0 DUP8 ADD MSTORE PUSH2 0x1D3A PUSH1 0xE0 DUP7 ADD MLOAD SWAP2 PUSH1 0x1F NOT SWAP3 DUP4 DUP10 DUP4 SUB ADD PUSH2 0x100 DUP11 ADD MSTORE PUSH2 0x2054 JUMP JUMPDEST SWAP1 PUSH2 0x100 DUP7 ADD MLOAD SWAP1 DUP8 DUP4 SUB ADD DUP5 DUP9 ADD MSTORE PUSH2 0x2054 JUMP JUMPDEST SWAP3 ADD MLOAD ISZERO ISZERO SWAP1 DUP4 ADD MSTORE SUB SWAP1 RETURN JUMPDEST CALLVALUE PUSH2 0x2D1 JUMPI PUSH1 0x20 CALLDATASIZE PUSH1 0x3 NOT ADD SLT PUSH2 0x2D1 JUMPI PUSH1 0x4 CALLDATALOAD PUSH1 0x0 MSTORE PUSH1 0x0 PUSH1 0x20 MSTORE PUSH1 0x40 PUSH1 0x0 KECCAK256 PUSH1 0x20 DUP2 SLOAD PUSH2 0x1E55 PUSH1 0x1 DUP1 PUSH1 0xA0 SHL SUB SWAP4 PUSH2 0x1E46 DUP6 PUSH1 0x1 DUP4 ADD SLOAD AND SWAP6 PUSH1 0x2 DUP4 ADD SLOAD AND SWAP4 PUSH1 0x3 DUP4 ADD SLOAD PUSH1 0x40 MLOAD SWAP2 PUSH2 0x1DB8 DUP4 PUSH2 0x66B DUP2 PUSH1 0x4 DUP10 ADD PUSH2 0x1F0C JUMP JUMPDEST PUSH2 0x1E2E PUSH1 0x5 DUP7 ADD SLOAD SWAP4 PUSH1 0x6 DUP8 ADD SLOAD SWAP3 PUSH1 0x40 MLOAD SWAP5 PUSH2 0x1DE3 DUP7 PUSH2 0x1DDC DUP2 PUSH1 0x7 DUP14 ADD PUSH2 0x1F0C JUMP JUMPDEST SUB DUP8 PUSH2 0x2010 JUMP JUMPDEST PUSH1 0xFF PUSH1 0x9 PUSH1 0x40 MLOAD SWAP11 PUSH2 0x1E03 DUP13 PUSH2 0x1DFC DUP2 PUSH1 0x8 DUP6 ADD PUSH2 0x1F0C JUMP JUMPDEST SUB DUP14 PUSH2 0x2010 JUMP JUMPDEST ADD SLOAD AND SWAP11 PUSH1 0x40 MLOAD SWAP14 DUP15 SWAP14 DUP15 PUSH2 0x140 SWAP6 DUP2 MSTORE ADD MSTORE PUSH1 0x40 DUP14 ADD MSTORE PUSH1 0x60 DUP13 ADD MSTORE DUP1 PUSH1 0x80 DUP13 ADD MSTORE DUP11 ADD SWAP1 PUSH2 0x2054 JUMP JUMPDEST SWAP3 PUSH1 0xA0 DUP10 ADD MSTORE PUSH1 0xC0 DUP9 ADD MSTORE DUP7 DUP3 SUB PUSH1 0xE0 DUP9 ADD MSTORE PUSH2 0x2054 JUMP JUMPDEST SWAP1 DUP5 DUP3 SUB PUSH2 0x100 DUP7 ADD MSTORE PUSH2 0x2054 JUMP JUMPDEST SWAP1 ISZERO ISZERO PUSH2 0x120 DUP4 ADD MSTORE SUB SWAP1 RETURN JUMPDEST CALLVALUE PUSH2 0x2D1 JUMPI PUSH1 0x0 CALLDATASIZE PUSH1 0x3 NOT ADD SLT PUSH2 0x2D1 JUMPI PUSH1 0x6 SLOAD PUSH1 0x40 MLOAD PUSH1 0x1 PUSH1 0x1 PUSH1 0xA0 SHL SUB SWAP1 SWAP2 AND DUP2 MSTORE PUSH1 0x20 SWAP1 RETURN JUMPDEST CALLVALUE PUSH2 0x2D1 JUMPI PUSH1 0x0 CALLDATASIZE PUSH1 0x3 NOT ADD SLT PUSH2 0x2D1 JUMPI PUSH1 0x20 PUSH1 0x7 SLOAD PUSH1 0x40 MLOAD SWAP1 DUP2 MSTORE RETURN JUMPDEST CALLVALUE PUSH2 0x2D1 JUMPI PUSH1 0x0 CALLDATASIZE PUSH1 0x3 NOT ADD SLT PUSH2 0x2D1 JUMPI PUSH1 0x60 SWAP1 PUSH1 0x7 SLOAD DUP2 MSTORE PUSH1 0x0 PUSH1 0x20 DUP3 ADD MSTORE PUSH1 0x0 PUSH1 0x40 DUP3 ADD MSTORE RETURN JUMPDEST SWAP1 PUSH1 0x1 DUP3 DUP2 SHR SWAP3 AND DUP1 ISZERO PUSH2 0x1F02 JUMPI JUMPDEST PUSH1 0x20 DUP4 LT EQ PUSH2 0x1EEC JUMPI JUMP JUMPDEST PUSH4 0x4E487B71 PUSH1 0xE0 SHL PUSH1 0x0 MSTORE PUSH1 0x22 PUSH1 0x4 MSTORE PUSH1 0x24 PUSH1 0x0 REVERT JUMPDEST SWAP2 PUSH1 0x7F AND SWAP2 PUSH2 0x1EE1 JUMP JUMPDEST DUP1 SLOAD PUSH1 0x0 SWAP4 SWAP3 PUSH2 0x1F1B DUP3 PUSH2 0x1ED2 JUMP JUMPDEST SWAP2 DUP3 DUP3 MSTORE PUSH1 0x20 SWAP4 PUSH1 0x1 SWAP2 PUSH1 0x1 DUP2 AND SWAP1 DUP2 PUSH1 0x0 EQ PUSH2 0x1F83 JUMPI POP PUSH1 0x1 EQ PUSH2 0x1F42 JUMPI JUMPDEST POP POP POP POP POP JUMP JUMPDEST SWAP1 SWAP4 SWAP5 SWAP6 POP PUSH1 0x0 SWAP3 SWAP2 SWAP3 MSTORE DUP4 PUSH1 0x0 KECCAK256 SWAP3 DUP5 PUSH1 0x0 SWAP5 JUMPDEST DUP4 DUP7 LT PUSH2 0x1F6F JUMPI POP POP POP POP ADD ADD SWAP1 CODESIZE DUP1 DUP1 DUP1 DUP1 PUSH2 0x1F3B JUMP JUMPDEST DUP1 SLOAD DUP6 DUP8 ADD DUP4 ADD MSTORE SWAP5 ADD SWAP4 DUP6 SWAP1 DUP3 ADD PUSH2 0x1F57 JUMP JUMPDEST PUSH1 0xFF NOT AND DUP7 DUP6 ADD MSTORE POP POP POP SWAP1 ISZERO ISZERO PUSH1 0x5 SHL ADD ADD SWAP2 POP CODESIZE DUP1 DUP1 DUP1 DUP1 PUSH2 0x1F3B JUMP JUMPDEST PUSH2 0x140 DUP2 ADD SWAP1 DUP2 LT PUSH1 0x1 PUSH1 0x1 PUSH1 0x40 SHL SUB DUP3 GT OR PUSH2 0x2AD JUMPI PUSH1 0x40 MSTORE JUMP JUMPDEST PUSH2 0x100 DUP2 ADD SWAP1 DUP2 LT PUSH1 0x1 PUSH1 0x1 PUSH1 0x40 SHL SUB DUP3 GT OR PUSH2 0x2AD JUMPI PUSH1 0x40 MSTORE JUMP JUMPDEST PUSH1 0xC0 DUP2 ADD SWAP1 DUP2 LT PUSH1 0x1 PUSH1 0x1 PUSH1 0x40 SHL SUB DUP3 GT OR PUSH2 0x2AD JUMPI PUSH1 0x40 MSTORE JUMP JUMPDEST PUSH1 0x40 DUP2 ADD SWAP1 DUP2 LT PUSH1 0x1 PUSH1 0x1 PUSH1 0x40 SHL SUB DUP3 GT OR PUSH2 0x2AD JUMPI PUSH1 0x40 MSTORE JUMP JUMPDEST SWAP1 PUSH1 0x1F DUP1 NOT SWAP2 ADD AND DUP2 ADD SWAP1 DUP2 LT PUSH1 0x1 PUSH1 0x1 PUSH1 0x40 SHL SUB DUP3 GT OR PUSH2 0x2AD JUMPI PUSH1 0x40 MSTORE JUMP JUMPDEST PUSH1 0x0 JUMPDEST DUP4 DUP2 LT PUSH2 0x2044 JUMPI POP POP PUSH1 0x0 SWAP2 ADD MSTORE JUMP JUMPDEST DUP2 DUP2 ADD MLOAD DUP4 DUP3 ADD MSTORE PUSH1 0x20 ADD PUSH2 0x2034 JUMP JUMPDEST SWAP1 PUSH1 0x20 SWAP2 PUSH2 0x206D DUP2 MLOAD DUP1 SWAP3 DUP2 DUP6 MSTORE DUP6 DUP1 DUP7 ADD SWAP2 ADD PUSH2 0x2031 JUMP JUMPDEST PUSH1 0x1F ADD PUSH1 0x1F NOT AND ADD ADD SWAP1 JUMP JUMPDEST PUSH1 0x4 CALLDATALOAD SWAP1 PUSH1 0x1 PUSH1 0x1 PUSH1 0xA0 SHL SUB DUP3 AND DUP3 SUB PUSH2 0x2D1 JUMPI JUMP JUMPDEST PUSH1 0x1 PUSH1 0x1 PUSH1 0x40 SHL SUB DUP2 GT PUSH2 0x2AD JUMPI PUSH1 0x1F ADD PUSH1 0x1F NOT AND PUSH1 0x20 ADD SWAP1 JUMP JUMPDEST SWAP3 SWAP2 SWAP3 PUSH2 0x20B6 DUP3 PUSH2 0x208F JUMP JUMPDEST SWAP2 PUSH2 0x20C4 PUSH1 0x40 MLOAD SWAP4 DUP5 PUSH2 0x2010 JUMP JUMPDEST DUP3 SWAP5 DUP2 DUP5 MSTORE DUP2 DUP4 ADD GT PUSH2 0x2D1 JUMPI DUP3 DUP2 PUSH1 0x20 SWAP4 DUP5 PUSH1 0x0 SWAP7 ADD CALLDATACOPY ADD ADD MSTORE JUMP JUMPDEST SWAP1 DUP1 PUSH1 0x1F DUP4 ADD SLT ISZERO PUSH2 0x2D1 JUMPI DUP2 PUSH1 0x20 PUSH2 0x20FC SWAP4 CALLDATALOAD SWAP2 ADD PUSH2 0x20AA JUMP JUMPDEST SWAP1 JUMP JUMPDEST PUSH1 0x20 SWAP1 PUSH1 0x20 PUSH1 0x40 DUP2 DUP4 ADD SWAP3 DUP3 DUP2 MSTORE DUP6 MLOAD DUP1 SWAP5 MSTORE ADD SWAP4 ADD SWAP2 PUSH1 0x0 JUMPDEST DUP3 DUP2 LT PUSH2 0x2127 JUMPI POP POP POP POP SWAP1 JUMP JUMPDEST DUP4 MLOAD DUP6 MSTORE SWAP4 DUP2 ADD SWAP4 SWAP3 DUP2 ADD SWAP3 PUSH1 0x1 ADD PUSH2 0x2119 JUMP JUMPDEST PUSH1 0x1 PUSH1 0x1 PUSH1 0x40 SHL SUB DUP2 GT PUSH2 0x2AD JUMPI PUSH1 0x5 SHL PUSH1 0x20 ADD SWAP1 JUMP JUMPDEST DUP1 SLOAD DUP3 LT ISZERO PUSH2 0x216A JUMPI PUSH1 0x0 MSTORE PUSH1 0x20 PUSH1 0x0 KECCAK256 ADD SWAP1 PUSH1 0x0 SWAP1 JUMP JUMPDEST PUSH4 0x4E487B71 PUSH1 0xE0 SHL PUSH1 0x0 MSTORE PUSH1 0x32 PUSH1 0x4 MSTORE PUSH1 0x24 PUSH1 0x0 REVERT JUMPDEST ISZERO PUSH2 0x2187 JUMPI JUMP JUMPDEST PUSH1 0x40 MLOAD PUSH3 0x461BCD PUSH1 0xE5 SHL DUP2 MSTORE PUSH1 0x20 PUSH1 0x4 DUP3 ADD MSTORE PUSH1 0x21 PUSH1 0x24 DUP3 ADD MSTORE PUSH32 0x4F6E6C792061646D696E2063616E2063616C6C20746869732066756E6374696F PUSH1 0x44 DUP3 ADD MSTORE PUSH1 0x37 PUSH1 0xF9 SHL PUSH1 0x64 DUP3 ADD MSTORE PUSH1 0x84 SWAP1 REVERT JUMPDEST ISZERO PUSH2 0x21DD JUMPI JUMP JUMPDEST PUSH1 0x40 MLOAD PUSH3 0x461BCD PUSH1 0xE5 SHL DUP2 MSTORE PUSH1 0x20 PUSH1 0x4 DUP3 ADD MSTORE PUSH1 0x15 PUSH1 0x24 DUP3 ADD MSTORE PUSH21 0x151C985B9CD858DD1A5BDB881B9BDD08199BDD5B99 PUSH1 0x5A SHL PUSH1 0x44 DUP3 ADD MSTORE PUSH1 0x64 SWAP1 REVERT JUMPDEST ISZERO PUSH2 0x2221 JUMPI JUMP JUMPDEST PUSH1 0x40 MLOAD PUSH3 0x461BCD PUSH1 0xE5 SHL DUP2 MSTORE PUSH1 0x20 PUSH1 0x4 DUP3 ADD MSTORE PUSH1 0x30 PUSH1 0x24 DUP3 ADD MSTORE PUSH32 0x4F6E6C7920617574686F72697A6564206164647265737365732063616E206361 PUSH1 0x44 DUP3 ADD MSTORE PUSH16 0x3636103A3434B990333AB731BA34B7B7 PUSH1 0x81 SHL PUSH1 0x64 DUP3 ADD MSTORE PUSH1 0x84 SWAP1 REVERT JUMPDEST DUP2 DUP2 LT PUSH2 0x228A JUMPI POP POP JUMP JUMPDEST PUSH1 0x0 DUP2 SSTORE PUSH1 0x1 ADD PUSH2 0x227F JUMP JUMPDEST SWAP2 SWAP1 PUSH1 0x1F DUP2 GT PUSH2 0x22A5 JUMPI POP POP POP JUMP JUMPDEST PUSH2 0x22D1 SWAP3 PUSH1 0x0 MSTORE PUSH1 0x20 PUSH1 0x0 KECCAK256 SWAP1 PUSH1 0x20 PUSH1 0x1F DUP5 ADD PUSH1 0x5 SHR DUP4 ADD SWAP4 LT PUSH2 0x22D3 JUMPI JUMPDEST PUSH1 0x1F ADD PUSH1 0x5 SHR ADD SWAP1 PUSH2 0x227F JUMP JUMPDEST JUMP JUMPDEST SWAP1 SWAP2 POP DUP2 SWAP1 PUSH2 0x22C4 JUMP JUMPDEST DUP1 SLOAD PUSH1 0x1 PUSH1 0x40 SHL DUP2 LT ISZERO PUSH2 0x2AD JUMPI PUSH2 0x22FA SWAP2 PUSH1 0x1 DUP3 ADD DUP2 SSTORE PUSH2 0x2152 JUMP JUMPDEST DUP2 SWAP3 SWAP2 SLOAD SWAP1 PUSH1 0x3 SHL SWAP2 DUP3 SHL SWAP2 PUSH1 0x0 NOT SWAP1 SHL NOT AND OR SWAP1 SSTORE JUMP JUMPDEST PUSH1 0x0 NOT DUP2 EQ PUSH2 0x2321 JUMPI PUSH1 0x1 ADD SWAP1 JUMP JUMPDEST PUSH4 0x4E487B71 PUSH1 0xE0 SHL PUSH1 0x0 MSTORE PUSH1 0x11 PUSH1 0x4 MSTORE PUSH1 0x24 PUSH1 0x0 REVERT JUMPDEST DUP1 ISZERO PUSH2 0x23DE JUMPI PUSH1 0x0 DUP2 DUP1 JUMPDEST PUSH2 0x23CA JUMPI POP PUSH2 0x2350 DUP2 PUSH2 0x208F JUMP JUMPDEST SWAP1 PUSH2 0x235E PUSH1 0x40 MLOAD SWAP3 DUP4 PUSH2 0x2010 JUMP JUMPDEST DUP1 DUP3 MSTORE PUSH1 0x1F NOT PUSH2 0x236D DUP3 PUSH2 0x208F JUMP JUMPDEST ADD CALLDATASIZE PUSH1 0x20 DUP5 ADD CALLDATACOPY JUMPDEST DUP1 SWAP3 DUP1 ISZERO PUSH2 0x23C3 JUMPI PUSH1 0x0 NOT DUP3 ADD SWAP2 DUP3 GT PUSH2 0x2321 JUMPI DUP2 SWAP4 PUSH1 0xA SWAP3 PUSH1 0x30 SWAP1 DUP5 DUP5 MOD DUP3 ADD DUP1 SWAP3 GT PUSH2 0x2321 JUMPI DUP6 MLOAD GT ISZERO PUSH2 0x216A JUMPI PUSH1 0xF8 SHL PUSH1 0x1 PUSH1 0x1 PUSH1 0xF8 SHL SUB NOT AND PUSH1 0x0 BYTE SWAP1 DUP5 ADD PUSH1 0x1F ADD MSTORE8 DIV SWAP2 PUSH2 0x2375 JUMP JUMPDEST POP POP SWAP1 POP SWAP1 JUMP JUMPDEST SWAP1 PUSH2 0x23D6 PUSH1 0xA SWAP2 PUSH2 0x2312 JUMP JUMPDEST SWAP2 DIV DUP1 PUSH2 0x2342 JUMP JUMPDEST POP PUSH1 0x40 MLOAD PUSH2 0x23EB DUP2 PUSH2 0x1FF5 JUMP JUMPDEST PUSH1 0x1 DUP2 MSTORE PUSH1 0x3 PUSH1 0xFC SHL PUSH1 0x20 DUP3 ADD MSTORE SWAP1 JUMP JUMPDEST SWAP2 SWAP1 SWAP2 PUSH1 0x1 DUP1 PUSH1 0xA0 SHL SUB AND PUSH1 0x0 SWAP3 DUP2 DUP5 MSTORE PUSH1 0x20 SWAP1 PUSH1 0x2 DUP3 MSTORE PUSH1 0x40 SWAP2 DUP3 DUP7 KECCAK256 SWAP2 PUSH2 0x2425 DUP4 SLOAD PUSH2 0x2312 JUMP JUMPDEST DUP4 SSTORE NUMBER PUSH1 0x3 DUP5 ADD SSTORE PUSH1 0x5 DUP4 ADD PUSH1 0x1 PUSH1 0xFF NOT DUP3 SLOAD AND OR SWAP1 SSTORE DUP1 MLOAD PUSH32 0xB6D2DC83590271A7C0A5AB5FBF6A2DAD418BBFD533C253E3D69A6772712809C7 DUP4 DUP4 ADD SWAP2 DUP3 KECCAK256 PUSH8 0x1C1C9BDC1BDCD85B PUSH1 0xC2 SHL DUP6 DUP9 MLOAD PUSH2 0x247D DUP2 PUSH2 0x1FF5 JUMP JUMPDEST PUSH1 0x8 DUP2 MSTORE ADD MSTORE SUB PUSH2 0x24FA JUMPI POP POP PUSH1 0x1 DUP3 ADD PUSH2 0x2498 DUP2 SLOAD PUSH2 0x2312 JUMP JUMPDEST SWAP1 SSTORE PUSH1 0x4 DUP3 ADD DUP1 SLOAD SWAP1 PUSH1 0xA DUP3 ADD DUP1 SWAP3 GT PUSH2 0x24E6 JUMPI PUSH32 0x1DE1B315819996FA3806DE26B2DE57C02F9B5BF13E6F68AF7D759D1BF058A1A2 SWAP6 SWAP7 SWAP8 POP SSTORE JUMPDEST PUSH1 0x4 DUP3 SLOAD SWAP3 ADD SLOAD SWAP1 DUP4 MLOAD SWAP3 DUP4 MSTORE DUP3 ADD MSTORE LOG2 JUMP JUMPDEST PUSH4 0x4E487B71 PUSH1 0xE0 SHL DUP9 MSTORE PUSH1 0x11 PUSH1 0x4 MSTORE PUSH1 0x24 DUP9 REVERT JUMPDEST PUSH32 0x932BDF85FC8AA10AC3C22F02317F8F53D4B4F52235ED1EABB3A4CBBE08B5C41 DUP3 MLOAD DUP3 KECCAK256 PUSH4 0x766F7465 PUSH1 0xE0 SHL DUP6 DUP9 MLOAD PUSH2 0x2533 DUP2 PUSH2 0x1FF5 JUMP JUMPDEST PUSH1 0x4 DUP2 MSTORE ADD MSTORE SUB PUSH2 0x258D JUMPI POP POP PUSH1 0x2 DUP3 ADD PUSH2 0x254E DUP2 SLOAD PUSH2 0x2312 JUMP JUMPDEST SWAP1 SSTORE PUSH1 0x4 DUP3 ADD DUP1 SLOAD SWAP1 PUSH1 0x5 DUP3 ADD DUP1 SWAP3 GT PUSH2 0x24E6 JUMPI PUSH32 0x1DE1B315819996FA3806DE26B2DE57C02F9B5BF13E6F68AF7D759D1BF058A1A2 SWAP6 SWAP7 SWAP8 POP SSTORE PUSH2 0x24D3 JUMP JUMPDEST PUSH32 0xA29CAD97D4110E8822DEDEF32879F84A8E8889BF965FF9C57998689E2FDAFBC4 SWAP2 MLOAD SWAP1 KECCAK256 PUSH3 0x6B7963 PUSH1 0xE8 SHL DUP4 DUP7 MLOAD PUSH2 0x25C5 DUP2 PUSH2 0x1FF5 JUMP JUMPDEST PUSH1 0x3 DUP2 MSTORE ADD MSTORE EQ PUSH2 0x25FB JUMPI JUMPDEST PUSH32 0x1DE1B315819996FA3806DE26B2DE57C02F9B5BF13E6F68AF7D759D1BF058A1A2 SWAP4 SWAP5 SWAP6 POP PUSH2 0x24D3 JUMP JUMPDEST PUSH1 0x4 DUP3 ADD DUP1 SLOAD SWAP1 PUSH1 0x14 DUP3 ADD DUP1 SWAP3 GT PUSH2 0x24E6 JUMPI SSTORE SWAP4 SWAP5 POP DUP5 SWAP4 PUSH2 0x25D1 JUMP INVALID LOG2 PUSH5 0x6970667358 0x22 SLT KECCAK256 NUMBER 0xE1 0xBE MSTORE8 0xAF JUMPI 0xAE 0x1E LOG0 PUSH15 0xAE7B6A5707EDCA42FC2035CAEBA757 0x2C 0x4F KECCAK256 0xE7 0xC4 0xE9 CALL PUSH5 0x736F6C6343 STOP ADDMOD XOR STOP CALLER "},"methodIdentifiers":{"admin()":"f851a440","blockscoutOperator()":"130b5617","contractRegistry(address)":"ed111b06","generateBlockscoutMetadata(bytes32)":"55e78f33","getAnalytics()":"0ccb2ec8","getContractMetadata(address)":"f7b2a8fd","getTransaction(bytes32)":"4aae13ca","getTransactionsByCategory(string)":"6035eb4b","getUserActivity(address)":"e0f3aa11","getUserTransactions(address)":"ef925399","pause()":"8456cb59","registerContract(address,string,string,string,string[])":"70f2a476","registerTransaction(bytes32,address,address,uint256,bytes,string,string)":"d4076630","totalRecords()":"125f8974","transactionRecords(bytes32)":"470b5646","transactionsByCategory(string,uint256)":"e6397652","unpause()":"3f4ba83a","updateBlockscoutOperator(address)":"4e1dc730","updateTransactionMetadata(bytes32,string)":"f898da7d","userActivities(address)":"985cc061","userTransactions(address,uint256)":"b842ec44","verifyContract(address,string)":"d8b4f888"}}}}}