{"contracts/WorldAppIntegration.sol":{"WorldAppIntegration":{"abi":[{"inputs":[{"internalType":"string","name":"_miniAppId","type":"string"}],"stateMutability":"nonpayable","type":"constructor"},{"anonymous":false,"inputs":[{"indexed":false,"internalType":"string","name":"appId","type":"string"}],"name":"MiniAppRegistered","type":"event"},{"anonymous":false,"inputs":[{"indexed":true,"internalType":"address","name":"from","type":"address"},{"indexed":true,"internalType":"address","name":"to","type":"address"},{"indexed":false,"internalType":"uint256","name":"amount","type":"uint256"},{"indexed":false,"internalType":"string","name":"currency","type":"string"}],"name":"PaymentProcessed","type":"event"},{"anonymous":false,"inputs":[{"indexed":true,"internalType":"address","name":"user","type":"address"},{"indexed":false,"internalType":"string","name":"permission","type":"string"}],"name":"PermissionGranted","type":"event"},{"anonymous":false,"inputs":[{"indexed":true,"internalType":"address","name":"user","type":"address"},{"indexed":false,"internalType":"bytes32","name":"nullifierHash","type":"bytes32"},{"indexed":false,"internalType":"string","name":"verificationType","type":"string"}],"name":"WorldIDVerified","type":"event"},{"inputs":[],"name":"admin","outputs":[{"internalType":"address","name":"","type":"address"}],"stateMutability":"view","type":"function"},{"inputs":[],"name":"currentMerkleRoot","outputs":[{"internalType":"uint256","name":"","type":"uint256"}],"stateMutability":"view","type":"function"},{"inputs":[{"internalType":"address","name":"user","type":"address"}],"name":"getUserPayments","outputs":[{"components":[{"internalType":"address","name":"from","type":"address"},{"internalType":"address","name":"to","type":"address"},{"internalType":"uint256","name":"amount","type":"uint256"},{"internalType":"string","name":"currency","type":"string"},{"internalType":"bytes32","name":"transactionId","type":"bytes32"},{"internalType":"uint256","name":"timestamp","type":"uint256"},{"internalType":"bool","name":"completed","type":"bool"}],"internalType":"struct WorldAppIntegration.PaymentRecord[]","name":"","type":"tuple[]"}],"stateMutability":"view","type":"function"},{"inputs":[{"internalType":"address","name":"user","type":"address"}],"name":"getWorldIDUser","outputs":[{"components":[{"internalType":"address","name":"userAddress","type":"address"},{"internalType":"bytes32","name":"nullifierHash","type":"bytes32"},{"internalType":"bool","name":"isVerified","type":"bool"},{"internalType":"uint256","name":"verificationTimestamp","type":"uint256"},{"internalType":"string","name":"verificationType","type":"string"},{"internalType":"uint256","name":"merkleRoot","type":"uint256"}],"internalType":"struct WorldAppIntegration.WorldIDUser","name":"","type":"tuple"}],"stateMutability":"view","type":"function"},{"inputs":[{"internalType":"address","name":"user","type":"address"},{"internalType":"string","name":"permission","type":"string"}],"name":"grantPermission","outputs":[],"stateMutability":"nonpayable","type":"function"},{"inputs":[{"internalType":"address","name":"user","type":"address"},{"internalType":"string","name":"permission","type":"string"}],"name":"hasPermission","outputs":[{"internalType":"bool","name":"","type":"bool"}],"stateMutability":"view","type":"function"},{"inputs":[{"internalType":"address","name":"user","type":"address"}],"name":"isWorldIDVerified","outputs":[{"internalType":"bool","name":"","type":"bool"}],"stateMutability":"view","type":"function"},{"inputs":[],"name":"miniAppId","outputs":[{"internalType":"string","name":"","type":"string"}],"stateMutability":"view","type":"function"},{"inputs":[{"internalType":"address","name":"to","type":"address"},{"internalType":"uint256","name":"amount","type":"uint256"},{"internalType":"string","name":"currency","type":"string"},{"internalType":"bytes32","name":"transactionId","type":"bytes32"}],"name":"processPayment","outputs":[],"stateMutability":"nonpayable","type":"function"},{"inputs":[{"internalType":"string","name":"appId","type":"string"}],"name":"registerMiniApp","outputs":[],"stateMutability":"nonpayable","type":"function"},{"inputs":[{"internalType":"uint256","name":"newRoot","type":"uint256"}],"name":"updateMerkleRoot","outputs":[],"stateMutability":"nonpayable","type":"function"},{"inputs":[{"internalType":"bytes32","name":"","type":"bytes32"}],"name":"usedNullifiers","outputs":[{"internalType":"bool","name":"","type":"bool"}],"stateMutability":"view","type":"function"},{"inputs":[{"internalType":"address","name":"","type":"address"},{"internalType":"uint256","name":"","type":"uint256"}],"name":"userPayments","outputs":[{"internalType":"address","name":"from","type":"address"},{"internalType":"address","name":"to","type":"address"},{"internalType":"uint256","name":"amount","type":"uint256"},{"internalType":"string","name":"currency","type":"string"},{"internalType":"bytes32","name":"transactionId","type":"bytes32"},{"internalType":"uint256","name":"timestamp","type":"uint256"},{"internalType":"bool","name":"completed","type":"bool"}],"stateMutability":"view","type":"function"},{"inputs":[{"internalType":"address","name":"","type":"address"},{"internalType":"uint256","name":"","type":"uint256"}],"name":"userPermissions","outputs":[{"internalType":"string","name":"","type":"string"}],"stateMutability":"view","type":"function"},{"inputs":[{"internalType":"bytes32","name":"nullifierHash","type":"bytes32"},{"internalType":"uint256","name":"merkleRoot","type":"uint256"},{"internalType":"string","name":"verificationType","type":"string"}],"name":"verifyWorldID","outputs":[],"stateMutability":"nonpayable","type":"function"},{"inputs":[{"internalType":"address","name":"","type":"address"}],"name":"worldIdUsers","outputs":[{"internalType":"address","name":"userAddress","type":"address"},{"internalType":"bytes32","name":"nullifierHash","type":"bytes32"},{"internalType":"bool","name":"isVerified","type":"bool"},{"internalType":"uint256","name":"verificationTimestamp","type":"uint256"},{"internalType":"string","name":"verificationType","type":"string"},{"internalType":"uint256","name":"merkleRoot","type":"uint256"}],"stateMutability":"view","type":"function"}],"evm":{"bytecode":{"linkReferences":{},"object":"6080604052346200022957620017b9803803806200001d816200022e565b92833981019060208082840312620002295781516001600160401b039283821162000229570192601f9080828601121562000229578451848111620001fe57601f199562000071828501881686016200022e565b928284528583830101116200022957849060005b8381106200021457505060009183010152600480546001600160a01b031916331790558051938411620001fe57600654926001938481811c91168015620001f3575b82821014620001dd5783811162000191575b5080928511600114620001265750839450908392916000946200011a575b50501b916000199060031b1c1916176006555b6040516115649081620002558239f35b015192503880620000f7565b929484908116600660005284600020946000905b888383106200017657505050106200015c575b505050811b016006556200010a565b015160001960f88460031b161c191690553880806200014d565b8587015188559096019594850194879350908101906200013a565b6006600052816000208480880160051c820192848910620001d3575b0160051c019085905b828110620001c6575050620000d9565b60008155018590620001b6565b92508192620001ad565b634e487b7160e01b600052602260045260246000fd5b90607f1690620000c7565b634e487b7160e01b600052604160045260246000fd5b81810183015185820184015286920162000085565b600080fd5b6040519190601f01601f191682016001600160401b03811183821017620001fe5760405256fe6080604081815260048036101561001557600080fd5b60009260e08435811c91826307d8355b14610dc057508163206137aa14610d935781635627954114610ca9578163698c857714610baf5781636ca5161b14610b815781636fb32091146108ab578163737686981461086957816389b3af29146108435781638cfeab35146107905781639d7dadeb146105ff575080639ea97190146105e0578063b3c33f2f1461055b578063b94df33a146104cb578063bbd9a5fa14610305578063d3100fd9146100ff5763f851a440146100d557600080fd5b346100fb57826003193601126100fb575490516001600160a01b03909116815260209150f35b8280fd5b5090346100fb57602090816003193601126103015767ffffffffffffffff9083358281116102fd576101349036908601610f2a565b94909261014b60018060a01b0383541633146113ca565b85116102ea575061015d600654610f58565b601f8111610288575b5084601f85116001146101e057916101cf916101bc86807ffc61b1d8b3f2db434699e2bd165536e1dc1cddd242dc8f0460c9a9bb626668c99897968a916101d5575b508160011b916000199060031b1c19161790565b6006555b519383859485528401916113a9565b0390a180f35b9050840135386101a8565b600686527ff652222313e28459528d920b65115c16c04f3efc82aaedc97be59f3f377c0d3f90601f198616875b8181106102715750916101cf9391877ffc61b1d8b3f2db434699e2bd165536e1dc1cddd242dc8f0460c9a9bb626668c99897969410610257575b5050600185811b016006556101c0565b830135600019600388901b60f8161c191690553880610247565b91928660018192868901358155019401920161020d565b600686527ff652222313e28459528d920b65115c16c04f3efc82aaedc97be59f3f377c0d3f601f860160051c8101918587106102e0575b601f0160051c01905b8181106102d55750610166565b8681556001016102c8565b90915081906102bf565b634e487b7160e01b865260419052602485fd5b8580fd5b8380fd5b508290346104c757610316366110ef565b9160018060a09593951b03906103308284541633146113ca565b1692838552602091600383528686208054600160401b8110156104b45761035f90600192600182018155611165565b9290926104a25767ffffffffffffffff861161048f575061038a856103848454610f58565b846111c4565b8690601f86116001146104035750966103f292916103e186808a9b7f3e7a939fe856e16ddb4b017165d29dcf6d87c6bc6115a55d7895ec3e7d4c66a19a9b916103f857508160011b916000199060031b1c19161790565b9055519383859485528401916113a9565b0390a280f35b90508501358c6101a8565b90601f1986168389528589209289905b828210610478575050916103f2949391877f3e7a939fe856e16ddb4b017165d29dcf6d87c6bc6115a55d7895ec3e7d4c66a1999a9b941061045e575b5050600186811b0190556101c0565b840135600019600389901b60f8161c19169055898061044f565b868401358555938401939287019290870190610413565b634e487b7160e01b885260419052602487fd5b634e487b7160e01b8852879052602487fd5b634e487b7160e01b885260418352602488fd5b5080fd5b509190346104c75760203660031901126104c7576001600160a01b0391610551908290846104f7610f0f565b1681528060205220928354169260018101549460ff6002830154169360056105256003850154938501611002565b93015494815197889788526020880152151590860152606085015260c0608085015260c08401906110ca565b9060a08301520390f35b5091346105dd57816003193601126105dd57610575610f0f565b6001600160a01b031681526003602052818120805460243591908210156100fb57906105a091611165565b9390936105cb576105c7836105b486611002565b90519182916020835260208301906110ca565b0390f35b634e487b7160e01b8252819052602490fd5b80fd5b5050346104c757816003193601126104c7576020906005549051908152f35b91849150346104c7576020806003193601126100fb5784936001600160a01b0393918461062a610f0f565b168352600291600282528684209485549061064482611420565b946106518a519687610fe0565b82865284860191829888528588209188935b8c86861061071657955050505050505195828701938388525180945287870191888560051b8901019695985b858a1061069c5788880389f35b909192939495968580600192603f198c82030188528a51908782511681528783830151168382015285820151868201526106e36060888185015191840152888301906110ca565b916080808201519083015260a0808201519083015260c0809101511515910152990195019901989291909594939561068f565b8860019282999e996007939d9b9c9d519061073082610f92565b8b89541682528b868a01541684830152868901549082015261075460038901611002565b6060820152868801546080820152600588015460a082015260ff600689015416151560c08201528152019401940193929a959a98979698610663565b84915083346100fb57806003193601126100fb576107ac610f0f565b6001600160a01b039081168452600260205281842080549194602435928310156105dd5750906107db91611133565b5061082d8482541694600183015416956002830154946107fd60038501611002565b918401549560ff6006600587015496015416958051998a998a5260208a01528801528060608801528601906110ca565b92608085015260a0840152151560c08301520390f35b505050346104c75760209061086061085a366110ef565b91611438565b90519015158152f35b505050346104c75760203660031901126104c75760209160ff9060029083906001600160a01b03610898610f0f565b1681528086522001541690519015158152f35b5050346100fb5760603660031901126100fb57803560243567ffffffffffffffff604435818111610b7d576108e39036908601610f2a565b91909284885260019160209683885260ff898b205416610b415760055483148015610b38575b15610aff576060929188918661099c878b8f8f908061094a8f84519d8e61092f81610fc4565b3381528d81019788528681019889520198428a52369161117d565b9960808d019a8b5260a08d019b8c5233825252209860018060a01b039051166bffffffffffffffffffffffff60a01b8a54161789555189890155511515600288019060ff801983541691151516179055565b5160038601558085019251908151928311610aec57506109c6826109c08554610f58565b856111c4565b89908c601f8411600114610a5f57836005947f50e81e8758e76d7d35712c717775d807422640206042a19ca60a48c1ca1369919d9c9b9997946103f29b999794610a259492610a54575b50508160011b916000199060031b1c19161790565b90555b519101558489528086528789209060ff19825416179055868051958695865285015233968401916113a9565b015190503880610a10565b9190601f1984168584528c8420935b818110610ad75750938896936103f29a9896937f50e81e8758e76d7d35712c717775d807422640206042a19ca60a48c1ca1369919e9d9c9a938360059810610abe575b505050811b019055610a28565b015160001960f88460031b161c19169055388080610ab1565b82840151855593890193928d01928d01610a6e565b634e487b7160e01b8d526041905260248cfd5b885162461bcd60e51b81529081018890526013602482015272125b9d985b1a59081b595c9adb19481c9bdbdd606a1b6044820152606490fd5b50821515610909565b885162461bcd60e51b81529081018890526016602482015275139d5b1b1a599a595c88185b1c9958591e481d5cd95960521b6044820152606490fd5b8680fd5b8483346104c75760203660031901126104c757610ba860018060a01b0382541633146113ca565b3560055580f35b919050346103015760209182600319360112610ca557610c9a9184610bd2610f0f565b968060a08351610be181610fc4565b8281528289820152828582015282606082015260606080820152015260018060a01b0380981681528086522090855195610c1a87610fc4565b87835416875260018301549086880191825260ff6002850154169181890192151583526005610c5660038701549560608c019687528701611002565b9560808b0196875201549760a08a0198895282519a8b9a828c525116908a015251908801525115156060870152516080860152519060c060a08601528401906110ca565b905160c08301520390f35b8480fd5b8385346105dd57806003193601126105dd578151918282600654610ccc81610f58565b9081845260209560019187600182169182600014610d6c575050600114610d10575b5050506105c79291610d01910385610fe0565b519282849384528301906110ca565b9190869350600683527ff652222313e28459528d920b65115c16c04f3efc82aaedc97be59f3f377c0d3f5b828410610d545750505082010181610d016105c7610cee565b8054848a018601528895508794909301928101610d3b565b60ff19168782015293151560051b86019093019350849250610d0191506105c79050610cee565b5050346100fb5760203660031901126100fb578160209360ff923581526001855220541690519015158152f35b859085853461030157608036600319011261030157610ddd610f0f565b926024359060443567ffffffffffffffff8111610b7d57610e019036908501610f2a565b909133885260209488865260ff6002888b2001541615610ecf5750507fb5e51a9058e00792fede50f44125bb8bc3f068a8f877644c8a3b3d02c74f56e0939291610ec991610eb4875198610e548a610f92565b338a526001600160a01b0316868a01819052888a0186905298610e7836848661117d565b606082015260643560808201524260a0820152600160c0820152338b5260028752610ea5818a8d2061121a565b898b5260028752888b2061121a565b868051958695865285015233968401916113a9565b0390a380f35b62461bcd60e51b82528101859052601e60248201527f55736572206d75737420626520576f726c6420494420766572696669656400006044820152606490fd5b600435906001600160a01b0382168203610f2557565b600080fd5b9181601f84011215610f255782359167ffffffffffffffff8311610f255760208381860195010111610f2557565b90600182811c92168015610f88575b6020831014610f7257565b634e487b7160e01b600052602260045260246000fd5b91607f1691610f67565b60e0810190811067ffffffffffffffff821117610fae57604052565b634e487b7160e01b600052604160045260246000fd5b60c0810190811067ffffffffffffffff821117610fae57604052565b90601f8019910116810190811067ffffffffffffffff821117610fae57604052565b9060405191826000825461101581610f58565b908184526020946001916001811690816000146110855750600114611046575b50505061104492500383610fe0565b565b600090815285812095935091905b81831061106d5750506110449350820101388080611035565b85548884018501529485019487945091830191611054565b9250505061104494925060ff191682840152151560051b820101388080611035565b60005b8381106110ba5750506000910152565b81810151838201526020016110aa565b906020916110e3815180928185528580860191016110a7565b601f01601f1916010190565b906040600319830112610f25576004356001600160a01b0381168103610f2557916024359067ffffffffffffffff8211610f255761112f91600401610f2a565b9091565b805482101561114f576000526007602060002091020190600090565b634e487b7160e01b600052603260045260246000fd5b805482101561114f5760005260206000200190600090565b92919267ffffffffffffffff8211610fae57604051916111a7601f8201601f191660200184610fe0565b829481845281830111610f25578281602093846000960137010152565b90601f81116111d257505050565b6000916000526020600020906020601f850160051c83019410611210575b601f0160051c01915b82811061120557505050565b8181556001016111f9565b90925082906111f0565b908154600160401b811015610fae5761123b90600193600182018155611133565b9290926113935760018060a01b0390818351166bffffffffffffffffffffffff60a01b9081865416178555600185019060209360208601511690825416179055604083015160028501556003840191606084015180519267ffffffffffffffff8411610fae576112b5846112af8754610f58565b876111c4565b602092601f8511600114611320575050926112f28360c094611044989794600697600092610a545750508160011b916000199060031b1c19161790565b90555b6080810151600485015560a081015160058501550151151591019060ff801983541691151516179055565b600086815260208120949392601f19871692905b83831061137c5750505093611044979693600696936001938360c09810611363575b505050811b0190556112f5565b015160001960f88460031b161c19169055388080611356565b848601518755958601959481019491810191611334565b634e487b7160e01b600052600060045260246000fd5b908060209392818452848401376000828201840152601f01601f1916010190565b156113d157565b60405162461bcd60e51b815260206004820152602160248201527f4f6e6c792061646d696e2063616e2063616c6c20746869732066756e6374696f6044820152603760f91b6064820152608490fd5b67ffffffffffffffff8111610fae5760051b60200190565b9060009160018060a01b03168252602091600383526040926040822094855461146081611420565b9661146e6040519889610fe0565b8188528452828420849084808a015b848410611510575050505050825b865181101561150657828160051b8801015186516114c58582816114b881830196878151938492016110a7565b8101038084520182610fe0565b519020865184810190848883376114ea86828781018a83820152038084520182610fe0565b519020146114fa5760010161148b565b50505050505050600190565b5050509250505090565b600191829161151e85611002565b815201920192019190859061147d56fea26469706673582212201ea56cfc959c9044de05a44219df5c26d2590894d97fabba4609709640da82c364736f6c63430008180033","opcodes":"PUSH1 0x80 PUSH1 0x40 MSTORE CALLVALUE PUSH3 0x229 JUMPI PUSH3 0x17B9 DUP1 CODESIZE SUB DUP1 PUSH3 0x1D DUP2 PUSH3 0x22E JUMP JUMPDEST SWAP3 DUP4 CODECOPY DUP2 ADD SWAP1 PUSH1 0x20 DUP1 DUP3 DUP5 SUB SLT PUSH3 0x229 JUMPI DUP2 MLOAD PUSH1 0x1 PUSH1 0x1 PUSH1 0x40 SHL SUB SWAP3 DUP4 DUP3 GT PUSH3 0x229 JUMPI ADD SWAP3 PUSH1 0x1F SWAP1 DUP1 DUP3 DUP7 ADD SLT ISZERO PUSH3 0x229 JUMPI DUP5 MLOAD DUP5 DUP2 GT PUSH3 0x1FE JUMPI PUSH1 0x1F NOT SWAP6 PUSH3 0x71 DUP3 DUP6 ADD DUP9 AND DUP7 ADD PUSH3 0x22E JUMP JUMPDEST SWAP3 DUP3 DUP5 MSTORE DUP6 DUP4 DUP4 ADD ADD GT PUSH3 0x229 JUMPI DUP5 SWAP1 PUSH1 0x0 JUMPDEST DUP4 DUP2 LT PUSH3 0x214 JUMPI POP POP PUSH1 0x0 SWAP2 DUP4 ADD ADD MSTORE PUSH1 0x4 DUP1 SLOAD PUSH1 0x1 PUSH1 0x1 PUSH1 0xA0 SHL SUB NOT AND CALLER OR SWAP1 SSTORE DUP1 MLOAD SWAP4 DUP5 GT PUSH3 0x1FE JUMPI PUSH1 0x6 SLOAD SWAP3 PUSH1 0x1 SWAP4 DUP5 DUP2 DUP2 SHR SWAP2 AND DUP1 ISZERO PUSH3 0x1F3 JUMPI JUMPDEST DUP3 DUP3 LT EQ PUSH3 0x1DD JUMPI DUP4 DUP2 GT PUSH3 0x191 JUMPI JUMPDEST POP DUP1 SWAP3 DUP6 GT PUSH1 0x1 EQ PUSH3 0x126 JUMPI POP DUP4 SWAP5 POP SWAP1 DUP4 SWAP3 SWAP2 PUSH1 0x0 SWAP5 PUSH3 0x11A JUMPI JUMPDEST POP POP SHL SWAP2 PUSH1 0x0 NOT SWAP1 PUSH1 0x3 SHL SHR NOT AND OR PUSH1 0x6 SSTORE JUMPDEST PUSH1 0x40 MLOAD PUSH2 0x1564 SWAP1 DUP2 PUSH3 0x255 DUP3 CODECOPY RETURN JUMPDEST ADD MLOAD SWAP3 POP CODESIZE DUP1 PUSH3 0xF7 JUMP JUMPDEST SWAP3 SWAP5 DUP5 SWAP1 DUP2 AND PUSH1 0x6 PUSH1 0x0 MSTORE DUP5 PUSH1 0x0 KECCAK256 SWAP5 PUSH1 0x0 SWAP1 JUMPDEST DUP9 DUP4 DUP4 LT PUSH3 0x176 JUMPI POP POP POP LT PUSH3 0x15C JUMPI JUMPDEST POP POP POP DUP2 SHL ADD PUSH1 0x6 SSTORE PUSH3 0x10A JUMP JUMPDEST ADD MLOAD PUSH1 0x0 NOT PUSH1 0xF8 DUP5 PUSH1 0x3 SHL AND SHR NOT AND SWAP1 SSTORE CODESIZE DUP1 DUP1 PUSH3 0x14D JUMP JUMPDEST DUP6 DUP8 ADD MLOAD DUP9 SSTORE SWAP1 SWAP7 ADD SWAP6 SWAP5 DUP6 ADD SWAP5 DUP8 SWAP4 POP SWAP1 DUP2 ADD SWAP1 PUSH3 0x13A JUMP JUMPDEST PUSH1 0x6 PUSH1 0x0 MSTORE DUP2 PUSH1 0x0 KECCAK256 DUP5 DUP1 DUP9 ADD PUSH1 0x5 SHR DUP3 ADD SWAP3 DUP5 DUP10 LT PUSH3 0x1D3 JUMPI JUMPDEST ADD PUSH1 0x5 SHR ADD SWAP1 DUP6 SWAP1 JUMPDEST DUP3 DUP2 LT PUSH3 0x1C6 JUMPI POP POP PUSH3 0xD9 JUMP JUMPDEST PUSH1 0x0 DUP2 SSTORE ADD DUP6 SWAP1 PUSH3 0x1B6 JUMP JUMPDEST SWAP3 POP DUP2 SWAP3 PUSH3 0x1AD JUMP JUMPDEST PUSH4 0x4E487B71 PUSH1 0xE0 SHL PUSH1 0x0 MSTORE PUSH1 0x22 PUSH1 0x4 MSTORE PUSH1 0x24 PUSH1 0x0 REVERT JUMPDEST SWAP1 PUSH1 0x7F AND SWAP1 PUSH3 0xC7 JUMP JUMPDEST PUSH4 0x4E487B71 PUSH1 0xE0 SHL PUSH1 0x0 MSTORE PUSH1 0x41 PUSH1 0x4 MSTORE PUSH1 0x24 PUSH1 0x0 REVERT JUMPDEST DUP2 DUP2 ADD DUP4 ADD MLOAD DUP6 DUP3 ADD DUP5 ADD MSTORE DUP7 SWAP3 ADD PUSH3 0x85 JUMP JUMPDEST PUSH1 0x0 DUP1 REVERT JUMPDEST PUSH1 0x40 MLOAD SWAP2 SWAP1 PUSH1 0x1F ADD PUSH1 0x1F NOT AND DUP3 ADD PUSH1 0x1 PUSH1 0x1 PUSH1 0x40 SHL SUB DUP2 GT DUP4 DUP3 LT OR PUSH3 0x1FE JUMPI PUSH1 0x40 MSTORE JUMP INVALID PUSH1 0x80 PUSH1 0x40 DUP2 DUP2 MSTORE PUSH1 0x4 DUP1 CALLDATASIZE LT ISZERO PUSH2 0x15 JUMPI PUSH1 0x0 DUP1 REVERT JUMPDEST PUSH1 0x0 SWAP3 PUSH1 0xE0 DUP5 CALLDATALOAD DUP2 SHR SWAP2 DUP3 PUSH4 0x7D8355B EQ PUSH2 0xDC0 JUMPI POP DUP2 PUSH4 0x206137AA EQ PUSH2 0xD93 JUMPI DUP2 PUSH4 0x56279541 EQ PUSH2 0xCA9 JUMPI DUP2 PUSH4 0x698C8577 EQ PUSH2 0xBAF JUMPI DUP2 PUSH4 0x6CA5161B EQ PUSH2 0xB81 JUMPI DUP2 PUSH4 0x6FB32091 EQ PUSH2 0x8AB JUMPI DUP2 PUSH4 0x73768698 EQ PUSH2 0x869 JUMPI DUP2 PUSH4 0x89B3AF29 EQ PUSH2 0x843 JUMPI DUP2 PUSH4 0x8CFEAB35 EQ PUSH2 0x790 JUMPI DUP2 PUSH4 0x9D7DADEB EQ PUSH2 0x5FF JUMPI POP DUP1 PUSH4 0x9EA97190 EQ PUSH2 0x5E0 JUMPI DUP1 PUSH4 0xB3C33F2F EQ PUSH2 0x55B JUMPI DUP1 PUSH4 0xB94DF33A EQ PUSH2 0x4CB JUMPI DUP1 PUSH4 0xBBD9A5FA EQ PUSH2 0x305 JUMPI DUP1 PUSH4 0xD3100FD9 EQ PUSH2 0xFF JUMPI PUSH4 0xF851A440 EQ PUSH2 0xD5 JUMPI PUSH1 0x0 DUP1 REVERT JUMPDEST CALLVALUE PUSH2 0xFB JUMPI DUP3 PUSH1 0x3 NOT CALLDATASIZE ADD SLT PUSH2 0xFB JUMPI SLOAD SWAP1 MLOAD PUSH1 0x1 PUSH1 0x1 PUSH1 0xA0 SHL SUB SWAP1 SWAP2 AND DUP2 MSTORE PUSH1 0x20 SWAP2 POP RETURN JUMPDEST DUP3 DUP1 REVERT JUMPDEST POP SWAP1 CALLVALUE PUSH2 0xFB JUMPI PUSH1 0x20 SWAP1 DUP2 PUSH1 0x3 NOT CALLDATASIZE ADD SLT PUSH2 0x301 JUMPI PUSH8 0xFFFFFFFFFFFFFFFF SWAP1 DUP4 CALLDATALOAD DUP3 DUP2 GT PUSH2 0x2FD JUMPI PUSH2 0x134 SWAP1 CALLDATASIZE SWAP1 DUP7 ADD PUSH2 0xF2A JUMP JUMPDEST SWAP5 SWAP1 SWAP3 PUSH2 0x14B PUSH1 0x1 DUP1 PUSH1 0xA0 SHL SUB DUP4 SLOAD AND CALLER EQ PUSH2 0x13CA JUMP JUMPDEST DUP6 GT PUSH2 0x2EA JUMPI POP PUSH2 0x15D PUSH1 0x6 SLOAD PUSH2 0xF58 JUMP JUMPDEST PUSH1 0x1F DUP2 GT PUSH2 0x288 JUMPI JUMPDEST POP DUP5 PUSH1 0x1F DUP6 GT PUSH1 0x1 EQ PUSH2 0x1E0 JUMPI SWAP2 PUSH2 0x1CF SWAP2 PUSH2 0x1BC DUP7 DUP1 PUSH32 0xFC61B1D8B3F2DB434699E2BD165536E1DC1CDDD242DC8F0460C9A9BB626668C9 SWAP9 SWAP8 SWAP7 DUP11 SWAP2 PUSH2 0x1D5 JUMPI JUMPDEST POP DUP2 PUSH1 0x1 SHL SWAP2 PUSH1 0x0 NOT SWAP1 PUSH1 0x3 SHL SHR NOT AND OR SWAP1 JUMP JUMPDEST PUSH1 0x6 SSTORE JUMPDEST MLOAD SWAP4 DUP4 DUP6 SWAP5 DUP6 MSTORE DUP5 ADD SWAP2 PUSH2 0x13A9 JUMP JUMPDEST SUB SWAP1 LOG1 DUP1 RETURN JUMPDEST SWAP1 POP DUP5 ADD CALLDATALOAD CODESIZE PUSH2 0x1A8 JUMP JUMPDEST PUSH1 0x6 DUP7 MSTORE PUSH32 0xF652222313E28459528D920B65115C16C04F3EFC82AAEDC97BE59F3F377C0D3F SWAP1 PUSH1 0x1F NOT DUP7 AND DUP8 JUMPDEST DUP2 DUP2 LT PUSH2 0x271 JUMPI POP SWAP2 PUSH2 0x1CF SWAP4 SWAP2 DUP8 PUSH32 0xFC61B1D8B3F2DB434699E2BD165536E1DC1CDDD242DC8F0460C9A9BB626668C9 SWAP9 SWAP8 SWAP7 SWAP5 LT PUSH2 0x257 JUMPI JUMPDEST POP POP PUSH1 0x1 DUP6 DUP2 SHL ADD PUSH1 0x6 SSTORE PUSH2 0x1C0 JUMP JUMPDEST DUP4 ADD CALLDATALOAD PUSH1 0x0 NOT PUSH1 0x3 DUP9 SWAP1 SHL PUSH1 0xF8 AND SHR NOT AND SWAP1 SSTORE CODESIZE DUP1 PUSH2 0x247 JUMP JUMPDEST SWAP2 SWAP3 DUP7 PUSH1 0x1 DUP2 SWAP3 DUP7 DUP10 ADD CALLDATALOAD DUP2 SSTORE ADD SWAP5 ADD SWAP3 ADD PUSH2 0x20D JUMP JUMPDEST PUSH1 0x6 DUP7 MSTORE PUSH32 0xF652222313E28459528D920B65115C16C04F3EFC82AAEDC97BE59F3F377C0D3F PUSH1 0x1F DUP7 ADD PUSH1 0x5 SHR DUP2 ADD SWAP2 DUP6 DUP8 LT PUSH2 0x2E0 JUMPI JUMPDEST PUSH1 0x1F ADD PUSH1 0x5 SHR ADD SWAP1 JUMPDEST DUP2 DUP2 LT PUSH2 0x2D5 JUMPI POP PUSH2 0x166 JUMP JUMPDEST DUP7 DUP2 SSTORE PUSH1 0x1 ADD PUSH2 0x2C8 JUMP JUMPDEST SWAP1 SWAP2 POP DUP2 SWAP1 PUSH2 0x2BF JUMP JUMPDEST PUSH4 0x4E487B71 PUSH1 0xE0 SHL DUP7 MSTORE PUSH1 0x41 SWAP1 MSTORE PUSH1 0x24 DUP6 REVERT JUMPDEST DUP6 DUP1 REVERT JUMPDEST DUP4 DUP1 REVERT JUMPDEST POP DUP3 SWAP1 CALLVALUE PUSH2 0x4C7 JUMPI PUSH2 0x316 CALLDATASIZE PUSH2 0x10EF JUMP JUMPDEST SWAP2 PUSH1 0x1 DUP1 PUSH1 0xA0 SWAP6 SWAP4 SWAP6 SHL SUB SWAP1 PUSH2 0x330 DUP3 DUP5 SLOAD AND CALLER EQ PUSH2 0x13CA JUMP JUMPDEST AND SWAP3 DUP4 DUP6 MSTORE PUSH1 0x20 SWAP2 PUSH1 0x3 DUP4 MSTORE DUP7 DUP7 KECCAK256 DUP1 SLOAD PUSH1 0x1 PUSH1 0x40 SHL DUP2 LT ISZERO PUSH2 0x4B4 JUMPI PUSH2 0x35F SWAP1 PUSH1 0x1 SWAP3 PUSH1 0x1 DUP3 ADD DUP2 SSTORE PUSH2 0x1165 JUMP JUMPDEST SWAP3 SWAP1 SWAP3 PUSH2 0x4A2 JUMPI PUSH8 0xFFFFFFFFFFFFFFFF DUP7 GT PUSH2 0x48F JUMPI POP PUSH2 0x38A DUP6 PUSH2 0x384 DUP5 SLOAD PUSH2 0xF58 JUMP JUMPDEST DUP5 PUSH2 0x11C4 JUMP JUMPDEST DUP7 SWAP1 PUSH1 0x1F DUP7 GT PUSH1 0x1 EQ PUSH2 0x403 JUMPI POP SWAP7 PUSH2 0x3F2 SWAP3 SWAP2 PUSH2 0x3E1 DUP7 DUP1 DUP11 SWAP12 PUSH32 0x3E7A939FE856E16DDB4B017165D29DCF6D87C6BC6115A55D7895EC3E7D4C66A1 SWAP11 SWAP12 SWAP2 PUSH2 0x3F8 JUMPI POP DUP2 PUSH1 0x1 SHL SWAP2 PUSH1 0x0 NOT SWAP1 PUSH1 0x3 SHL SHR NOT AND OR SWAP1 JUMP JUMPDEST SWAP1 SSTORE MLOAD SWAP4 DUP4 DUP6 SWAP5 DUP6 MSTORE DUP5 ADD SWAP2 PUSH2 0x13A9 JUMP JUMPDEST SUB SWAP1 LOG2 DUP1 RETURN JUMPDEST SWAP1 POP DUP6 ADD CALLDATALOAD DUP13 PUSH2 0x1A8 JUMP JUMPDEST SWAP1 PUSH1 0x1F NOT DUP7 AND DUP4 DUP10 MSTORE DUP6 DUP10 KECCAK256 SWAP3 DUP10 SWAP1 JUMPDEST DUP3 DUP3 LT PUSH2 0x478 JUMPI POP POP SWAP2 PUSH2 0x3F2 SWAP5 SWAP4 SWAP2 DUP8 PUSH32 0x3E7A939FE856E16DDB4B017165D29DCF6D87C6BC6115A55D7895EC3E7D4C66A1 SWAP10 SWAP11 SWAP12 SWAP5 LT PUSH2 0x45E JUMPI JUMPDEST POP POP PUSH1 0x1 DUP7 DUP2 SHL ADD SWAP1 SSTORE PUSH2 0x1C0 JUMP JUMPDEST DUP5 ADD CALLDATALOAD PUSH1 0x0 NOT PUSH1 0x3 DUP10 SWAP1 SHL PUSH1 0xF8 AND SHR NOT AND SWAP1 SSTORE DUP10 DUP1 PUSH2 0x44F JUMP JUMPDEST DUP7 DUP5 ADD CALLDATALOAD DUP6 SSTORE SWAP4 DUP5 ADD SWAP4 SWAP3 DUP8 ADD SWAP3 SWAP1 DUP8 ADD SWAP1 PUSH2 0x413 JUMP JUMPDEST PUSH4 0x4E487B71 PUSH1 0xE0 SHL DUP9 MSTORE PUSH1 0x41 SWAP1 MSTORE PUSH1 0x24 DUP8 REVERT JUMPDEST PUSH4 0x4E487B71 PUSH1 0xE0 SHL DUP9 MSTORE DUP8 SWAP1 MSTORE PUSH1 0x24 DUP8 REVERT JUMPDEST PUSH4 0x4E487B71 PUSH1 0xE0 SHL DUP9 MSTORE PUSH1 0x41 DUP4 MSTORE PUSH1 0x24 DUP9 REVERT JUMPDEST POP DUP1 REVERT JUMPDEST POP SWAP2 SWAP1 CALLVALUE PUSH2 0x4C7 JUMPI PUSH1 0x20 CALLDATASIZE PUSH1 0x3 NOT ADD SLT PUSH2 0x4C7 JUMPI PUSH1 0x1 PUSH1 0x1 PUSH1 0xA0 SHL SUB SWAP2 PUSH2 0x551 SWAP1 DUP3 SWAP1 DUP5 PUSH2 0x4F7 PUSH2 0xF0F JUMP JUMPDEST AND DUP2 MSTORE DUP1 PUSH1 0x20 MSTORE KECCAK256 SWAP3 DUP4 SLOAD AND SWAP3 PUSH1 0x1 DUP2 ADD SLOAD SWAP5 PUSH1 0xFF PUSH1 0x2 DUP4 ADD SLOAD AND SWAP4 PUSH1 0x5 PUSH2 0x525 PUSH1 0x3 DUP6 ADD SLOAD SWAP4 DUP6 ADD PUSH2 0x1002 JUMP JUMPDEST SWAP4 ADD SLOAD SWAP5 DUP2 MLOAD SWAP8 DUP9 SWAP8 DUP9 MSTORE PUSH1 0x20 DUP9 ADD MSTORE ISZERO ISZERO SWAP1 DUP7 ADD MSTORE PUSH1 0x60 DUP6 ADD MSTORE PUSH1 0xC0 PUSH1 0x80 DUP6 ADD MSTORE PUSH1 0xC0 DUP5 ADD SWAP1 PUSH2 0x10CA JUMP JUMPDEST SWAP1 PUSH1 0xA0 DUP4 ADD MSTORE SUB SWAP1 RETURN JUMPDEST POP SWAP2 CALLVALUE PUSH2 0x5DD JUMPI DUP2 PUSH1 0x3 NOT CALLDATASIZE ADD SLT PUSH2 0x5DD JUMPI PUSH2 0x575 PUSH2 0xF0F JUMP JUMPDEST PUSH1 0x1 PUSH1 0x1 PUSH1 0xA0 SHL SUB AND DUP2 MSTORE PUSH1 0x3 PUSH1 0x20 MSTORE DUP2 DUP2 KECCAK256 DUP1 SLOAD PUSH1 0x24 CALLDATALOAD SWAP2 SWAP1 DUP3 LT ISZERO PUSH2 0xFB JUMPI SWAP1 PUSH2 0x5A0 SWAP2 PUSH2 0x1165 JUMP JUMPDEST SWAP4 SWAP1 SWAP4 PUSH2 0x5CB JUMPI PUSH2 0x5C7 DUP4 PUSH2 0x5B4 DUP7 PUSH2 0x1002 JUMP JUMPDEST SWAP1 MLOAD SWAP2 DUP3 SWAP2 PUSH1 0x20 DUP4 MSTORE PUSH1 0x20 DUP4 ADD SWAP1 PUSH2 0x10CA JUMP JUMPDEST SUB SWAP1 RETURN JUMPDEST PUSH4 0x4E487B71 PUSH1 0xE0 SHL DUP3 MSTORE DUP2 SWAP1 MSTORE PUSH1 0x24 SWAP1 REVERT JUMPDEST DUP1 REVERT JUMPDEST POP POP CALLVALUE PUSH2 0x4C7 JUMPI DUP2 PUSH1 0x3 NOT CALLDATASIZE ADD SLT PUSH2 0x4C7 JUMPI PUSH1 0x20 SWAP1 PUSH1 0x5 SLOAD SWAP1 MLOAD SWAP1 DUP2 MSTORE RETURN JUMPDEST SWAP2 DUP5 SWAP2 POP CALLVALUE PUSH2 0x4C7 JUMPI PUSH1 0x20 DUP1 PUSH1 0x3 NOT CALLDATASIZE ADD SLT PUSH2 0xFB JUMPI DUP5 SWAP4 PUSH1 0x1 PUSH1 0x1 PUSH1 0xA0 SHL SUB SWAP4 SWAP2 DUP5 PUSH2 0x62A PUSH2 0xF0F JUMP JUMPDEST AND DUP4 MSTORE PUSH1 0x2 SWAP2 PUSH1 0x2 DUP3 MSTORE DUP7 DUP5 KECCAK256 SWAP5 DUP6 SLOAD SWAP1 PUSH2 0x644 DUP3 PUSH2 0x1420 JUMP JUMPDEST SWAP5 PUSH2 0x651 DUP11 MLOAD SWAP7 DUP8 PUSH2 0xFE0 JUMP JUMPDEST DUP3 DUP7 MSTORE DUP5 DUP7 ADD SWAP2 DUP3 SWAP9 DUP9 MSTORE DUP6 DUP9 KECCAK256 SWAP2 DUP9 SWAP4 JUMPDEST DUP13 DUP7 DUP7 LT PUSH2 0x716 JUMPI SWAP6 POP POP POP POP POP POP MLOAD SWAP6 DUP3 DUP8 ADD SWAP4 DUP4 DUP9 MSTORE MLOAD DUP1 SWAP5 MSTORE DUP8 DUP8 ADD SWAP2 DUP9 DUP6 PUSH1 0x5 SHL DUP10 ADD ADD SWAP7 SWAP6 SWAP9 JUMPDEST DUP6 DUP11 LT PUSH2 0x69C JUMPI DUP9 DUP9 SUB DUP10 RETURN JUMPDEST SWAP1 SWAP2 SWAP3 SWAP4 SWAP5 SWAP6 SWAP7 DUP6 DUP1 PUSH1 0x1 SWAP3 PUSH1 0x3F NOT DUP13 DUP3 SUB ADD DUP9 MSTORE DUP11 MLOAD SWAP1 DUP8 DUP3 MLOAD AND DUP2 MSTORE DUP8 DUP4 DUP4 ADD MLOAD AND DUP4 DUP3 ADD MSTORE DUP6 DUP3 ADD MLOAD DUP7 DUP3 ADD MSTORE PUSH2 0x6E3 PUSH1 0x60 DUP9 DUP2 DUP6 ADD MLOAD SWAP2 DUP5 ADD MSTORE DUP9 DUP4 ADD SWAP1 PUSH2 0x10CA JUMP JUMPDEST SWAP2 PUSH1 0x80 DUP1 DUP3 ADD MLOAD SWAP1 DUP4 ADD MSTORE PUSH1 0xA0 DUP1 DUP3 ADD MLOAD SWAP1 DUP4 ADD MSTORE PUSH1 0xC0 DUP1 SWAP2 ADD MLOAD ISZERO ISZERO SWAP2 ADD MSTORE SWAP10 ADD SWAP6 ADD SWAP10 ADD SWAP9 SWAP3 SWAP2 SWAP1 SWAP6 SWAP5 SWAP4 SWAP6 PUSH2 0x68F JUMP JUMPDEST DUP9 PUSH1 0x1 SWAP3 DUP3 SWAP10 SWAP15 SWAP10 PUSH1 0x7 SWAP4 SWAP14 SWAP12 SWAP13 SWAP14 MLOAD SWAP1 PUSH2 0x730 DUP3 PUSH2 0xF92 JUMP JUMPDEST DUP12 DUP10 SLOAD AND DUP3 MSTORE DUP12 DUP7 DUP11 ADD SLOAD AND DUP5 DUP4 ADD MSTORE DUP7 DUP10 ADD SLOAD SWAP1 DUP3 ADD MSTORE PUSH2 0x754 PUSH1 0x3 DUP10 ADD PUSH2 0x1002 JUMP JUMPDEST PUSH1 0x60 DUP3 ADD MSTORE DUP7 DUP9 ADD SLOAD PUSH1 0x80 DUP3 ADD MSTORE PUSH1 0x5 DUP9 ADD SLOAD PUSH1 0xA0 DUP3 ADD MSTORE PUSH1 0xFF PUSH1 0x6 DUP10 ADD SLOAD AND ISZERO ISZERO PUSH1 0xC0 DUP3 ADD MSTORE DUP2 MSTORE ADD SWAP5 ADD SWAP5 ADD SWAP4 SWAP3 SWAP11 SWAP6 SWAP11 SWAP9 SWAP8 SWAP7 SWAP9 PUSH2 0x663 JUMP JUMPDEST DUP5 SWAP2 POP DUP4 CALLVALUE PUSH2 0xFB JUMPI DUP1 PUSH1 0x3 NOT CALLDATASIZE ADD SLT PUSH2 0xFB JUMPI PUSH2 0x7AC PUSH2 0xF0F JUMP JUMPDEST PUSH1 0x1 PUSH1 0x1 PUSH1 0xA0 SHL SUB SWAP1 DUP2 AND DUP5 MSTORE PUSH1 0x2 PUSH1 0x20 MSTORE DUP2 DUP5 KECCAK256 DUP1 SLOAD SWAP2 SWAP5 PUSH1 0x24 CALLDATALOAD SWAP3 DUP4 LT ISZERO PUSH2 0x5DD JUMPI POP SWAP1 PUSH2 0x7DB SWAP2 PUSH2 0x1133 JUMP JUMPDEST POP PUSH2 0x82D DUP5 DUP3 SLOAD AND SWAP5 PUSH1 0x1 DUP4 ADD SLOAD AND SWAP6 PUSH1 0x2 DUP4 ADD SLOAD SWAP5 PUSH2 0x7FD PUSH1 0x3 DUP6 ADD PUSH2 0x1002 JUMP JUMPDEST SWAP2 DUP5 ADD SLOAD SWAP6 PUSH1 0xFF PUSH1 0x6 PUSH1 0x5 DUP8 ADD SLOAD SWAP7 ADD SLOAD AND SWAP6 DUP1 MLOAD SWAP10 DUP11 SWAP10 DUP11 MSTORE PUSH1 0x20 DUP11 ADD MSTORE DUP9 ADD MSTORE DUP1 PUSH1 0x60 DUP9 ADD MSTORE DUP7 ADD SWAP1 PUSH2 0x10CA JUMP JUMPDEST SWAP3 PUSH1 0x80 DUP6 ADD MSTORE PUSH1 0xA0 DUP5 ADD MSTORE ISZERO ISZERO PUSH1 0xC0 DUP4 ADD MSTORE SUB SWAP1 RETURN JUMPDEST POP POP POP CALLVALUE PUSH2 0x4C7 JUMPI PUSH1 0x20 SWAP1 PUSH2 0x860 PUSH2 0x85A CALLDATASIZE PUSH2 0x10EF JUMP JUMPDEST SWAP2 PUSH2 0x1438 JUMP JUMPDEST SWAP1 MLOAD SWAP1 ISZERO ISZERO DUP2 MSTORE RETURN JUMPDEST POP POP POP CALLVALUE PUSH2 0x4C7 JUMPI PUSH1 0x20 CALLDATASIZE PUSH1 0x3 NOT ADD SLT PUSH2 0x4C7 JUMPI PUSH1 0x20 SWAP2 PUSH1 0xFF SWAP1 PUSH1 0x2 SWAP1 DUP4 SWAP1 PUSH1 0x1 PUSH1 0x1 PUSH1 0xA0 SHL SUB PUSH2 0x898 PUSH2 0xF0F JUMP JUMPDEST AND DUP2 MSTORE DUP1 DUP7 MSTORE KECCAK256 ADD SLOAD AND SWAP1 MLOAD SWAP1 ISZERO ISZERO DUP2 MSTORE RETURN JUMPDEST POP POP CALLVALUE PUSH2 0xFB JUMPI PUSH1 0x60 CALLDATASIZE PUSH1 0x3 NOT ADD SLT PUSH2 0xFB JUMPI DUP1 CALLDATALOAD PUSH1 0x24 CALLDATALOAD PUSH8 0xFFFFFFFFFFFFFFFF PUSH1 0x44 CALLDATALOAD DUP2 DUP2 GT PUSH2 0xB7D JUMPI PUSH2 0x8E3 SWAP1 CALLDATASIZE SWAP1 DUP7 ADD PUSH2 0xF2A JUMP JUMPDEST SWAP2 SWAP1 SWAP3 DUP5 DUP9 MSTORE PUSH1 0x1 SWAP2 PUSH1 0x20 SWAP7 DUP4 DUP9 MSTORE PUSH1 0xFF DUP10 DUP12 KECCAK256 SLOAD AND PUSH2 0xB41 JUMPI PUSH1 0x5 SLOAD DUP4 EQ DUP1 ISZERO PUSH2 0xB38 JUMPI JUMPDEST ISZERO PUSH2 0xAFF JUMPI PUSH1 0x60 SWAP3 SWAP2 DUP9 SWAP2 DUP7 PUSH2 0x99C DUP8 DUP12 DUP16 DUP16 SWAP1 DUP1 PUSH2 0x94A DUP16 DUP5 MLOAD SWAP14 DUP15 PUSH2 0x92F DUP2 PUSH2 0xFC4 JUMP JUMPDEST CALLER DUP2 MSTORE DUP14 DUP2 ADD SWAP8 DUP9 MSTORE DUP7 DUP2 ADD SWAP9 DUP10 MSTORE ADD SWAP9 TIMESTAMP DUP11 MSTORE CALLDATASIZE SWAP2 PUSH2 0x117D JUMP JUMPDEST SWAP10 PUSH1 0x80 DUP14 ADD SWAP11 DUP12 MSTORE PUSH1 0xA0 DUP14 ADD SWAP12 DUP13 MSTORE CALLER DUP3 MSTORE MSTORE KECCAK256 SWAP9 PUSH1 0x1 DUP1 PUSH1 0xA0 SHL SUB SWAP1 MLOAD AND PUSH12 0xFFFFFFFFFFFFFFFFFFFFFFFF PUSH1 0xA0 SHL DUP11 SLOAD AND OR DUP10 SSTORE MLOAD DUP10 DUP10 ADD SSTORE MLOAD ISZERO ISZERO PUSH1 0x2 DUP9 ADD SWAP1 PUSH1 0xFF DUP1 NOT DUP4 SLOAD AND SWAP2 ISZERO ISZERO AND OR SWAP1 SSTORE JUMP JUMPDEST MLOAD PUSH1 0x3 DUP7 ADD SSTORE DUP1 DUP6 ADD SWAP3 MLOAD SWAP1 DUP2 MLOAD SWAP3 DUP4 GT PUSH2 0xAEC JUMPI POP PUSH2 0x9C6 DUP3 PUSH2 0x9C0 DUP6 SLOAD PUSH2 0xF58 JUMP JUMPDEST DUP6 PUSH2 0x11C4 JUMP JUMPDEST DUP10 SWAP1 DUP13 PUSH1 0x1F DUP5 GT PUSH1 0x1 EQ PUSH2 0xA5F JUMPI DUP4 PUSH1 0x5 SWAP5 PUSH32 0x50E81E8758E76D7D35712C717775D807422640206042A19CA60A48C1CA136991 SWAP14 SWAP13 SWAP12 SWAP10 SWAP8 SWAP5 PUSH2 0x3F2 SWAP12 SWAP10 SWAP8 SWAP5 PUSH2 0xA25 SWAP5 SWAP3 PUSH2 0xA54 JUMPI JUMPDEST POP POP DUP2 PUSH1 0x1 SHL SWAP2 PUSH1 0x0 NOT SWAP1 PUSH1 0x3 SHL SHR NOT AND OR SWAP1 JUMP JUMPDEST SWAP1 SSTORE JUMPDEST MLOAD SWAP2 ADD SSTORE DUP5 DUP10 MSTORE DUP1 DUP7 MSTORE DUP8 DUP10 KECCAK256 SWAP1 PUSH1 0xFF NOT DUP3 SLOAD AND OR SWAP1 SSTORE DUP7 DUP1 MLOAD SWAP6 DUP7 SWAP6 DUP7 MSTORE DUP6 ADD MSTORE CALLER SWAP7 DUP5 ADD SWAP2 PUSH2 0x13A9 JUMP JUMPDEST ADD MLOAD SWAP1 POP CODESIZE DUP1 PUSH2 0xA10 JUMP JUMPDEST SWAP2 SWAP1 PUSH1 0x1F NOT DUP5 AND DUP6 DUP5 MSTORE DUP13 DUP5 KECCAK256 SWAP4 JUMPDEST DUP2 DUP2 LT PUSH2 0xAD7 JUMPI POP SWAP4 DUP9 SWAP7 SWAP4 PUSH2 0x3F2 SWAP11 SWAP9 SWAP7 SWAP4 PUSH32 0x50E81E8758E76D7D35712C717775D807422640206042A19CA60A48C1CA136991 SWAP15 SWAP14 SWAP13 SWAP11 SWAP4 DUP4 PUSH1 0x5 SWAP9 LT PUSH2 0xABE JUMPI JUMPDEST POP POP POP DUP2 SHL ADD SWAP1 SSTORE PUSH2 0xA28 JUMP JUMPDEST ADD MLOAD PUSH1 0x0 NOT PUSH1 0xF8 DUP5 PUSH1 0x3 SHL AND SHR NOT AND SWAP1 SSTORE CODESIZE DUP1 DUP1 PUSH2 0xAB1 JUMP JUMPDEST DUP3 DUP5 ADD MLOAD DUP6 SSTORE SWAP4 DUP10 ADD SWAP4 SWAP3 DUP14 ADD SWAP3 DUP14 ADD PUSH2 0xA6E JUMP JUMPDEST PUSH4 0x4E487B71 PUSH1 0xE0 SHL DUP14 MSTORE PUSH1 0x41 SWAP1 MSTORE PUSH1 0x24 DUP13 REVERT JUMPDEST DUP9 MLOAD PUSH3 0x461BCD PUSH1 0xE5 SHL DUP2 MSTORE SWAP1 DUP2 ADD DUP9 SWAP1 MSTORE PUSH1 0x13 PUSH1 0x24 DUP3 ADD MSTORE PUSH19 0x125B9D985B1A59081B595C9ADB19481C9BDBDD PUSH1 0x6A SHL PUSH1 0x44 DUP3 ADD MSTORE PUSH1 0x64 SWAP1 REVERT JUMPDEST POP DUP3 ISZERO ISZERO PUSH2 0x909 JUMP JUMPDEST DUP9 MLOAD PUSH3 0x461BCD PUSH1 0xE5 SHL DUP2 MSTORE SWAP1 DUP2 ADD DUP9 SWAP1 MSTORE PUSH1 0x16 PUSH1 0x24 DUP3 ADD MSTORE PUSH22 0x139D5B1B1A599A595C88185B1C9958591E481D5CD959 PUSH1 0x52 SHL PUSH1 0x44 DUP3 ADD MSTORE PUSH1 0x64 SWAP1 REVERT JUMPDEST DUP7 DUP1 REVERT JUMPDEST DUP5 DUP4 CALLVALUE PUSH2 0x4C7 JUMPI PUSH1 0x20 CALLDATASIZE PUSH1 0x3 NOT ADD SLT PUSH2 0x4C7 JUMPI PUSH2 0xBA8 PUSH1 0x1 DUP1 PUSH1 0xA0 SHL SUB DUP3 SLOAD AND CALLER EQ PUSH2 0x13CA JUMP JUMPDEST CALLDATALOAD PUSH1 0x5 SSTORE DUP1 RETURN JUMPDEST SWAP2 SWAP1 POP CALLVALUE PUSH2 0x301 JUMPI PUSH1 0x20 SWAP2 DUP3 PUSH1 0x3 NOT CALLDATASIZE ADD SLT PUSH2 0xCA5 JUMPI PUSH2 0xC9A SWAP2 DUP5 PUSH2 0xBD2 PUSH2 0xF0F JUMP JUMPDEST SWAP7 DUP1 PUSH1 0xA0 DUP4 MLOAD PUSH2 0xBE1 DUP2 PUSH2 0xFC4 JUMP JUMPDEST DUP3 DUP2 MSTORE DUP3 DUP10 DUP3 ADD MSTORE DUP3 DUP6 DUP3 ADD MSTORE DUP3 PUSH1 0x60 DUP3 ADD MSTORE PUSH1 0x60 PUSH1 0x80 DUP3 ADD MSTORE ADD MSTORE PUSH1 0x1 DUP1 PUSH1 0xA0 SHL SUB DUP1 SWAP9 AND DUP2 MSTORE DUP1 DUP7 MSTORE KECCAK256 SWAP1 DUP6 MLOAD SWAP6 PUSH2 0xC1A DUP8 PUSH2 0xFC4 JUMP JUMPDEST DUP8 DUP4 SLOAD AND DUP8 MSTORE PUSH1 0x1 DUP4 ADD SLOAD SWAP1 DUP7 DUP9 ADD SWAP2 DUP3 MSTORE PUSH1 0xFF PUSH1 0x2 DUP6 ADD SLOAD AND SWAP2 DUP2 DUP10 ADD SWAP3 ISZERO ISZERO DUP4 MSTORE PUSH1 0x5 PUSH2 0xC56 PUSH1 0x3 DUP8 ADD SLOAD SWAP6 PUSH1 0x60 DUP13 ADD SWAP7 DUP8 MSTORE DUP8 ADD PUSH2 0x1002 JUMP JUMPDEST SWAP6 PUSH1 0x80 DUP12 ADD SWAP7 DUP8 MSTORE ADD SLOAD SWAP8 PUSH1 0xA0 DUP11 ADD SWAP9 DUP10 MSTORE DUP3 MLOAD SWAP11 DUP12 SWAP11 DUP3 DUP13 MSTORE MLOAD AND SWAP1 DUP11 ADD MSTORE MLOAD SWAP1 DUP9 ADD MSTORE MLOAD ISZERO ISZERO PUSH1 0x60 DUP8 ADD MSTORE MLOAD PUSH1 0x80 DUP7 ADD MSTORE MLOAD SWAP1 PUSH1 0xC0 PUSH1 0xA0 DUP7 ADD MSTORE DUP5 ADD SWAP1 PUSH2 0x10CA JUMP JUMPDEST SWAP1 MLOAD PUSH1 0xC0 DUP4 ADD MSTORE SUB SWAP1 RETURN JUMPDEST DUP5 DUP1 REVERT JUMPDEST DUP4 DUP6 CALLVALUE PUSH2 0x5DD JUMPI DUP1 PUSH1 0x3 NOT CALLDATASIZE ADD SLT PUSH2 0x5DD JUMPI DUP2 MLOAD SWAP2 DUP3 DUP3 PUSH1 0x6 SLOAD PUSH2 0xCCC DUP2 PUSH2 0xF58 JUMP JUMPDEST SWAP1 DUP2 DUP5 MSTORE PUSH1 0x20 SWAP6 PUSH1 0x1 SWAP2 DUP8 PUSH1 0x1 DUP3 AND SWAP2 DUP3 PUSH1 0x0 EQ PUSH2 0xD6C JUMPI POP POP PUSH1 0x1 EQ PUSH2 0xD10 JUMPI JUMPDEST POP POP POP PUSH2 0x5C7 SWAP3 SWAP2 PUSH2 0xD01 SWAP2 SUB DUP6 PUSH2 0xFE0 JUMP JUMPDEST MLOAD SWAP3 DUP3 DUP5 SWAP4 DUP5 MSTORE DUP4 ADD SWAP1 PUSH2 0x10CA JUMP JUMPDEST SWAP2 SWAP1 DUP7 SWAP4 POP PUSH1 0x6 DUP4 MSTORE PUSH32 0xF652222313E28459528D920B65115C16C04F3EFC82AAEDC97BE59F3F377C0D3F JUMPDEST DUP3 DUP5 LT PUSH2 0xD54 JUMPI POP POP POP DUP3 ADD ADD DUP2 PUSH2 0xD01 PUSH2 0x5C7 PUSH2 0xCEE JUMP JUMPDEST DUP1 SLOAD DUP5 DUP11 ADD DUP7 ADD MSTORE DUP9 SWAP6 POP DUP8 SWAP5 SWAP1 SWAP4 ADD SWAP3 DUP2 ADD PUSH2 0xD3B JUMP JUMPDEST PUSH1 0xFF NOT AND DUP8 DUP3 ADD MSTORE SWAP4 ISZERO ISZERO PUSH1 0x5 SHL DUP7 ADD SWAP1 SWAP4 ADD SWAP4 POP DUP5 SWAP3 POP PUSH2 0xD01 SWAP2 POP PUSH2 0x5C7 SWAP1 POP PUSH2 0xCEE JUMP JUMPDEST POP POP CALLVALUE PUSH2 0xFB JUMPI PUSH1 0x20 CALLDATASIZE PUSH1 0x3 NOT ADD SLT PUSH2 0xFB JUMPI DUP2 PUSH1 0x20 SWAP4 PUSH1 0xFF SWAP3 CALLDATALOAD DUP2 MSTORE PUSH1 0x1 DUP6 MSTORE KECCAK256 SLOAD AND SWAP1 MLOAD SWAP1 ISZERO ISZERO DUP2 MSTORE RETURN JUMPDEST DUP6 SWAP1 DUP6 DUP6 CALLVALUE PUSH2 0x301 JUMPI PUSH1 0x80 CALLDATASIZE PUSH1 0x3 NOT ADD SLT PUSH2 0x301 JUMPI PUSH2 0xDDD PUSH2 0xF0F JUMP JUMPDEST SWAP3 PUSH1 0x24 CALLDATALOAD SWAP1 PUSH1 0x44 CALLDATALOAD PUSH8 0xFFFFFFFFFFFFFFFF DUP2 GT PUSH2 0xB7D JUMPI PUSH2 0xE01 SWAP1 CALLDATASIZE SWAP1 DUP6 ADD PUSH2 0xF2A JUMP JUMPDEST SWAP1 SWAP2 CALLER DUP9 MSTORE PUSH1 0x20 SWAP5 DUP9 DUP7 MSTORE PUSH1 0xFF PUSH1 0x2 DUP9 DUP12 KECCAK256 ADD SLOAD AND ISZERO PUSH2 0xECF JUMPI POP POP PUSH32 0xB5E51A9058E00792FEDE50F44125BB8BC3F068A8F877644C8A3B3D02C74F56E0 SWAP4 SWAP3 SWAP2 PUSH2 0xEC9 SWAP2 PUSH2 0xEB4 DUP8 MLOAD SWAP9 PUSH2 0xE54 DUP11 PUSH2 0xF92 JUMP JUMPDEST CALLER DUP11 MSTORE PUSH1 0x1 PUSH1 0x1 PUSH1 0xA0 SHL SUB AND DUP7 DUP11 ADD DUP2 SWAP1 MSTORE DUP9 DUP11 ADD DUP7 SWAP1 MSTORE SWAP9 PUSH2 0xE78 CALLDATASIZE DUP5 DUP7 PUSH2 0x117D JUMP JUMPDEST PUSH1 0x60 DUP3 ADD MSTORE PUSH1 0x64 CALLDATALOAD PUSH1 0x80 DUP3 ADD MSTORE TIMESTAMP PUSH1 0xA0 DUP3 ADD MSTORE PUSH1 0x1 PUSH1 0xC0 DUP3 ADD MSTORE CALLER DUP12 MSTORE PUSH1 0x2 DUP8 MSTORE PUSH2 0xEA5 DUP2 DUP11 DUP14 KECCAK256 PUSH2 0x121A JUMP JUMPDEST DUP10 DUP12 MSTORE PUSH1 0x2 DUP8 MSTORE DUP9 DUP12 KECCAK256 PUSH2 0x121A JUMP JUMPDEST DUP7 DUP1 MLOAD SWAP6 DUP7 SWAP6 DUP7 MSTORE DUP6 ADD MSTORE CALLER SWAP7 DUP5 ADD SWAP2 PUSH2 0x13A9 JUMP JUMPDEST SUB SWAP1 LOG3 DUP1 RETURN JUMPDEST PUSH3 0x461BCD PUSH1 0xE5 SHL DUP3 MSTORE DUP2 ADD DUP6 SWAP1 MSTORE PUSH1 0x1E PUSH1 0x24 DUP3 ADD MSTORE PUSH32 0x55736572206D75737420626520576F726C642049442076657269666965640000 PUSH1 0x44 DUP3 ADD MSTORE PUSH1 0x64 SWAP1 REVERT JUMPDEST PUSH1 0x4 CALLDATALOAD SWAP1 PUSH1 0x1 PUSH1 0x1 PUSH1 0xA0 SHL SUB DUP3 AND DUP3 SUB PUSH2 0xF25 JUMPI JUMP JUMPDEST PUSH1 0x0 DUP1 REVERT JUMPDEST SWAP2 DUP2 PUSH1 0x1F DUP5 ADD SLT ISZERO PUSH2 0xF25 JUMPI DUP3 CALLDATALOAD SWAP2 PUSH8 0xFFFFFFFFFFFFFFFF DUP4 GT PUSH2 0xF25 JUMPI PUSH1 0x20 DUP4 DUP2 DUP7 ADD SWAP6 ADD ADD GT PUSH2 0xF25 JUMPI JUMP JUMPDEST SWAP1 PUSH1 0x1 DUP3 DUP2 SHR SWAP3 AND DUP1 ISZERO PUSH2 0xF88 JUMPI JUMPDEST PUSH1 0x20 DUP4 LT EQ PUSH2 0xF72 JUMPI JUMP JUMPDEST PUSH4 0x4E487B71 PUSH1 0xE0 SHL PUSH1 0x0 MSTORE PUSH1 0x22 PUSH1 0x4 MSTORE PUSH1 0x24 PUSH1 0x0 REVERT JUMPDEST SWAP2 PUSH1 0x7F AND SWAP2 PUSH2 0xF67 JUMP JUMPDEST PUSH1 0xE0 DUP2 ADD SWAP1 DUP2 LT PUSH8 0xFFFFFFFFFFFFFFFF DUP3 GT OR PUSH2 0xFAE JUMPI PUSH1 0x40 MSTORE JUMP JUMPDEST PUSH4 0x4E487B71 PUSH1 0xE0 SHL PUSH1 0x0 MSTORE PUSH1 0x41 PUSH1 0x4 MSTORE PUSH1 0x24 PUSH1 0x0 REVERT JUMPDEST PUSH1 0xC0 DUP2 ADD SWAP1 DUP2 LT PUSH8 0xFFFFFFFFFFFFFFFF DUP3 GT OR PUSH2 0xFAE JUMPI PUSH1 0x40 MSTORE JUMP JUMPDEST SWAP1 PUSH1 0x1F DUP1 NOT SWAP2 ADD AND DUP2 ADD SWAP1 DUP2 LT PUSH8 0xFFFFFFFFFFFFFFFF DUP3 GT OR PUSH2 0xFAE JUMPI PUSH1 0x40 MSTORE JUMP JUMPDEST SWAP1 PUSH1 0x40 MLOAD SWAP2 DUP3 PUSH1 0x0 DUP3 SLOAD PUSH2 0x1015 DUP2 PUSH2 0xF58 JUMP JUMPDEST SWAP1 DUP2 DUP5 MSTORE PUSH1 0x20 SWAP5 PUSH1 0x1 SWAP2 PUSH1 0x1 DUP2 AND SWAP1 DUP2 PUSH1 0x0 EQ PUSH2 0x1085 JUMPI POP PUSH1 0x1 EQ PUSH2 0x1046 JUMPI JUMPDEST POP POP POP PUSH2 0x1044 SWAP3 POP SUB DUP4 PUSH2 0xFE0 JUMP JUMPDEST JUMP JUMPDEST PUSH1 0x0 SWAP1 DUP2 MSTORE DUP6 DUP2 KECCAK256 SWAP6 SWAP4 POP SWAP2 SWAP1 JUMPDEST DUP2 DUP4 LT PUSH2 0x106D JUMPI POP POP PUSH2 0x1044 SWAP4 POP DUP3 ADD ADD CODESIZE DUP1 DUP1 PUSH2 0x1035 JUMP JUMPDEST DUP6 SLOAD DUP9 DUP5 ADD DUP6 ADD MSTORE SWAP5 DUP6 ADD SWAP5 DUP8 SWAP5 POP SWAP2 DUP4 ADD SWAP2 PUSH2 0x1054 JUMP JUMPDEST SWAP3 POP POP POP PUSH2 0x1044 SWAP5 SWAP3 POP PUSH1 0xFF NOT AND DUP3 DUP5 ADD MSTORE ISZERO ISZERO PUSH1 0x5 SHL DUP3 ADD ADD CODESIZE DUP1 DUP1 PUSH2 0x1035 JUMP JUMPDEST PUSH1 0x0 JUMPDEST DUP4 DUP2 LT PUSH2 0x10BA JUMPI POP POP PUSH1 0x0 SWAP2 ADD MSTORE JUMP JUMPDEST DUP2 DUP2 ADD MLOAD DUP4 DUP3 ADD MSTORE PUSH1 0x20 ADD PUSH2 0x10AA JUMP JUMPDEST SWAP1 PUSH1 0x20 SWAP2 PUSH2 0x10E3 DUP2 MLOAD DUP1 SWAP3 DUP2 DUP6 MSTORE DUP6 DUP1 DUP7 ADD SWAP2 ADD PUSH2 0x10A7 JUMP JUMPDEST PUSH1 0x1F ADD PUSH1 0x1F NOT AND ADD ADD SWAP1 JUMP JUMPDEST SWAP1 PUSH1 0x40 PUSH1 0x3 NOT DUP4 ADD SLT PUSH2 0xF25 JUMPI PUSH1 0x4 CALLDATALOAD PUSH1 0x1 PUSH1 0x1 PUSH1 0xA0 SHL SUB DUP2 AND DUP2 SUB PUSH2 0xF25 JUMPI SWAP2 PUSH1 0x24 CALLDATALOAD SWAP1 PUSH8 0xFFFFFFFFFFFFFFFF DUP3 GT PUSH2 0xF25 JUMPI PUSH2 0x112F SWAP2 PUSH1 0x4 ADD PUSH2 0xF2A JUMP JUMPDEST SWAP1 SWAP2 JUMP JUMPDEST DUP1 SLOAD DUP3 LT ISZERO PUSH2 0x114F JUMPI PUSH1 0x0 MSTORE PUSH1 0x7 PUSH1 0x20 PUSH1 0x0 KECCAK256 SWAP2 MUL ADD SWAP1 PUSH1 0x0 SWAP1 JUMP JUMPDEST PUSH4 0x4E487B71 PUSH1 0xE0 SHL PUSH1 0x0 MSTORE PUSH1 0x32 PUSH1 0x4 MSTORE PUSH1 0x24 PUSH1 0x0 REVERT JUMPDEST DUP1 SLOAD DUP3 LT ISZERO PUSH2 0x114F JUMPI PUSH1 0x0 MSTORE PUSH1 0x20 PUSH1 0x0 KECCAK256 ADD SWAP1 PUSH1 0x0 SWAP1 JUMP JUMPDEST SWAP3 SWAP2 SWAP3 PUSH8 0xFFFFFFFFFFFFFFFF DUP3 GT PUSH2 0xFAE JUMPI PUSH1 0x40 MLOAD SWAP2 PUSH2 0x11A7 PUSH1 0x1F DUP3 ADD PUSH1 0x1F NOT AND PUSH1 0x20 ADD DUP5 PUSH2 0xFE0 JUMP JUMPDEST DUP3 SWAP5 DUP2 DUP5 MSTORE DUP2 DUP4 ADD GT PUSH2 0xF25 JUMPI DUP3 DUP2 PUSH1 0x20 SWAP4 DUP5 PUSH1 0x0 SWAP7 ADD CALLDATACOPY ADD ADD MSTORE JUMP JUMPDEST SWAP1 PUSH1 0x1F DUP2 GT PUSH2 0x11D2 JUMPI POP POP POP JUMP JUMPDEST PUSH1 0x0 SWAP2 PUSH1 0x0 MSTORE PUSH1 0x20 PUSH1 0x0 KECCAK256 SWAP1 PUSH1 0x20 PUSH1 0x1F DUP6 ADD PUSH1 0x5 SHR DUP4 ADD SWAP5 LT PUSH2 0x1210 JUMPI JUMPDEST PUSH1 0x1F ADD PUSH1 0x5 SHR ADD SWAP2 JUMPDEST DUP3 DUP2 LT PUSH2 0x1205 JUMPI POP POP POP JUMP JUMPDEST DUP2 DUP2 SSTORE PUSH1 0x1 ADD PUSH2 0x11F9 JUMP JUMPDEST SWAP1 SWAP3 POP DUP3 SWAP1 PUSH2 0x11F0 JUMP JUMPDEST SWAP1 DUP2 SLOAD PUSH1 0x1 PUSH1 0x40 SHL DUP2 LT ISZERO PUSH2 0xFAE JUMPI PUSH2 0x123B SWAP1 PUSH1 0x1 SWAP4 PUSH1 0x1 DUP3 ADD DUP2 SSTORE PUSH2 0x1133 JUMP JUMPDEST SWAP3 SWAP1 SWAP3 PUSH2 0x1393 JUMPI PUSH1 0x1 DUP1 PUSH1 0xA0 SHL SUB SWAP1 DUP2 DUP4 MLOAD AND PUSH12 0xFFFFFFFFFFFFFFFFFFFFFFFF PUSH1 0xA0 SHL SWAP1 DUP2 DUP7 SLOAD AND OR DUP6 SSTORE PUSH1 0x1 DUP6 ADD SWAP1 PUSH1 0x20 SWAP4 PUSH1 0x20 DUP7 ADD MLOAD AND SWAP1 DUP3 SLOAD AND OR SWAP1 SSTORE PUSH1 0x40 DUP4 ADD MLOAD PUSH1 0x2 DUP6 ADD SSTORE PUSH1 0x3 DUP5 ADD SWAP2 PUSH1 0x60 DUP5 ADD MLOAD DUP1 MLOAD SWAP3 PUSH8 0xFFFFFFFFFFFFFFFF DUP5 GT PUSH2 0xFAE JUMPI PUSH2 0x12B5 DUP5 PUSH2 0x12AF DUP8 SLOAD PUSH2 0xF58 JUMP JUMPDEST DUP8 PUSH2 0x11C4 JUMP JUMPDEST PUSH1 0x20 SWAP3 PUSH1 0x1F DUP6 GT PUSH1 0x1 EQ PUSH2 0x1320 JUMPI POP POP SWAP3 PUSH2 0x12F2 DUP4 PUSH1 0xC0 SWAP5 PUSH2 0x1044 SWAP9 SWAP8 SWAP5 PUSH1 0x6 SWAP8 PUSH1 0x0 SWAP3 PUSH2 0xA54 JUMPI POP POP DUP2 PUSH1 0x1 SHL SWAP2 PUSH1 0x0 NOT SWAP1 PUSH1 0x3 SHL SHR NOT AND OR SWAP1 JUMP JUMPDEST SWAP1 SSTORE JUMPDEST PUSH1 0x80 DUP2 ADD MLOAD PUSH1 0x4 DUP6 ADD SSTORE PUSH1 0xA0 DUP2 ADD MLOAD PUSH1 0x5 DUP6 ADD SSTORE ADD MLOAD ISZERO ISZERO SWAP2 ADD SWAP1 PUSH1 0xFF DUP1 NOT DUP4 SLOAD AND SWAP2 ISZERO ISZERO AND OR SWAP1 SSTORE JUMP JUMPDEST PUSH1 0x0 DUP7 DUP2 MSTORE PUSH1 0x20 DUP2 KECCAK256 SWAP5 SWAP4 SWAP3 PUSH1 0x1F NOT DUP8 AND SWAP3 SWAP1 JUMPDEST DUP4 DUP4 LT PUSH2 0x137C JUMPI POP POP POP SWAP4 PUSH2 0x1044 SWAP8 SWAP7 SWAP4 PUSH1 0x6 SWAP7 SWAP4 PUSH1 0x1 SWAP4 DUP4 PUSH1 0xC0 SWAP9 LT PUSH2 0x1363 JUMPI JUMPDEST POP POP POP DUP2 SHL ADD SWAP1 SSTORE PUSH2 0x12F5 JUMP JUMPDEST ADD MLOAD PUSH1 0x0 NOT PUSH1 0xF8 DUP5 PUSH1 0x3 SHL AND SHR NOT AND SWAP1 SSTORE CODESIZE DUP1 DUP1 PUSH2 0x1356 JUMP JUMPDEST DUP5 DUP7 ADD MLOAD DUP8 SSTORE SWAP6 DUP7 ADD SWAP6 SWAP5 DUP2 ADD SWAP5 SWAP2 DUP2 ADD SWAP2 PUSH2 0x1334 JUMP JUMPDEST PUSH4 0x4E487B71 PUSH1 0xE0 SHL PUSH1 0x0 MSTORE PUSH1 0x0 PUSH1 0x4 MSTORE PUSH1 0x24 PUSH1 0x0 REVERT JUMPDEST SWAP1 DUP1 PUSH1 0x20 SWAP4 SWAP3 DUP2 DUP5 MSTORE DUP5 DUP5 ADD CALLDATACOPY PUSH1 0x0 DUP3 DUP3 ADD DUP5 ADD MSTORE PUSH1 0x1F ADD PUSH1 0x1F NOT AND ADD ADD SWAP1 JUMP JUMPDEST ISZERO PUSH2 0x13D1 JUMPI JUMP JUMPDEST PUSH1 0x40 MLOAD PUSH3 0x461BCD PUSH1 0xE5 SHL DUP2 MSTORE PUSH1 0x20 PUSH1 0x4 DUP3 ADD MSTORE PUSH1 0x21 PUSH1 0x24 DUP3 ADD MSTORE PUSH32 0x4F6E6C792061646D696E2063616E2063616C6C20746869732066756E6374696F PUSH1 0x44 DUP3 ADD MSTORE PUSH1 0x37 PUSH1 0xF9 SHL PUSH1 0x64 DUP3 ADD MSTORE PUSH1 0x84 SWAP1 REVERT JUMPDEST PUSH8 0xFFFFFFFFFFFFFFFF DUP2 GT PUSH2 0xFAE JUMPI PUSH1 0x5 SHL PUSH1 0x20 ADD SWAP1 JUMP JUMPDEST SWAP1 PUSH1 0x0 SWAP2 PUSH1 0x1 DUP1 PUSH1 0xA0 SHL SUB AND DUP3 MSTORE PUSH1 0x20 SWAP2 PUSH1 0x3 DUP4 MSTORE PUSH1 0x40 SWAP3 PUSH1 0x40 DUP3 KECCAK256 SWAP5 DUP6 SLOAD PUSH2 0x1460 DUP2 PUSH2 0x1420 JUMP JUMPDEST SWAP7 PUSH2 0x146E PUSH1 0x40 MLOAD SWAP9 DUP10 PUSH2 0xFE0 JUMP JUMPDEST DUP2 DUP9 MSTORE DUP5 MSTORE DUP3 DUP5 KECCAK256 DUP5 SWAP1 DUP5 DUP1 DUP11 ADD JUMPDEST DUP5 DUP5 LT PUSH2 0x1510 JUMPI POP POP POP POP POP DUP3 JUMPDEST DUP7 MLOAD DUP2 LT ISZERO PUSH2 0x1506 JUMPI DUP3 DUP2 PUSH1 0x5 SHL DUP9 ADD ADD MLOAD DUP7 MLOAD PUSH2 0x14C5 DUP6 DUP3 DUP2 PUSH2 0x14B8 DUP2 DUP4 ADD SWAP7 DUP8 DUP2 MLOAD SWAP4 DUP5 SWAP3 ADD PUSH2 0x10A7 JUMP JUMPDEST DUP2 ADD SUB DUP1 DUP5 MSTORE ADD DUP3 PUSH2 0xFE0 JUMP JUMPDEST MLOAD SWAP1 KECCAK256 DUP7 MLOAD DUP5 DUP2 ADD SWAP1 DUP5 DUP9 DUP4 CALLDATACOPY PUSH2 0x14EA DUP7 DUP3 DUP8 DUP2 ADD DUP11 DUP4 DUP3 ADD MSTORE SUB DUP1 DUP5 MSTORE ADD DUP3 PUSH2 0xFE0 JUMP JUMPDEST MLOAD SWAP1 KECCAK256 EQ PUSH2 0x14FA JUMPI PUSH1 0x1 ADD PUSH2 0x148B JUMP JUMPDEST POP POP POP POP POP POP POP PUSH1 0x1 SWAP1 JUMP JUMPDEST POP POP POP SWAP3 POP POP POP SWAP1 JUMP JUMPDEST PUSH1 0x1 SWAP2 DUP3 SWAP2 PUSH2 0x151E DUP6 PUSH2 0x1002 JUMP JUMPDEST DUP2 MSTORE ADD SWAP3 ADD SWAP3 ADD SWAP2 SWAP1 DUP6 SWAP1 PUSH2 0x147D JUMP INVALID LOG2 PUSH5 0x6970667358 0x22 SLT KECCAK256 0x1E 0xA5 PUSH13 0xFC959C9044DE05A44219DF5C26 0xD2 MSIZE ADDMOD SWAP5 0xD9 PUSH32 0xABBA4609709640DA82C364736F6C634300081800330000000000000000000000 "},"methodIdentifiers":{"admin()":"f851a440","currentMerkleRoot()":"9ea97190","getUserPayments(address)":"9d7dadeb","getWorldIDUser(address)":"698c8577","grantPermission(address,string)":"bbd9a5fa","hasPermission(address,string)":"89b3af29","isWorldIDVerified(address)":"73768698","miniAppId()":"56279541","processPayment(address,uint256,string,bytes32)":"07d8355b","registerMiniApp(string)":"d3100fd9","updateMerkleRoot(uint256)":"6ca5161b","usedNullifiers(bytes32)":"206137aa","userPayments(address,uint256)":"8cfeab35","userPermissions(address,uint256)":"b3c33f2f","verifyWorldID(bytes32,uint256,string)":"6fb32091","worldIdUsers(address)":"b94df33a"}}}}}