{"contracts/BlockscoutIntegration.sol":{"BlockscoutIntegration":{"abi":[{"inputs":[{"internalType":"string","name":"_apiEndpoint","type":"string"}],"stateMutability":"nonpayable","type":"constructor"},{"anonymous":false,"inputs":[{"indexed":false,"internalType":"string","name":"newEndpoint","type":"string"}],"name":"BlockscoutApiUpdated","type":"event"},{"anonymous":false,"inputs":[{"indexed":true,"internalType":"address","name":"contractAddr","type":"address"},{"indexed":false,"internalType":"string","name":"name","type":"string"},{"indexed":false,"internalType":"string","name":"version","type":"string"}],"name":"ContractVerified","type":"event"},{"anonymous":false,"inputs":[{"indexed":true,"internalType":"address","name":"user","type":"address"},{"indexed":false,"internalType":"uint256","name":"amount","type":"uint256"},{"indexed":false,"internalType":"string","name":"reason","type":"string"}],"name":"MeritsAwarded","type":"event"},{"anonymous":false,"inputs":[{"indexed":true,"internalType":"address","name":"user","type":"address"},{"indexed":true,"internalType":"bytes32","name":"txHash","type":"bytes32"},{"indexed":false,"internalType":"string","name":"actionType","type":"string"}],"name":"TransactionTracked","type":"event"},{"inputs":[],"name":"admin","outputs":[{"internalType":"address","name":"","type":"address"}],"stateMutability":"view","type":"function"},{"inputs":[],"name":"blockscoutApiEndpoint","outputs":[{"internalType":"string","name":"","type":"string"}],"stateMutability":"view","type":"function"},{"inputs":[{"internalType":"address","name":"","type":"address"}],"name":"contractRegistry","outputs":[{"internalType":"address","name":"contractAddress","type":"address"},{"internalType":"string","name":"name","type":"string"},{"internalType":"string","name":"version","type":"string"},{"internalType":"bool","name":"isVerified","type":"bool"},{"internalType":"uint256","name":"verificationTimestamp","type":"uint256"},{"internalType":"string","name":"sourceCodeHash","type":"string"}],"stateMutability":"view","type":"function"},{"inputs":[{"internalType":"address","name":"contractAddr","type":"address"}],"name":"getContractInfo","outputs":[{"components":[{"internalType":"address","name":"contractAddress","type":"address"},{"internalType":"string","name":"name","type":"string"},{"internalType":"string","name":"version","type":"string"},{"internalType":"bool","name":"isVerified","type":"bool"},{"internalType":"uint256","name":"verificationTimestamp","type":"uint256"},{"internalType":"string","name":"sourceCodeHash","type":"string"}],"internalType":"struct BlockscoutIntegration.ContractMetadata","name":"","type":"tuple"}],"stateMutability":"view","type":"function"},{"inputs":[{"internalType":"address","name":"user","type":"address"}],"name":"getUserMerits","outputs":[{"internalType":"uint256","name":"","type":"uint256"}],"stateMutability":"view","type":"function"},{"inputs":[{"internalType":"address","name":"user","type":"address"}],"name":"getUserTransactions","outputs":[{"components":[{"internalType":"address","name":"user","type":"address"},{"internalType":"bytes32","name":"txHash","type":"bytes32"},{"internalType":"uint256","name":"timestamp","type":"uint256"},{"internalType":"string","name":"actionType","type":"string"},{"internalType":"uint256","name":"blockNumber","type":"uint256"},{"internalType":"bool","name":"verified","type":"bool"}],"internalType":"struct BlockscoutIntegration.TransactionRecord[]","name":"","type":"tuple[]"}],"stateMutability":"view","type":"function"},{"inputs":[{"internalType":"address","name":"contractAddr","type":"address"},{"internalType":"string","name":"name","type":"string"},{"internalType":"string","name":"version","type":"string"},{"internalType":"string","name":"sourceCodeHash","type":"string"}],"name":"registerVerifiedContract","outputs":[],"stateMutability":"nonpayable","type":"function"},{"inputs":[{"internalType":"address","name":"user","type":"address"},{"internalType":"bytes32","name":"txHash","type":"bytes32"},{"internalType":"string","name":"actionType","type":"string"}],"name":"trackTransaction","outputs":[],"stateMutability":"nonpayable","type":"function"},{"inputs":[{"internalType":"string","name":"newEndpoint","type":"string"}],"name":"updateApiEndpoint","outputs":[],"stateMutability":"nonpayable","type":"function"},{"inputs":[{"internalType":"address","name":"","type":"address"}],"name":"userMerits","outputs":[{"internalType":"uint256","name":"","type":"uint256"}],"stateMutability":"view","type":"function"},{"inputs":[{"internalType":"address","name":"","type":"address"},{"internalType":"uint256","name":"","type":"uint256"}],"name":"userTransactions","outputs":[{"internalType":"address","name":"user","type":"address"},{"internalType":"bytes32","name":"txHash","type":"bytes32"},{"internalType":"uint256","name":"timestamp","type":"uint256"},{"internalType":"string","name":"actionType","type":"string"},{"internalType":"uint256","name":"blockNumber","type":"uint256"},{"internalType":"bool","name":"verified","type":"bool"}],"stateMutability":"view","type":"function"}],"evm":{"bytecode":{"linkReferences":{},"object":"6080604052346200022657620014a6803803806200001d816200022b565b9283398101906020908181840312620002265780516001600160401b039182821162000226570191601f84818501121562000226578351838111620001fb57601f199462000071828401871685016200022b565b968288528483830101116200022657839060005b8381106200021157505060009187010152600380546001600160a01b031916331790558451928311620001fb576004948554926001938481811c91168015620001f0575b82821014620001db5783811162000190575b5080928511600114620001275750839450908392916000946200011b575b50501b916000199060031b1c19161790555b6040516112549081620002528239f35b015192503880620000f9565b9294849081168760005284600020946000905b888383106200017557505050106200015b575b505050811b0190556200010b565b015160001960f88460031b161c191690553880806200014d565b8587015188559096019594850194879350908101906200013a565b87600052816000208480880160051c820192848910620001d1575b0160051c019085905b828110620001c4575050620000db565b60008155018590620001b4565b92508192620001ab565b602288634e487b7160e01b6000525260246000fd5b90607f1690620000c9565b634e487b7160e01b600052604160045260246000fd5b81810183015189820184015285920162000085565b600080fd5b6040519190601f01601f191682016001600160401b03811183821017620001fb5760405256fe608080604052600436101561001357600080fd5b60003560e01c9081630daea04214610c49575080632c06007014610b665780633c2f0657146106c9578063594382e914610703578063709a7046146106c9578063b842ec4414610620578063b8f230f214610435578063cd481e511461030b578063ed111b0614610255578063ef925399146100c65763f851a4401461009857600080fd5b346100c15760003660031901126100c1576003546040516001600160a01b039091168152602090f35b600080fd5b346100c1576020806003193601126100c1576001600160a01b0390816100ea610f3b565b1660005260008152604060002080546001600160401b03811161023f576040519290600561011c82821b840186610fd3565b81855260009384528284208386019491855b8484106101d8575050505050604051928184019082855251809152604084019160408260051b86010193926000965b83881061016a5786860387f35b90919293948380600192603f198a82030186528851906101b160c0878451168352848401518584015260408401516040840152606090808286015192850152830190611099565b916080808201519083015260a080910151151591015297019301970196909392919361015d565b60068660019260409a989a516101ed81610fb8565b8c875416815284870154838201526002870154604082015261021160038801610ff4565b60608201526004870154608082015260ff8688015416151560a082015281520193019301929196949661012e565b634e487b7160e01b600052604160045260246000fd5b346100c15760203660031901126100c1576001600160a01b0380610277610f3b565b16600052600160205260406000209081541661030761029860018401610ff4565b926102a560028201610ff4565b60ff600383015416916102ed6102c2600560048401549301610ff4565b926102df604051988998895260c060208a015260c0890190611099565b908782036040890152611099565b9215156060860152608085015283820360a0850152611099565b0390f35b346100c1576020806003193601126100c157610325610f3b565b9061030760a060405161033781610fb8565b600081526060918183868194015282604082015260008382015260006080820152015260018060a01b03809416600052600183526040600020906040519361037e85610fb8565b85835416855261039060018401610ff4565b928186019384526104166103a660028301610ff4565b6040880190815261040260ff60038501541696868a0197151588526103d9600560048701549660808d0197885201610ff4565b9560a08b019687526040519b8c9b828d525116908b01525160c060408b015260e08a0190611099565b9051601f1995868a840301908a0152611099565b9351151560808701525160a086015251908483030160c0850152611099565b346100c1576020806003193601126100c1576001600160401b03906004358281116100c157610468903690600401610f51565b91909261048060018060a01b036003541633146111c8565b821161023f57610491600454610f7e565b601f81116105bc575b506000601f8311600114610514577f2b617f76cc1264c0e04a0dbb89aa63d70896816b00d6b47708c84307633803e0936104ef848061050494600091610509575b508160011b916000199060031b1c19161790565b6004555b6040519383859485528401916111a7565b0390a1005b9050830135886104db565b601f1983169060046000527f8a35acfbc15ff81a39ae7d344fd709f28e8600b4aa8c65c6b64bfe7fe36bd19b9160005b8181106105a55750917f2b617f76cc1264c0e04a0dbb89aa63d70896816b00d6b47708c84307633803e0959185610504941061058b575b5050600184811b016004556104f3565b820135600019600387901b60f8161c19169055858061057b565b91928460018192868a013581550194019201610544565b60046000527f8a35acfbc15ff81a39ae7d344fd709f28e8600b4aa8c65c6b64bfe7fe36bd19b601f840160051c810191838510610616575b601f0160051c01905b81811061060a575061049a565b600081556001016105fd565b90915081906105f4565b346100c15760403660031901126100c157610639610f3b565b6001600160a01b0390811660009081526020819052604090208054602435908110156100c157610668916110d9565b509081541660018201549160028101546106b861068760038401610ff4565b60ff60056004860154950154169260405196879687526020870152604086015260c0606086015260c0850190611099565b916080840152151560a08301520390f35b346100c15760203660031901126100c1576001600160a01b036106ea610f3b565b1660005260026020526020604060002054604051908152f35b346100c15760803660031901126100c15761071c610f3b565b6024356001600160401b0381116100c15761073b903690600401610f51565b91906044356001600160401b0381116100c15761075c903690600401610f51565b9390926064356001600160401b0381116100c15761077e903690600401610f51565b61079660018060a09994991b036003541633146111c8565b6107e9604051976107a689610fb8565b6001600160a01b03851689526107bd36878961110b565b9260208a019384526107d036868b61110b565b60408b0152600160608b01524260808b0152369161110b565b60a08801526001600160a01b038381166000908152600160205260409020885181546001600160a01b031916921691909117815590518051906001600160401b03821161023f5761084a826108416001860154610f7e565b60018601611151565b602090601f8311600114610af45761087b929160009183610ae9575b50508160011b916000199060031b1c19161790565b60018201555b60408701518051906001600160401b03821161023f576108b1826108a86002860154610f7e565b60028601611151565b602090601f8311600114610a74578260059360a095936108e793600092610a695750508160011b916000199060031b1c19161790565b60028201555b61090c60608a01511515600383019060ff801983541691151516179055565b60808901516004820155019601519586516001600160401b03811161023f5761093f816109398454610f7e565b84611151565b6020601f82116001146109da57816109ca95949392610997927f9886278bb59c8848a4eefd096eea7469f3fdc0106ee5873f9c82dfd0035c65249a9b6000926109cf5750508160011b916000199060031b1c19161790565b90555b6109b16040519586956040875260408701916111a7565b84810360208601526001600160a01b03909216966111a7565b0390a2005b015190508b80610866565b601f198216988360005260206000209960005b818110610a5157509960019284926109ca989796957f9886278bb59c8848a4eefd096eea7469f3fdc0106ee5873f9c82dfd0035c65249c9d10610a38575b505050811b01905561099a565b015160001960f88460031b161c191690558a8080610a2b565b838301518c556001909b019a602093840193016109ed565b015190508c80610866565b906002840160005260206000209160005b601f1985168110610ad157509260a0949260019260059583601f19811610610ab8575b505050811b0160028201556108ed565b015160001960f88460031b161c191690558b8080610aa8565b91926020600181928685015181550194019201610a85565b015190508a80610866565b9190600184016000526020600020906000935b601f1984168510610b4b576001945083601f19811610610b32575b505050811b016001820155610881565b015160001960f88460031b161c19169055898080610b22565b81810151835560209485019460019093019290910190610b07565b346100c15760003660031901126100c157604051600454600082610b8983610f7e565b9182825260209360019085600182169182600014610c29575050600114610bcc575b50610bb892500383610fd3565b610307604051928284938452830190611099565b84915060046000527f8a35acfbc15ff81a39ae7d344fd709f28e8600b4aa8c65c6b64bfe7fe36bd19b906000915b858310610c11575050610bb8935082010185610bab565b80548389018501528794508693909201918101610bfa565b60ff191685820152610bb895151560051b8501019250879150610bab9050565b346100c15760603660031901126100c157610c62610f3b565b906044356001600160401b0381116100c157610c82903690600401610f51565b9190610c8d82610fb8565b60018060a01b039182851681526020810190602435825260408101428152610cb636878661110b565b9060608301918252436080840152600160a08401528588166000526000602052604060002080546801000000000000000081101561023f57610cfd916001820181556110d9565b949094610f2557835185546001600160a01b031916908816178555516001850155516002840155518051906001600160401b03821161023f57610d5082610d476003870154610f7e565b60038701611151565b602090601f8311600114610eac5792610d8a8360059460a094610db19897600092610a695750508160011b916000199060031b1c19161790565b60038501555b608081015160048501550151151591019060ff801983541691151516179055565b60405191604083018381106001600160401b0382111761023f5760405260148352735472616e73616374696f6e20416374697669747960601b602084015280851660005260026020526040600020928354600a8101809111610e96577f8cf38fd59502eb3ca5f7a76bf3190d6c570ae01762424d11fd199943180ed74b94557fa25df558643ada7eb9ba9433f3a4f136fa0a7d4ef14002f71bcd220b9f7c8bed604051600a81526040602082015280610e71858a16946040830190611099565b0390a2610e916040519283926020845260243597169560208401916111a7565b0390a3005b634e487b7160e01b600052601160045260246000fd5b906003850160005260206000209160005b601f1985168110610f0d57508360a093610db1979693600193600597601f19811610610ef4575b505050811b016003850155610d90565b015160001960f88460031b161c191690558b8080610ee4565b91926020600181928685015181550194019201610ebd565b634e487b7160e01b600052600060045260246000fd5b600435906001600160a01b03821682036100c157565b9181601f840112156100c1578235916001600160401b0383116100c157602083818601950101116100c157565b90600182811c92168015610fae575b6020831014610f9857565b634e487b7160e01b600052602260045260246000fd5b91607f1691610f8d565b60c081019081106001600160401b0382111761023f57604052565b90601f801991011681019081106001600160401b0382111761023f57604052565b9060405191826000825461100781610f7e565b908184526020946001916001811690816000146110775750600114611038575b50505061103692500383610fd3565b565b600090815285812095935091905b81831061105f5750506110369350820101388080611027565b85548884018501529485019487945091830191611046565b9250505061103694925060ff191682840152151560051b820101388080611027565b919082519283825260005b8481106110c5575050826000602080949584010152601f8019910116010190565b6020818301810151848301820152016110a4565b80548210156110f5576000526006602060002091020190600090565b634e487b7160e01b600052603260045260246000fd5b9291926001600160401b03821161023f5760405191611134601f8201601f191660200184610fd3565b8294818452818301116100c1578281602093846000960137010152565b90601f811161115f57505050565b6000916000526020600020906020601f850160051c8301941061119d575b601f0160051c01915b82811061119257505050565b818155600101611186565b909250829061117d565b908060209392818452848401376000828201840152601f01601f1916010190565b156111cf57565b60405162461bcd60e51b815260206004820152602160248201527f4f6e6c792061646d696e2063616e2063616c6c20746869732066756e6374696f6044820152603760f91b6064820152608490fdfea2646970667358221220122e6074fbc24149ad9818857ee549fbe8e779879b5917316665ed278b32c20764736f6c63430008180033","opcodes":"PUSH1 0x80 PUSH1 0x40 MSTORE CALLVALUE PUSH3 0x226 JUMPI PUSH3 0x14A6 DUP1 CODESIZE SUB DUP1 PUSH3 0x1D DUP2 PUSH3 0x22B JUMP JUMPDEST SWAP3 DUP4 CODECOPY DUP2 ADD SWAP1 PUSH1 0x20 SWAP1 DUP2 DUP2 DUP5 SUB SLT PUSH3 0x226 JUMPI DUP1 MLOAD PUSH1 0x1 PUSH1 0x1 PUSH1 0x40 SHL SUB SWAP2 DUP3 DUP3 GT PUSH3 0x226 JUMPI ADD SWAP2 PUSH1 0x1F DUP5 DUP2 DUP6 ADD SLT ISZERO PUSH3 0x226 JUMPI DUP4 MLOAD DUP4 DUP2 GT PUSH3 0x1FB JUMPI PUSH1 0x1F NOT SWAP5 PUSH3 0x71 DUP3 DUP5 ADD DUP8 AND DUP6 ADD PUSH3 0x22B JUMP JUMPDEST SWAP7 DUP3 DUP9 MSTORE DUP5 DUP4 DUP4 ADD ADD GT PUSH3 0x226 JUMPI DUP4 SWAP1 PUSH1 0x0 JUMPDEST DUP4 DUP2 LT PUSH3 0x211 JUMPI POP POP PUSH1 0x0 SWAP2 DUP8 ADD ADD MSTORE PUSH1 0x3 DUP1 SLOAD PUSH1 0x1 PUSH1 0x1 PUSH1 0xA0 SHL SUB NOT AND CALLER OR SWAP1 SSTORE DUP5 MLOAD SWAP3 DUP4 GT PUSH3 0x1FB JUMPI PUSH1 0x4 SWAP5 DUP6 SLOAD SWAP3 PUSH1 0x1 SWAP4 DUP5 DUP2 DUP2 SHR SWAP2 AND DUP1 ISZERO PUSH3 0x1F0 JUMPI JUMPDEST DUP3 DUP3 LT EQ PUSH3 0x1DB JUMPI DUP4 DUP2 GT PUSH3 0x190 JUMPI JUMPDEST POP DUP1 SWAP3 DUP6 GT PUSH1 0x1 EQ PUSH3 0x127 JUMPI POP DUP4 SWAP5 POP SWAP1 DUP4 SWAP3 SWAP2 PUSH1 0x0 SWAP5 PUSH3 0x11B JUMPI JUMPDEST POP POP SHL SWAP2 PUSH1 0x0 NOT SWAP1 PUSH1 0x3 SHL SHR NOT AND OR SWAP1 SSTORE JUMPDEST PUSH1 0x40 MLOAD PUSH2 0x1254 SWAP1 DUP2 PUSH3 0x252 DUP3 CODECOPY RETURN JUMPDEST ADD MLOAD SWAP3 POP CODESIZE DUP1 PUSH3 0xF9 JUMP JUMPDEST SWAP3 SWAP5 DUP5 SWAP1 DUP2 AND DUP8 PUSH1 0x0 MSTORE DUP5 PUSH1 0x0 KECCAK256 SWAP5 PUSH1 0x0 SWAP1 JUMPDEST DUP9 DUP4 DUP4 LT PUSH3 0x175 JUMPI POP POP POP LT PUSH3 0x15B JUMPI JUMPDEST POP POP POP DUP2 SHL ADD SWAP1 SSTORE PUSH3 0x10B JUMP JUMPDEST ADD MLOAD PUSH1 0x0 NOT PUSH1 0xF8 DUP5 PUSH1 0x3 SHL AND SHR NOT AND SWAP1 SSTORE CODESIZE DUP1 DUP1 PUSH3 0x14D JUMP JUMPDEST DUP6 DUP8 ADD MLOAD DUP9 SSTORE SWAP1 SWAP7 ADD SWAP6 SWAP5 DUP6 ADD SWAP5 DUP8 SWAP4 POP SWAP1 DUP2 ADD SWAP1 PUSH3 0x13A JUMP JUMPDEST DUP8 PUSH1 0x0 MSTORE DUP2 PUSH1 0x0 KECCAK256 DUP5 DUP1 DUP9 ADD PUSH1 0x5 SHR DUP3 ADD SWAP3 DUP5 DUP10 LT PUSH3 0x1D1 JUMPI JUMPDEST ADD PUSH1 0x5 SHR ADD SWAP1 DUP6 SWAP1 JUMPDEST DUP3 DUP2 LT PUSH3 0x1C4 JUMPI POP POP PUSH3 0xDB JUMP JUMPDEST PUSH1 0x0 DUP2 SSTORE ADD DUP6 SWAP1 PUSH3 0x1B4 JUMP JUMPDEST SWAP3 POP DUP2 SWAP3 PUSH3 0x1AB JUMP JUMPDEST PUSH1 0x22 DUP9 PUSH4 0x4E487B71 PUSH1 0xE0 SHL PUSH1 0x0 MSTORE MSTORE PUSH1 0x24 PUSH1 0x0 REVERT JUMPDEST SWAP1 PUSH1 0x7F AND SWAP1 PUSH3 0xC9 JUMP JUMPDEST PUSH4 0x4E487B71 PUSH1 0xE0 SHL PUSH1 0x0 MSTORE PUSH1 0x41 PUSH1 0x4 MSTORE PUSH1 0x24 PUSH1 0x0 REVERT JUMPDEST DUP2 DUP2 ADD DUP4 ADD MLOAD DUP10 DUP3 ADD DUP5 ADD MSTORE DUP6 SWAP3 ADD PUSH3 0x85 JUMP JUMPDEST PUSH1 0x0 DUP1 REVERT JUMPDEST PUSH1 0x40 MLOAD SWAP2 SWAP1 PUSH1 0x1F ADD PUSH1 0x1F NOT AND DUP3 ADD PUSH1 0x1 PUSH1 0x1 PUSH1 0x40 SHL SUB DUP2 GT DUP4 DUP3 LT OR PUSH3 0x1FB JUMPI PUSH1 0x40 MSTORE JUMP INVALID PUSH1 0x80 DUP1 PUSH1 0x40 MSTORE PUSH1 0x4 CALLDATASIZE LT ISZERO PUSH2 0x13 JUMPI PUSH1 0x0 DUP1 REVERT JUMPDEST PUSH1 0x0 CALLDATALOAD PUSH1 0xE0 SHR SWAP1 DUP2 PUSH4 0xDAEA042 EQ PUSH2 0xC49 JUMPI POP DUP1 PUSH4 0x2C060070 EQ PUSH2 0xB66 JUMPI DUP1 PUSH4 0x3C2F0657 EQ PUSH2 0x6C9 JUMPI DUP1 PUSH4 0x594382E9 EQ PUSH2 0x703 JUMPI DUP1 PUSH4 0x709A7046 EQ PUSH2 0x6C9 JUMPI DUP1 PUSH4 0xB842EC44 EQ PUSH2 0x620 JUMPI DUP1 PUSH4 0xB8F230F2 EQ PUSH2 0x435 JUMPI DUP1 PUSH4 0xCD481E51 EQ PUSH2 0x30B JUMPI DUP1 PUSH4 0xED111B06 EQ PUSH2 0x255 JUMPI DUP1 PUSH4 0xEF925399 EQ PUSH2 0xC6 JUMPI PUSH4 0xF851A440 EQ PUSH2 0x98 JUMPI PUSH1 0x0 DUP1 REVERT JUMPDEST CALLVALUE PUSH2 0xC1 JUMPI PUSH1 0x0 CALLDATASIZE PUSH1 0x3 NOT ADD SLT PUSH2 0xC1 JUMPI PUSH1 0x3 SLOAD PUSH1 0x40 MLOAD PUSH1 0x1 PUSH1 0x1 PUSH1 0xA0 SHL SUB SWAP1 SWAP2 AND DUP2 MSTORE PUSH1 0x20 SWAP1 RETURN JUMPDEST PUSH1 0x0 DUP1 REVERT JUMPDEST CALLVALUE PUSH2 0xC1 JUMPI PUSH1 0x20 DUP1 PUSH1 0x3 NOT CALLDATASIZE ADD SLT PUSH2 0xC1 JUMPI PUSH1 0x1 PUSH1 0x1 PUSH1 0xA0 SHL SUB SWAP1 DUP2 PUSH2 0xEA PUSH2 0xF3B JUMP JUMPDEST AND PUSH1 0x0 MSTORE PUSH1 0x0 DUP2 MSTORE PUSH1 0x40 PUSH1 0x0 KECCAK256 DUP1 SLOAD PUSH1 0x1 PUSH1 0x1 PUSH1 0x40 SHL SUB DUP2 GT PUSH2 0x23F JUMPI PUSH1 0x40 MLOAD SWAP3 SWAP1 PUSH1 0x5 PUSH2 0x11C DUP3 DUP3 SHL DUP5 ADD DUP7 PUSH2 0xFD3 JUMP JUMPDEST DUP2 DUP6 MSTORE PUSH1 0x0 SWAP4 DUP5 MSTORE DUP3 DUP5 KECCAK256 DUP4 DUP7 ADD SWAP5 SWAP2 DUP6 JUMPDEST DUP5 DUP5 LT PUSH2 0x1D8 JUMPI POP POP POP POP POP PUSH1 0x40 MLOAD SWAP3 DUP2 DUP5 ADD SWAP1 DUP3 DUP6 MSTORE MLOAD DUP1 SWAP2 MSTORE PUSH1 0x40 DUP5 ADD SWAP2 PUSH1 0x40 DUP3 PUSH1 0x5 SHL DUP7 ADD ADD SWAP4 SWAP3 PUSH1 0x0 SWAP7 JUMPDEST DUP4 DUP9 LT PUSH2 0x16A JUMPI DUP7 DUP7 SUB DUP8 RETURN JUMPDEST SWAP1 SWAP2 SWAP3 SWAP4 SWAP5 DUP4 DUP1 PUSH1 0x1 SWAP3 PUSH1 0x3F NOT DUP11 DUP3 SUB ADD DUP7 MSTORE DUP9 MLOAD SWAP1 PUSH2 0x1B1 PUSH1 0xC0 DUP8 DUP5 MLOAD AND DUP4 MSTORE DUP5 DUP5 ADD MLOAD DUP6 DUP5 ADD MSTORE PUSH1 0x40 DUP5 ADD MLOAD PUSH1 0x40 DUP5 ADD MSTORE PUSH1 0x60 SWAP1 DUP1 DUP3 DUP7 ADD MLOAD SWAP3 DUP6 ADD MSTORE DUP4 ADD SWAP1 PUSH2 0x1099 JUMP JUMPDEST SWAP2 PUSH1 0x80 DUP1 DUP3 ADD MLOAD SWAP1 DUP4 ADD MSTORE PUSH1 0xA0 DUP1 SWAP2 ADD MLOAD ISZERO ISZERO SWAP2 ADD MSTORE SWAP8 ADD SWAP4 ADD SWAP8 ADD SWAP7 SWAP1 SWAP4 SWAP3 SWAP2 SWAP4 PUSH2 0x15D JUMP JUMPDEST PUSH1 0x6 DUP7 PUSH1 0x1 SWAP3 PUSH1 0x40 SWAP11 SWAP9 SWAP11 MLOAD PUSH2 0x1ED DUP2 PUSH2 0xFB8 JUMP JUMPDEST DUP13 DUP8 SLOAD AND DUP2 MSTORE DUP5 DUP8 ADD SLOAD DUP4 DUP3 ADD MSTORE PUSH1 0x2 DUP8 ADD SLOAD PUSH1 0x40 DUP3 ADD MSTORE PUSH2 0x211 PUSH1 0x3 DUP9 ADD PUSH2 0xFF4 JUMP JUMPDEST PUSH1 0x60 DUP3 ADD MSTORE PUSH1 0x4 DUP8 ADD SLOAD PUSH1 0x80 DUP3 ADD MSTORE PUSH1 0xFF DUP7 DUP9 ADD SLOAD AND ISZERO ISZERO PUSH1 0xA0 DUP3 ADD MSTORE DUP2 MSTORE ADD SWAP4 ADD SWAP4 ADD SWAP3 SWAP2 SWAP7 SWAP5 SWAP7 PUSH2 0x12E JUMP JUMPDEST PUSH4 0x4E487B71 PUSH1 0xE0 SHL PUSH1 0x0 MSTORE PUSH1 0x41 PUSH1 0x4 MSTORE PUSH1 0x24 PUSH1 0x0 REVERT JUMPDEST CALLVALUE PUSH2 0xC1 JUMPI PUSH1 0x20 CALLDATASIZE PUSH1 0x3 NOT ADD SLT PUSH2 0xC1 JUMPI PUSH1 0x1 PUSH1 0x1 PUSH1 0xA0 SHL SUB DUP1 PUSH2 0x277 PUSH2 0xF3B JUMP JUMPDEST AND PUSH1 0x0 MSTORE PUSH1 0x1 PUSH1 0x20 MSTORE PUSH1 0x40 PUSH1 0x0 KECCAK256 SWAP1 DUP2 SLOAD AND PUSH2 0x307 PUSH2 0x298 PUSH1 0x1 DUP5 ADD PUSH2 0xFF4 JUMP JUMPDEST SWAP3 PUSH2 0x2A5 PUSH1 0x2 DUP3 ADD PUSH2 0xFF4 JUMP JUMPDEST PUSH1 0xFF PUSH1 0x3 DUP4 ADD SLOAD AND SWAP2 PUSH2 0x2ED PUSH2 0x2C2 PUSH1 0x5 PUSH1 0x4 DUP5 ADD SLOAD SWAP4 ADD PUSH2 0xFF4 JUMP JUMPDEST SWAP3 PUSH2 0x2DF PUSH1 0x40 MLOAD SWAP9 DUP10 SWAP9 DUP10 MSTORE PUSH1 0xC0 PUSH1 0x20 DUP11 ADD MSTORE PUSH1 0xC0 DUP10 ADD SWAP1 PUSH2 0x1099 JUMP JUMPDEST SWAP1 DUP8 DUP3 SUB PUSH1 0x40 DUP10 ADD MSTORE PUSH2 0x1099 JUMP JUMPDEST SWAP3 ISZERO ISZERO PUSH1 0x60 DUP7 ADD MSTORE PUSH1 0x80 DUP6 ADD MSTORE DUP4 DUP3 SUB PUSH1 0xA0 DUP6 ADD MSTORE PUSH2 0x1099 JUMP JUMPDEST SUB SWAP1 RETURN JUMPDEST CALLVALUE PUSH2 0xC1 JUMPI PUSH1 0x20 DUP1 PUSH1 0x3 NOT CALLDATASIZE ADD SLT PUSH2 0xC1 JUMPI PUSH2 0x325 PUSH2 0xF3B JUMP JUMPDEST SWAP1 PUSH2 0x307 PUSH1 0xA0 PUSH1 0x40 MLOAD PUSH2 0x337 DUP2 PUSH2 0xFB8 JUMP JUMPDEST PUSH1 0x0 DUP2 MSTORE PUSH1 0x60 SWAP2 DUP2 DUP4 DUP7 DUP2 SWAP5 ADD MSTORE DUP3 PUSH1 0x40 DUP3 ADD MSTORE PUSH1 0x0 DUP4 DUP3 ADD MSTORE PUSH1 0x0 PUSH1 0x80 DUP3 ADD MSTORE ADD MSTORE PUSH1 0x1 DUP1 PUSH1 0xA0 SHL SUB DUP1 SWAP5 AND PUSH1 0x0 MSTORE PUSH1 0x1 DUP4 MSTORE PUSH1 0x40 PUSH1 0x0 KECCAK256 SWAP1 PUSH1 0x40 MLOAD SWAP4 PUSH2 0x37E DUP6 PUSH2 0xFB8 JUMP JUMPDEST DUP6 DUP4 SLOAD AND DUP6 MSTORE PUSH2 0x390 PUSH1 0x1 DUP5 ADD PUSH2 0xFF4 JUMP JUMPDEST SWAP3 DUP2 DUP7 ADD SWAP4 DUP5 MSTORE PUSH2 0x416 PUSH2 0x3A6 PUSH1 0x2 DUP4 ADD PUSH2 0xFF4 JUMP JUMPDEST PUSH1 0x40 DUP9 ADD SWAP1 DUP2 MSTORE PUSH2 0x402 PUSH1 0xFF PUSH1 0x3 DUP6 ADD SLOAD AND SWAP7 DUP7 DUP11 ADD SWAP8 ISZERO ISZERO DUP9 MSTORE PUSH2 0x3D9 PUSH1 0x5 PUSH1 0x4 DUP8 ADD SLOAD SWAP7 PUSH1 0x80 DUP14 ADD SWAP8 DUP9 MSTORE ADD PUSH2 0xFF4 JUMP JUMPDEST SWAP6 PUSH1 0xA0 DUP12 ADD SWAP7 DUP8 MSTORE PUSH1 0x40 MLOAD SWAP12 DUP13 SWAP12 DUP3 DUP14 MSTORE MLOAD AND SWAP1 DUP12 ADD MSTORE MLOAD PUSH1 0xC0 PUSH1 0x40 DUP12 ADD MSTORE PUSH1 0xE0 DUP11 ADD SWAP1 PUSH2 0x1099 JUMP JUMPDEST SWAP1 MLOAD PUSH1 0x1F NOT SWAP6 DUP7 DUP11 DUP5 SUB ADD SWAP1 DUP11 ADD MSTORE PUSH2 0x1099 JUMP JUMPDEST SWAP4 MLOAD ISZERO ISZERO PUSH1 0x80 DUP8 ADD MSTORE MLOAD PUSH1 0xA0 DUP7 ADD MSTORE MLOAD SWAP1 DUP5 DUP4 SUB ADD PUSH1 0xC0 DUP6 ADD MSTORE PUSH2 0x1099 JUMP JUMPDEST CALLVALUE PUSH2 0xC1 JUMPI PUSH1 0x20 DUP1 PUSH1 0x3 NOT CALLDATASIZE ADD SLT PUSH2 0xC1 JUMPI PUSH1 0x1 PUSH1 0x1 PUSH1 0x40 SHL SUB SWAP1 PUSH1 0x4 CALLDATALOAD DUP3 DUP2 GT PUSH2 0xC1 JUMPI PUSH2 0x468 SWAP1 CALLDATASIZE SWAP1 PUSH1 0x4 ADD PUSH2 0xF51 JUMP JUMPDEST SWAP2 SWAP1 SWAP3 PUSH2 0x480 PUSH1 0x1 DUP1 PUSH1 0xA0 SHL SUB PUSH1 0x3 SLOAD AND CALLER EQ PUSH2 0x11C8 JUMP JUMPDEST DUP3 GT PUSH2 0x23F JUMPI PUSH2 0x491 PUSH1 0x4 SLOAD PUSH2 0xF7E JUMP JUMPDEST PUSH1 0x1F DUP2 GT PUSH2 0x5BC JUMPI JUMPDEST POP PUSH1 0x0 PUSH1 0x1F DUP4 GT PUSH1 0x1 EQ PUSH2 0x514 JUMPI PUSH32 0x2B617F76CC1264C0E04A0DBB89AA63D70896816B00D6B47708C84307633803E0 SWAP4 PUSH2 0x4EF DUP5 DUP1 PUSH2 0x504 SWAP5 PUSH1 0x0 SWAP2 PUSH2 0x509 JUMPI JUMPDEST POP DUP2 PUSH1 0x1 SHL SWAP2 PUSH1 0x0 NOT SWAP1 PUSH1 0x3 SHL SHR NOT AND OR SWAP1 JUMP JUMPDEST PUSH1 0x4 SSTORE JUMPDEST PUSH1 0x40 MLOAD SWAP4 DUP4 DUP6 SWAP5 DUP6 MSTORE DUP5 ADD SWAP2 PUSH2 0x11A7 JUMP JUMPDEST SUB SWAP1 LOG1 STOP JUMPDEST SWAP1 POP DUP4 ADD CALLDATALOAD DUP9 PUSH2 0x4DB JUMP JUMPDEST PUSH1 0x1F NOT DUP4 AND SWAP1 PUSH1 0x4 PUSH1 0x0 MSTORE PUSH32 0x8A35ACFBC15FF81A39AE7D344FD709F28E8600B4AA8C65C6B64BFE7FE36BD19B SWAP2 PUSH1 0x0 JUMPDEST DUP2 DUP2 LT PUSH2 0x5A5 JUMPI POP SWAP2 PUSH32 0x2B617F76CC1264C0E04A0DBB89AA63D70896816B00D6B47708C84307633803E0 SWAP6 SWAP2 DUP6 PUSH2 0x504 SWAP5 LT PUSH2 0x58B JUMPI JUMPDEST POP POP PUSH1 0x1 DUP5 DUP2 SHL ADD PUSH1 0x4 SSTORE PUSH2 0x4F3 JUMP JUMPDEST DUP3 ADD CALLDATALOAD PUSH1 0x0 NOT PUSH1 0x3 DUP8 SWAP1 SHL PUSH1 0xF8 AND SHR NOT AND SWAP1 SSTORE DUP6 DUP1 PUSH2 0x57B JUMP JUMPDEST SWAP2 SWAP3 DUP5 PUSH1 0x1 DUP2 SWAP3 DUP7 DUP11 ADD CALLDATALOAD DUP2 SSTORE ADD SWAP5 ADD SWAP3 ADD PUSH2 0x544 JUMP JUMPDEST PUSH1 0x4 PUSH1 0x0 MSTORE PUSH32 0x8A35ACFBC15FF81A39AE7D344FD709F28E8600B4AA8C65C6B64BFE7FE36BD19B PUSH1 0x1F DUP5 ADD PUSH1 0x5 SHR DUP2 ADD SWAP2 DUP4 DUP6 LT PUSH2 0x616 JUMPI JUMPDEST PUSH1 0x1F ADD PUSH1 0x5 SHR ADD SWAP1 JUMPDEST DUP2 DUP2 LT PUSH2 0x60A JUMPI POP PUSH2 0x49A JUMP JUMPDEST PUSH1 0x0 DUP2 SSTORE PUSH1 0x1 ADD PUSH2 0x5FD JUMP JUMPDEST SWAP1 SWAP2 POP DUP2 SWAP1 PUSH2 0x5F4 JUMP JUMPDEST CALLVALUE PUSH2 0xC1 JUMPI PUSH1 0x40 CALLDATASIZE PUSH1 0x3 NOT ADD SLT PUSH2 0xC1 JUMPI PUSH2 0x639 PUSH2 0xF3B JUMP JUMPDEST PUSH1 0x1 PUSH1 0x1 PUSH1 0xA0 SHL SUB SWAP1 DUP2 AND PUSH1 0x0 SWAP1 DUP2 MSTORE PUSH1 0x20 DUP2 SWAP1 MSTORE PUSH1 0x40 SWAP1 KECCAK256 DUP1 SLOAD PUSH1 0x24 CALLDATALOAD SWAP1 DUP2 LT ISZERO PUSH2 0xC1 JUMPI PUSH2 0x668 SWAP2 PUSH2 0x10D9 JUMP JUMPDEST POP SWAP1 DUP2 SLOAD AND PUSH1 0x1 DUP3 ADD SLOAD SWAP2 PUSH1 0x2 DUP2 ADD SLOAD PUSH2 0x6B8 PUSH2 0x687 PUSH1 0x3 DUP5 ADD PUSH2 0xFF4 JUMP JUMPDEST PUSH1 0xFF PUSH1 0x5 PUSH1 0x4 DUP7 ADD SLOAD SWAP6 ADD SLOAD AND SWAP3 PUSH1 0x40 MLOAD SWAP7 DUP8 SWAP7 DUP8 MSTORE PUSH1 0x20 DUP8 ADD MSTORE PUSH1 0x40 DUP7 ADD MSTORE PUSH1 0xC0 PUSH1 0x60 DUP7 ADD MSTORE PUSH1 0xC0 DUP6 ADD SWAP1 PUSH2 0x1099 JUMP JUMPDEST SWAP2 PUSH1 0x80 DUP5 ADD MSTORE ISZERO ISZERO PUSH1 0xA0 DUP4 ADD MSTORE SUB SWAP1 RETURN JUMPDEST CALLVALUE PUSH2 0xC1 JUMPI PUSH1 0x20 CALLDATASIZE PUSH1 0x3 NOT ADD SLT PUSH2 0xC1 JUMPI PUSH1 0x1 PUSH1 0x1 PUSH1 0xA0 SHL SUB PUSH2 0x6EA PUSH2 0xF3B JUMP JUMPDEST AND PUSH1 0x0 MSTORE PUSH1 0x2 PUSH1 0x20 MSTORE PUSH1 0x20 PUSH1 0x40 PUSH1 0x0 KECCAK256 SLOAD PUSH1 0x40 MLOAD SWAP1 DUP2 MSTORE RETURN JUMPDEST CALLVALUE PUSH2 0xC1 JUMPI PUSH1 0x80 CALLDATASIZE PUSH1 0x3 NOT ADD SLT PUSH2 0xC1 JUMPI PUSH2 0x71C PUSH2 0xF3B JUMP JUMPDEST PUSH1 0x24 CALLDATALOAD PUSH1 0x1 PUSH1 0x1 PUSH1 0x40 SHL SUB DUP2 GT PUSH2 0xC1 JUMPI PUSH2 0x73B SWAP1 CALLDATASIZE SWAP1 PUSH1 0x4 ADD PUSH2 0xF51 JUMP JUMPDEST SWAP2 SWAP1 PUSH1 0x44 CALLDATALOAD PUSH1 0x1 PUSH1 0x1 PUSH1 0x40 SHL SUB DUP2 GT PUSH2 0xC1 JUMPI PUSH2 0x75C SWAP1 CALLDATASIZE SWAP1 PUSH1 0x4 ADD PUSH2 0xF51 JUMP JUMPDEST SWAP4 SWAP1 SWAP3 PUSH1 0x64 CALLDATALOAD PUSH1 0x1 PUSH1 0x1 PUSH1 0x40 SHL SUB DUP2 GT PUSH2 0xC1 JUMPI PUSH2 0x77E SWAP1 CALLDATASIZE SWAP1 PUSH1 0x4 ADD PUSH2 0xF51 JUMP JUMPDEST PUSH2 0x796 PUSH1 0x1 DUP1 PUSH1 0xA0 SWAP10 SWAP5 SWAP10 SHL SUB PUSH1 0x3 SLOAD AND CALLER EQ PUSH2 0x11C8 JUMP JUMPDEST PUSH2 0x7E9 PUSH1 0x40 MLOAD SWAP8 PUSH2 0x7A6 DUP10 PUSH2 0xFB8 JUMP JUMPDEST PUSH1 0x1 PUSH1 0x1 PUSH1 0xA0 SHL SUB DUP6 AND DUP10 MSTORE PUSH2 0x7BD CALLDATASIZE DUP8 DUP10 PUSH2 0x110B JUMP JUMPDEST SWAP3 PUSH1 0x20 DUP11 ADD SWAP4 DUP5 MSTORE PUSH2 0x7D0 CALLDATASIZE DUP7 DUP12 PUSH2 0x110B JUMP JUMPDEST PUSH1 0x40 DUP12 ADD MSTORE PUSH1 0x1 PUSH1 0x60 DUP12 ADD MSTORE TIMESTAMP PUSH1 0x80 DUP12 ADD MSTORE CALLDATASIZE SWAP2 PUSH2 0x110B JUMP JUMPDEST PUSH1 0xA0 DUP9 ADD MSTORE PUSH1 0x1 PUSH1 0x1 PUSH1 0xA0 SHL SUB DUP4 DUP2 AND PUSH1 0x0 SWAP1 DUP2 MSTORE PUSH1 0x1 PUSH1 0x20 MSTORE PUSH1 0x40 SWAP1 KECCAK256 DUP9 MLOAD DUP2 SLOAD PUSH1 0x1 PUSH1 0x1 PUSH1 0xA0 SHL SUB NOT AND SWAP3 AND SWAP2 SWAP1 SWAP2 OR DUP2 SSTORE SWAP1 MLOAD DUP1 MLOAD SWAP1 PUSH1 0x1 PUSH1 0x1 PUSH1 0x40 SHL SUB DUP3 GT PUSH2 0x23F JUMPI PUSH2 0x84A DUP3 PUSH2 0x841 PUSH1 0x1 DUP7 ADD SLOAD PUSH2 0xF7E JUMP JUMPDEST PUSH1 0x1 DUP7 ADD PUSH2 0x1151 JUMP JUMPDEST PUSH1 0x20 SWAP1 PUSH1 0x1F DUP4 GT PUSH1 0x1 EQ PUSH2 0xAF4 JUMPI PUSH2 0x87B SWAP3 SWAP2 PUSH1 0x0 SWAP2 DUP4 PUSH2 0xAE9 JUMPI JUMPDEST POP POP DUP2 PUSH1 0x1 SHL SWAP2 PUSH1 0x0 NOT SWAP1 PUSH1 0x3 SHL SHR NOT AND OR SWAP1 JUMP JUMPDEST PUSH1 0x1 DUP3 ADD SSTORE JUMPDEST PUSH1 0x40 DUP8 ADD MLOAD DUP1 MLOAD SWAP1 PUSH1 0x1 PUSH1 0x1 PUSH1 0x40 SHL SUB DUP3 GT PUSH2 0x23F JUMPI PUSH2 0x8B1 DUP3 PUSH2 0x8A8 PUSH1 0x2 DUP7 ADD SLOAD PUSH2 0xF7E JUMP JUMPDEST PUSH1 0x2 DUP7 ADD PUSH2 0x1151 JUMP JUMPDEST PUSH1 0x20 SWAP1 PUSH1 0x1F DUP4 GT PUSH1 0x1 EQ PUSH2 0xA74 JUMPI DUP3 PUSH1 0x5 SWAP4 PUSH1 0xA0 SWAP6 SWAP4 PUSH2 0x8E7 SWAP4 PUSH1 0x0 SWAP3 PUSH2 0xA69 JUMPI POP POP DUP2 PUSH1 0x1 SHL SWAP2 PUSH1 0x0 NOT SWAP1 PUSH1 0x3 SHL SHR NOT AND OR SWAP1 JUMP JUMPDEST PUSH1 0x2 DUP3 ADD SSTORE JUMPDEST PUSH2 0x90C PUSH1 0x60 DUP11 ADD MLOAD ISZERO ISZERO PUSH1 0x3 DUP4 ADD SWAP1 PUSH1 0xFF DUP1 NOT DUP4 SLOAD AND SWAP2 ISZERO ISZERO AND OR SWAP1 SSTORE JUMP JUMPDEST PUSH1 0x80 DUP10 ADD MLOAD PUSH1 0x4 DUP3 ADD SSTORE ADD SWAP7 ADD MLOAD SWAP6 DUP7 MLOAD PUSH1 0x1 PUSH1 0x1 PUSH1 0x40 SHL SUB DUP2 GT PUSH2 0x23F JUMPI PUSH2 0x93F DUP2 PUSH2 0x939 DUP5 SLOAD PUSH2 0xF7E JUMP JUMPDEST DUP5 PUSH2 0x1151 JUMP JUMPDEST PUSH1 0x20 PUSH1 0x1F DUP3 GT PUSH1 0x1 EQ PUSH2 0x9DA JUMPI DUP2 PUSH2 0x9CA SWAP6 SWAP5 SWAP4 SWAP3 PUSH2 0x997 SWAP3 PUSH32 0x9886278BB59C8848A4EEFD096EEA7469F3FDC0106EE5873F9C82DFD0035C6524 SWAP11 SWAP12 PUSH1 0x0 SWAP3 PUSH2 0x9CF JUMPI POP POP DUP2 PUSH1 0x1 SHL SWAP2 PUSH1 0x0 NOT SWAP1 PUSH1 0x3 SHL SHR NOT AND OR SWAP1 JUMP JUMPDEST SWAP1 SSTORE JUMPDEST PUSH2 0x9B1 PUSH1 0x40 MLOAD SWAP6 DUP7 SWAP6 PUSH1 0x40 DUP8 MSTORE PUSH1 0x40 DUP8 ADD SWAP2 PUSH2 0x11A7 JUMP JUMPDEST DUP5 DUP2 SUB PUSH1 0x20 DUP7 ADD MSTORE PUSH1 0x1 PUSH1 0x1 PUSH1 0xA0 SHL SUB SWAP1 SWAP3 AND SWAP7 PUSH2 0x11A7 JUMP JUMPDEST SUB SWAP1 LOG2 STOP JUMPDEST ADD MLOAD SWAP1 POP DUP12 DUP1 PUSH2 0x866 JUMP JUMPDEST PUSH1 0x1F NOT DUP3 AND SWAP9 DUP4 PUSH1 0x0 MSTORE PUSH1 0x20 PUSH1 0x0 KECCAK256 SWAP10 PUSH1 0x0 JUMPDEST DUP2 DUP2 LT PUSH2 0xA51 JUMPI POP SWAP10 PUSH1 0x1 SWAP3 DUP5 SWAP3 PUSH2 0x9CA SWAP9 SWAP8 SWAP7 SWAP6 PUSH32 0x9886278BB59C8848A4EEFD096EEA7469F3FDC0106EE5873F9C82DFD0035C6524 SWAP13 SWAP14 LT PUSH2 0xA38 JUMPI JUMPDEST POP POP POP DUP2 SHL ADD SWAP1 SSTORE PUSH2 0x99A JUMP JUMPDEST ADD MLOAD PUSH1 0x0 NOT PUSH1 0xF8 DUP5 PUSH1 0x3 SHL AND SHR NOT AND SWAP1 SSTORE DUP11 DUP1 DUP1 PUSH2 0xA2B JUMP JUMPDEST DUP4 DUP4 ADD MLOAD DUP13 SSTORE PUSH1 0x1 SWAP1 SWAP12 ADD SWAP11 PUSH1 0x20 SWAP4 DUP5 ADD SWAP4 ADD PUSH2 0x9ED JUMP JUMPDEST ADD MLOAD SWAP1 POP DUP13 DUP1 PUSH2 0x866 JUMP JUMPDEST SWAP1 PUSH1 0x2 DUP5 ADD PUSH1 0x0 MSTORE PUSH1 0x20 PUSH1 0x0 KECCAK256 SWAP2 PUSH1 0x0 JUMPDEST PUSH1 0x1F NOT DUP6 AND DUP2 LT PUSH2 0xAD1 JUMPI POP SWAP3 PUSH1 0xA0 SWAP5 SWAP3 PUSH1 0x1 SWAP3 PUSH1 0x5 SWAP6 DUP4 PUSH1 0x1F NOT DUP2 AND LT PUSH2 0xAB8 JUMPI JUMPDEST POP POP POP DUP2 SHL ADD PUSH1 0x2 DUP3 ADD SSTORE PUSH2 0x8ED JUMP JUMPDEST ADD MLOAD PUSH1 0x0 NOT PUSH1 0xF8 DUP5 PUSH1 0x3 SHL AND SHR NOT AND SWAP1 SSTORE DUP12 DUP1 DUP1 PUSH2 0xAA8 JUMP JUMPDEST SWAP2 SWAP3 PUSH1 0x20 PUSH1 0x1 DUP2 SWAP3 DUP7 DUP6 ADD MLOAD DUP2 SSTORE ADD SWAP5 ADD SWAP3 ADD PUSH2 0xA85 JUMP JUMPDEST ADD MLOAD SWAP1 POP DUP11 DUP1 PUSH2 0x866 JUMP JUMPDEST SWAP2 SWAP1 PUSH1 0x1 DUP5 ADD PUSH1 0x0 MSTORE PUSH1 0x20 PUSH1 0x0 KECCAK256 SWAP1 PUSH1 0x0 SWAP4 JUMPDEST PUSH1 0x1F NOT DUP5 AND DUP6 LT PUSH2 0xB4B JUMPI PUSH1 0x1 SWAP5 POP DUP4 PUSH1 0x1F NOT DUP2 AND LT PUSH2 0xB32 JUMPI JUMPDEST POP POP POP DUP2 SHL ADD PUSH1 0x1 DUP3 ADD SSTORE PUSH2 0x881 JUMP JUMPDEST ADD MLOAD PUSH1 0x0 NOT PUSH1 0xF8 DUP5 PUSH1 0x3 SHL AND SHR NOT AND SWAP1 SSTORE DUP10 DUP1 DUP1 PUSH2 0xB22 JUMP JUMPDEST DUP2 DUP2 ADD MLOAD DUP4 SSTORE PUSH1 0x20 SWAP5 DUP6 ADD SWAP5 PUSH1 0x1 SWAP1 SWAP4 ADD SWAP3 SWAP1 SWAP2 ADD SWAP1 PUSH2 0xB07 JUMP JUMPDEST CALLVALUE PUSH2 0xC1 JUMPI PUSH1 0x0 CALLDATASIZE PUSH1 0x3 NOT ADD SLT PUSH2 0xC1 JUMPI PUSH1 0x40 MLOAD PUSH1 0x4 SLOAD PUSH1 0x0 DUP3 PUSH2 0xB89 DUP4 PUSH2 0xF7E JUMP JUMPDEST SWAP2 DUP3 DUP3 MSTORE PUSH1 0x20 SWAP4 PUSH1 0x1 SWAP1 DUP6 PUSH1 0x1 DUP3 AND SWAP2 DUP3 PUSH1 0x0 EQ PUSH2 0xC29 JUMPI POP POP PUSH1 0x1 EQ PUSH2 0xBCC JUMPI JUMPDEST POP PUSH2 0xBB8 SWAP3 POP SUB DUP4 PUSH2 0xFD3 JUMP JUMPDEST PUSH2 0x307 PUSH1 0x40 MLOAD SWAP3 DUP3 DUP5 SWAP4 DUP5 MSTORE DUP4 ADD SWAP1 PUSH2 0x1099 JUMP JUMPDEST DUP5 SWAP2 POP PUSH1 0x4 PUSH1 0x0 MSTORE PUSH32 0x8A35ACFBC15FF81A39AE7D344FD709F28E8600B4AA8C65C6B64BFE7FE36BD19B SWAP1 PUSH1 0x0 SWAP2 JUMPDEST DUP6 DUP4 LT PUSH2 0xC11 JUMPI POP POP PUSH2 0xBB8 SWAP4 POP DUP3 ADD ADD DUP6 PUSH2 0xBAB JUMP JUMPDEST DUP1 SLOAD DUP4 DUP10 ADD DUP6 ADD MSTORE DUP8 SWAP5 POP DUP7 SWAP4 SWAP1 SWAP3 ADD SWAP2 DUP2 ADD PUSH2 0xBFA JUMP JUMPDEST PUSH1 0xFF NOT AND DUP6 DUP3 ADD MSTORE PUSH2 0xBB8 SWAP6 ISZERO ISZERO PUSH1 0x5 SHL DUP6 ADD ADD SWAP3 POP DUP8 SWAP2 POP PUSH2 0xBAB SWAP1 POP JUMP JUMPDEST CALLVALUE PUSH2 0xC1 JUMPI PUSH1 0x60 CALLDATASIZE PUSH1 0x3 NOT ADD SLT PUSH2 0xC1 JUMPI PUSH2 0xC62 PUSH2 0xF3B JUMP JUMPDEST SWAP1 PUSH1 0x44 CALLDATALOAD PUSH1 0x1 PUSH1 0x1 PUSH1 0x40 SHL SUB DUP2 GT PUSH2 0xC1 JUMPI PUSH2 0xC82 SWAP1 CALLDATASIZE SWAP1 PUSH1 0x4 ADD PUSH2 0xF51 JUMP JUMPDEST SWAP2 SWAP1 PUSH2 0xC8D DUP3 PUSH2 0xFB8 JUMP JUMPDEST PUSH1 0x1 DUP1 PUSH1 0xA0 SHL SUB SWAP2 DUP3 DUP6 AND DUP2 MSTORE PUSH1 0x20 DUP2 ADD SWAP1 PUSH1 0x24 CALLDATALOAD DUP3 MSTORE PUSH1 0x40 DUP2 ADD TIMESTAMP DUP2 MSTORE PUSH2 0xCB6 CALLDATASIZE DUP8 DUP7 PUSH2 0x110B JUMP JUMPDEST SWAP1 PUSH1 0x60 DUP4 ADD SWAP2 DUP3 MSTORE NUMBER PUSH1 0x80 DUP5 ADD MSTORE PUSH1 0x1 PUSH1 0xA0 DUP5 ADD MSTORE DUP6 DUP9 AND PUSH1 0x0 MSTORE PUSH1 0x0 PUSH1 0x20 MSTORE PUSH1 0x40 PUSH1 0x0 KECCAK256 DUP1 SLOAD PUSH9 0x10000000000000000 DUP2 LT ISZERO PUSH2 0x23F JUMPI PUSH2 0xCFD SWAP2 PUSH1 0x1 DUP3 ADD DUP2 SSTORE PUSH2 0x10D9 JUMP JUMPDEST SWAP5 SWAP1 SWAP5 PUSH2 0xF25 JUMPI DUP4 MLOAD DUP6 SLOAD PUSH1 0x1 PUSH1 0x1 PUSH1 0xA0 SHL SUB NOT AND SWAP1 DUP9 AND OR DUP6 SSTORE MLOAD PUSH1 0x1 DUP6 ADD SSTORE MLOAD PUSH1 0x2 DUP5 ADD SSTORE MLOAD DUP1 MLOAD SWAP1 PUSH1 0x1 PUSH1 0x1 PUSH1 0x40 SHL SUB DUP3 GT PUSH2 0x23F JUMPI PUSH2 0xD50 DUP3 PUSH2 0xD47 PUSH1 0x3 DUP8 ADD SLOAD PUSH2 0xF7E JUMP JUMPDEST PUSH1 0x3 DUP8 ADD PUSH2 0x1151 JUMP JUMPDEST PUSH1 0x20 SWAP1 PUSH1 0x1F DUP4 GT PUSH1 0x1 EQ PUSH2 0xEAC JUMPI SWAP3 PUSH2 0xD8A DUP4 PUSH1 0x5 SWAP5 PUSH1 0xA0 SWAP5 PUSH2 0xDB1 SWAP9 SWAP8 PUSH1 0x0 SWAP3 PUSH2 0xA69 JUMPI POP POP DUP2 PUSH1 0x1 SHL SWAP2 PUSH1 0x0 NOT SWAP1 PUSH1 0x3 SHL SHR NOT AND OR SWAP1 JUMP JUMPDEST PUSH1 0x3 DUP6 ADD SSTORE JUMPDEST PUSH1 0x80 DUP2 ADD MLOAD PUSH1 0x4 DUP6 ADD SSTORE ADD MLOAD ISZERO ISZERO SWAP2 ADD SWAP1 PUSH1 0xFF DUP1 NOT DUP4 SLOAD AND SWAP2 ISZERO ISZERO AND OR SWAP1 SSTORE JUMP JUMPDEST PUSH1 0x40 MLOAD SWAP2 PUSH1 0x40 DUP4 ADD DUP4 DUP2 LT PUSH1 0x1 PUSH1 0x1 PUSH1 0x40 SHL SUB DUP3 GT OR PUSH2 0x23F JUMPI PUSH1 0x40 MSTORE PUSH1 0x14 DUP4 MSTORE PUSH20 0x5472616E73616374696F6E204163746976697479 PUSH1 0x60 SHL PUSH1 0x20 DUP5 ADD MSTORE DUP1 DUP6 AND PUSH1 0x0 MSTORE PUSH1 0x2 PUSH1 0x20 MSTORE PUSH1 0x40 PUSH1 0x0 KECCAK256 SWAP3 DUP4 SLOAD PUSH1 0xA DUP2 ADD DUP1 SWAP2 GT PUSH2 0xE96 JUMPI PUSH32 0x8CF38FD59502EB3CA5F7A76BF3190D6C570AE01762424D11FD199943180ED74B SWAP5 SSTORE PUSH32 0xA25DF558643ADA7EB9BA9433F3A4F136FA0A7D4EF14002F71BCD220B9F7C8BED PUSH1 0x40 MLOAD PUSH1 0xA DUP2 MSTORE PUSH1 0x40 PUSH1 0x20 DUP3 ADD MSTORE DUP1 PUSH2 0xE71 DUP6 DUP11 AND SWAP5 PUSH1 0x40 DUP4 ADD SWAP1 PUSH2 0x1099 JUMP JUMPDEST SUB SWAP1 LOG2 PUSH2 0xE91 PUSH1 0x40 MLOAD SWAP3 DUP4 SWAP3 PUSH1 0x20 DUP5 MSTORE PUSH1 0x24 CALLDATALOAD SWAP8 AND SWAP6 PUSH1 0x20 DUP5 ADD SWAP2 PUSH2 0x11A7 JUMP JUMPDEST SUB SWAP1 LOG3 STOP JUMPDEST PUSH4 0x4E487B71 PUSH1 0xE0 SHL PUSH1 0x0 MSTORE PUSH1 0x11 PUSH1 0x4 MSTORE PUSH1 0x24 PUSH1 0x0 REVERT JUMPDEST SWAP1 PUSH1 0x3 DUP6 ADD PUSH1 0x0 MSTORE PUSH1 0x20 PUSH1 0x0 KECCAK256 SWAP2 PUSH1 0x0 JUMPDEST PUSH1 0x1F NOT DUP6 AND DUP2 LT PUSH2 0xF0D JUMPI POP DUP4 PUSH1 0xA0 SWAP4 PUSH2 0xDB1 SWAP8 SWAP7 SWAP4 PUSH1 0x1 SWAP4 PUSH1 0x5 SWAP8 PUSH1 0x1F NOT DUP2 AND LT PUSH2 0xEF4 JUMPI JUMPDEST POP POP POP DUP2 SHL ADD PUSH1 0x3 DUP6 ADD SSTORE PUSH2 0xD90 JUMP JUMPDEST ADD MLOAD PUSH1 0x0 NOT PUSH1 0xF8 DUP5 PUSH1 0x3 SHL AND SHR NOT AND SWAP1 SSTORE DUP12 DUP1 DUP1 PUSH2 0xEE4 JUMP JUMPDEST SWAP2 SWAP3 PUSH1 0x20 PUSH1 0x1 DUP2 SWAP3 DUP7 DUP6 ADD MLOAD DUP2 SSTORE ADD SWAP5 ADD SWAP3 ADD PUSH2 0xEBD JUMP JUMPDEST PUSH4 0x4E487B71 PUSH1 0xE0 SHL PUSH1 0x0 MSTORE PUSH1 0x0 PUSH1 0x4 MSTORE PUSH1 0x24 PUSH1 0x0 REVERT JUMPDEST PUSH1 0x4 CALLDATALOAD SWAP1 PUSH1 0x1 PUSH1 0x1 PUSH1 0xA0 SHL SUB DUP3 AND DUP3 SUB PUSH2 0xC1 JUMPI JUMP JUMPDEST SWAP2 DUP2 PUSH1 0x1F DUP5 ADD SLT ISZERO PUSH2 0xC1 JUMPI DUP3 CALLDATALOAD SWAP2 PUSH1 0x1 PUSH1 0x1 PUSH1 0x40 SHL SUB DUP4 GT PUSH2 0xC1 JUMPI PUSH1 0x20 DUP4 DUP2 DUP7 ADD SWAP6 ADD ADD GT PUSH2 0xC1 JUMPI JUMP JUMPDEST SWAP1 PUSH1 0x1 DUP3 DUP2 SHR SWAP3 AND DUP1 ISZERO PUSH2 0xFAE JUMPI JUMPDEST PUSH1 0x20 DUP4 LT EQ PUSH2 0xF98 JUMPI JUMP JUMPDEST PUSH4 0x4E487B71 PUSH1 0xE0 SHL PUSH1 0x0 MSTORE PUSH1 0x22 PUSH1 0x4 MSTORE PUSH1 0x24 PUSH1 0x0 REVERT JUMPDEST SWAP2 PUSH1 0x7F AND SWAP2 PUSH2 0xF8D JUMP JUMPDEST PUSH1 0xC0 DUP2 ADD SWAP1 DUP2 LT PUSH1 0x1 PUSH1 0x1 PUSH1 0x40 SHL SUB DUP3 GT OR PUSH2 0x23F JUMPI PUSH1 0x40 MSTORE JUMP JUMPDEST SWAP1 PUSH1 0x1F DUP1 NOT SWAP2 ADD AND DUP2 ADD SWAP1 DUP2 LT PUSH1 0x1 PUSH1 0x1 PUSH1 0x40 SHL SUB DUP3 GT OR PUSH2 0x23F JUMPI PUSH1 0x40 MSTORE JUMP JUMPDEST SWAP1 PUSH1 0x40 MLOAD SWAP2 DUP3 PUSH1 0x0 DUP3 SLOAD PUSH2 0x1007 DUP2 PUSH2 0xF7E JUMP JUMPDEST SWAP1 DUP2 DUP5 MSTORE PUSH1 0x20 SWAP5 PUSH1 0x1 SWAP2 PUSH1 0x1 DUP2 AND SWAP1 DUP2 PUSH1 0x0 EQ PUSH2 0x1077 JUMPI POP PUSH1 0x1 EQ PUSH2 0x1038 JUMPI JUMPDEST POP POP POP PUSH2 0x1036 SWAP3 POP SUB DUP4 PUSH2 0xFD3 JUMP JUMPDEST JUMP JUMPDEST PUSH1 0x0 SWAP1 DUP2 MSTORE DUP6 DUP2 KECCAK256 SWAP6 SWAP4 POP SWAP2 SWAP1 JUMPDEST DUP2 DUP4 LT PUSH2 0x105F JUMPI POP POP PUSH2 0x1036 SWAP4 POP DUP3 ADD ADD CODESIZE DUP1 DUP1 PUSH2 0x1027 JUMP JUMPDEST DUP6 SLOAD DUP9 DUP5 ADD DUP6 ADD MSTORE SWAP5 DUP6 ADD SWAP5 DUP8 SWAP5 POP SWAP2 DUP4 ADD SWAP2 PUSH2 0x1046 JUMP JUMPDEST SWAP3 POP POP POP PUSH2 0x1036 SWAP5 SWAP3 POP PUSH1 0xFF NOT AND DUP3 DUP5 ADD MSTORE ISZERO ISZERO PUSH1 0x5 SHL DUP3 ADD ADD CODESIZE DUP1 DUP1 PUSH2 0x1027 JUMP JUMPDEST SWAP2 SWAP1 DUP3 MLOAD SWAP3 DUP4 DUP3 MSTORE PUSH1 0x0 JUMPDEST DUP5 DUP2 LT PUSH2 0x10C5 JUMPI POP POP DUP3 PUSH1 0x0 PUSH1 0x20 DUP1 SWAP5 SWAP6 DUP5 ADD ADD MSTORE PUSH1 0x1F DUP1 NOT SWAP2 ADD AND ADD ADD SWAP1 JUMP JUMPDEST PUSH1 0x20 DUP2 DUP4 ADD DUP2 ADD MLOAD DUP5 DUP4 ADD DUP3 ADD MSTORE ADD PUSH2 0x10A4 JUMP JUMPDEST DUP1 SLOAD DUP3 LT ISZERO PUSH2 0x10F5 JUMPI PUSH1 0x0 MSTORE PUSH1 0x6 PUSH1 0x20 PUSH1 0x0 KECCAK256 SWAP2 MUL ADD SWAP1 PUSH1 0x0 SWAP1 JUMP JUMPDEST PUSH4 0x4E487B71 PUSH1 0xE0 SHL PUSH1 0x0 MSTORE PUSH1 0x32 PUSH1 0x4 MSTORE PUSH1 0x24 PUSH1 0x0 REVERT JUMPDEST SWAP3 SWAP2 SWAP3 PUSH1 0x1 PUSH1 0x1 PUSH1 0x40 SHL SUB DUP3 GT PUSH2 0x23F JUMPI PUSH1 0x40 MLOAD SWAP2 PUSH2 0x1134 PUSH1 0x1F DUP3 ADD PUSH1 0x1F NOT AND PUSH1 0x20 ADD DUP5 PUSH2 0xFD3 JUMP JUMPDEST DUP3 SWAP5 DUP2 DUP5 MSTORE DUP2 DUP4 ADD GT PUSH2 0xC1 JUMPI DUP3 DUP2 PUSH1 0x20 SWAP4 DUP5 PUSH1 0x0 SWAP7 ADD CALLDATACOPY ADD ADD MSTORE JUMP JUMPDEST SWAP1 PUSH1 0x1F DUP2 GT PUSH2 0x115F JUMPI POP POP POP JUMP JUMPDEST PUSH1 0x0 SWAP2 PUSH1 0x0 MSTORE PUSH1 0x20 PUSH1 0x0 KECCAK256 SWAP1 PUSH1 0x20 PUSH1 0x1F DUP6 ADD PUSH1 0x5 SHR DUP4 ADD SWAP5 LT PUSH2 0x119D JUMPI JUMPDEST PUSH1 0x1F ADD PUSH1 0x5 SHR ADD SWAP2 JUMPDEST DUP3 DUP2 LT PUSH2 0x1192 JUMPI POP POP POP JUMP JUMPDEST DUP2 DUP2 SSTORE PUSH1 0x1 ADD PUSH2 0x1186 JUMP JUMPDEST SWAP1 SWAP3 POP DUP3 SWAP1 PUSH2 0x117D JUMP JUMPDEST SWAP1 DUP1 PUSH1 0x20 SWAP4 SWAP3 DUP2 DUP5 MSTORE DUP5 DUP5 ADD CALLDATACOPY PUSH1 0x0 DUP3 DUP3 ADD DUP5 ADD MSTORE PUSH1 0x1F ADD PUSH1 0x1F NOT AND ADD ADD SWAP1 JUMP JUMPDEST ISZERO PUSH2 0x11CF JUMPI JUMP JUMPDEST PUSH1 0x40 MLOAD PUSH3 0x461BCD PUSH1 0xE5 SHL DUP2 MSTORE PUSH1 0x20 PUSH1 0x4 DUP3 ADD MSTORE PUSH1 0x21 PUSH1 0x24 DUP3 ADD MSTORE PUSH32 0x4F6E6C792061646D696E2063616E2063616C6C20746869732066756E6374696F PUSH1 0x44 DUP3 ADD MSTORE PUSH1 0x37 PUSH1 0xF9 SHL PUSH1 0x64 DUP3 ADD MSTORE PUSH1 0x84 SWAP1 REVERT INVALID LOG2 PUSH5 0x6970667358 0x22 SLT KECCAK256 SLT 0x2E PUSH1 0x74 0xFB 0xC2 COINBASE BLOBHASH 0xAD SWAP9 XOR DUP6 PUSH31 0xE549FBE8E779879B5917316665ED278B32C20764736F6C6343000818003300 "},"methodIdentifiers":{"admin()":"f851a440","blockscoutApiEndpoint()":"2c060070","contractRegistry(address)":"ed111b06","getContractInfo(address)":"cd481e51","getUserMerits(address)":"3c2f0657","getUserTransactions(address)":"ef925399","registerVerifiedContract(address,string,string,string)":"594382e9","trackTransaction(address,bytes32,string)":"0daea042","updateApiEndpoint(string)":"b8f230f2","userMerits(address)":"709a7046","userTransactions(address,uint256)":"b842ec44"}}}}}