{"contracts/VotingWithWeight.sol":{"VotingWithWeight":{"abi":[{"inputs":[{"internalType":"address","name":"_statToken","type":"address"}],"stateMutability":"nonpayable","type":"constructor"},{"anonymous":false,"inputs":[{"indexed":true,"internalType":"uint256","name":"proposalId","type":"uint256"},{"indexed":true,"internalType":"address","name":"proposer","type":"address"},{"indexed":false,"internalType":"string","name":"title","type":"string"},{"indexed":false,"internalType":"enum VotingWithWeight.ProposalType","name":"proposalType","type":"uint8"},{"indexed":false,"internalType":"uint256","name":"deadline","type":"uint256"}],"name":"ProposalCreated","type":"event"},{"anonymous":false,"inputs":[{"indexed":true,"internalType":"uint256","name":"proposalId","type":"uint256"},{"indexed":false,"internalType":"bool","name":"passed","type":"bool"}],"name":"ProposalExecuted","type":"event"},{"anonymous":false,"inputs":[{"indexed":true,"internalType":"uint256","name":"proposalId","type":"uint256"},{"indexed":true,"internalType":"address","name":"voter","type":"address"},{"indexed":false,"internalType":"bool","name":"support","type":"bool"},{"indexed":false,"internalType":"uint256","name":"weight","type":"uint256"},{"indexed":false,"internalType":"string","name":"comment","type":"string"}],"name":"VoteCast","type":"event"},{"inputs":[],"name":"PROPOSAL_CREATION_REWARD","outputs":[{"internalType":"uint256","name":"","type":"uint256"}],"stateMutability":"view","type":"function"},{"inputs":[],"name":"SUCCESSFUL_PROPOSAL_BONUS","outputs":[{"internalType":"uint256","name":"","type":"uint256"}],"stateMutability":"view","type":"function"},{"inputs":[],"name":"VOTE_PARTICIPATION_REWARD","outputs":[{"internalType":"uint256","name":"","type":"uint256"}],"stateMutability":"view","type":"function"},{"inputs":[],"name":"admin","outputs":[{"internalType":"address","name":"","type":"address"}],"stateMutability":"view","type":"function"},{"inputs":[{"internalType":"string","name":"_title","type":"string"},{"internalType":"string","name":"_description","type":"string"},{"internalType":"string","name":"_category","type":"string"},{"internalType":"enum VotingWithWeight.ProposalType","name":"_proposalType","type":"uint8"},{"internalType":"uint256","name":"_duration","type":"uint256"}],"name":"createProposal","outputs":[],"stateMutability":"nonpayable","type":"function"},{"inputs":[{"internalType":"uint256","name":"proposalId","type":"uint256"}],"name":"executeProposal","outputs":[],"stateMutability":"nonpayable","type":"function"},{"inputs":[{"internalType":"uint256","name":"proposalId","type":"uint256"}],"name":"getProposal","outputs":[{"internalType":"uint256","name":"id","type":"uint256"},{"internalType":"string","name":"title","type":"string"},{"internalType":"string","name":"description","type":"string"},{"internalType":"string","name":"category","type":"string"},{"internalType":"enum VotingWithWeight.ProposalType","name":"proposalType","type":"uint8"},{"internalType":"enum VotingWithWeight.ProposalStatus","name":"status","type":"uint8"},{"internalType":"address","name":"proposer","type":"address"},{"internalType":"uint256","name":"yesVotes","type":"uint256"},{"internalType":"uint256","name":"noVotes","type":"uint256"},{"internalType":"uint256","name":"totalVotingPower","type":"uint256"},{"internalType":"uint256","name":"deadline","type":"uint256"},{"internalType":"uint256","name":"createdAt","type":"uint256"},{"internalType":"bool","name":"executed","type":"bool"}],"stateMutability":"view","type":"function"},{"inputs":[],"name":"getTotalProposals","outputs":[{"internalType":"uint256","name":"","type":"uint256"}],"stateMutability":"view","type":"function"},{"inputs":[{"internalType":"address","name":"user","type":"address"}],"name":"getUserProposals","outputs":[{"internalType":"uint256[]","name":"","type":"uint256[]"}],"stateMutability":"view","type":"function"},{"inputs":[{"internalType":"uint256","name":"proposalId","type":"uint256"},{"internalType":"address","name":"user","type":"address"}],"name":"getUserVote","outputs":[{"internalType":"bool","name":"hasVoted","type":"bool"},{"internalType":"bool","name":"voteChoice","type":"bool"}],"stateMutability":"view","type":"function"},{"inputs":[{"internalType":"address","name":"user","type":"address"}],"name":"getUserVotes","outputs":[{"internalType":"uint256[]","name":"","type":"uint256[]"}],"stateMutability":"view","type":"function"},{"inputs":[{"internalType":"address","name":"user","type":"address"}],"name":"getVotingPower","outputs":[{"internalType":"uint256","name":"","type":"uint256"}],"stateMutability":"view","type":"function"},{"inputs":[{"internalType":"uint256","name":"proposalId","type":"uint256"}],"name":"getVotingResult","outputs":[{"internalType":"string","name":"result","type":"string"}],"stateMutability":"view","type":"function"},{"inputs":[],"name":"proposalCounter","outputs":[{"internalType":"uint256","name":"","type":"uint256"}],"stateMutability":"view","type":"function"},{"inputs":[{"internalType":"uint256","name":"","type":"uint256"}],"name":"proposals","outputs":[{"internalType":"uint256","name":"id","type":"uint256"},{"internalType":"string","name":"title","type":"string"},{"internalType":"string","name":"description","type":"string"},{"internalType":"string","name":"category","type":"string"},{"internalType":"enum VotingWithWeight.ProposalType","name":"proposalType","type":"uint8"},{"internalType":"enum VotingWithWeight.ProposalStatus","name":"status","type":"uint8"},{"internalType":"address","name":"proposer","type":"address"},{"internalType":"uint256","name":"yesVotes","type":"uint256"},{"internalType":"uint256","name":"noVotes","type":"uint256"},{"internalType":"uint256","name":"totalVotingPower","type":"uint256"},{"internalType":"uint256","name":"deadline","type":"uint256"},{"internalType":"uint256","name":"createdAt","type":"uint256"},{"internalType":"bool","name":"executed","type":"bool"}],"stateMutability":"view","type":"function"},{"inputs":[],"name":"statToken","outputs":[{"internalType":"contract IStatToken","name":"","type":"address"}],"stateMutability":"view","type":"function"},{"inputs":[{"internalType":"address","name":"newAdmin","type":"address"}],"name":"updateAdmin","outputs":[],"stateMutability":"nonpayable","type":"function"},{"inputs":[{"internalType":"address","name":"","type":"address"},{"internalType":"uint256","name":"","type":"uint256"}],"name":"userProposals","outputs":[{"internalType":"uint256","name":"","type":"uint256"}],"stateMutability":"view","type":"function"},{"inputs":[{"internalType":"address","name":"","type":"address"},{"internalType":"uint256","name":"","type":"uint256"}],"name":"userVotes","outputs":[{"internalType":"uint256","name":"","type":"uint256"}],"stateMutability":"view","type":"function"},{"inputs":[{"internalType":"uint256","name":"proposalId","type":"uint256"},{"internalType":"bool","name":"support","type":"bool"},{"internalType":"string","name":"comment","type":"string"}],"name":"vote","outputs":[],"stateMutability":"nonpayable","type":"function"}],"evm":{"bytecode":{"linkReferences":{},"object":"60803461008157601f611bb738819003918201601f19168301916001600160401b038311848410176100865780849260209460405283398101031261008157516001600160a01b038116908190036100815760018060a01b031990816000541617600055339060015416176001556000600255604051611b1a908161009d8239f35b600080fd5b634e487b7160e01b600052604160045260246000fdfe6080604052600436101561001257600080fd5b6000803560e01c8063013cf08b146113a857806303c7881a146113445780630c0512e9146110a15780630d61b519146110db5780630d95255b146110bf5780631a5007dd146110a15780631b31527f146110595780631c0d850e146110255780635b16d25d146108a957806370c3b4241461088257806378ef11381461080c5780638b3511f7146107b6578063950c78221461073057806398712b5614610714578063b7d3438e146106f8578063bb4d443614610661578063c7f758a8146105bf578063d3c0715b146101f9578063e2f273bd146101245763f851a440146100f957600080fd5b346101215780600319360112610121576001546040516001600160a01b039091168152602090f35b80fd5b50346101215760203660031901126101215761013e611690565b600154906001600160a01b039081831633036101aa571690811561016d576001600160a01b0319161760015580f35b60405162461bcd60e51b8152602060048201526015602482015274496e76616c69642061646d696e206164647265737360581b6044820152606490fd5b60405162461bcd60e51b815260206004820152602160248201527f4f6e6c792061646d696e2063616e2063616c6c20746869732066756e6374696f6044820152603760f91b6064820152608490fd5b5034610121576060366003190112610121576024600435813580151580820361049857604493843567ffffffffffffffff81116105bb5761023e9036906004016116f0565b948487526020936003855260408820600254871115806105b2575b61026290611773565b60ff600482015460081c16600481101561059f5761028090156117b5565b600881015442101561056657600b8101913360005282875260ff604060002054166105335789546040516370a0823160e01b815233600482015295936001600160a01b03939291899088908790829088165afa968715610528578c976104f4575b5086156104b157908b9594939291336000528952604060002060ff1990600182825416179055600c83018a5260406000209081541660ff8a161790556007820161032c8882546119d8565b90551561049c576005016103418682546119d8565b90555b3384526005875261035888604086206119e5565b80845416803b156104985784809160a4604051809481936334ff261960e21b8352336004840152600a8984015260608a84015260126064840152712b37ba32902830b93a34b1b4b830ba34b7b760711b60848401525af190811561048d578591610479575b50541690813b156104755760846040918580946004855197889687956355ad3ead60e11b8752338488015286015284015263766f746560e01b60648401525af1801561046a57610452575b50507f63453ebf8e1aa432b8d77257d489f75c1a106cdbd568c0e0c63547d20fc91fa892604051928352820152606060408201528061044c339560608301906115ae565b0390a380f35b61045b9061147e565b610466578538610408565b8580fd5b6040513d84823e3d90fd5b8380fd5b6104829061147e565b6104755783386103bd565b6040513d87823e3d90fd5b8480fd5b6006016104aa8682546119d8565b9055610344565b60405162461bcd60e51b8152600481018a9052601b818701527f4e6f205354415420746f6b656e732c2063616e6e6f7420766f7465000000000081880152606490fd5b9096508881813d8311610521575b61050c81836114c4565b8101031261051c575195386102e1565b600080fd5b503d610502565b6040513d8e823e3d90fd5b60405162461bcd60e51b815260048101889052600d818701526c105b1c9958591e481d9bdd1959609a1b81860152606490fd5b60405162461bcd60e51b81526004810187905260138186015272159bdd1a5b99c81c195c9a5bd908195b991959606a1b81850152606490fd5b634e487b7160e01b8a526021600452848afd5b50861515610259565b8680fd5b503461012157602036600319011261012157604090600435815260036020522080549061065d60048201549260058301546006840154600785015460088601549160098701549360ff600a890154169561061b60018a016114e6565b99610634600361062d60028d016114e6565b9b016114e6565b6040519b8c9b6001600160a01b03601085901c169460ff600886901c811695169392908e6115f6565b0390f35b503461012157602090816003193601126101215761067d611690565b81546040516370a0823160e01b81526001600160a01b03928316600482015291849183916024918391165afa9182156106ec57916106bf575b50604051908152f35b90508181813d83116106e5575b6106d681836114c4565b8101031261051c5751386106b6565b503d6106cc565b604051903d90823e3d90fd5b5034610121578060031936011261012157602060405160648152f35b5034610121578060031936011261012157602060405160328152f35b5034610121576020806003193601126107b2576001600160a01b03610753611690565b1682526005602052604082209160405180926020855492838152019483526020832092905b82821061079b5761065d8561078f818903826114c4565b60405191829182611737565b835486529485019460019384019390910190610778565b5080fd5b5034610121576040366003190112610121576107d0611690565b6001600160a01b03168152600560205260408120805460243592908310156101215760206107fe84846116a6565b90546040519160031b1c8152f35b5034610121576020806003193601126107b2576001600160a01b0361082f611690565b1682526004602052604082209160405180926020855492838152019483526020832092905b82821061086b5761065d8561078f818903826114c4565b835486529485019460019384019390910190610854565b5034610121578060031936011261012157546040516001600160a01b039091168152602090f35b50346101215760a03660031901126101215760043567ffffffffffffffff81116107b2576108db9036906004016116f0565b60243567ffffffffffffffff8111610c55576108fb9036906004016116f0565b9060443567ffffffffffffffff81116104755761091c9036906004016116f0565b6003606435101561047557815115610fe857825115610fa35760843515610f5e5783546040516370a0823160e01b815233600482015290602090829060249082906001600160a01b03165afa801561048d578590610f2b575b6032915010610eda576109896002546119b3565b908160025561099a608435426119d8565b93828652600360205260408620928355835167ffffffffffffffff8111610e0c576109c86001850154611444565b601f8111610e95575b50806020601f8211600114610e2b578891610e20575b508160011b916000199060031b1c19161760018401555b80519067ffffffffffffffff8211610e0c578190610a1f6002860154611444565b601f8111610dbb575b50602090601f8311600114610d4c578892610d41575b50508160011b916000199060031b1c19161760028301555b80519067ffffffffffffffff8211610d2d57610a756003840154611444565b601f8111610ce8575b50602090601f8311600114610c7857600a939291879183610c6d575b50508160011b916000199060031b1c19161760038201555b60048101805462010000600160b01b033360101b169060ff606435169069ffffffffffffffffffff60b01b16171790558460058201558460068201558460078201558360088201554260098201550160ff1981541690553383526004602052610b2160408420600254906119e5565b825483906001600160a01b0316803b156107b25781809160a4604051809481936334ff261960e21b83523360048401526032602484015260606044840152601060648401526f141c9bdc1bdcd85b0810dc99585d195960821b60848401525af1801561046a57610c59575b5080546001600160a01b0316803b156107b2578180916084604051809481936355ad3ead60e11b83523360048401526040602484015260086044840152671c1c9bdc1bdcd85b60c21b60648401525af1801561046a57610c41575b50507fd8244157bfcd2b10051db9a0c53e954e429355cb86128797a0468e0892b92bf960025491610c23604051916060835260608301906115ae565b93610c33602083016064356115d3565b60408201528033940390a380f35b610c4a9061147e565b610c55578238610be7565b8280fd5b610c629061147e565b610c55578238610b8c565b015190503880610a9a565b906003840187526020872091875b601f1985168110610cd05750918391600193600a9695601f19811610610cb7575b505050811b016003820155610ab2565b015160001960f88460031b161c19169055388080610ca7565b91926020600181928685015181550194019201610c86565b60038401875260208720601f840160051c810160208510610d26575b601f830160051c82018110610d1a575050610a7e565b60008155600101610d04565b5080610d04565b634e487b7160e01b86526041600452602486fd5b015190503880610a3e565b9250600285018852602088209088935b601f1984168510610da0576001945083601f19811610610d87575b505050811b016002830155610a56565b015160001960f88460031b161c19169055388080610d77565b81810151835560209485019460019093019290910190610d5c565b90915060028501885260208820601f840160051c810160208510610e05575b90849392915b601f830160051c82018110610df6575050610a28565b60008155859450600101610de0565b5080610dda565b634e487b7160e01b87526041600452602487fd5b9050850151386109e7565b91506001850188526020882088925b601f1983168410610e7d576001935082601f19811610610e64575b5050811b0160018401556109fe565b87015160001960f88460031b161c191690553880610e55565b87810151825560209384019360019092019101610e3a565b60018501885260208820601f830160051c810160208410610ed3575b601f830160051c82018110610ec75750506109d1565b60008155600101610eb1565b5080610eb1565b60405162461bcd60e51b8152602060048201526024808201527f496e73756666696369656e74205354415420746f206372656174652070726f706044820152631bdcd85b60e21b6064820152608490fd5b506020813d602011610f56575b81610f45602093836114c4565b8101031261051c5760329051610975565b3d9150610f38565b60405162461bcd60e51b815260206004820152601960248201527f4475726174696f6e206d75737420626520706f736974697665000000000000006044820152606490fd5b60405162461bcd60e51b815260206004820152601b60248201527f4465736372697074696f6e2063616e6e6f7420626520656d70747900000000006044820152606490fd5b60405162461bcd60e51b81526020600482015260156024820152745469746c652063616e6e6f7420626520656d70747960581b6044820152606490fd5b50346101215760203660031901126101215761065d611045600435611817565b6040519182916020835260208301906115ae565b503461012157604036600319011261012157611073611690565b6001600160a01b03168152600460205260408120805460243592908310156101215760206107fe84846116a6565b50346101215780600319360112610121576020600254604051908152f35b50346101215780600319360112610121576020604051600a8152f35b5034610121576020366003190112610121576004358082526003602052604082206002548211158061133b575b61111190611773565b6004810180549160ff8360081c1660048110156113275761113290156117b5565b600881015442106112e257600a8101805460ff811661129d5760ff19166001179055600581015460069190910154109182156112685750805461ff001916610100179081905583546001600160a01b0390811691859190833b15610c555760a4908360405195869485936334ff261960e21b855260101c1660048401526064602484015260606044840152601960648401527f5375636365737366756c2050726f706f73616c20426f6e75730000000000000060848401525af1801561125d57611227575b5060207f948f4a9cd986f1118c3fbd459f7a22b23c0693e1ca3ef06a6a8be5aa7d39cc03915b604051908152a280f35b7f948f4a9cd986f1118c3fbd459f7a22b23c0693e1ca3ef06a6a8be5aa7d39cc03919361125560209261147e565b9391506111f7565b6040513d86823e3d90fd5b61ff0019166102001790557f948f4a9cd986f1118c3fbd459f7a22b23c0693e1ca3ef06a6a8be5aa7d39cc039060209061121d565b60405162461bcd60e51b815260206004820152601960248201527f50726f706f73616c20616c7265616479206578656375746564000000000000006044820152606490fd5b60405162461bcd60e51b815260206004820152601760248201527f566f74696e6720706572696f64206e6f7420656e6465640000000000000000006044820152606490fd5b634e487b7160e01b86526021600452602486fd5b50811515611108565b5034610121576040366003190112610121576024356001600160a01b038116908190036107b25760ff6040809360043581526003602052818120938152600b8401602052600c83838320541694016020522054168251911515825215156020820152f35b503461012157602036600319011261012157604090600435815260036020522080549061065d6113da600183016114e6565b6113e6600284016114e6565b926113f3600382016114e6565b94600482015490600583015460068401549060078501549260088601549460ff600a600989015498015416976040519b8c9b8c9260018060a01b038560101c169560ff808760081c169616946115f6565b90600182811c92168015611474575b602083101461145e57565b634e487b7160e01b600052602260045260246000fd5b91607f1691611453565b67ffffffffffffffff811161149257604052565b634e487b7160e01b600052604160045260246000fd5b6040810190811067ffffffffffffffff82111761149257604052565b90601f8019910116810190811067ffffffffffffffff82111761149257604052565b906040519182600082546114f981611444565b90818452602094600191600181169081600014611569575060011461152a575b505050611528925003836114c4565b565b600090815285812095935091905b8183106115515750506115289350820101388080611519565b85548884018501529485019487945091830191611538565b9250505061152894925060ff191682840152151560051b820101388080611519565b60005b83811061159e5750506000910152565b818101518382015260200161158e565b906020916115c78151809281855285808601910161158b565b601f01601f1916010190565b9060038210156115e05752565b634e487b7160e01b600052602160045260246000fd5b9b98959a97949d9c999693908c61164d9461162661164295611634946101a09085528060208601528401906115ae565b9160408184039101526115ae565b8c810360608e0152906115ae565b9b60808b01906115d3565b60048810156115e0576101809760a08a015260018060a01b031660c089015260e08801526101008701526101208601526101408501526101608401521515910152565b600435906001600160a01b038216820361051c57565b80548210156116be5760005260206000200190600090565b634e487b7160e01b600052603260045260246000fd5b67ffffffffffffffff811161149257601f01601f191660200190565b81601f8201121561051c57803590611707826116d4565b9261171560405194856114c4565b8284526020838301011161051c57816000926020809301838601378301015290565b602090602060408183019282815285518094520193019160005b82811061175f575050505090565b835185529381019392810192600101611751565b1561177a57565b60405162461bcd60e51b8152602060048201526013602482015272125b9d985b1a59081c1c9bdc1bdcd85b081251606a1b6044820152606490fd5b156117bc57565b60405162461bcd60e51b815260206004820152601360248201527250726f706f73616c206e6f742061637469766560681b6044820152606490fd5b8115611801570490565b634e487b7160e01b600052601260045260246000fd5b60009081526020906003825260408120906007820154801561198857600583015490606482028281046064148315171561197457611857826006926117f7565b94015492606484029084820460641485151715611960575090611879916117f7565b91808211156118df57505050602e6118bd926118976118dc93611a1f565b6040519482670a082a6a68a8840560c31b8794850152825192839160288601910161158b565b81016525205945532960d01b602882015203600e8101845201826114c4565b90565b919250101561194057602f611922926118fa6118dc93611a1f565b6040519482690a48a948a86a88a8840560b31b87948501528251928391602a8601910161158b565b81016425204e4f2960d81b602a82015203600f8101845201826114c4565b50631512515160e21b60405191611956836114a8565b6004835282015290565b634e487b7160e01b81526011600452602490fd5b634e487b7160e01b84526011600452602484fd5b5050506c139bc81d9bdd195cc818d85cdd609a1b604051916119a9836114a8565b600d835282015290565b60001981146119c25760010190565b634e487b7160e01b600052601160045260246000fd5b919082018092116119c257565b80546801000000000000000081101561149257611a07916001820181556116a6565b819291549060031b91821b91600019901b1916179055565b8015611ac657600081805b611ab25750611a38816116d4565b90611a4660405192836114c4565b808252601f19611a55826116d4565b013660208401375b80928015611aab5760001982019182116119c2578193600a9260309084840682018092116119c257855111156116be5760f81b6001600160f81b03191660001a908401601f01530491611a5d565b5050905090565b90611abe600a916119b3565b910480611a2a565b50604051611ad3816114a8565b60018152600360fc1b60208201529056fea264697066735822122058ed5b251ba9951690eafc713a2b24f50b15ffdaf2bf908ed9100d14e13e1a7a64736f6c63430008180033","opcodes":"PUSH1 0x80 CALLVALUE PUSH2 0x81 JUMPI PUSH1 0x1F PUSH2 0x1BB7 CODESIZE DUP2 SWAP1 SUB SWAP2 DUP3 ADD PUSH1 0x1F NOT AND DUP4 ADD SWAP2 PUSH1 0x1 PUSH1 0x1 PUSH1 0x40 SHL SUB DUP4 GT DUP5 DUP5 LT OR PUSH2 0x86 JUMPI DUP1 DUP5 SWAP3 PUSH1 0x20 SWAP5 PUSH1 0x40 MSTORE DUP4 CODECOPY DUP2 ADD SUB SLT PUSH2 0x81 JUMPI MLOAD PUSH1 0x1 PUSH1 0x1 PUSH1 0xA0 SHL SUB DUP2 AND SWAP1 DUP2 SWAP1 SUB PUSH2 0x81 JUMPI PUSH1 0x1 DUP1 PUSH1 0xA0 SHL SUB NOT SWAP1 DUP2 PUSH1 0x0 SLOAD AND OR PUSH1 0x0 SSTORE CALLER SWAP1 PUSH1 0x1 SLOAD AND OR PUSH1 0x1 SSTORE PUSH1 0x0 PUSH1 0x2 SSTORE PUSH1 0x40 MLOAD PUSH2 0x1B1A SWAP1 DUP2 PUSH2 0x9D DUP3 CODECOPY RETURN JUMPDEST PUSH1 0x0 DUP1 REVERT JUMPDEST PUSH4 0x4E487B71 PUSH1 0xE0 SHL PUSH1 0x0 MSTORE PUSH1 0x41 PUSH1 0x4 MSTORE PUSH1 0x24 PUSH1 0x0 REVERT INVALID PUSH1 0x80 PUSH1 0x40 MSTORE PUSH1 0x4 CALLDATASIZE LT ISZERO PUSH2 0x12 JUMPI PUSH1 0x0 DUP1 REVERT JUMPDEST PUSH1 0x0 DUP1 CALLDATALOAD PUSH1 0xE0 SHR DUP1 PUSH4 0x13CF08B EQ PUSH2 0x13A8 JUMPI DUP1 PUSH4 0x3C7881A EQ PUSH2 0x1344 JUMPI DUP1 PUSH4 0xC0512E9 EQ PUSH2 0x10A1 JUMPI DUP1 PUSH4 0xD61B519 EQ PUSH2 0x10DB JUMPI DUP1 PUSH4 0xD95255B EQ PUSH2 0x10BF JUMPI DUP1 PUSH4 0x1A5007DD EQ PUSH2 0x10A1 JUMPI DUP1 PUSH4 0x1B31527F EQ PUSH2 0x1059 JUMPI DUP1 PUSH4 0x1C0D850E EQ PUSH2 0x1025 JUMPI DUP1 PUSH4 0x5B16D25D EQ PUSH2 0x8A9 JUMPI DUP1 PUSH4 0x70C3B424 EQ PUSH2 0x882 JUMPI DUP1 PUSH4 0x78EF1138 EQ PUSH2 0x80C JUMPI DUP1 PUSH4 0x8B3511F7 EQ PUSH2 0x7B6 JUMPI DUP1 PUSH4 0x950C7822 EQ PUSH2 0x730 JUMPI DUP1 PUSH4 0x98712B56 EQ PUSH2 0x714 JUMPI DUP1 PUSH4 0xB7D3438E EQ PUSH2 0x6F8 JUMPI DUP1 PUSH4 0xBB4D4436 EQ PUSH2 0x661 JUMPI DUP1 PUSH4 0xC7F758A8 EQ PUSH2 0x5BF JUMPI DUP1 PUSH4 0xD3C0715B EQ PUSH2 0x1F9 JUMPI DUP1 PUSH4 0xE2F273BD EQ PUSH2 0x124 JUMPI PUSH4 0xF851A440 EQ PUSH2 0xF9 JUMPI PUSH1 0x0 DUP1 REVERT JUMPDEST CALLVALUE PUSH2 0x121 JUMPI DUP1 PUSH1 0x3 NOT CALLDATASIZE ADD SLT PUSH2 0x121 JUMPI PUSH1 0x1 SLOAD PUSH1 0x40 MLOAD PUSH1 0x1 PUSH1 0x1 PUSH1 0xA0 SHL SUB SWAP1 SWAP2 AND DUP2 MSTORE PUSH1 0x20 SWAP1 RETURN JUMPDEST DUP1 REVERT JUMPDEST POP CALLVALUE PUSH2 0x121 JUMPI PUSH1 0x20 CALLDATASIZE PUSH1 0x3 NOT ADD SLT PUSH2 0x121 JUMPI PUSH2 0x13E PUSH2 0x1690 JUMP JUMPDEST PUSH1 0x1 SLOAD SWAP1 PUSH1 0x1 PUSH1 0x1 PUSH1 0xA0 SHL SUB SWAP1 DUP2 DUP4 AND CALLER SUB PUSH2 0x1AA JUMPI AND SWAP1 DUP2 ISZERO PUSH2 0x16D JUMPI PUSH1 0x1 PUSH1 0x1 PUSH1 0xA0 SHL SUB NOT AND OR PUSH1 0x1 SSTORE DUP1 RETURN JUMPDEST PUSH1 0x40 MLOAD PUSH3 0x461BCD PUSH1 0xE5 SHL DUP2 MSTORE PUSH1 0x20 PUSH1 0x4 DUP3 ADD MSTORE PUSH1 0x15 PUSH1 0x24 DUP3 ADD MSTORE PUSH21 0x496E76616C69642061646D696E2061646472657373 PUSH1 0x58 SHL PUSH1 0x44 DUP3 ADD MSTORE PUSH1 0x64 SWAP1 REVERT JUMPDEST PUSH1 0x40 MLOAD PUSH3 0x461BCD PUSH1 0xE5 SHL DUP2 MSTORE PUSH1 0x20 PUSH1 0x4 DUP3 ADD MSTORE PUSH1 0x21 PUSH1 0x24 DUP3 ADD MSTORE PUSH32 0x4F6E6C792061646D696E2063616E2063616C6C20746869732066756E6374696F PUSH1 0x44 DUP3 ADD MSTORE PUSH1 0x37 PUSH1 0xF9 SHL PUSH1 0x64 DUP3 ADD MSTORE PUSH1 0x84 SWAP1 REVERT JUMPDEST POP CALLVALUE PUSH2 0x121 JUMPI PUSH1 0x60 CALLDATASIZE PUSH1 0x3 NOT ADD SLT PUSH2 0x121 JUMPI PUSH1 0x24 PUSH1 0x4 CALLDATALOAD DUP2 CALLDATALOAD DUP1 ISZERO ISZERO DUP1 DUP3 SUB PUSH2 0x498 JUMPI PUSH1 0x44 SWAP4 DUP5 CALLDATALOAD PUSH8 0xFFFFFFFFFFFFFFFF DUP2 GT PUSH2 0x5BB JUMPI PUSH2 0x23E SWAP1 CALLDATASIZE SWAP1 PUSH1 0x4 ADD PUSH2 0x16F0 JUMP JUMPDEST SWAP5 DUP5 DUP8 MSTORE PUSH1 0x20 SWAP4 PUSH1 0x3 DUP6 MSTORE PUSH1 0x40 DUP9 KECCAK256 PUSH1 0x2 SLOAD DUP8 GT ISZERO DUP1 PUSH2 0x5B2 JUMPI JUMPDEST PUSH2 0x262 SWAP1 PUSH2 0x1773 JUMP JUMPDEST PUSH1 0xFF PUSH1 0x4 DUP3 ADD SLOAD PUSH1 0x8 SHR AND PUSH1 0x4 DUP2 LT ISZERO PUSH2 0x59F JUMPI PUSH2 0x280 SWAP1 ISZERO PUSH2 0x17B5 JUMP JUMPDEST PUSH1 0x8 DUP2 ADD SLOAD TIMESTAMP LT ISZERO PUSH2 0x566 JUMPI PUSH1 0xB DUP2 ADD SWAP2 CALLER PUSH1 0x0 MSTORE DUP3 DUP8 MSTORE PUSH1 0xFF PUSH1 0x40 PUSH1 0x0 KECCAK256 SLOAD AND PUSH2 0x533 JUMPI DUP10 SLOAD PUSH1 0x40 MLOAD PUSH4 0x70A08231 PUSH1 0xE0 SHL DUP2 MSTORE CALLER PUSH1 0x4 DUP3 ADD MSTORE SWAP6 SWAP4 PUSH1 0x1 PUSH1 0x1 PUSH1 0xA0 SHL SUB SWAP4 SWAP3 SWAP2 DUP10 SWAP1 DUP9 SWAP1 DUP8 SWAP1 DUP3 SWAP1 DUP9 AND GAS STATICCALL SWAP7 DUP8 ISZERO PUSH2 0x528 JUMPI DUP13 SWAP8 PUSH2 0x4F4 JUMPI JUMPDEST POP DUP7 ISZERO PUSH2 0x4B1 JUMPI SWAP1 DUP12 SWAP6 SWAP5 SWAP4 SWAP3 SWAP2 CALLER PUSH1 0x0 MSTORE DUP10 MSTORE PUSH1 0x40 PUSH1 0x0 KECCAK256 PUSH1 0xFF NOT SWAP1 PUSH1 0x1 DUP3 DUP3 SLOAD AND OR SWAP1 SSTORE PUSH1 0xC DUP4 ADD DUP11 MSTORE PUSH1 0x40 PUSH1 0x0 KECCAK256 SWAP1 DUP2 SLOAD AND PUSH1 0xFF DUP11 AND OR SWAP1 SSTORE PUSH1 0x7 DUP3 ADD PUSH2 0x32C DUP9 DUP3 SLOAD PUSH2 0x19D8 JUMP JUMPDEST SWAP1 SSTORE ISZERO PUSH2 0x49C JUMPI PUSH1 0x5 ADD PUSH2 0x341 DUP7 DUP3 SLOAD PUSH2 0x19D8 JUMP JUMPDEST SWAP1 SSTORE JUMPDEST CALLER DUP5 MSTORE PUSH1 0x5 DUP8 MSTORE PUSH2 0x358 DUP9 PUSH1 0x40 DUP7 KECCAK256 PUSH2 0x19E5 JUMP JUMPDEST DUP1 DUP5 SLOAD AND DUP1 EXTCODESIZE ISZERO PUSH2 0x498 JUMPI DUP5 DUP1 SWAP2 PUSH1 0xA4 PUSH1 0x40 MLOAD DUP1 SWAP5 DUP2 SWAP4 PUSH4 0x34FF2619 PUSH1 0xE2 SHL DUP4 MSTORE CALLER PUSH1 0x4 DUP5 ADD MSTORE PUSH1 0xA DUP10 DUP5 ADD MSTORE PUSH1 0x60 DUP11 DUP5 ADD MSTORE PUSH1 0x12 PUSH1 0x64 DUP5 ADD MSTORE PUSH18 0x2B37BA32902830B93A34B1B4B830BA34B7B7 PUSH1 0x71 SHL PUSH1 0x84 DUP5 ADD MSTORE GAS CALL SWAP1 DUP2 ISZERO PUSH2 0x48D JUMPI DUP6 SWAP2 PUSH2 0x479 JUMPI JUMPDEST POP SLOAD AND SWAP1 DUP2 EXTCODESIZE ISZERO PUSH2 0x475 JUMPI PUSH1 0x84 PUSH1 0x40 SWAP2 DUP6 DUP1 SWAP5 PUSH1 0x4 DUP6 MLOAD SWAP8 DUP9 SWAP7 DUP8 SWAP6 PUSH4 0x55AD3EAD PUSH1 0xE1 SHL DUP8 MSTORE CALLER DUP5 DUP9 ADD MSTORE DUP7 ADD MSTORE DUP5 ADD MSTORE PUSH4 0x766F7465 PUSH1 0xE0 SHL PUSH1 0x64 DUP5 ADD MSTORE GAS CALL DUP1 ISZERO PUSH2 0x46A JUMPI PUSH2 0x452 JUMPI JUMPDEST POP POP PUSH32 0x63453EBF8E1AA432B8D77257D489F75C1A106CDBD568C0E0C63547D20FC91FA8 SWAP3 PUSH1 0x40 MLOAD SWAP3 DUP4 MSTORE DUP3 ADD MSTORE PUSH1 0x60 PUSH1 0x40 DUP3 ADD MSTORE DUP1 PUSH2 0x44C CALLER SWAP6 PUSH1 0x60 DUP4 ADD SWAP1 PUSH2 0x15AE JUMP JUMPDEST SUB SWAP1 LOG3 DUP1 RETURN JUMPDEST PUSH2 0x45B SWAP1 PUSH2 0x147E JUMP JUMPDEST PUSH2 0x466 JUMPI DUP6 CODESIZE PUSH2 0x408 JUMP JUMPDEST DUP6 DUP1 REVERT JUMPDEST PUSH1 0x40 MLOAD RETURNDATASIZE DUP5 DUP3 RETURNDATACOPY RETURNDATASIZE SWAP1 REVERT JUMPDEST DUP4 DUP1 REVERT JUMPDEST PUSH2 0x482 SWAP1 PUSH2 0x147E JUMP JUMPDEST PUSH2 0x475 JUMPI DUP4 CODESIZE PUSH2 0x3BD JUMP JUMPDEST PUSH1 0x40 MLOAD RETURNDATASIZE DUP8 DUP3 RETURNDATACOPY RETURNDATASIZE SWAP1 REVERT JUMPDEST DUP5 DUP1 REVERT JUMPDEST PUSH1 0x6 ADD PUSH2 0x4AA DUP7 DUP3 SLOAD PUSH2 0x19D8 JUMP JUMPDEST SWAP1 SSTORE PUSH2 0x344 JUMP JUMPDEST PUSH1 0x40 MLOAD PUSH3 0x461BCD PUSH1 0xE5 SHL DUP2 MSTORE PUSH1 0x4 DUP2 ADD DUP11 SWAP1 MSTORE PUSH1 0x1B DUP2 DUP8 ADD MSTORE PUSH32 0x4E6F205354415420746F6B656E732C2063616E6E6F7420766F74650000000000 DUP2 DUP9 ADD MSTORE PUSH1 0x64 SWAP1 REVERT JUMPDEST SWAP1 SWAP7 POP DUP9 DUP2 DUP2 RETURNDATASIZE DUP4 GT PUSH2 0x521 JUMPI JUMPDEST PUSH2 0x50C DUP2 DUP4 PUSH2 0x14C4 JUMP JUMPDEST DUP2 ADD SUB SLT PUSH2 0x51C JUMPI MLOAD SWAP6 CODESIZE PUSH2 0x2E1 JUMP JUMPDEST PUSH1 0x0 DUP1 REVERT JUMPDEST POP RETURNDATASIZE PUSH2 0x502 JUMP JUMPDEST PUSH1 0x40 MLOAD RETURNDATASIZE DUP15 DUP3 RETURNDATACOPY RETURNDATASIZE SWAP1 REVERT JUMPDEST PUSH1 0x40 MLOAD PUSH3 0x461BCD PUSH1 0xE5 SHL DUP2 MSTORE PUSH1 0x4 DUP2 ADD DUP9 SWAP1 MSTORE PUSH1 0xD DUP2 DUP8 ADD MSTORE PUSH13 0x105B1C9958591E481D9BDD1959 PUSH1 0x9A SHL DUP2 DUP7 ADD MSTORE PUSH1 0x64 SWAP1 REVERT JUMPDEST PUSH1 0x40 MLOAD PUSH3 0x461BCD PUSH1 0xE5 SHL DUP2 MSTORE PUSH1 0x4 DUP2 ADD DUP8 SWAP1 MSTORE PUSH1 0x13 DUP2 DUP7 ADD MSTORE PUSH19 0x159BDD1A5B99C81C195C9A5BD908195B991959 PUSH1 0x6A SHL DUP2 DUP6 ADD MSTORE PUSH1 0x64 SWAP1 REVERT JUMPDEST PUSH4 0x4E487B71 PUSH1 0xE0 SHL DUP11 MSTORE PUSH1 0x21 PUSH1 0x4 MSTORE DUP5 DUP11 REVERT JUMPDEST POP DUP7 ISZERO ISZERO PUSH2 0x259 JUMP JUMPDEST DUP7 DUP1 REVERT JUMPDEST POP CALLVALUE PUSH2 0x121 JUMPI PUSH1 0x20 CALLDATASIZE PUSH1 0x3 NOT ADD SLT PUSH2 0x121 JUMPI PUSH1 0x40 SWAP1 PUSH1 0x4 CALLDATALOAD DUP2 MSTORE PUSH1 0x3 PUSH1 0x20 MSTORE KECCAK256 DUP1 SLOAD SWAP1 PUSH2 0x65D PUSH1 0x4 DUP3 ADD SLOAD SWAP3 PUSH1 0x5 DUP4 ADD SLOAD PUSH1 0x6 DUP5 ADD SLOAD PUSH1 0x7 DUP6 ADD SLOAD PUSH1 0x8 DUP7 ADD SLOAD SWAP2 PUSH1 0x9 DUP8 ADD SLOAD SWAP4 PUSH1 0xFF PUSH1 0xA DUP10 ADD SLOAD AND SWAP6 PUSH2 0x61B PUSH1 0x1 DUP11 ADD PUSH2 0x14E6 JUMP JUMPDEST SWAP10 PUSH2 0x634 PUSH1 0x3 PUSH2 0x62D PUSH1 0x2 DUP14 ADD PUSH2 0x14E6 JUMP JUMPDEST SWAP12 ADD PUSH2 0x14E6 JUMP JUMPDEST PUSH1 0x40 MLOAD SWAP12 DUP13 SWAP12 PUSH1 0x1 PUSH1 0x1 PUSH1 0xA0 SHL SUB PUSH1 0x10 DUP6 SWAP1 SHR AND SWAP5 PUSH1 0xFF PUSH1 0x8 DUP7 SWAP1 SHR DUP2 AND SWAP6 AND SWAP4 SWAP3 SWAP1 DUP15 PUSH2 0x15F6 JUMP JUMPDEST SUB SWAP1 RETURN JUMPDEST POP CALLVALUE PUSH2 0x121 JUMPI PUSH1 0x20 SWAP1 DUP2 PUSH1 0x3 NOT CALLDATASIZE ADD SLT PUSH2 0x121 JUMPI PUSH2 0x67D PUSH2 0x1690 JUMP JUMPDEST DUP2 SLOAD PUSH1 0x40 MLOAD PUSH4 0x70A08231 PUSH1 0xE0 SHL DUP2 MSTORE PUSH1 0x1 PUSH1 0x1 PUSH1 0xA0 SHL SUB SWAP3 DUP4 AND PUSH1 0x4 DUP3 ADD MSTORE SWAP2 DUP5 SWAP2 DUP4 SWAP2 PUSH1 0x24 SWAP2 DUP4 SWAP2 AND GAS STATICCALL SWAP2 DUP3 ISZERO PUSH2 0x6EC JUMPI SWAP2 PUSH2 0x6BF JUMPI JUMPDEST POP PUSH1 0x40 MLOAD SWAP1 DUP2 MSTORE RETURN JUMPDEST SWAP1 POP DUP2 DUP2 DUP2 RETURNDATASIZE DUP4 GT PUSH2 0x6E5 JUMPI JUMPDEST PUSH2 0x6D6 DUP2 DUP4 PUSH2 0x14C4 JUMP JUMPDEST DUP2 ADD SUB SLT PUSH2 0x51C JUMPI MLOAD CODESIZE PUSH2 0x6B6 JUMP JUMPDEST POP RETURNDATASIZE PUSH2 0x6CC JUMP JUMPDEST PUSH1 0x40 MLOAD SWAP1 RETURNDATASIZE SWAP1 DUP3 RETURNDATACOPY RETURNDATASIZE SWAP1 REVERT JUMPDEST POP CALLVALUE PUSH2 0x121 JUMPI DUP1 PUSH1 0x3 NOT CALLDATASIZE ADD SLT PUSH2 0x121 JUMPI PUSH1 0x20 PUSH1 0x40 MLOAD PUSH1 0x64 DUP2 MSTORE RETURN JUMPDEST POP CALLVALUE PUSH2 0x121 JUMPI DUP1 PUSH1 0x3 NOT CALLDATASIZE ADD SLT PUSH2 0x121 JUMPI PUSH1 0x20 PUSH1 0x40 MLOAD PUSH1 0x32 DUP2 MSTORE RETURN JUMPDEST POP CALLVALUE PUSH2 0x121 JUMPI PUSH1 0x20 DUP1 PUSH1 0x3 NOT CALLDATASIZE ADD SLT PUSH2 0x7B2 JUMPI PUSH1 0x1 PUSH1 0x1 PUSH1 0xA0 SHL SUB PUSH2 0x753 PUSH2 0x1690 JUMP JUMPDEST AND DUP3 MSTORE PUSH1 0x5 PUSH1 0x20 MSTORE PUSH1 0x40 DUP3 KECCAK256 SWAP2 PUSH1 0x40 MLOAD DUP1 SWAP3 PUSH1 0x20 DUP6 SLOAD SWAP3 DUP4 DUP2 MSTORE ADD SWAP5 DUP4 MSTORE PUSH1 0x20 DUP4 KECCAK256 SWAP3 SWAP1 JUMPDEST DUP3 DUP3 LT PUSH2 0x79B JUMPI PUSH2 0x65D DUP6 PUSH2 0x78F DUP2 DUP10 SUB DUP3 PUSH2 0x14C4 JUMP JUMPDEST PUSH1 0x40 MLOAD SWAP2 DUP3 SWAP2 DUP3 PUSH2 0x1737 JUMP JUMPDEST DUP4 SLOAD DUP7 MSTORE SWAP5 DUP6 ADD SWAP5 PUSH1 0x1 SWAP4 DUP5 ADD SWAP4 SWAP1 SWAP2 ADD SWAP1 PUSH2 0x778 JUMP JUMPDEST POP DUP1 REVERT JUMPDEST POP CALLVALUE PUSH2 0x121 JUMPI PUSH1 0x40 CALLDATASIZE PUSH1 0x3 NOT ADD SLT PUSH2 0x121 JUMPI PUSH2 0x7D0 PUSH2 0x1690 JUMP JUMPDEST PUSH1 0x1 PUSH1 0x1 PUSH1 0xA0 SHL SUB AND DUP2 MSTORE PUSH1 0x5 PUSH1 0x20 MSTORE PUSH1 0x40 DUP2 KECCAK256 DUP1 SLOAD PUSH1 0x24 CALLDATALOAD SWAP3 SWAP1 DUP4 LT ISZERO PUSH2 0x121 JUMPI PUSH1 0x20 PUSH2 0x7FE DUP5 DUP5 PUSH2 0x16A6 JUMP JUMPDEST SWAP1 SLOAD PUSH1 0x40 MLOAD SWAP2 PUSH1 0x3 SHL SHR DUP2 MSTORE RETURN JUMPDEST POP CALLVALUE PUSH2 0x121 JUMPI PUSH1 0x20 DUP1 PUSH1 0x3 NOT CALLDATASIZE ADD SLT PUSH2 0x7B2 JUMPI PUSH1 0x1 PUSH1 0x1 PUSH1 0xA0 SHL SUB PUSH2 0x82F PUSH2 0x1690 JUMP JUMPDEST AND DUP3 MSTORE PUSH1 0x4 PUSH1 0x20 MSTORE PUSH1 0x40 DUP3 KECCAK256 SWAP2 PUSH1 0x40 MLOAD DUP1 SWAP3 PUSH1 0x20 DUP6 SLOAD SWAP3 DUP4 DUP2 MSTORE ADD SWAP5 DUP4 MSTORE PUSH1 0x20 DUP4 KECCAK256 SWAP3 SWAP1 JUMPDEST DUP3 DUP3 LT PUSH2 0x86B JUMPI PUSH2 0x65D DUP6 PUSH2 0x78F DUP2 DUP10 SUB DUP3 PUSH2 0x14C4 JUMP JUMPDEST DUP4 SLOAD DUP7 MSTORE SWAP5 DUP6 ADD SWAP5 PUSH1 0x1 SWAP4 DUP5 ADD SWAP4 SWAP1 SWAP2 ADD SWAP1 PUSH2 0x854 JUMP JUMPDEST POP CALLVALUE PUSH2 0x121 JUMPI DUP1 PUSH1 0x3 NOT CALLDATASIZE ADD SLT PUSH2 0x121 JUMPI SLOAD PUSH1 0x40 MLOAD PUSH1 0x1 PUSH1 0x1 PUSH1 0xA0 SHL SUB SWAP1 SWAP2 AND DUP2 MSTORE PUSH1 0x20 SWAP1 RETURN JUMPDEST POP CALLVALUE PUSH2 0x121 JUMPI PUSH1 0xA0 CALLDATASIZE PUSH1 0x3 NOT ADD SLT PUSH2 0x121 JUMPI PUSH1 0x4 CALLDATALOAD PUSH8 0xFFFFFFFFFFFFFFFF DUP2 GT PUSH2 0x7B2 JUMPI PUSH2 0x8DB SWAP1 CALLDATASIZE SWAP1 PUSH1 0x4 ADD PUSH2 0x16F0 JUMP JUMPDEST PUSH1 0x24 CALLDATALOAD PUSH8 0xFFFFFFFFFFFFFFFF DUP2 GT PUSH2 0xC55 JUMPI PUSH2 0x8FB SWAP1 CALLDATASIZE SWAP1 PUSH1 0x4 ADD PUSH2 0x16F0 JUMP JUMPDEST SWAP1 PUSH1 0x44 CALLDATALOAD PUSH8 0xFFFFFFFFFFFFFFFF DUP2 GT PUSH2 0x475 JUMPI PUSH2 0x91C SWAP1 CALLDATASIZE SWAP1 PUSH1 0x4 ADD PUSH2 0x16F0 JUMP JUMPDEST PUSH1 0x3 PUSH1 0x64 CALLDATALOAD LT ISZERO PUSH2 0x475 JUMPI DUP2 MLOAD ISZERO PUSH2 0xFE8 JUMPI DUP3 MLOAD ISZERO PUSH2 0xFA3 JUMPI PUSH1 0x84 CALLDATALOAD ISZERO PUSH2 0xF5E JUMPI DUP4 SLOAD PUSH1 0x40 MLOAD PUSH4 0x70A08231 PUSH1 0xE0 SHL DUP2 MSTORE CALLER PUSH1 0x4 DUP3 ADD MSTORE SWAP1 PUSH1 0x20 SWAP1 DUP3 SWAP1 PUSH1 0x24 SWAP1 DUP3 SWAP1 PUSH1 0x1 PUSH1 0x1 PUSH1 0xA0 SHL SUB AND GAS STATICCALL DUP1 ISZERO PUSH2 0x48D JUMPI DUP6 SWAP1 PUSH2 0xF2B JUMPI JUMPDEST PUSH1 0x32 SWAP2 POP LT PUSH2 0xEDA JUMPI PUSH2 0x989 PUSH1 0x2 SLOAD PUSH2 0x19B3 JUMP JUMPDEST SWAP1 DUP2 PUSH1 0x2 SSTORE PUSH2 0x99A PUSH1 0x84 CALLDATALOAD TIMESTAMP PUSH2 0x19D8 JUMP JUMPDEST SWAP4 DUP3 DUP7 MSTORE PUSH1 0x3 PUSH1 0x20 MSTORE PUSH1 0x40 DUP7 KECCAK256 SWAP3 DUP4 SSTORE DUP4 MLOAD PUSH8 0xFFFFFFFFFFFFFFFF DUP2 GT PUSH2 0xE0C JUMPI PUSH2 0x9C8 PUSH1 0x1 DUP6 ADD SLOAD PUSH2 0x1444 JUMP JUMPDEST PUSH1 0x1F DUP2 GT PUSH2 0xE95 JUMPI JUMPDEST POP DUP1 PUSH1 0x20 PUSH1 0x1F DUP3 GT PUSH1 0x1 EQ PUSH2 0xE2B JUMPI DUP9 SWAP2 PUSH2 0xE20 JUMPI JUMPDEST POP DUP2 PUSH1 0x1 SHL SWAP2 PUSH1 0x0 NOT SWAP1 PUSH1 0x3 SHL SHR NOT AND OR PUSH1 0x1 DUP5 ADD SSTORE JUMPDEST DUP1 MLOAD SWAP1 PUSH8 0xFFFFFFFFFFFFFFFF DUP3 GT PUSH2 0xE0C JUMPI DUP2 SWAP1 PUSH2 0xA1F PUSH1 0x2 DUP7 ADD SLOAD PUSH2 0x1444 JUMP JUMPDEST PUSH1 0x1F DUP2 GT PUSH2 0xDBB JUMPI JUMPDEST POP PUSH1 0x20 SWAP1 PUSH1 0x1F DUP4 GT PUSH1 0x1 EQ PUSH2 0xD4C JUMPI DUP9 SWAP3 PUSH2 0xD41 JUMPI JUMPDEST POP POP DUP2 PUSH1 0x1 SHL SWAP2 PUSH1 0x0 NOT SWAP1 PUSH1 0x3 SHL SHR NOT AND OR PUSH1 0x2 DUP4 ADD SSTORE JUMPDEST DUP1 MLOAD SWAP1 PUSH8 0xFFFFFFFFFFFFFFFF DUP3 GT PUSH2 0xD2D JUMPI PUSH2 0xA75 PUSH1 0x3 DUP5 ADD SLOAD PUSH2 0x1444 JUMP JUMPDEST PUSH1 0x1F DUP2 GT PUSH2 0xCE8 JUMPI JUMPDEST POP PUSH1 0x20 SWAP1 PUSH1 0x1F DUP4 GT PUSH1 0x1 EQ PUSH2 0xC78 JUMPI PUSH1 0xA SWAP4 SWAP3 SWAP2 DUP8 SWAP2 DUP4 PUSH2 0xC6D JUMPI JUMPDEST POP POP DUP2 PUSH1 0x1 SHL SWAP2 PUSH1 0x0 NOT SWAP1 PUSH1 0x3 SHL SHR NOT AND OR PUSH1 0x3 DUP3 ADD SSTORE JUMPDEST PUSH1 0x4 DUP2 ADD DUP1 SLOAD PUSH3 0x10000 PUSH1 0x1 PUSH1 0xB0 SHL SUB CALLER PUSH1 0x10 SHL AND SWAP1 PUSH1 0xFF PUSH1 0x64 CALLDATALOAD AND SWAP1 PUSH10 0xFFFFFFFFFFFFFFFFFFFF PUSH1 0xB0 SHL AND OR OR SWAP1 SSTORE DUP5 PUSH1 0x5 DUP3 ADD SSTORE DUP5 PUSH1 0x6 DUP3 ADD SSTORE DUP5 PUSH1 0x7 DUP3 ADD SSTORE DUP4 PUSH1 0x8 DUP3 ADD SSTORE TIMESTAMP PUSH1 0x9 DUP3 ADD SSTORE ADD PUSH1 0xFF NOT DUP2 SLOAD AND SWAP1 SSTORE CALLER DUP4 MSTORE PUSH1 0x4 PUSH1 0x20 MSTORE PUSH2 0xB21 PUSH1 0x40 DUP5 KECCAK256 PUSH1 0x2 SLOAD SWAP1 PUSH2 0x19E5 JUMP JUMPDEST DUP3 SLOAD DUP4 SWAP1 PUSH1 0x1 PUSH1 0x1 PUSH1 0xA0 SHL SUB AND DUP1 EXTCODESIZE ISZERO PUSH2 0x7B2 JUMPI DUP2 DUP1 SWAP2 PUSH1 0xA4 PUSH1 0x40 MLOAD DUP1 SWAP5 DUP2 SWAP4 PUSH4 0x34FF2619 PUSH1 0xE2 SHL DUP4 MSTORE CALLER PUSH1 0x4 DUP5 ADD MSTORE PUSH1 0x32 PUSH1 0x24 DUP5 ADD MSTORE PUSH1 0x60 PUSH1 0x44 DUP5 ADD MSTORE PUSH1 0x10 PUSH1 0x64 DUP5 ADD MSTORE PUSH16 0x141C9BDC1BDCD85B0810DC99585D1959 PUSH1 0x82 SHL PUSH1 0x84 DUP5 ADD MSTORE GAS CALL DUP1 ISZERO PUSH2 0x46A JUMPI PUSH2 0xC59 JUMPI JUMPDEST POP DUP1 SLOAD PUSH1 0x1 PUSH1 0x1 PUSH1 0xA0 SHL SUB AND DUP1 EXTCODESIZE ISZERO PUSH2 0x7B2 JUMPI DUP2 DUP1 SWAP2 PUSH1 0x84 PUSH1 0x40 MLOAD DUP1 SWAP5 DUP2 SWAP4 PUSH4 0x55AD3EAD PUSH1 0xE1 SHL DUP4 MSTORE CALLER PUSH1 0x4 DUP5 ADD MSTORE PUSH1 0x40 PUSH1 0x24 DUP5 ADD MSTORE PUSH1 0x8 PUSH1 0x44 DUP5 ADD MSTORE PUSH8 0x1C1C9BDC1BDCD85B PUSH1 0xC2 SHL PUSH1 0x64 DUP5 ADD MSTORE GAS CALL DUP1 ISZERO PUSH2 0x46A JUMPI PUSH2 0xC41 JUMPI JUMPDEST POP POP PUSH32 0xD8244157BFCD2B10051DB9A0C53E954E429355CB86128797A0468E0892B92BF9 PUSH1 0x2 SLOAD SWAP2 PUSH2 0xC23 PUSH1 0x40 MLOAD SWAP2 PUSH1 0x60 DUP4 MSTORE PUSH1 0x60 DUP4 ADD SWAP1 PUSH2 0x15AE JUMP JUMPDEST SWAP4 PUSH2 0xC33 PUSH1 0x20 DUP4 ADD PUSH1 0x64 CALLDATALOAD PUSH2 0x15D3 JUMP JUMPDEST PUSH1 0x40 DUP3 ADD MSTORE DUP1 CALLER SWAP5 SUB SWAP1 LOG3 DUP1 RETURN JUMPDEST PUSH2 0xC4A SWAP1 PUSH2 0x147E JUMP JUMPDEST PUSH2 0xC55 JUMPI DUP3 CODESIZE PUSH2 0xBE7 JUMP JUMPDEST DUP3 DUP1 REVERT JUMPDEST PUSH2 0xC62 SWAP1 PUSH2 0x147E JUMP JUMPDEST PUSH2 0xC55 JUMPI DUP3 CODESIZE PUSH2 0xB8C JUMP JUMPDEST ADD MLOAD SWAP1 POP CODESIZE DUP1 PUSH2 0xA9A JUMP JUMPDEST SWAP1 PUSH1 0x3 DUP5 ADD DUP8 MSTORE PUSH1 0x20 DUP8 KECCAK256 SWAP2 DUP8 JUMPDEST PUSH1 0x1F NOT DUP6 AND DUP2 LT PUSH2 0xCD0 JUMPI POP SWAP2 DUP4 SWAP2 PUSH1 0x1 SWAP4 PUSH1 0xA SWAP7 SWAP6 PUSH1 0x1F NOT DUP2 AND LT PUSH2 0xCB7 JUMPI JUMPDEST POP POP POP DUP2 SHL ADD PUSH1 0x3 DUP3 ADD SSTORE PUSH2 0xAB2 JUMP JUMPDEST ADD MLOAD PUSH1 0x0 NOT PUSH1 0xF8 DUP5 PUSH1 0x3 SHL AND SHR NOT AND SWAP1 SSTORE CODESIZE DUP1 DUP1 PUSH2 0xCA7 JUMP JUMPDEST SWAP2 SWAP3 PUSH1 0x20 PUSH1 0x1 DUP2 SWAP3 DUP7 DUP6 ADD MLOAD DUP2 SSTORE ADD SWAP5 ADD SWAP3 ADD PUSH2 0xC86 JUMP JUMPDEST PUSH1 0x3 DUP5 ADD DUP8 MSTORE PUSH1 0x20 DUP8 KECCAK256 PUSH1 0x1F DUP5 ADD PUSH1 0x5 SHR DUP2 ADD PUSH1 0x20 DUP6 LT PUSH2 0xD26 JUMPI JUMPDEST PUSH1 0x1F DUP4 ADD PUSH1 0x5 SHR DUP3 ADD DUP2 LT PUSH2 0xD1A JUMPI POP POP PUSH2 0xA7E JUMP JUMPDEST PUSH1 0x0 DUP2 SSTORE PUSH1 0x1 ADD PUSH2 0xD04 JUMP JUMPDEST POP DUP1 PUSH2 0xD04 JUMP JUMPDEST PUSH4 0x4E487B71 PUSH1 0xE0 SHL DUP7 MSTORE PUSH1 0x41 PUSH1 0x4 MSTORE PUSH1 0x24 DUP7 REVERT JUMPDEST ADD MLOAD SWAP1 POP CODESIZE DUP1 PUSH2 0xA3E JUMP JUMPDEST SWAP3 POP PUSH1 0x2 DUP6 ADD DUP9 MSTORE PUSH1 0x20 DUP9 KECCAK256 SWAP1 DUP9 SWAP4 JUMPDEST PUSH1 0x1F NOT DUP5 AND DUP6 LT PUSH2 0xDA0 JUMPI PUSH1 0x1 SWAP5 POP DUP4 PUSH1 0x1F NOT DUP2 AND LT PUSH2 0xD87 JUMPI JUMPDEST POP POP POP DUP2 SHL ADD PUSH1 0x2 DUP4 ADD SSTORE PUSH2 0xA56 JUMP JUMPDEST ADD MLOAD PUSH1 0x0 NOT PUSH1 0xF8 DUP5 PUSH1 0x3 SHL AND SHR NOT AND SWAP1 SSTORE CODESIZE DUP1 DUP1 PUSH2 0xD77 JUMP JUMPDEST DUP2 DUP2 ADD MLOAD DUP4 SSTORE PUSH1 0x20 SWAP5 DUP6 ADD SWAP5 PUSH1 0x1 SWAP1 SWAP4 ADD SWAP3 SWAP1 SWAP2 ADD SWAP1 PUSH2 0xD5C JUMP JUMPDEST SWAP1 SWAP2 POP PUSH1 0x2 DUP6 ADD DUP9 MSTORE PUSH1 0x20 DUP9 KECCAK256 PUSH1 0x1F DUP5 ADD PUSH1 0x5 SHR DUP2 ADD PUSH1 0x20 DUP6 LT PUSH2 0xE05 JUMPI JUMPDEST SWAP1 DUP5 SWAP4 SWAP3 SWAP2 JUMPDEST PUSH1 0x1F DUP4 ADD PUSH1 0x5 SHR DUP3 ADD DUP2 LT PUSH2 0xDF6 JUMPI POP POP PUSH2 0xA28 JUMP JUMPDEST PUSH1 0x0 DUP2 SSTORE DUP6 SWAP5 POP PUSH1 0x1 ADD PUSH2 0xDE0 JUMP JUMPDEST POP DUP1 PUSH2 0xDDA JUMP JUMPDEST PUSH4 0x4E487B71 PUSH1 0xE0 SHL DUP8 MSTORE PUSH1 0x41 PUSH1 0x4 MSTORE PUSH1 0x24 DUP8 REVERT JUMPDEST SWAP1 POP DUP6 ADD MLOAD CODESIZE PUSH2 0x9E7 JUMP JUMPDEST SWAP2 POP PUSH1 0x1 DUP6 ADD DUP9 MSTORE PUSH1 0x20 DUP9 KECCAK256 DUP9 SWAP3 JUMPDEST PUSH1 0x1F NOT DUP4 AND DUP5 LT PUSH2 0xE7D JUMPI PUSH1 0x1 SWAP4 POP DUP3 PUSH1 0x1F NOT DUP2 AND LT PUSH2 0xE64 JUMPI JUMPDEST POP POP DUP2 SHL ADD PUSH1 0x1 DUP5 ADD SSTORE PUSH2 0x9FE JUMP JUMPDEST DUP8 ADD MLOAD PUSH1 0x0 NOT PUSH1 0xF8 DUP5 PUSH1 0x3 SHL AND SHR NOT AND SWAP1 SSTORE CODESIZE DUP1 PUSH2 0xE55 JUMP JUMPDEST DUP8 DUP2 ADD MLOAD DUP3 SSTORE PUSH1 0x20 SWAP4 DUP5 ADD SWAP4 PUSH1 0x1 SWAP1 SWAP3 ADD SWAP2 ADD PUSH2 0xE3A JUMP JUMPDEST PUSH1 0x1 DUP6 ADD DUP9 MSTORE PUSH1 0x20 DUP9 KECCAK256 PUSH1 0x1F DUP4 ADD PUSH1 0x5 SHR DUP2 ADD PUSH1 0x20 DUP5 LT PUSH2 0xED3 JUMPI JUMPDEST PUSH1 0x1F DUP4 ADD PUSH1 0x5 SHR DUP3 ADD DUP2 LT PUSH2 0xEC7 JUMPI POP POP PUSH2 0x9D1 JUMP JUMPDEST PUSH1 0x0 DUP2 SSTORE PUSH1 0x1 ADD PUSH2 0xEB1 JUMP JUMPDEST POP DUP1 PUSH2 0xEB1 JUMP JUMPDEST PUSH1 0x40 MLOAD PUSH3 0x461BCD PUSH1 0xE5 SHL DUP2 MSTORE PUSH1 0x20 PUSH1 0x4 DUP3 ADD MSTORE PUSH1 0x24 DUP1 DUP3 ADD MSTORE PUSH32 0x496E73756666696369656E74205354415420746F206372656174652070726F70 PUSH1 0x44 DUP3 ADD MSTORE PUSH4 0x1BDCD85B PUSH1 0xE2 SHL PUSH1 0x64 DUP3 ADD MSTORE PUSH1 0x84 SWAP1 REVERT JUMPDEST POP PUSH1 0x20 DUP2 RETURNDATASIZE PUSH1 0x20 GT PUSH2 0xF56 JUMPI JUMPDEST DUP2 PUSH2 0xF45 PUSH1 0x20 SWAP4 DUP4 PUSH2 0x14C4 JUMP JUMPDEST DUP2 ADD SUB SLT PUSH2 0x51C JUMPI PUSH1 0x32 SWAP1 MLOAD PUSH2 0x975 JUMP JUMPDEST RETURNDATASIZE SWAP2 POP PUSH2 0xF38 JUMP JUMPDEST PUSH1 0x40 MLOAD PUSH3 0x461BCD PUSH1 0xE5 SHL DUP2 MSTORE PUSH1 0x20 PUSH1 0x4 DUP3 ADD MSTORE PUSH1 0x19 PUSH1 0x24 DUP3 ADD MSTORE PUSH32 0x4475726174696F6E206D75737420626520706F73697469766500000000000000 PUSH1 0x44 DUP3 ADD MSTORE PUSH1 0x64 SWAP1 REVERT JUMPDEST PUSH1 0x40 MLOAD PUSH3 0x461BCD PUSH1 0xE5 SHL DUP2 MSTORE PUSH1 0x20 PUSH1 0x4 DUP3 ADD MSTORE PUSH1 0x1B PUSH1 0x24 DUP3 ADD MSTORE PUSH32 0x4465736372697074696F6E2063616E6E6F7420626520656D7074790000000000 PUSH1 0x44 DUP3 ADD MSTORE PUSH1 0x64 SWAP1 REVERT JUMPDEST PUSH1 0x40 MLOAD PUSH3 0x461BCD PUSH1 0xE5 SHL DUP2 MSTORE PUSH1 0x20 PUSH1 0x4 DUP3 ADD MSTORE PUSH1 0x15 PUSH1 0x24 DUP3 ADD MSTORE PUSH21 0x5469746C652063616E6E6F7420626520656D707479 PUSH1 0x58 SHL PUSH1 0x44 DUP3 ADD MSTORE PUSH1 0x64 SWAP1 REVERT JUMPDEST POP CALLVALUE PUSH2 0x121 JUMPI PUSH1 0x20 CALLDATASIZE PUSH1 0x3 NOT ADD SLT PUSH2 0x121 JUMPI PUSH2 0x65D PUSH2 0x1045 PUSH1 0x4 CALLDATALOAD PUSH2 0x1817 JUMP JUMPDEST PUSH1 0x40 MLOAD SWAP2 DUP3 SWAP2 PUSH1 0x20 DUP4 MSTORE PUSH1 0x20 DUP4 ADD SWAP1 PUSH2 0x15AE JUMP JUMPDEST POP CALLVALUE PUSH2 0x121 JUMPI PUSH1 0x40 CALLDATASIZE PUSH1 0x3 NOT ADD SLT PUSH2 0x121 JUMPI PUSH2 0x1073 PUSH2 0x1690 JUMP JUMPDEST PUSH1 0x1 PUSH1 0x1 PUSH1 0xA0 SHL SUB AND DUP2 MSTORE PUSH1 0x4 PUSH1 0x20 MSTORE PUSH1 0x40 DUP2 KECCAK256 DUP1 SLOAD PUSH1 0x24 CALLDATALOAD SWAP3 SWAP1 DUP4 LT ISZERO PUSH2 0x121 JUMPI PUSH1 0x20 PUSH2 0x7FE DUP5 DUP5 PUSH2 0x16A6 JUMP JUMPDEST POP CALLVALUE PUSH2 0x121 JUMPI DUP1 PUSH1 0x3 NOT CALLDATASIZE ADD SLT PUSH2 0x121 JUMPI PUSH1 0x20 PUSH1 0x2 SLOAD PUSH1 0x40 MLOAD SWAP1 DUP2 MSTORE RETURN JUMPDEST POP CALLVALUE PUSH2 0x121 JUMPI DUP1 PUSH1 0x3 NOT CALLDATASIZE ADD SLT PUSH2 0x121 JUMPI PUSH1 0x20 PUSH1 0x40 MLOAD PUSH1 0xA DUP2 MSTORE RETURN JUMPDEST POP CALLVALUE PUSH2 0x121 JUMPI PUSH1 0x20 CALLDATASIZE PUSH1 0x3 NOT ADD SLT PUSH2 0x121 JUMPI PUSH1 0x4 CALLDATALOAD DUP1 DUP3 MSTORE PUSH1 0x3 PUSH1 0x20 MSTORE PUSH1 0x40 DUP3 KECCAK256 PUSH1 0x2 SLOAD DUP3 GT ISZERO DUP1 PUSH2 0x133B JUMPI JUMPDEST PUSH2 0x1111 SWAP1 PUSH2 0x1773 JUMP JUMPDEST PUSH1 0x4 DUP2 ADD DUP1 SLOAD SWAP2 PUSH1 0xFF DUP4 PUSH1 0x8 SHR AND PUSH1 0x4 DUP2 LT ISZERO PUSH2 0x1327 JUMPI PUSH2 0x1132 SWAP1 ISZERO PUSH2 0x17B5 JUMP JUMPDEST PUSH1 0x8 DUP2 ADD SLOAD TIMESTAMP LT PUSH2 0x12E2 JUMPI PUSH1 0xA DUP2 ADD DUP1 SLOAD PUSH1 0xFF DUP2 AND PUSH2 0x129D JUMPI PUSH1 0xFF NOT AND PUSH1 0x1 OR SWAP1 SSTORE PUSH1 0x5 DUP2 ADD SLOAD PUSH1 0x6 SWAP2 SWAP1 SWAP2 ADD SLOAD LT SWAP2 DUP3 ISZERO PUSH2 0x1268 JUMPI POP DUP1 SLOAD PUSH2 0xFF00 NOT AND PUSH2 0x100 OR SWAP1 DUP2 SWAP1 SSTORE DUP4 SLOAD PUSH1 0x1 PUSH1 0x1 PUSH1 0xA0 SHL SUB SWAP1 DUP2 AND SWAP2 DUP6 SWAP2 SWAP1 DUP4 EXTCODESIZE ISZERO PUSH2 0xC55 JUMPI PUSH1 0xA4 SWAP1 DUP4 PUSH1 0x40 MLOAD SWAP6 DUP7 SWAP5 DUP6 SWAP4 PUSH4 0x34FF2619 PUSH1 0xE2 SHL DUP6 MSTORE PUSH1 0x10 SHR AND PUSH1 0x4 DUP5 ADD MSTORE PUSH1 0x64 PUSH1 0x24 DUP5 ADD MSTORE PUSH1 0x60 PUSH1 0x44 DUP5 ADD MSTORE PUSH1 0x19 PUSH1 0x64 DUP5 ADD MSTORE PUSH32 0x5375636365737366756C2050726F706F73616C20426F6E757300000000000000 PUSH1 0x84 DUP5 ADD MSTORE GAS CALL DUP1 ISZERO PUSH2 0x125D JUMPI PUSH2 0x1227 JUMPI JUMPDEST POP PUSH1 0x20 PUSH32 0x948F4A9CD986F1118C3FBD459F7A22B23C0693E1CA3EF06A6A8BE5AA7D39CC03 SWAP2 JUMPDEST PUSH1 0x40 MLOAD SWAP1 DUP2 MSTORE LOG2 DUP1 RETURN JUMPDEST PUSH32 0x948F4A9CD986F1118C3FBD459F7A22B23C0693E1CA3EF06A6A8BE5AA7D39CC03 SWAP2 SWAP4 PUSH2 0x1255 PUSH1 0x20 SWAP3 PUSH2 0x147E JUMP JUMPDEST SWAP4 SWAP2 POP PUSH2 0x11F7 JUMP JUMPDEST PUSH1 0x40 MLOAD RETURNDATASIZE DUP7 DUP3 RETURNDATACOPY RETURNDATASIZE SWAP1 REVERT JUMPDEST PUSH2 0xFF00 NOT AND PUSH2 0x200 OR SWAP1 SSTORE PUSH32 0x948F4A9CD986F1118C3FBD459F7A22B23C0693E1CA3EF06A6A8BE5AA7D39CC03 SWAP1 PUSH1 0x20 SWAP1 PUSH2 0x121D JUMP JUMPDEST PUSH1 0x40 MLOAD PUSH3 0x461BCD PUSH1 0xE5 SHL DUP2 MSTORE PUSH1 0x20 PUSH1 0x4 DUP3 ADD MSTORE PUSH1 0x19 PUSH1 0x24 DUP3 ADD MSTORE PUSH32 0x50726F706F73616C20616C726561647920657865637574656400000000000000 PUSH1 0x44 DUP3 ADD MSTORE PUSH1 0x64 SWAP1 REVERT JUMPDEST PUSH1 0x40 MLOAD PUSH3 0x461BCD PUSH1 0xE5 SHL DUP2 MSTORE PUSH1 0x20 PUSH1 0x4 DUP3 ADD MSTORE PUSH1 0x17 PUSH1 0x24 DUP3 ADD MSTORE PUSH32 0x566F74696E6720706572696F64206E6F7420656E646564000000000000000000 PUSH1 0x44 DUP3 ADD MSTORE PUSH1 0x64 SWAP1 REVERT JUMPDEST PUSH4 0x4E487B71 PUSH1 0xE0 SHL DUP7 MSTORE PUSH1 0x21 PUSH1 0x4 MSTORE PUSH1 0x24 DUP7 REVERT JUMPDEST POP DUP2 ISZERO ISZERO PUSH2 0x1108 JUMP JUMPDEST POP CALLVALUE PUSH2 0x121 JUMPI PUSH1 0x40 CALLDATASIZE PUSH1 0x3 NOT ADD SLT PUSH2 0x121 JUMPI PUSH1 0x24 CALLDATALOAD PUSH1 0x1 PUSH1 0x1 PUSH1 0xA0 SHL SUB DUP2 AND SWAP1 DUP2 SWAP1 SUB PUSH2 0x7B2 JUMPI PUSH1 0xFF PUSH1 0x40 DUP1 SWAP4 PUSH1 0x4 CALLDATALOAD DUP2 MSTORE PUSH1 0x3 PUSH1 0x20 MSTORE DUP2 DUP2 KECCAK256 SWAP4 DUP2 MSTORE PUSH1 0xB DUP5 ADD PUSH1 0x20 MSTORE PUSH1 0xC DUP4 DUP4 DUP4 KECCAK256 SLOAD AND SWAP5 ADD PUSH1 0x20 MSTORE KECCAK256 SLOAD AND DUP3 MLOAD SWAP2 ISZERO ISZERO DUP3 MSTORE ISZERO ISZERO PUSH1 0x20 DUP3 ADD MSTORE RETURN JUMPDEST POP CALLVALUE PUSH2 0x121 JUMPI PUSH1 0x20 CALLDATASIZE PUSH1 0x3 NOT ADD SLT PUSH2 0x121 JUMPI PUSH1 0x40 SWAP1 PUSH1 0x4 CALLDATALOAD DUP2 MSTORE PUSH1 0x3 PUSH1 0x20 MSTORE KECCAK256 DUP1 SLOAD SWAP1 PUSH2 0x65D PUSH2 0x13DA PUSH1 0x1 DUP4 ADD PUSH2 0x14E6 JUMP JUMPDEST PUSH2 0x13E6 PUSH1 0x2 DUP5 ADD PUSH2 0x14E6 JUMP JUMPDEST SWAP3 PUSH2 0x13F3 PUSH1 0x3 DUP3 ADD PUSH2 0x14E6 JUMP JUMPDEST SWAP5 PUSH1 0x4 DUP3 ADD SLOAD SWAP1 PUSH1 0x5 DUP4 ADD SLOAD PUSH1 0x6 DUP5 ADD SLOAD SWAP1 PUSH1 0x7 DUP6 ADD SLOAD SWAP3 PUSH1 0x8 DUP7 ADD SLOAD SWAP5 PUSH1 0xFF PUSH1 0xA PUSH1 0x9 DUP10 ADD SLOAD SWAP9 ADD SLOAD AND SWAP8 PUSH1 0x40 MLOAD SWAP12 DUP13 SWAP12 DUP13 SWAP3 PUSH1 0x1 DUP1 PUSH1 0xA0 SHL SUB DUP6 PUSH1 0x10 SHR AND SWAP6 PUSH1 0xFF DUP1 DUP8 PUSH1 0x8 SHR AND SWAP7 AND SWAP5 PUSH2 0x15F6 JUMP JUMPDEST SWAP1 PUSH1 0x1 DUP3 DUP2 SHR SWAP3 AND DUP1 ISZERO PUSH2 0x1474 JUMPI JUMPDEST PUSH1 0x20 DUP4 LT EQ PUSH2 0x145E JUMPI JUMP JUMPDEST PUSH4 0x4E487B71 PUSH1 0xE0 SHL PUSH1 0x0 MSTORE PUSH1 0x22 PUSH1 0x4 MSTORE PUSH1 0x24 PUSH1 0x0 REVERT JUMPDEST SWAP2 PUSH1 0x7F AND SWAP2 PUSH2 0x1453 JUMP JUMPDEST PUSH8 0xFFFFFFFFFFFFFFFF DUP2 GT PUSH2 0x1492 JUMPI PUSH1 0x40 MSTORE JUMP JUMPDEST PUSH4 0x4E487B71 PUSH1 0xE0 SHL PUSH1 0x0 MSTORE PUSH1 0x41 PUSH1 0x4 MSTORE PUSH1 0x24 PUSH1 0x0 REVERT JUMPDEST PUSH1 0x40 DUP2 ADD SWAP1 DUP2 LT PUSH8 0xFFFFFFFFFFFFFFFF DUP3 GT OR PUSH2 0x1492 JUMPI PUSH1 0x40 MSTORE JUMP JUMPDEST SWAP1 PUSH1 0x1F DUP1 NOT SWAP2 ADD AND DUP2 ADD SWAP1 DUP2 LT PUSH8 0xFFFFFFFFFFFFFFFF DUP3 GT OR PUSH2 0x1492 JUMPI PUSH1 0x40 MSTORE JUMP JUMPDEST SWAP1 PUSH1 0x40 MLOAD SWAP2 DUP3 PUSH1 0x0 DUP3 SLOAD PUSH2 0x14F9 DUP2 PUSH2 0x1444 JUMP JUMPDEST SWAP1 DUP2 DUP5 MSTORE PUSH1 0x20 SWAP5 PUSH1 0x1 SWAP2 PUSH1 0x1 DUP2 AND SWAP1 DUP2 PUSH1 0x0 EQ PUSH2 0x1569 JUMPI POP PUSH1 0x1 EQ PUSH2 0x152A JUMPI JUMPDEST POP POP POP PUSH2 0x1528 SWAP3 POP SUB DUP4 PUSH2 0x14C4 JUMP JUMPDEST JUMP JUMPDEST PUSH1 0x0 SWAP1 DUP2 MSTORE DUP6 DUP2 KECCAK256 SWAP6 SWAP4 POP SWAP2 SWAP1 JUMPDEST DUP2 DUP4 LT PUSH2 0x1551 JUMPI POP POP PUSH2 0x1528 SWAP4 POP DUP3 ADD ADD CODESIZE DUP1 DUP1 PUSH2 0x1519 JUMP JUMPDEST DUP6 SLOAD DUP9 DUP5 ADD DUP6 ADD MSTORE SWAP5 DUP6 ADD SWAP5 DUP8 SWAP5 POP SWAP2 DUP4 ADD SWAP2 PUSH2 0x1538 JUMP JUMPDEST SWAP3 POP POP POP PUSH2 0x1528 SWAP5 SWAP3 POP PUSH1 0xFF NOT AND DUP3 DUP5 ADD MSTORE ISZERO ISZERO PUSH1 0x5 SHL DUP3 ADD ADD CODESIZE DUP1 DUP1 PUSH2 0x1519 JUMP JUMPDEST PUSH1 0x0 JUMPDEST DUP4 DUP2 LT PUSH2 0x159E JUMPI POP POP PUSH1 0x0 SWAP2 ADD MSTORE JUMP JUMPDEST DUP2 DUP2 ADD MLOAD DUP4 DUP3 ADD MSTORE PUSH1 0x20 ADD PUSH2 0x158E JUMP JUMPDEST SWAP1 PUSH1 0x20 SWAP2 PUSH2 0x15C7 DUP2 MLOAD DUP1 SWAP3 DUP2 DUP6 MSTORE DUP6 DUP1 DUP7 ADD SWAP2 ADD PUSH2 0x158B JUMP JUMPDEST PUSH1 0x1F ADD PUSH1 0x1F NOT AND ADD ADD SWAP1 JUMP JUMPDEST SWAP1 PUSH1 0x3 DUP3 LT ISZERO PUSH2 0x15E0 JUMPI MSTORE JUMP JUMPDEST PUSH4 0x4E487B71 PUSH1 0xE0 SHL PUSH1 0x0 MSTORE PUSH1 0x21 PUSH1 0x4 MSTORE PUSH1 0x24 PUSH1 0x0 REVERT JUMPDEST SWAP12 SWAP9 SWAP6 SWAP11 SWAP8 SWAP5 SWAP14 SWAP13 SWAP10 SWAP7 SWAP4 SWAP1 DUP13 PUSH2 0x164D SWAP5 PUSH2 0x1626 PUSH2 0x1642 SWAP6 PUSH2 0x1634 SWAP5 PUSH2 0x1A0 SWAP1 DUP6 MSTORE DUP1 PUSH1 0x20 DUP7 ADD MSTORE DUP5 ADD SWAP1 PUSH2 0x15AE JUMP JUMPDEST SWAP2 PUSH1 0x40 DUP2 DUP5 SUB SWAP2 ADD MSTORE PUSH2 0x15AE JUMP JUMPDEST DUP13 DUP2 SUB PUSH1 0x60 DUP15 ADD MSTORE SWAP1 PUSH2 0x15AE JUMP JUMPDEST SWAP12 PUSH1 0x80 DUP12 ADD SWAP1 PUSH2 0x15D3 JUMP JUMPDEST PUSH1 0x4 DUP9 LT ISZERO PUSH2 0x15E0 JUMPI PUSH2 0x180 SWAP8 PUSH1 0xA0 DUP11 ADD MSTORE PUSH1 0x1 DUP1 PUSH1 0xA0 SHL SUB AND PUSH1 0xC0 DUP10 ADD MSTORE PUSH1 0xE0 DUP9 ADD MSTORE PUSH2 0x100 DUP8 ADD MSTORE PUSH2 0x120 DUP7 ADD MSTORE PUSH2 0x140 DUP6 ADD MSTORE PUSH2 0x160 DUP5 ADD MSTORE ISZERO ISZERO SWAP2 ADD MSTORE JUMP JUMPDEST PUSH1 0x4 CALLDATALOAD SWAP1 PUSH1 0x1 PUSH1 0x1 PUSH1 0xA0 SHL SUB DUP3 AND DUP3 SUB PUSH2 0x51C JUMPI JUMP JUMPDEST DUP1 SLOAD DUP3 LT ISZERO PUSH2 0x16BE JUMPI PUSH1 0x0 MSTORE PUSH1 0x20 PUSH1 0x0 KECCAK256 ADD SWAP1 PUSH1 0x0 SWAP1 JUMP JUMPDEST PUSH4 0x4E487B71 PUSH1 0xE0 SHL PUSH1 0x0 MSTORE PUSH1 0x32 PUSH1 0x4 MSTORE PUSH1 0x24 PUSH1 0x0 REVERT JUMPDEST PUSH8 0xFFFFFFFFFFFFFFFF DUP2 GT PUSH2 0x1492 JUMPI PUSH1 0x1F ADD PUSH1 0x1F NOT AND PUSH1 0x20 ADD SWAP1 JUMP JUMPDEST DUP2 PUSH1 0x1F DUP3 ADD SLT ISZERO PUSH2 0x51C JUMPI DUP1 CALLDATALOAD SWAP1 PUSH2 0x1707 DUP3 PUSH2 0x16D4 JUMP JUMPDEST SWAP3 PUSH2 0x1715 PUSH1 0x40 MLOAD SWAP5 DUP6 PUSH2 0x14C4 JUMP JUMPDEST DUP3 DUP5 MSTORE PUSH1 0x20 DUP4 DUP4 ADD ADD GT PUSH2 0x51C JUMPI DUP2 PUSH1 0x0 SWAP3 PUSH1 0x20 DUP1 SWAP4 ADD DUP4 DUP7 ADD CALLDATACOPY DUP4 ADD ADD MSTORE SWAP1 JUMP JUMPDEST PUSH1 0x20 SWAP1 PUSH1 0x20 PUSH1 0x40 DUP2 DUP4 ADD SWAP3 DUP3 DUP2 MSTORE DUP6 MLOAD DUP1 SWAP5 MSTORE ADD SWAP4 ADD SWAP2 PUSH1 0x0 JUMPDEST DUP3 DUP2 LT PUSH2 0x175F JUMPI POP POP POP POP SWAP1 JUMP JUMPDEST DUP4 MLOAD DUP6 MSTORE SWAP4 DUP2 ADD SWAP4 SWAP3 DUP2 ADD SWAP3 PUSH1 0x1 ADD PUSH2 0x1751 JUMP JUMPDEST ISZERO PUSH2 0x177A JUMPI JUMP JUMPDEST PUSH1 0x40 MLOAD PUSH3 0x461BCD PUSH1 0xE5 SHL DUP2 MSTORE PUSH1 0x20 PUSH1 0x4 DUP3 ADD MSTORE PUSH1 0x13 PUSH1 0x24 DUP3 ADD MSTORE PUSH19 0x125B9D985B1A59081C1C9BDC1BDCD85B081251 PUSH1 0x6A SHL PUSH1 0x44 DUP3 ADD MSTORE PUSH1 0x64 SWAP1 REVERT JUMPDEST ISZERO PUSH2 0x17BC JUMPI JUMP JUMPDEST PUSH1 0x40 MLOAD PUSH3 0x461BCD PUSH1 0xE5 SHL DUP2 MSTORE PUSH1 0x20 PUSH1 0x4 DUP3 ADD MSTORE PUSH1 0x13 PUSH1 0x24 DUP3 ADD MSTORE PUSH19 0x50726F706F73616C206E6F7420616374697665 PUSH1 0x68 SHL PUSH1 0x44 DUP3 ADD MSTORE PUSH1 0x64 SWAP1 REVERT JUMPDEST DUP2 ISZERO PUSH2 0x1801 JUMPI DIV SWAP1 JUMP JUMPDEST PUSH4 0x4E487B71 PUSH1 0xE0 SHL PUSH1 0x0 MSTORE PUSH1 0x12 PUSH1 0x4 MSTORE PUSH1 0x24 PUSH1 0x0 REVERT JUMPDEST PUSH1 0x0 SWAP1 DUP2 MSTORE PUSH1 0x20 SWAP1 PUSH1 0x3 DUP3 MSTORE PUSH1 0x40 DUP2 KECCAK256 SWAP1 PUSH1 0x7 DUP3 ADD SLOAD DUP1 ISZERO PUSH2 0x1988 JUMPI PUSH1 0x5 DUP4 ADD SLOAD SWAP1 PUSH1 0x64 DUP3 MUL DUP3 DUP2 DIV PUSH1 0x64 EQ DUP4 ISZERO OR ISZERO PUSH2 0x1974 JUMPI PUSH2 0x1857 DUP3 PUSH1 0x6 SWAP3 PUSH2 0x17F7 JUMP JUMPDEST SWAP5 ADD SLOAD SWAP3 PUSH1 0x64 DUP5 MUL SWAP1 DUP5 DUP3 DIV PUSH1 0x64 EQ DUP6 ISZERO OR ISZERO PUSH2 0x1960 JUMPI POP SWAP1 PUSH2 0x1879 SWAP2 PUSH2 0x17F7 JUMP JUMPDEST SWAP2 DUP1 DUP3 GT ISZERO PUSH2 0x18DF JUMPI POP POP POP PUSH1 0x2E PUSH2 0x18BD SWAP3 PUSH2 0x1897 PUSH2 0x18DC SWAP4 PUSH2 0x1A1F JUMP JUMPDEST PUSH1 0x40 MLOAD SWAP5 DUP3 PUSH8 0xA082A6A68A88405 PUSH1 0xC3 SHL DUP8 SWAP5 DUP6 ADD MSTORE DUP3 MLOAD SWAP3 DUP4 SWAP2 PUSH1 0x28 DUP7 ADD SWAP2 ADD PUSH2 0x158B JUMP JUMPDEST DUP2 ADD PUSH6 0x252059455329 PUSH1 0xD0 SHL PUSH1 0x28 DUP3 ADD MSTORE SUB PUSH1 0xE DUP2 ADD DUP5 MSTORE ADD DUP3 PUSH2 0x14C4 JUMP JUMPDEST SWAP1 JUMP JUMPDEST SWAP2 SWAP3 POP LT ISZERO PUSH2 0x1940 JUMPI PUSH1 0x2F PUSH2 0x1922 SWAP3 PUSH2 0x18FA PUSH2 0x18DC SWAP4 PUSH2 0x1A1F JUMP JUMPDEST PUSH1 0x40 MLOAD SWAP5 DUP3 PUSH10 0xA48A948A86A88A88405 PUSH1 0xB3 SHL DUP8 SWAP5 DUP6 ADD MSTORE DUP3 MLOAD SWAP3 DUP4 SWAP2 PUSH1 0x2A DUP7 ADD SWAP2 ADD PUSH2 0x158B JUMP JUMPDEST DUP2 ADD PUSH5 0x25204E4F29 PUSH1 0xD8 SHL PUSH1 0x2A DUP3 ADD MSTORE SUB PUSH1 0xF DUP2 ADD DUP5 MSTORE ADD DUP3 PUSH2 0x14C4 JUMP JUMPDEST POP PUSH4 0x15125151 PUSH1 0xE2 SHL PUSH1 0x40 MLOAD SWAP2 PUSH2 0x1956 DUP4 PUSH2 0x14A8 JUMP JUMPDEST PUSH1 0x4 DUP4 MSTORE DUP3 ADD MSTORE SWAP1 JUMP JUMPDEST PUSH4 0x4E487B71 PUSH1 0xE0 SHL DUP2 MSTORE PUSH1 0x11 PUSH1 0x4 MSTORE PUSH1 0x24 SWAP1 REVERT JUMPDEST PUSH4 0x4E487B71 PUSH1 0xE0 SHL DUP5 MSTORE PUSH1 0x11 PUSH1 0x4 MSTORE PUSH1 0x24 DUP5 REVERT JUMPDEST POP POP POP PUSH13 0x139BC81D9BDD195CC818D85CDD PUSH1 0x9A SHL PUSH1 0x40 MLOAD SWAP2 PUSH2 0x19A9 DUP4 PUSH2 0x14A8 JUMP JUMPDEST PUSH1 0xD DUP4 MSTORE DUP3 ADD MSTORE SWAP1 JUMP JUMPDEST PUSH1 0x0 NOT DUP2 EQ PUSH2 0x19C2 JUMPI PUSH1 0x1 ADD SWAP1 JUMP JUMPDEST PUSH4 0x4E487B71 PUSH1 0xE0 SHL PUSH1 0x0 MSTORE PUSH1 0x11 PUSH1 0x4 MSTORE PUSH1 0x24 PUSH1 0x0 REVERT JUMPDEST SWAP2 SWAP1 DUP3 ADD DUP1 SWAP3 GT PUSH2 0x19C2 JUMPI JUMP JUMPDEST DUP1 SLOAD PUSH9 0x10000000000000000 DUP2 LT ISZERO PUSH2 0x1492 JUMPI PUSH2 0x1A07 SWAP2 PUSH1 0x1 DUP3 ADD DUP2 SSTORE PUSH2 0x16A6 JUMP JUMPDEST DUP2 SWAP3 SWAP2 SLOAD SWAP1 PUSH1 0x3 SHL SWAP2 DUP3 SHL SWAP2 PUSH1 0x0 NOT SWAP1 SHL NOT AND OR SWAP1 SSTORE JUMP JUMPDEST DUP1 ISZERO PUSH2 0x1AC6 JUMPI PUSH1 0x0 DUP2 DUP1 JUMPDEST PUSH2 0x1AB2 JUMPI POP PUSH2 0x1A38 DUP2 PUSH2 0x16D4 JUMP JUMPDEST SWAP1 PUSH2 0x1A46 PUSH1 0x40 MLOAD SWAP3 DUP4 PUSH2 0x14C4 JUMP JUMPDEST DUP1 DUP3 MSTORE PUSH1 0x1F NOT PUSH2 0x1A55 DUP3 PUSH2 0x16D4 JUMP JUMPDEST ADD CALLDATASIZE PUSH1 0x20 DUP5 ADD CALLDATACOPY JUMPDEST DUP1 SWAP3 DUP1 ISZERO PUSH2 0x1AAB JUMPI PUSH1 0x0 NOT DUP3 ADD SWAP2 DUP3 GT PUSH2 0x19C2 JUMPI DUP2 SWAP4 PUSH1 0xA SWAP3 PUSH1 0x30 SWAP1 DUP5 DUP5 MOD DUP3 ADD DUP1 SWAP3 GT PUSH2 0x19C2 JUMPI DUP6 MLOAD GT ISZERO PUSH2 0x16BE JUMPI PUSH1 0xF8 SHL PUSH1 0x1 PUSH1 0x1 PUSH1 0xF8 SHL SUB NOT AND PUSH1 0x0 BYTE SWAP1 DUP5 ADD PUSH1 0x1F ADD MSTORE8 DIV SWAP2 PUSH2 0x1A5D JUMP JUMPDEST POP POP SWAP1 POP SWAP1 JUMP JUMPDEST SWAP1 PUSH2 0x1ABE PUSH1 0xA SWAP2 PUSH2 0x19B3 JUMP JUMPDEST SWAP2 DIV DUP1 PUSH2 0x1A2A JUMP JUMPDEST POP PUSH1 0x40 MLOAD PUSH2 0x1AD3 DUP2 PUSH2 0x14A8 JUMP JUMPDEST PUSH1 0x1 DUP2 MSTORE PUSH1 0x3 PUSH1 0xFC SHL PUSH1 0x20 DUP3 ADD MSTORE SWAP1 JUMP INVALID LOG2 PUSH5 0x6970667358 0x22 SLT KECCAK256 PC 0xED JUMPDEST 0x25 SHL 0xA9 SWAP6 AND SWAP1 0xEA 0xFC PUSH18 0x3A2B24F50B15FFDAF2BF908ED9100D14E13E BYTE PUSH27 0x64736F6C6343000818003300000000000000000000000000000000 "},"methodIdentifiers":{"PROPOSAL_CREATION_REWARD()":"98712b56","SUCCESSFUL_PROPOSAL_BONUS()":"b7d3438e","VOTE_PARTICIPATION_REWARD()":"0d95255b","admin()":"f851a440","createProposal(string,string,string,uint8,uint256)":"5b16d25d","executeProposal(uint256)":"0d61b519","getProposal(uint256)":"c7f758a8","getTotalProposals()":"1a5007dd","getUserProposals(address)":"78ef1138","getUserVote(uint256,address)":"03c7881a","getUserVotes(address)":"950c7822","getVotingPower(address)":"bb4d4436","getVotingResult(uint256)":"1c0d850e","proposalCounter()":"0c0512e9","proposals(uint256)":"013cf08b","statToken()":"70c3b424","updateAdmin(address)":"e2f273bd","userProposals(address,uint256)":"1b31527f","userVotes(address,uint256)":"8b3511f7","vote(uint256,bool,string)":"d3c0715b"}}}}}