{"contracts/VlayerZKVerifier.sol":{"VlayerZKVerifier":{"abi":[{"inputs":[{"internalType":"address","name":"_vlayerVerifier","type":"address"}],"stateMutability":"nonpayable","type":"constructor"},{"anonymous":false,"inputs":[{"indexed":false,"internalType":"string","name":"name","type":"string"},{"indexed":false,"internalType":"string","name":"description","type":"string"}],"name":"CircuitAdded","type":"event"},{"anonymous":false,"inputs":[{"indexed":false,"internalType":"string","name":"name","type":"string"},{"indexed":false,"internalType":"bool","name":"isActive","type":"bool"}],"name":"CircuitUpdated","type":"event"},{"anonymous":false,"inputs":[{"indexed":true,"internalType":"bytes32","name":"proofId","type":"bytes32"},{"indexed":true,"internalType":"address","name":"prover","type":"address"},{"indexed":false,"internalType":"string","name":"proofType","type":"string"},{"indexed":false,"internalType":"uint256","name":"timestamp","type":"uint256"}],"name":"ProofSubmitted","type":"event"},{"anonymous":false,"inputs":[{"indexed":true,"internalType":"bytes32","name":"proofId","type":"bytes32"},{"indexed":false,"internalType":"bool","name":"isValid","type":"bool"},{"indexed":false,"internalType":"uint256","name":"timestamp","type":"uint256"}],"name":"ProofVerified","type":"event"},{"inputs":[{"internalType":"string","name":"name","type":"string"},{"internalType":"string","name":"description","type":"string"},{"internalType":"uint256","name":"maxPublicSignals","type":"uint256"}],"name":"addCircuit","outputs":[],"stateMutability":"nonpayable","type":"function"},{"inputs":[],"name":"admin","outputs":[{"internalType":"address","name":"","type":"address"}],"stateMutability":"view","type":"function"},{"inputs":[{"internalType":"string","name":"","type":"string"}],"name":"circuits","outputs":[{"internalType":"string","name":"name","type":"string"},{"internalType":"string","name":"description","type":"string"},{"internalType":"bool","name":"isActive","type":"bool"},{"internalType":"uint256","name":"maxPublicSignals","type":"uint256"}],"stateMutability":"view","type":"function"},{"inputs":[{"internalType":"string","name":"name","type":"string"}],"name":"getCircuit","outputs":[{"components":[{"internalType":"string","name":"name","type":"string"},{"internalType":"string","name":"description","type":"string"},{"internalType":"bool","name":"isActive","type":"bool"},{"internalType":"uint256","name":"maxPublicSignals","type":"uint256"}],"internalType":"struct VlayerZKVerifier.Circuit","name":"","type":"tuple"}],"stateMutability":"view","type":"function"},{"inputs":[{"internalType":"bytes32","name":"proofId","type":"bytes32"}],"name":"getProof","outputs":[{"components":[{"internalType":"uint256[8]","name":"proof","type":"uint256[8]"},{"internalType":"uint256[]","name":"publicSignals","type":"uint256[]"},{"internalType":"string","name":"proofType","type":"string"},{"internalType":"uint256","name":"timestamp","type":"uint256"},{"internalType":"bool","name":"isValid","type":"bool"},{"internalType":"address","name":"prover","type":"address"}],"internalType":"struct VlayerZKVerifier.ZKProof","name":"","type":"tuple"}],"stateMutability":"view","type":"function"},{"inputs":[],"name":"getTotalProofs","outputs":[{"internalType":"uint256","name":"","type":"uint256"}],"stateMutability":"view","type":"function"},{"inputs":[{"internalType":"address","name":"user","type":"address"}],"name":"getUserProofs","outputs":[{"internalType":"bytes32[]","name":"","type":"bytes32[]"}],"stateMutability":"view","type":"function"},{"inputs":[{"internalType":"bytes32","name":"nullifierHash","type":"bytes32"}],"name":"isNullifierUsed","outputs":[{"internalType":"bool","name":"","type":"bool"}],"stateMutability":"view","type":"function"},{"inputs":[{"internalType":"bytes32","name":"","type":"bytes32"}],"name":"nullifierHashes","outputs":[{"internalType":"bool","name":"","type":"bool"}],"stateMutability":"view","type":"function"},{"inputs":[],"name":"pause","outputs":[],"stateMutability":"nonpayable","type":"function"},{"inputs":[],"name":"proofCounter","outputs":[{"internalType":"uint256","name":"","type":"uint256"}],"stateMutability":"view","type":"function"},{"inputs":[{"internalType":"bytes32","name":"","type":"bytes32"}],"name":"proofs","outputs":[{"internalType":"string","name":"proofType","type":"string"},{"internalType":"uint256","name":"timestamp","type":"uint256"},{"internalType":"bool","name":"isValid","type":"bool"},{"internalType":"address","name":"prover","type":"address"}],"stateMutability":"view","type":"function"},{"inputs":[{"internalType":"uint256[8]","name":"proof","type":"uint256[8]"},{"internalType":"uint256[]","name":"publicSignals","type":"uint256[]"},{"internalType":"string","name":"proofType","type":"string"},{"internalType":"bytes32","name":"nullifierHash","type":"bytes32"}],"name":"submitProof","outputs":[{"internalType":"bytes32","name":"proofId","type":"bytes32"}],"stateMutability":"nonpayable","type":"function"},{"inputs":[],"name":"unpause","outputs":[],"stateMutability":"nonpayable","type":"function"},{"inputs":[{"internalType":"string","name":"name","type":"string"},{"internalType":"bool","name":"isActive","type":"bool"}],"name":"updateCircuit","outputs":[],"stateMutability":"nonpayable","type":"function"},{"inputs":[{"internalType":"address","name":"_vlayerVerifier","type":"address"}],"name":"updateVlayerVerifier","outputs":[],"stateMutability":"nonpayable","type":"function"},{"inputs":[{"internalType":"address","name":"","type":"address"},{"internalType":"uint256","name":"","type":"uint256"}],"name":"userProofs","outputs":[{"internalType":"bytes32","name":"","type":"bytes32"}],"stateMutability":"view","type":"function"},{"inputs":[{"internalType":"bytes32","name":"proofId","type":"bytes32"}],"name":"verifyProof","outputs":[{"internalType":"bool","name":"","type":"bool"}],"stateMutability":"view","type":"function"},{"inputs":[],"name":"vlayerVerifier","outputs":[{"internalType":"address","name":"","type":"address"}],"stateMutability":"view","type":"function"}],"evm":{"bytecode":{"linkReferences":{},"object":"60803462000f3357601f6200273a38819003918201601f19168301916001600160401b03831184841017620009365780849260209460405283398101031262000f3357516001600160a01b0381169081900362000f335760018060a01b031933816004541617600455600554161760055560006006556200007f62000f58565b60108152602081016f35bcb196bb32b934b334b1b0ba34b7b760811b8152620000a762000f78565b90602a82527f4b594320766572696669636174696f6e207769746820576f726c642049442069602083015269373a32b3b930ba34b7b760b11b6040830152620000ef62000f38565b8381526200011f602080830193858552600160408501526004606085015260405180938192895192839162000f98565b8101600181520301902091815180519060018060401b0382116200093657845490600182811c9216801562000f28575b6020831014620009155781601f84931162000ed3575b50602090601f831160011462000e625760009262000e56575b50508160011b916000199060031b1c19161783555b518051906001600160401b03821162000936576001840154600181811c9116801562000e4b575b60208210146200091557601f811162000dff575b50602090601f831160011462000d855760606200026194846200025298956000805160206200271a8339815191529a989560039560009262000827575b505060001982861b1c1916600191821b17908501555b600284016040820151151560ff80198354169116179055015191015560405193849360408552604085019062000fbd565b90838203602085015262000fbd565b0390a16200026e62000f58565b601281526020810171766f74696e672d656c69676962696c69747960701b81526200029862000f78565b90603482527f56657269667920766f74696e6720656c69676962696c69747920776974686f7560208301527f742072657665616c696e67206964656e746974790000000000000000000000006040830152620003226020620002f962000f38565b928584528482850152600160408501526005606085015260405180938192885192839162000f98565b8101600181520301902090805180519060018060401b0382116200093657835490600182811c9216801562000d7a575b6020831014620009155781601f84931162000d25575b50602090601f831160011462000cb45760009262000ca8575b50508160011b916000199060031b1c19161782555b60208101518051906001600160401b03821162000936576001840154600181811c9116801562000c9d575b60208210146200091557601f811162000c51575b50602090601f831160011462000bd75760606200045794846200025298956000805160206200271a8339815191529a98956003956000926200082757505060001982861b1c1916600191821b1790850155600284016040820151151560ff80198354169116179055015191015560405193849360408552604085019062000fbd565b0390a16200046462000f58565b60108152602081016f616e6f6e796d6f75732d766f74696e6760801b81526200048c62000f58565b90601f82527f416e6f6e796d6f757320766f74696e672077697468206e756c6c6966696572006020830152620004f06020620004c762000f38565b928584528482850152600160408501526006606085015260405180938192885192839162000f98565b8101600181520301902090805180519060018060401b0382116200093657835490600182811c9216801562000bcc575b6020831014620009155781601f84931162000b77575b50602090601f831160011462000b065760009262000afa575b50508160011b916000199060031b1c19161782555b60208101518051906001600160401b03821162000936576001840154600181811c9116801562000aef575b60208210146200091557601f811162000aa3575b50602090601f831160011462000a295760606200062594846200025298956000805160206200271a8339815191529a98956003956000926200082757505060001982861b1c1916600191821b1790850155600284016040820151151560ff80198354169116179055015191015560405193849360408552604085019062000fbd565b0390a16200063262000f58565b601781527f6d656d626572736869702d766572696669636174696f6e00000000000000000060208201526200066662000f78565b602e81527f50726f76652044414f206d656d6265727368697020776974686f75742072657660208201526d65616c696e672064657461696c7360901b6040820152620006b162000f38565b82815281602082015260016040820152600460608201526040516020818551620006df8183858a0162000f98565b8101600181520301902090805180519060018060401b0382116200093657835490600182811c9216801562000a1e575b6020831014620009155781601f849311620009c9575b50602090601f831160011462000958576000926200094c575b50508160011b916000199060031b1c19161782555b60208101518051906001600160401b03821162000936576001840154600181811c911680156200092b575b60208210146200091557601f8111620008c5575b50602090601f8311600114620008335760606200081494846200025298956000805160206200271a8339815191529a98956003956000926200082757505060001982861b1c1916600191821b1790850155600284016040820151151560ff80198354169116179055015191015560405193849360408552604085019062000fbd565b0390a1604051611735908162000fe58239f35b0151905038806200020b565b90601f198316916001860160005260206000209260005b818110620008ac5750946001856000805160206200271a8339815191529a9895600395606095620002529c99620008149b1062000893575b505050811b01600185015562000221565b015160001983881b60f8161c1916905538808062000882565b929360206001819287860151815501950193016200084a565b600185016000526020600020601f840160051c810191602085106200090a575b601f0160051c01905b818110620008fd575062000792565b60008155600101620008ee565b9091508190620008e5565b634e487b7160e01b600052602260045260246000fd5b90607f16906200077e565b634e487b7160e01b600052604160045260246000fd5b0151905038806200073e565b9250846000526020600020906000935b601f1984168510620009ad576001945083601f1981161062000993575b505050811b01825562000753565b015160001960f88460031b161c1916905538808062000985565b8181015183556020948501946001909301929091019062000968565b909150846000526020600020601f840160051c81016020851062000a16575b90849392915b601f830160051c8201811062000a0657505062000725565b60008155859450600101620009ee565b5080620009e8565b91607f16916200070f565b906001850160005260206000209160005b601f198516811062000a8a575062000625946001856000805160206200271a8339815191529a9895600395606095620002529c99601f198116106200089357505050811b01600185015562000221565b9192602060018192868501518155019401920162000a3a565b600185016000526020600020601f840160051c81016020851062000ae7575b601f830160051c8201811062000ada575050620005a3565b6000815560010162000ac2565b508062000ac2565b90607f16906200058f565b0151905038806200054f565b9250846000526020600020906000935b601f198416851062000b5b576001945083601f1981161062000b41575b505050811b01825562000564565b015160001960f88460031b161c1916905538808062000b33565b8181015183556020948501946001909301929091019062000b16565b909150846000526020600020601f840160051c81016020851062000bc4575b90849392915b601f830160051c8201811062000bb457505062000536565b6000815585945060010162000b9c565b508062000b96565b91607f169162000520565b906001850160005260206000209160005b601f198516811062000c38575062000457946001856000805160206200271a8339815191529a9895600395606095620002529c99601f198116106200089357505050811b01600185015562000221565b9192602060018192868501518155019401920162000be8565b600185016000526020600020601f840160051c81016020851062000c95575b601f830160051c8201811062000c88575050620003d5565b6000815560010162000c70565b508062000c70565b90607f1690620003c1565b01519050388062000381565b9250846000526020600020906000935b601f198416851062000d09576001945083601f1981161062000cef575b505050811b01825562000396565b015160001960f88460031b161c1916905538808062000ce1565b8181015183556020948501946001909301929091019062000cc4565b909150846000526020600020601f840160051c81016020851062000d72575b90849392915b601f830160051c8201811062000d6257505062000368565b6000815585945060010162000d4a565b508062000d44565b91607f169162000352565b906001850160005260206000209160005b601f198516811062000de6575062000261946001856000805160206200271a8339815191529a9895600395606095620002529c99601f198116106200089357505050811b01600185015562000221565b9192602060018192868501518155019401920162000d96565b600185016000526020600020601f840160051c81016020851062000e43575b601f830160051c8201811062000e36575050620001ce565b6000815560010162000e1e565b508062000e1e565b90607f1690620001ba565b0151905038806200017e565b9250856000526020600020906000935b601f198416851062000eb7576001945083601f1981161062000e9d575b505050811b01835562000193565b015160001960f88460031b161c1916905538808062000e8f565b8181015183556020948501946001909301929091019062000e72565b909150856000526020600020601f840160051c81016020851062000f20575b90849392915b601f830160051c8201811062000f1057505062000165565b6000815585945060010162000ef8565b508062000ef2565b91607f16916200014f565b600080fd5b60405190608082016001600160401b038111838210176200093657604052565b60408051919082016001600160401b038111838210176200093657604052565b60405190606082016001600160401b038111838210176200093657604052565b60005b83811062000fac5750506000910152565b818101518382015260200162000f9b565b9060209162000fd88151809281855285808601910162000f98565b601f01601f191601019056fe608080604052600436101561001357600080fd5b60003560e01c90816317cc915c146111ac575080631b80bb3a146110175780631caa449c14610fee5780631f09a2e214610cbe57806322dc7b4c14610c8d578063275d419114610b4f578063373b58e614610af75780633f4ba83a1461038d5780634370a39b146104e0578063444d95b01461046957806346bdfb80146103b55780636d9f43701461036f5780638456cb591461038d5780639b1bc0c91461036f5780639ea2cd38146102c0578063b142b4ec14610270578063e4baeda31461016f578063f6eb0c0c1461011e5763f851a440146100f057600080fd5b34610119576000366003190112610119576004546040516001600160a01b039091168152602090f35b600080fd5b3461011957602036600319011261011957610137611305565b6004546001600160a01b03919061015190831633146114ef565b166bffffffffffffffffffffffff60a01b6005541617600555600080f35b346101195760208060031936011261011957600435906001600160401b038211610119576101da816101a760809436906004016112af565b600060606040516101b78161123c565b8181528185820152826040820152015281604051938285809451938492016111d9565b81016001815203019020604051916101f18361123c565b6101fa82611383565b835261025d61020b60018401611383565b82850190815261024a600360ff6002870154169560408801961515875201549360608701948552604051978897828952519188015260a08701906111fc565b9051858203601f190160408701526111fc565b9151151560608401525160808301520390f35b34610119576020366003190112610119576004358060005260006020526102a0600a604060002001541515611428565b6000526000602052602060ff600b60406000200154166040519015158152f35b34610119576020366003190112610119576004356001600160401b0381116101195761030b60206102f86103509336906004016112af565b81604051938285809451938492016111d9565b8101600181520301902061031e81611383565b9061032b60018201611383565b61035e600360ff600285015416930154916040519586956080875260808701906111fc565b9085820360208701526111fc565b911515604084015260608301520390f35b34610119576000366003190112610119576020600654604051908152f35b34610119576000366003190112610119576103b360018060a01b036004541633146114ef565b005b3461011957602080600319360112610119576001600160a01b036103d7611305565b1660005260028152604060002060405190818382549182815201908192600052846000209060005b868282106104555786866104158288038361128e565b604051928392818401908285525180915260408401929160005b82811061043e57505050500390f35b83518552869550938101939281019260010161042f565b8354855290930192600192830192016103ff565b346101195760203660031901126101195760043560005260006020526104b8604060002061049960098201611383565b90600b600a8201549101546040519384936080855260808501906111fc565b602084019290925260ff81161515604084015260081c6001600160a01b031660608301520390f35b34610119576101603660031901126101195736602312156101195760405161050781611257565b61010481368211610119576004905b828210610ae7575050356001600160401b0381116101195736602382011215610119578060040135906001600160401b0382116108b2578160051b60405192610562602083018561128e565b8352602460208401918301019136831161011957602401905b828210610ad757505050610124356001600160401b038111610119576105a59036906004016112af565b916101443560405160ff6002865192602081818a01956105c68183896111d9565b8101600181520301902001541615610a9d578351600360405160208189516105ef8183896111d9565b81016001815203019020015410610a58578451902061060c611545565b60208151910120146109e6575b5060065460001981146109d0576001018060065560405160208101913360601b83526034820152426054820152605481526106538161123c565b519020916040519161066483611221565b82526020820152826040820152426060820152600060808201523360a08201528160005260006020526040600020815160005b600881106109bc57505060208201518051906001600160401b0382116108b257600160401b82116108b257602090600884015483600886015580841061099c575b500160088301600052602060002060005b838110610988575050505060408201518051906001600160401b0382116108b2576107176009840154611349565b601f8111610948575b50602090601f83116001146108d357918060a09492600b946000926108c8575b50508160011b916000199060031b1c19161760098201555b6060840151600a820155019161078060808201511515849060ff801983541691151516179055565b01518154610100600160a81b03191660089190911b610100600160a81b031617905533600090815260026020526040902080549290600160401b8410156108b257836107d391600160209601815561131b565b81549060031b9084821b91600019901b1916179055817fdb677e795581b981fcc03f2063af7a50f2f1934a4721d6f23d5f1e694b0997bb61081f604051936040855260408501906111fc565b9242868201528033940390a38060005260008252807f0c0afd2d440ecce8f50a3a8fb8c422b4bb32611b01094a5041d71f88dd21c6a96040600b61089d8260002061088a61086c8261146b565b6108786008840161149e565b61088460098501611383565b91611588565b9201805460ff191660ff84151516179055565b815190151581524286820152a2604051908152f35b634e487b7160e01b600052604160045260246000fd5b015190508880610740565b906009840160005260206000209160005b601f198516811061093057509260a09492600192600b9583601f19811610610917575b505050811b016009820155610758565b015160001960f88460031b161c19169055888080610907565b919260206001819286850151815501940192016108e4565b61097890600985016000526020600020601f850160051c8101916020861061097e575b601f0160051c0190611571565b86610720565b909150819061096b565b6001906020845194019381840155016106e9565b6109b6906008860160005284846000209182019101611571565b876106d8565b600190602083519301928185015501610697565b634e487b7160e01b600052601160045260246000fd5b80600052600360205260ff60406000205416610a1a5760005260036020526040600020600160ff1982541617905583610619565b60405162461bcd60e51b8152602060048201526016602482015275139d5b1b1a599a595c88185b1c9958591e481d5cd95960521b6044820152606490fd5b60405162461bcd60e51b815260206004820152601760248201527f546f6f206d616e79207075626c6963207369676e616c730000000000000000006044820152606490fd5b60405162461bcd60e51b815260206004820152601260248201527143697263756974206e6f742061637469766560701b6044820152606490fd5b813581526020918201910161057b565b8135815260209182019101610516565b3461011957604036600319011261011957610b10611305565b6001600160a01b031660009081526002602052604090208054602435919082101561011957602091610b419161131b565b90546040519160031b1c8152f35b34610119576040366003190112610119576004356001600160401b03811161011957610b7f9036906004016112af565b6024358015159182820361011957610ba260018060a01b036004541633146114ef565b60405192610bce82519460208181860197610bbe81838b6111d9565b8101600181520301902054611349565b15610c4f57610c30610c44936002610c1460207f60c372d33f420baaee2db69302e63d22fe0f81ad9352d18e31c7b856a311abb398604051809381928a519283916111d9565b81016001815203019020019060ff801983541691151516179055565b6040519283926040845260408401906111fc565b9060208301520390a1005b60405162461bcd60e51b815260206004820152601660248201527510da5c98dd5a5d08191bd95cc81b9bdd08195e1a5cdd60521b6044820152606490fd5b34610119576020366003190112610119576004356000526003602052602060ff604060002054166040519015158152f35b34610119576060366003190112610119576001600160401b0360043581811161011957610cef9036906004016112af565b60243582811161011957610d079036906004016112af565b610d1c60018060a01b036004541633146114ef565b60405190610d298261123c565b8282526020918281018281526040820160019182825260608401926044358452604051878181610d5f8c838151938492016111d9565b810184815203019020945180518a81116108b25780610d7e8854611349565b92601f938b858211610fbf575b50508a90848311600114610f5c57600092610f51575b5050600019600383901b1c191690831b1786555b818601925180519a8b116108b257610dcd8454611349565b8b838211610f18575b505088918b11600114610e8257936003938b807f0ffa02a982d35d608cd43813952adac44f611d562fbe92ca6085aeb0dc0831d49d610e729b9996610e4d96610e659f9e9c9a600094610e77575b50501b9160001990881b1c19161790555b511515600285019060ff801983541691151516179055565b519101556040519485946040865260408601906111fc565b91848303908501526111fc565b0390a1005b015192503880610e24565b9990601f1982169a84600052896000209b60005b818110610f03575093837f0ffa02a982d35d608cd43813952adac44f611d562fbe92ca6085aeb0dc0831d49d610e659d9c9a989460039894610e4d97610e729e9c9910610eeb575b505050811b019055610e35565b0151600019838a1b60f8161c191690558e8080610ede565b838301518e559c85019c928b01928b01610e96565b610f419186600052848c600020918d82850160051c84019410610f48575b0160051c0190611571565b8b8b610dd6565b92508192610f36565b015190508c80610da1565b60008a81528c8120879550929190601f198516908e5b828210610fa85750508411610f8f575b505050811b018655610db5565b015160001960f88460031b161c191690558c8080610f82565b83850151865589979095019493840193018e610f72565b610fe7918b60005286826000209181870160051c8301938710610f48570160051c0190611571565b8d8b610d8b565b34610119576000366003190112610119576005546040516001600160a01b039091168152602090f35b346101195760208060031936011261011957600435600060a060405161103c81611221565b60405161104881611257565b61010036823781526060858201526060604082015282606082015282608082015201528060005260008252611086600a604060002001541515611428565b6000526000815260406000206040519061109f82611221565b6110a88161146b565b82526008916110b96008830161149e565b8482019081526110cb60098401611383565b60408301908152600b600a8501549460608501958652015490608084019060ff83161515825260018060a01b03938460a087019460081c168452604051978989018a8a526101c08a0197516000915b838310611196575050505051976101a095866101208a01528951809152816101e08a019a019160005b828110611182575050505086976111679151601f19898303016101408a01526111fc565b94516101608701525115156101808601525116908301520390f35b83518c529a81019a92810192600101611143565b8151815260019290920191908c01908c0161111a565b34610119576020366003190112610119576020906004356000526003825260ff6040600020541615158152f35b60005b8381106111ec5750506000910152565b81810151838201526020016111dc565b90602091611215815180928185528580860191016111d9565b601f01601f1916010190565b60c081019081106001600160401b038211176108b257604052565b608081019081106001600160401b038211176108b257604052565b61010081019081106001600160401b038211176108b257604052565b604081019081106001600160401b038211176108b257604052565b90601f801991011681019081106001600160401b038211176108b257604052565b81601f82011215610119578035906001600160401b0382116108b257604051926112e3601f8401601f19166020018561128e565b8284526020838301011161011957816000926020809301838601378301015290565b600435906001600160a01b038216820361011957565b80548210156113335760005260206000200190600090565b634e487b7160e01b600052603260045260246000fd5b90600182811c92168015611379575b602083101461136357565b634e487b7160e01b600052602260045260246000fd5b91607f1691611358565b9060405191826000825461139681611349565b9081845260209460019160018116908160001461140657506001146113c7575b5050506113c59250038361128e565b565b600090815285812095935091905b8183106113ee5750506113c593508201013880806113b6565b855488840185015294850194879450918301916113d5565b925050506113c594925060ff191682840152151560051b8201013880806113b6565b1561142f57565b60405162461bcd60e51b8152602060048201526014602482015273141c9bdbd988191bd95cc81b9bdd08195e1a5cdd60621b6044820152606490fd5b60405191906000835b60088210611488575050506113c582611257565b6001602081928554815201930191019091611474565b90604051918281549182825260209260208301916000526020600020936000905b8282106114d5575050506113c59250038361128e565b8554845260019586019588955093810193909101906114bf565b156114f657565b60405162461bcd60e51b815260206004820152602160248201527f4f6e6c792061646d696e2063616e2063616c6c20746869732066756e6374696f6044820152603760f91b6064820152608490fd5b6040519061155282611273565b601082526f616e6f6e796d6f75732d766f74696e6760801b6020830152565b81811061157c575050565b60008155600101611571565b919091511580156116f6575b6116ef578051907f955d37fc839cad7a92b3ac87986e1b665589c694070b87f2ca77c5661427fc9f602082019283206f35bcb196bb32b934b334b1b0ba34b7b760811b60206040516115e581611273565b601081520152036115fb57505060039051101590565b7f5c14477785f304953b925dfe8ba8932ffb039937c5277f6ef9249f2cba2b730b8151832071766f74696e672d656c69676962696c69747960701b602060405161164481611273565b6012815201520361165a57505060049051101590565b80518220611666611545565b602081519101201460001461168057505060039051101590565b907f8264c34c5b601e0429c899c166c2e703af24af96dfaa5b74570101330e047a47915190207f6d656d626572736869702d766572696669636174696f6e00000000000000000060206040516116d581611273565b601781520152146116e65750600190565b60039051101590565b5050600090565b5081511561159456fea26469706673582212209350f5451dd52f171dcd08424eda2b57c4c44a4034b19280c68ddcb1eb9ac44e64736f6c634300081800330ffa02a982d35d608cd43813952adac44f611d562fbe92ca6085aeb0dc0831d4","opcodes":"PUSH1 0x80 CALLVALUE PUSH3 0xF33 JUMPI PUSH1 0x1F PUSH3 0x273A CODESIZE DUP2 SWAP1 SUB SWAP2 DUP3 ADD PUSH1 0x1F NOT AND DUP4 ADD SWAP2 PUSH1 0x1 PUSH1 0x1 PUSH1 0x40 SHL SUB DUP4 GT DUP5 DUP5 LT OR PUSH3 0x936 JUMPI DUP1 DUP5 SWAP3 PUSH1 0x20 SWAP5 PUSH1 0x40 MSTORE DUP4 CODECOPY DUP2 ADD SUB SLT PUSH3 0xF33 JUMPI MLOAD PUSH1 0x1 PUSH1 0x1 PUSH1 0xA0 SHL SUB DUP2 AND SWAP1 DUP2 SWAP1 SUB PUSH3 0xF33 JUMPI PUSH1 0x1 DUP1 PUSH1 0xA0 SHL SUB NOT CALLER DUP2 PUSH1 0x4 SLOAD AND OR PUSH1 0x4 SSTORE PUSH1 0x5 SLOAD AND OR PUSH1 0x5 SSTORE PUSH1 0x0 PUSH1 0x6 SSTORE PUSH3 0x7F PUSH3 0xF58 JUMP JUMPDEST PUSH1 0x10 DUP2 MSTORE PUSH1 0x20 DUP2 ADD PUSH16 0x35BCB196BB32B934B334B1B0BA34B7B7 PUSH1 0x81 SHL DUP2 MSTORE PUSH3 0xA7 PUSH3 0xF78 JUMP JUMPDEST SWAP1 PUSH1 0x2A DUP3 MSTORE PUSH32 0x4B594320766572696669636174696F6E207769746820576F726C642049442069 PUSH1 0x20 DUP4 ADD MSTORE PUSH10 0x373A32B3B930BA34B7B7 PUSH1 0xB1 SHL PUSH1 0x40 DUP4 ADD MSTORE PUSH3 0xEF PUSH3 0xF38 JUMP JUMPDEST DUP4 DUP2 MSTORE PUSH3 0x11F PUSH1 0x20 DUP1 DUP4 ADD SWAP4 DUP6 DUP6 MSTORE PUSH1 0x1 PUSH1 0x40 DUP6 ADD MSTORE PUSH1 0x4 PUSH1 0x60 DUP6 ADD MSTORE PUSH1 0x40 MLOAD DUP1 SWAP4 DUP2 SWAP3 DUP10 MLOAD SWAP3 DUP4 SWAP2 PUSH3 0xF98 JUMP JUMPDEST DUP2 ADD PUSH1 0x1 DUP2 MSTORE SUB ADD SWAP1 KECCAK256 SWAP2 DUP2 MLOAD DUP1 MLOAD SWAP1 PUSH1 0x1 DUP1 PUSH1 0x40 SHL SUB DUP3 GT PUSH3 0x936 JUMPI DUP5 SLOAD SWAP1 PUSH1 0x1 DUP3 DUP2 SHR SWAP3 AND DUP1 ISZERO PUSH3 0xF28 JUMPI JUMPDEST PUSH1 0x20 DUP4 LT EQ PUSH3 0x915 JUMPI DUP2 PUSH1 0x1F DUP5 SWAP4 GT PUSH3 0xED3 JUMPI JUMPDEST POP PUSH1 0x20 SWAP1 PUSH1 0x1F DUP4 GT PUSH1 0x1 EQ PUSH3 0xE62 JUMPI PUSH1 0x0 SWAP3 PUSH3 0xE56 JUMPI JUMPDEST POP POP DUP2 PUSH1 0x1 SHL SWAP2 PUSH1 0x0 NOT SWAP1 PUSH1 0x3 SHL SHR NOT AND OR DUP4 SSTORE JUMPDEST MLOAD DUP1 MLOAD SWAP1 PUSH1 0x1 PUSH1 0x1 PUSH1 0x40 SHL SUB DUP3 GT PUSH3 0x936 JUMPI PUSH1 0x1 DUP5 ADD SLOAD PUSH1 0x1 DUP2 DUP2 SHR SWAP2 AND DUP1 ISZERO PUSH3 0xE4B JUMPI JUMPDEST PUSH1 0x20 DUP3 LT EQ PUSH3 0x915 JUMPI PUSH1 0x1F DUP2 GT PUSH3 0xDFF JUMPI JUMPDEST POP PUSH1 0x20 SWAP1 PUSH1 0x1F DUP4 GT PUSH1 0x1 EQ PUSH3 0xD85 JUMPI PUSH1 0x60 PUSH3 0x261 SWAP5 DUP5 PUSH3 0x252 SWAP9 SWAP6 PUSH1 0x0 DUP1 MLOAD PUSH1 0x20 PUSH3 0x271A DUP4 CODECOPY DUP2 MLOAD SWAP2 MSTORE SWAP11 SWAP9 SWAP6 PUSH1 0x3 SWAP6 PUSH1 0x0 SWAP3 PUSH3 0x827 JUMPI JUMPDEST POP POP PUSH1 0x0 NOT DUP3 DUP7 SHL SHR NOT AND PUSH1 0x1 SWAP2 DUP3 SHL OR SWAP1 DUP6 ADD SSTORE JUMPDEST PUSH1 0x2 DUP5 ADD PUSH1 0x40 DUP3 ADD MLOAD ISZERO ISZERO PUSH1 0xFF DUP1 NOT DUP4 SLOAD AND SWAP2 AND OR SWAP1 SSTORE ADD MLOAD SWAP2 ADD SSTORE PUSH1 0x40 MLOAD SWAP4 DUP5 SWAP4 PUSH1 0x40 DUP6 MSTORE PUSH1 0x40 DUP6 ADD SWAP1 PUSH3 0xFBD JUMP JUMPDEST SWAP1 DUP4 DUP3 SUB PUSH1 0x20 DUP6 ADD MSTORE PUSH3 0xFBD JUMP JUMPDEST SUB SWAP1 LOG1 PUSH3 0x26E PUSH3 0xF58 JUMP JUMPDEST PUSH1 0x12 DUP2 MSTORE PUSH1 0x20 DUP2 ADD PUSH18 0x766F74696E672D656C69676962696C697479 PUSH1 0x70 SHL DUP2 MSTORE PUSH3 0x298 PUSH3 0xF78 JUMP JUMPDEST SWAP1 PUSH1 0x34 DUP3 MSTORE PUSH32 0x56657269667920766F74696E6720656C69676962696C69747920776974686F75 PUSH1 0x20 DUP4 ADD MSTORE PUSH32 0x742072657665616C696E67206964656E74697479000000000000000000000000 PUSH1 0x40 DUP4 ADD MSTORE PUSH3 0x322 PUSH1 0x20 PUSH3 0x2F9 PUSH3 0xF38 JUMP JUMPDEST SWAP3 DUP6 DUP5 MSTORE DUP5 DUP3 DUP6 ADD MSTORE PUSH1 0x1 PUSH1 0x40 DUP6 ADD MSTORE PUSH1 0x5 PUSH1 0x60 DUP6 ADD MSTORE PUSH1 0x40 MLOAD DUP1 SWAP4 DUP2 SWAP3 DUP9 MLOAD SWAP3 DUP4 SWAP2 PUSH3 0xF98 JUMP JUMPDEST DUP2 ADD PUSH1 0x1 DUP2 MSTORE SUB ADD SWAP1 KECCAK256 SWAP1 DUP1 MLOAD DUP1 MLOAD SWAP1 PUSH1 0x1 DUP1 PUSH1 0x40 SHL SUB DUP3 GT PUSH3 0x936 JUMPI DUP4 SLOAD SWAP1 PUSH1 0x1 DUP3 DUP2 SHR SWAP3 AND DUP1 ISZERO PUSH3 0xD7A JUMPI JUMPDEST PUSH1 0x20 DUP4 LT EQ PUSH3 0x915 JUMPI DUP2 PUSH1 0x1F DUP5 SWAP4 GT PUSH3 0xD25 JUMPI JUMPDEST POP PUSH1 0x20 SWAP1 PUSH1 0x1F DUP4 GT PUSH1 0x1 EQ PUSH3 0xCB4 JUMPI PUSH1 0x0 SWAP3 PUSH3 0xCA8 JUMPI JUMPDEST POP POP DUP2 PUSH1 0x1 SHL SWAP2 PUSH1 0x0 NOT SWAP1 PUSH1 0x3 SHL SHR NOT AND OR DUP3 SSTORE JUMPDEST PUSH1 0x20 DUP2 ADD MLOAD DUP1 MLOAD SWAP1 PUSH1 0x1 PUSH1 0x1 PUSH1 0x40 SHL SUB DUP3 GT PUSH3 0x936 JUMPI PUSH1 0x1 DUP5 ADD SLOAD PUSH1 0x1 DUP2 DUP2 SHR SWAP2 AND DUP1 ISZERO PUSH3 0xC9D JUMPI JUMPDEST PUSH1 0x20 DUP3 LT EQ PUSH3 0x915 JUMPI PUSH1 0x1F DUP2 GT PUSH3 0xC51 JUMPI JUMPDEST POP PUSH1 0x20 SWAP1 PUSH1 0x1F DUP4 GT PUSH1 0x1 EQ PUSH3 0xBD7 JUMPI PUSH1 0x60 PUSH3 0x457 SWAP5 DUP5 PUSH3 0x252 SWAP9 SWAP6 PUSH1 0x0 DUP1 MLOAD PUSH1 0x20 PUSH3 0x271A DUP4 CODECOPY DUP2 MLOAD SWAP2 MSTORE SWAP11 SWAP9 SWAP6 PUSH1 0x3 SWAP6 PUSH1 0x0 SWAP3 PUSH3 0x827 JUMPI POP POP PUSH1 0x0 NOT DUP3 DUP7 SHL SHR NOT AND PUSH1 0x1 SWAP2 DUP3 SHL OR SWAP1 DUP6 ADD SSTORE PUSH1 0x2 DUP5 ADD PUSH1 0x40 DUP3 ADD MLOAD ISZERO ISZERO PUSH1 0xFF DUP1 NOT DUP4 SLOAD AND SWAP2 AND OR SWAP1 SSTORE ADD MLOAD SWAP2 ADD SSTORE PUSH1 0x40 MLOAD SWAP4 DUP5 SWAP4 PUSH1 0x40 DUP6 MSTORE PUSH1 0x40 DUP6 ADD SWAP1 PUSH3 0xFBD JUMP JUMPDEST SUB SWAP1 LOG1 PUSH3 0x464 PUSH3 0xF58 JUMP JUMPDEST PUSH1 0x10 DUP2 MSTORE PUSH1 0x20 DUP2 ADD PUSH16 0x616E6F6E796D6F75732D766F74696E67 PUSH1 0x80 SHL DUP2 MSTORE PUSH3 0x48C PUSH3 0xF58 JUMP JUMPDEST SWAP1 PUSH1 0x1F DUP3 MSTORE PUSH32 0x416E6F6E796D6F757320766F74696E672077697468206E756C6C696669657200 PUSH1 0x20 DUP4 ADD MSTORE PUSH3 0x4F0 PUSH1 0x20 PUSH3 0x4C7 PUSH3 0xF38 JUMP JUMPDEST SWAP3 DUP6 DUP5 MSTORE DUP5 DUP3 DUP6 ADD MSTORE PUSH1 0x1 PUSH1 0x40 DUP6 ADD MSTORE PUSH1 0x6 PUSH1 0x60 DUP6 ADD MSTORE PUSH1 0x40 MLOAD DUP1 SWAP4 DUP2 SWAP3 DUP9 MLOAD SWAP3 DUP4 SWAP2 PUSH3 0xF98 JUMP JUMPDEST DUP2 ADD PUSH1 0x1 DUP2 MSTORE SUB ADD SWAP1 KECCAK256 SWAP1 DUP1 MLOAD DUP1 MLOAD SWAP1 PUSH1 0x1 DUP1 PUSH1 0x40 SHL SUB DUP3 GT PUSH3 0x936 JUMPI DUP4 SLOAD SWAP1 PUSH1 0x1 DUP3 DUP2 SHR SWAP3 AND DUP1 ISZERO PUSH3 0xBCC JUMPI JUMPDEST PUSH1 0x20 DUP4 LT EQ PUSH3 0x915 JUMPI DUP2 PUSH1 0x1F DUP5 SWAP4 GT PUSH3 0xB77 JUMPI JUMPDEST POP PUSH1 0x20 SWAP1 PUSH1 0x1F DUP4 GT PUSH1 0x1 EQ PUSH3 0xB06 JUMPI PUSH1 0x0 SWAP3 PUSH3 0xAFA JUMPI JUMPDEST POP POP DUP2 PUSH1 0x1 SHL SWAP2 PUSH1 0x0 NOT SWAP1 PUSH1 0x3 SHL SHR NOT AND OR DUP3 SSTORE JUMPDEST PUSH1 0x20 DUP2 ADD MLOAD DUP1 MLOAD SWAP1 PUSH1 0x1 PUSH1 0x1 PUSH1 0x40 SHL SUB DUP3 GT PUSH3 0x936 JUMPI PUSH1 0x1 DUP5 ADD SLOAD PUSH1 0x1 DUP2 DUP2 SHR SWAP2 AND DUP1 ISZERO PUSH3 0xAEF JUMPI JUMPDEST PUSH1 0x20 DUP3 LT EQ PUSH3 0x915 JUMPI PUSH1 0x1F DUP2 GT PUSH3 0xAA3 JUMPI JUMPDEST POP PUSH1 0x20 SWAP1 PUSH1 0x1F DUP4 GT PUSH1 0x1 EQ PUSH3 0xA29 JUMPI PUSH1 0x60 PUSH3 0x625 SWAP5 DUP5 PUSH3 0x252 SWAP9 SWAP6 PUSH1 0x0 DUP1 MLOAD PUSH1 0x20 PUSH3 0x271A DUP4 CODECOPY DUP2 MLOAD SWAP2 MSTORE SWAP11 SWAP9 SWAP6 PUSH1 0x3 SWAP6 PUSH1 0x0 SWAP3 PUSH3 0x827 JUMPI POP POP PUSH1 0x0 NOT DUP3 DUP7 SHL SHR NOT AND PUSH1 0x1 SWAP2 DUP3 SHL OR SWAP1 DUP6 ADD SSTORE PUSH1 0x2 DUP5 ADD PUSH1 0x40 DUP3 ADD MLOAD ISZERO ISZERO PUSH1 0xFF DUP1 NOT DUP4 SLOAD AND SWAP2 AND OR SWAP1 SSTORE ADD MLOAD SWAP2 ADD SSTORE PUSH1 0x40 MLOAD SWAP4 DUP5 SWAP4 PUSH1 0x40 DUP6 MSTORE PUSH1 0x40 DUP6 ADD SWAP1 PUSH3 0xFBD JUMP JUMPDEST SUB SWAP1 LOG1 PUSH3 0x632 PUSH3 0xF58 JUMP JUMPDEST PUSH1 0x17 DUP2 MSTORE PUSH32 0x6D656D626572736869702D766572696669636174696F6E000000000000000000 PUSH1 0x20 DUP3 ADD MSTORE PUSH3 0x666 PUSH3 0xF78 JUMP JUMPDEST PUSH1 0x2E DUP2 MSTORE PUSH32 0x50726F76652044414F206D656D6265727368697020776974686F757420726576 PUSH1 0x20 DUP3 ADD MSTORE PUSH14 0x65616C696E672064657461696C73 PUSH1 0x90 SHL PUSH1 0x40 DUP3 ADD MSTORE PUSH3 0x6B1 PUSH3 0xF38 JUMP JUMPDEST DUP3 DUP2 MSTORE DUP2 PUSH1 0x20 DUP3 ADD MSTORE PUSH1 0x1 PUSH1 0x40 DUP3 ADD MSTORE PUSH1 0x4 PUSH1 0x60 DUP3 ADD MSTORE PUSH1 0x40 MLOAD PUSH1 0x20 DUP2 DUP6 MLOAD PUSH3 0x6DF DUP2 DUP4 DUP6 DUP11 ADD PUSH3 0xF98 JUMP JUMPDEST DUP2 ADD PUSH1 0x1 DUP2 MSTORE SUB ADD SWAP1 KECCAK256 SWAP1 DUP1 MLOAD DUP1 MLOAD SWAP1 PUSH1 0x1 DUP1 PUSH1 0x40 SHL SUB DUP3 GT PUSH3 0x936 JUMPI DUP4 SLOAD SWAP1 PUSH1 0x1 DUP3 DUP2 SHR SWAP3 AND DUP1 ISZERO PUSH3 0xA1E JUMPI JUMPDEST PUSH1 0x20 DUP4 LT EQ PUSH3 0x915 JUMPI DUP2 PUSH1 0x1F DUP5 SWAP4 GT PUSH3 0x9C9 JUMPI JUMPDEST POP PUSH1 0x20 SWAP1 PUSH1 0x1F DUP4 GT PUSH1 0x1 EQ PUSH3 0x958 JUMPI PUSH1 0x0 SWAP3 PUSH3 0x94C JUMPI JUMPDEST POP POP DUP2 PUSH1 0x1 SHL SWAP2 PUSH1 0x0 NOT SWAP1 PUSH1 0x3 SHL SHR NOT AND OR DUP3 SSTORE JUMPDEST PUSH1 0x20 DUP2 ADD MLOAD DUP1 MLOAD SWAP1 PUSH1 0x1 PUSH1 0x1 PUSH1 0x40 SHL SUB DUP3 GT PUSH3 0x936 JUMPI PUSH1 0x1 DUP5 ADD SLOAD PUSH1 0x1 DUP2 DUP2 SHR SWAP2 AND DUP1 ISZERO PUSH3 0x92B JUMPI JUMPDEST PUSH1 0x20 DUP3 LT EQ PUSH3 0x915 JUMPI PUSH1 0x1F DUP2 GT PUSH3 0x8C5 JUMPI JUMPDEST POP PUSH1 0x20 SWAP1 PUSH1 0x1F DUP4 GT PUSH1 0x1 EQ PUSH3 0x833 JUMPI PUSH1 0x60 PUSH3 0x814 SWAP5 DUP5 PUSH3 0x252 SWAP9 SWAP6 PUSH1 0x0 DUP1 MLOAD PUSH1 0x20 PUSH3 0x271A DUP4 CODECOPY DUP2 MLOAD SWAP2 MSTORE SWAP11 SWAP9 SWAP6 PUSH1 0x3 SWAP6 PUSH1 0x0 SWAP3 PUSH3 0x827 JUMPI POP POP PUSH1 0x0 NOT DUP3 DUP7 SHL SHR NOT AND PUSH1 0x1 SWAP2 DUP3 SHL OR SWAP1 DUP6 ADD SSTORE PUSH1 0x2 DUP5 ADD PUSH1 0x40 DUP3 ADD MLOAD ISZERO ISZERO PUSH1 0xFF DUP1 NOT DUP4 SLOAD AND SWAP2 AND OR SWAP1 SSTORE ADD MLOAD SWAP2 ADD SSTORE PUSH1 0x40 MLOAD SWAP4 DUP5 SWAP4 PUSH1 0x40 DUP6 MSTORE PUSH1 0x40 DUP6 ADD SWAP1 PUSH3 0xFBD JUMP JUMPDEST SUB SWAP1 LOG1 PUSH1 0x40 MLOAD PUSH2 0x1735 SWAP1 DUP2 PUSH3 0xFE5 DUP3 CODECOPY RETURN JUMPDEST ADD MLOAD SWAP1 POP CODESIZE DUP1 PUSH3 0x20B JUMP JUMPDEST SWAP1 PUSH1 0x1F NOT DUP4 AND SWAP2 PUSH1 0x1 DUP7 ADD PUSH1 0x0 MSTORE PUSH1 0x20 PUSH1 0x0 KECCAK256 SWAP3 PUSH1 0x0 JUMPDEST DUP2 DUP2 LT PUSH3 0x8AC JUMPI POP SWAP5 PUSH1 0x1 DUP6 PUSH1 0x0 DUP1 MLOAD PUSH1 0x20 PUSH3 0x271A DUP4 CODECOPY DUP2 MLOAD SWAP2 MSTORE SWAP11 SWAP9 SWAP6 PUSH1 0x3 SWAP6 PUSH1 0x60 SWAP6 PUSH3 0x252 SWAP13 SWAP10 PUSH3 0x814 SWAP12 LT PUSH3 0x893 JUMPI JUMPDEST POP POP POP DUP2 SHL ADD PUSH1 0x1 DUP6 ADD SSTORE PUSH3 0x221 JUMP JUMPDEST ADD MLOAD PUSH1 0x0 NOT DUP4 DUP9 SHL PUSH1 0xF8 AND SHR NOT AND SWAP1 SSTORE CODESIZE DUP1 DUP1 PUSH3 0x882 JUMP JUMPDEST SWAP3 SWAP4 PUSH1 0x20 PUSH1 0x1 DUP2 SWAP3 DUP8 DUP7 ADD MLOAD DUP2 SSTORE ADD SWAP6 ADD SWAP4 ADD PUSH3 0x84A JUMP JUMPDEST PUSH1 0x1 DUP6 ADD PUSH1 0x0 MSTORE PUSH1 0x20 PUSH1 0x0 KECCAK256 PUSH1 0x1F DUP5 ADD PUSH1 0x5 SHR DUP2 ADD SWAP2 PUSH1 0x20 DUP6 LT PUSH3 0x90A JUMPI JUMPDEST PUSH1 0x1F ADD PUSH1 0x5 SHR ADD SWAP1 JUMPDEST DUP2 DUP2 LT PUSH3 0x8FD JUMPI POP PUSH3 0x792 JUMP JUMPDEST PUSH1 0x0 DUP2 SSTORE PUSH1 0x1 ADD PUSH3 0x8EE JUMP JUMPDEST SWAP1 SWAP2 POP DUP2 SWAP1 PUSH3 0x8E5 JUMP JUMPDEST PUSH4 0x4E487B71 PUSH1 0xE0 SHL PUSH1 0x0 MSTORE PUSH1 0x22 PUSH1 0x4 MSTORE PUSH1 0x24 PUSH1 0x0 REVERT JUMPDEST SWAP1 PUSH1 0x7F AND SWAP1 PUSH3 0x77E JUMP JUMPDEST PUSH4 0x4E487B71 PUSH1 0xE0 SHL PUSH1 0x0 MSTORE PUSH1 0x41 PUSH1 0x4 MSTORE PUSH1 0x24 PUSH1 0x0 REVERT JUMPDEST ADD MLOAD SWAP1 POP CODESIZE DUP1 PUSH3 0x73E JUMP JUMPDEST SWAP3 POP DUP5 PUSH1 0x0 MSTORE PUSH1 0x20 PUSH1 0x0 KECCAK256 SWAP1 PUSH1 0x0 SWAP4 JUMPDEST PUSH1 0x1F NOT DUP5 AND DUP6 LT PUSH3 0x9AD JUMPI PUSH1 0x1 SWAP5 POP DUP4 PUSH1 0x1F NOT DUP2 AND LT PUSH3 0x993 JUMPI JUMPDEST POP POP POP DUP2 SHL ADD DUP3 SSTORE PUSH3 0x753 JUMP JUMPDEST ADD MLOAD PUSH1 0x0 NOT PUSH1 0xF8 DUP5 PUSH1 0x3 SHL AND SHR NOT AND SWAP1 SSTORE CODESIZE DUP1 DUP1 PUSH3 0x985 JUMP JUMPDEST DUP2 DUP2 ADD MLOAD DUP4 SSTORE PUSH1 0x20 SWAP5 DUP6 ADD SWAP5 PUSH1 0x1 SWAP1 SWAP4 ADD SWAP3 SWAP1 SWAP2 ADD SWAP1 PUSH3 0x968 JUMP JUMPDEST SWAP1 SWAP2 POP DUP5 PUSH1 0x0 MSTORE PUSH1 0x20 PUSH1 0x0 KECCAK256 PUSH1 0x1F DUP5 ADD PUSH1 0x5 SHR DUP2 ADD PUSH1 0x20 DUP6 LT PUSH3 0xA16 JUMPI JUMPDEST SWAP1 DUP5 SWAP4 SWAP3 SWAP2 JUMPDEST PUSH1 0x1F DUP4 ADD PUSH1 0x5 SHR DUP3 ADD DUP2 LT PUSH3 0xA06 JUMPI POP POP PUSH3 0x725 JUMP JUMPDEST PUSH1 0x0 DUP2 SSTORE DUP6 SWAP5 POP PUSH1 0x1 ADD PUSH3 0x9EE JUMP JUMPDEST POP DUP1 PUSH3 0x9E8 JUMP JUMPDEST SWAP2 PUSH1 0x7F AND SWAP2 PUSH3 0x70F JUMP JUMPDEST SWAP1 PUSH1 0x1 DUP6 ADD PUSH1 0x0 MSTORE PUSH1 0x20 PUSH1 0x0 KECCAK256 SWAP2 PUSH1 0x0 JUMPDEST PUSH1 0x1F NOT DUP6 AND DUP2 LT PUSH3 0xA8A JUMPI POP PUSH3 0x625 SWAP5 PUSH1 0x1 DUP6 PUSH1 0x0 DUP1 MLOAD PUSH1 0x20 PUSH3 0x271A DUP4 CODECOPY DUP2 MLOAD SWAP2 MSTORE SWAP11 SWAP9 SWAP6 PUSH1 0x3 SWAP6 PUSH1 0x60 SWAP6 PUSH3 0x252 SWAP13 SWAP10 PUSH1 0x1F NOT DUP2 AND LT PUSH3 0x893 JUMPI POP POP POP DUP2 SHL ADD PUSH1 0x1 DUP6 ADD SSTORE PUSH3 0x221 JUMP JUMPDEST SWAP2 SWAP3 PUSH1 0x20 PUSH1 0x1 DUP2 SWAP3 DUP7 DUP6 ADD MLOAD DUP2 SSTORE ADD SWAP5 ADD SWAP3 ADD PUSH3 0xA3A JUMP JUMPDEST PUSH1 0x1 DUP6 ADD PUSH1 0x0 MSTORE PUSH1 0x20 PUSH1 0x0 KECCAK256 PUSH1 0x1F DUP5 ADD PUSH1 0x5 SHR DUP2 ADD PUSH1 0x20 DUP6 LT PUSH3 0xAE7 JUMPI JUMPDEST PUSH1 0x1F DUP4 ADD PUSH1 0x5 SHR DUP3 ADD DUP2 LT PUSH3 0xADA JUMPI POP POP PUSH3 0x5A3 JUMP JUMPDEST PUSH1 0x0 DUP2 SSTORE PUSH1 0x1 ADD PUSH3 0xAC2 JUMP JUMPDEST POP DUP1 PUSH3 0xAC2 JUMP JUMPDEST SWAP1 PUSH1 0x7F AND SWAP1 PUSH3 0x58F JUMP JUMPDEST ADD MLOAD SWAP1 POP CODESIZE DUP1 PUSH3 0x54F JUMP JUMPDEST SWAP3 POP DUP5 PUSH1 0x0 MSTORE PUSH1 0x20 PUSH1 0x0 KECCAK256 SWAP1 PUSH1 0x0 SWAP4 JUMPDEST PUSH1 0x1F NOT DUP5 AND DUP6 LT PUSH3 0xB5B JUMPI PUSH1 0x1 SWAP5 POP DUP4 PUSH1 0x1F NOT DUP2 AND LT PUSH3 0xB41 JUMPI JUMPDEST POP POP POP DUP2 SHL ADD DUP3 SSTORE PUSH3 0x564 JUMP JUMPDEST ADD MLOAD PUSH1 0x0 NOT PUSH1 0xF8 DUP5 PUSH1 0x3 SHL AND SHR NOT AND SWAP1 SSTORE CODESIZE DUP1 DUP1 PUSH3 0xB33 JUMP JUMPDEST DUP2 DUP2 ADD MLOAD DUP4 SSTORE PUSH1 0x20 SWAP5 DUP6 ADD SWAP5 PUSH1 0x1 SWAP1 SWAP4 ADD SWAP3 SWAP1 SWAP2 ADD SWAP1 PUSH3 0xB16 JUMP JUMPDEST SWAP1 SWAP2 POP DUP5 PUSH1 0x0 MSTORE PUSH1 0x20 PUSH1 0x0 KECCAK256 PUSH1 0x1F DUP5 ADD PUSH1 0x5 SHR DUP2 ADD PUSH1 0x20 DUP6 LT PUSH3 0xBC4 JUMPI JUMPDEST SWAP1 DUP5 SWAP4 SWAP3 SWAP2 JUMPDEST PUSH1 0x1F DUP4 ADD PUSH1 0x5 SHR DUP3 ADD DUP2 LT PUSH3 0xBB4 JUMPI POP POP PUSH3 0x536 JUMP JUMPDEST PUSH1 0x0 DUP2 SSTORE DUP6 SWAP5 POP PUSH1 0x1 ADD PUSH3 0xB9C JUMP JUMPDEST POP DUP1 PUSH3 0xB96 JUMP JUMPDEST SWAP2 PUSH1 0x7F AND SWAP2 PUSH3 0x520 JUMP JUMPDEST SWAP1 PUSH1 0x1 DUP6 ADD PUSH1 0x0 MSTORE PUSH1 0x20 PUSH1 0x0 KECCAK256 SWAP2 PUSH1 0x0 JUMPDEST PUSH1 0x1F NOT DUP6 AND DUP2 LT PUSH3 0xC38 JUMPI POP PUSH3 0x457 SWAP5 PUSH1 0x1 DUP6 PUSH1 0x0 DUP1 MLOAD PUSH1 0x20 PUSH3 0x271A DUP4 CODECOPY DUP2 MLOAD SWAP2 MSTORE SWAP11 SWAP9 SWAP6 PUSH1 0x3 SWAP6 PUSH1 0x60 SWAP6 PUSH3 0x252 SWAP13 SWAP10 PUSH1 0x1F NOT DUP2 AND LT PUSH3 0x893 JUMPI POP POP POP DUP2 SHL ADD PUSH1 0x1 DUP6 ADD SSTORE PUSH3 0x221 JUMP JUMPDEST SWAP2 SWAP3 PUSH1 0x20 PUSH1 0x1 DUP2 SWAP3 DUP7 DUP6 ADD MLOAD DUP2 SSTORE ADD SWAP5 ADD SWAP3 ADD PUSH3 0xBE8 JUMP JUMPDEST PUSH1 0x1 DUP6 ADD PUSH1 0x0 MSTORE PUSH1 0x20 PUSH1 0x0 KECCAK256 PUSH1 0x1F DUP5 ADD PUSH1 0x5 SHR DUP2 ADD PUSH1 0x20 DUP6 LT PUSH3 0xC95 JUMPI JUMPDEST PUSH1 0x1F DUP4 ADD PUSH1 0x5 SHR DUP3 ADD DUP2 LT PUSH3 0xC88 JUMPI POP POP PUSH3 0x3D5 JUMP JUMPDEST PUSH1 0x0 DUP2 SSTORE PUSH1 0x1 ADD PUSH3 0xC70 JUMP JUMPDEST POP DUP1 PUSH3 0xC70 JUMP JUMPDEST SWAP1 PUSH1 0x7F AND SWAP1 PUSH3 0x3C1 JUMP JUMPDEST ADD MLOAD SWAP1 POP CODESIZE DUP1 PUSH3 0x381 JUMP JUMPDEST SWAP3 POP DUP5 PUSH1 0x0 MSTORE PUSH1 0x20 PUSH1 0x0 KECCAK256 SWAP1 PUSH1 0x0 SWAP4 JUMPDEST PUSH1 0x1F NOT DUP5 AND DUP6 LT PUSH3 0xD09 JUMPI PUSH1 0x1 SWAP5 POP DUP4 PUSH1 0x1F NOT DUP2 AND LT PUSH3 0xCEF JUMPI JUMPDEST POP POP POP DUP2 SHL ADD DUP3 SSTORE PUSH3 0x396 JUMP JUMPDEST ADD MLOAD PUSH1 0x0 NOT PUSH1 0xF8 DUP5 PUSH1 0x3 SHL AND SHR NOT AND SWAP1 SSTORE CODESIZE DUP1 DUP1 PUSH3 0xCE1 JUMP JUMPDEST DUP2 DUP2 ADD MLOAD DUP4 SSTORE PUSH1 0x20 SWAP5 DUP6 ADD SWAP5 PUSH1 0x1 SWAP1 SWAP4 ADD SWAP3 SWAP1 SWAP2 ADD SWAP1 PUSH3 0xCC4 JUMP JUMPDEST SWAP1 SWAP2 POP DUP5 PUSH1 0x0 MSTORE PUSH1 0x20 PUSH1 0x0 KECCAK256 PUSH1 0x1F DUP5 ADD PUSH1 0x5 SHR DUP2 ADD PUSH1 0x20 DUP6 LT PUSH3 0xD72 JUMPI JUMPDEST SWAP1 DUP5 SWAP4 SWAP3 SWAP2 JUMPDEST PUSH1 0x1F DUP4 ADD PUSH1 0x5 SHR DUP3 ADD DUP2 LT PUSH3 0xD62 JUMPI POP POP PUSH3 0x368 JUMP JUMPDEST PUSH1 0x0 DUP2 SSTORE DUP6 SWAP5 POP PUSH1 0x1 ADD PUSH3 0xD4A JUMP JUMPDEST POP DUP1 PUSH3 0xD44 JUMP JUMPDEST SWAP2 PUSH1 0x7F AND SWAP2 PUSH3 0x352 JUMP JUMPDEST SWAP1 PUSH1 0x1 DUP6 ADD PUSH1 0x0 MSTORE PUSH1 0x20 PUSH1 0x0 KECCAK256 SWAP2 PUSH1 0x0 JUMPDEST PUSH1 0x1F NOT DUP6 AND DUP2 LT PUSH3 0xDE6 JUMPI POP PUSH3 0x261 SWAP5 PUSH1 0x1 DUP6 PUSH1 0x0 DUP1 MLOAD PUSH1 0x20 PUSH3 0x271A DUP4 CODECOPY DUP2 MLOAD SWAP2 MSTORE SWAP11 SWAP9 SWAP6 PUSH1 0x3 SWAP6 PUSH1 0x60 SWAP6 PUSH3 0x252 SWAP13 SWAP10 PUSH1 0x1F NOT DUP2 AND LT PUSH3 0x893 JUMPI POP POP POP DUP2 SHL ADD PUSH1 0x1 DUP6 ADD SSTORE PUSH3 0x221 JUMP JUMPDEST SWAP2 SWAP3 PUSH1 0x20 PUSH1 0x1 DUP2 SWAP3 DUP7 DUP6 ADD MLOAD DUP2 SSTORE ADD SWAP5 ADD SWAP3 ADD PUSH3 0xD96 JUMP JUMPDEST PUSH1 0x1 DUP6 ADD PUSH1 0x0 MSTORE PUSH1 0x20 PUSH1 0x0 KECCAK256 PUSH1 0x1F DUP5 ADD PUSH1 0x5 SHR DUP2 ADD PUSH1 0x20 DUP6 LT PUSH3 0xE43 JUMPI JUMPDEST PUSH1 0x1F DUP4 ADD PUSH1 0x5 SHR DUP3 ADD DUP2 LT PUSH3 0xE36 JUMPI POP POP PUSH3 0x1CE JUMP JUMPDEST PUSH1 0x0 DUP2 SSTORE PUSH1 0x1 ADD PUSH3 0xE1E JUMP JUMPDEST POP DUP1 PUSH3 0xE1E JUMP JUMPDEST SWAP1 PUSH1 0x7F AND SWAP1 PUSH3 0x1BA JUMP JUMPDEST ADD MLOAD SWAP1 POP CODESIZE DUP1 PUSH3 0x17E JUMP JUMPDEST SWAP3 POP DUP6 PUSH1 0x0 MSTORE PUSH1 0x20 PUSH1 0x0 KECCAK256 SWAP1 PUSH1 0x0 SWAP4 JUMPDEST PUSH1 0x1F NOT DUP5 AND DUP6 LT PUSH3 0xEB7 JUMPI PUSH1 0x1 SWAP5 POP DUP4 PUSH1 0x1F NOT DUP2 AND LT PUSH3 0xE9D JUMPI JUMPDEST POP POP POP DUP2 SHL ADD DUP4 SSTORE PUSH3 0x193 JUMP JUMPDEST ADD MLOAD PUSH1 0x0 NOT PUSH1 0xF8 DUP5 PUSH1 0x3 SHL AND SHR NOT AND SWAP1 SSTORE CODESIZE DUP1 DUP1 PUSH3 0xE8F JUMP JUMPDEST DUP2 DUP2 ADD MLOAD DUP4 SSTORE PUSH1 0x20 SWAP5 DUP6 ADD SWAP5 PUSH1 0x1 SWAP1 SWAP4 ADD SWAP3 SWAP1 SWAP2 ADD SWAP1 PUSH3 0xE72 JUMP JUMPDEST SWAP1 SWAP2 POP DUP6 PUSH1 0x0 MSTORE PUSH1 0x20 PUSH1 0x0 KECCAK256 PUSH1 0x1F DUP5 ADD PUSH1 0x5 SHR DUP2 ADD PUSH1 0x20 DUP6 LT PUSH3 0xF20 JUMPI JUMPDEST SWAP1 DUP5 SWAP4 SWAP3 SWAP2 JUMPDEST PUSH1 0x1F DUP4 ADD PUSH1 0x5 SHR DUP3 ADD DUP2 LT PUSH3 0xF10 JUMPI POP POP PUSH3 0x165 JUMP JUMPDEST PUSH1 0x0 DUP2 SSTORE DUP6 SWAP5 POP PUSH1 0x1 ADD PUSH3 0xEF8 JUMP JUMPDEST POP DUP1 PUSH3 0xEF2 JUMP JUMPDEST SWAP2 PUSH1 0x7F AND SWAP2 PUSH3 0x14F JUMP JUMPDEST PUSH1 0x0 DUP1 REVERT JUMPDEST PUSH1 0x40 MLOAD SWAP1 PUSH1 0x80 DUP3 ADD PUSH1 0x1 PUSH1 0x1 PUSH1 0x40 SHL SUB DUP2 GT DUP4 DUP3 LT OR PUSH3 0x936 JUMPI PUSH1 0x40 MSTORE JUMP JUMPDEST PUSH1 0x40 DUP1 MLOAD SWAP2 SWAP1 DUP3 ADD PUSH1 0x1 PUSH1 0x1 PUSH1 0x40 SHL SUB DUP2 GT DUP4 DUP3 LT OR PUSH3 0x936 JUMPI PUSH1 0x40 MSTORE JUMP JUMPDEST PUSH1 0x40 MLOAD SWAP1 PUSH1 0x60 DUP3 ADD PUSH1 0x1 PUSH1 0x1 PUSH1 0x40 SHL SUB DUP2 GT DUP4 DUP3 LT OR PUSH3 0x936 JUMPI PUSH1 0x40 MSTORE JUMP JUMPDEST PUSH1 0x0 JUMPDEST DUP4 DUP2 LT PUSH3 0xFAC JUMPI POP POP PUSH1 0x0 SWAP2 ADD MSTORE JUMP JUMPDEST DUP2 DUP2 ADD MLOAD DUP4 DUP3 ADD MSTORE PUSH1 0x20 ADD PUSH3 0xF9B JUMP JUMPDEST SWAP1 PUSH1 0x20 SWAP2 PUSH3 0xFD8 DUP2 MLOAD DUP1 SWAP3 DUP2 DUP6 MSTORE DUP6 DUP1 DUP7 ADD SWAP2 ADD PUSH3 0xF98 JUMP JUMPDEST PUSH1 0x1F ADD PUSH1 0x1F NOT AND ADD ADD SWAP1 JUMP INVALID PUSH1 0x80 DUP1 PUSH1 0x40 MSTORE PUSH1 0x4 CALLDATASIZE LT ISZERO PUSH2 0x13 JUMPI PUSH1 0x0 DUP1 REVERT JUMPDEST PUSH1 0x0 CALLDATALOAD PUSH1 0xE0 SHR SWAP1 DUP2 PUSH4 0x17CC915C EQ PUSH2 0x11AC JUMPI POP DUP1 PUSH4 0x1B80BB3A EQ PUSH2 0x1017 JUMPI DUP1 PUSH4 0x1CAA449C EQ PUSH2 0xFEE JUMPI DUP1 PUSH4 0x1F09A2E2 EQ PUSH2 0xCBE JUMPI DUP1 PUSH4 0x22DC7B4C EQ PUSH2 0xC8D JUMPI DUP1 PUSH4 0x275D4191 EQ PUSH2 0xB4F JUMPI DUP1 PUSH4 0x373B58E6 EQ PUSH2 0xAF7 JUMPI DUP1 PUSH4 0x3F4BA83A EQ PUSH2 0x38D JUMPI DUP1 PUSH4 0x4370A39B EQ PUSH2 0x4E0 JUMPI DUP1 PUSH4 0x444D95B0 EQ PUSH2 0x469 JUMPI DUP1 PUSH4 0x46BDFB80 EQ PUSH2 0x3B5 JUMPI DUP1 PUSH4 0x6D9F4370 EQ PUSH2 0x36F JUMPI DUP1 PUSH4 0x8456CB59 EQ PUSH2 0x38D JUMPI DUP1 PUSH4 0x9B1BC0C9 EQ PUSH2 0x36F JUMPI DUP1 PUSH4 0x9EA2CD38 EQ PUSH2 0x2C0 JUMPI DUP1 PUSH4 0xB142B4EC EQ PUSH2 0x270 JUMPI DUP1 PUSH4 0xE4BAEDA3 EQ PUSH2 0x16F JUMPI DUP1 PUSH4 0xF6EB0C0C EQ PUSH2 0x11E JUMPI PUSH4 0xF851A440 EQ PUSH2 0xF0 JUMPI PUSH1 0x0 DUP1 REVERT JUMPDEST CALLVALUE PUSH2 0x119 JUMPI PUSH1 0x0 CALLDATASIZE PUSH1 0x3 NOT ADD SLT PUSH2 0x119 JUMPI PUSH1 0x4 SLOAD PUSH1 0x40 MLOAD PUSH1 0x1 PUSH1 0x1 PUSH1 0xA0 SHL SUB SWAP1 SWAP2 AND DUP2 MSTORE PUSH1 0x20 SWAP1 RETURN JUMPDEST PUSH1 0x0 DUP1 REVERT JUMPDEST CALLVALUE PUSH2 0x119 JUMPI PUSH1 0x20 CALLDATASIZE PUSH1 0x3 NOT ADD SLT PUSH2 0x119 JUMPI PUSH2 0x137 PUSH2 0x1305 JUMP JUMPDEST PUSH1 0x4 SLOAD PUSH1 0x1 PUSH1 0x1 PUSH1 0xA0 SHL SUB SWAP2 SWAP1 PUSH2 0x151 SWAP1 DUP4 AND CALLER EQ PUSH2 0x14EF JUMP JUMPDEST AND PUSH12 0xFFFFFFFFFFFFFFFFFFFFFFFF PUSH1 0xA0 SHL PUSH1 0x5 SLOAD AND OR PUSH1 0x5 SSTORE PUSH1 0x0 DUP1 RETURN JUMPDEST CALLVALUE PUSH2 0x119 JUMPI PUSH1 0x20 DUP1 PUSH1 0x3 NOT CALLDATASIZE ADD SLT PUSH2 0x119 JUMPI PUSH1 0x4 CALLDATALOAD SWAP1 PUSH1 0x1 PUSH1 0x1 PUSH1 0x40 SHL SUB DUP3 GT PUSH2 0x119 JUMPI PUSH2 0x1DA DUP2 PUSH2 0x1A7 PUSH1 0x80 SWAP5 CALLDATASIZE SWAP1 PUSH1 0x4 ADD PUSH2 0x12AF JUMP JUMPDEST PUSH1 0x0 PUSH1 0x60 PUSH1 0x40 MLOAD PUSH2 0x1B7 DUP2 PUSH2 0x123C JUMP JUMPDEST DUP2 DUP2 MSTORE DUP2 DUP6 DUP3 ADD MSTORE DUP3 PUSH1 0x40 DUP3 ADD MSTORE ADD MSTORE DUP2 PUSH1 0x40 MLOAD SWAP4 DUP3 DUP6 DUP1 SWAP5 MLOAD SWAP4 DUP5 SWAP3 ADD PUSH2 0x11D9 JUMP JUMPDEST DUP2 ADD PUSH1 0x1 DUP2 MSTORE SUB ADD SWAP1 KECCAK256 PUSH1 0x40 MLOAD SWAP2 PUSH2 0x1F1 DUP4 PUSH2 0x123C JUMP JUMPDEST PUSH2 0x1FA DUP3 PUSH2 0x1383 JUMP JUMPDEST DUP4 MSTORE PUSH2 0x25D PUSH2 0x20B PUSH1 0x1 DUP5 ADD PUSH2 0x1383 JUMP JUMPDEST DUP3 DUP6 ADD SWAP1 DUP2 MSTORE PUSH2 0x24A PUSH1 0x3 PUSH1 0xFF PUSH1 0x2 DUP8 ADD SLOAD AND SWAP6 PUSH1 0x40 DUP9 ADD SWAP7 ISZERO ISZERO DUP8 MSTORE ADD SLOAD SWAP4 PUSH1 0x60 DUP8 ADD SWAP5 DUP6 MSTORE PUSH1 0x40 MLOAD SWAP8 DUP9 SWAP8 DUP3 DUP10 MSTORE MLOAD SWAP2 DUP9 ADD MSTORE PUSH1 0xA0 DUP8 ADD SWAP1 PUSH2 0x11FC JUMP JUMPDEST SWAP1 MLOAD DUP6 DUP3 SUB PUSH1 0x1F NOT ADD PUSH1 0x40 DUP8 ADD MSTORE PUSH2 0x11FC JUMP JUMPDEST SWAP2 MLOAD ISZERO ISZERO PUSH1 0x60 DUP5 ADD MSTORE MLOAD PUSH1 0x80 DUP4 ADD MSTORE SUB SWAP1 RETURN JUMPDEST CALLVALUE PUSH2 0x119 JUMPI PUSH1 0x20 CALLDATASIZE PUSH1 0x3 NOT ADD SLT PUSH2 0x119 JUMPI PUSH1 0x4 CALLDATALOAD DUP1 PUSH1 0x0 MSTORE PUSH1 0x0 PUSH1 0x20 MSTORE PUSH2 0x2A0 PUSH1 0xA PUSH1 0x40 PUSH1 0x0 KECCAK256 ADD SLOAD ISZERO ISZERO PUSH2 0x1428 JUMP JUMPDEST PUSH1 0x0 MSTORE PUSH1 0x0 PUSH1 0x20 MSTORE PUSH1 0x20 PUSH1 0xFF PUSH1 0xB PUSH1 0x40 PUSH1 0x0 KECCAK256 ADD SLOAD AND PUSH1 0x40 MLOAD SWAP1 ISZERO ISZERO DUP2 MSTORE RETURN JUMPDEST CALLVALUE PUSH2 0x119 JUMPI PUSH1 0x20 CALLDATASIZE PUSH1 0x3 NOT ADD SLT PUSH2 0x119 JUMPI PUSH1 0x4 CALLDATALOAD PUSH1 0x1 PUSH1 0x1 PUSH1 0x40 SHL SUB DUP2 GT PUSH2 0x119 JUMPI PUSH2 0x30B PUSH1 0x20 PUSH2 0x2F8 PUSH2 0x350 SWAP4 CALLDATASIZE SWAP1 PUSH1 0x4 ADD PUSH2 0x12AF JUMP JUMPDEST DUP2 PUSH1 0x40 MLOAD SWAP4 DUP3 DUP6 DUP1 SWAP5 MLOAD SWAP4 DUP5 SWAP3 ADD PUSH2 0x11D9 JUMP JUMPDEST DUP2 ADD PUSH1 0x1 DUP2 MSTORE SUB ADD SWAP1 KECCAK256 PUSH2 0x31E DUP2 PUSH2 0x1383 JUMP JUMPDEST SWAP1 PUSH2 0x32B PUSH1 0x1 DUP3 ADD PUSH2 0x1383 JUMP JUMPDEST PUSH2 0x35E PUSH1 0x3 PUSH1 0xFF PUSH1 0x2 DUP6 ADD SLOAD AND SWAP4 ADD SLOAD SWAP2 PUSH1 0x40 MLOAD SWAP6 DUP7 SWAP6 PUSH1 0x80 DUP8 MSTORE PUSH1 0x80 DUP8 ADD SWAP1 PUSH2 0x11FC JUMP JUMPDEST SWAP1 DUP6 DUP3 SUB PUSH1 0x20 DUP8 ADD MSTORE PUSH2 0x11FC JUMP JUMPDEST SWAP2 ISZERO ISZERO PUSH1 0x40 DUP5 ADD MSTORE PUSH1 0x60 DUP4 ADD MSTORE SUB SWAP1 RETURN JUMPDEST CALLVALUE PUSH2 0x119 JUMPI PUSH1 0x0 CALLDATASIZE PUSH1 0x3 NOT ADD SLT PUSH2 0x119 JUMPI PUSH1 0x20 PUSH1 0x6 SLOAD PUSH1 0x40 MLOAD SWAP1 DUP2 MSTORE RETURN JUMPDEST CALLVALUE PUSH2 0x119 JUMPI PUSH1 0x0 CALLDATASIZE PUSH1 0x3 NOT ADD SLT PUSH2 0x119 JUMPI PUSH2 0x3B3 PUSH1 0x1 DUP1 PUSH1 0xA0 SHL SUB PUSH1 0x4 SLOAD AND CALLER EQ PUSH2 0x14EF JUMP JUMPDEST STOP JUMPDEST CALLVALUE PUSH2 0x119 JUMPI PUSH1 0x20 DUP1 PUSH1 0x3 NOT CALLDATASIZE ADD SLT PUSH2 0x119 JUMPI PUSH1 0x1 PUSH1 0x1 PUSH1 0xA0 SHL SUB PUSH2 0x3D7 PUSH2 0x1305 JUMP JUMPDEST AND PUSH1 0x0 MSTORE PUSH1 0x2 DUP2 MSTORE PUSH1 0x40 PUSH1 0x0 KECCAK256 PUSH1 0x40 MLOAD SWAP1 DUP2 DUP4 DUP3 SLOAD SWAP2 DUP3 DUP2 MSTORE ADD SWAP1 DUP2 SWAP3 PUSH1 0x0 MSTORE DUP5 PUSH1 0x0 KECCAK256 SWAP1 PUSH1 0x0 JUMPDEST DUP7 DUP3 DUP3 LT PUSH2 0x455 JUMPI DUP7 DUP7 PUSH2 0x415 DUP3 DUP9 SUB DUP4 PUSH2 0x128E JUMP JUMPDEST PUSH1 0x40 MLOAD SWAP3 DUP4 SWAP3 DUP2 DUP5 ADD SWAP1 DUP3 DUP6 MSTORE MLOAD DUP1 SWAP2 MSTORE PUSH1 0x40 DUP5 ADD SWAP3 SWAP2 PUSH1 0x0 JUMPDEST DUP3 DUP2 LT PUSH2 0x43E JUMPI POP POP POP POP SUB SWAP1 RETURN JUMPDEST DUP4 MLOAD DUP6 MSTORE DUP7 SWAP6 POP SWAP4 DUP2 ADD SWAP4 SWAP3 DUP2 ADD SWAP3 PUSH1 0x1 ADD PUSH2 0x42F JUMP JUMPDEST DUP4 SLOAD DUP6 MSTORE SWAP1 SWAP4 ADD SWAP3 PUSH1 0x1 SWAP3 DUP4 ADD SWAP3 ADD PUSH2 0x3FF JUMP JUMPDEST CALLVALUE PUSH2 0x119 JUMPI PUSH1 0x20 CALLDATASIZE PUSH1 0x3 NOT ADD SLT PUSH2 0x119 JUMPI PUSH1 0x4 CALLDATALOAD PUSH1 0x0 MSTORE PUSH1 0x0 PUSH1 0x20 MSTORE PUSH2 0x4B8 PUSH1 0x40 PUSH1 0x0 KECCAK256 PUSH2 0x499 PUSH1 0x9 DUP3 ADD PUSH2 0x1383 JUMP JUMPDEST SWAP1 PUSH1 0xB PUSH1 0xA DUP3 ADD SLOAD SWAP2 ADD SLOAD PUSH1 0x40 MLOAD SWAP4 DUP5 SWAP4 PUSH1 0x80 DUP6 MSTORE PUSH1 0x80 DUP6 ADD SWAP1 PUSH2 0x11FC JUMP JUMPDEST PUSH1 0x20 DUP5 ADD SWAP3 SWAP1 SWAP3 MSTORE PUSH1 0xFF DUP2 AND ISZERO ISZERO PUSH1 0x40 DUP5 ADD MSTORE PUSH1 0x8 SHR PUSH1 0x1 PUSH1 0x1 PUSH1 0xA0 SHL SUB AND PUSH1 0x60 DUP4 ADD MSTORE SUB SWAP1 RETURN JUMPDEST CALLVALUE PUSH2 0x119 JUMPI PUSH2 0x160 CALLDATASIZE PUSH1 0x3 NOT ADD SLT PUSH2 0x119 JUMPI CALLDATASIZE PUSH1 0x23 SLT ISZERO PUSH2 0x119 JUMPI PUSH1 0x40 MLOAD PUSH2 0x507 DUP2 PUSH2 0x1257 JUMP JUMPDEST PUSH2 0x104 DUP2 CALLDATASIZE DUP3 GT PUSH2 0x119 JUMPI PUSH1 0x4 SWAP1 JUMPDEST DUP3 DUP3 LT PUSH2 0xAE7 JUMPI POP POP CALLDATALOAD PUSH1 0x1 PUSH1 0x1 PUSH1 0x40 SHL SUB DUP2 GT PUSH2 0x119 JUMPI CALLDATASIZE PUSH1 0x23 DUP3 ADD SLT ISZERO PUSH2 0x119 JUMPI DUP1 PUSH1 0x4 ADD CALLDATALOAD SWAP1 PUSH1 0x1 PUSH1 0x1 PUSH1 0x40 SHL SUB DUP3 GT PUSH2 0x8B2 JUMPI DUP2 PUSH1 0x5 SHL PUSH1 0x40 MLOAD SWAP3 PUSH2 0x562 PUSH1 0x20 DUP4 ADD DUP6 PUSH2 0x128E JUMP JUMPDEST DUP4 MSTORE PUSH1 0x24 PUSH1 0x20 DUP5 ADD SWAP2 DUP4 ADD ADD SWAP2 CALLDATASIZE DUP4 GT PUSH2 0x119 JUMPI PUSH1 0x24 ADD SWAP1 JUMPDEST DUP3 DUP3 LT PUSH2 0xAD7 JUMPI POP POP POP PUSH2 0x124 CALLDATALOAD PUSH1 0x1 PUSH1 0x1 PUSH1 0x40 SHL SUB DUP2 GT PUSH2 0x119 JUMPI PUSH2 0x5A5 SWAP1 CALLDATASIZE SWAP1 PUSH1 0x4 ADD PUSH2 0x12AF JUMP JUMPDEST SWAP2 PUSH2 0x144 CALLDATALOAD PUSH1 0x40 MLOAD PUSH1 0xFF PUSH1 0x2 DUP7 MLOAD SWAP3 PUSH1 0x20 DUP2 DUP2 DUP11 ADD SWAP6 PUSH2 0x5C6 DUP2 DUP4 DUP10 PUSH2 0x11D9 JUMP JUMPDEST DUP2 ADD PUSH1 0x1 DUP2 MSTORE SUB ADD SWAP1 KECCAK256 ADD SLOAD AND ISZERO PUSH2 0xA9D JUMPI DUP4 MLOAD PUSH1 0x3 PUSH1 0x40 MLOAD PUSH1 0x20 DUP2 DUP10 MLOAD PUSH2 0x5EF DUP2 DUP4 DUP10 PUSH2 0x11D9 JUMP JUMPDEST DUP2 ADD PUSH1 0x1 DUP2 MSTORE SUB ADD SWAP1 KECCAK256 ADD SLOAD LT PUSH2 0xA58 JUMPI DUP5 MLOAD SWAP1 KECCAK256 PUSH2 0x60C PUSH2 0x1545 JUMP JUMPDEST PUSH1 0x20 DUP2 MLOAD SWAP2 ADD KECCAK256 EQ PUSH2 0x9E6 JUMPI JUMPDEST POP PUSH1 0x6 SLOAD PUSH1 0x0 NOT DUP2 EQ PUSH2 0x9D0 JUMPI PUSH1 0x1 ADD DUP1 PUSH1 0x6 SSTORE PUSH1 0x40 MLOAD PUSH1 0x20 DUP2 ADD SWAP2 CALLER PUSH1 0x60 SHL DUP4 MSTORE PUSH1 0x34 DUP3 ADD MSTORE TIMESTAMP PUSH1 0x54 DUP3 ADD MSTORE PUSH1 0x54 DUP2 MSTORE PUSH2 0x653 DUP2 PUSH2 0x123C JUMP JUMPDEST MLOAD SWAP1 KECCAK256 SWAP2 PUSH1 0x40 MLOAD SWAP2 PUSH2 0x664 DUP4 PUSH2 0x1221 JUMP JUMPDEST DUP3 MSTORE PUSH1 0x20 DUP3 ADD MSTORE DUP3 PUSH1 0x40 DUP3 ADD MSTORE TIMESTAMP PUSH1 0x60 DUP3 ADD MSTORE PUSH1 0x0 PUSH1 0x80 DUP3 ADD MSTORE CALLER PUSH1 0xA0 DUP3 ADD MSTORE DUP2 PUSH1 0x0 MSTORE PUSH1 0x0 PUSH1 0x20 MSTORE PUSH1 0x40 PUSH1 0x0 KECCAK256 DUP2 MLOAD PUSH1 0x0 JUMPDEST PUSH1 0x8 DUP2 LT PUSH2 0x9BC JUMPI POP POP PUSH1 0x20 DUP3 ADD MLOAD DUP1 MLOAD SWAP1 PUSH1 0x1 PUSH1 0x1 PUSH1 0x40 SHL SUB DUP3 GT PUSH2 0x8B2 JUMPI PUSH1 0x1 PUSH1 0x40 SHL DUP3 GT PUSH2 0x8B2 JUMPI PUSH1 0x20 SWAP1 PUSH1 0x8 DUP5 ADD SLOAD DUP4 PUSH1 0x8 DUP7 ADD SSTORE DUP1 DUP5 LT PUSH2 0x99C JUMPI JUMPDEST POP ADD PUSH1 0x8 DUP4 ADD PUSH1 0x0 MSTORE PUSH1 0x20 PUSH1 0x0 KECCAK256 PUSH1 0x0 JUMPDEST DUP4 DUP2 LT PUSH2 0x988 JUMPI POP POP POP POP PUSH1 0x40 DUP3 ADD MLOAD DUP1 MLOAD SWAP1 PUSH1 0x1 PUSH1 0x1 PUSH1 0x40 SHL SUB DUP3 GT PUSH2 0x8B2 JUMPI PUSH2 0x717 PUSH1 0x9 DUP5 ADD SLOAD PUSH2 0x1349 JUMP JUMPDEST PUSH1 0x1F DUP2 GT PUSH2 0x948 JUMPI JUMPDEST POP PUSH1 0x20 SWAP1 PUSH1 0x1F DUP4 GT PUSH1 0x1 EQ PUSH2 0x8D3 JUMPI SWAP2 DUP1 PUSH1 0xA0 SWAP5 SWAP3 PUSH1 0xB SWAP5 PUSH1 0x0 SWAP3 PUSH2 0x8C8 JUMPI JUMPDEST POP POP DUP2 PUSH1 0x1 SHL SWAP2 PUSH1 0x0 NOT SWAP1 PUSH1 0x3 SHL SHR NOT AND OR PUSH1 0x9 DUP3 ADD SSTORE JUMPDEST PUSH1 0x60 DUP5 ADD MLOAD PUSH1 0xA DUP3 ADD SSTORE ADD SWAP2 PUSH2 0x780 PUSH1 0x80 DUP3 ADD MLOAD ISZERO ISZERO DUP5 SWAP1 PUSH1 0xFF DUP1 NOT DUP4 SLOAD AND SWAP2 ISZERO ISZERO AND OR SWAP1 SSTORE JUMP JUMPDEST ADD MLOAD DUP2 SLOAD PUSH2 0x100 PUSH1 0x1 PUSH1 0xA8 SHL SUB NOT AND PUSH1 0x8 SWAP2 SWAP1 SWAP2 SHL PUSH2 0x100 PUSH1 0x1 PUSH1 0xA8 SHL SUB AND OR SWAP1 SSTORE CALLER PUSH1 0x0 SWAP1 DUP2 MSTORE PUSH1 0x2 PUSH1 0x20 MSTORE PUSH1 0x40 SWAP1 KECCAK256 DUP1 SLOAD SWAP3 SWAP1 PUSH1 0x1 PUSH1 0x40 SHL DUP5 LT ISZERO PUSH2 0x8B2 JUMPI DUP4 PUSH2 0x7D3 SWAP2 PUSH1 0x1 PUSH1 0x20 SWAP7 ADD DUP2 SSTORE PUSH2 0x131B JUMP JUMPDEST DUP2 SLOAD SWAP1 PUSH1 0x3 SHL SWAP1 DUP5 DUP3 SHL SWAP2 PUSH1 0x0 NOT SWAP1 SHL NOT AND OR SWAP1 SSTORE DUP2 PUSH32 0xDB677E795581B981FCC03F2063AF7A50F2F1934A4721D6F23D5F1E694B0997BB PUSH2 0x81F PUSH1 0x40 MLOAD SWAP4 PUSH1 0x40 DUP6 MSTORE PUSH1 0x40 DUP6 ADD SWAP1 PUSH2 0x11FC JUMP JUMPDEST SWAP3 TIMESTAMP DUP7 DUP3 ADD MSTORE DUP1 CALLER SWAP5 SUB SWAP1 LOG3 DUP1 PUSH1 0x0 MSTORE PUSH1 0x0 DUP3 MSTORE DUP1 PUSH32 0xC0AFD2D440ECCE8F50A3A8FB8C422B4BB32611B01094A5041D71F88DD21C6A9 PUSH1 0x40 PUSH1 0xB PUSH2 0x89D DUP3 PUSH1 0x0 KECCAK256 PUSH2 0x88A PUSH2 0x86C DUP3 PUSH2 0x146B JUMP JUMPDEST PUSH2 0x878 PUSH1 0x8 DUP5 ADD PUSH2 0x149E JUMP JUMPDEST PUSH2 0x884 PUSH1 0x9 DUP6 ADD PUSH2 0x1383 JUMP JUMPDEST SWAP2 PUSH2 0x1588 JUMP JUMPDEST SWAP3 ADD DUP1 SLOAD PUSH1 0xFF NOT AND PUSH1 0xFF DUP5 ISZERO ISZERO AND OR SWAP1 SSTORE JUMP JUMPDEST DUP2 MLOAD SWAP1 ISZERO ISZERO DUP2 MSTORE TIMESTAMP DUP7 DUP3 ADD MSTORE LOG2 PUSH1 0x40 MLOAD SWAP1 DUP2 MSTORE RETURN JUMPDEST PUSH4 0x4E487B71 PUSH1 0xE0 SHL PUSH1 0x0 MSTORE PUSH1 0x41 PUSH1 0x4 MSTORE PUSH1 0x24 PUSH1 0x0 REVERT JUMPDEST ADD MLOAD SWAP1 POP DUP9 DUP1 PUSH2 0x740 JUMP JUMPDEST SWAP1 PUSH1 0x9 DUP5 ADD PUSH1 0x0 MSTORE PUSH1 0x20 PUSH1 0x0 KECCAK256 SWAP2 PUSH1 0x0 JUMPDEST PUSH1 0x1F NOT DUP6 AND DUP2 LT PUSH2 0x930 JUMPI POP SWAP3 PUSH1 0xA0 SWAP5 SWAP3 PUSH1 0x1 SWAP3 PUSH1 0xB SWAP6 DUP4 PUSH1 0x1F NOT DUP2 AND LT PUSH2 0x917 JUMPI JUMPDEST POP POP POP DUP2 SHL ADD PUSH1 0x9 DUP3 ADD SSTORE PUSH2 0x758 JUMP JUMPDEST ADD MLOAD PUSH1 0x0 NOT PUSH1 0xF8 DUP5 PUSH1 0x3 SHL AND SHR NOT AND SWAP1 SSTORE DUP9 DUP1 DUP1 PUSH2 0x907 JUMP JUMPDEST SWAP2 SWAP3 PUSH1 0x20 PUSH1 0x1 DUP2 SWAP3 DUP7 DUP6 ADD MLOAD DUP2 SSTORE ADD SWAP5 ADD SWAP3 ADD PUSH2 0x8E4 JUMP JUMPDEST PUSH2 0x978 SWAP1 PUSH1 0x9 DUP6 ADD PUSH1 0x0 MSTORE PUSH1 0x20 PUSH1 0x0 KECCAK256 PUSH1 0x1F DUP6 ADD PUSH1 0x5 SHR DUP2 ADD SWAP2 PUSH1 0x20 DUP7 LT PUSH2 0x97E JUMPI JUMPDEST PUSH1 0x1F ADD PUSH1 0x5 SHR ADD SWAP1 PUSH2 0x1571 JUMP JUMPDEST DUP7 PUSH2 0x720 JUMP JUMPDEST SWAP1 SWAP2 POP DUP2 SWAP1 PUSH2 0x96B JUMP JUMPDEST PUSH1 0x1 SWAP1 PUSH1 0x20 DUP5 MLOAD SWAP5 ADD SWAP4 DUP2 DUP5 ADD SSTORE ADD PUSH2 0x6E9 JUMP JUMPDEST PUSH2 0x9B6 SWAP1 PUSH1 0x8 DUP7 ADD PUSH1 0x0 MSTORE DUP5 DUP5 PUSH1 0x0 KECCAK256 SWAP2 DUP3 ADD SWAP2 ADD PUSH2 0x1571 JUMP JUMPDEST DUP8 PUSH2 0x6D8 JUMP JUMPDEST PUSH1 0x1 SWAP1 PUSH1 0x20 DUP4 MLOAD SWAP4 ADD SWAP3 DUP2 DUP6 ADD SSTORE ADD PUSH2 0x697 JUMP JUMPDEST PUSH4 0x4E487B71 PUSH1 0xE0 SHL PUSH1 0x0 MSTORE PUSH1 0x11 PUSH1 0x4 MSTORE PUSH1 0x24 PUSH1 0x0 REVERT JUMPDEST DUP1 PUSH1 0x0 MSTORE PUSH1 0x3 PUSH1 0x20 MSTORE PUSH1 0xFF PUSH1 0x40 PUSH1 0x0 KECCAK256 SLOAD AND PUSH2 0xA1A JUMPI PUSH1 0x0 MSTORE PUSH1 0x3 PUSH1 0x20 MSTORE PUSH1 0x40 PUSH1 0x0 KECCAK256 PUSH1 0x1 PUSH1 0xFF NOT DUP3 SLOAD AND OR SWAP1 SSTORE DUP4 PUSH2 0x619 JUMP JUMPDEST PUSH1 0x40 MLOAD PUSH3 0x461BCD PUSH1 0xE5 SHL DUP2 MSTORE PUSH1 0x20 PUSH1 0x4 DUP3 ADD MSTORE PUSH1 0x16 PUSH1 0x24 DUP3 ADD MSTORE PUSH22 0x139D5B1B1A599A595C88185B1C9958591E481D5CD959 PUSH1 0x52 SHL PUSH1 0x44 DUP3 ADD MSTORE PUSH1 0x64 SWAP1 REVERT JUMPDEST PUSH1 0x40 MLOAD PUSH3 0x461BCD PUSH1 0xE5 SHL DUP2 MSTORE PUSH1 0x20 PUSH1 0x4 DUP3 ADD MSTORE PUSH1 0x17 PUSH1 0x24 DUP3 ADD MSTORE PUSH32 0x546F6F206D616E79207075626C6963207369676E616C73000000000000000000 PUSH1 0x44 DUP3 ADD MSTORE PUSH1 0x64 SWAP1 REVERT JUMPDEST PUSH1 0x40 MLOAD PUSH3 0x461BCD PUSH1 0xE5 SHL DUP2 MSTORE PUSH1 0x20 PUSH1 0x4 DUP3 ADD MSTORE PUSH1 0x12 PUSH1 0x24 DUP3 ADD MSTORE PUSH18 0x43697263756974206E6F7420616374697665 PUSH1 0x70 SHL PUSH1 0x44 DUP3 ADD MSTORE PUSH1 0x64 SWAP1 REVERT JUMPDEST DUP2 CALLDATALOAD DUP2 MSTORE PUSH1 0x20 SWAP2 DUP3 ADD SWAP2 ADD PUSH2 0x57B JUMP JUMPDEST DUP2 CALLDATALOAD DUP2 MSTORE PUSH1 0x20 SWAP2 DUP3 ADD SWAP2 ADD PUSH2 0x516 JUMP JUMPDEST CALLVALUE PUSH2 0x119 JUMPI PUSH1 0x40 CALLDATASIZE PUSH1 0x3 NOT ADD SLT PUSH2 0x119 JUMPI PUSH2 0xB10 PUSH2 0x1305 JUMP JUMPDEST PUSH1 0x1 PUSH1 0x1 PUSH1 0xA0 SHL SUB AND PUSH1 0x0 SWAP1 DUP2 MSTORE PUSH1 0x2 PUSH1 0x20 MSTORE PUSH1 0x40 SWAP1 KECCAK256 DUP1 SLOAD PUSH1 0x24 CALLDATALOAD SWAP2 SWAP1 DUP3 LT ISZERO PUSH2 0x119 JUMPI PUSH1 0x20 SWAP2 PUSH2 0xB41 SWAP2 PUSH2 0x131B JUMP JUMPDEST SWAP1 SLOAD PUSH1 0x40 MLOAD SWAP2 PUSH1 0x3 SHL SHR DUP2 MSTORE RETURN JUMPDEST CALLVALUE PUSH2 0x119 JUMPI PUSH1 0x40 CALLDATASIZE PUSH1 0x3 NOT ADD SLT PUSH2 0x119 JUMPI PUSH1 0x4 CALLDATALOAD PUSH1 0x1 PUSH1 0x1 PUSH1 0x40 SHL SUB DUP2 GT PUSH2 0x119 JUMPI PUSH2 0xB7F SWAP1 CALLDATASIZE SWAP1 PUSH1 0x4 ADD PUSH2 0x12AF JUMP JUMPDEST PUSH1 0x24 CALLDATALOAD DUP1 ISZERO ISZERO SWAP2 DUP3 DUP3 SUB PUSH2 0x119 JUMPI PUSH2 0xBA2 PUSH1 0x1 DUP1 PUSH1 0xA0 SHL SUB PUSH1 0x4 SLOAD AND CALLER EQ PUSH2 0x14EF JUMP JUMPDEST PUSH1 0x40 MLOAD SWAP3 PUSH2 0xBCE DUP3 MLOAD SWAP5 PUSH1 0x20 DUP2 DUP2 DUP7 ADD SWAP8 PUSH2 0xBBE DUP2 DUP4 DUP12 PUSH2 0x11D9 JUMP JUMPDEST DUP2 ADD PUSH1 0x1 DUP2 MSTORE SUB ADD SWAP1 KECCAK256 SLOAD PUSH2 0x1349 JUMP JUMPDEST ISZERO PUSH2 0xC4F JUMPI PUSH2 0xC30 PUSH2 0xC44 SWAP4 PUSH1 0x2 PUSH2 0xC14 PUSH1 0x20 PUSH32 0x60C372D33F420BAAEE2DB69302E63D22FE0F81AD9352D18E31C7B856A311ABB3 SWAP9 PUSH1 0x40 MLOAD DUP1 SWAP4 DUP2 SWAP3 DUP11 MLOAD SWAP3 DUP4 SWAP2 PUSH2 0x11D9 JUMP JUMPDEST DUP2 ADD PUSH1 0x1 DUP2 MSTORE SUB ADD SWAP1 KECCAK256 ADD SWAP1 PUSH1 0xFF DUP1 NOT DUP4 SLOAD AND SWAP2 ISZERO ISZERO AND OR SWAP1 SSTORE JUMP JUMPDEST PUSH1 0x40 MLOAD SWAP3 DUP4 SWAP3 PUSH1 0x40 DUP5 MSTORE PUSH1 0x40 DUP5 ADD SWAP1 PUSH2 0x11FC JUMP JUMPDEST SWAP1 PUSH1 0x20 DUP4 ADD MSTORE SUB SWAP1 LOG1 STOP JUMPDEST PUSH1 0x40 MLOAD PUSH3 0x461BCD PUSH1 0xE5 SHL DUP2 MSTORE PUSH1 0x20 PUSH1 0x4 DUP3 ADD MSTORE PUSH1 0x16 PUSH1 0x24 DUP3 ADD MSTORE PUSH22 0x10DA5C98DD5A5D08191BD95CC81B9BDD08195E1A5CDD PUSH1 0x52 SHL PUSH1 0x44 DUP3 ADD MSTORE PUSH1 0x64 SWAP1 REVERT JUMPDEST CALLVALUE PUSH2 0x119 JUMPI PUSH1 0x20 CALLDATASIZE PUSH1 0x3 NOT ADD SLT PUSH2 0x119 JUMPI PUSH1 0x4 CALLDATALOAD PUSH1 0x0 MSTORE PUSH1 0x3 PUSH1 0x20 MSTORE PUSH1 0x20 PUSH1 0xFF PUSH1 0x40 PUSH1 0x0 KECCAK256 SLOAD AND PUSH1 0x40 MLOAD SWAP1 ISZERO ISZERO DUP2 MSTORE RETURN JUMPDEST CALLVALUE PUSH2 0x119 JUMPI PUSH1 0x60 CALLDATASIZE PUSH1 0x3 NOT ADD SLT PUSH2 0x119 JUMPI PUSH1 0x1 PUSH1 0x1 PUSH1 0x40 SHL SUB PUSH1 0x4 CALLDATALOAD DUP2 DUP2 GT PUSH2 0x119 JUMPI PUSH2 0xCEF SWAP1 CALLDATASIZE SWAP1 PUSH1 0x4 ADD PUSH2 0x12AF JUMP JUMPDEST PUSH1 0x24 CALLDATALOAD DUP3 DUP2 GT PUSH2 0x119 JUMPI PUSH2 0xD07 SWAP1 CALLDATASIZE SWAP1 PUSH1 0x4 ADD PUSH2 0x12AF JUMP JUMPDEST PUSH2 0xD1C PUSH1 0x1 DUP1 PUSH1 0xA0 SHL SUB PUSH1 0x4 SLOAD AND CALLER EQ PUSH2 0x14EF JUMP JUMPDEST PUSH1 0x40 MLOAD SWAP1 PUSH2 0xD29 DUP3 PUSH2 0x123C JUMP JUMPDEST DUP3 DUP3 MSTORE PUSH1 0x20 SWAP2 DUP3 DUP2 ADD DUP3 DUP2 MSTORE PUSH1 0x40 DUP3 ADD PUSH1 0x1 SWAP2 DUP3 DUP3 MSTORE PUSH1 0x60 DUP5 ADD SWAP3 PUSH1 0x44 CALLDATALOAD DUP5 MSTORE PUSH1 0x40 MLOAD DUP8 DUP2 DUP2 PUSH2 0xD5F DUP13 DUP4 DUP2 MLOAD SWAP4 DUP5 SWAP3 ADD PUSH2 0x11D9 JUMP JUMPDEST DUP2 ADD DUP5 DUP2 MSTORE SUB ADD SWAP1 KECCAK256 SWAP5 MLOAD DUP1 MLOAD DUP11 DUP2 GT PUSH2 0x8B2 JUMPI DUP1 PUSH2 0xD7E DUP9 SLOAD PUSH2 0x1349 JUMP JUMPDEST SWAP3 PUSH1 0x1F SWAP4 DUP12 DUP6 DUP3 GT PUSH2 0xFBF JUMPI JUMPDEST POP POP DUP11 SWAP1 DUP5 DUP4 GT PUSH1 0x1 EQ PUSH2 0xF5C JUMPI PUSH1 0x0 SWAP3 PUSH2 0xF51 JUMPI JUMPDEST POP POP PUSH1 0x0 NOT PUSH1 0x3 DUP4 SWAP1 SHL SHR NOT AND SWAP1 DUP4 SHL OR DUP7 SSTORE JUMPDEST DUP2 DUP7 ADD SWAP3 MLOAD DUP1 MLOAD SWAP11 DUP12 GT PUSH2 0x8B2 JUMPI PUSH2 0xDCD DUP5 SLOAD PUSH2 0x1349 JUMP JUMPDEST DUP12 DUP4 DUP3 GT PUSH2 0xF18 JUMPI JUMPDEST POP POP DUP9 SWAP2 DUP12 GT PUSH1 0x1 EQ PUSH2 0xE82 JUMPI SWAP4 PUSH1 0x3 SWAP4 DUP12 DUP1 PUSH32 0xFFA02A982D35D608CD43813952ADAC44F611D562FBE92CA6085AEB0DC0831D4 SWAP14 PUSH2 0xE72 SWAP12 SWAP10 SWAP7 PUSH2 0xE4D SWAP7 PUSH2 0xE65 SWAP16 SWAP15 SWAP13 SWAP11 PUSH1 0x0 SWAP5 PUSH2 0xE77 JUMPI JUMPDEST POP POP SHL SWAP2 PUSH1 0x0 NOT SWAP1 DUP9 SHL SHR NOT AND OR SWAP1 SSTORE JUMPDEST MLOAD ISZERO ISZERO PUSH1 0x2 DUP6 ADD SWAP1 PUSH1 0xFF DUP1 NOT DUP4 SLOAD AND SWAP2 ISZERO ISZERO AND OR SWAP1 SSTORE JUMP JUMPDEST MLOAD SWAP2 ADD SSTORE PUSH1 0x40 MLOAD SWAP5 DUP6 SWAP5 PUSH1 0x40 DUP7 MSTORE PUSH1 0x40 DUP7 ADD SWAP1 PUSH2 0x11FC JUMP JUMPDEST SWAP2 DUP5 DUP4 SUB SWAP1 DUP6 ADD MSTORE PUSH2 0x11FC JUMP JUMPDEST SUB SWAP1 LOG1 STOP JUMPDEST ADD MLOAD SWAP3 POP CODESIZE DUP1 PUSH2 0xE24 JUMP JUMPDEST SWAP10 SWAP1 PUSH1 0x1F NOT DUP3 AND SWAP11 DUP5 PUSH1 0x0 MSTORE DUP10 PUSH1 0x0 KECCAK256 SWAP12 PUSH1 0x0 JUMPDEST DUP2 DUP2 LT PUSH2 0xF03 JUMPI POP SWAP4 DUP4 PUSH32 0xFFA02A982D35D608CD43813952ADAC44F611D562FBE92CA6085AEB0DC0831D4 SWAP14 PUSH2 0xE65 SWAP14 SWAP13 SWAP11 SWAP9 SWAP5 PUSH1 0x3 SWAP9 SWAP5 PUSH2 0xE4D SWAP8 PUSH2 0xE72 SWAP15 SWAP13 SWAP10 LT PUSH2 0xEEB JUMPI JUMPDEST POP POP POP DUP2 SHL ADD SWAP1 SSTORE PUSH2 0xE35 JUMP JUMPDEST ADD MLOAD PUSH1 0x0 NOT DUP4 DUP11 SHL PUSH1 0xF8 AND SHR NOT AND SWAP1 SSTORE DUP15 DUP1 DUP1 PUSH2 0xEDE JUMP JUMPDEST DUP4 DUP4 ADD MLOAD DUP15 SSTORE SWAP13 DUP6 ADD SWAP13 SWAP3 DUP12 ADD SWAP3 DUP12 ADD PUSH2 0xE96 JUMP JUMPDEST PUSH2 0xF41 SWAP2 DUP7 PUSH1 0x0 MSTORE DUP5 DUP13 PUSH1 0x0 KECCAK256 SWAP2 DUP14 DUP3 DUP6 ADD PUSH1 0x5 SHR DUP5 ADD SWAP5 LT PUSH2 0xF48 JUMPI JUMPDEST ADD PUSH1 0x5 SHR ADD SWAP1 PUSH2 0x1571 JUMP JUMPDEST DUP12 DUP12 PUSH2 0xDD6 JUMP JUMPDEST SWAP3 POP DUP2 SWAP3 PUSH2 0xF36 JUMP JUMPDEST ADD MLOAD SWAP1 POP DUP13 DUP1 PUSH2 0xDA1 JUMP JUMPDEST PUSH1 0x0 DUP11 DUP2 MSTORE DUP13 DUP2 KECCAK256 DUP8 SWAP6 POP SWAP3 SWAP2 SWAP1 PUSH1 0x1F NOT DUP6 AND SWAP1 DUP15 JUMPDEST DUP3 DUP3 LT PUSH2 0xFA8 JUMPI POP POP DUP5 GT PUSH2 0xF8F JUMPI JUMPDEST POP POP POP DUP2 SHL ADD DUP7 SSTORE PUSH2 0xDB5 JUMP JUMPDEST ADD MLOAD PUSH1 0x0 NOT PUSH1 0xF8 DUP5 PUSH1 0x3 SHL AND SHR NOT AND SWAP1 SSTORE DUP13 DUP1 DUP1 PUSH2 0xF82 JUMP JUMPDEST DUP4 DUP6 ADD MLOAD DUP7 SSTORE DUP10 SWAP8 SWAP1 SWAP6 ADD SWAP5 SWAP4 DUP5 ADD SWAP4 ADD DUP15 PUSH2 0xF72 JUMP JUMPDEST PUSH2 0xFE7 SWAP2 DUP12 PUSH1 0x0 MSTORE DUP7 DUP3 PUSH1 0x0 KECCAK256 SWAP2 DUP2 DUP8 ADD PUSH1 0x5 SHR DUP4 ADD SWAP4 DUP8 LT PUSH2 0xF48 JUMPI ADD PUSH1 0x5 SHR ADD SWAP1 PUSH2 0x1571 JUMP JUMPDEST DUP14 DUP12 PUSH2 0xD8B JUMP JUMPDEST CALLVALUE PUSH2 0x119 JUMPI PUSH1 0x0 CALLDATASIZE PUSH1 0x3 NOT ADD SLT PUSH2 0x119 JUMPI PUSH1 0x5 SLOAD PUSH1 0x40 MLOAD PUSH1 0x1 PUSH1 0x1 PUSH1 0xA0 SHL SUB SWAP1 SWAP2 AND DUP2 MSTORE PUSH1 0x20 SWAP1 RETURN JUMPDEST CALLVALUE PUSH2 0x119 JUMPI PUSH1 0x20 DUP1 PUSH1 0x3 NOT CALLDATASIZE ADD SLT PUSH2 0x119 JUMPI PUSH1 0x4 CALLDATALOAD PUSH1 0x0 PUSH1 0xA0 PUSH1 0x40 MLOAD PUSH2 0x103C DUP2 PUSH2 0x1221 JUMP JUMPDEST PUSH1 0x40 MLOAD PUSH2 0x1048 DUP2 PUSH2 0x1257 JUMP JUMPDEST PUSH2 0x100 CALLDATASIZE DUP3 CALLDATACOPY DUP2 MSTORE PUSH1 0x60 DUP6 DUP3 ADD MSTORE PUSH1 0x60 PUSH1 0x40 DUP3 ADD MSTORE DUP3 PUSH1 0x60 DUP3 ADD MSTORE DUP3 PUSH1 0x80 DUP3 ADD MSTORE ADD MSTORE DUP1 PUSH1 0x0 MSTORE PUSH1 0x0 DUP3 MSTORE PUSH2 0x1086 PUSH1 0xA PUSH1 0x40 PUSH1 0x0 KECCAK256 ADD SLOAD ISZERO ISZERO PUSH2 0x1428 JUMP JUMPDEST PUSH1 0x0 MSTORE PUSH1 0x0 DUP2 MSTORE PUSH1 0x40 PUSH1 0x0 KECCAK256 PUSH1 0x40 MLOAD SWAP1 PUSH2 0x109F DUP3 PUSH2 0x1221 JUMP JUMPDEST PUSH2 0x10A8 DUP2 PUSH2 0x146B JUMP JUMPDEST DUP3 MSTORE PUSH1 0x8 SWAP2 PUSH2 0x10B9 PUSH1 0x8 DUP4 ADD PUSH2 0x149E JUMP JUMPDEST DUP5 DUP3 ADD SWAP1 DUP2 MSTORE PUSH2 0x10CB PUSH1 0x9 DUP5 ADD PUSH2 0x1383 JUMP JUMPDEST PUSH1 0x40 DUP4 ADD SWAP1 DUP2 MSTORE PUSH1 0xB PUSH1 0xA DUP6 ADD SLOAD SWAP5 PUSH1 0x60 DUP6 ADD SWAP6 DUP7 MSTORE ADD SLOAD SWAP1 PUSH1 0x80 DUP5 ADD SWAP1 PUSH1 0xFF DUP4 AND ISZERO ISZERO DUP3 MSTORE PUSH1 0x1 DUP1 PUSH1 0xA0 SHL SUB SWAP4 DUP5 PUSH1 0xA0 DUP8 ADD SWAP5 PUSH1 0x8 SHR AND DUP5 MSTORE PUSH1 0x40 MLOAD SWAP8 DUP10 DUP10 ADD DUP11 DUP11 MSTORE PUSH2 0x1C0 DUP11 ADD SWAP8 MLOAD PUSH1 0x0 SWAP2 JUMPDEST DUP4 DUP4 LT PUSH2 0x1196 JUMPI POP POP POP POP MLOAD SWAP8 PUSH2 0x1A0 SWAP6 DUP7 PUSH2 0x120 DUP11 ADD MSTORE DUP10 MLOAD DUP1 SWAP2 MSTORE DUP2 PUSH2 0x1E0 DUP11 ADD SWAP11 ADD SWAP2 PUSH1 0x0 JUMPDEST DUP3 DUP2 LT PUSH2 0x1182 JUMPI POP POP POP POP DUP7 SWAP8 PUSH2 0x1167 SWAP2 MLOAD PUSH1 0x1F NOT DUP10 DUP4 SUB ADD PUSH2 0x140 DUP11 ADD MSTORE PUSH2 0x11FC JUMP JUMPDEST SWAP5 MLOAD PUSH2 0x160 DUP8 ADD MSTORE MLOAD ISZERO ISZERO PUSH2 0x180 DUP7 ADD MSTORE MLOAD AND SWAP1 DUP4 ADD MSTORE SUB SWAP1 RETURN JUMPDEST DUP4 MLOAD DUP13 MSTORE SWAP11 DUP2 ADD SWAP11 SWAP3 DUP2 ADD SWAP3 PUSH1 0x1 ADD PUSH2 0x1143 JUMP JUMPDEST DUP2 MLOAD DUP2 MSTORE PUSH1 0x1 SWAP3 SWAP1 SWAP3 ADD SWAP2 SWAP1 DUP13 ADD SWAP1 DUP13 ADD PUSH2 0x111A JUMP JUMPDEST CALLVALUE PUSH2 0x119 JUMPI PUSH1 0x20 CALLDATASIZE PUSH1 0x3 NOT ADD SLT PUSH2 0x119 JUMPI PUSH1 0x20 SWAP1 PUSH1 0x4 CALLDATALOAD PUSH1 0x0 MSTORE PUSH1 0x3 DUP3 MSTORE PUSH1 0xFF PUSH1 0x40 PUSH1 0x0 KECCAK256 SLOAD AND ISZERO ISZERO DUP2 MSTORE RETURN JUMPDEST PUSH1 0x0 JUMPDEST DUP4 DUP2 LT PUSH2 0x11EC JUMPI POP POP PUSH1 0x0 SWAP2 ADD MSTORE JUMP JUMPDEST DUP2 DUP2 ADD MLOAD DUP4 DUP3 ADD MSTORE PUSH1 0x20 ADD PUSH2 0x11DC JUMP JUMPDEST SWAP1 PUSH1 0x20 SWAP2 PUSH2 0x1215 DUP2 MLOAD DUP1 SWAP3 DUP2 DUP6 MSTORE DUP6 DUP1 DUP7 ADD SWAP2 ADD PUSH2 0x11D9 JUMP JUMPDEST PUSH1 0x1F ADD PUSH1 0x1F NOT AND ADD ADD SWAP1 JUMP JUMPDEST PUSH1 0xC0 DUP2 ADD SWAP1 DUP2 LT PUSH1 0x1 PUSH1 0x1 PUSH1 0x40 SHL SUB DUP3 GT OR PUSH2 0x8B2 JUMPI PUSH1 0x40 MSTORE JUMP JUMPDEST PUSH1 0x80 DUP2 ADD SWAP1 DUP2 LT PUSH1 0x1 PUSH1 0x1 PUSH1 0x40 SHL SUB DUP3 GT OR PUSH2 0x8B2 JUMPI PUSH1 0x40 MSTORE JUMP JUMPDEST PUSH2 0x100 DUP2 ADD SWAP1 DUP2 LT PUSH1 0x1 PUSH1 0x1 PUSH1 0x40 SHL SUB DUP3 GT OR PUSH2 0x8B2 JUMPI PUSH1 0x40 MSTORE JUMP JUMPDEST PUSH1 0x40 DUP2 ADD SWAP1 DUP2 LT PUSH1 0x1 PUSH1 0x1 PUSH1 0x40 SHL SUB DUP3 GT OR PUSH2 0x8B2 JUMPI PUSH1 0x40 MSTORE JUMP JUMPDEST SWAP1 PUSH1 0x1F DUP1 NOT SWAP2 ADD AND DUP2 ADD SWAP1 DUP2 LT PUSH1 0x1 PUSH1 0x1 PUSH1 0x40 SHL SUB DUP3 GT OR PUSH2 0x8B2 JUMPI PUSH1 0x40 MSTORE JUMP JUMPDEST DUP2 PUSH1 0x1F DUP3 ADD SLT ISZERO PUSH2 0x119 JUMPI DUP1 CALLDATALOAD SWAP1 PUSH1 0x1 PUSH1 0x1 PUSH1 0x40 SHL SUB DUP3 GT PUSH2 0x8B2 JUMPI PUSH1 0x40 MLOAD SWAP3 PUSH2 0x12E3 PUSH1 0x1F DUP5 ADD PUSH1 0x1F NOT AND PUSH1 0x20 ADD DUP6 PUSH2 0x128E JUMP JUMPDEST DUP3 DUP5 MSTORE PUSH1 0x20 DUP4 DUP4 ADD ADD GT PUSH2 0x119 JUMPI DUP2 PUSH1 0x0 SWAP3 PUSH1 0x20 DUP1 SWAP4 ADD DUP4 DUP7 ADD CALLDATACOPY DUP4 ADD ADD MSTORE SWAP1 JUMP JUMPDEST PUSH1 0x4 CALLDATALOAD SWAP1 PUSH1 0x1 PUSH1 0x1 PUSH1 0xA0 SHL SUB DUP3 AND DUP3 SUB PUSH2 0x119 JUMPI JUMP JUMPDEST DUP1 SLOAD DUP3 LT ISZERO PUSH2 0x1333 JUMPI PUSH1 0x0 MSTORE PUSH1 0x20 PUSH1 0x0 KECCAK256 ADD SWAP1 PUSH1 0x0 SWAP1 JUMP JUMPDEST PUSH4 0x4E487B71 PUSH1 0xE0 SHL PUSH1 0x0 MSTORE PUSH1 0x32 PUSH1 0x4 MSTORE PUSH1 0x24 PUSH1 0x0 REVERT JUMPDEST SWAP1 PUSH1 0x1 DUP3 DUP2 SHR SWAP3 AND DUP1 ISZERO PUSH2 0x1379 JUMPI JUMPDEST PUSH1 0x20 DUP4 LT EQ PUSH2 0x1363 JUMPI JUMP JUMPDEST PUSH4 0x4E487B71 PUSH1 0xE0 SHL PUSH1 0x0 MSTORE PUSH1 0x22 PUSH1 0x4 MSTORE PUSH1 0x24 PUSH1 0x0 REVERT JUMPDEST SWAP2 PUSH1 0x7F AND SWAP2 PUSH2 0x1358 JUMP JUMPDEST SWAP1 PUSH1 0x40 MLOAD SWAP2 DUP3 PUSH1 0x0 DUP3 SLOAD PUSH2 0x1396 DUP2 PUSH2 0x1349 JUMP JUMPDEST SWAP1 DUP2 DUP5 MSTORE PUSH1 0x20 SWAP5 PUSH1 0x1 SWAP2 PUSH1 0x1 DUP2 AND SWAP1 DUP2 PUSH1 0x0 EQ PUSH2 0x1406 JUMPI POP PUSH1 0x1 EQ PUSH2 0x13C7 JUMPI JUMPDEST POP POP POP PUSH2 0x13C5 SWAP3 POP SUB DUP4 PUSH2 0x128E JUMP JUMPDEST JUMP JUMPDEST PUSH1 0x0 SWAP1 DUP2 MSTORE DUP6 DUP2 KECCAK256 SWAP6 SWAP4 POP SWAP2 SWAP1 JUMPDEST DUP2 DUP4 LT PUSH2 0x13EE JUMPI POP POP PUSH2 0x13C5 SWAP4 POP DUP3 ADD ADD CODESIZE DUP1 DUP1 PUSH2 0x13B6 JUMP JUMPDEST DUP6 SLOAD DUP9 DUP5 ADD DUP6 ADD MSTORE SWAP5 DUP6 ADD SWAP5 DUP8 SWAP5 POP SWAP2 DUP4 ADD SWAP2 PUSH2 0x13D5 JUMP JUMPDEST SWAP3 POP POP POP PUSH2 0x13C5 SWAP5 SWAP3 POP PUSH1 0xFF NOT AND DUP3 DUP5 ADD MSTORE ISZERO ISZERO PUSH1 0x5 SHL DUP3 ADD ADD CODESIZE DUP1 DUP1 PUSH2 0x13B6 JUMP JUMPDEST ISZERO PUSH2 0x142F JUMPI JUMP JUMPDEST PUSH1 0x40 MLOAD PUSH3 0x461BCD PUSH1 0xE5 SHL DUP2 MSTORE PUSH1 0x20 PUSH1 0x4 DUP3 ADD MSTORE PUSH1 0x14 PUSH1 0x24 DUP3 ADD MSTORE PUSH20 0x141C9BDBD988191BD95CC81B9BDD08195E1A5CDD PUSH1 0x62 SHL PUSH1 0x44 DUP3 ADD MSTORE PUSH1 0x64 SWAP1 REVERT JUMPDEST PUSH1 0x40 MLOAD SWAP2 SWAP1 PUSH1 0x0 DUP4 JUMPDEST PUSH1 0x8 DUP3 LT PUSH2 0x1488 JUMPI POP POP POP PUSH2 0x13C5 DUP3 PUSH2 0x1257 JUMP JUMPDEST PUSH1 0x1 PUSH1 0x20 DUP2 SWAP3 DUP6 SLOAD DUP2 MSTORE ADD SWAP4 ADD SWAP2 ADD SWAP1 SWAP2 PUSH2 0x1474 JUMP JUMPDEST SWAP1 PUSH1 0x40 MLOAD SWAP2 DUP3 DUP2 SLOAD SWAP2 DUP3 DUP3 MSTORE PUSH1 0x20 SWAP3 PUSH1 0x20 DUP4 ADD SWAP2 PUSH1 0x0 MSTORE PUSH1 0x20 PUSH1 0x0 KECCAK256 SWAP4 PUSH1 0x0 SWAP1 JUMPDEST DUP3 DUP3 LT PUSH2 0x14D5 JUMPI POP POP POP PUSH2 0x13C5 SWAP3 POP SUB DUP4 PUSH2 0x128E JUMP JUMPDEST DUP6 SLOAD DUP5 MSTORE PUSH1 0x1 SWAP6 DUP7 ADD SWAP6 DUP9 SWAP6 POP SWAP4 DUP2 ADD SWAP4 SWAP1 SWAP2 ADD SWAP1 PUSH2 0x14BF JUMP JUMPDEST ISZERO PUSH2 0x14F6 JUMPI JUMP JUMPDEST PUSH1 0x40 MLOAD PUSH3 0x461BCD PUSH1 0xE5 SHL DUP2 MSTORE PUSH1 0x20 PUSH1 0x4 DUP3 ADD MSTORE PUSH1 0x21 PUSH1 0x24 DUP3 ADD MSTORE PUSH32 0x4F6E6C792061646D696E2063616E2063616C6C20746869732066756E6374696F PUSH1 0x44 DUP3 ADD MSTORE PUSH1 0x37 PUSH1 0xF9 SHL PUSH1 0x64 DUP3 ADD MSTORE PUSH1 0x84 SWAP1 REVERT JUMPDEST PUSH1 0x40 MLOAD SWAP1 PUSH2 0x1552 DUP3 PUSH2 0x1273 JUMP JUMPDEST PUSH1 0x10 DUP3 MSTORE PUSH16 0x616E6F6E796D6F75732D766F74696E67 PUSH1 0x80 SHL PUSH1 0x20 DUP4 ADD MSTORE JUMP JUMPDEST DUP2 DUP2 LT PUSH2 0x157C JUMPI POP POP JUMP JUMPDEST PUSH1 0x0 DUP2 SSTORE PUSH1 0x1 ADD PUSH2 0x1571 JUMP JUMPDEST SWAP2 SWAP1 SWAP2 MLOAD ISZERO DUP1 ISZERO PUSH2 0x16F6 JUMPI JUMPDEST PUSH2 0x16EF JUMPI DUP1 MLOAD SWAP1 PUSH32 0x955D37FC839CAD7A92B3AC87986E1B665589C694070B87F2CA77C5661427FC9F PUSH1 0x20 DUP3 ADD SWAP3 DUP4 KECCAK256 PUSH16 0x35BCB196BB32B934B334B1B0BA34B7B7 PUSH1 0x81 SHL PUSH1 0x20 PUSH1 0x40 MLOAD PUSH2 0x15E5 DUP2 PUSH2 0x1273 JUMP JUMPDEST PUSH1 0x10 DUP2 MSTORE ADD MSTORE SUB PUSH2 0x15FB JUMPI POP POP PUSH1 0x3 SWAP1 MLOAD LT ISZERO SWAP1 JUMP JUMPDEST PUSH32 0x5C14477785F304953B925DFE8BA8932FFB039937C5277F6EF9249F2CBA2B730B DUP2 MLOAD DUP4 KECCAK256 PUSH18 0x766F74696E672D656C69676962696C697479 PUSH1 0x70 SHL PUSH1 0x20 PUSH1 0x40 MLOAD PUSH2 0x1644 DUP2 PUSH2 0x1273 JUMP JUMPDEST PUSH1 0x12 DUP2 MSTORE ADD MSTORE SUB PUSH2 0x165A JUMPI POP POP PUSH1 0x4 SWAP1 MLOAD LT ISZERO SWAP1 JUMP JUMPDEST DUP1 MLOAD DUP3 KECCAK256 PUSH2 0x1666 PUSH2 0x1545 JUMP JUMPDEST PUSH1 0x20 DUP2 MLOAD SWAP2 ADD KECCAK256 EQ PUSH1 0x0 EQ PUSH2 0x1680 JUMPI POP POP PUSH1 0x3 SWAP1 MLOAD LT ISZERO SWAP1 JUMP JUMPDEST SWAP1 PUSH32 0x8264C34C5B601E0429C899C166C2E703AF24AF96DFAA5B74570101330E047A47 SWAP2 MLOAD SWAP1 KECCAK256 PUSH32 0x6D656D626572736869702D766572696669636174696F6E000000000000000000 PUSH1 0x20 PUSH1 0x40 MLOAD PUSH2 0x16D5 DUP2 PUSH2 0x1273 JUMP JUMPDEST PUSH1 0x17 DUP2 MSTORE ADD MSTORE EQ PUSH2 0x16E6 JUMPI POP PUSH1 0x1 SWAP1 JUMP JUMPDEST PUSH1 0x3 SWAP1 MLOAD LT ISZERO SWAP1 JUMP JUMPDEST POP POP PUSH1 0x0 SWAP1 JUMP JUMPDEST POP DUP2 MLOAD ISZERO PUSH2 0x1594 JUMP INVALID LOG2 PUSH5 0x6970667358 0x22 SLT KECCAK256 SWAP4 POP CREATE2 GASLIMIT SAR 0xD5 0x2F OR SAR 0xCD ADDMOD TIMESTAMP 0x4E 0xDA 0x2B JUMPI 0xC4 0xC4 BLOBBASEFEE BLOCKHASH CALLVALUE 0xB1 SWAP3 DUP1 0xC6 DUP14 0xDC 0xB1 0xEB SWAP11 0xC4 0x4E PUSH5 0x736F6C6343 STOP ADDMOD XOR STOP CALLER 0xF STATICCALL MUL 0xA9 DUP3 0xD3 TSTORE PUSH1 0x8C 0xD4 CODESIZE SGT SWAP6 0x2A 0xDA 0xC4 0x4F PUSH2 0x1D56 0x2F 0xBE SWAP3 0xCA PUSH1 0x85 0xAE 0xB0 0xDC ADDMOD BALANCE 0xD4 "},"methodIdentifiers":{"addCircuit(string,string,uint256)":"1f09a2e2","admin()":"f851a440","circuits(string)":"9ea2cd38","getCircuit(string)":"e4baeda3","getProof(bytes32)":"1b80bb3a","getTotalProofs()":"9b1bc0c9","getUserProofs(address)":"46bdfb80","isNullifierUsed(bytes32)":"22dc7b4c","nullifierHashes(bytes32)":"17cc915c","pause()":"8456cb59","proofCounter()":"6d9f4370","proofs(bytes32)":"444d95b0","submitProof(uint256[8],uint256[],string,bytes32)":"4370a39b","unpause()":"3f4ba83a","updateCircuit(string,bool)":"275d4191","updateVlayerVerifier(address)":"f6eb0c0c","userProofs(address,uint256)":"373b58e6","verifyProof(bytes32)":"b142b4ec","vlayerVerifier()":"1caa449c"}}}}}