{
  "_format": "hh-sol-artifact-1",
  "contractName": "VlayerZKVerifier",
  "sourceName": "contracts/VlayerZKVerifier.sol",
  "abi": [
    {
      "inputs": [
        {
          "internalType": "address",
          "name": "_vlayerVerifier",
          "type": "address"
        }
      ],
      "stateMutability": "nonpayable",
      "type": "constructor"
    },
    {
      "anonymous": false,
      "inputs": [
        {
          "indexed": false,
          "internalType": "string",
          "name": "name",
          "type": "string"
        },
        {
          "indexed": false,
          "internalType": "string",
          "name": "description",
          "type": "string"
        }
      ],
      "name": "CircuitAdded",
      "type": "event"
    },
    {
      "anonymous": false,
      "inputs": [
        {
          "indexed": false,
          "internalType": "string",
          "name": "name",
          "type": "string"
        },
        {
          "indexed": false,
          "internalType": "bool",
          "name": "isActive",
          "type": "bool"
        }
      ],
      "name": "CircuitUpdated",
      "type": "event"
    },
    {
      "anonymous": false,
      "inputs": [
        {
          "indexed": true,
          "internalType": "bytes32",
          "name": "proofId",
          "type": "bytes32"
        },
        {
          "indexed": true,
          "internalType": "address",
          "name": "prover",
          "type": "address"
        },
        {
          "indexed": false,
          "internalType": "string",
          "name": "proofType",
          "type": "string"
        },
        {
          "indexed": false,
          "internalType": "uint256",
          "name": "timestamp",
          "type": "uint256"
        }
      ],
      "name": "ProofSubmitted",
      "type": "event"
    },
    {
      "anonymous": false,
      "inputs": [
        {
          "indexed": true,
          "internalType": "bytes32",
          "name": "proofId",
          "type": "bytes32"
        },
        {
          "indexed": false,
          "internalType": "bool",
          "name": "isValid",
          "type": "bool"
        },
        {
          "indexed": false,
          "internalType": "uint256",
          "name": "timestamp",
          "type": "uint256"
        }
      ],
      "name": "ProofVerified",
      "type": "event"
    },
    {
      "inputs": [
        {
          "internalType": "string",
          "name": "name",
          "type": "string"
        },
        {
          "internalType": "string",
          "name": "description",
          "type": "string"
        },
        {
          "internalType": "uint256",
          "name": "maxPublicSignals",
          "type": "uint256"
        }
      ],
      "name": "addCircuit",
      "outputs": [],
      "stateMutability": "nonpayable",
      "type": "function"
    },
    {
      "inputs": [],
      "name": "admin",
      "outputs": [
        {
          "internalType": "address",
          "name": "",
          "type": "address"
        }
      ],
      "stateMutability": "view",
      "type": "function"
    },
    {
      "inputs": [
        {
          "internalType": "string",
          "name": "",
          "type": "string"
        }
      ],
      "name": "circuits",
      "outputs": [
        {
          "internalType": "string",
          "name": "name",
          "type": "string"
        },
        {
          "internalType": "string",
          "name": "description",
          "type": "string"
        },
        {
          "internalType": "bool",
          "name": "isActive",
          "type": "bool"
        },
        {
          "internalType": "uint256",
          "name": "maxPublicSignals",
          "type": "uint256"
        }
      ],
      "stateMutability": "view",
      "type": "function"
    },
    {
      "inputs": [
        {
          "internalType": "string",
          "name": "name",
          "type": "string"
        }
      ],
      "name": "getCircuit",
      "outputs": [
        {
          "components": [
            {
              "internalType": "string",
              "name": "name",
              "type": "string"
            },
            {
              "internalType": "string",
              "name": "description",
              "type": "string"
            },
            {
              "internalType": "bool",
              "name": "isActive",
              "type": "bool"
            },
            {
              "internalType": "uint256",
              "name": "maxPublicSignals",
              "type": "uint256"
            }
          ],
          "internalType": "struct VlayerZKVerifier.Circuit",
          "name": "",
          "type": "tuple"
        }
      ],
      "stateMutability": "view",
      "type": "function"
    },
    {
      "inputs": [
        {
          "internalType": "bytes32",
          "name": "proofId",
          "type": "bytes32"
        }
      ],
      "name": "getProof",
      "outputs": [
        {
          "components": [
            {
              "internalType": "uint256[8]",
              "name": "proof",
              "type": "uint256[8]"
            },
            {
              "internalType": "uint256[]",
              "name": "publicSignals",
              "type": "uint256[]"
            },
            {
              "internalType": "string",
              "name": "proofType",
              "type": "string"
            },
            {
              "internalType": "uint256",
              "name": "timestamp",
              "type": "uint256"
            },
            {
              "internalType": "bool",
              "name": "isValid",
              "type": "bool"
            },
            {
              "internalType": "address",
              "name": "prover",
              "type": "address"
            }
          ],
          "internalType": "struct VlayerZKVerifier.ZKProof",
          "name": "",
          "type": "tuple"
        }
      ],
      "stateMutability": "view",
      "type": "function"
    },
    {
      "inputs": [],
      "name": "getTotalProofs",
      "outputs": [
        {
          "internalType": "uint256",
          "name": "",
          "type": "uint256"
        }
      ],
      "stateMutability": "view",
      "type": "function"
    },
    {
      "inputs": [
        {
          "internalType": "address",
          "name": "user",
          "type": "address"
        }
      ],
      "name": "getUserProofs",
      "outputs": [
        {
          "internalType": "bytes32[]",
          "name": "",
          "type": "bytes32[]"
        }
      ],
      "stateMutability": "view",
      "type": "function"
    },
    {
      "inputs": [
        {
          "internalType": "bytes32",
          "name": "nullifierHash",
          "type": "bytes32"
        }
      ],
      "name": "isNullifierUsed",
      "outputs": [
        {
          "internalType": "bool",
          "name": "",
          "type": "bool"
        }
      ],
      "stateMutability": "view",
      "type": "function"
    },
    {
      "inputs": [
        {
          "internalType": "bytes32",
          "name": "",
          "type": "bytes32"
        }
      ],
      "name": "nullifierHashes",
      "outputs": [
        {
          "internalType": "bool",
          "name": "",
          "type": "bool"
        }
      ],
      "stateMutability": "view",
      "type": "function"
    },
    {
      "inputs": [],
      "name": "pause",
      "outputs": [],
      "stateMutability": "nonpayable",
      "type": "function"
    },
    {
      "inputs": [],
      "name": "proofCounter",
      "outputs": [
        {
          "internalType": "uint256",
          "name": "",
          "type": "uint256"
        }
      ],
      "stateMutability": "view",
      "type": "function"
    },
    {
      "inputs": [
        {
          "internalType": "bytes32",
          "name": "",
          "type": "bytes32"
        }
      ],
      "name": "proofs",
      "outputs": [
        {
          "internalType": "string",
          "name": "proofType",
          "type": "string"
        },
        {
          "internalType": "uint256",
          "name": "timestamp",
          "type": "uint256"
        },
        {
          "internalType": "bool",
          "name": "isValid",
          "type": "bool"
        },
        {
          "internalType": "address",
          "name": "prover",
          "type": "address"
        }
      ],
      "stateMutability": "view",
      "type": "function"
    },
    {
      "inputs": [
        {
          "internalType": "uint256[8]",
          "name": "proof",
          "type": "uint256[8]"
        },
        {
          "internalType": "uint256[]",
          "name": "publicSignals",
          "type": "uint256[]"
        },
        {
          "internalType": "string",
          "name": "proofType",
          "type": "string"
        },
        {
          "internalType": "bytes32",
          "name": "nullifierHash",
          "type": "bytes32"
        }
      ],
      "name": "submitProof",
      "outputs": [
        {
          "internalType": "bytes32",
          "name": "proofId",
          "type": "bytes32"
        }
      ],
      "stateMutability": "nonpayable",
      "type": "function"
    },
    {
      "inputs": [],
      "name": "unpause",
      "outputs": [],
      "stateMutability": "nonpayable",
      "type": "function"
    },
    {
      "inputs": [
        {
          "internalType": "string",
          "name": "name",
          "type": "string"
        },
        {
          "internalType": "bool",
          "name": "isActive",
          "type": "bool"
        }
      ],
      "name": "updateCircuit",
      "outputs": [],
      "stateMutability": "nonpayable",
      "type": "function"
    },
    {
      "inputs": [
        {
          "internalType": "address",
          "name": "_vlayerVerifier",
          "type": "address"
        }
      ],
      "name": "updateVlayerVerifier",
      "outputs": [],
      "stateMutability": "nonpayable",
      "type": "function"
    },
    {
      "inputs": [
        {
          "internalType": "address",
          "name": "",
          "type": "address"
        },
        {
          "internalType": "uint256",
          "name": "",
          "type": "uint256"
        }
      ],
      "name": "userProofs",
      "outputs": [
        {
          "internalType": "bytes32",
          "name": "",
          "type": "bytes32"
        }
      ],
      "stateMutability": "view",
      "type": "function"
    },
    {
      "inputs": [
        {
          "internalType": "bytes32",
          "name": "proofId",
          "type": "bytes32"
        }
      ],
      "name": "verifyProof",
      "outputs": [
        {
          "internalType": "bool",
          "name": "",
          "type": "bool"
        }
      ],
      "stateMutability": "view",
      "type": "function"
    },
    {
      "inputs": [],
      "name": "vlayerVerifier",
      "outputs": [
        {
          "internalType": "address",
          "name": "",
          "type": "address"
        }
      ],
      "stateMutability": "view",
      "type": "function"
    }
  ],
  "bytecode": "0x60803462000f3357601f6200273a38819003918201601f19168301916001600160401b03831184841017620009365780849260209460405283398101031262000f3357516001600160a01b0381169081900362000f335760018060a01b031933816004541617600455600554161760055560006006556200007f62000f58565b60108152602081016f35bcb196bb32b934b334b1b0ba34b7b760811b8152620000a762000f78565b90602a82527f4b594320766572696669636174696f6e207769746820576f726c642049442069602083015269373a32b3b930ba34b7b760b11b6040830152620000ef62000f38565b8381526200011f602080830193858552600160408501526004606085015260405180938192895192839162000f98565b8101600181520301902091815180519060018060401b0382116200093657845490600182811c9216801562000f28575b6020831014620009155781601f84931162000ed3575b50602090601f831160011462000e625760009262000e56575b50508160011b916000199060031b1c19161783555b518051906001600160401b03821162000936576001840154600181811c9116801562000e4b575b60208210146200091557601f811162000dff575b50602090601f831160011462000d855760606200026194846200025298956000805160206200271a8339815191529a989560039560009262000827575b505060001982861b1c1916600191821b17908501555b600284016040820151151560ff80198354169116179055015191015560405193849360408552604085019062000fbd565b90838203602085015262000fbd565b0390a16200026e62000f58565b601281526020810171766f74696e672d656c69676962696c69747960701b81526200029862000f78565b90603482527f56657269667920766f74696e6720656c69676962696c69747920776974686f7560208301527f742072657665616c696e67206964656e746974790000000000000000000000006040830152620003226020620002f962000f38565b928584528482850152600160408501526005606085015260405180938192885192839162000f98565b8101600181520301902090805180519060018060401b0382116200093657835490600182811c9216801562000d7a575b6020831014620009155781601f84931162000d25575b50602090601f831160011462000cb45760009262000ca8575b50508160011b916000199060031b1c19161782555b60208101518051906001600160401b03821162000936576001840154600181811c9116801562000c9d575b60208210146200091557601f811162000c51575b50602090601f831160011462000bd75760606200045794846200025298956000805160206200271a8339815191529a98956003956000926200082757505060001982861b1c1916600191821b1790850155600284016040820151151560ff80198354169116179055015191015560405193849360408552604085019062000fbd565b0390a16200046462000f58565b60108152602081016f616e6f6e796d6f75732d766f74696e6760801b81526200048c62000f58565b90601f82527f416e6f6e796d6f757320766f74696e672077697468206e756c6c6966696572006020830152620004f06020620004c762000f38565b928584528482850152600160408501526006606085015260405180938192885192839162000f98565b8101600181520301902090805180519060018060401b0382116200093657835490600182811c9216801562000bcc575b6020831014620009155781601f84931162000b77575b50602090601f831160011462000b065760009262000afa575b50508160011b916000199060031b1c19161782555b60208101518051906001600160401b03821162000936576001840154600181811c9116801562000aef575b60208210146200091557601f811162000aa3575b50602090601f831160011462000a295760606200062594846200025298956000805160206200271a8339815191529a98956003956000926200082757505060001982861b1c1916600191821b1790850155600284016040820151151560ff80198354169116179055015191015560405193849360408552604085019062000fbd565b0390a16200063262000f58565b601781527f6d656d626572736869702d766572696669636174696f6e00000000000000000060208201526200066662000f78565b602e81527f50726f76652044414f206d656d6265727368697020776974686f75742072657660208201526d65616c696e672064657461696c7360901b6040820152620006b162000f38565b82815281602082015260016040820152600460608201526040516020818551620006df8183858a0162000f98565b8101600181520301902090805180519060018060401b0382116200093657835490600182811c9216801562000a1e575b6020831014620009155781601f849311620009c9575b50602090601f831160011462000958576000926200094c575b50508160011b916000199060031b1c19161782555b60208101518051906001600160401b03821162000936576001840154600181811c911680156200092b575b60208210146200091557601f8111620008c5575b50602090601f8311600114620008335760606200081494846200025298956000805160206200271a8339815191529a98956003956000926200082757505060001982861b1c1916600191821b1790850155600284016040820151151560ff80198354169116179055015191015560405193849360408552604085019062000fbd565b0390a1604051611735908162000fe58239f35b0151905038806200020b565b90601f198316916001860160005260206000209260005b818110620008ac5750946001856000805160206200271a8339815191529a9895600395606095620002529c99620008149b1062000893575b505050811b01600185015562000221565b015160001983881b60f8161c1916905538808062000882565b929360206001819287860151815501950193016200084a565b600185016000526020600020601f840160051c810191602085106200090a575b601f0160051c01905b818110620008fd575062000792565b60008155600101620008ee565b9091508190620008e5565b634e487b7160e01b600052602260045260246000fd5b90607f16906200077e565b634e487b7160e01b600052604160045260246000fd5b0151905038806200073e565b9250846000526020600020906000935b601f1984168510620009ad576001945083601f1981161062000993575b505050811b01825562000753565b015160001960f88460031b161c1916905538808062000985565b8181015183556020948501946001909301929091019062000968565b909150846000526020600020601f840160051c81016020851062000a16575b90849392915b601f830160051c8201811062000a0657505062000725565b60008155859450600101620009ee565b5080620009e8565b91607f16916200070f565b906001850160005260206000209160005b601f198516811062000a8a575062000625946001856000805160206200271a8339815191529a9895600395606095620002529c99601f198116106200089357505050811b01600185015562000221565b9192602060018192868501518155019401920162000a3a565b600185016000526020600020601f840160051c81016020851062000ae7575b601f830160051c8201811062000ada575050620005a3565b6000815560010162000ac2565b508062000ac2565b90607f16906200058f565b0151905038806200054f565b9250846000526020600020906000935b601f198416851062000b5b576001945083601f1981161062000b41575b505050811b01825562000564565b015160001960f88460031b161c1916905538808062000b33565b8181015183556020948501946001909301929091019062000b16565b909150846000526020600020601f840160051c81016020851062000bc4575b90849392915b601f830160051c8201811062000bb457505062000536565b6000815585945060010162000b9c565b508062000b96565b91607f169162000520565b906001850160005260206000209160005b601f198516811062000c38575062000457946001856000805160206200271a8339815191529a9895600395606095620002529c99601f198116106200089357505050811b01600185015562000221565b9192602060018192868501518155019401920162000be8565b600185016000526020600020601f840160051c81016020851062000c95575b601f830160051c8201811062000c88575050620003d5565b6000815560010162000c70565b508062000c70565b90607f1690620003c1565b01519050388062000381565b9250846000526020600020906000935b601f198416851062000d09576001945083601f1981161062000cef575b505050811b01825562000396565b015160001960f88460031b161c1916905538808062000ce1565b8181015183556020948501946001909301929091019062000cc4565b909150846000526020600020601f840160051c81016020851062000d72575b90849392915b601f830160051c8201811062000d6257505062000368565b6000815585945060010162000d4a565b508062000d44565b91607f169162000352565b906001850160005260206000209160005b601f198516811062000de6575062000261946001856000805160206200271a8339815191529a9895600395606095620002529c99601f198116106200089357505050811b01600185015562000221565b9192602060018192868501518155019401920162000d96565b600185016000526020600020601f840160051c81016020851062000e43575b601f830160051c8201811062000e36575050620001ce565b6000815560010162000e1e565b508062000e1e565b90607f1690620001ba565b0151905038806200017e565b9250856000526020600020906000935b601f198416851062000eb7576001945083601f1981161062000e9d575b505050811b01835562000193565b015160001960f88460031b161c1916905538808062000e8f565b8181015183556020948501946001909301929091019062000e72565b909150856000526020600020601f840160051c81016020851062000f20575b90849392915b601f830160051c8201811062000f1057505062000165565b6000815585945060010162000ef8565b508062000ef2565b91607f16916200014f565b600080fd5b60405190608082016001600160401b038111838210176200093657604052565b60408051919082016001600160401b038111838210176200093657604052565b60405190606082016001600160401b038111838210176200093657604052565b60005b83811062000fac5750506000910152565b818101518382015260200162000f9b565b9060209162000fd88151809281855285808601910162000f98565b601f01601f191601019056fe608080604052600436101561001357600080fd5b60003560e01c90816317cc915c146111ac575080631b80bb3a146110175780631caa449c14610fee5780631f09a2e214610cbe57806322dc7b4c14610c8d578063275d419114610b4f578063373b58e614610af75780633f4ba83a1461038d5780634370a39b146104e0578063444d95b01461046957806346bdfb80146103b55780636d9f43701461036f5780638456cb591461038d5780639b1bc0c91461036f5780639ea2cd38146102c0578063b142b4ec14610270578063e4baeda31461016f578063f6eb0c0c1461011e5763f851a440146100f057600080fd5b34610119576000366003190112610119576004546040516001600160a01b039091168152602090f35b600080fd5b3461011957602036600319011261011957610137611305565b6004546001600160a01b03919061015190831633146114ef565b166bffffffffffffffffffffffff60a01b6005541617600555600080f35b346101195760208060031936011261011957600435906001600160401b038211610119576101da816101a760809436906004016112af565b600060606040516101b78161123c565b8181528185820152826040820152015281604051938285809451938492016111d9565b81016001815203019020604051916101f18361123c565b6101fa82611383565b835261025d61020b60018401611383565b82850190815261024a600360ff6002870154169560408801961515875201549360608701948552604051978897828952519188015260a08701906111fc565b9051858203601f190160408701526111fc565b9151151560608401525160808301520390f35b34610119576020366003190112610119576004358060005260006020526102a0600a604060002001541515611428565b6000526000602052602060ff600b60406000200154166040519015158152f35b34610119576020366003190112610119576004356001600160401b0381116101195761030b60206102f86103509336906004016112af565b81604051938285809451938492016111d9565b8101600181520301902061031e81611383565b9061032b60018201611383565b61035e600360ff600285015416930154916040519586956080875260808701906111fc565b9085820360208701526111fc565b911515604084015260608301520390f35b34610119576000366003190112610119576020600654604051908152f35b34610119576000366003190112610119576103b360018060a01b036004541633146114ef565b005b3461011957602080600319360112610119576001600160a01b036103d7611305565b1660005260028152604060002060405190818382549182815201908192600052846000209060005b868282106104555786866104158288038361128e565b604051928392818401908285525180915260408401929160005b82811061043e57505050500390f35b83518552869550938101939281019260010161042f565b8354855290930192600192830192016103ff565b346101195760203660031901126101195760043560005260006020526104b8604060002061049960098201611383565b90600b600a8201549101546040519384936080855260808501906111fc565b602084019290925260ff81161515604084015260081c6001600160a01b031660608301520390f35b34610119576101603660031901126101195736602312156101195760405161050781611257565b61010481368211610119576004905b828210610ae7575050356001600160401b0381116101195736602382011215610119578060040135906001600160401b0382116108b2578160051b60405192610562602083018561128e565b8352602460208401918301019136831161011957602401905b828210610ad757505050610124356001600160401b038111610119576105a59036906004016112af565b916101443560405160ff6002865192602081818a01956105c68183896111d9565b8101600181520301902001541615610a9d578351600360405160208189516105ef8183896111d9565b81016001815203019020015410610a58578451902061060c611545565b60208151910120146109e6575b5060065460001981146109d0576001018060065560405160208101913360601b83526034820152426054820152605481526106538161123c565b519020916040519161066483611221565b82526020820152826040820152426060820152600060808201523360a08201528160005260006020526040600020815160005b600881106109bc57505060208201518051906001600160401b0382116108b257600160401b82116108b257602090600884015483600886015580841061099c575b500160088301600052602060002060005b838110610988575050505060408201518051906001600160401b0382116108b2576107176009840154611349565b601f8111610948575b50602090601f83116001146108d357918060a09492600b946000926108c8575b50508160011b916000199060031b1c19161760098201555b6060840151600a820155019161078060808201511515849060ff801983541691151516179055565b01518154610100600160a81b03191660089190911b610100600160a81b031617905533600090815260026020526040902080549290600160401b8410156108b257836107d391600160209601815561131b565b81549060031b9084821b91600019901b1916179055817fdb677e795581b981fcc03f2063af7a50f2f1934a4721d6f23d5f1e694b0997bb61081f604051936040855260408501906111fc565b9242868201528033940390a38060005260008252807f0c0afd2d440ecce8f50a3a8fb8c422b4bb32611b01094a5041d71f88dd21c6a96040600b61089d8260002061088a61086c8261146b565b6108786008840161149e565b61088460098501611383565b91611588565b9201805460ff191660ff84151516179055565b815190151581524286820152a2604051908152f35b634e487b7160e01b600052604160045260246000fd5b015190508880610740565b906009840160005260206000209160005b601f198516811061093057509260a09492600192600b9583601f19811610610917575b505050811b016009820155610758565b015160001960f88460031b161c19169055888080610907565b919260206001819286850151815501940192016108e4565b61097890600985016000526020600020601f850160051c8101916020861061097e575b601f0160051c0190611571565b86610720565b909150819061096b565b6001906020845194019381840155016106e9565b6109b6906008860160005284846000209182019101611571565b876106d8565b600190602083519301928185015501610697565b634e487b7160e01b600052601160045260246000fd5b80600052600360205260ff60406000205416610a1a5760005260036020526040600020600160ff1982541617905583610619565b60405162461bcd60e51b8152602060048201526016602482015275139d5b1b1a599a595c88185b1c9958591e481d5cd95960521b6044820152606490fd5b60405162461bcd60e51b815260206004820152601760248201527f546f6f206d616e79207075626c6963207369676e616c730000000000000000006044820152606490fd5b60405162461bcd60e51b815260206004820152601260248201527143697263756974206e6f742061637469766560701b6044820152606490fd5b813581526020918201910161057b565b8135815260209182019101610516565b3461011957604036600319011261011957610b10611305565b6001600160a01b031660009081526002602052604090208054602435919082101561011957602091610b419161131b565b90546040519160031b1c8152f35b34610119576040366003190112610119576004356001600160401b03811161011957610b7f9036906004016112af565b6024358015159182820361011957610ba260018060a01b036004541633146114ef565b60405192610bce82519460208181860197610bbe81838b6111d9565b8101600181520301902054611349565b15610c4f57610c30610c44936002610c1460207f60c372d33f420baaee2db69302e63d22fe0f81ad9352d18e31c7b856a311abb398604051809381928a519283916111d9565b81016001815203019020019060ff801983541691151516179055565b6040519283926040845260408401906111fc565b9060208301520390a1005b60405162461bcd60e51b815260206004820152601660248201527510da5c98dd5a5d08191bd95cc81b9bdd08195e1a5cdd60521b6044820152606490fd5b34610119576020366003190112610119576004356000526003602052602060ff604060002054166040519015158152f35b34610119576060366003190112610119576001600160401b0360043581811161011957610cef9036906004016112af565b60243582811161011957610d079036906004016112af565b610d1c60018060a01b036004541633146114ef565b60405190610d298261123c565b8282526020918281018281526040820160019182825260608401926044358452604051878181610d5f8c838151938492016111d9565b810184815203019020945180518a81116108b25780610d7e8854611349565b92601f938b858211610fbf575b50508a90848311600114610f5c57600092610f51575b5050600019600383901b1c191690831b1786555b818601925180519a8b116108b257610dcd8454611349565b8b838211610f18575b505088918b11600114610e8257936003938b807f0ffa02a982d35d608cd43813952adac44f611d562fbe92ca6085aeb0dc0831d49d610e729b9996610e4d96610e659f9e9c9a600094610e77575b50501b9160001990881b1c19161790555b511515600285019060ff801983541691151516179055565b519101556040519485946040865260408601906111fc565b91848303908501526111fc565b0390a1005b015192503880610e24565b9990601f1982169a84600052896000209b60005b818110610f03575093837f0ffa02a982d35d608cd43813952adac44f611d562fbe92ca6085aeb0dc0831d49d610e659d9c9a989460039894610e4d97610e729e9c9910610eeb575b505050811b019055610e35565b0151600019838a1b60f8161c191690558e8080610ede565b838301518e559c85019c928b01928b01610e96565b610f419186600052848c600020918d82850160051c84019410610f48575b0160051c0190611571565b8b8b610dd6565b92508192610f36565b015190508c80610da1565b60008a81528c8120879550929190601f198516908e5b828210610fa85750508411610f8f575b505050811b018655610db5565b015160001960f88460031b161c191690558c8080610f82565b83850151865589979095019493840193018e610f72565b610fe7918b60005286826000209181870160051c8301938710610f48570160051c0190611571565b8d8b610d8b565b34610119576000366003190112610119576005546040516001600160a01b039091168152602090f35b346101195760208060031936011261011957600435600060a060405161103c81611221565b60405161104881611257565b61010036823781526060858201526060604082015282606082015282608082015201528060005260008252611086600a604060002001541515611428565b6000526000815260406000206040519061109f82611221565b6110a88161146b565b82526008916110b96008830161149e565b8482019081526110cb60098401611383565b60408301908152600b600a8501549460608501958652015490608084019060ff83161515825260018060a01b03938460a087019460081c168452604051978989018a8a526101c08a0197516000915b838310611196575050505051976101a095866101208a01528951809152816101e08a019a019160005b828110611182575050505086976111679151601f19898303016101408a01526111fc565b94516101608701525115156101808601525116908301520390f35b83518c529a81019a92810192600101611143565b8151815260019290920191908c01908c0161111a565b34610119576020366003190112610119576020906004356000526003825260ff6040600020541615158152f35b60005b8381106111ec5750506000910152565b81810151838201526020016111dc565b90602091611215815180928185528580860191016111d9565b601f01601f1916010190565b60c081019081106001600160401b038211176108b257604052565b608081019081106001600160401b038211176108b257604052565b61010081019081106001600160401b038211176108b257604052565b604081019081106001600160401b038211176108b257604052565b90601f801991011681019081106001600160401b038211176108b257604052565b81601f82011215610119578035906001600160401b0382116108b257604051926112e3601f8401601f19166020018561128e565b8284526020838301011161011957816000926020809301838601378301015290565b600435906001600160a01b038216820361011957565b80548210156113335760005260206000200190600090565b634e487b7160e01b600052603260045260246000fd5b90600182811c92168015611379575b602083101461136357565b634e487b7160e01b600052602260045260246000fd5b91607f1691611358565b9060405191826000825461139681611349565b9081845260209460019160018116908160001461140657506001146113c7575b5050506113c59250038361128e565b565b600090815285812095935091905b8183106113ee5750506113c593508201013880806113b6565b855488840185015294850194879450918301916113d5565b925050506113c594925060ff191682840152151560051b8201013880806113b6565b1561142f57565b60405162461bcd60e51b8152602060048201526014602482015273141c9bdbd988191bd95cc81b9bdd08195e1a5cdd60621b6044820152606490fd5b60405191906000835b60088210611488575050506113c582611257565b6001602081928554815201930191019091611474565b90604051918281549182825260209260208301916000526020600020936000905b8282106114d5575050506113c59250038361128e565b8554845260019586019588955093810193909101906114bf565b156114f657565b60405162461bcd60e51b815260206004820152602160248201527f4f6e6c792061646d696e2063616e2063616c6c20746869732066756e6374696f6044820152603760f91b6064820152608490fd5b6040519061155282611273565b601082526f616e6f6e796d6f75732d766f74696e6760801b6020830152565b81811061157c575050565b60008155600101611571565b919091511580156116f6575b6116ef578051907f955d37fc839cad7a92b3ac87986e1b665589c694070b87f2ca77c5661427fc9f602082019283206f35bcb196bb32b934b334b1b0ba34b7b760811b60206040516115e581611273565b601081520152036115fb57505060039051101590565b7f5c14477785f304953b925dfe8ba8932ffb039937c5277f6ef9249f2cba2b730b8151832071766f74696e672d656c69676962696c69747960701b602060405161164481611273565b6012815201520361165a57505060049051101590565b80518220611666611545565b602081519101201460001461168057505060039051101590565b907f8264c34c5b601e0429c899c166c2e703af24af96dfaa5b74570101330e047a47915190207f6d656d626572736869702d766572696669636174696f6e00000000000000000060206040516116d581611273565b601781520152146116e65750600190565b60039051101590565b5050600090565b5081511561159456fea26469706673582212209350f5451dd52f171dcd08424eda2b57c4c44a4034b19280c68ddcb1eb9ac44e64736f6c634300081800330ffa02a982d35d608cd43813952adac44f611d562fbe92ca6085aeb0dc0831d4",
  "linkReferences": {},
  "deployedLinkReferences": {}
}