{
  "_format": "hh-sol-artifact-1",
  "contractName": "WorldAppIntegration",
  "sourceName": "contracts/WorldAppIntegration.sol",
  "abi": [
    {
      "inputs": [
        {
          "internalType": "string",
          "name": "_miniAppId",
          "type": "string"
        }
      ],
      "stateMutability": "nonpayable",
      "type": "constructor"
    },
    {
      "anonymous": false,
      "inputs": [
        {
          "indexed": false,
          "internalType": "string",
          "name": "appId",
          "type": "string"
        }
      ],
      "name": "MiniAppRegistered",
      "type": "event"
    },
    {
      "anonymous": false,
      "inputs": [
        {
          "indexed": true,
          "internalType": "address",
          "name": "from",
          "type": "address"
        },
        {
          "indexed": true,
          "internalType": "address",
          "name": "to",
          "type": "address"
        },
        {
          "indexed": false,
          "internalType": "uint256",
          "name": "amount",
          "type": "uint256"
        },
        {
          "indexed": false,
          "internalType": "string",
          "name": "currency",
          "type": "string"
        }
      ],
      "name": "PaymentProcessed",
      "type": "event"
    },
    {
      "anonymous": false,
      "inputs": [
        {
          "indexed": true,
          "internalType": "address",
          "name": "user",
          "type": "address"
        },
        {
          "indexed": false,
          "internalType": "string",
          "name": "permission",
          "type": "string"
        }
      ],
      "name": "PermissionGranted",
      "type": "event"
    },
    {
      "anonymous": false,
      "inputs": [
        {
          "indexed": true,
          "internalType": "address",
          "name": "user",
          "type": "address"
        },
        {
          "indexed": false,
          "internalType": "bytes32",
          "name": "nullifierHash",
          "type": "bytes32"
        },
        {
          "indexed": false,
          "internalType": "string",
          "name": "verificationType",
          "type": "string"
        }
      ],
      "name": "WorldIDVerified",
      "type": "event"
    },
    {
      "inputs": [],
      "name": "admin",
      "outputs": [
        {
          "internalType": "address",
          "name": "",
          "type": "address"
        }
      ],
      "stateMutability": "view",
      "type": "function"
    },
    {
      "inputs": [],
      "name": "currentMerkleRoot",
      "outputs": [
        {
          "internalType": "uint256",
          "name": "",
          "type": "uint256"
        }
      ],
      "stateMutability": "view",
      "type": "function"
    },
    {
      "inputs": [
        {
          "internalType": "address",
          "name": "user",
          "type": "address"
        }
      ],
      "name": "getUserPayments",
      "outputs": [
        {
          "components": [
            {
              "internalType": "address",
              "name": "from",
              "type": "address"
            },
            {
              "internalType": "address",
              "name": "to",
              "type": "address"
            },
            {
              "internalType": "uint256",
              "name": "amount",
              "type": "uint256"
            },
            {
              "internalType": "string",
              "name": "currency",
              "type": "string"
            },
            {
              "internalType": "bytes32",
              "name": "transactionId",
              "type": "bytes32"
            },
            {
              "internalType": "uint256",
              "name": "timestamp",
              "type": "uint256"
            },
            {
              "internalType": "bool",
              "name": "completed",
              "type": "bool"
            }
          ],
          "internalType": "struct WorldAppIntegration.PaymentRecord[]",
          "name": "",
          "type": "tuple[]"
        }
      ],
      "stateMutability": "view",
      "type": "function"
    },
    {
      "inputs": [
        {
          "internalType": "address",
          "name": "user",
          "type": "address"
        }
      ],
      "name": "getWorldIDUser",
      "outputs": [
        {
          "components": [
            {
              "internalType": "address",
              "name": "userAddress",
              "type": "address"
            },
            {
              "internalType": "bytes32",
              "name": "nullifierHash",
              "type": "bytes32"
            },
            {
              "internalType": "bool",
              "name": "isVerified",
              "type": "bool"
            },
            {
              "internalType": "uint256",
              "name": "verificationTimestamp",
              "type": "uint256"
            },
            {
              "internalType": "string",
              "name": "verificationType",
              "type": "string"
            },
            {
              "internalType": "uint256",
              "name": "merkleRoot",
              "type": "uint256"
            }
          ],
          "internalType": "struct WorldAppIntegration.WorldIDUser",
          "name": "",
          "type": "tuple"
        }
      ],
      "stateMutability": "view",
      "type": "function"
    },
    {
      "inputs": [
        {
          "internalType": "address",
          "name": "user",
          "type": "address"
        },
        {
          "internalType": "string",
          "name": "permission",
          "type": "string"
        }
      ],
      "name": "grantPermission",
      "outputs": [],
      "stateMutability": "nonpayable",
      "type": "function"
    },
    {
      "inputs": [
        {
          "internalType": "address",
          "name": "user",
          "type": "address"
        },
        {
          "internalType": "string",
          "name": "permission",
          "type": "string"
        }
      ],
      "name": "hasPermission",
      "outputs": [
        {
          "internalType": "bool",
          "name": "",
          "type": "bool"
        }
      ],
      "stateMutability": "view",
      "type": "function"
    },
    {
      "inputs": [
        {
          "internalType": "address",
          "name": "user",
          "type": "address"
        }
      ],
      "name": "isWorldIDVerified",
      "outputs": [
        {
          "internalType": "bool",
          "name": "",
          "type": "bool"
        }
      ],
      "stateMutability": "view",
      "type": "function"
    },
    {
      "inputs": [],
      "name": "miniAppId",
      "outputs": [
        {
          "internalType": "string",
          "name": "",
          "type": "string"
        }
      ],
      "stateMutability": "view",
      "type": "function"
    },
    {
      "inputs": [
        {
          "internalType": "address",
          "name": "to",
          "type": "address"
        },
        {
          "internalType": "uint256",
          "name": "amount",
          "type": "uint256"
        },
        {
          "internalType": "string",
          "name": "currency",
          "type": "string"
        },
        {
          "internalType": "bytes32",
          "name": "transactionId",
          "type": "bytes32"
        }
      ],
      "name": "processPayment",
      "outputs": [],
      "stateMutability": "nonpayable",
      "type": "function"
    },
    {
      "inputs": [
        {
          "internalType": "string",
          "name": "appId",
          "type": "string"
        }
      ],
      "name": "registerMiniApp",
      "outputs": [],
      "stateMutability": "nonpayable",
      "type": "function"
    },
    {
      "inputs": [
        {
          "internalType": "uint256",
          "name": "newRoot",
          "type": "uint256"
        }
      ],
      "name": "updateMerkleRoot",
      "outputs": [],
      "stateMutability": "nonpayable",
      "type": "function"
    },
    {
      "inputs": [
        {
          "internalType": "bytes32",
          "name": "",
          "type": "bytes32"
        }
      ],
      "name": "usedNullifiers",
      "outputs": [
        {
          "internalType": "bool",
          "name": "",
          "type": "bool"
        }
      ],
      "stateMutability": "view",
      "type": "function"
    },
    {
      "inputs": [
        {
          "internalType": "address",
          "name": "",
          "type": "address"
        },
        {
          "internalType": "uint256",
          "name": "",
          "type": "uint256"
        }
      ],
      "name": "userPayments",
      "outputs": [
        {
          "internalType": "address",
          "name": "from",
          "type": "address"
        },
        {
          "internalType": "address",
          "name": "to",
          "type": "address"
        },
        {
          "internalType": "uint256",
          "name": "amount",
          "type": "uint256"
        },
        {
          "internalType": "string",
          "name": "currency",
          "type": "string"
        },
        {
          "internalType": "bytes32",
          "name": "transactionId",
          "type": "bytes32"
        },
        {
          "internalType": "uint256",
          "name": "timestamp",
          "type": "uint256"
        },
        {
          "internalType": "bool",
          "name": "completed",
          "type": "bool"
        }
      ],
      "stateMutability": "view",
      "type": "function"
    },
    {
      "inputs": [
        {
          "internalType": "address",
          "name": "",
          "type": "address"
        },
        {
          "internalType": "uint256",
          "name": "",
          "type": "uint256"
        }
      ],
      "name": "userPermissions",
      "outputs": [
        {
          "internalType": "string",
          "name": "",
          "type": "string"
        }
      ],
      "stateMutability": "view",
      "type": "function"
    },
    {
      "inputs": [
        {
          "internalType": "bytes32",
          "name": "nullifierHash",
          "type": "bytes32"
        },
        {
          "internalType": "uint256",
          "name": "merkleRoot",
          "type": "uint256"
        },
        {
          "internalType": "string",
          "name": "verificationType",
          "type": "string"
        }
      ],
      "name": "verifyWorldID",
      "outputs": [],
      "stateMutability": "nonpayable",
      "type": "function"
    },
    {
      "inputs": [
        {
          "internalType": "address",
          "name": "",
          "type": "address"
        }
      ],
      "name": "worldIdUsers",
      "outputs": [
        {
          "internalType": "address",
          "name": "userAddress",
          "type": "address"
        },
        {
          "internalType": "bytes32",
          "name": "nullifierHash",
          "type": "bytes32"
        },
        {
          "internalType": "bool",
          "name": "isVerified",
          "type": "bool"
        },
        {
          "internalType": "uint256",
          "name": "verificationTimestamp",
          "type": "uint256"
        },
        {
          "internalType": "string",
          "name": "verificationType",
          "type": "string"
        },
        {
          "internalType": "uint256",
          "name": "merkleRoot",
          "type": "uint256"
        }
      ],
      "stateMutability": "view",
      "type": "function"
    }
  ],
  "bytecode": "0x6080604052346200022957620017b9803803806200001d816200022e565b92833981019060208082840312620002295781516001600160401b039283821162000229570192601f9080828601121562000229578451848111620001fe57601f199562000071828501881686016200022e565b928284528583830101116200022957849060005b8381106200021457505060009183010152600480546001600160a01b031916331790558051938411620001fe57600654926001938481811c91168015620001f3575b82821014620001dd5783811162000191575b5080928511600114620001265750839450908392916000946200011a575b50501b916000199060031b1c1916176006555b6040516115649081620002558239f35b015192503880620000f7565b929484908116600660005284600020946000905b888383106200017657505050106200015c575b505050811b016006556200010a565b015160001960f88460031b161c191690553880806200014d565b8587015188559096019594850194879350908101906200013a565b6006600052816000208480880160051c820192848910620001d3575b0160051c019085905b828110620001c6575050620000d9565b60008155018590620001b6565b92508192620001ad565b634e487b7160e01b600052602260045260246000fd5b90607f1690620000c7565b634e487b7160e01b600052604160045260246000fd5b81810183015185820184015286920162000085565b600080fd5b6040519190601f01601f191682016001600160401b03811183821017620001fe5760405256fe6080604081815260048036101561001557600080fd5b60009260e08435811c91826307d8355b14610dc057508163206137aa14610d935781635627954114610ca9578163698c857714610baf5781636ca5161b14610b815781636fb32091146108ab578163737686981461086957816389b3af29146108435781638cfeab35146107905781639d7dadeb146105ff575080639ea97190146105e0578063b3c33f2f1461055b578063b94df33a146104cb578063bbd9a5fa14610305578063d3100fd9146100ff5763f851a440146100d557600080fd5b346100fb57826003193601126100fb575490516001600160a01b03909116815260209150f35b8280fd5b5090346100fb57602090816003193601126103015767ffffffffffffffff9083358281116102fd576101349036908601610f2a565b94909261014b60018060a01b0383541633146113ca565b85116102ea575061015d600654610f58565b601f8111610288575b5084601f85116001146101e057916101cf916101bc86807ffc61b1d8b3f2db434699e2bd165536e1dc1cddd242dc8f0460c9a9bb626668c99897968a916101d5575b508160011b916000199060031b1c19161790565b6006555b519383859485528401916113a9565b0390a180f35b9050840135386101a8565b600686527ff652222313e28459528d920b65115c16c04f3efc82aaedc97be59f3f377c0d3f90601f198616875b8181106102715750916101cf9391877ffc61b1d8b3f2db434699e2bd165536e1dc1cddd242dc8f0460c9a9bb626668c99897969410610257575b5050600185811b016006556101c0565b830135600019600388901b60f8161c191690553880610247565b91928660018192868901358155019401920161020d565b600686527ff652222313e28459528d920b65115c16c04f3efc82aaedc97be59f3f377c0d3f601f860160051c8101918587106102e0575b601f0160051c01905b8181106102d55750610166565b8681556001016102c8565b90915081906102bf565b634e487b7160e01b865260419052602485fd5b8580fd5b8380fd5b508290346104c757610316366110ef565b9160018060a09593951b03906103308284541633146113ca565b1692838552602091600383528686208054600160401b8110156104b45761035f90600192600182018155611165565b9290926104a25767ffffffffffffffff861161048f575061038a856103848454610f58565b846111c4565b8690601f86116001146104035750966103f292916103e186808a9b7f3e7a939fe856e16ddb4b017165d29dcf6d87c6bc6115a55d7895ec3e7d4c66a19a9b916103f857508160011b916000199060031b1c19161790565b9055519383859485528401916113a9565b0390a280f35b90508501358c6101a8565b90601f1986168389528589209289905b828210610478575050916103f2949391877f3e7a939fe856e16ddb4b017165d29dcf6d87c6bc6115a55d7895ec3e7d4c66a1999a9b941061045e575b5050600186811b0190556101c0565b840135600019600389901b60f8161c19169055898061044f565b868401358555938401939287019290870190610413565b634e487b7160e01b885260419052602487fd5b634e487b7160e01b8852879052602487fd5b634e487b7160e01b885260418352602488fd5b5080fd5b509190346104c75760203660031901126104c7576001600160a01b0391610551908290846104f7610f0f565b1681528060205220928354169260018101549460ff6002830154169360056105256003850154938501611002565b93015494815197889788526020880152151590860152606085015260c0608085015260c08401906110ca565b9060a08301520390f35b5091346105dd57816003193601126105dd57610575610f0f565b6001600160a01b031681526003602052818120805460243591908210156100fb57906105a091611165565b9390936105cb576105c7836105b486611002565b90519182916020835260208301906110ca565b0390f35b634e487b7160e01b8252819052602490fd5b80fd5b5050346104c757816003193601126104c7576020906005549051908152f35b91849150346104c7576020806003193601126100fb5784936001600160a01b0393918461062a610f0f565b168352600291600282528684209485549061064482611420565b946106518a519687610fe0565b82865284860191829888528588209188935b8c86861061071657955050505050505195828701938388525180945287870191888560051b8901019695985b858a1061069c5788880389f35b909192939495968580600192603f198c82030188528a51908782511681528783830151168382015285820151868201526106e36060888185015191840152888301906110ca565b916080808201519083015260a0808201519083015260c0809101511515910152990195019901989291909594939561068f565b8860019282999e996007939d9b9c9d519061073082610f92565b8b89541682528b868a01541684830152868901549082015261075460038901611002565b6060820152868801546080820152600588015460a082015260ff600689015416151560c08201528152019401940193929a959a98979698610663565b84915083346100fb57806003193601126100fb576107ac610f0f565b6001600160a01b039081168452600260205281842080549194602435928310156105dd5750906107db91611133565b5061082d8482541694600183015416956002830154946107fd60038501611002565b918401549560ff6006600587015496015416958051998a998a5260208a01528801528060608801528601906110ca565b92608085015260a0840152151560c08301520390f35b505050346104c75760209061086061085a366110ef565b91611438565b90519015158152f35b505050346104c75760203660031901126104c75760209160ff9060029083906001600160a01b03610898610f0f565b1681528086522001541690519015158152f35b5050346100fb5760603660031901126100fb57803560243567ffffffffffffffff604435818111610b7d576108e39036908601610f2a565b91909284885260019160209683885260ff898b205416610b415760055483148015610b38575b15610aff576060929188918661099c878b8f8f908061094a8f84519d8e61092f81610fc4565b3381528d81019788528681019889520198428a52369161117d565b9960808d019a8b5260a08d019b8c5233825252209860018060a01b039051166bffffffffffffffffffffffff60a01b8a54161789555189890155511515600288019060ff801983541691151516179055565b5160038601558085019251908151928311610aec57506109c6826109c08554610f58565b856111c4565b89908c601f8411600114610a5f57836005947f50e81e8758e76d7d35712c717775d807422640206042a19ca60a48c1ca1369919d9c9b9997946103f29b999794610a259492610a54575b50508160011b916000199060031b1c19161790565b90555b519101558489528086528789209060ff19825416179055868051958695865285015233968401916113a9565b015190503880610a10565b9190601f1984168584528c8420935b818110610ad75750938896936103f29a9896937f50e81e8758e76d7d35712c717775d807422640206042a19ca60a48c1ca1369919e9d9c9a938360059810610abe575b505050811b019055610a28565b015160001960f88460031b161c19169055388080610ab1565b82840151855593890193928d01928d01610a6e565b634e487b7160e01b8d526041905260248cfd5b885162461bcd60e51b81529081018890526013602482015272125b9d985b1a59081b595c9adb19481c9bdbdd606a1b6044820152606490fd5b50821515610909565b885162461bcd60e51b81529081018890526016602482015275139d5b1b1a599a595c88185b1c9958591e481d5cd95960521b6044820152606490fd5b8680fd5b8483346104c75760203660031901126104c757610ba860018060a01b0382541633146113ca565b3560055580f35b919050346103015760209182600319360112610ca557610c9a9184610bd2610f0f565b968060a08351610be181610fc4565b8281528289820152828582015282606082015260606080820152015260018060a01b0380981681528086522090855195610c1a87610fc4565b87835416875260018301549086880191825260ff6002850154169181890192151583526005610c5660038701549560608c019687528701611002565b9560808b0196875201549760a08a0198895282519a8b9a828c525116908a015251908801525115156060870152516080860152519060c060a08601528401906110ca565b905160c08301520390f35b8480fd5b8385346105dd57806003193601126105dd578151918282600654610ccc81610f58565b9081845260209560019187600182169182600014610d6c575050600114610d10575b5050506105c79291610d01910385610fe0565b519282849384528301906110ca565b9190869350600683527ff652222313e28459528d920b65115c16c04f3efc82aaedc97be59f3f377c0d3f5b828410610d545750505082010181610d016105c7610cee565b8054848a018601528895508794909301928101610d3b565b60ff19168782015293151560051b86019093019350849250610d0191506105c79050610cee565b5050346100fb5760203660031901126100fb578160209360ff923581526001855220541690519015158152f35b859085853461030157608036600319011261030157610ddd610f0f565b926024359060443567ffffffffffffffff8111610b7d57610e019036908501610f2a565b909133885260209488865260ff6002888b2001541615610ecf5750507fb5e51a9058e00792fede50f44125bb8bc3f068a8f877644c8a3b3d02c74f56e0939291610ec991610eb4875198610e548a610f92565b338a526001600160a01b0316868a01819052888a0186905298610e7836848661117d565b606082015260643560808201524260a0820152600160c0820152338b5260028752610ea5818a8d2061121a565b898b5260028752888b2061121a565b868051958695865285015233968401916113a9565b0390a380f35b62461bcd60e51b82528101859052601e60248201527f55736572206d75737420626520576f726c6420494420766572696669656400006044820152606490fd5b600435906001600160a01b0382168203610f2557565b600080fd5b9181601f84011215610f255782359167ffffffffffffffff8311610f255760208381860195010111610f2557565b90600182811c92168015610f88575b6020831014610f7257565b634e487b7160e01b600052602260045260246000fd5b91607f1691610f67565b60e0810190811067ffffffffffffffff821117610fae57604052565b634e487b7160e01b600052604160045260246000fd5b60c0810190811067ffffffffffffffff821117610fae57604052565b90601f8019910116810190811067ffffffffffffffff821117610fae57604052565b9060405191826000825461101581610f58565b908184526020946001916001811690816000146110855750600114611046575b50505061104492500383610fe0565b565b600090815285812095935091905b81831061106d5750506110449350820101388080611035565b85548884018501529485019487945091830191611054565b9250505061104494925060ff191682840152151560051b820101388080611035565b60005b8381106110ba5750506000910152565b81810151838201526020016110aa565b906020916110e3815180928185528580860191016110a7565b601f01601f1916010190565b906040600319830112610f25576004356001600160a01b0381168103610f2557916024359067ffffffffffffffff8211610f255761112f91600401610f2a565b9091565b805482101561114f576000526007602060002091020190600090565b634e487b7160e01b600052603260045260246000fd5b805482101561114f5760005260206000200190600090565b92919267ffffffffffffffff8211610fae57604051916111a7601f8201601f191660200184610fe0565b829481845281830111610f25578281602093846000960137010152565b90601f81116111d257505050565b6000916000526020600020906020601f850160051c83019410611210575b601f0160051c01915b82811061120557505050565b8181556001016111f9565b90925082906111f0565b908154600160401b811015610fae5761123b90600193600182018155611133565b9290926113935760018060a01b0390818351166bffffffffffffffffffffffff60a01b9081865416178555600185019060209360208601511690825416179055604083015160028501556003840191606084015180519267ffffffffffffffff8411610fae576112b5846112af8754610f58565b876111c4565b602092601f8511600114611320575050926112f28360c094611044989794600697600092610a545750508160011b916000199060031b1c19161790565b90555b6080810151600485015560a081015160058501550151151591019060ff801983541691151516179055565b600086815260208120949392601f19871692905b83831061137c5750505093611044979693600696936001938360c09810611363575b505050811b0190556112f5565b015160001960f88460031b161c19169055388080611356565b848601518755958601959481019491810191611334565b634e487b7160e01b600052600060045260246000fd5b908060209392818452848401376000828201840152601f01601f1916010190565b156113d157565b60405162461bcd60e51b815260206004820152602160248201527f4f6e6c792061646d696e2063616e2063616c6c20746869732066756e6374696f6044820152603760f91b6064820152608490fd5b67ffffffffffffffff8111610fae5760051b60200190565b9060009160018060a01b03168252602091600383526040926040822094855461146081611420565b9661146e6040519889610fe0565b8188528452828420849084808a015b848410611510575050505050825b865181101561150657828160051b8801015186516114c58582816114b881830196878151938492016110a7565b8101038084520182610fe0565b519020865184810190848883376114ea86828781018a83820152038084520182610fe0565b519020146114fa5760010161148b565b50505050505050600190565b5050509250505090565b600191829161151e85611002565b815201920192019190859061147d56fea26469706673582212201ea56cfc959c9044de05a44219df5c26d2590894d97fabba4609709640da82c364736f6c63430008180033",
  "linkReferences": {},
  "deployedLinkReferences": {}
}