{
  "_format": "hh-sol-artifact-1",
  "contractName": "WorldIDVerifier",
  "sourceName": "contracts/WorldIDVerifier.sol",
  "abi": [
    {
      "inputs": [
        {
          "internalType": "string",
          "name": "_appId",
          "type": "string"
        },
        {
          "internalType": "string",
          "name": "_actionId",
          "type": "string"
        }
      ],
      "stateMutability": "nonpayable",
      "type": "constructor"
    },
    {
      "anonymous": false,
      "inputs": [
        {
          "indexed": true,
          "internalType": "address",
          "name": "user",
          "type": "address"
        },
        {
          "indexed": false,
          "internalType": "uint256",
          "name": "nullifierHash",
          "type": "uint256"
        },
        {
          "indexed": false,
          "internalType": "string",
          "name": "verificationLevel",
          "type": "string"
        },
        {
          "indexed": false,
          "internalType": "uint256",
          "name": "timestamp",
          "type": "uint256"
        }
      ],
      "name": "UserVerified",
      "type": "event"
    },
    {
      "anonymous": false,
      "inputs": [
        {
          "indexed": true,
          "internalType": "address",
          "name": "user",
          "type": "address"
        },
        {
          "indexed": false,
          "internalType": "string",
          "name": "reason",
          "type": "string"
        }
      ],
      "name": "VerificationRevoked",
      "type": "event"
    },
    {
      "inputs": [],
      "name": "actionId",
      "outputs": [
        {
          "internalType": "string",
          "name": "",
          "type": "string"
        }
      ],
      "stateMutability": "view",
      "type": "function"
    },
    {
      "inputs": [],
      "name": "admin",
      "outputs": [
        {
          "internalType": "address",
          "name": "",
          "type": "address"
        }
      ],
      "stateMutability": "view",
      "type": "function"
    },
    {
      "inputs": [],
      "name": "appId",
      "outputs": [
        {
          "internalType": "string",
          "name": "",
          "type": "string"
        }
      ],
      "stateMutability": "view",
      "type": "function"
    },
    {
      "inputs": [],
      "name": "emergencyPause",
      "outputs": [],
      "stateMutability": "nonpayable",
      "type": "function"
    },
    {
      "inputs": [
        {
          "internalType": "address",
          "name": "user",
          "type": "address"
        }
      ],
      "name": "getVerification",
      "outputs": [
        {
          "components": [
            {
              "internalType": "uint256",
              "name": "merkleRoot",
              "type": "uint256"
            },
            {
              "internalType": "uint256",
              "name": "nullifierHash",
              "type": "uint256"
            },
            {
              "internalType": "uint256[8]",
              "name": "proof",
              "type": "uint256[8]"
            },
            {
              "internalType": "string",
              "name": "verificationLevel",
              "type": "string"
            },
            {
              "internalType": "uint256",
              "name": "timestamp",
              "type": "uint256"
            },
            {
              "internalType": "bool",
              "name": "isValid",
              "type": "bool"
            }
          ],
          "internalType": "struct WorldIDVerifier.VerificationProof",
          "name": "",
          "type": "tuple"
        }
      ],
      "stateMutability": "view",
      "type": "function"
    },
    {
      "inputs": [],
      "name": "getVerifiedUsersCount",
      "outputs": [
        {
          "internalType": "uint256",
          "name": "",
          "type": "uint256"
        }
      ],
      "stateMutability": "view",
      "type": "function"
    },
    {
      "inputs": [
        {
          "internalType": "address",
          "name": "user",
          "type": "address"
        }
      ],
      "name": "isVerified",
      "outputs": [
        {
          "internalType": "bool",
          "name": "",
          "type": "bool"
        }
      ],
      "stateMutability": "view",
      "type": "function"
    },
    {
      "inputs": [
        {
          "internalType": "address",
          "name": "user",
          "type": "address"
        },
        {
          "internalType": "string",
          "name": "reason",
          "type": "string"
        }
      ],
      "name": "revokeVerification",
      "outputs": [],
      "stateMutability": "nonpayable",
      "type": "function"
    },
    {
      "inputs": [
        {
          "internalType": "string",
          "name": "_appId",
          "type": "string"
        },
        {
          "internalType": "string",
          "name": "_actionId",
          "type": "string"
        }
      ],
      "name": "updateConfig",
      "outputs": [],
      "stateMutability": "nonpayable",
      "type": "function"
    },
    {
      "inputs": [
        {
          "internalType": "uint256",
          "name": "",
          "type": "uint256"
        }
      ],
      "name": "usedNullifiers",
      "outputs": [
        {
          "internalType": "bool",
          "name": "",
          "type": "bool"
        }
      ],
      "stateMutability": "view",
      "type": "function"
    },
    {
      "inputs": [
        {
          "internalType": "address",
          "name": "",
          "type": "address"
        }
      ],
      "name": "verifications",
      "outputs": [
        {
          "internalType": "uint256",
          "name": "merkleRoot",
          "type": "uint256"
        },
        {
          "internalType": "uint256",
          "name": "nullifierHash",
          "type": "uint256"
        },
        {
          "internalType": "string",
          "name": "verificationLevel",
          "type": "string"
        },
        {
          "internalType": "uint256",
          "name": "timestamp",
          "type": "uint256"
        },
        {
          "internalType": "bool",
          "name": "isValid",
          "type": "bool"
        }
      ],
      "stateMutability": "view",
      "type": "function"
    },
    {
      "inputs": [
        {
          "internalType": "address",
          "name": "",
          "type": "address"
        }
      ],
      "name": "verifiedUsers",
      "outputs": [
        {
          "internalType": "bool",
          "name": "",
          "type": "bool"
        }
      ],
      "stateMutability": "view",
      "type": "function"
    },
    {
      "inputs": [
        {
          "internalType": "uint256",
          "name": "merkleRoot",
          "type": "uint256"
        },
        {
          "internalType": "uint256",
          "name": "nullifierHash",
          "type": "uint256"
        },
        {
          "internalType": "uint256[8]",
          "name": "proof",
          "type": "uint256[8]"
        },
        {
          "internalType": "string",
          "name": "verificationLevel",
          "type": "string"
        }
      ],
      "name": "verifyWithWorldID",
      "outputs": [],
      "stateMutability": "nonpayable",
      "type": "function"
    }
  ],
  "bytecode": "0x60806040523462000345576200147a803803806200001d816200034a565b928339810190604081830312620003455780516001600160401b03908181116200034557836200004f91840162000370565b916020938482015183811162000345576200006b920162000370565b600380546001600160a01b03191633178155835190918382116200032f576004958654926001968785811c9516801562000324575b838610146200030f578190601f95868111620002b9575b508390868311600114620002525760009262000246575b505060001982871b1c191690871b1787555b815194851162000231576005968754908782811c9216801562000226575b83831014620002115750838111620001c8575b50809285116001146200015a57509383949184926000956200014e575b50501b92600019911b1c19161790555b6040516110979081620003e38239f35b0151935038806200012e565b92919084601f1981168860005285600020956000905b89838310620001ad575050501062000192575b50505050811b0190556200013e565b01519060f884600019921b161c191690553880808062000183565b85870151895590970196948501948893509081019062000170565b8760005281600020848088018a1c82019284891062000207575b01891c019087905b828110620001fa57505062000111565b60008155018790620001ea565b92508192620001e2565b602290634e487b7160e01b6000525260246000fd5b91607f1691620000fe565b604187634e487b7160e01b6000525260246000fd5b015190503880620000ce565b90899350601f198316918b600052856000209260005b87828210620002a2575050841162000289575b505050811b018755620000e0565b015160001983891b60f8161c191690553880806200027b565b8385015186558d9790950194938401930162000268565b90915089600052836000208680850160051c82019286861062000305575b918b91869594930160051c01915b828110620002f5575050620000b7565b600081558594508b9101620002e5565b92508192620002d7565b602289634e487b7160e01b6000525260246000fd5b94607f1694620000a0565b634e487b7160e01b600052604160045260246000fd5b600080fd5b6040519190601f01601f191682016001600160401b038111838210176200032f57604052565b919080601f84011215620003455782516001600160401b0381116200032f57602090620003a6601f8201601f191683016200034a565b92818452828287010111620003455760005b818110620003ce57508260009394955001015290565b8581018301518482018401528201620003b856fe6040608081526004908136101561001557600080fd5b600091823560e01c8063080c98da14610d1657806336b6e82b14610c3b57806351858e2714610c1257806369839b6614610bf75780637ae922be146109175780637be700ba146104805780637fc9592d1461030c57806380afdea81461021d578063aad24061146101f1578063b9209e33146101b3578063e35fe366146101b3578063f851a440146101865763f883e478146100b057600080fd5b346101825781600319360112610182576100c8610d96565b906024359167ffffffffffffffff831161017e5761010d610178927f3b56c041a4c2e60799edf637b19f958011d99c582ce76af1d7de3b1c73436f8594369101610f5d565b60035490916001600160a01b03916101289083163314610fb4565b1693848652600260205261014160ff8288205416611021565b84865285602052600c8187200160ff1990818154169055600260205281872090815416905551918291602083526020830190610f1d565b0390a280f35b8480fd5b8280fd5b5050346101af57816003193601126101af5760035490516001600160a01b039091168152602090f35b5080fd5b5050346101af5760203660031901126101af5760209160ff9082906001600160a01b036101de610d96565b1681526002855220541690519015158152f35b5034610182576020366003190112610182578160209360ff923581526001855220541690519015158152f35b509034610182578260031936011261018257805183819490845461024081610db1565b91828552602096600192886001821691826000146102e2575050600114610287575b858861028389610274848a0385610e56565b51928284938452830190610f1d565b0390f35b815286935091907f8a35acfbc15ff81a39ae7d344fd709f28e8600b4aa8c65c6b64bfe7fe36bd19b5b8284106102ca575050508201018161027461028338610262565b8054848a0186015288955087949093019281016102b0565b60ff19168882015294151560051b8701909401945085935061027492506102839150389050610262565b5050346101af5760208060031936011261018257610328610d96565b8360a0845161033681610deb565b8281528285820152855161034981610e1d565b610100368237818701526060808201526080810183905201526001600160a01b031680845260028252828420546103829060ff16611021565b83528281528183209082519261039784610deb565b825484526001946001840154928086019384528251808860028801918486915b6008831061046c5750505050506103cd81610e1d565b8387019081526103df600a8701610e78565b936060880194855260ff600c600b8901549860808b01998a520154169560a089019615158752815198848a5251848a0152519088015251606087019092905b6008821061045957878088888851906104466101a092836101608701526101c0860190610f1d565b9251610180850152511515908301520390f35b835181529282019290880190820161041e565b8454815293830193918301918691016103b7565b5034610182576101603660031901126101825780356024918235923660631215610913578451926104b084610e1d565b610144843682116108ff576044905b828210610903575050359167ffffffffffffffff928381116108ff576104e89036908601610f5d565b9486895260019360209585875260ff8a8c2054166108c457338b526002875260ff8a8c20541661088a5787517fb60dfd2d76b37248d06a548f402532200b7a08f600ece90f63c05723c91cf2a88b6227a92160e91b8a808d01948520925161054f81610e3a565b60038152015214908115610840575b50156107fe57841515806107f5575b806107eb575b156107b0579087918695948c878a968d8f80519a6105908c610deb565b8b52898b01918252808b0192835260608b019889528460808c019a428c5260a08d019e8f5233825252842099518a5551828a015551915b6008811061079b57505050600a8601935191825193841161078a5750508b6105ef8454610db1565b89601f8211610751575b50505087908c601f84116001146106c2579383600c946106a89b98947fe7f244aac8dd2c9c62eb282436e5fa591bb07f0e6219a03436eb819b75de86fa9e9d9b989460609b98926106b7575b5050600019600383901b1c191690861b1790555b51600b82015501915115159160ff199260ff848354169116179055868a52808352888a208183825416179055338a5260028352888a209182541617905586519485528401526060830190610f1d565b9242908201528033930390a280f35b015190503880610645565b9190601f1984168584528a8420935b81811061073c575097846106a89b98947fe7f244aac8dd2c9c62eb282436e5fa591bb07f0e6219a03436eb819b75de86fa9e9d9b9894839894600c9860609d10610723575b505050811b019055610659565b015160001960f88460031b161c19169055388080610716565b82840151855593890193928b01928b016106d1565b8286610778945220601f850160051c8101918b8610610780575b601f0160051c019061100a565b8b38896105f9565b909150819061076b565b634e487b7160e01b8e52604190528cfd5b8b83519301926002828b0101550188906105c7565b895162461bcd60e51b81529081018790526016818501527524b73b30b634b2102bb7b936321024a210383937b7b360511b6044820152606490fd5b5082511515610573565b5088151561056d565b895162461bcd60e51b8152908101879052601a818501527f496e76616c696420766572696669636174696f6e206c6576656c0000000000006044820152606490fd5b7fdcfa7035a5c1da005e9057dfe74f35f457df142ad11b8584f13e433660d15ce59150895190206544455649434560d01b898d5161087d81610e3a565b600681520152143861055e565b895162461bcd60e51b815290810187905260158185015274155cd95c88185b1c9958591e481d995c9a599a5959605a1b6044820152606490fd5b895162461bcd60e51b815290810187905260168185015275139d5b1b1a599a595c88185b1c9958591e481d5cd95960521b6044820152606490fd5b8880fd5b81358152602091820191016104bf565b8580fd5b509190346101af57366003190112610bf45767ffffffffffffffff8235818111610182576109489036908501610f5d565b90602435818111610bf0576109609036908601610f5d565b9361097660018060a01b03600354163314610fb4565b8251828111610bdd578061098a8354610db1565b94601f95868111610b88575b50602090868311600114610b07578792610afc575b50508160011b916000199060031b1c19161781555b8451918211610ae957506005916109d78354610db1565b818111610a96575b506020908211600114610a1957839482939492610a0e575b50508160011b916000199060031b1c191617905580f35b0151905038806109f7565b8284527f036b6384b5eca791c62761152d0c79bb0604c104a5fb6f4eb0703f3154bb3db090601f198316855b818110610a7e57509583600195969710610a65575b505050811b01905580f35b015160001960f88460031b161c19169055388080610a5a565b9192602060018192868b015181550194019201610a45565b610ada908486527f036b6384b5eca791c62761152d0c79bb0604c104a5fb6f4eb0703f3154bb3db083808601871c82019260208710610ae0575b01861c019061100a565b386109df565b92508192610ad0565b634e487b7160e01b845260419052602483fd5b0151905038806109ab565b8488527f8a35acfbc15ff81a39ae7d344fd709f28e8600b4aa8c65c6b64bfe7fe36bd19b9250601f198416885b818110610b705750908460019594939210610b57575b505050811b0181556109c0565b015160001960f88460031b161c19169055388080610b4a565b92936020600181928786015181550195019301610b34565b610bce908589527f8a35acfbc15ff81a39ae7d344fd709f28e8600b4aa8c65c6b64bfe7fe36bd19b8880860160051c82019260208710610bd4575b0160051c019061100a565b38610996565b92508192610bc3565b634e487b7160e01b855260418252602485fd5b8380fd5b80fd5b5050346101af57816003193601126101af5751908152602090f35b8334610bf45780600319360112610bf457610c3860018060a01b03600354163314610fb4565b80f35b828434610bf45780600319360112610bf4578151918282600554610c5e81610db1565b9081845260209560019187600182169182600014610cef575050600114610c93575b5050506102839291610274910385610e56565b9190869350600583527f036b6384b5eca791c62761152d0c79bb0604c104a5fb6f4eb0703f3154bb3db05b828410610cd75750505082010181610274610283610c80565b8054848a018601528895508794909301928101610cbe565b60ff19168782015293151560051b8601909301935084925061027491506102839050610c80565b5050346101af5760203660031901126101af579081906001600160a01b03610d3c610d96565b1681528060205220805490600181015492610d85610d5c600a8401610e78565b60a060ff600c600b870154960154169380519788978852602088015286015260a0850190610f1d565b916060840152151560808301520390f35b600435906001600160a01b0382168203610dac57565b600080fd5b90600182811c92168015610de1575b6020831014610dcb57565b634e487b7160e01b600052602260045260246000fd5b91607f1691610dc0565b60c0810190811067ffffffffffffffff821117610e0757604052565b634e487b7160e01b600052604160045260246000fd5b610100810190811067ffffffffffffffff821117610e0757604052565b6040810190811067ffffffffffffffff821117610e0757604052565b90601f8019910116810190811067ffffffffffffffff821117610e0757604052565b90604051918260008254610e8b81610db1565b90818452602094600191600181169081600014610efb5750600114610ebc575b505050610eba92500383610e56565b565b600090815285812095935091905b818310610ee3575050610eba9350820101388080610eab565b85548884018501529485019487945091830191610eca565b92505050610eba94925060ff191682840152151560051b820101388080610eab565b919082519283825260005b848110610f49575050826000602080949584010152601f8019910116010190565b602081830181015184830182015201610f28565b81601f82011215610dac5780359067ffffffffffffffff8211610e075760405192610f92601f8401601f191660200185610e56565b82845260208383010111610dac57816000926020809301838601378301015290565b15610fbb57565b60405162461bcd60e51b815260206004820152602160248201527f4f6e6c792061646d696e2063616e2063616c6c20746869732066756e6374696f6044820152603760f91b6064820152608490fd5b818110611015575050565b6000815560010161100a565b1561102857565b60405162461bcd60e51b8152602060048201526011602482015270155cd95c881b9bdd081d995c9a599a5959607a1b6044820152606490fdfea2646970667358221220f6f4cca7436ab3069ab9a32960afc8e340e4683945ab75910f21ea41b2e1496c64736f6c63430008180033",
  "linkReferences": {},
  "deployedLinkReferences": {}
}