{
  "_format": "hh-sol-artifact-1",
  "contractName": "StatToken",
  "sourceName": "contracts/StatToken.sol",
  "abi": [
    {
      "inputs": [
        {
          "internalType": "address",
          "name": "initialOwner",
          "type": "address"
        }
      ],
      "stateMutability": "nonpayable",
      "type": "constructor"
    },
    {
      "inputs": [
        {
          "internalType": "address",
          "name": "spender",
          "type": "address"
        },
        {
          "internalType": "uint256",
          "name": "allowance",
          "type": "uint256"
        },
        {
          "internalType": "uint256",
          "name": "needed",
          "type": "uint256"
        }
      ],
      "name": "ERC20InsufficientAllowance",
      "type": "error"
    },
    {
      "inputs": [
        {
          "internalType": "address",
          "name": "sender",
          "type": "address"
        },
        {
          "internalType": "uint256",
          "name": "balance",
          "type": "uint256"
        },
        {
          "internalType": "uint256",
          "name": "needed",
          "type": "uint256"
        }
      ],
      "name": "ERC20InsufficientBalance",
      "type": "error"
    },
    {
      "inputs": [
        {
          "internalType": "address",
          "name": "approver",
          "type": "address"
        }
      ],
      "name": "ERC20InvalidApprover",
      "type": "error"
    },
    {
      "inputs": [
        {
          "internalType": "address",
          "name": "receiver",
          "type": "address"
        }
      ],
      "name": "ERC20InvalidReceiver",
      "type": "error"
    },
    {
      "inputs": [
        {
          "internalType": "address",
          "name": "sender",
          "type": "address"
        }
      ],
      "name": "ERC20InvalidSender",
      "type": "error"
    },
    {
      "inputs": [
        {
          "internalType": "address",
          "name": "spender",
          "type": "address"
        }
      ],
      "name": "ERC20InvalidSpender",
      "type": "error"
    },
    {
      "inputs": [
        {
          "internalType": "address",
          "name": "owner",
          "type": "address"
        }
      ],
      "name": "OwnableInvalidOwner",
      "type": "error"
    },
    {
      "inputs": [
        {
          "internalType": "address",
          "name": "account",
          "type": "address"
        }
      ],
      "name": "OwnableUnauthorizedAccount",
      "type": "error"
    },
    {
      "anonymous": false,
      "inputs": [
        {
          "indexed": true,
          "internalType": "address",
          "name": "owner",
          "type": "address"
        },
        {
          "indexed": true,
          "internalType": "address",
          "name": "spender",
          "type": "address"
        },
        {
          "indexed": false,
          "internalType": "uint256",
          "name": "value",
          "type": "uint256"
        }
      ],
      "name": "Approval",
      "type": "event"
    },
    {
      "anonymous": false,
      "inputs": [
        {
          "indexed": true,
          "internalType": "address",
          "name": "previousOwner",
          "type": "address"
        },
        {
          "indexed": true,
          "internalType": "address",
          "name": "newOwner",
          "type": "address"
        }
      ],
      "name": "OwnershipTransferred",
      "type": "event"
    },
    {
      "anonymous": false,
      "inputs": [
        {
          "indexed": true,
          "internalType": "address",
          "name": "user",
          "type": "address"
        },
        {
          "indexed": false,
          "internalType": "uint256",
          "name": "amount",
          "type": "uint256"
        },
        {
          "indexed": false,
          "internalType": "string",
          "name": "reason",
          "type": "string"
        }
      ],
      "name": "StatBurned",
      "type": "event"
    },
    {
      "anonymous": false,
      "inputs": [
        {
          "indexed": true,
          "internalType": "address",
          "name": "user",
          "type": "address"
        },
        {
          "indexed": false,
          "internalType": "uint256",
          "name": "amount",
          "type": "uint256"
        }
      ],
      "name": "StatDecayed",
      "type": "event"
    },
    {
      "anonymous": false,
      "inputs": [
        {
          "indexed": true,
          "internalType": "address",
          "name": "user",
          "type": "address"
        },
        {
          "indexed": false,
          "internalType": "uint256",
          "name": "amount",
          "type": "uint256"
        },
        {
          "indexed": false,
          "internalType": "string",
          "name": "reason",
          "type": "string"
        }
      ],
      "name": "StatMinted",
      "type": "event"
    },
    {
      "anonymous": false,
      "inputs": [
        {
          "indexed": true,
          "internalType": "address",
          "name": "from",
          "type": "address"
        },
        {
          "indexed": true,
          "internalType": "address",
          "name": "to",
          "type": "address"
        },
        {
          "indexed": false,
          "internalType": "uint256",
          "name": "value",
          "type": "uint256"
        }
      ],
      "name": "Transfer",
      "type": "event"
    },
    {
      "inputs": [],
      "name": "DECAY_PERIOD",
      "outputs": [
        {
          "internalType": "uint256",
          "name": "",
          "type": "uint256"
        }
      ],
      "stateMutability": "view",
      "type": "function"
    },
    {
      "inputs": [],
      "name": "DECAY_RATE",
      "outputs": [
        {
          "internalType": "uint256",
          "name": "",
          "type": "uint256"
        }
      ],
      "stateMutability": "view",
      "type": "function"
    },
    {
      "inputs": [
        {
          "internalType": "address",
          "name": "owner",
          "type": "address"
        },
        {
          "internalType": "address",
          "name": "spender",
          "type": "address"
        }
      ],
      "name": "allowance",
      "outputs": [
        {
          "internalType": "uint256",
          "name": "",
          "type": "uint256"
        }
      ],
      "stateMutability": "view",
      "type": "function"
    },
    {
      "inputs": [
        {
          "internalType": "address",
          "name": "user",
          "type": "address"
        }
      ],
      "name": "applyDecay",
      "outputs": [],
      "stateMutability": "nonpayable",
      "type": "function"
    },
    {
      "inputs": [
        {
          "internalType": "address",
          "name": "spender",
          "type": "address"
        },
        {
          "internalType": "uint256",
          "name": "amount",
          "type": "uint256"
        }
      ],
      "name": "approve",
      "outputs": [
        {
          "internalType": "bool",
          "name": "",
          "type": "bool"
        }
      ],
      "stateMutability": "pure",
      "type": "function"
    },
    {
      "inputs": [
        {
          "internalType": "address",
          "name": "account",
          "type": "address"
        }
      ],
      "name": "balanceOf",
      "outputs": [
        {
          "internalType": "uint256",
          "name": "",
          "type": "uint256"
        }
      ],
      "stateMutability": "view",
      "type": "function"
    },
    {
      "inputs": [
        {
          "internalType": "address",
          "name": "from",
          "type": "address"
        },
        {
          "internalType": "uint256",
          "name": "amount",
          "type": "uint256"
        },
        {
          "internalType": "string",
          "name": "reason",
          "type": "string"
        }
      ],
      "name": "burn",
      "outputs": [],
      "stateMutability": "nonpayable",
      "type": "function"
    },
    {
      "inputs": [],
      "name": "decimals",
      "outputs": [
        {
          "internalType": "uint8",
          "name": "",
          "type": "uint8"
        }
      ],
      "stateMutability": "view",
      "type": "function"
    },
    {
      "inputs": [
        {
          "internalType": "address",
          "name": "user",
          "type": "address"
        }
      ],
      "name": "getUserStats",
      "outputs": [
        {
          "components": [
            {
              "internalType": "uint256",
              "name": "lastActivityTimestamp",
              "type": "uint256"
            },
            {
              "internalType": "uint256",
              "name": "totalContributions",
              "type": "uint256"
            },
            {
              "internalType": "uint256",
              "name": "proposalsCreated",
              "type": "uint256"
            },
            {
              "internalType": "uint256",
              "name": "votesParticipated",
              "type": "uint256"
            },
            {
              "internalType": "string",
              "name": "role",
              "type": "string"
            }
          ],
          "internalType": "struct StatToken.UserStats",
          "name": "",
          "type": "tuple"
        }
      ],
      "stateMutability": "view",
      "type": "function"
    },
    {
      "inputs": [
        {
          "internalType": "address",
          "name": "user",
          "type": "address"
        },
        {
          "internalType": "string",
          "name": "role",
          "type": "string"
        }
      ],
      "name": "initializeUser",
      "outputs": [],
      "stateMutability": "nonpayable",
      "type": "function"
    },
    {
      "inputs": [
        {
          "internalType": "address",
          "name": "to",
          "type": "address"
        },
        {
          "internalType": "uint256",
          "name": "amount",
          "type": "uint256"
        },
        {
          "internalType": "string",
          "name": "reason",
          "type": "string"
        }
      ],
      "name": "mint",
      "outputs": [],
      "stateMutability": "nonpayable",
      "type": "function"
    },
    {
      "inputs": [],
      "name": "name",
      "outputs": [
        {
          "internalType": "string",
          "name": "",
          "type": "string"
        }
      ],
      "stateMutability": "view",
      "type": "function"
    },
    {
      "inputs": [
        {
          "internalType": "address",
          "name": "user",
          "type": "address"
        }
      ],
      "name": "needsDecay",
      "outputs": [
        {
          "internalType": "bool",
          "name": "",
          "type": "bool"
        }
      ],
      "stateMutability": "view",
      "type": "function"
    },
    {
      "inputs": [],
      "name": "owner",
      "outputs": [
        {
          "internalType": "address",
          "name": "",
          "type": "address"
        }
      ],
      "stateMutability": "view",
      "type": "function"
    },
    {
      "inputs": [],
      "name": "renounceOwnership",
      "outputs": [],
      "stateMutability": "nonpayable",
      "type": "function"
    },
    {
      "inputs": [
        {
          "internalType": "string",
          "name": "",
          "type": "string"
        }
      ],
      "name": "roleInitialStats",
      "outputs": [
        {
          "internalType": "uint256",
          "name": "",
          "type": "uint256"
        }
      ],
      "stateMutability": "view",
      "type": "function"
    },
    {
      "inputs": [],
      "name": "symbol",
      "outputs": [
        {
          "internalType": "string",
          "name": "",
          "type": "string"
        }
      ],
      "stateMutability": "view",
      "type": "function"
    },
    {
      "inputs": [],
      "name": "totalSupply",
      "outputs": [
        {
          "internalType": "uint256",
          "name": "",
          "type": "uint256"
        }
      ],
      "stateMutability": "view",
      "type": "function"
    },
    {
      "inputs": [
        {
          "internalType": "address",
          "name": "to",
          "type": "address"
        },
        {
          "internalType": "uint256",
          "name": "value",
          "type": "uint256"
        }
      ],
      "name": "transfer",
      "outputs": [
        {
          "internalType": "bool",
          "name": "",
          "type": "bool"
        }
      ],
      "stateMutability": "nonpayable",
      "type": "function"
    },
    {
      "inputs": [
        {
          "internalType": "address",
          "name": "from",
          "type": "address"
        },
        {
          "internalType": "address",
          "name": "to",
          "type": "address"
        },
        {
          "internalType": "uint256",
          "name": "amount",
          "type": "uint256"
        }
      ],
      "name": "transferFrom",
      "outputs": [
        {
          "internalType": "bool",
          "name": "",
          "type": "bool"
        }
      ],
      "stateMutability": "pure",
      "type": "function"
    },
    {
      "inputs": [
        {
          "internalType": "address",
          "name": "newOwner",
          "type": "address"
        }
      ],
      "name": "transferOwnership",
      "outputs": [],
      "stateMutability": "nonpayable",
      "type": "function"
    },
    {
      "inputs": [
        {
          "internalType": "address",
          "name": "user",
          "type": "address"
        },
        {
          "internalType": "string",
          "name": "activityType",
          "type": "string"
        }
      ],
      "name": "updateActivity",
      "outputs": [],
      "stateMutability": "nonpayable",
      "type": "function"
    },
    {
      "inputs": [
        {
          "internalType": "address",
          "name": "",
          "type": "address"
        }
      ],
      "name": "userStats",
      "outputs": [
        {
          "internalType": "uint256",
          "name": "lastActivityTimestamp",
          "type": "uint256"
        },
        {
          "internalType": "uint256",
          "name": "totalContributions",
          "type": "uint256"
        },
        {
          "internalType": "uint256",
          "name": "proposalsCreated",
          "type": "uint256"
        },
        {
          "internalType": "uint256",
          "name": "votesParticipated",
          "type": "uint256"
        },
        {
          "internalType": "string",
          "name": "role",
          "type": "string"
        }
      ],
      "stateMutability": "view",
      "type": "function"
    }
  ],
  "bytecode": "0x6080346200043357601f620016fd38819003828101601f19908116850194936001600160401b03939092848711868810176200043857808692604098895283396020958691810103126200043357516001600160a01b0394858216949185900362000433576200006e6200044e565b601481527f4754552044414f2053746174757320546f6b656e00000000000000000000000082820152620000a16200044e565b946004958681526314d5105560e21b8482015282519385851162000339576003948554946001958681811c9116801562000428575b848210146200041357908186849311620003bd575b5083908683116001146200035a576000926200034e575b505060001982881b1c191690851b1785555b8151958611620003395787548481811c911680156200032e575b828210146200031957838111620002ce575b50809286116001146200026257508495509084929160009562000256575b50501b92600019911b1c19161781555b81156200023f5750600580546001600160a01b03198116831790915583516103e8936029939192167f8be0079c531659141344cd1fd0a4f28419497f9722a3daafe3b4186f6b6457e0600080a36814149154d25111539560ba1b8152600760098201522055610320602e82516d159250d157d4149154d25111539560921b81526007600e82015220556102586029825168434f52455f5445414d60b81b81526007600982015220556064602682516526a2a6a122a960d11b81526007600682015220555161128e90816200046f8239f35b6024906000855191631e4fbdf760e01b8352820152fd5b0151935038806200015e565b939295859081168860005285600020956000905b89838310620002b3575050501062000298575b50505050811b0181556200016e565b01519060f884600019921b161c191690553880808062000289565b85870151895590970196948501948893509081019062000276565b88600052816000208480890160051c820192848a106200030f575b0160051c019085905b8281106200030257505062000140565b60008155018590620002f2565b92508192620002e9565b602289634e487b7160e01b6000525260246000fd5b90607f16906200012e565b604188634e487b7160e01b6000525260246000fd5b01519050388062000102565b908a8894169189600052856000209260005b87828210620003a657505084116200038d575b505050811b01855562000114565b0151600019838a1b60f8161c191690553880806200037f565b8385015186558b979095019493840193016200036c565b90915087600052836000208680850160051c82019286861062000409575b918991869594930160051c01915b828110620003f9575050620000eb565b60008155859450899101620003e9565b92508192620003db565b60228b634e487b7160e01b6000525260246000fd5b90607f1690620000d6565b600080fd5b634e487b7160e01b600052604160045260246000fd5b60408051919082016001600160401b03811183821017620004385760405256fe6080604081815260048036101561001557600080fd5b600092833560e01c90816306fdde0314610d6257508063095ea7b314610cf057806315f570dc14610c8857806318160ddd14610c695780631de40e4914610c4d5780631e9d490414610c2f57806323b872dd14610bbd578063313ce56714610ba15780634177731f14610b435780634e43603a14610a7557806354ae273814610a1857806370a08231146109e1578063715018a6146109845780638a65d8741461090d5780638da5cb5b146108e45780639582fa341461064257806395d89b4114610553578063a9059cbb146104a2578063ab5a7d5a1461039a578063d3fc98641461030e578063dd62ed3e146102c1578063edfcc437146101b25763f2fde38b1461012057600080fd5b346101ae5760203660031901126101ae57610139610e82565b90610142611111565b6001600160a01b03918216928315610198575050600554826bffffffffffffffffffffffff60a01b821617600555167f8be0079c531659141344cd1fd0a4f28419497f9722a3daafe3b4186f6b6457e08380a380f35b51631e4fbdf760e01b8152908101849052602490fd5b8280fd5b5090346101ae5760203660031901126101ae576101cd610e82565b6001600160a01b03811680855260066020528285205490939062278d0081019081106102ae5742106102745783855284602052828520549060058202918083046005149015171561026157506064900480610226578480f35b7f79f983b8fb121392d55d6b815393bf7dd2134065df6b6c2a14fbff6caf21bc06926102548260209461113d565b51908152a2388080808480f35b634e487b7160e01b865260119052602485fd5b606490602084519162461bcd60e51b8352820152601460248201527355736572206973207374696c6c2061637469766560601b6044820152fd5b634e487b7160e01b865260118252602486fd5b50503461030a578060031936011261030a57806020926102df610e82565b6102e7610e9d565b6001600160a01b0391821683526001865283832091168252845220549051908152f35b5080fd5b50503461030a577f79c5d66e2599a2f835d79ae78578da14935990e01f26baf55a4639c8220559c46103949161034336610f7a565b94909161034e611111565b61035883826111e1565b60018060a01b031694858752600660205260018488204281550161037d8482546110df565b905583519384938452806020850152830190610e5d565b0390a280f35b5090346101ae576103aa3661109f565b92906103b4611111565b60018060a01b0316908185526020936006855242848720558051907fb6d2dc83590271a7c0a5ab5fbf6a2dad418bbfd533c253e3d69a6772712809c7868201928320671c1c9bdc1bdcd85b60c21b88885161040e81610ee5565b60088152015203610437575050506002926006918552528220016104328154611102565b905580f35b51902083517f0932bdf85fc8aa10ac3c22f02317f8f53d4b4f52235ed1eabb3a4cbbe08b5c419263766f746560e01b91879161047282610ee5565b8152015214610482575b50505080f35b6003926006918552528220016104988154611102565b905538808061047c565b5082346105505782600319360112610550576104bc610e82565b331561053b576001600160a01b03161561052757506020608492519162461bcd60e51b8352820152602b60248201527f5354415420697320736f756c626f756e6420616e642063616e6e6f742062652060448201526a1d1c985b9cd9995c9c995960aa1b6064820152fd5b602492519163ec442f0560e01b8352820152fd5b506024925191634b637e8f60e11b8352820152fd5b80fd5b5090346101ae57826003193601126101ae57805183819490845461057681610fc0565b91828552602096600192886001821691826000146106185750506001146105bd575b85886105b9896105aa848a0385610f01565b51928284938452830190610e5d565b0390f35b815286935091907f8a35acfbc15ff81a39ae7d344fd709f28e8600b4aa8c65c6b64bfe7fe36bd19b5b82841061060057505050820101816105aa6105b938610598565b8054848a0186015288955087949093019281016105e6565b60ff19168882015294151560051b870190940194508593506105aa92506105b99150389050610598565b5091903461030a576106533661109f565b9161065c611111565b8051928051602094858181850193610675818387610e3a565b81016007815203019020549384156108b25785969761069486836111e1565b845161069f81610eb3565b42815281888201918883528b88820181815289606084019280845260808501988b8a52600160a01b60019003169e8f8252600690522092518355600194518584015551600283015551600382015501925180519267ffffffffffffffff841161089f575061070d8454610fc0565b601f8111610859575b5088908b601f85116001146107c4579484806107a6966026966103949b967f79c5d66e2599a2f835d79ae78578da14935990e01f26baf55a4639c8220559c49f9e9d9a966107969c97946107b9575b50501b916000199060031b1c19161790555b84519586926502937b6329d160d51b8b85015251809285850190610e3a565b8101036006810185520183610f01565b8080519586958652850152830190610e5d565b015192503880610765565b50848c52898c209293929190601f1984168d5b81811061084457509484610394999461079699947f79c5d66e2599a2f835d79ae78578da14935990e01f26baf55a4639c8220559c49e9d9c99946026986107a69a1061082b575b505050811b019055610777565b015160001960f88460031b161c1916905538808061081e565b82840151855593860193928c01928c016107d7565b848c52898c20601f850160051c8101918b8610610895575b601f0160051c019083905b82811061088a575050610716565b8d815501839061087c565b9091508190610871565b634e487b7160e01b8c526041905260248bfd5b835162461bcd60e51b8152808901879052600c60248201526b496e76616c696420726f6c6560a01b6044820152606490fd5b50503461030a578160031936011261030a5760055490516001600160a01b039091168152602090f35b509134610550576020366003190112610550576105b99082906001600160a01b03610936610e82565b1681526006602052209182549260018101549461095e60028301549160038401549301610ffa565b92805196879687526020870152850152606084015260a0608084015260a0830190610e5d565b833461055057806003193601126105505761099d611111565b600580546001600160a01b0319811690915581906001600160a01b03167f8be0079c531659141344cd1fd0a4f28419497f9722a3daafe3b4186f6b6457e08280a380f35b50503461030a57602036600319011261030a5760209181906001600160a01b03610a09610e82565b16815280845220549051908152f35b5091346105505760203660031901126105505782359067ffffffffffffffff821161055057506020610a518194610a6393369101610f23565b81845193828580945193849201610e3a565b81016007815203019020549051908152f35b5090346101ae57602092836003193601126105505790806105b992610a98610e82565b606060808451610aa781610eb3565b84815289810185905285810185905282810185905201526001600160a01b031681526006865220815193610ada85610eb3565b81548552600182015492868601938452610b0c6002840154928288019384526003850154946060890195865201610ffa565b93608087019485528151978897818952519088015251908601525160608501525160808401525160a08084015260c0830190610e5d565b5091903461030a57602036600319011261030a576001600160a01b03610b67610e82565b1682526006602052808220549162278d008301809311610b8e576020838351904210158152f35b634e487b7160e01b815260118452602490fd5b50503461030a578160031936011261030a576020905160128152f35b50823461055057606036600319011261055057506020608492610bde610e82565b50610be7610e9d565b505162461bcd60e51b815291820152602160248201527f5354415420746f6b656e732063616e6e6f74206265207472616e7366657272656044820152601960fa1b6064820152fd5b50503461030a578160031936011261030a576020905162278d008152f35b50503461030a578160031936011261030a576020905160058152f35b50503461030a578160031936011261030a576020906002549051908152f35b50503461030a577fb6eba437dea61002485068cbdc3eb1297d900efae5943c4ecb01b815e8dcad3c610394610cbc36610f7a565b610cc893919293611111565b610cd2838561113d565b8551938493845286602085015260018060a01b031695830190610e5d565b508234610550578260031936011261055057506020608492610d10610e82565b505162461bcd60e51b815291820152602b60248201527f5354415420746f6b656e732063616e6e6f7420626520617070726f766564206660448201526a37b9103a3930b739b332b960a91b6064820152fd5b84843461030a578160031936011261030a578282600354610d8281610fc0565b9081845260209560019187600182169182600014610e13575050600114610db7575b5050506105b992916105aa910385610f01565b9190869350600383527fc2575a0e9e593c00f959f8c92f12db2869c3395a3b0502d05e2516446f71f85b5b828410610dfb57505050820101816105aa6105b9610da4565b8054848a018601528895508794909301928101610de2565b60ff19168782015293151560051b860190930193508492506105aa91506105b99050610da4565b60005b838110610e4d5750506000910152565b8181015183820152602001610e3d565b90602091610e7681518092818552858086019101610e3a565b601f01601f1916010190565b600435906001600160a01b0382168203610e9857565b600080fd5b602435906001600160a01b0382168203610e9857565b60a0810190811067ffffffffffffffff821117610ecf57604052565b634e487b7160e01b600052604160045260246000fd5b6040810190811067ffffffffffffffff821117610ecf57604052565b90601f8019910116810190811067ffffffffffffffff821117610ecf57604052565b81601f82011215610e985780359067ffffffffffffffff8211610ecf5760405192610f58601f8401601f191660200185610f01565b82845260208383010111610e9857816000926020809301838601378301015290565b6060600319820112610e98576004356001600160a01b0381168103610e985791602435916044359067ffffffffffffffff8211610e9857610fbd91600401610f23565b90565b90600182811c92168015610ff0575b6020831014610fda57565b634e487b7160e01b600052602260045260246000fd5b91607f1691610fcf565b9060405191826000825461100d81610fc0565b9081845260209460019160018116908160001461107d575060011461103e575b50505061103c92500383610f01565b565b600090815285812095935091905b81831061106557505061103c935082010138808061102d565b8554888401850152948501948794509183019161104c565b9250505061103c94925060ff191682840152151560051b82010138808061102d565b906040600319830112610e98576004356001600160a01b0381168103610e9857916024359067ffffffffffffffff8211610e9857610fbd91600401610f23565b919082018092116110ec57565b634e487b7160e01b600052601160045260246000fd5b60001981146110ec5760010190565b6005546001600160a01b0316330361112557565b60405163118cdaa760e01b8152336004820152602490fd5b6001600160a01b031680156111c8576000918183528260205260408320548181106111a557817fddf252ad1be2c89b69c2b068fc378daa952ba7f163c4a11628f55a4df523b3ef926020928587528684520360408620558060025403600255604051908152a3565b606493506040519263391434e360e21b8452600484015260248301526044820152fd5b604051634b637e8f60e11b815260006004820152602490fd5b6001600160a01b031690811561123f577fddf252ad1be2c89b69c2b068fc378daa952ba7f163c4a11628f55a4df523b3ef6020826112236000946002546110df565b60025584845283825260408420818154019055604051908152a3565b60405163ec442f0560e01b815260006004820152602490fdfea264697066735822122040670eeeaaba79274760c5b1facfd687f2939c420fdac84ef23a2c6404a0720364736f6c63430008180033",
  "linkReferences": {},
  "deployedLinkReferences": {}
}